:020000040800F2
:1000000000000320151B0008816700088F670008A7
:10001000956700089B670008A167000800000000C2
:1000200000000000000000000000000061FD00086A
:10003000A767000800000000A1FF000809000108F0
:10004000691B0008691B0008691B00081568000887
:10005000691B0008691B0008691B0008691B000870
:10006000691B0008D5670008E3670008691B0008E2
:10007000691B0008691B0008691B0008691B000850
:10008000691B0008691B0008691B0008691B000840
:10009000691B0008691B0008691B0008F16700085C
:1000A000691B000801680008B5670008691B0008A3
:1000B000691B0008691B0008691B0008691B000810
:1000C000691B0008691B0008691B0008691B000800
:1000D000691B0008691B0008691B0008691B0008F0
:1000E000691B0008691B0008691B0008691B0008E0
:1000F0002D68000821680008C9670008691B00080E
:10010000691B0008691B0008691B0008691B0008BF
:10011000691B0008691B0008691B0008691B0008AF
:10012000691B0008691B0008691B0008691B00089F
:0C013000691B0008691B0008691B00081F
:1001400010B5054C237833B9044B13B10448AFF311
:1001500000800123237010BD700300200000000008
:100160007C70010808B5034B1BB103490348AFF38A
:10017000008008BD00000000740300207C700108AE
:10018000034613F8012B002AFBD1181A01387047D7
:1001900001F0FF01102A2BDB10F0070F08D010F838
:1001A000013B013A8B422DD010F0070F42B3F6D13C
:1001B000F0B441EA012141EA014122F007047FF055
:1001C00000070023F0E80256083C85EA010586EAAC
:1001D000010685FA47F5A3FA87F586FA47F6A5FAE8
:1001E00087F68EB9EED1F0BC01F0FF0102F00702F4
:1001F00032B110F8013B013A83EA010313B1F8D19F
:100200000020704701387047002D06BF354603387F
:10021000073815F0010F07D1013015F4807F02BFB8
:10022000013015F4C03F0130F0BC0138704700BF09
:1002300081F0004102E000BF83F0004330B54FEA97
:1002400041044FEA430594EA050F08BF90EA020F04
:100250001FBF54EA000C55EA020C7FEA645C7FEA97
:10026000655C00F0E2804FEA5454D4EB5555B8BFBA
:100270006D420CDD2C4480EA020281EA030382EA2B
:10028000000083EA010180EA020281EA0303362DBD
:1002900088BF30BD11F0004F4FEA01314FF4801C90
:1002A0004CEA113102D0404261EB410113F0004FA2
:1002B0004FEA03334CEA133302D0524263EB430359
:1002C00094EA050F00F0A780A4F10104D5F1200EF7
:1002D0000DDB02FA0EFC22FA05F2801841F1000152
:1002E00003FA0EF2801843FA05F359410EE0A5F126
:1002F00020050EF1200E012A03FA0EFC28BF4CF057
:10030000020C43FA05F3C01851EBE37101F000450C
:1003100007D54FF0000EDCF1000C7EEB00006EEB19
:100320000101B1F5801F1BD3B1F5001F0CD34908A3
:100330005FEA30004FEA3C0C04F101044FEA4452FA
:1003400012F5800F80F09A80BCF1004F08BF5FEA81
:10035000500C50F1000041EB045141EA050130BD61
:100360005FEA4C0C404141EB010111F4801FA4F104
:100370000104E9D191F0000F04BF01460020B1FA59
:1003800081F308BF2033A3F10B03B3F120020CDA91
:100390000C3208DD02F1140CC2F10C0201FA0CF06F
:1003A00021FA02F10CE002F11402D8BFC2F1200CD4
:1003B00001FA02F120FA0CFCDCBF41EA0C0190408A
:1003C000E41AA2BF01EB0451294330BD6FEA0404D3
:1003D0001F3C1CDA0C340EDC04F11404C4F12002BE
:1003E00020FA04F001FA02F340EA030021FA04F3D0
:1003F00045EA030130BDC4F10C04C4F1200220FA27
:1004000002F001FA04F340EA0300294630BD21FA64
:1004100004F0294630BD94F0000F83F4801306BF2A
:1004200081F480110134013D4EE77FEA645C18BF1E
:100430007FEA655C29D094EA050F08BF90EA020FB5
:1004400005D054EA000C04BF1946104630BD91EAAD
:10045000030F1EBF0021002030BD5FEA545C05D1B0
:100460004000494128BF41F0004130BD14F58004EF
:100470003CBF01F5801130BD01F0004545F0FE4163
:1004800041F470014FF0000030BD7FEA645C1ABF98
:10049000194610467FEA655C1CBF0B46024650EACF
:1004A000013406BF52EA033591EA030F41F40021FB
:1004B00030BD00BF90F0000F04BF0021704730B581
:1004C0004FF4806404F132044FF000054FF0000156
:1004D00050E700BF90F0000F04BF0021704730B517
:1004E0004FF4806404F1320410F0004548BF4042EC
:1004F0004FF000013EE700BF42004FEAE2014FEA41
:1005000031014FEA02701FBF12F07F4393F07F4F1B
:1005100081F06051704732F07F4208BF704793F01E
:100520007F4F04BF41F40021704730B54FF4607431
:1005300001F0004521F000411CE700BF50EA010234
:1005400008BF704730B54FF000050AE050EA0102DD
:1005500008BF704730B511F0004502D5404261EB4D
:1005600041014FF4806404F132045FEA915C3FF48E
:10057000D8AE4FF003025FEADC0C18BF03325FEA2B
:10058000DC0C18BF033202EBDC02C2F1200300FADC
:1005900003FC20FA02F001FA03FE40EA0E0021FA01
:1005A00002F11444BDE600BF70B54FF0FF0C4CF4EF
:1005B000E06C1CEA11541DBF1CEA135594EA0C0FA1
:1005C00095EA0C0F00F0DEF82C4481EA030621EADC
:1005D0004C5123EA4C5350EA013518BF52EA033517
:1005E00041F4801143F4801338D0A0FB02CE4FF0C9
:1005F0000005E1FB02E506F00042E0FB03E54FF0F9
:100600000006E1FB03569CF0000F18BF4EF0010EF0
:10061000A4F1FF04B6F5007F64F5407404D25FEAEC
:100620004E0E6D4146EB060642EAC62141EA55519F
:100630004FEAC52040EA5E504FEACE2EB4F1FD0CE1
:1006400088BFBCF5E06F1ED8BEF1004F08BF5FEA5F
:10065000500E50F1000041EB045170BD06F0004611
:1006600046EA010140EA020081EA0301B4EB5C04BE
:10067000C2BFD4EB0C0541EA045170BD41F48011B6
:100680004FF0000E013C00F3AB8014F1360FDEBFDB
:10069000002001F0004170BDC4F10004203C35DAB7
:1006A0000C341BDC04F11404C4F1200500FA05F33A
:1006B00020FA04F001FA05F240EA020001F00042DB
:1006C00021F0004110EBD37021FA04F642EB060151
:1006D0005EEA430E08BF20EAD37070BDC4F10C047B
:1006E000C4F1200500FA04F320FA05F001FA04F23F
:1006F00040EA020001F0004110EBD37041F100012B
:100700005EEA430E08BF20EAD37070BDC4F1200535
:1007100000FA05F24EEA020E20FA04F301FA05F29D
:1007200043EA020321FA04F001F0004121FA04F245
:1007300020EA020000EBD3705EEA430E08BF20EA15
:10074000D37070BD94F0000F0FD101F0004640004F
:1007500041EB010111F4801F08BF013CF7D041EAD1
:10076000060195F0000F18BF704703F000465200D5
:1007700043EB030313F4801F08BF013DF7D043EAA6
:100780000603704794EA0C0F0CEA135518BF95EA5C
:100790000C0F0CD050EA410618BF52EA4306D1D1E3
:1007A00081EA030101F000414FF0000070BD50EA02
:1007B000410606BF1046194652EA430619D094EA8C
:1007C0000C0F02D150EA013613D195EA0C0F05D176
:1007D00052EA03361CBF104619460AD181EA0301CA
:1007E00001F0004141F0FE4141F470014FF0000082
:1007F00070BD41F0FE4141F4780170BD70B54FF01D
:10080000FF0C4CF4E06C1CEA11541DBF1CEA13559C
:1008100094EA0C0F95EA0C0F00F0A7F8A4EB05047E
:1008200081EA030E52EA03354FEA013100F0888075
:100830004FEA03334FF0805545EA131343EA12633E
:100840004FEA022245EA111545EA10654FEA0026F3
:100850000EF000419D4208BF964244F1FD0404F5AC
:10086000407402D25B084FEA3202B61A65EB030508
:100870005B084FEA32024FF480104FF4002CB6EBC5
:10088000020E75EB030E22BFB61A754640EA0C0045
:100890005B084FEA3202B6EB020E75EB030E22BF85
:1008A000B61A754640EA5C005B084FEA3202B6EBC6
:1008B000020E75EB030E22BFB61A754640EA9C0085
:1008C0005B084FEA3202B6EB020E75EB030E22BF55
:1008D000B61A754640EADC0055EA060E18D04FEA13
:1008E000051545EA16754FEA06164FEAC30343EAB3
:1008F00052734FEAC2025FEA1C1CC0D111F4801F80
:100900000BD141EA00014FF000004FF0004CB6E778
:1009100011F4801F04BF01430020B4F1FD0C88BF17
:10092000BCF5E06F3FF6AFAEB5EB030C04BFB6EB22
:10093000020C5FEA500C50F1000041EB045170BD15
:100940000EF0004E4EEA113114EB5C04C2BFD4EB42
:100950000C0541EA045170BD41F480114FF0000EC6
:10096000013C90E645EA060E8DE60CEA135594EA42
:100970000C0F08BF95EA0C0F3FF43BAF94EA0C0F45
:100980000AD150EA01347FF434AF95EA0C0F7FF4BA
:1009900025AF104619462CE795EA0C0F06D152EA0E
:1009A00003353FF4FDAE1046194622E750EA4106F2
:1009B00018BF52EA43067FF4C5AE50EA41047FF403
:1009C0000DAF52EA43057FF4EBAE12E74FF0FF3C68
:1009D00006E000BF4FF0010C02E000BF4FF0010C39
:1009E0004DF804CD4FEA410C7FEA6C5C4FEA430CB2
:1009F00018BF7FEA6C5C1BD001B050EA410C0CBF01
:100A000052EA430C91EA030F02BF90EA020F002062
:100A1000704710F1000F91EA030F58BF994208BFC9
:100A200090422CBFD8176FEAE37040F00100704786
:100A30004FEA410C7FEA6C5C02D150EA013C07D1DD
:100A40004FEA430C7FEA6C5CD6D152EA033CD3D028
:100A50005DF8040B704700BF8446104662468C4622
:100A60001946634600E000BF01B5FFF7B7FF002855
:100A700048BF10F1000F01BD4DF808EDFFF7F4FF7E
:100A80000CBF012000205DF808FB00BF4DF808ED09
:100A9000FFF7EAFF34BF012000205DF808FB00BF2C
:100AA0004DF808EDFFF7E0FF94BF012000205DF84E
:100AB00008FB00BF4DF808EDFFF7CEFF94BF012003
:100AC00000205DF808FB00BF4DF808EDFFF7C4FFFC
:100AD00034BF012000205DF808FB00BF4FEA410C45
:100AE0007FEA6C5C02D150EA013C0AD14FEA430C28
:100AF0007FEA6C5C02D152EA033C02D14FF0000065
:100B000070474FF0010070474FEA410212F50012A2
:100B100015D211D56FF47873B3EB625212D94FEA44
:100B2000C12343F0004343EA505311F0004F23FA2E
:100B300002F018BF404270474FF00000704750EA83
:100B4000013005D111F0004008BF6FF00040704740
:100B50004FF00000704700BF4FEA4102B2F1E0439E
:100B600024BFB3F5001CDCF1FE5C0DD901F0004C94
:100B70004FEAC0024CEA5070B2F1004F40EB8300E4
:100B800008BF20F00100704711F0804F21D113F110
:100B90003872BCBF01F00040704741F480114FEA49
:100BA0005252C2F11802C2F1200C10FA0CF320FAD2
:100BB00002F018BF40F001004FEAC1234FEAD323EF
:100BC00003FA0CFC40EA0C0023FA02F34FEA430359
:100BD000CCE77FEA625307D150EA01331EBF4FF0E2
:100BE000FE4040F44000704701F0004040F0FE40FD
:100BF00040F40000704700BF80B400AF034B1B6897
:100C00001846BD465DF8047B704700BF8075FF1F26
:100C100080B400AF034B1B68DBB21846BD465DF8DD
:100C2000047B70478475FF1F80B400AF034B1B68C3
:100C30001B0A1846BD465DF8047B70478475FF1F8C
:100C4000B0B58CB000AF2B4B3C461D460FCD0FC44A
:100C50000FCD0FC495E80F0007C4237000F0FEF914
:100C60000121022012F08AFB234A002123480EF0C2
:100C700009FA0246224B1A603B4618460CF096FDD4
:100C80000346002B01D005F06DFA00F00FFA0BF0CF
:100C900039FD1C4B002283F880201A4B4FF6FF725F
:100CA000DA82194A002119480EF0ECF90246184B75
:100CB0001A60184B00221A70174B01221A7000F0AC
:100CC000A7FC164B00221649002002F0B7FA0D4B84
:100CD00000225A760B4B00221A76124B80221A8081
:100CE000114BA0221A80012000F0BCFA00BF30375F
:100CF000BD46B0BD28720108FC7F010879140008C8
:100D000074E00220F8010020D87F01085114000887
:100D1000A4E1022081E0022080E0022039140008D2
:100D2000790200207C0200207E02002080B58CB079
:100D300000AF7860422387F82F307B680133BB62B5
:100D4000BB6A1B783E2B28D0FF2B00F0A580052B1B
:100D500000D045E1BB6A02333B613B69B3F8013027
:100D60009AB2A24BDB8A9A4209D1A04B0022DA82C6
:100D70009E4B002283F880209D4813F03BF8012011
:100D800000F070FA9B4B01221A70984BDA8A994B4B
:100D90005A80984800F024FC22E1BB6A0233FB61D0
:100DA000FB691B78032B04D00C2B06D0012B42D0FF
:100DB00071E0914813F01EF86DE0904813F01AF8B6
:100DC000FB690133BB61BB691B78002B03D18C48E5
:100DD00013F010F802E08B4813F00CF8834BDB8A19
:100DE00007F10E0207F10F0118460CF0F0FB034665
:100DF00087F82F3097F82F30002B18D1824812F047
:100E0000F9FFFB7B022B0AD1BB7B022B07D1FB7BBB
:100E10001946BB7B1A467D4812F078FF3BE0FB7B0E
:100E20001946BB7B1A46794812F070FF33E07848C8
:100E300012F0E0FF2FE0FB6901337B616B4B93F80D
:100E40008130184602F070FA7B69B3F801309BB22A
:100E50001946704812F05AFF644B93F88030042B07
:100E600004D1624B062283F8802003E05F4B052209
:100E700083F880207B69B3F801309AB25B4BDA8249
:100E80005C4B00221A70594BDA8A5A4B5A805948E7
:100E900000F0A6FB00BFA3E0BB6A02337B627B6A63
:100EA0001B889BB240F2054293424AD040F2054271
:100EB000934218DC40F20242934233D040F20242A5
:100EC000934207DCB3F5806F28D040F20142934291
:100ED00069D084E040F2034293422AD040F20442B7
:100EE00093422AD07BE0B3F5816F3AD0B3F5816F9E
:100EF00008DC40F2064293422FD040F20742934270
:100F000069D06CE040F20A4293422ED040F20A428D
:100F100093422EDBB3F5006F5AD060E03E4812F0EA
:100F200069FF5CE03D4812F065FF3D4812F062FF4A
:100F300055E03C4812F05EFF51E03B4812F05AFF8A
:100F40004DE03A4812F056FF284BDB8A18460BF06A
:100F500074FF374812F04EFF41E0364812F04AFF66
:100F60003DE0344812F046FF39E0334812F042FFCA
:100F700035E07B6A0233D3F8023019462F4812F06D
:100F8000C5FE7B6A0233D3F8023019462C4812F0B2
:100F9000BDFE164BDB8A012118460BF098FF29484D
:100FA00012F028FF1BE07B6A02333B623B6A9B78AE
:100FB0001946254812F0AAFE3B6A9B78002B03D104
:100FC000224812F017FF0AE0214812F013FF06E052
:100FD000204B01221A70204812F00CFF00BF00BF06
:100FE000012318463037BD4680BD00BFF801002000
:100FF0005872010878E0022080720108AC72010882
:10100000C8720108EC720108147301082873010802
:10101000447301085C73010890730108BC730108F4
:10102000E473010804740108307401086074010855
:10103000807401089C740108C0740108EC740108F4
:10104000047501081875010854750108AC7501088C
:10105000C075010880E00220D475010880B582B017
:1010600000AF00200EF0D8F902460B4B1A600022A8
:10107000002101200EF018FB0246084B1A60084BB5
:101080003B60084B7B603B46194607480CF0BCFBB5
:1010900000BF0837BD4680BDA0E0022070E00220FE
:1010A0002800032031150008F9140008F0B58FB0AE
:1010B00006AF4FF450733B800CF065FA00F078F9FE
:1010C000F861FA69062100200CF09DF9FB695A7954
:1010D0005C4B1A72FB691A795A4B5A72FB69DA78BF
:1010E000584B9A72FB699A78564BDA72FB695A78B8
:1010F000544B1A73FB691A78524B5A73524A102197
:1011000018200CF080F9514A102108200CF07BF9CE
:101110004EF66E53BB60FFF76FFD03467B603B1DD1
:101120001A4606212E200CF06EF9474A102118208D
:101130000CF069F9454A102108200CF064F91821D7
:1011400001200CF0C9F90BF019FF0023FB76FB7EA0
:1011500043F00103FB76FB7E002B24D03C4B7B61EC
:1011600007F11202F87E07F10E03019307F1100355
:1011700000931346072200210BF054FD7C8A3D8A20
:101180007869FEF7FDFF0346DAB27B6900931346E8
:101190000022294620460CF0AFF80346002B02D06F
:1011A0002C4812F027FE788AF9893B4600930223E7
:1011B00000220CF0A1F80346002B02D0264812F0C2
:1011C00019FE0222022100200CF069FA234B0122B1
:1011D0001A70224B1B7818460BF032FC1F4B012271
:1011E0005A701E4B08221A711C4B10225A711B4B4D
:1011F0000022DA70194B1A4A9A60184B01229A7031
:10120000164B9D78154B5E78144B1B79134A527917
:101210001249C9781148806800240494039002910F
:101220000192009300230122314628460BF052FC24
:101230000A4B9B78002B01D00BF0DBFD00BF24375D
:10124000BD46F0BD04000020B07F0108C07F01084A
:10125000FC7501080476010834760108F8010020C5
:1012600007B2010080B58CB008AF0346FB71422382
:10127000FB72FB79012B06D13F4B1B88FB813F4B57
:101280001B88BB8105E04FF4C863FB814FF47A6390
:10129000BB813B4B93F88130184602F045F8384B40
:1012A00093F880301946374812F030FDFB79022B55
:1012B00019D1334B93F88030012B04D0304B93F885
:1012C0008030022B0FD10BF0B9FA0346FB72FB7A88
:1012D000002B03D12C4812F08DFD04E0FB7A194657
:1012E0002A4812F013FD264AFB7982F88030244BFD
:1012F0001B7EB889F9890022069200220592244AB1
:1013000004920393234B0293082301930023009339
:101310000023024600200BF0B5FA0346FB721E497B
:101320000E200BF00AFD0346FB72FB7A002B11D155
:10133000FB79012B0AD1194812F05CFD104B93F890
:1013400081301749184602F079F812E0154812F07A
:1013500051FD0EE0FB79012B05D1FB7A19461248AD
:1013600012F0D4FC05E0FB7A1946104812F0CEFCCE
:1013700000BF1037BD4680BD7C0200207E020020E9
:10138000F80100206476010880760108A47601083F
:1013900011020020D07F010804000020CC76010853
:1013A00046E00100F4760108207701085077010833
:1013B00080B586B000AFFFF71FFC38613B69B3F121
:1013C000FF3F23D0FFF730FCB860FFF721FC7860C7
:1013D0003B69DAB2164B1A703B691B0ADAB2144B3E
:1013E0005A703B691B0CDAB2114B9A707B68DAB207
:1013F0000F4BDA70BB68DAB20D4B1A71BB681B0A6F
:10140000DAB20B4B5A710A4B7B610BE000200DF0F6
:10141000E9F8F860FB68002B02D0FB687B6101E013
:10142000044B7B617B6918461837BD4680BD00BF01
:101430008C030020A87F010880B500AF034B1B6818
:10144000012118460DF0C4FE00BF80BDA4E10220BA
:1014500080B582B000AF78604FF0FF3200210120EC
:101460000DF018FF00F001F8F6E780B500AF02209C
:10147000FFF7F8FE00BF80BD80B582B000AF786096
:101480004FF0FF32002101200DF004FF0CF0D8F9DD
:10149000F6E7000080B582B000AF7860044B1B68AF
:1014A000012118460DF094FE00BF0837BD4680BDEF
:1014B00074E0022080B582B000AF7860044B1B68F6
:1014C00018460EF0F5F900BF0837BD4680BD00BFD5
:1014D00070E0022080B582B000AF7860054B1B68D9
:1014E0004FF0FF3118460EF07DF900BF0837BD46BA
:1014F00080BD00BF70E0022080B584B000AF78608E
:101500007B68FB60FB685B68083318460BF044F9A6
:101510000346FB72FB7A002B03D0FB6801221A7092
:1015200002E0FB6800221A7000BF1037BD4680BD84
:1015300080B582B000AF0346FB71FB79002B02D06F
:10154000012B08D00DE0094B1B684FF0FF31184606
:101550000DF0FCFF05E0054B1B6818460EF054F833
:1015600000BF00BF0837BD4680BD00BFA0E002201D
:1015700080B582B000AF78607B681B78012B0ED0FD
:10158000032B16D0002B00D01CE0104B01221A7048
:101590000F4812F02FFC0F4812F0B8FB12E00B4B73
:1015A00000221A700C4812F025FC0A4812F0AEFB1B
:1015B00008E00A4B18687B68191D002300220EF012
:1015C00055FA00BF00BF0837BD4680BD88E0022045
:1015D0004079010874790108787901087CE00220DB
:1015E00080B582B000AF78607B681B78002B02D09A
:1015F000012B04D006E0054B01225A7002E000F0F6
:1016000013F800BF00BF0837BD4680BD88E0022048
:1016100080B500AF034B00221A7000F005F800BF40
:1016200080BD00BF88E0022080B400AF034B0022E1
:101630005A7000BFBD465DF8047B704788E0022009
:1016400080B400AF054BDB68044A43F40043D36029
:1016500000BFBD465DF8047B704700BF0004005822
:1016600080B483B000AF7860064BD3F8D42005492E
:101670007B681343C1F8D43000BF0C37BD465DF81A
:10168000047B70470008005880B483B000AF7860D6
:10169000054B1A6A04497B6813430B6200BF0C3781
:1016A000BD465DF8047B70470008005880B485B0E3
:1016B00000AF78604FF0B0431A6D4FF0B0417B68D7
:1016C00013430B654FF0B0431A6D7B681340FB600A
:1016D000FB6800BF1437BD465DF8047B704780B4DB
:1016E00085B000AF78604FF0B043D3F850214FF091
:1016F000B0417B681343C1F850314FF0B043D3F889
:1017000050217B681340FB60FB6800BF1437BD4667
:101710005DF8047B704780B483B000AF78607B686D
:101720001B6843F480327B681A6000BF0C37BD46EB
:101730005DF8047B704780B483B000AF78607B684D
:101740001B6843F001027B681A6000BF0C37BD467E
:101750005DF8047B704780B483B000AF7860396077
:101760007B685A683B681B04DB431A407B685A60FD
:1017700000BF0C37BD465DF8047B704780B483B072
:1017800000AF786039607B685A683B681B041A4375
:101790007B685A6000BF0C37BD465DF8047B70471C
:1017A00080B483B000AF786039607B685A683B686A
:1017B000DB431A407B685A6000BF0C37BD465DF8BA
:1017C000047B704780B483B000AF786039607B6879
:1017D0003A689A6000BF0C37BD465DF8047B7047DD
:1017E00080B483B000AF786039603B681A047B68CE
:1017F0009A6000BF0C37BD465DF8047B704780B42B
:1018000083B000AF786039607B68DA683B6813406A
:101810003A689A4201D1012300E0002318460C37B0
:10182000BD465DF8047B704780B483B000AF78603C
:1018300039607B68DA693B6813403A689A4201D1A3
:10184000012300E0002318460C37BD465DF8047BF9
:101850007047000080B500AF02211948FFF7E4FF90
:101860000346002B09D0164B5B68DB4303F00203F1
:10187000002B02D000F0EAF81FE001211048FFF72A
:10188000D3FF0346002B08D00D4B5B6803F0010328
:10189000002B02D100F09EF80FE008210848FFF766
:1018A000C3FF0346002B09D0054B5B68DB4303F005
:1018B0000803002B02D000F015F900BF00BF80BD67
:1018C000000C005880B500AF02212248FFF797FFB7
:1018D0000346002B09D11F4B5B68DB4303F4003345
:1018E000002B02D000F0A6F831E002211948FFF7E2
:1018F00086FF0346002B09D1164B5B68DB4303F4DC
:101900000033002B02D000F095F820E008211148A8
:10191000FFF775FF0346002B09D10E4B5B68DB43D5
:1019200003F40023002B02D000F0BEF80FE02021CA
:101930000848FFF764FF0346002B09D1054B5B689D
:10194000DB4303F40013002B02D000F04FF800BF7C
:1019500000BF80BD000C005880B500AF4FF4801070
:10196000FFF7BDFE4FF40070FFF77AFE4FF40070F2
:10197000FFF78AFE40BF20BFFFF762FE00BF80BDB9
:1019800080B500AF4FF48010FFF790FE0648FFF7D8
:10199000D2FE0548FFF7BFFE2C2005F057FD2D2095
:1019A00005F054FD00BF80BD000C005880B500AFAD
:1019B00001210248FFF7F4FE00BF80BD000C005873
:1019C00080B500AF01210248FFF70AFF00BF80BDCC
:1019D000000C005880B500AF0CF070FA01210248ED
:1019E000FFF7F0FE00BF80BD000C005880B500AFCF
:1019F00020210348FFF7C2FE0CF090FA00BF80BD23
:101A0000000C005880B500AF02210248FFF7C8FE65
:101A100000BF80BD000C005880B500AF0221044813
:101A2000FFF7DEFE02210248FFF795FE00BF80BDF2
:101A3000000C005880B500AF02210348FFF79EFE5E
:101A40000CF0BCFA00BF80BD000C005880B500AFA0
:101A50000CF0CAFA02210248FFF7B4FE00BF80BDB5
:101A6000000C005880B582B000AF786008210C48A7
:101A7000FFF7C5FE0346002B07D00A4A7B681360B8
:101A800008210748FFF767FE06E07B6898470821B2
:101A90000348FFF7A5FE00BF0837BD4680BD00BF65
:101AA000000C00589403002080B500AF08210648C0
:101AB000FFF764FE054B1B68984708210248FFF7B3
:101AC0008FFE00BF80BD00BF000C005894030020B3
:101AD00080B500AF08210248FFF762FE00BF80BD5D
:101AE000000C005880B500AF0CF026FB082102481E
:101AF000FFF768FE00BF80BD000C0058D458C450EA
:101B00000433C4188C42F9D3704703600430884210
:101B1000FBD370470C48854605F08EFA0B480C49FC
:101B20000C4A0023FFF7EDFF0B480C490023FFF799
:101B3000EEFF0B480B490023FFF7E9FF11F052FCC1
:101B400002F0FEF8FEE70000000003200400002081
:101B5000F8010020E094010870030020F0E3022067
:101B6000E0010320570A0320FEE7000080B483B0A1
:101B700000AF7860064BD3F8902005497B6813438B
:101B8000C1F8903000BF0C37BD465DF8047B70474C
:101B90000008005880B485B000AF78604FF0B043C3
:101BA000DA6C4FF0B0417B681343CB644FF0B04325
:101BB000DA6C7B681340FB60FB6800BF1437BD46DE
:101BC0005DF8047B704780B485B000AF78604FF05B
:101BD000B043D3F84C214FF0B0417B681343C1F8B8
:101BE0004C314FF0B043D3F84C217B681340FB607D
:101BF000FB6800BF1437BD465DF8047B704780B5B5
:101C000000AF05F0E7FA05F0EBFA4FF48030FFF78C
:101C1000ADFF0CF06DFC00F021F800F0BFF800BF44
:101C200080BD0000B0B588B000AF0B4B3C1D1D4619
:101C30000FCD0FC495E8070003C422800234130CB3
:101C400023700CF067FA3B1D18460BF0C6FD00BF71
:101C50002037BD46B0BD00BF687A010880B588B0A6
:101C600000AF3B1D00221A605A609A60DA601A6168
:101C70000023BB8300237B8300233B830023FB776C
:101C800033E0FB7F424ADB0013449B79002B28D0D2
:101C9000FB7F3F4A52F833303E4A93420FD03E4AD0
:101CA000934215D0B3F1904F00D01BE0FB7F384A30
:101CB000DB0013449A88BB8B1343BB8312E0FB7F8A
:101CC000334ADB0013449A887B8B13437B8309E000
:101CD000FB7F2F4ADB0013449A883B8B13433B83E3
:101CE00000E000BFFB7F0133FB77FB7F212BC8D9CE
:101CF0000023FB600123BB6003233B61BB8B002BF4
:101D000014D0BB8B7B600120FFF744FF0120FFF75D
:101D10005AFF3B1D19464FF0904005F0CFFBBB8B9F
:101D2000002219464FF0904005F050FD7B8B002BB0
:101D300012D07B8B7B600220FFF72CFF0220FFF785
:101D400042FF3B1D1946134805F0B8FB7B8B002270
:101D50001946104805F03AFD3B8B002B13D03B8B06
:101D60007B600420FFF716FF0420FFF72CFF3B1DCC
:101D70001946094805F0A2FB3B8B0022194606488C
:101D800005F024FD00BF00BF2037BD4680BD00BF69
:101D900020800108000400480008004880B400AF1B
:101DA00000BFBD465DF8047B704780B400AF00BF44
:101DB000BD465DF8047B704780B584B000AFF86025
:101DC0000B467A607B817A897B68F968002001F094
:101DD000C9FB00BF1037BD4680BD000080B483B092
:101DE00000AF7860074BD3F8803023F00702054935
:101DF0007B681343C1F8803000BF0C37BD465DF8E7
:101E0000047B70470004005880B483B000AF786052
:101E10004FF0B0439B6823F400424FF0B0417B6821
:101E200013438B6000BF0C37BD465DF8047B7047E1
:101E300080B500AF00F014F80849002001F018F94F
:101E4000FFF7DDFE0121012011F098FA00F0A1F862
:101E500000F0A6F800F012F800BF80BDA4E0022058
:101E600080B500AF4FF40040FFF7CEFF11F074FAD9
:101E70000420FFF7B3FF00BF80BD000080B588B02D
:101E800000AF0BF091FF00200DF0C6FA0246174B91
:101E90001A600022002101200DF006FC0246144BBE
:101EA0001A60144A002114480DF0ECF80246134B56
:101EB0001A60134B3B60134B7B603B46194612483C
:101EC0000BF038FE114BBB60114BFB60114B3B61BB
:101ED00040F23C537B6107F1080318460CF0A6F86A
:101EE0000BF05CFF00BF2037BD4680BDB8E102208B
:101EF000C0E1022030810108791F0008BCE1022006
:101F000024070320191F0008591F00083C0903205B
:101F100030080320E801032080B582B000AF0346FB
:101F2000FB71FB79002B02D0012B08D00DE0094B8F
:101F30001B684FF0FF3118460DF008FB05E0054B1C
:101F40001B6818460DF060FB00BF00BF0837BD4698
:101F500080BD00BFB8E1022080B582B000AF7860DC
:101F6000FFF760FEFEF76CFE0021012011F006FA7B
:101F700000BF0837BD4680BD80B582B000AF786035
:101F80004FF0FF32002101200DF084F90BF0EEFD3F
:101F9000F6E780B400AF00BFBD465DF8047B704734
:101FA00080B400AF00BFBD465DF8047B7047000001
:101FB00080B582B000AF7860044B1B6801211846E1
:101FC0000DF006F900BF0837BD4680BDBCE1022018
:101FD00080B582B000AF7860044B1B6818460DF0E6
:101FE00067FC00BF0837BD4680BD00BFC0E10220CE
:101FF00080B582B000AF7860054B1B684FF0FF31B1
:1020000018460DF0EFFB00BF0837BD4680BD00BF8E
:10201000C0E1022080B584B000AF78607B681B68A7
:10202000234A13607B689A88214B9A80204B0022B8
:102030009A717B689B7903F00303DAB21C4B1A7325
:102040007B689B799B08DBB203F00303DAB2184B81
:102050005A737B689B791B09DBB203F00303DAB286
:10206000134B9A73124B1A7B114B5B7B9A420CD128
:102070000F4B9A880E4B9B880333002B00DA0333F7
:102080009B109BB213449BB205E0094B9B881A46F8
:10209000520013449BB2FB81FB8918460EF040F8B6
:1020A00003461A46024B9A6000BF1037BD4680BDFA
:1020B000C4E1022080B584B000AF4B4B9B68002B7D
:1020C00000F08E80484B9B68FB60474B9B883B81B0
:1020D000454B9B79FB8000237B710023FB720AE058
:1020E000414B1868791D4FF0FF33012208F0B5FD10
:1020F000FB7A0133FB72FB7A032BF1D93A4B9B79C4
:10210000002B2CD0FF237B71374B1868791D4FF0C3
:10211000FF33012208F0A1FD0023FB7215E0FB68EC
:102120005A1CFA601B781A46FB8803FB02F31B1249
:10213000DBB27B712C4B1868791D4FF0FF33012205
:1021400008F08BFDFB7A0133FB72FB7A022BE6D998
:102150003B89013B3B813B89002BD3D125E0FF2309
:102160007B71214B1868791D4FF0FF33012208F075
:1021700074FD0023FB720FE0FB685A1CFA601B78A9
:102180007B71194B1868791D4FF0FF33012208F05D
:1021900064FDFB7A0133FB72FB7A022BECD93B899D
:1021A000013B3B813B89002BD9D1FF237B7100236D
:1021B000FB720AE00C4B1868791D4FF0FF330122C7
:1021C00008F04BFDFB7A0133FB72FA7A064B9B88D1
:1021D0000F33002B00DA0F331B119A42EADB00E0C9
:1021E00000BF1037BD4680BDC4E1022080B500AFFE
:1021F0000F4B98680E4B1A7B0D4B5B7B9A420BD1B1
:102200000B4B9B881A460A4B9B880333002B00DA42
:1022100003339B10134405E0054B9B881A46134675
:102220005B0013441A46002111F00BF900BF80BD7A
:10223000C4E1022080B485B000AF03463960FB8062
:10224000164B9B88FA889A4221D2144B9968FA88D7
:1022500013465B0013440B44FB603B681A0C0F4BA6
:102260001B7B1946FB680B44D2B21A703B681A0AF2
:102270000A4B5B7B1946FB680B44D2B21A70074BC2
:102280009B7B1A46FB6813443A68D2B21A7000BFAF
:102290001437BD465DF8047B704700BFC4E10220DF
:1022A00080B584B000AF78600B467B8013463B80DE
:1022B000154B9B887A889A4222D23B88002B03D107
:1022C000114B9B88BB810BE07A883B881344BB8110
:1022D0000D4B9B88BA899A4202D90B4B9B88BB81D4
:1022E0007B88FB8107E0FB8979681846FFF7A2FF2E
:1022F000FB890133FB81FA89BB899A42F3D300E061
:1023000000BF1037BD4680BDC4E1022080B483B059
:1023100000AF0346FB71FB790133DAB2034B9A71CC
:1023200000BF0C37BD465DF8047B7047C4E1022056
:1023300080B586B002AF03460A46FB711346BB71F7
:102340007823FB81BB793B73FB797B7307F10C022C
:10235000F9894FF0FF3300930223034805F01AFB7D
:1023600000BF1037BD4680BDDCE1022080B500AF64
:102370000021AE20FFF7DCFF0021D520FFF7D8FFBA
:1023800000218020FFF7D4FF0021A820FFF7D0FF15
:1023900000212720FFF7CCFF0021D320FFF7C8FF43
:1023A00000210020FFF7C4FF0021AD20FFF7C0FF90
:1023B00000213020FFF7BCFF00218D20FFF7B8FF80
:1023C00000211420FFF7B4FF00214020FFF7B0FFE9
:1023D0000021A620FFF7ACFF0021A420FFF7A8FFF3
:1023E0000021A120FFF7A4FF0021C820FFF7A0FFD4
:1023F0000021DA20FFF79CFF00211220FFF798FF51
:1024000000218120FFF794FF0021AF20FFF790FF0C
:102410000021D920FFF78CFF00212220FFF788FF41
:102420000021DB20FFF784FF00212020FFF780FF41
:102430000021AF20FFF77CFF00BF80BD80B485B0D6
:1024400000AF78600023FB6007E0FB687A68134404
:1024500000221A70FB680133FB60FB68B3F5B47FA0
:10246000F3DB00BF1437BD465DF8047B704780B4D2
:1024700085B000AFF860B9603B601346FB71FB6844
:10248000482B61DCBB68282B5EDCFB79002B2CD051
:10249000BB68002B00DA0733DB101A461346DB005B
:1024A0001344DB001946FB680B4419463B680B4498
:1024B0001B7859B2BB68584203F0070300F00700CD
:1024C00058BF4342012000FA03F35BB20B4359B2F9
:1024D0001346DB001344DB001A46FB6813441A461C
:1024E0003B681344CAB21A702FE0BB68002B00DAB5
:1024F0000733DB101A461346DB001344DB00194692
:10250000FB680B4419463B680B441B7859B2BB6807
:10251000584203F0070300F0070058BF4342012070
:1025200000FA03F35BB2DB435BB20B4059B21346D4
:10253000DB001344DB001A46FB6813441A463B6871
:102540001344CAB21A7000E000BF1437BD465DF8EC
:10255000047B704790B587B000AF0446084611462B
:102560001A462346FB710346BB710B467B7113462B
:102570003B71BB793B7480237B8208237B747B791E
:10258000203BFB733B79202B04D14FF400437B822B
:1025900010237B740023FB75B1E03B790C2B1DD11C
:1025A00097F82830002B0BD0FA7BF97D584813465A
:1025B0005B0013449B0003440B441B78BB826CE01C
:1025C000FA7BF97D524813465B0013449B00034499
:1025D0000B441B789BB2DB43BB825EE03B79102B44
:1025E00017D197F82830002B08D0FA7BFB7D49499A
:1025F00012010A4413441B78BB824EE0FA7BFB7D38
:10260000444912010A4413441B789BB2DB43BB824A
:1026100043E097F82830002B1CD0FB7BA3F110027D
:10262000FB7D5B003C4992010A4413441B789BB23A
:102630001B02BB82FB7BA3F11002FB7D5B0001331D
:10264000354992010A4413441B789AB2BB8A13435A
:10265000BB8222E0FB7BA3F11002FB7D5B002E49D5
:1026600092010A4413441B789BB2DB439BB21B02CA
:10267000BB82FB7BA3F11002FB7D5B00013326498B
:1026800092010A4413441B789BB2DB439BB21AB2FB
:10269000B7F9143013431BB2BB820023BB7527E08C
:1026A000BA8A7B8A13409BB2002B06D0F879B9799D
:1026B000FB6A0122FFF7DBFE05E0F879B979FB6AD6
:1026C0000022FFF7D4FEBB8A5B00BB82BB790133DB
:1026D000BB71BA793B7CD21A3B799A4205D13B7CDB
:1026E000BB71FB790133FB7106E0BB7D0133BB7528
:1026F000BA7D7B7C9A42D3D3FB7D0133FB75FA7D97
:102700003B799A42FFF449AF00BF1C37BD4690BDEC
:1027100054810108C8850108B88B010890B585B0BF
:1027200002AF3A601A460346FB710B46BB71134673
:102730007B712CE0FA797B795B08DBB2C3F148034B
:102740009A420FDD0023FB71BA797B791344BB7188
:10275000BA797B79C3F128039A4203DD0023FB7128
:10276000FB79BB713B681A787C79B979F879FB6998
:1027700001933B7E00932346FFF7ECFE7B795B08D9
:10278000DAB2FB791344FB713B6801333B603B6871
:102790001B78002BCED100BF0C37BD4690BD80B555
:1027A00084B000AF78600023FB7329E0FB7B503BD3
:1027B000DBB200211846FFF7BBFD00210C20FFF71C
:1027C000B7FD00211120FFF7B3FD0023BB7311E01B
:1027D000B97BFA7B1346DB001344DB000B441A463B
:1027E0007B6813441B7840211846FFF7A1FDBB7B93
:1027F0000133BB73BB7B472BEAD9FB7B0133FB73F4
:10280000FB7B042BD2D900BF1037BD4680BD80B4FE
:1028100083B000AF786000BF0C37BD465DF8047B25
:102820007047000080B483B000AF7860064BD3F8E7
:10283000802005497B681343C1F8803000BF0C3706
:10284000BD465DF8047B70470008005880B483B033
:1028500000AF7860054B1A6804497B6813430B602E
:1028600000BF0C37BD465DF8047B70470008005878
:1028700080B483B000AF0D4B9B6A9BB27B600B4B67
:102880009B6A9BB23B6005E03B687B60074B9B6AA1
:102890009BB23B607A683B689A42F5D13B68184628
:1028A0000C37BD465DF8047B704700BF0028004030
:1028B00080B485B000AF03460A46FB711346BB7176
:1028C000BA791D4913465B001344DB000B441533F2
:1028D0001B78FB73FB7B062B09D0FA7B164913464A
:1028E0005B001344DB000B441433FA791A70FA7955
:1028F000114913465B001344DB000B441533FA7B8C
:102900001A70FA790C4913465B001344DB000B4440
:102910001433BA791A70BA79074913465B00134425
:10292000DB000B441533FA791A7000BF1437BD462B
:102930005DF8047B704700BF8002002080B485B042
:1029400000AF03460A46FB711346BB71294B1B7847
:10295000DBB2BA799A4232D0BA79274913465B0082
:102960001344DB000B4414331B78FB73FA7B2249BE
:1029700013465B001344DB000B441533FA791A70DD
:10298000FA791D4913465B001344DB000B441533F1
:10299000BA791A70FA79184913465B001344DB00C0
:1029A0000B441433FA7B1A70BA79134913465B004F
:1029B0001344DB000B441433FA791A7014E0FA79EB
:1029C0000D4913465B001344DB000B441533BA7901
:1029D0001A70BA79084913465B001344DB000B44B4
:1029E0001433FA791A7000BF1437BD465DF8047BC2
:1029F000704700BF100300208002002080B584B023
:102A000000AF0346FB714E4B1B78DBB2062B18D18F
:102A10004B4B1B78DAB24B4B1A70494AFB79137057
:102A2000FA79494913465B001344DB000B44153324
:102A300006221A70454B4FF0FF321A600023FB81CB
:102A400078E000F009F90346FB81FA793E49134624
:102A50005B001344DB000B4408331968FB89FA79E7
:102A60001944394813465B001344DB000344083320
:102A70001960FA79344913465B001344DB000B44B8
:102A800008331B68BB602E4B1B78DBB219462E4AFD
:102A90000B465B000B44DB00134408331B68BA6829
:102AA0009A4237D3264B1B787B737A7B2649134691
:102AB0005B001344DB000B4415331B783B7313E0BE
:102AC0007A7B214913465B001344DB000B4415332A
:102AD0001B787B737A7B1C4913465B001344DB0035
:102AE0000B4415331B783B733B7B062B0BD03A7B97
:102AF000154913465B001344DB000B4408331B6885
:102B0000BA689A42DCD27A7BFB7911461846FFF705
:102B1000CFFE0FE00A4B1B78DAB2FB79114618465C
:102B2000FFF70CFF064B1B78DAB2064B1A70044A0B
:102B3000FB791370FB8918461037BD4680BD00BF76
:102B40001003002011030020800200201403002045
:102B500080B485B000AF03460A46FB711346BB71D3
:102B6000394B1B78DBB2FA799A4211D1364B1B787C
:102B7000DAB2364B1A70FA79354913465B001344C2
:102B8000DB000B4415331B78DAB22F4B1A703EE092
:102B9000FA792F4913465B001344DB000B441433CE
:102BA0001B78FB73FA792A4913465B001344DB0058
:102BB0000B4415331B78BB73F979FA7B24480B4619
:102BC0005B000B44DB00034415331B78D8B220496B
:102BD00013465B001344DB000B44153302461A70A6
:102BE000BB7B062B13D0F979BA7B19480B465B00E7
:102BF0000B44DB00034414331B78D8B2144913464A
:102C00005B001344DB000B44143302461A70FA795C
:102C10000F4913465B001344DB000B440C330122C5
:102C20001A70094B1B78DBB2062B07D1BB79002B3E
:102C300004D1084B4FF0FF321A6000BF00BF1437B9
:102C4000BD465DF8047B704710030020110300208F
:102C5000800200201403002080B582B000AF1A4B20
:102C60001B68B3F1FF3F26D0FFF702FE7860164BDA
:102C70001B687A689A4205D8134B1A687B68D31A86
:102C80007B600AE0114B1B881A467B68D31A3B60B5
:102C90000D4B1B683A6813447B600D4B1B781A463A
:102CA0007B6802FB03F37B600A4B1B781A467B6848
:102CB000D3407B6001E000237B607B689BB21846B9
:102CC0000837BD4680BD00BF140300209E030020CE
:102CD0009D0300209C03002080B582B000AF034616
:102CE000FB80FB88002B08D1FFF7C2FD0246244B76
:102CF0001A60032004F0C6FB3EE0FB88012B03D8DA
:102D0000204B1B78012B02D0FB88013BFB8000BFCE
:102D10001D4B1B681B68DB6803F00403002BF7D016
:102D2000194B1B681B68DB68DAB2174B1B681B6802
:102D300062F49062DA60154B4FF40022DA600320EF
:102D400004F0AEFB124B5B691B0C1B04FA881049A4
:102D500013434B61FFF78CFD0246094B1A600A4B87
:102D60001B681B689A68084B1B681B6842F48062EA
:102D70009A60AFF3008000BF0837BD4680BD00BF3A
:102D8000140300209C030020980300200008005832
:102D90000028004080B584B000AF474B9B6803F427
:102DA0008063B3F5806F08D100BF444B1B681B687C
:102DB000DB6803F00403002BF7D1404B1B681B6852
:102DC0009A683E4B1B681B6822F480629A603C4BF9
:102DD0001B78FB73FA7B3B4913465B001344DB0013
:102DE0000B4408331B68BB60FFF736FF0346FB80CC
:102DF000FB88BA689A4205D20023BB81324B01227C
:102E00001A704DE0FB88314A128892B213441A4678
:102E1000BB68934206D92D4B1B88BB812A4B0022ED
:102E20001A703DE0BB689AB2FB88D31ABB81264B6F
:102E300001221A7034E0FA7B224913465B001344E6
:102E4000DB000B4408331A68FB889A420AD2FA7BEB
:102E50001C4913465B001344DB000B44083300227B
:102E60001A6013E0FA7B174913465B001344DB003A
:102E70000B4408331968FB88FA7BC91A11481346BA
:102E80005B001344DB00034408331960FA7B0D49EF
:102E900013465B001344DB000B4415331B78FB73B4
:102EA000FB7B062BC7D1BB891846FFF715FF00BF78
:102EB0001037BD4680BD00BF0028004098030020A9
:102EC000100300208002002018030020A00300202F
:102ED00080B58AB000AFEFF310837B617B697B62C2
:102EE00072B65E4B1B681B68CA225A625B4B1B683A
:102EF0001B6853225A62594B1B681B689A68574BD0
:102F00001B681B6822F480629A60554B1B7887F817
:102F1000233097F82320534913465B001344DB000A
:102F20000B440C331B78DBB2022B70D197F82320B3
:102F30004C4913465B001344DB000B441B68FB61E8
:102F400097F82320474913465B001344DB000B44EA
:102F500010331B68BB61444B1B78DBB2002B4ED097
:102F600097F823203F4913465B001344DB000B44D2
:102F70000D331B78DBB2012B25D197F823300121CB
:102F80001846FFF7E5FD7B6A3B613B6983F31088D8
:102F900097F82320334913465B001344DB000B44AE
:102FA00004331A6897F823301146184600F046FAA1
:102FB0002A4B1B681B68CA225A62284B1B681B6875
:102FC00053225A6213E07B6AFB60FB6883F310882C
:102FD00097F82330184600F0A7F9204B1B681B68B0
:102FE000CA225A621D4B1B681B6853225A6297F80B
:102FF0002330FA691946B86900F0A6FA24E0FFF711
:10300000C9FE7B6ABB60BB6883F310881CE000BF0D
:10301000124B1B681B68DB6803F00403002BF7D01E
:103020000E4B1B681B68DB68DAB20C4B1B681B6815
:1030300062F49062DA600D4B4FF40022DA607B6A32
:103040007B607B6883F31088044B1B681B68FF223E
:103050005A6200BF2837BD4680BD00BF98030020DC
:1030600010030020800200201803002000080058F0
:1030700080B588B000AF03463960FB71644A3B6895
:103080001360634B1B681B68CA225A62604B1B6843
:103090001B6853225A625F4B9B685E4A43F02003D1
:1030A00093605C4B9B68DBB203F00703DBB2C3F1B8
:1030B0000403DAB2584B1A70564B1B6903F4FE0333
:1030C0004FF4FE023A613A6992FAA2F2FA60FA68A3
:1030D0007A617A69002A01D1202203E07A69B2FA82
:1030E00082F2D2B2D340DBB20133DAB24B4B1A7068
:1030F000484B1B699BB2C3F30E039BB201339AB2D8
:10310000474B1A80464B1B88013B444A127802FB0E
:1031100003F3A3F5A073404A1278D340BB61BB69A7
:103120004FF6FE72934204D93E4B4FF6FF721A805F
:1031300003E0BB699AB23B4B1A804FF40020FFF7C3
:1031400085FB4FF40020FFF76DFBFB79002B43D18B
:10315000354B01221A70354B4FF0FF321A600023B5
:10316000FB770CE0FA7F324913465B001344DB0027
:103170000B440C3300221A70FB7F0133FB77FB7F7B
:10318000052BEFD92B4B06221A70214B1B681B68AD
:103190009A681F4B1B681B6822F480629A601C4B64
:1031A0001B681B68DB68DAB2194B1B681B6862F48A
:1031B0009062DA60204B4FF40022DA60032004F0C2
:1031C0006FF9134B1B681B689A68114B1B681B68CF
:1031D00042F480429A600AE00D4B1B681B68DB6872
:1031E00003F48063002B02D0032004F04BF9084B5A
:1031F0001B681B68FF225A6200220621032004F08C
:103200000BF9032004F022F900BF2037BD4680BD32
:1032100098030020002800409C0300209D0300200C
:103220009E030020A00300201803002014030020A8
:1032300080020020100300200008005880B48BB0EA
:1032400000AFF860B9603B601346FB71002387F85C
:103250002630EFF31083FB61FB693B6272B604E03A
:1032600097F82630013387F8263097F82630052B5B
:103270000CD897F826202B4913465B001344DB003B
:103280000B440C331B78DBB2002BE9D197F82630C6
:10329000062B37D097F82620224913465B001344AB
:1032A000DB000B440C3301221A703B6ABB61BB6923
:1032B00083F3108897F826201A4913465B001344BD
:1032C000DB000B441033FA681A6097F82620154982
:1032D00013465B001344DB000B440D33FA791A707C
:1032E00097F826200F4913465B001344DB000B447C
:1032F0003A681A60BB6897F826201A70002387F88E
:10330000273007E03B6A7B617B6983F310880123E8
:1033100087F8273097F8273018462C37BD465DF8D8
:10332000047B70478002002080B586B000AF034662
:10333000FB71EFF31083FB60FB687B6172B60320C7
:1033400004F092F8374B1B681B68CA225A62354B4F
:103350001B681B6853225A62FA79334913465B0093
:103360001344DB000B440C331B78DBB2022B48D137
:10337000FB7900211846FFF7EBFB2C4B1B78FB7405
:10338000FB7C062B35D12A4B9B6803F48063B3F595
:10339000806F08D100BF234B1B681B68DB6803F0FC
:1033A0000403002BF7D11F4B1B681B689A681D4B49
:1033B0001B681B6822F480629A6000BF194B1B686F
:1033C0001B68DB6803F00403002BF7D0154B1B6868
:1033D0001B68DB68DAB2134B1B681B6862F49062EF
:1033E000DA60144B4FF40022DA60032004F058F83E
:1033F00007E0114B1B78DBB2FA7C9A4201D0FFF751
:10340000C9FC084B1B681B68FF225A62032004F0AA
:103410001DF87B69BB60BB6883F3108800BF183759
:10342000BD4680BD980300208002002010030020CC
:1034300000280040000800581103002080B586B025
:1034400000AF03463960FB71FA793B4913465B00D4
:103450001344DB000B440C331B78DBB2022B03D18B
:10346000FB791846FFF760FFEFF31083FB60FB6802
:103470007B6172B6032003F0F7FF304B1B681B68BB
:10348000CA225A622D4B1B681B6853225A62FA7972
:10349000294913465B001344DB000B440C33022222
:1034A0001A70FA79244913465B001344DB000B447D
:1034B00008333A681A60FA791F4913465B001344CF
:1034C000DB000B4404333A681A60FB791846FFF7B7
:1034D00095FA03467B821A4B1B787B74194B1B7839
:1034E000DBB27A7C9A4202D0FFF754FC13E0FA79FF
:1034F000114913465B001344DB000B440833196881
:103500007B8AFA79C91A0C4813465B001344DB0026
:10351000034408331960094B1B681B68FF225A6279
:10352000032003F093FF7B69BB60BB6883F31088C3
:1035300000BF1837BD4680BD8002002098030020E0
:10354000100300201103002080B584B000AFF860A4
:103550000B467A60FB727B68984700BF1037BD4608
:1035600080BD000080B487B000AFB9607B600346C7
:10357000FB731346BB810023BB750023FB7500BFA3
:10358000BB7D032B16D801A252F823F09D3500080D
:10359000A3350008A9350008AF3500080023FB75E6
:1035A00009E00123FB7506E00223FB7503E003231A
:1035B000FB7500E000BFFB7D18461C37BD465DF87B
:1035C000047B704780B489B000AF78600023FB6152
:1035D00002E0FB690133FB61FB6901331F4A52F8CA
:1035E00023307A689A42F4DC1C4AFB6952F8233093
:1035F000BB61FB690133194A52F823307B61184AD9
:10360000FB6952F823303B61FB690133144A52F8DD
:103610002330FB60FA683B69D31A7968BA698A1A61
:1036200002FB03F307EE903AF8EEE76A7A69BB69AA
:10363000D31A07EE903AB8EEE77AC6EE877AFDEE37
:10364000E77A17EE903ABB603A69BB6813441846B4
:103650002437BD465DF8047B704700BF9C8E01088F
:10366000788E010890B583B000AF786039607B68D0
:10367000002B01D178232CE03B68002B01D10023E3
:1036800027E03B6807EE903AB8EEE77A7A683B6845
:10369000134407EE903AF8EEE77AC7EE276A16EE83
:1036A000900AFCF729FF4FF000020C4BFCF77CFF5F
:1036B00003460C4644EC173BB0EE470AF0EE670AAF
:1036C00012F03CFC54EC103B18462146FDF71CFA66
:1036D000034618460C37BD4690BD00BF00005E4053
:1036E00080B58AB000AF786040F261137B627B687E
:1036F00004331B68002B0CBF01230023DBB21A46E6
:103700007B6808331B68002B0CBF01230023DBB24E
:1037100013447A680C321268002A0CBF012200227E
:10372000D2B21344012B1ADD7B6804331B68002BD3
:1037300040F081807B6808331B68002B03D07B6AD4
:1037400078337B6277E07B680C331B68002B03D0F7
:103750007B6AF0337B626EE04FF0FF337EE07B6884
:1037600004331A687B680C331B689A4220DD7B683F
:1037700008331A687B680C331B689A4218DD7B6833
:1037800004331A687B680C331B68D31A3B627B686E
:1037900008331A687B680C331B68D31AFB61F9691C
:1037A000386AFFF75FFF02467B6A13447B6242E0A0
:1037B0007B6808331A687B6804331B689A4221DDF2
:1037C0007B680C331A687B6804331B689A4219DDE6
:1037D0007B6808331A687B6804331B68D31ABB61A3
:1037E0007B680C331A687B6804331B68D31A7B61CF
:1037F0007969B869FFF736FF034678337A6A13446C
:103800007B6218E07B680C331A687B6808331B689E
:10381000D31A3B617B6804331A687B6808331B68E2
:10382000D31AFB60F9683869FFF71CFF0346F033D1
:103830007A6A13447B627B6A0A4A82FB03121A4447
:103840001112DA178A1A4FF4B47101FB02F29B1AB3
:103850007B62786AFFF7B6FEB860BB681846283707
:10386000BD4680BDB7600BB680B584B000AF786050
:103870007868FFF735FFF860FB68B3F1FF3F02D1CE
:103880004FF0FF3305E0FB68044A82FB0312DB17AD
:10389000D31A18461037BD4680BD00BFABAAAA2A6E
:1038A00080B582B000AF78607B681B68042B03DDB5
:1038B0007B681B68FF2B02DD4FF0FF3303E0786865
:1038C000FFF7D2FF034618460837BD4680BD80B5D6
:1038D00086B000AF786007F10C0308221946062075
:1038E00000F0A8F800237B6119E07B695B000133DD
:1038F00007F11802134413F80C3C1A027B695B00B1
:1039000007F118010B4413F80C3C18467B699B0027
:1039100079680B4402431A607B6901337B617B69E0
:10392000032BE2DD00BF1837BD4680BD80B586B0F1
:1039300004AF0123FB713B4600221A601A710EE0AE
:103940004FF0FF33029301230193BB1D009301232A
:1039500000228821364804F01BFB0346FB71FB79EB
:10396000012BEDD0BB793C2B01D001235BE064201F
:1039700002F0C1FB0E233B700123FB710EE04FF000
:10398000FF330293012301933B46009301230D2251
:103990008821274804F0E8F90346FB71FB79012BE5
:1039A000EDD0642002F0A7FB11233B7011237B7044
:1039B0001123BB701123FB7011233B710123FB7199
:1039C0000EE04FF0FF330293052301933B46009333
:1039D000012307228821164804F0C6F90346FB712B
:1039E000FB79012BEDD040233B701B237B70002320
:1039F000BB700623FB7000233B710123FB710EE0BB
:103A00004FF0FF330293052301933B4600930123BC
:103A100009228821064804F0A7F90346FB71FB79C7
:103A2000012BEDD0002318460837BD4680BD00BFEE
:103A3000DCE1022080B588B004AF03463960FB7139
:103A40001346BB714FF496737B810023FB810123E6
:103A50007B7314E0FB7999B2BB799BB24FF0FF32D4
:103A6000029201933B68009301230A4688210D4886
:103A700004F08EFA03467B73FB890133FB817B7B69
:103A8000012B03D1FA897B899A42E3D3FA897B8996
:103A90009A4201D3012300E0002318461037BD46A7
:103AA00080BD00BFDCE1022080B483B000AF78604D
:103AB000074BD3F880207B68DB4305491340C1F8EE
:103AC000803000BF0C37BD465DF8047B704700BFF7
:103AD0000008005880B483B000AF7860074BD3F87B
:103AE00090207B68DB4305491340C1F8903000BF4C
:103AF0000C37BD465DF8047B704700BF00080058D6
:103B000080B483B000AF78604FF0B0430A4AC3F886
:103B10009C204FF0B043D3F89C3023F47C527B6858
:103B20001B024FF0B0411343C1F89C3000BF0C376B
:103B3000BD465DF8047B7047FECAFECA80B483B000
:103B400000AF78604FF0B043D3F8903023F0180204
:103B50004FF0B0417B681343C1F8903000BF0C3781
:103B6000BD465DF8047B704780B400AF4FF0B043B2
:103B7000D3F890304FF0B04243F48033C2F8903025
:103B800000BFBD465DF8047B704780B400AF4FF0C6
:103B9000B043D3F890304FF0B04223F48033C2F8F2
:103BA000903000BFBD465DF8047B704780B400AF25
:103BB0004FF0B043D3F8943003F08063B3F1806FDB
:103BC00001D1012300E000231846BD465DF8047BC7
:103BD000704780B400AF4FF0B043D3F8943003F097
:103BE0008053B3F1805F01D1012300E00023184628
:103BF000BD465DF8047B704780B485B000AF786047
:103C00004FF0B043DA6C4FF0B0417B681343CB64A4
:103C10004FF0B043DA6C7B681340FB60FB6800BF79
:103C20001437BD465DF8047B704780B485B000AFA3
:103C300078604FF0B0431A6D4FF0B0417B6813438A
:103C40000B654FF0B0431A6D7B681340FB60FB6857
:103C500000BF1437BD465DF8047B704780B483B065
:103C600000AF786039607B685A683B681B041A4370
:103C70007B685A6000BF0C37BD465DF8047B704717
:103C800080B483B000AF786039607B685A683B6865
:103C90001A437B685A6000BF0C37BD465DF8047B51
:103CA000704780B483B000AF786039607B685A6930
:103CB0003B681B041A437B685A6100BF0C37BD4642
:103CC0005DF8047B704780B483B000AF78603960E2
:103CD0007B685A693B681A437B685A6100BF0C379E
:103CE000BD465DF8047B704780B483B000AF786058
:103CF00039607B683A689A6000BF0C37BD465DF852
:103D0000047B704780B483B000AF786039607B6813
:103D10003A689A6100BF0C37BD465DF8047B704776
:103D200080B400AF054B1B69044A23F00403136100
:103D300000BFBD465DF8047B704700BF00ED00E0AA
:103D400080B500AF454B4FF400421A6103F0EAF929
:103D500002F083F902F06DF900F0C8F802F062F9A0
:103D600002F0BDF900F0D6FA00F040F900F0E4F9F5
:103D700000F07CF900F082F900F01CFA00F02CFB56
:103D8000374810F03FF80BF013F936480BF044FBBE
:103D90000246354B1A6035480BF03EFB0246344B69
:103DA0001A6034480BF038FB0246334B1A60334834
:103DB0000BF032FB0246324B1A6032480BF02CFB00
:103DC0000246314B1A6031480BF026FB0246304B5D
:103DD0001A60304A042110200BF0C2FD02462E4B1F
:103DE0001A602E4A042110200BF0BAFD02462C4B1B
:103DF0001A602C4A00212C480BF044F902462B4B48
:103E00001A602B4A00212B480BF03CF902462A4B42
:103E10001A602A4A00212A480BF034F90246294B3D
:103E20001A60294A002129480BF02CF90246284B38
:103E30001A60284A002128480BF024F90246274B33
:103E40001A60274A002127480BF01CF90246264B2E
:103E50001A60FDF7EDFF0BF0DFF8FEE700400058B9
:103E6000A76318FAD0900108C8E00220E09001088A
:103E7000D8E10220F090010804E30220009101083B
:103E800028E202201091010834E20220209101086A
:103E90002CE20220A090010894E20220B8900108D0
:103EA0007CE00220C88F01081945000898E2022032
:103EB000EC8F01085D4B00089CE202201090010885
:103EC000FD560008D4E1022034900108095800088A
:103ED00044E20220589001081D58000830E20220F8
:103EE0007C900108155D000840E2022080B5AEB06C
:103EF00000AF07F170034822002118460FF0A1FA25
:103F000007F1540300221A605A609A60DA601A615D
:103F10005A619A613B1D5022002118460FF091FA18
:103F200004F070FC0020FFF709FE2F4B1B6823F400
:103F3000C0632D4A43F4007313602B4B1B6803F4DA
:103F4000C0633B603B6807233B674FF480337B676C
:103F50000123BB674FF48073FB674023C7F88030B1
:103F60000023C7F89C3007F17003184604F0EAFFFD
:103F70000346002B01D002F0F5F86F237B65022386
:103F8000BB650023FB6500233B6600237B660023A3
:103F9000BB660023FB6607F154030121184605F0B8
:103FA0005DFB0346002B01D002F0DCF843F603036F
:103FB0007B600023FB6100233B624FF480737B64D2
:103FC0004FF48043BB640223FB6410233B653B1D1D
:103FD000184605F09EFF0346002B01D002F0C2F800
:103FE00000BFB837BD4680BD0004005880B500AFA3
:103FF0001B4B1C4A1A601A4B1B4A5A60184B002272
:104000009A60174B0122DA60154B00221A61144B9B
:1040100000225A61124B00229A61114B0022DA6190
:104020000F4B00221A620E4803F024FC0346002BBB
:1040300001D002F097F80021094804F04BFB034639
:10404000002B01D002F08EF80021054804F08DFB12
:104050000346002B01D002F085F800BF80BD00BFF1
:10406000DCE1022000540040380F300080B400AF83
:1040700000BFBD465DF8047B7047000080B586B088
:1040800000AF2B4B2B4A1A60294B00225A60284B59
:104090007F229A60264BFF22DA60254B00221A61AC
:1040A000234B00229A61224B0022DA61204B00222E
:1040B0005A611F4806F0B3F90346002B01D002F005
:1040C00051F83B1D00221A605A609A60DA601A614A
:1040D00000233B6011233B7159237B712923BB7162
:1040E0000023BB6000233B6100237B613B1D012259
:1040F00019460F4806F031FA0346002B01D002F0B2
:1041000031F802233B7003237B702923BB702023EB
:10411000FB703B4601221946054806F03EFB03466C
:10412000002B01D002F01EF800BF1837BD4680BD3D
:10413000A4E002200028004080B500AF1B4B1C4AC1
:104140001A601A4B4FF482725A60184B4FF40042B7
:104150009A60164B4FF4E062DA60144B00221A6149
:10416000124B00225A61114B4FF400729A610F4BAF
:104170000022DA610D4B00221A620C4B00225A62B7
:104180000A4B00229A62094B0722DA62074B00228F
:104190001A63064B08225A63044806F0BBFC034628
:1041A000002B01D001F0DEFF00BF80BDA0E20220A5
:1041B0000030014080B59CB000AF07F160030022E1
:1041C0001A605A609A60DA6007F1540300221A609C
:1041D0005A609A6007F1380300221A605A609A60A8
:1041E000DA601A615A619A613B1D34220021184637
:1041F0000FF027F9454B464A1A60444B00225A609B
:10420000424B00229A60414B6422DA603F4B00220D
:104210001A613E4B00225A613C4B00229A613B4896
:1042200006F0E6FF0346002B01D001F09BFF4FF4A0
:1042300080533B6607F160031946344807F072FC6F
:104240000346002B01D001F08DFF304807F076F8CF
:104250000346002B01D001F085FF00237B6500237E
:10426000BB650023FB6507F154031946274808F096
:10427000DFF80346002B01D001F074FF6023BB631D
:104280006423FB6300233B6400237B640423BB643F
:104290000023FB6400233B6507F138030022194625
:1042A0001A4807F02FFB0346002B01D001F05AFFFC
:1042B00000237B600023BB600023FB6000233B6185
:1042C00000237B614FF40053BB610023FB6100239B
:1042D0003B6200237B624FF00073BB620023FB62F2
:1042E00000233B6300237B633B1D1946074808F00E
:1042F000FFF80346002B01D001F034FF034802F021
:10430000ADF900BF7037BD4680BD00BF48E2022056
:10431000002C014080B586B000AF3B1D00221A6022
:104320005A609A60DA601A610420FFF765FC022087
:10433000FFF762FC0120FFF75FFC00220121244807
:1043400003F044FA01237B600123BB600023FB6080
:1043500000233B613B1D19461D4803F0AFF838238D
:104360007B601C4BBB600123FB603B1D194618485A
:1043700003F0A4F810237B600123BB600123FB60E2
:104380003B1D19464FF0904003F098F80122102190
:104390004FF0904003F01AFA00220F21092003F099
:1043A0003BF8092003F052F800220F210A2003F005
:1043B00033F80A2003F04AF800220F21172003F0F7
:1043C0002BF8172003F042F800BF1837BD4680BD18
:1043D0000004004800003110B0B58AB000AF374B80
:1043E00010221A70354B22225A70344B00229A70D8
:1043F000324B0122DA7007F11403012219463048CA
:1044000006F06FF907F11003012219462C4806F057
:1044100072FA2A4B1C1D07F114050FCD0FC42B682F
:104420002360264A3B699361244B4FF00002DA6116
:10443000224B4FF000021A62204B4FF000025A62EA
:104440001E4B4FF000029A621C4B002283F82C2076
:104450001A4B002283F830201A4A3B1D07CA03C3B7
:104460001A803B1D1846FBF78BFE03465A1C3B1D6A
:10447000194615480FF00AFD3B1D1846FBF780FE54
:104480000346DAB20D4B83F8B1201C2200210F48FD
:104490000EF0D7FF094B002283F8D020074B0022F3
:1044A00083F8D420054B002283F8D520034B00224B
:1044B00083F8D62000BF2837BD46B0BDCCE002202F
:1044C000A4E00220107E0108FDE0022080E102202D
:1044D00080B586B002AF0346FB800023FB600C4B27
:1044E0001868F98807F10C030093002303220EF0EB
:1044F0009BFAFB68002B07D0064B4FF080521A60E6
:10450000BFF34F8FBFF36F8F00BF1037BD4680BD25
:10451000D4E1022004ED00E0F0B5ADF5197D10AF57
:104520003B1D18604F23C7F80832644B1B68D7F84F
:1045300008229A63624BC7F8DC310C23A7F8E031FC
:10454000062387F8E23107F5EE731846FDF762FDA2
:10455000FDF74CFEFDF7AEFDFF2387F80732002084
:10456000FDF7D4FE01220121564803F02FF9FDF793
:10457000FDFE07F174031846FDF760FF07F17403B1
:104580000193012300930C234F4A0A210020FEF7D8
:10459000C5F807F174030193012300930C234B4AE0
:1045A0001C210020FEF7BAF807F174031846FEF745
:1045B000F6F864200AF002FF0021404806F020FFD0
:1045C0004FF496700AF0FAFE00213C4806F0F2FF24
:1045D0000023A7F81E32FF2387F81732FF2387F83E
:1045E0001632FF2387F8153297F807321846FDF781
:1045F0008DFE0023C7F81032D1E00023C7F80C323B
:1046000078E0B7F81E32991C314B83FB01235A1016
:10461000CB17D21A13465B0013449B00CA1AD7F873
:104620000C3293420CD197F817321A0497F81632CD
:104630001B021A4397F815321343C7F818324CE09F
:10464000B7F81E32591C224B83FB01235A10CB179B
:10465000D21A13465B0013449B00CA1AD7F80C32D7
:10466000934212D197F817325B08DBB21A0497F81D
:1046700016325B08DBB21B02134397F8152252086F
:10468000D2B21343C7F8183227E0B7F81E32D7F872
:104690000C229A421ED197F817329B08DBB21A04FB
:1046A00097F816329B08DBB21B02134397F81522CA
:1046B0009208D2B21343C7F818320EE048E2022043
:1046C000A0E2022000040048107E0108387E0108A4
:1046D000ABAAAA2A0023C7F81832D7F80C329BB22B
:1046E000D7F818121846FDF7A5FDD7F80C3201339C
:1046F000C7F80C32D7F80C320B2B82DDFDF7DAFC51
:1047000097F8173203F10B02AF4B83FB02131344EC
:10471000D911D317C91A0B461B025B1AD11A0B46C3
:1047200087F8173297F8163203F10D02A64B83FB78
:1047300002131344D911D317C91A0B461B025B1A73
:10474000D11A0B4687F8163297F8153203F1110289
:104750009D4B83FB02131344D911D317C91A0B467F
:104760001B025B1AD11A0B4687F81532B7F81E32B6
:104770005A1C964B83FB02135910D317C91A0B46C8
:104780005B000B449B00D11A0B46A7F81E32322067
:104790000AF014FED7F810320133C7F81032D7F8F8
:1047A00010325F2B7FF729AF0020FDF7AFFD0C2201
:1047B00000210020FDF774FDFDF77CFC07F1740378
:1047C0001846FDF73BFE07F174031846FDF7E7FFB7
:1047D0004FF6FF73A7F804324FF6FF73A7F80232C3
:1047E0004FF6FF73A7F8003207F160031A46002363
:1047F000136053609360D3601361002387F8FF3127
:10480000002387F8FE31FFF791F80346012B0CD106
:104810006F4A704B144607CB20606160A2601B7822
:1048200023736D4B062283F82C204FF4FA700AF0A4
:10483000C5FD6A4E00230F936D4606F110040FCCA0
:104840000FC50FCC0FC50FCC0FC594E8070085E846
:10485000070096E80F0002F0E1F80346012B0CD1A7
:104860005B4A5F4B144607CB20606160A2601B78F7
:104870002373594B062283F82C200A200AF09EFD50
:1048800000220021554801F0E5FC0346012B0CD124
:104890004F4A544B144607CB20606160A2601B78DE
:1048A00023734D4B062283F82C200A200AF086FD44
:1048B00000214A4801F0EBFC0346012B0CD1444A8D
:1048C000494B144607CB20606160A2601B782373BC
:1048D000414B062283F82C2007F108031A460023D7
:1048E000136053609360D3603B4B93F82C30002BE4
:1048F00000F0828007F108031846FEF7E8FF07F191
:1049000008031846FEF7ECFEC7F8E80107F10803B4
:104910001846FEF7C5FFC7F8E40107F10803196858
:1049200007F108035C6807F108039B6807F10802B8
:10493000D26807F14C000192009323460A462B49A6
:104940000FF084FA07F14003D7F8E8212849184608
:104950000FF07CFA07F13403D7F8E4212549184613
:104960000FF074FA07F174031846FDF767FD07F1BD
:104970004C0207F174030193012300930C230021DF
:104980000020FDF7CBFE07F1400207F1740301930D
:10499000012300930C230C210020FDF7BFFE07F13B
:1049A000340207F174030193012300930C231821AF
:1049B0000020FDF7B3FE07F174031846FDF7EFFE84
:1049C00032200AF0FBFC8FE781808080ABAAAA2A04
:1049D000A8E10220487E0108CCE00220DCE10220B0
:1049E000587E0108687E0108787E0108887E0108EB
:1049F000947E0108A07E010802F04EF987ED7E0A40
:104A000002F032FA87ED7D0A354801F0B7FC87EDF8
:104A10007C0A334801F054FC87ED7B0AD7F8F0019B
:104A2000FBF76AFD05460E46D7F8EC01FBF764FD7F
:104A300003460C4607F14C00CDE900342A463346C4
:104A400028490FF003FAD7F8F801FBF755FD0346A4
:104A50000C4607F140001A46234623490FF0F6F9A9
:104A6000D7F8F401FBF748FD03460C4607F1340084
:104A70001A4623461D490FF0E9F907F17403184659
:104A8000FDF7DCFC07F14C0207F1740301930123ED
:104A900000930C2300210020FDF740FE07F14002A7
:104AA00007F174030193012300930C230C210020D0
:104AB000FDF734FE07F1340207F17403019301237B
:104AC00000930C2318210020FDF728FE07F1740342
:104AD0001846FDF764FE32200AF070FC04E700BFC0
:104AE000DCE10220AC7E0108BC7E0108C87E010822
:104AF00080B584B000AF0346FB71174B1B78184696
:104B000005F0B6FF0346FB73134B5B78184605F0C0
:104B1000AFFF0346BB73FA7BBB7B9A420CD2FA7998
:104B2000FB7B9A4205D3FA79BB7B9A4201D20123DF
:104B300000E00023DBB20BE0FA79FB7B9A4203D260
:104B4000FA79BB7B9A4201D2012300E00023DBB259
:104B500018461037BD4680BDCCE00220B0B592B0FB
:104B600000AF7860022387F8283000237B8544F665
:104B700020600AF023FCA24B1B684FF0FF3118465F
:104B80000AF0E4FC07F11403012219469D4805F0E0
:104B9000A8FD07F11003012219469A4805F0ABFE63
:104BA000974B1B6818460AF02FFD3B7D184605F011
:104BB0005FFF034687F83D307B7D184605F058FFC0
:104BC000034687F83C30FB7C1A047B7C1B021343B2
:104BD000BA7C1343BB638C4B1B79184605F048FF26
:104BE000034687F83730884B5B79184605F040FF5D
:104BF000034687F83630844BDB7E1A04824B5B7E9B
:104C00001B021343804A927E13433B63012387F8C0
:104C1000433097F83D309BB21A461201D31A9B00DD
:104C20009AB297F83C309BB21344FB8597F8373023
:104C30009BB21A461201D31A9B009AB297F83630EB
:104C40009BB213449AB2704B93F8D4309BB2134486
:104C5000A7F84030B7F84030B3F5B46F0FD3B7F8CA
:104C600040305A096949A1FB02124FF4B46101FBBB
:104C700002F29B1AA7F84030002387F84330624BBA
:104C800093F82C30002B40F0D0845F4B93F8D53054
:104C9000002B40F0CA8497F83D301846FFF728FFF4
:104CA0000346002B00F0C184FA8DB7F840309A42D9
:104CB000C0F0BB8497F84330B96B3A6B91428CBF1C
:104CC00001220022D2B21343002B00F0AE84504BDD
:104CD000186807F12801002300220AF0C7FE4D4B97
:104CE0001B684FF0FF3118460AF030FC464B022299
:104CF00083F82C20474B1B6818460AF085FC0020DF
:104D00000DF06AFF012387F83F30012387F83E301A
:104D100019E041F2707101200DF02EFD78647B6C7A
:104D2000002B02D0002387F83E30374B93F82C300D
:104D3000022B05D0002387F83E30002387F83F3050
:104D40000A200AF03BFB97F83E30002BE1D197F8A0
:104D50003F30002B0DD04AF6C87101200DF00CFD3C
:104D60007864294B93F82C30022B02D0002387F86B
:104D70003F3097F83F30002B69D07B6C002B53D02D
:104D8000254B1B684FF0FF3118460AF0DFFB234A22
:104D9000234B03CB1060516019889B78118193726B
:104DA000194B0A2283F8B120174B012283F83020D7
:104DB000154B1C4A03F1B40415460FCD0FC40FCD9B
:104DC0000FC495E8070084E807000F4B052283F81D
:104DD000D020114B1B6818460AF016FC0D4B1B68BF
:104DE0004FF0FF3118460AF0B1FB074B032283F85E
:104DF0002C20084B1B6818460AF006FC27E000BF71
:104E0000C8E00220A4E00220CCE00220065BB0054E
:104E100094E2022034E202202CE20220FDE0022093
:104E2000D47E0108EC8E0108002387F83F30B24B96
:104E30001B684FF0FF3118460AF088FBAF4B072282
:104E400083F82C20AC4B1B6818460AF0DDFB97F862
:104E50003F30002B0DD04AF6C87101200DF08CFCBC
:104E60007864A64B93F82C30032B02D0002387F8EC
:104E70003F3097F83F30002B42D07B6C002B2CD07A
:104E80009F4B1B684FF0FF3118460AF05FFB9D4AAD
:104E90009D4B144607CB20606160A260974B0B22AC
:104EA00083F8B120954B022283F83020934B974A28
:104EB00003F1B40415460FCD0FC40FCD0FC495E810
:104EC000070084E807008D4B052283F8D0208C4B27
:104ED0001B6818460AF098FB12E0002387F83F3061
:104EE000854B1B684FF0FF3118460AF02FFB834BB0
:104EF000072283F82C20804B1B6818460AF084FB9D
:104F000097F83F30002B0DD04AF6C87101200DF004
:104F100033FC7864794B93F82C30032B02D00023B8
:104F200087F83F3097F83F30002B44D07B6C002B44
:104F30002ED0734B1B684FF0FF3118460AF006FB6A
:104F4000704A734B03CB1060516019889B781181B4
:104F500093726A4B0A2283F8B120684B032283F8CC
:104F60003020664B6B4A03F1B40415460FCD0FC4D5
:104F70000FCD0FC495E8070084E807005F4B0522BA
:104F800083F8D0205E4B1B6818460AF03DFB12E008
:104F9000002387F83F30584B1B684FF0FF3118460D
:104FA0000AF0D4FA554B072283F82C20524B1B6889
:104FB00018460AF029FB97F83F30002B0DD04AF62F
:104FC000C87101200DF0D8FB78644C4B93F82C305D
:104FD000032B02D0002387F83F3097F83F30002B97
:104FE00044D07B6C002B2ED0454B1B684FF0FF311B
:104FF00018460AF0ABFA434A474B144607CB2060E9
:105000006160A2601B7823733C4B0C2283F8B120B3
:105010003A4B042283F83020384B3C4A03F1B40465
:1050200015460FCD0FC40FCD0FC495E8070084E8D7
:105030000700324B052283F8D020314B1B681846FD
:105040000AF0E2FA12E0002387F83F302A4B1B688F
:105050004FF0FF3118460AF079FA284B072283F8FF
:105060002C20254B1B6818460AF0CEFA97F83F30E3
:10507000002B0DD04AF6C87101200DF07DFB78643D
:105080001E4B93F82C30032B02D0002387F83F30BF
:1050900097F83F30002B56D07B6C002B40D0184B3C
:1050A0001B684FF0FF3118460AF050FA154A1B4BA7
:1050B00003CB106051601B881381104B092283F8C9
:1050C000B1200E4B082283F830200C4B0F4A03F11D
:1050D000B40415460FCD0FC40FCD0FC495E80700DB
:1050E00084E80700054B052283F8D020044B1B6899
:1050F00018460AF089FA26E034E20220CCE00220C9
:105100002CE20220FDE00220E07E0108EC8E010886
:10511000EC7E0108C08E0108F87E0108087F0108B6
:10512000002387F83F30B44B1B684FF0FF3118461F
:105130000AF00CFAB14B072283F82C20AE4B1B6807
:1051400018460AF061FA97F83F30002B0DD04AF666
:10515000C87101200DF010FB7864A84B93F82C3037
:10516000032B02D0002387F83F3097F83F30002B05
:1051700044D07B6C002B2ED0A14B1B684FF0FF312D
:1051800018460AF0E3F99F4A9F4B03CB1060516029
:1051900019889B7811819372984B0A2283F8B12069
:1051A000964B062283F83020944B984A03F1B404BE
:1051B00015460FCD0FC40FCD0FC495E8070084E846
:1051C00007008E4B022283F8D0208D4B1B681846B7
:1051D0000AF01AFA12E0002387F83F30864B1B686A
:1051E0004FF0FF3118460AF0B1F9844B072283F8DB
:1051F0002C20814B1B6818460AF006FA97F83F30BE
:10520000002B0DD04AF6C87101200DF0B5FA786474
:105210007A4B93F82C30032B02D0002387F83F30D1
:1052200097F83F30002B44D07B6C002B2ED0744B72
:105230001B684FF0FF3118460AF088F9714A744B29
:1052400003CB1060516019889B78118193726B4B6E
:105250000A2283F8B120694B072283F83020674B7C
:105260006A4A03F1B40415460FCD0FC40FCD0FC425
:1052700095E8070084E80700604B022283F8D020FD
:105280005F4B1B6818460AF0BFF912E0002387F84D
:105290003F30594B1B684FF0FF3118460AF056F962
:1052A000564B072283F82C20534B1B6818460AF0F4
:1052B000ABF997F83F30002B0DD04AF6C8710120AA
:1052C0000DF05AFA78644D4B93F82C30032B02D032
:1052D000002387F83F3097F83F30002B44D07B6C99
:1052E000002B2ED0464B1B684FF0FF3118460AF0BA
:1052F0002DF9444A474B03CB1060516019889B78C5
:10530000118193723D4B0A2283F8B1203B4B052259
:1053100083F83020394B3D4A03F1B40415460FCDD4
:105320000FC40FCD0FC495E8070084E80700334B86
:10533000022283F8D020324B1B6818460AF064F929
:1053400012E0002387F83F302B4B1B684FF0FF31F2
:1053500018460AF0FBF8294B072283F82C20264B2D
:105360001B6818460AF050F997F83F30002B0DD013
:105370004AF6C87101200DF0FFF978641F4B93F8CD
:105380002C30032B02D0002387F83F3097F83F30B2
:10539000002B58D07B6C002B42D0194B1B684FF070
:1053A000FF3118460AF0D2F8164A1B4B03CB1060A7
:1053B000516019889B7811819372104B0A2283F8EF
:1053C000B1200E4B092283F830200C4B134A03F115
:1053D000B40415460FCD0FC40FCD0FC495E80700D8
:1053E00084E80700054B022283F8D020044B1B6899
:1053F00018460AF009F926E034E20220CCE0022047
:105400002CE20220FDE00220147F0108188F010821
:10541000207F01082C7F0108387F0108448F010894
:10542000002387F83F30AA4B1B684FF0FF31184626
:105430000AF08CF8A74B072283F82C20A44B1B689A
:1054400018460AF0E1F897F83F30002B0DD04AF6E5
:10545000C87101200DF090F978649E4B93F82C30C0
:10546000032B02D0002387F83F3097F83F30002B02
:1054700042D07B6C002B2CD0974B1B684FF0FF3138
:1054800018460AF063F8954A954B144607CB2060FE
:105490006160A2608F4B0B2283F8B1208D4B0A22F2
:1054A00083F830208B4B8F4A03F1B40415460FCD9F
:1054B0000FC40FCD0FC495E8070084E80700854BA3
:1054C000072283F8D020844B1B6818460AF09CF80A
:1054D00012E0002387F83F307D4B1B684FF0FF310F
:1054E00018460AF033F87B4B072283F82C20784BC0
:1054F0001B6818460AF088F897F83F30002B0DD04B
:105500004AF6C87101200DF037F97864714B93F8B1
:105510002C30032B02D0002387F83F3097F83F3020
:10552000002B44D07B6C002B2ED06B4B1B684FF0B4
:10553000FF3118460AF00AF8684A6B4B144607CB4D
:1055400020606160A2601B782373624B0C2283F899
:10555000B120604B0B2283F830205E4B634A03F18D
:10556000B40415460FCD0FC40FCD0FC495E8070046
:1055700084E80700574B032283F8D020564B1B6862
:1055800018460AF041F812E0002387F83F30504BEC
:105590001B684FF0FF31184609F0D8FF4D4B07222A
:1055A00083F82C204A4B1B6818460AF02DF897F810
:1055B0003F30002B0DD04AF6C87101200DF0DCF809
:1055C0007864444B93F82C30032B02D0002387F8E7
:1055D0003F3097F83F30002B76D07B6C002B10D0FB
:1055E0003B4B1B684FF0FF31184609F0AFFF394BBA
:1055F000052283F82C20364B1B6818460AF004F865
:1056000062E0002387F83F30314B1B684FF0FF31D9
:10561000184609F09BFF2F4B072283F82C202C4BB8
:105620001B68184609F0F0FF4EE097F83630294A1B
:1056300092F8D42013442E4A82FB03121A445211CA
:10564000DB17D31A87F82D3097F8372097F82D30CD
:105650001A44284B83FB02139910D317C91A0B461F
:105660005B000B44DB00D11A0B4687F8373097F804
:1056700037301846FFF73CFA0346002B7FF477AA31
:10568000144B1B78184605F0F3F903461A4697F8B1
:105690003D3093427FF46BAA0E4B93F8D530002B2C
:1056A0007FF465AA0B4B012283F8D52008233B73B6
:1056B0000023FB81104B186807F10C010023002226
:1056C0000AF0D4F9FFF753BA00BFFFF750BA00BF92
:1056D00034E20220CCE002202CE20220FDE0022095
:1056E000447F0108708F0108507F01089C8F0108DA
:1056F00089888888ABAAAA2A94E2022080B586B05D
:1057000000AF78603D4A07F1140312681146198012
:105710000233120C1A7000233B6106233B730023F3
:10572000FB8107F110024FF0FF33002100200DF044
:105730006BF83B699BB21946314802F02FF80346DB
:10574000FB75322009F03AFE3B699BB219462C48A2
:1057500002F024F803461A46FB7D9342E1D13B69EF
:10576000082B16D13B7DFA7D9A4212D0FB7D3B750A
:10577000FB7D002B0DD1234B93F82C30002B04D054
:10578000204B002283F82C2003E01E4B012283F8DB
:105790002C203B69102B16D17B7DFA7D9A4212D0CA
:1057A000FB7D7B75FB7D002B0DD1164B93F82C30C8
:1057B000002B04D0134B002283F82C2003E0114B64
:1057C000012283F82C203B69202BAAD1BB7DFA7DD6
:1057D0009A42A6D0FB7DBB75FB7D002BA1D1094B66
:1057E00093F82C30002B04D0064B002283F82C2099
:1057F00097E7044B012283F82C2092E7607F010891
:1058000000040048CCE0022080B582B000AF786090
:1058100043F6982009F0D2FDFAE70000B0B59AB03F
:1058200000AF786000237B6607F1100300221A6046
:105830005A609A60DA601A6107F1080300221A6060
:105840005A60002387F86330904B186807F13C01D9
:105850004FF0FF3300220AF07DF90346002BF3D10D
:105860008B4B1B684FF0FF31184609F06FFE07F1B4
:10587000280301221946874804F033FF07F1240367
:1058800001221946834805F036F8814B1B681846FB
:1058900009F0BAFE97F83C30082B00F24B8101A2C8
:1058A00052F823F0A15A0008A15A0008C95800086C
:1058B000315900089D59000831590008C95800089D
:1058C00031590008C958000897F824301B021AB251
:1058D00097F825301BB213431BB29BB23B8397F85A
:1058E00026301B021AB297F827301BB213431BB2A3
:1058F0009BB2FB8297F828301B021AB297F8293026
:105900001BB213431BB29BB2BB8297F82A301B0217
:105910001AB297F82B301BB213431BB29BB27B8297
:1059200097F83C309BB23B820A2387F8633001E151
:1059300097F824301B021AB297F825301BB2134394
:105940001BB29BB27B8397F826301B021AB297F8E2
:1059500027301BB213431BB29BB23B8397F828300E
:105960001B021AB297F829301BB213431BB29BB229
:10597000FB8297F82A301B021AB297F82B301BB221
:1059800013431BB29BB2BB8297F83C309BB27B8225
:10599000FB8F3B820C2387F86330CBE097F82430F1
:1059A0001B021AB297F825301BB213431BB29BB2ED
:1059B0003B8497F826301B021AB297F827301BB2A7
:1059C00013431BB29BB2FB8397F828301B021AB219
:1059D00097F829301BB213431BB29BB2BB8397F8D5
:1059E0002A301B021AB297F82B301BB213431BB29A
:1059F0009BB27B8397F83C309BB23B83264B1B6862
:105A00004FF0FF31184609F0A1FD244B07F128049F
:105A10001D1D0FCD0FC42B682360204B9B697B623B
:105A20001D4B1B68184609F0EFFD97F824301B0248
:105A30001AB297F825301BB213431BB29BB2FB82FC
:105A400097F826301B021AB297F827301BB213437F
:105A50001BB29BB2BB8297F828301B021AB297F890
:105A600029301BB213431BB29BB27B8297F82A30BA
:105A70001B021AB297F82B301BB213431BB29BB216
:105A80003B82122387F8633054E000BF94E2022087
:105A9000C8E00220A4E0022004E30220CCE00220BF
:105AA00097F824301B021AB297F825301BB2134323
:105AB0001BB29BB23B8497F826301B021AB297F8B0
:105AC00027301BB213431BB29BB2FB8397F82830DD
:105AD0001B021AB297F829301BB213431BB29BB2B8
