:020000040800F2
:10000000000003201D1C0008595C0008675C000804
:100010006D5C0008735C0008795C0008000000005B
:1000200000000000000000000000000041F2000895
:100030007F5C00080000000081F40008E9F400087B
:10004000711C0008711C0008711C0008ED5C0008A0
:10005000711C0008711C0008711C0008711C00084C
:10006000711C0008AD5C0008BB5C0008711C000836
:10007000711C0008711C0008711C0008711C00082C
:10008000711C0008711C0008711C0008711C00081C
:10009000711C0008711C0008711C0008C95C000874
:1000A000711C0008D95C00088D5C0008711C0008F8
:1000B000711C0008711C0008711C0008711C0008EC
:1000C000711C0008711C0008711C0008711C0008DC
:1000D000711C0008711C0008711C0008711C0008CC
:1000E000711C0008711C0008711C0008711C0008BC
:1000F000055D0008F95C0008A15C0008711C00089F
:10010000711C0008711C0008711C0008711C00089B
:10011000711C0008711C0008711C0008711C00088B
:10012000711C0008711C0008711C0008711C00087B
:0C013000711C0008711C0008711C000804
:1001400010B5054C237833B9044B13B10448AFF311
:1001500000800123237010BDB803002000000000C0
:100160001465010808B5034B1BB103490348AFF3FD
:10017000008008BD00000000BC03002014650108D9
:10018000034613F8012B002AFBD1181A01387047D7
:1001900001F0FF01102A2BDB10F0070F08D010F838
:1001A000013B013A8B422DD010F0070F42B3F6D13C
:1001B000F0B441EA012141EA014122F007047FF055
:1001C00000070023F0E80256083C85EA010586EAAC
:1001D000010685FA47F5A3FA87F586FA47F6A5FAE8
:1001E00087F68EB9EED1F0BC01F0FF0102F00702F4
:1001F00032B110F8013B013A83EA010313B1F8D19F
:100200000020704701387047002D06BF354603387F
:10021000073815F0010F07D1013015F4807F02BFB8
:10022000013015F4C03F0130F0BC0138704700BF09
:1002300081F0004102E000BF83F0004330B54FEA97
:1002400041044FEA430594EA050F08BF90EA020F04
:100250001FBF54EA000C55EA020C7FEA645C7FEA97
:10026000655C00F0E2804FEA5454D4EB5555B8BFBA
:100270006D420CDD2C4480EA020281EA030382EA2B
:10028000000083EA010180EA020281EA0303362DBD
:1002900088BF30BD11F0004F4FEA01314FF4801C90
:1002A0004CEA113102D0404261EB410113F0004FA2
:1002B0004FEA03334CEA133302D0524263EB430359
:1002C00094EA050F00F0A780A4F10104D5F1200EF7
:1002D0000DDB02FA0EFC22FA05F2801841F1000152
:1002E00003FA0EF2801843FA05F359410EE0A5F126
:1002F00020050EF1200E012A03FA0EFC28BF4CF057
:10030000020C43FA05F3C01851EBE37101F000450C
:1003100007D54FF0000EDCF1000C7EEB00006EEB19
:100320000101B1F5801F1BD3B1F5001F0CD34908A3
:100330005FEA30004FEA3C0C04F101044FEA4452FA
:1003400012F5800F80F09A80BCF1004F08BF5FEA81
:10035000500C50F1000041EB045141EA050130BD61
:100360005FEA4C0C404141EB010111F4801FA4F104
:100370000104E9D191F0000F04BF01460020B1FA59
:1003800081F308BF2033A3F10B03B3F120020CDA91
:100390000C3208DD02F1140CC2F10C0201FA0CF06F
:1003A00021FA02F10CE002F11402D8BFC2F1200CD4
:1003B00001FA02F120FA0CFCDCBF41EA0C0190408A
:1003C000E41AA2BF01EB0451294330BD6FEA0404D3
:1003D0001F3C1CDA0C340EDC04F11404C4F12002BE
:1003E00020FA04F001FA02F340EA030021FA04F3D0
:1003F00045EA030130BDC4F10C04C4F1200220FA27
:1004000002F001FA04F340EA0300294630BD21FA64
:1004100004F0294630BD94F0000F83F4801306BF2A
:1004200081F480110134013D4EE77FEA645C18BF1E
:100430007FEA655C29D094EA050F08BF90EA020FB5
:1004400005D054EA000C04BF1946104630BD91EAAD
:10045000030F1EBF0021002030BD5FEA545C05D1B0
:100460004000494128BF41F0004130BD14F58004EF
:100470003CBF01F5801130BD01F0004545F0FE4163
:1004800041F470014FF0000030BD7FEA645C1ABF98
:10049000194610467FEA655C1CBF0B46024650EACF
:1004A000013406BF52EA033591EA030F41F40021FB
:1004B00030BD00BF90F0000F04BF0021704730B581
:1004C0004FF4806404F132044FF000054FF0000156
:1004D00050E700BF90F0000F04BF0021704730B517
:1004E0004FF4806404F1320410F0004548BF4042EC
:1004F0004FF000013EE700BF42004FEAE2014FEA41
:1005000031014FEA02701FBF12F07F4393F07F4F1B
:1005100081F06051704732F07F4208BF704793F01E
:100520007F4F04BF41F40021704730B54FF4607431
:1005300001F0004521F000411CE700BF50EA010234
:1005400008BF704730B54FF000050AE050EA0102DD
:1005500008BF704730B511F0004502D5404261EB4D
:1005600041014FF4806404F132045FEA915C3FF48E
:10057000D8AE4FF003025FEADC0C18BF03325FEA2B
:10058000DC0C18BF033202EBDC02C2F1200300FADC
:1005900003FC20FA02F001FA03FE40EA0E0021FA01
:1005A00002F11444BDE600BF70B54FF0FF0C4CF4EF
:1005B000E06C1CEA11541DBF1CEA135594EA0C0FA1
:1005C00095EA0C0F00F0DEF82C4481EA030621EADC
:1005D0004C5123EA4C5350EA013518BF52EA033517
:1005E00041F4801143F4801338D0A0FB02CE4FF0C9
:1005F0000005E1FB02E506F00042E0FB03E54FF0F9
:100600000006E1FB03569CF0000F18BF4EF0010EF0
:10061000A4F1FF04B6F5007F64F5407404D25FEAEC
:100620004E0E6D4146EB060642EAC62141EA55519F
:100630004FEAC52040EA5E504FEACE2EB4F1FD0CE1
:1006400088BFBCF5E06F1ED8BEF1004F08BF5FEA5F
:10065000500E50F1000041EB045170BD06F0004611
:1006600046EA010140EA020081EA0301B4EB5C04BE
:10067000C2BFD4EB0C0541EA045170BD41F48011B6
:100680004FF0000E013C00F3AB8014F1360FDEBFDB
:10069000002001F0004170BDC4F10004203C35DAB7
:1006A0000C341BDC04F11404C4F1200500FA05F33A
:1006B00020FA04F001FA05F240EA020001F00042DB
:1006C00021F0004110EBD37021FA04F642EB060151
:1006D0005EEA430E08BF20EAD37070BDC4F10C047B
:1006E000C4F1200500FA04F320FA05F001FA04F23F
:1006F00040EA020001F0004110EBD37041F100012B
:100700005EEA430E08BF20EAD37070BDC4F1200535
:1007100000FA05F24EEA020E20FA04F301FA05F29D
:1007200043EA020321FA04F001F0004121FA04F245
:1007300020EA020000EBD3705EEA430E08BF20EA15
:10074000D37070BD94F0000F0FD101F0004640004F
:1007500041EB010111F4801F08BF013CF7D041EAD1
:10076000060195F0000F18BF704703F000465200D5
:1007700043EB030313F4801F08BF013DF7D043EAA6
:100780000603704794EA0C0F0CEA135518BF95EA5C
:100790000C0F0CD050EA410618BF52EA4306D1D1E3
:1007A00081EA030101F000414FF0000070BD50EA02
:1007B000410606BF1046194652EA430619D094EA8C
:1007C0000C0F02D150EA013613D195EA0C0F05D176
:1007D00052EA03361CBF104619460AD181EA0301CA
:1007E00001F0004141F0FE4141F470014FF0000082
:1007F00070BD41F0FE4141F4780170BD70B54FF01D
:10080000FF0C4CF4E06C1CEA11541DBF1CEA13559C
:1008100094EA0C0F95EA0C0F00F0A7F8A4EB05047E
:1008200081EA030E52EA03354FEA013100F0888075
:100830004FEA03334FF0805545EA131343EA12633E
:100840004FEA022245EA111545EA10654FEA0026F3
:100850000EF000419D4208BF964244F1FD0404F5AC
:10086000407402D25B084FEA3202B61A65EB030508
:100870005B084FEA32024FF480104FF4002CB6EBC5
:10088000020E75EB030E22BFB61A754640EA0C0045
:100890005B084FEA3202B6EB020E75EB030E22BF85
:1008A000B61A754640EA5C005B084FEA3202B6EBC6
:1008B000020E75EB030E22BFB61A754640EA9C0085
:1008C0005B084FEA3202B6EB020E75EB030E22BF55
:1008D000B61A754640EADC0055EA060E18D04FEA13
:1008E000051545EA16754FEA06164FEAC30343EAB3
:1008F00052734FEAC2025FEA1C1CC0D111F4801F80
:100900000BD141EA00014FF000004FF0004CB6E778
:1009100011F4801F04BF01430020B4F1FD0C88BF17
:10092000BCF5E06F3FF6AFAEB5EB030C04BFB6EB22
:10093000020C5FEA500C50F1000041EB045170BD15
:100940000EF0004E4EEA113114EB5C04C2BFD4EB42
:100950000C0541EA045170BD41F480114FF0000EC6
:10096000013C90E645EA060E8DE60CEA135594EA42
:100970000C0F08BF95EA0C0F3FF43BAF94EA0C0F45
:100980000AD150EA01347FF434AF95EA0C0F7FF4BA
:1009900025AF104619462CE795EA0C0F06D152EA0E
:1009A00003353FF4FDAE1046194622E750EA4106F2
:1009B00018BF52EA43067FF4C5AE50EA41047FF403
:1009C0000DAF52EA43057FF4EBAE12E74FF0FF3C68
:1009D00006E000BF4FF0010C02E000BF4FF0010C39
:1009E0004DF804CD4FEA410C7FEA6C5C4FEA430CB2
:1009F00018BF7FEA6C5C1BD001B050EA410C0CBF01
:100A000052EA430C91EA030F02BF90EA020F002062
:100A1000704710F1000F91EA030F58BF994208BFC9
:100A200090422CBFD8176FEAE37040F00100704786
:100A30004FEA410C7FEA6C5C02D150EA013C07D1DD
:100A40004FEA430C7FEA6C5CD6D152EA033CD3D028
:100A50005DF8040B704700BF8446104662468C4622
:100A60001946634600E000BF01B5FFF7B7FF002855
:100A700048BF10F1000F01BD4DF808EDFFF7F4FF7E
:100A80000CBF012000205DF808FB00BF4DF808ED09
:100A9000FFF7EAFF34BF012000205DF808FB00BF2C
:100AA0004DF808EDFFF7E0FF94BF012000205DF84E
:100AB00008FB00BF4DF808EDFFF7CEFF94BF012003
:100AC00000205DF808FB00BF4DF808EDFFF7C4FFFC
:100AD00034BF012000205DF808FB00BF4FEA410C45
:100AE0007FEA6C5C02D150EA013C0AD14FEA430C28
:100AF0007FEA6C5C02D152EA033C02D14FF0000065
:100B000070474FF0010070474FEA410212F50012A2
:100B100015D211D56FF47873B3EB625212D94FEA44
:100B2000C12343F0004343EA505311F0004F23FA2E
:100B300002F018BF404270474FF00000704750EA83
:100B4000013005D111F0004008BF6FF00040704740
:100B50004FF00000704700BF4FEA4102B2F1E0439E
:100B600024BFB3F5001CDCF1FE5C0DD901F0004C94
:100B70004FEAC0024CEA5070B2F1004F40EB8300E4
:100B800008BF20F00100704711F0804F21D113F110
:100B90003872BCBF01F00040704741F480114FEA49
:100BA0005252C2F11802C2F1200C10FA0CF320FAD2
:100BB00002F018BF40F001004FEAC1234FEAD323EF
:100BC00003FA0CFC40EA0C0023FA02F34FEA430359
:100BD000CCE77FEA625307D150EA01331EBF4FF0E2
:100BE000FE4040F44000704701F0004040F0FE40FD
:100BF00040F40000704700BF80B400AF034B1B6897
:100C00001846BD465DF8047B704700BF8075FF1F26
:100C100080B400AF034B1B68DBB21846BD465DF8DD
:100C2000047B70478475FF1F80B400AF034B1B68C3
:100C30001B0A1846BD465DF8047B70478475FF1F8C
:100C4000B0B58CB000AF2B4B3C461D460FCD0FC44A
:100C50000FCD0FC495E80F0007C4237000F0FEF914
:100C60000121022011F0F8FD234A002123480DF054
:100C700075FC0246224B1A603B4618460CF002F8FF
:100C80000346002B01D004F0DBFC00F00FFA0AF061
:100C9000A5FF1C4B002283F880201A4B4FF6FF72F1
:100CA000DA82194A002119480DF058FC0246184B07
:100CB0001A60184B00221A70174B01221A7000F0AC
:100CC000A3FC164B00221649002002F0CFFB0D4B6F
:100CD00000225A760B4B00221A76124B80221A8081
:100CE000114BA0221A80012000F0BCFA00BF30375F
:100CF000BD46B0BD84650108686F0108791400081D
:100D00008877002010020020446F01085114000869
:100D1000B4780020957700209477002039140008DB
:100D200091020020940200209602002080B58CB031
:100D300000AF7860422387F82F307B680133BB62B5
:100D4000BB6A1B783E2B28D0FF2B00F0A580052B1B
:100D500000D045E1BB6A02333B613B69B3F8013027
:100D60009AB2A24BDB8A9A4209D1A04B0022DA82C6
:100D70009E4B002283F880209D4812F0A9FA0120A2
:100D800000F070FA9B4B01221A70984BDA8A994B4B
:100D90005A80984800F024FC22E1BB6A0233FB61D0
:100DA000FB691B78032B04D00C2B06D0012B42D0FF
:100DB00071E0914812F08CFA6DE0904812F088FAD8
:100DC000FB690133BB61BB691B78002B03D18C48E5
:100DD00012F07EFA02E08B4812F07AFA834BDB8A3B
:100DE00007F10E0207F10F0118460BF05CFE0346F7
:100DF00087F82F3097F82F30002B18D1824812F047
:100E000067FAFB7B022B0AD1BB7B022B07D1FB7B52
:100E10001946BB7B1A467D4812F0E6F93BE0FB7BA6
:100E20001946BB7B1A46794812F0DEF933E0784860
:100E300012F04EFA2FE0FB6901337B616B4B93F8A4
:100E40008130184602F088FB7B69B3F801309BB211
:100E50001946704812F0C8F9644B93F88030042B9F
:100E600004D1624B062283F8802003E05F4B052209
:100E700083F880207B69B3F801309AB25B4BDA8249
:100E80005C4B00221A70594BDA8A5A4B5A805948E7
:100E900000F0A6FB00BFA3E0BB6A02337B627B6A63
:100EA0001B889BB240F2054293424AD040F2054271
:100EB000934218DC40F20242934233D040F20242A5
:100EC000934207DCB3F5806F28D040F20142934291
:100ED00069D084E040F2034293422AD040F20442B7
:100EE00093422AD07BE0B3F5816F3AD0B3F5816F9E
:100EF00008DC40F2064293422FD040F20742934270
:100F000069D06CE040F20A4293422ED040F20A428D
:100F100093422EDBB3F5006F5AD060E03E4812F0EA
:100F2000D7F95CE03D4812F0D3F93D4812F0D0F912
:100F300055E03C4812F0CCF951E03B4812F0C8F9BA
:100F40004DE03A4812F0C4F9284BDB8A18460BF002
:100F5000E0F9374812F0BCF941E0364812F0B8F930
:100F60003DE0344812F0B4F939E0334812F0B0F9FA
:100F700035E07B6A0233D3F8023019462F4812F06D
:100F800033F97B6A0233D3F8023019462C4812F049
:100F90002BF9164BDB8A012118460BF004FA29487D
:100FA00012F096F91BE07B6A02333B623B6A9B7846
:100FB0001946254812F018F93B6A9B78002B03D19B
:100FC000224812F085F90AE0214812F081F906E082
:100FD000204B01221A70204812F07AF900BF00BF9E
:100FE000012318463037BD4680BD00BF10020020E7
:100FF000B46501088C770020DC65010808660108EB
:1010000024660108486601087066010884660108C4
:10101000A0660108B8660108EC66010818670108B7
:1010200040670108606701088C670108BC67010818
:10103000DC670108F86701081C68010848680108B6
:101040006068010874680108B0680108086901084F
:101050001C690108947700203069010880B582B0CE
:1010600000AF00200DF044FC02460B4B1A6000223A
:10107000002101200DF084FD0246084B1A60084B48
:101080003B60084B7B603B46194607480BF028FE47
:1010900000BF0837BD4680BD9877002084770020C8
:1010A0002800032031150008F9140008F0B58FB0AE
:1010B00006AF4FF450733B800BF0D1FC00F078F991
:1010C000F861FA69062100200BF009FCFB695A79E6
:1010D0005C4B1A72FB691A795A4B5A72FB69DA78BF
:1010E000584B9A72FB699A78564BDA72FB695A78B8
:1010F000544B1A73FB691A78524B5A73524A102197
:1011000018200BF0ECFB514A102108200BF0E7FBF4
:101110004EF66E53BB60FFF76FFD03467B603B1DD1
:101120001A4606212E200BF0DAFB474A1021182020
:101130000BF0D5FB454A102108200BF0D0FB1821FD
:1011400001200BF035FC0BF085F90023FB76FB7ECC
:1011500043F00103FB76FB7E002B24D03C4B7B61EC
:1011600007F11202F87E07F10E03019307F1100355
:1011700000931346072200210AF0C0FF7C8A3D8AB3
:101180007869FEF7FDFF0346DAB27B6900931346E8
:101190000022294620460BF01BFB0346002B02D001
:1011A0002C4812F095F8788AF9893B46009302237F
:1011B00000220BF00DFB0346002B02D0264812F054
:1011C00087F80222022100200BF0D5FC234B0122DC
:1011D0001A70224B1B7818460AF09EFE1F4B012204
:1011E0005A701E4B08221A711C4B10225A711B4B4D
:1011F0000022DA70194B1A4A9A60184B01229A7031
:10120000164B9D78154B5E78144B1B79134A527917
:101210001249C9781148806800240494039002910F
:101220000192009300230122314628460AF0BEFEB7
:101230000A4B9B78002B01D00BF047F800BF2437F6
:10124000BD46F0BD040000201C6F01082C6F010892
:1012500058690108606901089069010810020020BE
:1012600007B2010080B58CB008AF0346FB71422382
:10127000FB72FB79012B06D13F4B1B88FB813F4B57
:101280001B88BB8105E04FF4C863FB814FF47A6390
:10129000BB813B4B93F88130184602F05DF9384B27
:1012A00093F880301946374811F09EFFFB79022BE6
:1012B00019D1334B93F88030012B04D0304B93F885
:1012C0008030022B0FD10AF025FD0346FB72FB7A1A
:1012D000002B03D12C4811F0FBFF04E0FB7A1946E8
:1012E0002A4811F081FF264AFB7982F88030244B8E
:1012F0001B7EB889F9890022069200220592244AB1
:1013000004920393234B0293082301930023009339
:101310000023024600200AF021FD0346FB721E490D
:101320000E200AF076FF0346FB72FB7A002B11D1E8
:10133000FB79012B0AD1194811F0CAFF104B93F821
:1013400081301749184602F091F912E0154811F062
:10135000BFFF0EE0FB79012B05D1FB7A194612483D
:1013600011F042FF05E0FB7A1946104811F03CFFEE
:1013700000BF1037BD4680BD9402002096020020B9
:1013800010020020C0690108DC690108006A010838
:10139000290200203C6F010804000020286A01088F
:1013A00046E00100506A01087C6A0108AC6A010845
:1013B00080B586B000AFFFF71FFC38613B69B3F121
:1013C000FF3F23D0FFF730FCB860FFF721FC7860C7
:1013D0003B69DAB2164B1A703B691B0ADAB2144B3E
:1013E0005A703B691B0CDAB2114B9A707B68DAB207
:1013F0000F4BDA70BB68DAB20D4B1A71BB681B0A6F
:10140000DAB20B4B5A710A4B7B610BE000200CF0F7
:1014100055FBF860FB68002B02D0FB687B6101E0A4
:10142000044B7B617B6918461837BD4680BD00BF01
:10143000D4030020146F010880B500AF034B1B6874
:10144000012118460DF030F900BF80BDB4780020AE
:1014500080B582B000AF78604FF0FF3200210120EC
:101460000DF084F900F001F8F6E780B500AF022036
:10147000FFF7F8FE00BF80BD80B582B000AF786096
:101480004FF0FF32002101200DF070F90BF044FC09
:10149000F6E7000080B582B000AF7860044B1B68AF
:1014A000012118460DF000F900BF0837BD4680BD88
:1014B0008877002080B582B000AF7860044B1B684D
:1014C00018460DF061FC00BF0837BD4680BD00BF67
:1014D0008477002080B582B000AF7860054B1B6830
:1014E0004FF0FF3118460DF0E9FB00BF0837BD464D
:1014F00080BD00BF8477002080B584B000AF7860E5
:101500007B68FB60FB685B68083318460AF0B0FB39
:101510000346FB72FB7A002B03D0FB6801221A7092
:1015200002E0FB6800221A7000BF1037BD4680BD84
:1015300080B582B000AF0346FB71FB79002B02D06F
:10154000012B08D00DE0094B1B684FF0FF31184606
:101550000DF068FA05E0054B1B6818460DF0C0FA5F
:1015600000BF00BF0837BD4680BD00BF9877002090
:1015700080B582B000AF78607B681B78012B0ED0FD
:10158000032B16D0002B00D01CE0104B01221A7048
:101590000F4811F09DFE0F4811F026FE12E00B4B94
:1015A00000221A700C4811F093FE0A4811F01CFE3C
:1015B00008E00A4B18687B68191D002300220DF013
:1015C000C1FC00BF00BF0837BD4680BD98020020A7
:1015D000606B0108946B0108986B010890770020FC
:1015E00080B582B000AF78607B681B78002B05D097
:1015F000012B00D003E000F013F800E000BF00BFB3
:101600000837BD4680BD000080B500AF034B002207
:101610001A7000F005F800BF80BD00BF98020020DE
:1016200090B400AF0E4B01225A700D4B00229A70FD
:101630000B4B0122DA700A4B00221A71084A4FF054
:1016400000034FF00004C2E90234054B00221A7473
:10165000034B00225A7400BFBD4690BC704700BFC8
:101660009802002080B58CB000AF0346FB80304B61
:101670001B78002B54D02F4811F0B6FD2E4811F0E6
:10168000B3FD2E4B1B684FF0FF3118460DF0CAF921
:1016900007F11C0301221946294808F08EFA07F1C8
:1016A000180301221946264808F091FB234B1B68BA
:1016B00018460DF015FA07F10C0300221A605A6063
:1016C0001A813B7E1B021AB27B7E1BB213431BB2F4
:1016D0009BB2BB82BB7E1B021AB2FB7E1BB21343C2
:1016E0001BB29BB27B823B7F1B021AB27B7F1BB279
:1016F00013431BB29BB23B82BB7F1B021AB2FB7F20
:101700001BB213431BB29BB2FB81FB88BB8107F169
:101710000C030A2219464FF642600CF0F9F803E078
:10172000084811F061FD00BF3037BD4680BD00BFE5
:1017300098020020506C0108946B0108C0770020CB
:101740009C770020046C010880B400AF054BDB6877
:10175000044A43F40043D36000BFBD465DF8047BF8
:10176000704700BF0004005880B483B000AF7860B9
:10177000064BD3F8D42005497B681343C1F8D43015
:1017800000BF0C37BD465DF8047B70470008005869
:1017900080B483B000AF7860054B1A6A04497B6857
:1017A00013430B6200BF0C37BD465DF8047B7047E6
:1017B0000008005880B485B000AF78604FF0B043A7
:1017C0001A6D4FF0B0417B6813430B654FF0B04387
:1017D0001A6D7B681340FB60FB6800BF1437BD4681
:1017E0005DF8047B704780B485B000AF78604FF03F
:1017F000B043D3F850214FF0B0417B681343C1F898
:1018000050314FF0B043D3F850217B681340FB6058
:10181000FB6800BF1437BD465DF8047B704780B499
:1018200083B000AF78607B681B6843F480327B68CC
:101830001A6000BF0C37BD465DF8047B704780B46A
:1018400083B000AF78607B681B6843F001027B685F
:101850001A6000BF0C37BD465DF8047B704780B44A
:1018600083B000AF786039607B685A683B681B04BE
:10187000DB431A407B685A6000BF0C37BD465DF8F9
:10188000047B704780B483B000AF786039607B68B8
:101890005A683B681B041A437B685A6000BF0C37C8
:1018A000BD465DF8047B704780B483B000AF7860BC
:1018B00039607B685A683B68DB431A407B685A6032
:1018C00000BF0C37BD465DF8047B704780B483B021
:1018D00000AF786039607B683A689A6000BF0C3767
:1018E000BD465DF8047B704780B483B000AF78607C
:1018F00039603B681A047B689A6000BF0C37BD46AC
:101900005DF8047B704780B483B000AF78603960C5
:101910007B68DA683B6813403A689A4201D1012338
:1019200000E0002318460C37BD465DF8047B704785
:1019300080B483B000AF786039607B68DA693B6857
:1019400013403A689A4201D1012300E0002318466F
:101950000C37BD465DF8047B7047000080B500AFD2
:1019600002211948FFF7E4FF0346002B09D0164B6C
:101970005B68DB4303F00203002B02D000F0EAF8BF
:101980001FE001211048FFF7D3FF0346002B08D0CA
:101990000D4B5B6803F00103002B02D100F09EF8B1
:1019A0000FE008210848FFF7C3FF0346002B09D0CA
:1019B000054B5B68DB4303F00803002B02D000F00B
:1019C00015F900BF00BF80BD000C005880B500AF06
:1019D00002212248FFF797FF0346002B09D11F4B36
:1019E0005B68DB4303F40033002B02D000F0A6F861
:1019F00031E002211948FFF786FF0346002B09D189
:101A0000164B5B68DB4303F40033002B02D000F07D
:101A100095F820E008211148FFF775FF0346002BD9
:101A200009D10E4B5B68DB4303F40023002B02D08B
:101A300000F0BEF80FE020210848FFF764FF0346DE
:101A4000002B09D1054B5B68DB4303F40013002B2B
:101A500002D000F04FF800BF00BF80BD000C00585E
:101A600080B500AF4FF48010FFF7BDFE4FF400705B
:101A7000FFF77AFE4FF40070FFF78AFE40BF20BFE9
:101A8000FFF762FE00BF80BD80B500AF4FF480104D
:101A9000FFF790FE0648FFF7D2FE0548FFF7BFFEAE
:101AA0002C2004F03FFF2D2004F03CFF00BF80BD40
:101AB000000C005880B500AF01210248FFF7F4FE8A
:101AC00000BF80BD000C005880B500AF0121024866
:101AD000FFF70AFF00BF80BD000C005880B500AFC3
:101AE0000BF058FC01210248FFF7F0FE00BF80BD5B
:101AF000000C005880B500AF20210348FFF7C2FE5C
:101B00000BF078FC00BF80BD000C005880B500AF22
:101B100002210248FFF7C8FE00BF80BD000C00583C
:101B200080B500AF02210448FFF7DEFE0221024823
:101B3000FFF795FE00BF80BD000C005880B500AFD8
:101B400002210348FFF79EFE0BF0A4FC00BF80BDFE
:101B5000000C005880B500AF0BF0B2FC0221024827
:101B6000FFF7B4FE00BF80BD000C005880B582B006
:101B700000AF786008210C48FFF7C5FE0346002B34
:101B800007D00A4A7B68136008210748FFF767FE01
:101B900006E07B68984708210348FFF7A5FE00BFD1
:101BA0000837BD4680BD00BF000C0058DC03002094
:101BB00080B500AF08210648FFF764FE054B1B689F
:101BC000984708210248FFF78FFE00BF80BD00BF85
:101BD000000C0058DC03002080B500AF082102484B
:101BE000FFF762FE00BF80BD000C005880B500AF5B
:101BF0000BF00EFD08210248FFF768FE00BF80BD14
:101C0000000C0058D458C4500433C4188C42F9D383
:101C10007047036004308842FBD370470C48854608
:101C200004F076FC0B480C490C4A0023FFF7EDFF4B
:101C30000B480C490023FFF7EEFF0B480B4900232C
:101C4000FFF7E9FF10F03CFE02F044F9FEE7000068
:101C50000000032004000020F8010020B0830108E8
:101C6000B8030020087B0020E0010320570A03206E
:101C7000FEE7000080B483B000AF7860064BD3F875
:101C8000902005497B681343C1F8903000BF0C37A2
:101C9000BD465DF8047B70470008005880B485B0ED
:101CA00000AF78604FF0B043DA6C4FF0B0417B6822
:101CB0001343CB644FF0B043DA6C7B681340FB6096
:101CC000FB6800BF1437BD465DF8047B704780B4E5
:101CD00085B000AF78604FF0B043D3F84C214FF09F
:101CE000B0417B681343C1F84C314FF0B043D3F897
:101CF0004C217B681340FB60FB6800BF1437BD4676
:101D00005DF8047B704780B500AF04F0CFFC04F0B1
:101D1000D3FC4FF48030FFF7ADFF0BF055FE00F021
:101D200021F800F0BFF800BF80BD0000B0B588B05A
:101D300000AF0B4B3C1D1D460FCD0FC495E80700AF
:101D400003C422800234130C23700BF04FFC3B1DA4
:101D500018460AF0AEFF00BF2037BD46B0BD00BF39
:101D6000886C010880B588B000AF3B1D00221A6066
:101D70005A609A60DA601A610023BB8300237B8378
:101D800000233B830023FB7733E0FB7F424ADB00E9
:101D900013449B79002B28D0FB7F3F4A52F8333005
:101DA0003E4A93420FD03E4A934215D0B3F1904F32
:101DB00000D01BE0FB7F384ADB0013449A88BB8BC2
:101DC0001343BB8312E0FB7F334ADB0013449A8842
:101DD0007B8B13437B8309E0FB7F2F4ADB0013449B
:101DE0009A883B8B13433B8300E000BFFB7F0133AA
:101DF000FB77FB7F212BC8D90023FB600123BB604D
:101E000003233B61BB8B002B14D0BB8B7B60012079
:101E1000FFF744FF0120FFF75AFF3B1D19464FF023
:101E2000904004F0B7FDBB8B002219464FF0904064
:101E300004F038FF7B8B002B12D07B8B7B60022061
:101E4000FFF72CFF0220FFF742FF3B1D1946134806
:101E500004F0A0FD7B8B00221946104804F022FFFD
:101E60003B8B002B13D03B8B7B600420FFF716FFCE
:101E70000420FFF72CFF3B1D1946094804F08AFD9A
:101E80003B8B00221946064804F00CFF00BF00BF40
:101E90002037BD4680BD00BF8C6F0108000400489C
:101EA0000008004880B400AF00BFBD465DF8047B69
:101EB000704780B400AF00BFBD465DF8047B70473B
:101EC00080B584B000AFF8600B467A607B817A8978
:101ED0007B68F968002001F05DFC00BF1037BD464B
:101EE00080BD000080B483B000AF7860074BD3F8AA
:101EF000803023F0070205497B681343C1F8803026
:101F000000BF0C37BD465DF8047B704700040058E5
:101F100080B483B000AF78604FF0B0439B6823F487
:101F200000424FF0B0417B6813438B6000BF0C3719
:101F3000BD465DF8047B704780B500AF00F014F833
:101F40000849002001F0ACF9FFF7DDFE0121012076
:101F500010F082FC00F0A1F800F0A6F800F012F8F2
:101F600000BF80BD9C77002080B500AF4FF40040DB
:101F7000FFF7CEFF10F05EFC0420FFF7B3FF00BFB9
:101F800080BD000080B588B000AF0BF079F900206B
:101F90000CF0AEFC0246174B1A6000220021012013
:101FA0000CF0EEFD0246144B1A60144A002114484E
:101FB0000CF0D4FA0246134B1A60134B3B60134BE0
:101FC0007B603B46194612480BF020F8114BBB6072
:101FD000114BFB60114B3B6140F23C537B6107F1BD
:101FE000080318460BF08EFA0BF044F900BF2037B7
:101FF000BD4680BDC8780020D07800209C700108C4
:1020000081200008CC78002024070320212000082C
:10201000612000083C09032030080320E801032068
:1020200080B582B000AF0346FB71FB79002B02D074
:10203000012B08D00DE0094B1B684FF0FF3118460B
:102040000CF0F0FC05E0054B1B6818460CF048FD51
:1020500000BF00BF0837BD4680BD00BFC878002064
:1020600080B582B000AF7860FFF760FEFEF7E8FD54
:102070000021012010F0F0FB00BF0837BD4680BDF5
:1020800080B582B000AF78604FF0FF3200210120B0
:102090000CF06CFB0AF0D6FFF6E780B400AF00BF8F
:1020A000BD465DF8047B704780B400AF00BFBD46FD
:1020B0005DF8047B7047000080B582B000AF7860A7
:1020C000044B1B68012118460CF0EEFA00BF0837DC
:1020D000BD4680BDCC78002080B582B000AF78606E
:1020E000044B1B6818460CF04FFE00BF0837BD4676
:1020F00080BD00BFD078002080B582B000AF78608E
:10210000054B1B684FF0FF3118460CF0D7FD00BFA0
:102110000837BD4680BD00BFD078002080B584B0B0
:1021200000AF78607B681B68234A13607B689A88DD
:10213000214B9A80204B00229A717B689B7903F097
:102140000303DAB21C4B1A737B689B799B08DBB2E2
:1021500003F00303DAB2184B5A737B689B791B09AF
:10216000DBB203F00303DAB2134B9A73124B1A7B00
:10217000114B5B7B9A420CD10F4B9A880E4B9B887C
:102180000333002B00DA03339B109BB213449BB242
:1021900005E0094B9B881A46520013449BB2FB8111
:1021A000FB8918460DF02CFA03461A46024B9A603A
:1021B00000BF1037BD4680BDD478002080B584B004
:1021C00000AF4B4B9B68002B00F08E80484B9B6808
:1021D000FB60474B9B883B81454B9B79FB800023F1
:1021E0007B710023FB720AE0414B1868791D4FF0A8
:1021F000FF33012207F09DFFFB7A0133FB72FB7A6C
:10220000032BF1D93A4B9B79002B2CD0FF237B7108
:10221000374B1868791D4FF0FF33012207F089FF13
:102220000023FB7215E0FB685A1CFA601B781A4603
:10223000FB8803FB02F31B12DBB27B712C4B18688B
:10224000791D4FF0FF33012207F073FFFB7A013352
:10225000FB72FB7A022BE6D93B89013B3B813B8930
:10226000002BD3D125E0FF237B71214B1868791D0A
:102270004FF0FF33012207F05CFF0023FB720FE0F9
:10228000FB685A1CFA601B787B71194B1868791D22
:102290004FF0FF33012207F04CFFFB7A0133FB7252
:1022A000FB7A022BECD93B89013B3B813B89002B1C
:1022B000D9D1FF237B710023FB720AE00C4B186815
:1022C000791D4FF0FF33012207F033FFFB7A013312
:1022D000FB72FA7A064B9B880F33002B00DA0F3320
:1022E0001B119A42EADB00E000BF1037BD4680BDFB
:1022F000D478002080B500AF0F4B98680E4B1A7B46
:102300000D4B5B7B9A420BD10B4B9B881A460A4BB9
:102310009B880333002B00DA03339B10134405E042
:10232000054B9B881A4613465B0013441A4600214E
:1023300010F0F5FA00BF80BDD478002080B485B0DD
:1023400000AF03463960FB80164B9B88FA889A429F
:1023500021D2144B9968FA8813465B0013440B444E
:10236000FB603B681A0C0F4B1B7B1946FB680B4448
:10237000D2B21A703B681A0A0A4B5B7B1946FB689B
:102380000B44D2B21A70074B9B7B1A46FB6813446E
:102390003A68D2B21A7000BF1437BD465DF8047BAC
:1023A000704700BFD478002080B584B000AF78605B
:1023B0000B467B8013463B80154B9B887A889A425C
:1023C00022D23B88002B03D1114B9B88BB810BE0B1
:1023D0007A883B881344BB810D4B9B88BA899A420B
:1023E00002D90B4B9B88BB817B88FB8107E0FB8973
:1023F00079681846FFF7A2FFFB890133FB81FA8950
:10240000BB899A42F3D300E000BF1037BD4680BDC0
:10241000D478002080B483B000AF0346FB71FB7911
:102420000133DAB2034B9A7100BF0C37BD465DF839
:10243000047B7047D478002080B586B002AF034695
:102440000A46FB711346BB717823FB81BB793B7352
:10245000FB797B7307F10C02F9894FF0FF3300938E
:102460000223034804F002FD00BF1037BD4680BDC3
:10247000F078002080B500AF0021AE20FFF7DCFF30
:102480000021D520FFF7D8FF00218020FFF7D4FFDF
:102490000021A820FFF7D0FF00212720FFF7CCFF65
:1024A0000021D320FFF7C8FF00210020FFF7C4FF61
:1024B0000021AD20FFF7C0FF00213020FFF7BCFF57
:1024C00000218D20FFF7B8FF00211420FFF7B4FF93
:1024D00000214020FFF7B0FF0021A620FFF7ACFF4E
:1024E0000021A420FFF7A8FF0021A120FFF7A4FFEF
:1024F0000021C820FFF7A0FF0021DA20FFF79CFF92
:1025000000211220FFF798FF00218120FFF794FFA0
:102510000021AF20FFF790FF0021D920FFF78CFFAB
:1025200000212220FFF788FF0021DB20FFF784FF36
:1025300000212020FFF780FF0021AF20FFF77CFF64
:1025400000BF80BD80B485B000AF78600023FB6021
:1025500007E0FB687A68134400221A70FB680133B5
:10256000FB60FB68B3F5B47FF3DB00BF1437BD46F7
:102570005DF8047B704780B485B000AF7860F023CD
:10258000FB6007E0FB687A68134400221A70FB685E
:102590000133FB60FB68B3F5B47FF3DB00BF143796
:1025A000BD465DF8047B704780B485B000AFF8602D
:1025B000B9603B601346FB71FB68482B61DCBB686C
:1025C000282B5EDCFB79002B2CD0BB68002B00DABB
:1025D0000733DB101A461346DB001344DB001946B1
:1025E000FB680B4419463B680B441B7859B2BB6827
:1025F000584203F0070300F0070058BF4342012090
:1026000000FA03F35BB20B4359B21346DB001344E9
:10261000DB001A46FB6813441A463B681344CAB2EF
:102620001A702FE0BB68002B00DA0733DB101A4664
:102630001346DB001344DB001946FB680B441946C4
:102640003B680B441B7859B2BB68584203F0070340
:1026500000F0070058BF4342012000FA03F35BB2C9
:10266000DB435BB20B4059B21346DB001344DB0083
:102670001A46FB6813441A463B681344CAB21A70E0
:1026800000E000BF1437BD465DF8047B70470000D2
:1026900090B587B000AF0446084611461A46234657
:1026A000FB710346BB710B467B7113463B71BB79D3
:1026B0003B7480237B8208237B747B79203BFB73F4
:1026C0003B79202B04D14FF400437B8210237B7491
:1026D0000023FB75B1E03B790C2B1DD197F8283016
:1026E000002B0BD0FA7BF97D584813465B0013444E
:1026F0009B0003440B441B78BB826CE0FA7BF97DA2
:10270000524813465B0013449B0003440B441B7860
:102710009BB2DB43BB825EE03B79102B17D197F86D
:102720002830002B08D0FA7BFB7D494912010A446E
:1027300013441B78BB824EE0FA7BFB7D44491201B7
:102740000A4413441B789BB2DB43BB8243E097F8F7
:102750002830002B1CD0FB7BA3F11002FB7D5B001B
:102760003C4992010A4413441B789BB21B02BB8272
:10277000FB7BA3F11002FB7D5B0001333549920125
:102780000A4413441B789AB2BB8A1343BB8222E0EB
:10279000FB7BA3F11002FB7D5B002E4992010A44F2
:1027A00013441B789BB2DB439BB21B02BB82FB7BB7
:1027B000A3F11002FB7D5B000133264992010A441C
:1027C00013441B789BB2DB439BB21AB2B7F91430A7
:1027D00013431BB2BB820023BB7527E0BA8A7B8AF6
:1027E00013409BB2002B06D0F879B979FB6A01221D
:1027F000FFF7DAFE05E0F879B979FB6A0022FFF706
:10280000D3FEBB8A5B00BB82BB790133BB71BA7953
:102810003B7CD21A3B799A4205D13B7CBB71FB7958
:102820000133FB7106E0BB7D0133BB75BA7D7B7C58
:102830009A42D3D3FB7D0133FB75FA7D3B799A42F3
:10284000FFF449AF00BF1C37BD4690BDC070010802
:1028500034750108247B010890B585B002AF3A6059
:102860001A460346FB710B46BB7113467B712CE085
:10287000FA797B795B08DBB2C3F148039A420FDD3A
:102880000023FB71BA797B791344BB71BA797B79E8
:10289000C3F128039A4203DD0023FB71FB79BB716E
:1028A0003B681A787C79B979F879FB6901933B7EAA
:1028B00000932346FFF7ECFE7B795B08DAB2FB79E5
:1028C0001344FB713B6801333B603B681B78002B72
:1028D000CED100BF0C37BD4690BD80B584B000AFEF
:1028E00078600023FB7329E0FB7B503BDBB20021C7
:1028F0001846FFF7A1FD00210C20FFF79DFD0021E8
:102900001120FFF799FD0023BB7311E0B97BFA7B1F
:102910001346DB001344DB000B441A467B68134468
:102920001B7840211846FFF787FDBB7B0133BB7343
:10293000BB7B472BEAD9FB7B0133FB73FB7B042B6F
:10294000D2D900BF1037BD4680BD80B5DEB002AF22
:102950003B1D186007F108031846FFF7F3FD3B1D08
:102960001B683A1D591C11601A7807F1080301937E
:1029700001230093202304210020FFF789FE3B1D43
:102980001B683A1D591C11601A7807F1080301935E
:1029900001230093202304211020FFF779FE3B1D23
:1029A0001B683A1D591C11601A7807F1080301933E
:1029B00001230093202304212820FFF769FE3B1DFB
:1029C0001B681A7807F10803019301230093202361
:1029D00004213820FFF75CFE07F1080301220C21D7
:1029E0002420FFF7E1FD07F1080301220D21242037
:1029F000FFF7DAFD07F1080301220E212420FFF77B
:102A0000D3FD07F1080301221C212420FFF7CCFD90
:102A100007F1080301221B212420FFF7C5FD07F160
:102A2000080301221A212420FFF7BEFD07F1080345
:102A30001846FFF752FF00BF07F5B877BD4680BDC7
:102A400080B483B000AF786000BF0C37BD465DF83E
:102A5000047B704780B483B000AF7860064BD3F836
:102A6000802005497B681343C1F8803000BF0C37D4
:102A7000BD465DF8047B70470008005880B483B001
:102A800000AF7860054B1A6804497B6813430B60FC
:102A900000BF0C37BD465DF8047B70470008005846
:102AA00080B483B000AF0D4B9B6A9BB27B600B4B35
:102AB0009B6A9BB23B6005E03B687B60074B9B6A6F
:102AC0009BB23B607A683B689A42F5D13B681846F6
:102AD0000C37BD465DF8047B704700BF00280040FE
:102AE00080B485B000AF03460A46FB711346BB7144
:102AF000BA791D4913465B001344DB000B441533C0
:102B00001B78FB73FB7B062B09D0FA7B1649134617
:102B10005B001344DB000B441433FA791A70FA7922
:102B2000114913465B001344DB000B441533FA7B59
:102B30001A70FA790C4913465B001344DB000B440E
:102B40001433BA791A70BA79074913465B001344F3
:102B5000DB000B441533FA791A7000BF1437BD46F9
:102B60005DF8047B704700BFC802002080B485B0C8
:102B700000AF03460A46FB711346BB71294B1B7815
:102B8000DBB2BA799A4232D0BA79274913465B0050
:102B90001344DB000B4414331B78FB73FA7B22498C
:102BA00013465B001344DB000B441533FA791A70AB
:102BB000FA791D4913465B001344DB000B441533BF
:102BC000BA791A70FA79184913465B001344DB008E
:102BD0000B441433FA7B1A70BA79134913465B001D
:102BE0001344DB000B441433FA791A7014E0FA79B9
:102BF0000D4913465B001344DB000B441533BA79CF
:102C00001A70BA79084913465B001344DB000B4481
:102C10001433FA791A7000BF1437BD465DF8047B8F
:102C2000704700BF58030020C802002080B584B060
:102C300000AF0346FB714E4B1B78DBB2062B18D15D
:102C40004B4B1B78DAB24B4B1A70494AFB79137025
:102C5000FA79494913465B001344DB000B441533F2
:102C600006221A70454B4FF0FF321A600023FB8199
:102C700078E000F009F90346FB81FA793E491346F2
:102C80005B001344DB000B4408331968FB89FA79B5
:102C90001944394813465B001344DB0003440833EE
:102CA0001960FA79344913465B001344DB000B4486
:102CB00008331B68BB602E4B1B78DBB219462E4ACB
:102CC0000B465B000B44DB00134408331B68BA68F7
:102CD0009A4237D3264B1B787B737A7B264913465F
:102CE0005B001344DB000B4415331B783B7313E08C
:102CF0007A7B214913465B001344DB000B441533F8
:102D00001B787B737A7B1C4913465B001344DB0002
:102D10000B4415331B783B733B7B062B0BD03A7B64
:102D2000154913465B001344DB000B4408331B6852
:102D3000BA689A42DCD27A7BFB7911461846FFF7D3
:102D4000CFFE0FE00A4B1B78DAB2FB79114618462A
:102D5000FFF70CFF064B1B78DAB2064B1A70044AD9
:102D6000FB791370FB8918461037BD4680BD00BF44
:102D70005803002059030020C80200205C030020F3
:102D800080B485B000AF03460A46FB711346BB71A1
:102D9000394B1B78DBB2FA799A4211D1364B1B784A
:102DA000DAB2364B1A70FA79354913465B00134490
:102DB000DB000B4415331B78DAB22F4B1A703EE060
:102DC000FA792F4913465B001344DB000B4414339C
:102DD0001B78FB73FA792A4913465B001344DB0026
:102DE0000B4415331B78BB73F979FA7B24480B46E7
:102DF0005B000B44DB00034415331B78D8B2204939
:102E000013465B001344DB000B44153302461A7073
:102E1000BB7B062B13D0F979BA7B19480B465B00B4
:102E20000B44DB00034414331B78D8B21449134617
:102E30005B001344DB000B44143302461A70FA792A
:102E40000F4913465B001344DB000B440C33012293
:102E50001A70094B1B78DBB2062B07D1BB79002B0C
:102E600004D1084B4FF0FF321A6000BF00BF143787
:102E7000BD465DF8047B70475803002059030020CD
:102E8000C80200205C03002080B582B000AF1A4B5E
:102E90001B68B3F1FF3F26D0FFF702FE7860164BA8
:102EA0001B687A689A4205D8134B1A687B68D31A54
:102EB0007B600AE0114B1B881A467B68D31A3B6083
:102EC0000D4B1B683A6813447B600D4B1B781A4608
:102ED0007B6802FB03F37B600A4B1B781A467B6816
:102EE000D3407B6001E000237B607B689BB2184687
:102EF0000837BD4680BD00BF5C030020E60300200C
:102F0000E5030020E403002080B582B000AF034653
:102F1000FB80FB88002B08D1FFF7C2FD0246244B43
:102F20001A60032003F01AFD3EE0FB88012B03D852
:102F3000204B1B78012B02D0FB88013BFB8000BF9C
:102F40001D4B1B681B68DB6803F00403002BF7D0E4
:102F5000194B1B681B68DB68DAB2174B1B681B68D0
:102F600062F49062DA60154B4FF40022DA600320BD
:102F700003F002FD124B5B691B0C1B04FA8810491D
:102F800013434B61FFF78CFD0246094B1A600A4B55
:102F90001B681B689A68084B1B681B6842F48062B8
:102FA0009A60AFF3008000BF0837BD4680BD00BF08
:102FB0005C030020E4030020E00300200008005828
:102FC0000028004080B584B000AF474B9B6803F4F5
:102FD0008063B3F5806F08D100BF444B1B681B684A
:102FE000DB6803F00403002BF7D1404B1B681B6820
:102FF0009A683E4B1B681B6822F480629A603C4BC7
:103000001B78FB73FA7B3B4913465B001344DB00E0
:103010000B4408331B68BB60FFF736FF0346FB8099
:10302000FB88BA689A4205D20023BB81324B012249
:103030001A704DE0FB88314A128892B213441A4646
:10304000BB68934206D92D4B1B88BB812A4B0022BB
:103050001A703DE0BB689AB2FB88D31ABB81264B3D
:1030600001221A7034E0FA7B224913465B001344B4
:10307000DB000B4408331A68FB889A420AD2FA7BB9
:103080001C4913465B001344DB000B440833002249
:103090001A6013E0FA7B174913465B001344DB0008
:1030A0000B4408331968FB88FA7BC91A1148134688
:1030B0005B001344DB00034408331960FA7B0D49BD
:1030C00013465B001344DB000B4415331B78FB7382
:1030D000FB7B062BC7D1BB891846FFF715FF00BF46
:1030E0001037BD4680BD00BF00280040E00300202F
:1030F00058030020C802002060030020E8030020DD
:1031000080B58AB000AFEFF310837B617B697B628F
:1031100072B65E4B1B681B68CA225A625B4B1B6807
:103120001B6853225A62594B1B681B689A68574B9D
:103130001B681B6822F480629A60554B1B7887F8E5
:10314000233097F82320534913465B001344DB00D8
:103150000B440C331B78DBB2022B70D197F8232081
:103160004C4913465B001344DB000B441B68FB61B6
:1031700097F82320474913465B001344DB000B44B8
:1031800010331B68BB61444B1B78DBB2002B4ED065
:1031900097F823203F4913465B001344DB000B44A0
:1031A0000D331B78DBB2012B25D197F82330012199
:1031B0001846FFF7E5FD7B6A3B613B6983F31088A6
:1031C00097F82320334913465B001344DB000B447C
:1031D00004331A6897F823301146184600F046FA6F
:1031E0002A4B1B681B68CA225A62284B1B681B6843
:1031F00053225A6213E07B6AFB60FB6883F31088FA
:1032000097F82330184600F0A7F9204B1B681B687D
:10321000CA225A621D4B1B681B6853225A6297F8D8
:103220002330FA691946B86900F0A6FA24E0FFF7DE
:10323000C9FE7B6ABB60BB6883F310881CE000BFDB
:10324000124B1B681B68DB6803F00403002BF7D0EC
:103250000E4B1B681B68DB68DAB20C4B1B681B68E3
:1032600062F49062DA600D4B4FF40022DA607B6A00
:103270007B607B6883F31088044B1B681B68FF220C
:103280005A6200BF2837BD4680BD00BFE003002062
:1032900058030020C80200206003002000080058E6
:1032A00080B588B000AF03463960FB71644A3B6863
:1032B0001360634B1B681B68CA225A62604B1B6811
:1032C0001B6853225A625F4B9B685E4A43F020039F
:1032D00093605C4B9B68DBB203F00703DBB2C3F186
:1032E0000403DAB2584B1A70564B1B6903F4FE0301
:1032F0004FF4FE023A613A6992FAA2F2FA60FA6871
:103300007A617A69002A01D1202203E07A69B2FA4F
:1033100082F2D2B2D340DBB20133DAB24B4B1A7035
:10332000484B1B699BB2C3F30E039BB201339AB2A5
:10333000474B1A80464B1B88013B444A127802FBDC
:1033400003F3A3F5A073404A1278D340BB61BB6975
:103350004FF6FE72934204D93E4B4FF6FF721A802D
:1033600003E0BB699AB23B4B1A804FF40020FFF791
:1033700085FB4FF40020FFF76DFBFB79002B43D159
:10338000354B01221A70354B4FF0FF321A60002383
:10339000FB770CE0FA7F324913465B001344DB00F5
:1033A0000B440C3300221A70FB7F0133FB77FB7F49
:1033B000052BEFD92B4B06221A70214B1B681B687B
:1033C0009A681F4B1B681B6822F480629A601C4B32
:1033D0001B681B68DB68DAB2194B1B681B6862F458
:1033E0009062DA60204B4FF40022DA60032003F091
:1033F000C3FA134B1B681B689A68114B1B681B6848
:1034000042F480429A600AE00D4B1B681B68DB683F
:1034100003F48063002B02D0032003F09FFA084BD3
:103420001B681B68FF225A6200220621032003F05A
:103430005FFA032003F076FA00BF2037BD4680BD57
:10344000E003002000280040E4030020E503002002
:10345000E6030020E8030020600300205C03002056
:10346000C8020020580300200008005880B48BB028
:1034700000AFF860B9603B601346FB71002387F82A
:103480002630EFF31083FB61FB693B6272B604E008
:1034900097F82630013387F8263097F82630052B29
:1034A0000CD897F826202B4913465B001344DB0009
:1034B0000B440C331B78DBB2002BE9D197F8263094
:1034C000062B37D097F82620224913465B00134479
:1034D000DB000B440C3301221A703B6ABB61BB69F1
:1034E00083F3108897F826201A4913465B0013448B
:1034F000DB000B441033FA681A6097F82620154950
:1035000013465B001344DB000B440D33FA791A7049
:1035100097F826200F4913465B001344DB000B4449
:103520003A681A60BB6897F826201A70002387F85B
:10353000273007E03B6A7B617B6983F310880123B6
:1035400087F8273097F8273018462C37BD465DF8A6
:10355000047B7047C802002080B586B000AF0346E8
:10356000FB71EFF31083FB60FB687B6172B6032095
:1035700003F0E6F9374B1B681B68CA225A62354BC9
:103580001B681B6853225A62FA79334913465B0061
:103590001344DB000B440C331B78DBB2022B48D105
:1035A000FB7900211846FFF7EBFB2C4B1B78FB74D3
:1035B000FB7C062B35D12A4B9B6803F48063B3F563
:1035C000806F08D100BF234B1B681B68DB6803F0CA
:1035D0000403002BF7D11F4B1B681B689A681D4B17
:1035E0001B681B6822F480629A6000BF194B1B683D
:1035F0001B68DB6803F00403002BF7D0154B1B6836
:103600001B68DB68DAB2134B1B681B6862F49062BC
:10361000DA60144B4FF40022DA60032003F0ACF9B7
:1036200007E0114B1B78DBB2FA7C9A4201D0FFF71E
:10363000C9FC084B1B681B68FF225A62032003F079
:1036400071F97B69BB60BB6883F3108800BF1837D2
:10365000BD4680BDE0030020C802002058030020C2
:1036600000280040000800585903002080B586B0AB
:1036700000AF03463960FB71FA793B4913465B00A2
:103680001344DB000B440C331B78DBB2022B03D159
:10369000FB791846FFF760FFEFF31083FB60FB68D0
:1036A0007B6172B6032003F04BF9304B1B681B683B
:1036B000CA225A622D4B1B681B6853225A62FA7940
:1036C000294913465B001344DB000B440C330222F0
:1036D0001A70FA79244913465B001344DB000B444B
:1036E00008333A681A60FA791F4913465B0013449D
:1036F000DB000B4404333A681A60FB791846FFF785
:1037000095FA03467B821A4B1B787B74194B1B7806
:10371000DBB27A7C9A4202D0FFF754FC13E0FA79CC
:10372000114913465B001344DB000B44083319684E
:103730007B8AFA79C91A0C4813465B001344DB00F4
:10374000034408331960094B1B681B68FF225A6247
:10375000032003F0E7F87B69BB60BB6883F3108844
:1037600000BF1837BD4680BDC8020020E00300201E
:10377000580300205903002080B584B000AFF860E2
:103780000B467A60FB727B68984700BF1037BD46D6
:1037900080BD000080B487B000AFB9607B60034695
:1037A000FB731346BB810023BB750023FB7500BF71
:1037B000BB7D032B16D801A252F823F0CD370008A9
:1037C000D3370008D9370008DF3700080023FB751E
:1037D00009E00123FB7506E00223FB7503E00323E8
:1037E000FB7500E000BFFB7D18461C37BD465DF849
:1037F000047B704780B489B000AF78600023FB6120
:1038000002E0FB690133FB61FB6901331F4A52F897
:1038100023307A689A42F4DC1C4AFB6952F8233060
:10382000BB61FB690133194A52F823307B61184AA6
:10383000FB6952F823303B61FB690133144A52F8AB
:103840002330FB60FA683B69D31A7968BA698A1A2F
:1038500002FB03F307EE903AF8EEE76A7A69BB6978
:10386000D31A07EE903AB8EEE77AC6EE877AFDEE05
:10387000E77A17EE903ABB603A69BB681344184682
:103880002437BD465DF8047B704700BF087E010801
:10389000E47D010890B583B000AF786039607B6843
:1038A000002B01D178232CE03B68002B01D10023B1
:1038B00027E03B6807EE903AB8EEE77A7A683B6813
:1038C000134407EE903AF8EEE77AC7EE276A16EE51
:1038D000900AFCF711FE4FF000020C4BFCF764FE5F
:1038E00003460C4644EC173BB0EE470AF0EE670A7D
:1038F00011F070FD54EC103B18462146FDF704F919
:10390000034618460C37BD4690BD00BF00005E4020
:1039100080B58AB000AF786000237B627B68043397
:103920001A687B680C331B689A4220DD7B68083379
:103930001A687B680C331B689A4218DD7B68043375
:103940001A687B680C331B68D31A3B627B680833A8
:103950001A687B680C331B68D31AFB61F969386AF3
:10396000FFF798FF02467B6A13447B6242E07B6864
:1039700008331A687B6804331B689A4221DD7B6830
:103980000C331A687B6804331B689A4219DD7B6824
:1039900008331A687B6804331B68D31ABB617B68E1
:1039A0000C331A687B6804331B68D31A7B6179690E
:1039B000B869FFF76FFF034678337A6A13447B6276
:1039C00018E07B680C331A687B6808331B68D31ACD
:1039D0003B617B6804331A687B6808331B68D31A21
:1039E000FB60F9683869FFF755FF0346F0337A6AE0
:1039F00013447B627B6A0B4A82FB03121A44111246
:103A0000DA178A1A4FF4B47101FB02F29B1A7B6237
:103A1000786AFFF7EFFEB860BB6818462837BD46E6
:103A200080BD00BFB7600BB680B584B000AF7860D2
:103A30007868FFF76DFFF860FB68044A82FB0312A9
:103A4000DB17D31A18461037BD4680BDABAAAA2A89
:103A500080B582B000AF78607B681B680A2B02DCFF
:103A60004FF0FF3303E07868FFF7DEFF03461846A8
:103A70000837BD4680BD80B586B000AF786007F1DD
:103A80000C0308221946062000F088F800237B6109
:103A900019E07B695B00013307F11802134413F846
:103AA0000C3C1A027B695B0007F118010B4413F808
:103AB0000C3C18467B699B0079680B4402431A60F2
:103AC0007B6901337B617B69032BE2DD00BF183723
:103AD000BD4680BD80B586B004AF0123FB713B4677
:103AE00000221A601A710EE04FF0FF330293012397
:103AF0000193BB1D0093012300228821264803F077
:103B0000B3FC0346FB71FB79012BEDD0BB793C2B59
:103B100001D001233CE0642001F05BFD0E233B70EB
:103B20000123FB710EE04FF0FF3302930123019359
:103B30003B46009301230D228821174803F080FBA8
:103B40000346FB71FB79012BEDD0642001F041FDB0
:103B500000233B7009237B700023BB700623FB709E
:103B600000233B710123FB710EE04FF0FF33029302
:103B7000052301933B46009301230922882106482F
:103B800003F05EFB0346FB71FB79012BEDD00023B4
:103B900018460837BD4680BDF078002080B588B053
:103BA00004AF03463960FB711346BB714FF4967343
:103BB0007B810023FB8101237B7314E0FB7999B2A5
:103BC000BB799BB24FF0FF32029201933B680093A6
:103BD00001230A4688210D4803F046FC03467B7307
:103BE000FB890133FB817B7B012B03D1FA897B8924
:103BF0009A42E3D3FA897B899A4201D3012300E0F8
:103C0000002318461037BD4680BD00BFF078002065
:103C100080B584B000AF3B4600221A605A609A60BB
:103C2000DA603B461846FFF726FF3B461846FFF78B
:103C30000FFF034618461037BD4680BD80B483B0E1
:103C400000AF7860074BD3F880207B68DB430549E1
:103C50001340C1F8803000BF0C37BD465DF8047BCF
:103C6000704700BF0008005880B483B000AF786090
:103C7000074BD3F890207B68DB4305491340C1F81C
:103C8000903000BF0C37BD465DF8047B704700BF25
:103C90000008005880B483B000AF78604FF0B043A4
:103CA0000A4AC3F89C204FF0B043D3F89C3023F469
:103CB0007C527B681B024FF0B0411343C1F89C302B
:103CC00000BF0C37BD465DF8047B7047FECAFECAD4
:103CD00080B483B000AF78604FF0B043D3F8903039
:103CE00023F018024FF0B0417B681343C1F89030C5
:103CF00000BF0C37BD465DF8047B704780B400AF51
:103D00004FF0B043D3F890304FF0B04243F48033DB
:103D1000C2F8903000BFBD465DF8047B704780B4A8
:103D200000AF4FF0B043D3F890304FF0B04223F4DF
:103D30008033C2F8903000BFBD465DF8047B704709
:103D400080B400AF4FF0B043D3F8943003F08063F9
:103D5000B3F1806F01D1012300E000231846BD4676
:103D60005DF8047B704780B400AF4FF0B043D3F8E8
:103D7000943003F08053B3F1805F01D1012300E060
:103D800000231846BD465DF8047B704780B485B0BB
:103D900000AF78604FF0B043DA6C4FF0B0417B6811
:103DA0001343CB644FF0B043DA6C7B681340FB6085
:103DB000FB6800BF1437BD465DF8047B704780B4D4
:103DC00085B000AF78604FF0B0431A6D4FF0B0414E
:103DD0007B6813430B654FF0B0431A6D7B6813404B
:103DE000FB60FB6800BF1437BD465DF8047B70477D
:103DF00080B483B000AF786039607B685A683B68F4
:103E00001B041A437B685A6000BF0C37BD465DF83F
:103E1000047B704780B483B000AF786039607B6802
:103E20005A683B681A437B685A6000BF0C37BD462E
:103E30005DF8047B704780B483B000AF7860396070
:103E40007B685A693B681B041A437B685A6100BF50
:103E50000C37BD465DF8047B704780B483B000AF7B
:103E6000786039607B685A693B681A437B685A619D
:103E700000BF0C37BD465DF8047B704780B483B04B
:103E800000AF786039607B683A689A6000BF0C3791
:103E9000BD465DF8047B704780B483B000AF7860A6
:103EA00039607B683A689A6100BF0C37BD465DF89F
:103EB000047B704780B400AF054B1B69044A23F0B4
:103EC0000403136100BFBD465DF8047B704700BF6B
:103ED00000ED00E080B500AF4B4B4FF400421A619B
:103EE00002F08CFB01F027FB01F011FB00F0DCF885
:103EF00001F006FB01F061FB00F0EAFA00F054F972
:103F000000F0F8F900F090F900F096F900F030FABE
:103F100000F040FB0AF0B8FA3C480AF0E9FC02461F
:103F20003B4B1A603B480AF0E3FC02463A4B1A60EE
:103F30003A480AF0DDFC0246394B1A6039480AF06B
:103F4000D7FC0246384B1A6038480AF0D1FC0246CA
:103F5000374B1A6037480AF0CBFC0246364B1A60E2
:103F600036480AF0C5FC0246354B1A60354A042132
:103F700010200AF061FF0246334B1A60334A0421D5
:103F800010200AF059FF0246314B1A60314A0021D5
:103F900031480AF0E3FA0246304B1A60304A0021F9
:103FA00030480AF0DBFA02462F4B1A602F4A0021F4
:103FB0002F480AF0D3FA02462E4B1A602E4A0021EF
:103FC0002E480AF0CBFA02462D4B1A602D4A0021EA
:103FD0002D480AF0C3FA02462C4B1A602C4A0021E5
:103FE0002C480AF0BBFA02462B4B1A602B4A0021E0
:103FF0002B480AF0B3FA02462A4B1A60FDF79CFFE1
:104000000AF076FAFEE700BF004000588C7F0108F6
:10401000C07700209C7F0108EC780020AC7F01086D
:104020001C7A0020BC7F010848790020CC7F010861
:104030003C790020DC7F01084C790020EC7F0108EE
:10404000407900205C7F0108AC790020747F010872
:1040500090770020607E0108DD460008B0790020DE
:10406000847E0108994D0008B4790020A87E0108DB
:1040700049500008E4780020CC7E010899510008DE
:10408000E8780020F07E0108815200085C79002069
:10409000147F0108CD53000844790020387F0108BF
:1040A000FD5300085879002080B5AEB000AF07F18D
:1040B00070034822002118460EF031FC07F154032A
:1040C00000221A605A609A60DA601A615A619A6135
:1040D0003B1D5022002118460EF021FC03F0FEFD8E
:1040E0000020FFF7F5FD2F4B1B6823F4C0632D4A1A
:1040F00043F4007313602B4B1B6803F4C0633B60F5
:104100003B6807233B674FF480337B670123BB6722
:104110004FF48073FB674023C7F880300023C7F853
:104120009C3007F17003184604F078F90346002B21
:1041300001D001F085FA6F237B650223BB65002364
:10414000FB6500233B6600237B660023BB660023E0
:10415000FB6607F154030121184604F0EBFC03460B
:10416000002B01D001F06CFA43F603037B600023BF
:10417000FB6100233B624FF480737B644FF4804308
:10418000BB640223FB6410233B653B1D184605F00E
:104190002CF90346002B01D001F052FA00BFB837CA
:1041A000BD4680BD0004005880B500AF1B4B1C4AC3
:1041B0001A601A4B1B4A5A60184B00229A60174B20
:1041C0000122DA60154B00221A61144B00225A6159
:1041D000124B00229A61114B0022DA610F4B002230
:1041E0001A620E4802F0B2FD0346002B01D001F026
:1041F00027FA0021094803F0D9FC0346002B01D01F
:1042000001F01EFA0021054803F01BFD0346002BB8
:1042100001D001F015FA00BF80BD00BFF07800208A
:1042200000540040380F300080B400AF00BFBD46DE
:104230005DF8047B7047000080B586B000AF2B4B63
:104240002B4A1A60294B00225A60284B7F229A6021
:10425000264BFF22DA60254B00221A61234B0022F5
:104260009A61224B0022DA61204B00225A611F48DA
:1042700005F041FB0346002B01D001F0E1F93B1DA5
:1042800000221A605A609A60DA601A6100233B606B
:1042900011233B7159237B712923BB710023BB6020
:1042A00000233B6100237B613B1D012219460F481F
:1042B00005F0BFFB0346002B01D001F0C1F902233A
:1042C0003B7003237B702923BB702023FB703B468C
:1042D00001221946054805F0CCFC0346002B01D00D
:1042E00001F0AEF900BF1837BD4680BD9C770020B5
:1042F0000028004080B500AF1B4B1C4A1A601A4BC7
:104300004FF482725A60184B4FF400429A60164B79
:104310004FF4E062DA60144B00221A61124B002263
:104320005A61114B4FF400729A610F4B0022DA610F
:104330000D4B00221A620C4B00225A620A4B0022DB
:104340009A62094B0722DA62074B00221A63064B76
:1043500008225A63044805F049FE0346002B01D0A9
:1043600001F06EF900BF80BDB87900200030014037
:1043700080B59CB000AF07F1600300221A605A605C
:104380009A60DA6007F1540300221A605A609A605A
:1043900007F1380300221A605A609A60DA601A61E5
:1043A0005A619A613B1D3422002118460EF0B7FA7B
:1043B000454B464A1A60444B00225A60424B002249
:1043C0009A60414B6422DA603F4B00221A613E4BF7
:1043D00000225A613C4B00229A613B4806F074F976
:1043E0000346002B01D001F02BF94FF480533B66BC
:1043F00007F160031946344806F000FE0346002B1F
:1044000001D001F01DF9304806F004FA0346002BF4
:1044100001D001F015F900237B650023BB65002363
:10442000FB6507F154031946274807F06DFA034668
:10443000002B01D001F004F96023BB636423FB630C
:1044400000233B6400237B640423BB640023FB64E0
:1044500000233B6507F13803002219461A4806F08D
:10446000BDFC0346002B01D001F0EAF800237B607D
:104470000023BB600023FB6000233B6100237B61C2
:104480004FF40053BB610023FB6100233B62002318
:104490007B624FF00073BB620023FB6200233B632F
:1044A00000237B633B1D1946074807F08DFA03463E
:1044B000002B01D001F0C4F8034801F03BFB00BF22
:1044C0007037BD4680BD00BF60790020002C0140E0
:1044D00080B586B000AF3B1D00221A605A609A601A
:1044E000DA601A610420FFF751FC0220FFF74EFC4E
:1044F0000120FFF74BFC00220121244802F0D2FBEF
:1045000001237B600123BB600023FB6000233B6130
:104510003B1D19461D4802F03DFA38237B601C4BB9
:10452000BB600123FB603B1D1946184802F032FABC
:1045300010237B600123BB600123FB603B1D1946F8
:104540004FF0904002F026FA012210214FF09040E7
:1045500002F0A8FB00220F21092002F0C9F909206E
:1045600002F0E0F900220F210A2002F0C1F90A202E
:1045700002F0D8F900220F21172002F0B9F9172014
:1045800002F0D0F900BF1837BD4680BD00040048D6
:1045900000003110B0B58AB000AF394B10221A704C
:1045A000374B22225A70364B0F229A70344B5A22C4
:1045B000DA7007F1140301221946324805F0FDFABA
:1045C00007F11003012219462E4805F000FC2C4B80
:1045D0001C1D07F114050FCD0FC42B682360284A5A
:1045E0003B699361264B03F11C0407F114050FCDC1
:1045F0000FC42B682360224A3B691363204B4FF0A2
:1046000000025A631E4B4FF000029A631C4B4FF09E
:104610000002DA631A4B4FF000021A64184B0022B2
:1046200083F84420164B002283F84820164A3B1D8D
:1046300007CA03C31A803B1D1846FBF7A1FD0246BB
:104640003B1D194611480EF06BFE3B1D1846FBF74B
:1046500097FD0346DAB20A4B83F8C9201C220021D9
:104660000B480EF05CF9064B002283F8E820044B5F
:10467000002283F8EC2000BF2837BD46B0BD00BF44
:10468000C47700209C770020D46D01080D780020AD
:104690009078002080B586B002AF0346FB800023EF
:1046A000FB600C4B1868F98807F10C03009300239A
:1046B00003220DF027FCFB68002B07D0064B4FF0C0
:1046C00080521A60BFF34F8FBFF36F8F00BF103758
:1046D000BD4680BDE478002004ED00E0B0B5ECB04C
:1046E00002AF3B1D186001220121AD4802F0DAFA49
:1046F000FDF7C0FE07F138031846FDF723FF07F169
:1047000038030193012300930C23A64A0A210020B9
:10471000FEF7A2F807F138030193012300930C235D
:10472000A14A1C210020FEF797F807F1380318462C
:10473000FEF7D3F840F6B8300AF0ACF807F13803CA
:104740001846FDF7FFFE07F138031846FEF7C5F8D7
:104750004FF6FF73A7F8A2314FF6FF73A7F8A63103
:10476000002387F8A531FFF7B5F90346012B0CD1DB
:104770008E4A8F4B144607CB20606160A2601B7885
:1047800023738C4B062283F84420FFF741FA03463B
:10479000A7F8A231B7F9A231B3F1FF3F00F08A8048
:1047A00097F8A531002B52D1012387F8A53107F1E5
:1047B00038031846FDF7C6FE7E4B93F84430032BB2
:1047C00045D801A252F823F01748000837480008DE
:1047D000D9470008FF470008774B186800230222DA
:1047E00000210DF0D9FA07F138030193012300935A
:1047F0000C23724A00210020FEF72EF827E007F173
:1048000038030193012300930C236D4A00210020FB
:10481000FEF722F81BE06B4B1B684FF0FF31184688
:104820000AF000F9634B012283F84420654B1B68B2
:1048300018460AF055F907F1380301930123009354
:104840000C235E4A00210020FEF706F800BFB7F9EE
:10485000A621B7F9A2319A4228D0B7F8A231A7F819
:10486000A63107F138031846FDF785FEB7F9A631E2
:104870001E2B0BDD07F138030193012300930C235A
:10488000514A1C210020FDF7E7FF0AE007F1380339
:104890000193012300930C234C4A1C210020FDF7B7
:1048A000DBFF07F138031846FEF717F8192009F067
:1048B000F1FF6AE797F8A531002B57D097F8A5319B
:1048C000013387F8A53197F8A531052B4AD9002384
:1048D00087F8A531374B93F84430022B04D0354B81
:1048E00093F84430032B06D1334B1868002302227F
:1048F00000210DF051FAB7F9A62107F10803344958
:1049000018460EF0EDFC07F138031846FDF71AFEC5
:1049100007F1080207F138030193012300930C23E8
:104920001C210020FDF798FF07F138031846FDF71A
:10493000D4FF204B93F84430012B0FD1214B1B683F
:104940004FF0FF3118460AF06DF81A4B002283F839
:1049500044201C4B1B6818460AF0C2F84FF6FF7340
:10496000A7F8A631192009F095FF0EE7114B93F82F
:104970004430072B00F2098201A252F823F000BF55
:10498000834D00088B4D0008E74C0008514D00088E
:10499000D5490008234B0008714C00089D4C0008C5
:1049A00000040048D46D0108FC6D0108B8780020AF
:1049B0000C6E0108C4770020B47900201C6E010839
:1049C0000D7800204C790020286E0108306E010817
:1049D000386E010807F138031846FDF7B3FD07F1FB
:1049E00038030193012300930C23CB4A00210020BC
:1049F000FDF732FF07F138030193012300930C23E5
:104A0000C64A14210020FDF727FF07F13803184696
:104A1000FDF763FF4FF47A7009F03CFFC04B1B6851
:104A20004FF0FF31184609F0FDFF07F11C0301228A
:104A30001946BC4805F0C1F807F1180301221946D0
:104A4000B84805F0C4F9B64B1B6818460AF048F898
:104A500007F11C031B78184605F076FA034687F821
:104A6000A13107F11C035B78184605F06DFA034687
:104A700087F8A03197F8A12197F8A03107F130000D
:104A8000A9490EF02DFC07F130031846FDF75DFF34
:104A9000A64B1B684FF0FF31184609F0C3FFA44B2B
:104AA00007F11C021C1D15460FCD0FC42B68236097
:104AB0009F4A07F118031B6893619C4B1B681846BB
:104AC0000AF00EF807F1140304221A7007F1140318
:104AD00000225A80974B186807F114010023002226
:104AE0000AF030FA944B1B684FF0FF31184609F07A
:104AF00099FF8F4B002283F844208F4B1B68184688
:104B000009F0EEFF40F6B83009F0C4FE07F13803B3
:104B10001846FDF717FD07F138031846FDF7DDFECF
:104B200037E107F138031846FDF70CFD07F13803AC
:104B30000193012300930C23804A00210020FDF7FC
:104B40008BFE07F138030193012300930C23734A72
:104B500014210020FDF780FE07F138031846FDF709
:104B6000BCFE4FF47A7009F095FE6D4B1B684FF058
:104B7000FF31184609F056FF07F11C0301221946C0
:104B8000684805F01AF807F118030122194665482C
:104B900005F01DF9624B1B68184609F0A1FF07F1EB
:104BA0001C031B78184605F0CFF9034687F8A1319E
:104BB00007F11C035B78184605F0C6F9034687F831
:104BC000A03197F8A12197F8A03107F1300056499C
:104BD0000EF086FB07F130031846FDF7B6FE534B87
:104BE0001B684FF0FF31184609F01CFF504B07F1CE
:104BF0001C021C1D15460FCD0FC42B6823604C4AA8
:104C000007F118031B689361484B1B68184609F0AD
:104C100067FF07F1140304221A7007F1140300223E
:104C20005A80444B186807F11401002300220AF04F
:104C300089F9414B1B684FF0FF31184609F0F2FE2D
:104C40003B4B002283F844203B4B1B68184609F07D
:104C500047FF40F6B83009F01DFE07F1380318464B
:104C6000FDF770FC07F138031846FDF736FE90E0BB
:104C700007F138031846FDF765FC07F13803019387
:104C8000012300930C232E4A0C210020FDF7E4FDA4
:104C900007F138031846FDF720FEFEE707F1380359
:104CA0001846FDF74FFC07F13803019301230093E9
:104CB0000C23244A0A210020FDF7CEFD07F138031A
:104CC0000193012300930C231F4A1C210020FDF7B0
:104CD000C3FD07F138031846FDF7FFFD4FF4FA70E6
:104CE00009F0D8FD55E007F138031846FDF72AFC16
:104CF00007F138030193012300930C23134A002189
:104D00000020FDF7A9FD07F138031846FDF7E5FD82
:104D1000642009F0BFFD3CE0446E0108506E0108BC
:104D2000C07700209C770020E06D01081C7A0020ED
:104D3000C4770020AC7900204C790020606E010817
:104D4000B87800206C6E0108786E01081C6E0108AE
:104D500007F138031846FDF7F5FB07F13803019317
:104D6000012300930C230B4A00210020FDF774FD62
:104D700007F138031846FDF7B0FD642009F08AFDFD
:104D800007E0FA2009F086FD03E0142009F082FD17
:104D900000BFFAE40D780020B0B586B000AF7860AF
:104DA00002233B730023FB8106233B7200237B819C
:104DB00042F2107009F06EFD994B93F84430002BCD
:104DC000F6D1984B186807F10C01002300220AF075
:104DD000B9F8954B1B684FF0FF31184609F022FED9
:104DE0008F4B022283F844208F4B1B68184609F032
:104DF00077FE00200DF05EF90123FB740123BB74E4
:104E00001AE08A4B18680023022200210CF0C4FF2C
:104E100041F2707101200CF01DFF78617B69002B5D
:104E200001D00023BB747E4B93F84430022B03D097
:104E30000023BB740023FB74BB7C002BE1D1FB7C03
:104E4000002B0CD04FF47A6101200CF003FF786145
:104E5000734B93F84430022B01D00023FB74FB7C8E
:104E6000002B4DD07B69002B38D0714B1B684FF065
:104E7000FF31184609F0D6FD6E4A6F4B03CB106028
:104E800051601B781372664B082283F8C920644B6B
:104E9000012283F84820624B684A03F1CC0415468E
:104EA0000FCD0FC42B6823605D4B052283F8E820EB
:104EB0005F4B1B68184609F013FE5B4B1B684FF0F5
:104EC000FF31184609F0AEFD554B032283F844200C
:104ED000554B1B68184609F003FE11E00023FB74D4
:104EE000514B1B684FF0FF31184609F09BFD4C4BAE
:104EF000072283F844204C4B1B68184609F0F0FD4C
:104F0000FB7C002B0CD04FF47A6101200CF0A2FE48
:104F10007861434B93F84430032B01D00023FB749A
:104F2000FB7C002B41D07B69002B2CD0404B1B68B5
:104F30004FF0FF31184609F075FD3E4A404B03CB58
:104F40001060516019889B7811819372344B0A224A
:104F500083F8C920324B052283F84820304B394A68
:104F600003F1CC0415460FCD0FC495E80F0084E87B
:104F70000F002B4B022283F8E8202D4B1B681846AC
:104F800009F0AEFD11E00023FB74274B1B684FF0C6
:104F9000FF31184609F046FD214B072283F84420D3
:104FA000214B1B68184609F09BFDFB7C002B0CD0A5
:104FB0004FF47A6101200CF04DFE7861184B93F8A4
:104FC0004430032B01D00023FB74FB7C002B3FF407
:104FD000EFAE7B69002B10D0134B1B684FF0FF31F5
:104FE000184609F01FFD0E4B052283F844200E4B96
:104FF0001B68184609F074FDDAE60023FB740A4BBF
:105000001B684FF0FF31184609F00CFD044B0722D6
:1050100083F84420044B1B68184609F061FDC7E67D
:10502000C4770020AC7900204C790020E87800207B
:10503000407900200D780020846E01082C7E010844
:10504000906E0108407E010880B586B000AF7860A0
:105050004C4A07F114031268114619800233120CEE
:105060001A7000233B6106233B730023FB8107F189
:1050700010024FF0FF33002100200CF033FE3B699B
:105080009BB21946404801F0F5FD0346FB753220FE
:1050900009F000FC3B699BB219463B4801F0EAFD70
:1050A00003461A46FB7D9342E1D13B69082B20D190
:1050B0003B7DFA7D9A421CD0FB7D3B75FB7D002B2E
:1050C00017D1324B186807F10C010023002209F0B8
:1050D00039FF2F4B1B684FF0FF31184609F0A2FC37
:1050E0002C4B042283F84420294B1B68184609F0F6
:1050F000F7FC3B69102B20D17B7DFA7D9A421CD0B6
:10510000FB7D7B75FB7D002B17D1204B186807F1C9
:105110000C010023002209F015FF1D4B1B684FF006
:10512000FF31184609F07EFC1A4B042283F8442014
:10513000174B1B68184609F0D3FC3B69202B96D10E
:10514000BB7DFA7D9A4292D0FB7DBB75FB7D002B27
:105150008DD10E4B186807F10C010023002209F0D5
:10516000F1FE0B4B1B684FF0FF31184609F05AFC5B
:10517000084B042283F84420054B1B68184609F0AD
:10518000AFFC74E79C6E010800040048AC79002075
:105190004C790020C477002080B588B000AF7860DB
:1051A0004F23BB61344B1B68BA699A63334BFB6076
:1051B0000C233B820623BB7407F10C031846FCF753
:1051C000ADFFFDF797F8FCF7F9FF3323FB750020DF
:1051D000FDF720F94FF47A7009F05CFB0023FB83A4
:1051E00000237B7700233B774FF0FF3101200CF049
:1051F00031FD0021204805F06FFB0C2200216FF0EB
:105200007F40FDF7D1F81DE03B7F1846FDF702F91E
:10521000FCF7D4FF7B7F002B03D03B7F013B3B7728
:1052200002E03B7F01333B773A7FFB7D9A4201D11D
:1052300001237B773B7F002B01D100237B7702206A
:1052400009F028FBFB8B5A1CFA831A46FB7D5B0096
:105250009A42D9DB0020FDF7DDF80C220021002066
:10526000FDF7A2F8FCF7AAFF642009F013FB002168
:10527000014805F00BFCB1E760790020B879002007
:10528000F0B599B010AF78604FF4FA7009F002FBF6
:10529000464E00230F936D4606F110040FCC0FC548
:1052A0000FCC0FC50FCC0FC594E8070085E80700A9
:1052B00096E80F0000F01EFE0346012B0CD13C4A7D
:1052C0003C4B144607CB20606160A2601B782373BF
:1052D000394B062283F844200A2009F0DBFA002229
:1052E0000021324800F022FA0346012B0CD1304A4B
:1052F000324B144607CB20606160A2601B78237399
:105300002D4B062283F844200A2009F0C3FA00211D
:10531000264800F028FA0346012B0CD1244A284BDA
:10532000144607CB20606160A2601B782373224B78
:10533000062283F8442001233B730023FB8100F005
:1053400017FF87ED070A00F0FBFF87ED060A1748F5
:1053500000F080FA87ED050A144800F01DFA87ED89
:10536000040A184B1B684FF0FF31184609F05AFB2E
:10537000114AFB695363104ABB6993630E4A7B6908
:10538000D3630D4A3B6913640E4B1B68184609F042
:10539000A7FB0D4B186807F10C010023002209F050
:1053A000D1FD42F2AC6009F075FAC8E7F078002050
:1053B000B8780020A06E0108C4770020B06E010804
:1053C000C06E01083C790020AC79002080B584B023
:1053D00000AF7860084B186807F10C014FF0FF33FD
:1053E000002209F023FE0346002BF3D1FB89184667
:1053F000FCF738F9EEE700BFAC79002080B58EB03D
:1054000000AF7860394B186807F12C014FF0FF337B
:10541000002209F00BFE0346002BF3D1FB6A1B7838
:10542000002BEFD1FB6A01330822194630480DF0FA
:105430006BFAFB6A5A7A2F4B1A74FB6A9A7A2D4BD5
:105440005A7407F1180300221A605A609A60DA60F1
:105450001A6100237B61274A07F10C03083292E8A6
:10546000030083E803003B7B87F837303B7C3B76C7
:105470007B7C7B76BB7CBB760023FB6100237B625D
:105480001C4B5B7C002B02D04FF480337B620023EB
:10549000BB623B7B3B757B7B7B75BB7BBB75FB7BC7
:1054A000FB75154B1B684FF0FF31184609F0BAFA2F
:1054B00007F1180301221946104804F0BAFA03460E
:1054C000002B01D000F0BCF807F1140301221946AB
:1054D0000A4804F0CEFB0346002B01D000F0B0F8E0
:1054E000054B1B68184609F0FBFA8BE79077002004
:1054F000B8020020B0020020C07700209C77002076
:1055000080B400AF00BFBD465DF8047B704780B536
:1055100082B000AF002008F0D1FA78607B68002BE1
:1055200005D07B689B791846FEF7B4FB00BF00BF2F
:105530000837BD4680BD80B500AF00F027F800F009
:1055400003F800BF80BD000080B500AF4FF48010AD
:10555000FEF735FC3F210C48FEF790FC3F210A483E
:10556000FEF79AFC3F210848FEF742FC3F2106481F
:10557000FEF761FC3F210448FEF74CFC3F21024846
:10558000FEF76BFC00BF80BD000C005880B500AF7B
:10559000FEF7D6FB0346002B0DD0FEF7E4FB0346D7
:1055A000002B08D102F09AFB02F098FBFEF7A6FB55
:1055B000FEF7B5FB00BF00BF80BD80B500AF4FF068
:1055C000FF30FEF73BFB6FF05000FEF74DFB00BFD6
:1055D00080BD80B584B000AF786001F043F8B8605A
:1055E0007B68FB60FB68B3F1FF3F0AD001F052F823
:1055F00003461A46FB681344FB6002E0FEF75AFCC0
:1056000030BF01F02FF80246BB68D31AFA689A42FD
:10561000F4D800BF1037BD4680BD000080B582B011
:1056200000AF78607B681B68044A934201D101F0A7
:1056300005F800BF0837BD4680BD00BF00480140E7
:1056400080B400AF00BFBD465DF8047B704700002A
:1056500090B589B002AF786007F108026423009327
:1056600002238121786801F0F5FC03467B617B69A8
:10567000002B01D02A4B3FE03B7A1B021AB27B7A07
:105680001BB213437B82B7F912301846FAF722FF98
:105690001DA3D3E90023FAF787FF03460C461846FB
:1056A00021461BA3D3E90023FBF7A8F803460C46C9
:1056B0001846214618A3D3E90023FAF7BDFD034697
:1056C0000C4618462146FBF747FA0346FB60D7ED28
:1056D000037A9FED147AF4EEC77AF1EE10FA08DC43
:1056E000D7ED037A9FED107AF4EEC77AF1EE10FA57
:1056F00001D50B4B00E0FB6807EE903AB0EE670A6D
:105700001C37BD4690BD00BFD7A3703D0AF765406A
:1057100000000000E0FFEF40CDCCCCCCCC6C47408B
:1057200000FF7F470000FA42000020C280B586B02B
:1057300002AF78600B46FB701346BB70E6233B73E9
:10574000FA78BB781343DBB27B7307F10C02642356
:10575000009302238021786801F088FB03461846F5
:105760001037BD4680BD80B586B002AF78600B466D
:10577000FB7051233B73FB787B7307F10C026423AE
:10578000009302238021786801F070FB03461846DD
:105790001037BD4680BD000090B587B002AF78607D
:1057A000F5233B7207F10802642300930123802153
:1057B000786801F05BFB0346FB60FB68002B01D0BF
:1057C000204B37E01E20FFF704FF07F10802642397
:1057D000009302238121786801F03CFC0346FB60C2
:1057E000FB68002B01D0174B24E03B7A1B027A7A2E
:1057F00013431846FAF76EFE4FF00002124BFAF709
:10580000D3FE03460C46184621464FF000020F4BCC
:10581000FAF7F4FF03460C46184621464FF0000203
:105820000B4BFAF709FD03460C4618462146FBF7D9
:1058300093F9034607EE903AB0EE670A1437BD4677
:1058400090BD00BF00FF7F4700405F400000F04078
:105850000000184080B586B002AF7860F3233B7239
:1058600007F108026423009301238021786801F086
:10587000FDFA0346FB60FB68002B02D0DFED077AE0
:1058800007E01E20FFF7A5FE7868FFF7E1FEF0EEC7
:10589000407AB0EE670A1037BD4680BD00FF7F47F3
:1058A00080B483B000AF78604FF0B043D3F890304D
:1058B00023F440724FF0B0417B681343C1F890303D
:1058C00000BF0C37BD465DF8047B704780B400AF65
:1058D0004FF0B043D3F890304FF0B04243F4004360
:1058E000C2F8903000BFBD465DF8047B704780B4BD
:1058F00085B000AF78604FF0B043DA6C4FF0B04144
:105900007B681343CB644FF0B043DA6C7B68134081
:10591000FB60FB6800BF1437BD465DF8047B704731
:1059200080B485B000AF78604FF0B0431A6D4FF08F
:10593000B0417B6813430B654FF0B0431A6D7B6831
:105940001340FB60FB6800BF1437BD465DF8047B65
:10595000704780B485B000AF78604FF0B0439A6D67
:105960004FF0B0417B6813438B654FF0B0439A6DA5
:105970007B681340FB60FB6800BF1437BD465DF8D1
:10598000047B704780B485B000AF78604FF0B043BF
:105990001A6E4FF0B0417B6813430B664FF0B04373
:1059A0001A6E7B681340FB60FB6800BF1437BD466E
:1059B0005DF8047B704780B500AF4FF40020FFF71F
:1059C000AFFF00220F216FF0010000F091FF0022D5
:1059D00005212E2000F08CFF2E2000F0A3FF0022D6
:1059E00006212C2000F084FF002206212D2000F04B
:1059F0007FFF00BF80BD000080B582B000AF78603F
:105A00007B681B680B4A934210D102F067F902F0E1
:105A100065F94FF48070FFF743FFFFF757FF4FF42E
:105A20008060FFF796FF786804F0AAFA00BF083795
:105A3000BD4680BD0028004080B588B000AF7860CA
:105A400007F10C0300221A605A609A60DA601A614A
:105A50007B681B680F4A934217D10220FFF747FF6C
:105A60004FF44073FB6012233B6101237B610023F1
:105A7000BB610423FB6107F10C031946064800F0E3
:105A800089FF4FF40010FFF764FF00BF2037BD46C9
:105A900080BD00BF005400400004004880B588B0BD
:105AA00000AF786007F10C0300221A605A609A6018
:105AB000DA601A617B681B680F4A934217D14FF472
:105AC0008050FFF75FFF0120FFF711FF8223FB608B
:105AD00002233B6100237B610023BB610523FB6143
