:020000040800F2
:1000000000000320151B0008C9710008D771000803
:10001000DD710008E3710008E971000800000000CC
:10002000000000000000000000000000B10701080F
:10003000EF71000800000000F1090108590A0108E9
:10004000691B0008691B0008691B00085D72000835
:10005000691B0008691B0008691B0008691B000870
:10006000691B00081D7200082B720008691B00083C
:10007000691B0008691B0008691B0008691B000850
:10008000691B0008691B0008691B0008691B000840
:10009000691B0008691B0008691B00083972000809
:1000A000691B000849720008FD710008691B0008FF
:1000B000691B0008691B0008691B0008691B000810
:1000C000691B0008691B0008691B0008691B000800
:1000D000691B0008691B0008691B0008691B0008F0
:1000E000691B0008691B0008691B0008691B0008E0
:1000F000757200086972000811720008691B000817
:10010000691B0008691B0008691B0008691B0008BF
:10011000691B0008691B0008691B0008691B0008AF
:10012000691B0008691B0008691B0008691B00089F
:0C013000691B0008691B0008691B00081F
:1001400010B5054C237833B9044B13B10448AFF311
:1001500000800123237010BD700300200000000008
:10016000347B010808B5034B1BB103490348AFF3C7
:10017000008008BD0000000074030020347B0108EB
:10018000034613F8012B002AFBD1181A01387047D7
:1001900001F0FF01102A2BDB10F0070F08D010F838
:1001A000013B013A8B422DD010F0070F42B3F6D13C
:1001B000F0B441EA012141EA014122F007047FF055
:1001C00000070023F0E80256083C85EA010586EAAC
:1001D000010685FA47F5A3FA87F586FA47F6A5FAE8
:1001E00087F68EB9EED1F0BC01F0FF0102F00702F4
:1001F00032B110F8013B013A83EA010313B1F8D19F
:100200000020704701387047002D06BF354603387F
:10021000073815F0010F07D1013015F4807F02BFB8
:10022000013015F4C03F0130F0BC0138704700BF09
:1002300081F0004102E000BF83F0004330B54FEA97
:1002400041044FEA430594EA050F08BF90EA020F04
:100250001FBF54EA000C55EA020C7FEA645C7FEA97
:10026000655C00F0E2804FEA5454D4EB5555B8BFBA
:100270006D420CDD2C4480EA020281EA030382EA2B
:10028000000083EA010180EA020281EA0303362DBD
:1002900088BF30BD11F0004F4FEA01314FF4801C90
:1002A0004CEA113102D0404261EB410113F0004FA2
:1002B0004FEA03334CEA133302D0524263EB430359
:1002C00094EA050F00F0A780A4F10104D5F1200EF7
:1002D0000DDB02FA0EFC22FA05F2801841F1000152
:1002E00003FA0EF2801843FA05F359410EE0A5F126
:1002F00020050EF1200E012A03FA0EFC28BF4CF057
:10030000020C43FA05F3C01851EBE37101F000450C
:1003100007D54FF0000EDCF1000C7EEB00006EEB19
:100320000101B1F5801F1BD3B1F5001F0CD34908A3
:100330005FEA30004FEA3C0C04F101044FEA4452FA
:1003400012F5800F80F09A80BCF1004F08BF5FEA81
:10035000500C50F1000041EB045141EA050130BD61
:100360005FEA4C0C404141EB010111F4801FA4F104
:100370000104E9D191F0000F04BF01460020B1FA59
:1003800081F308BF2033A3F10B03B3F120020CDA91
:100390000C3208DD02F1140CC2F10C0201FA0CF06F
:1003A00021FA02F10CE002F11402D8BFC2F1200CD4
:1003B00001FA02F120FA0CFCDCBF41EA0C0190408A
:1003C000E41AA2BF01EB0451294330BD6FEA0404D3
:1003D0001F3C1CDA0C340EDC04F11404C4F12002BE
:1003E00020FA04F001FA02F340EA030021FA04F3D0
:1003F00045EA030130BDC4F10C04C4F1200220FA27
:1004000002F001FA04F340EA0300294630BD21FA64
:1004100004F0294630BD94F0000F83F4801306BF2A
:1004200081F480110134013D4EE77FEA645C18BF1E
:100430007FEA655C29D094EA050F08BF90EA020FB5
:1004400005D054EA000C04BF1946104630BD91EAAD
:10045000030F1EBF0021002030BD5FEA545C05D1B0
:100460004000494128BF41F0004130BD14F58004EF
:100470003CBF01F5801130BD01F0004545F0FE4163
:1004800041F470014FF0000030BD7FEA645C1ABF98
:10049000194610467FEA655C1CBF0B46024650EACF
:1004A000013406BF52EA033591EA030F41F40021FB
:1004B00030BD00BF90F0000F04BF0021704730B581
:1004C0004FF4806404F132044FF000054FF0000156
:1004D00050E700BF90F0000F04BF0021704730B517
:1004E0004FF4806404F1320410F0004548BF4042EC
:1004F0004FF000013EE700BF42004FEAE2014FEA41
:1005000031014FEA02701FBF12F07F4393F07F4F1B
:1005100081F06051704732F07F4208BF704793F01E
:100520007F4F04BF41F40021704730B54FF4607431
:1005300001F0004521F000411CE700BF50EA010234
:1005400008BF704730B54FF000050AE050EA0102DD
:1005500008BF704730B511F0004502D5404261EB4D
:1005600041014FF4806404F132045FEA915C3FF48E
:10057000D8AE4FF003025FEADC0C18BF03325FEA2B
:10058000DC0C18BF033202EBDC02C2F1200300FADC
:1005900003FC20FA02F001FA03FE40EA0E0021FA01
:1005A00002F11444BDE600BF70B54FF0FF0C4CF4EF
:1005B000E06C1CEA11541DBF1CEA135594EA0C0FA1
:1005C00095EA0C0F00F0DEF82C4481EA030621EADC
:1005D0004C5123EA4C5350EA013518BF52EA033517
:1005E00041F4801143F4801338D0A0FB02CE4FF0C9
:1005F0000005E1FB02E506F00042E0FB03E54FF0F9
:100600000006E1FB03569CF0000F18BF4EF0010EF0
:10061000A4F1FF04B6F5007F64F5407404D25FEAEC
:100620004E0E6D4146EB060642EAC62141EA55519F
:100630004FEAC52040EA5E504FEACE2EB4F1FD0CE1
:1006400088BFBCF5E06F1ED8BEF1004F08BF5FEA5F
:10065000500E50F1000041EB045170BD06F0004611
:1006600046EA010140EA020081EA0301B4EB5C04BE
:10067000C2BFD4EB0C0541EA045170BD41F48011B6
:100680004FF0000E013C00F3AB8014F1360FDEBFDB
:10069000002001F0004170BDC4F10004203C35DAB7
:1006A0000C341BDC04F11404C4F1200500FA05F33A
:1006B00020FA04F001FA05F240EA020001F00042DB
:1006C00021F0004110EBD37021FA04F642EB060151
:1006D0005EEA430E08BF20EAD37070BDC4F10C047B
:1006E000C4F1200500FA04F320FA05F001FA04F23F
:1006F00040EA020001F0004110EBD37041F100012B
:100700005EEA430E08BF20EAD37070BDC4F1200535
:1007100000FA05F24EEA020E20FA04F301FA05F29D
:1007200043EA020321FA04F001F0004121FA04F245
:1007300020EA020000EBD3705EEA430E08BF20EA15
:10074000D37070BD94F0000F0FD101F0004640004F
:1007500041EB010111F4801F08BF013CF7D041EAD1
:10076000060195F0000F18BF704703F000465200D5
:1007700043EB030313F4801F08BF013DF7D043EAA6
:100780000603704794EA0C0F0CEA135518BF95EA5C
:100790000C0F0CD050EA410618BF52EA4306D1D1E3
:1007A00081EA030101F000414FF0000070BD50EA02
:1007B000410606BF1046194652EA430619D094EA8C
:1007C0000C0F02D150EA013613D195EA0C0F05D176
:1007D00052EA03361CBF104619460AD181EA0301CA
:1007E00001F0004141F0FE4141F470014FF0000082
:1007F00070BD41F0FE4141F4780170BD70B54FF01D
:10080000FF0C4CF4E06C1CEA11541DBF1CEA13559C
:1008100094EA0C0F95EA0C0F00F0A7F8A4EB05047E
:1008200081EA030E52EA03354FEA013100F0888075
:100830004FEA03334FF0805545EA131343EA12633E
:100840004FEA022245EA111545EA10654FEA0026F3
:100850000EF000419D4208BF964244F1FD0404F5AC
:10086000407402D25B084FEA3202B61A65EB030508
:100870005B084FEA32024FF480104FF4002CB6EBC5
:10088000020E75EB030E22BFB61A754640EA0C0045
:100890005B084FEA3202B6EB020E75EB030E22BF85
:1008A000B61A754640EA5C005B084FEA3202B6EBC6
:1008B000020E75EB030E22BFB61A754640EA9C0085
:1008C0005B084FEA3202B6EB020E75EB030E22BF55
:1008D000B61A754640EADC0055EA060E18D04FEA13
:1008E000051545EA16754FEA06164FEAC30343EAB3
:1008F00052734FEAC2025FEA1C1CC0D111F4801F80
:100900000BD141EA00014FF000004FF0004CB6E778
:1009100011F4801F04BF01430020B4F1FD0C88BF17
:10092000BCF5E06F3FF6AFAEB5EB030C04BFB6EB22
:10093000020C5FEA500C50F1000041EB045170BD15
:100940000EF0004E4EEA113114EB5C04C2BFD4EB42
:100950000C0541EA045170BD41F480114FF0000EC6
:10096000013C90E645EA060E8DE60CEA135594EA42
:100970000C0F08BF95EA0C0F3FF43BAF94EA0C0F45
:100980000AD150EA01347FF434AF95EA0C0F7FF4BA
:1009900025AF104619462CE795EA0C0F06D152EA0E
:1009A00003353FF4FDAE1046194622E750EA4106F2
:1009B00018BF52EA43067FF4C5AE50EA41047FF403
:1009C0000DAF52EA43057FF4EBAE12E74FF0FF3C68
:1009D00006E000BF4FF0010C02E000BF4FF0010C39
:1009E0004DF804CD4FEA410C7FEA6C5C4FEA430CB2
:1009F00018BF7FEA6C5C1BD001B050EA410C0CBF01
:100A000052EA430C91EA030F02BF90EA020F002062
:100A1000704710F1000F91EA030F58BF994208BFC9
:100A200090422CBFD8176FEAE37040F00100704786
:100A30004FEA410C7FEA6C5C02D150EA013C07D1DD
:100A40004FEA430C7FEA6C5CD6D152EA033CD3D028
:100A50005DF8040B704700BF8446104662468C4622
:100A60001946634600E000BF01B5FFF7B7FF002855
:100A700048BF10F1000F01BD4DF808EDFFF7F4FF7E
:100A80000CBF012000205DF808FB00BF4DF808ED09
:100A9000FFF7EAFF34BF012000205DF808FB00BF2C
:100AA0004DF808EDFFF7E0FF94BF012000205DF84E
:100AB00008FB00BF4DF808EDFFF7CEFF94BF012003
:100AC00000205DF808FB00BF4DF808EDFFF7C4FFFC
:100AD00034BF012000205DF808FB00BF4FEA410C45
:100AE0007FEA6C5C02D150EA013C0AD14FEA430C28
:100AF0007FEA6C5C02D152EA033C02D14FF0000065
:100B000070474FF0010070474FEA410212F50012A2
:100B100015D211D56FF47873B3EB625212D94FEA44
:100B2000C12343F0004343EA505311F0004F23FA2E
:100B300002F018BF404270474FF00000704750EA83
:100B4000013005D111F0004008BF6FF00040704740
:100B50004FF00000704700BF4FEA4102B2F1E0439E
:100B600024BFB3F5001CDCF1FE5C0DD901F0004C94
:100B70004FEAC0024CEA5070B2F1004F40EB8300E4
:100B800008BF20F00100704711F0804F21D113F110
:100B90003872BCBF01F00040704741F480114FEA49
:100BA0005252C2F11802C2F1200C10FA0CF320FAD2
:100BB00002F018BF40F001004FEAC1234FEAD323EF
:100BC00003FA0CFC40EA0C0023FA02F34FEA430359
:100BD000CCE77FEA625307D150EA01331EBF4FF0E2
:100BE000FE4040F44000704701F0004040F0FE40FD
:100BF00040F40000704700BF80B400AF034B1B6897
:100C00001846BD465DF8047B704700BF8075FF1F26
:100C100080B400AF034B1B68DBB21846BD465DF8DD
:100C2000047B70478475FF1F80B400AF034B1B68C3
:100C30001B0A1846BD465DF8047B70478475FF1F8C
:100C4000B0B58CB000AF2B4B3C461D460FCD0FC44A
:100C50000FCD0FC495E80F0007C4237000F0FEF914
:100C60000121022013F0B2F8234A002123480EF09C
:100C70002DFF0246224B1A603B4618460DF0BAFA89
:100C80000346002B01D005F091FF00F00FFA0CF0A5
:100C90005DFA1C4B002283F880201A4B4FF6FF723E
:100CA000DA82194A002119480EF010FF0246184B4B
:100CB0001A60184B00221A70174B01221A7000F0AC
:100CC000A7FC164B00221649002002F0BDFB0D4B7D
:100CD00000225A760B4B00221A76124B80221A8081
:100CE000114BA0221A80012000F0BCFA00BF30375F
:100CF000BD46B0BDE07C0108A88A0108791400084F
:100D000074E00220F8010020848A010851140008D0
:100D1000BCE1022081E0022080E0022039140008BA
:100D2000790200207C0200207E02002080B58CB079
:100D300000AF7860422387F82F307B680133BB62B5
:100D4000BB6A1B783E2B28D0FF2B00F0A580052B1B
:100D500000D045E1BB6A02333B613B69B3F8013027
:100D60009AB2A24BDB8A9A4209D1A04B0022DA82C6
:100D70009E4B002283F880209D4813F063FD0120E4
:100D800000F070FA9B4B01221A70984BDA8A994B4B
:100D90005A80984800F024FC22E1BB6A0233FB61D0
:100DA000FB691B78032B04D00C2B06D0012B42D0FF
:100DB00071E0914813F046FD6DE0904813F042FD5C
:100DC000FB690133BB61BB691B78002B03D18C48E5
:100DD00013F038FD02E08B4813F034FD834BDB8ABF
:100DE00007F10E0207F10F0118460DF014F9034642
:100DF00087F82F3097F82F30002B18D1824813F046
:100E000021FDFB7B022B0AD1BB7B022B07D1FB7B95
:100E10001946BB7B1A467D4813F0A0FC3BE0FB7BE8
:100E20001946BB7B1A46794813F098FC33E07848A2
:100E300013F008FD2FE0FB6901337B616B4B93F8E6
:100E40008130184602F076FB7B69B3F801309BB223
:100E50001946704813F082FC644B93F88030042BE1
:100E600004D1624B062283F8802003E05F4B052209
:100E700083F880207B69B3F801309AB25B4BDA8249
:100E80005C4B00221A70594BDA8A5A4B5A805948E7
:100E900000F0A6FB00BFA3E0BB6A02337B627B6A63
:100EA0001B889BB240F2054293424AD040F2054271
:100EB000934218DC40F20242934233D040F20242A5
:100EC000934207DCB3F5806F28D040F20142934291
:100ED00069D084E040F2034293422AD040F20442B7
:100EE00093422AD07BE0B3F5816F3AD0B3F5816F9E
:100EF00008DC40F2064293422FD040F20742934270
:100F000069D06CE040F20A4293422ED040F20A428D
:100F100093422EDBB3F5006F5AD060E03E4813F0E9
:100F200091FC5CE03D4813F08DFC3D4813F08AFCD9
:100F300055E03C4813F086FC51E03B4813F082FC3E
:100F40004DE03A4813F07EFC284BDB8A18460CF043
:100F500098FC374813F076FC41E0364813F072FCF9
:100F60003DE0344813F06EFC39E0334813F06AFC7E
:100F700035E07B6A0233D3F8023019462F4813F06C
:100F8000EDFB7B6A0233D3F8023019462C4813F08C
:100F9000E5FB164BDB8A012118460CF0BCFC294806
:100FA00013F050FC1BE07B6A02333B623B6A9B7888
:100FB0001946254813F0D2FB3B6A9B78002B03D1DE
:100FC000224813F03FFC0AE0214813F03BFC06E006
:100FD000204B01221A70204813F034FC00BF00BFE0
:100FE000012318463037BD4680BD00BFF801002000
:100FF000107D010878E00220387D0108647D010839
:10100000807D0108A47D0108CC7D0108E07D0108F8
:10101000FC7D0108147E0108487E0108747E0108E9
:101020009C7E0108BC7E0108E87E0108187F01084B
:10103000387F0108547F0108787F0108A47F0108E8
:10104000BC7F0108D07F01080C8001086480010882
:101050007880010880E002208C80010880B582B091
:1010600000AF00200EF0FCFE02460B4B1A6000227F
:10107000002101200FF03CF80246084B1A60084B93
:101080003B60084B7B603B46194607480DF0E0F893
:1010900000BF0837BD4680BDA0E0022070E00220FE
:1010A0002800032031150008F9140008F0B58FB0AE
:1010B00006AF4FF450733B800CF089FF00F078F9D5
:1010C000F861FA69062100200CF0C1FEFB695A792B
:1010D0005C4B1A72FB691A795A4B5A72FB69DA78BF
:1010E000584B9A72FB699A78564BDA72FB695A78B8
:1010F000544B1A73FB691A78524B5A73524A102197
:1011000018200CF0A4FE514A102108200CF09FFE7C
:101110004EF66E53BB60FFF76FFD03467B603B1DD1
:101120001A4606212E200CF092FE474A1021182064
:101130000CF08DFE454A102108200CF088FE182185
:1011400001200CF0EDFE0CF03DFC0023FB76FB7E55
:1011500043F00103FB76FB7E002B24D03C4B7B61EC
:1011600007F11202F87E07F10E03019307F1100355
:1011700000931346072200210CF078FA7C8A3D8AFE
:101180007869FEF7FDFF0346DAB27B6900931346E8
:101190000022294620460CF0D3FD0346002B02D046
:1011A0002C4813F04FFB788AF9893B4600930223C1
:1011B00000220CF0C5FD0346002B02D0264813F098
:1011C00041FB0222022100200CF08DFF234B012263
:1011D0001A70224B1B7818460CF056F91F4B01224F
:1011E0005A701E4B08221A711C4B10225A711B4B4D
:1011F0000022DA70194B1A4A9A60184B01229A7031
:10120000164B9D78154B5E78144B1B79134A527917
:101210001249C9781148806800240494039002910F
:101220000192009300230122314628460CF076F902
:101230000A4B9B78002B01D00CF0FFFA00BF24373B
:10124000BD46F0BD040000205C8A01086C8A0108DC
:10125000B4800108BC800108EC800108F80100207E
:1012600007B2010080B58CB008AF0346FB71422382
:10127000FB72FB79012B06D13F4B1B88FB813F4B57
:101280001B88BB8105E04FF4C863FB814FF47A6390
:10129000BB813B4B93F88130184602F04BF9384B39
:1012A00093F880301946374813F058FAFB79022B2F
:1012B00019D1334B93F88030012B04D0304B93F885
:1012C0008030022B0FD10BF0DDFF0346FB72FB7A5F
:1012D000002B03D12C4813F0B5FA04E0FB7A194631
:1012E0002A4813F03BFA264AFB7982F88030244BD7
:1012F0001B7EB889F9890022069200220592244AB1
:1013000004920393234B0293082301930023009339
:101310000023024600200BF0D9FF0346FB721E4952
:101320000E200CF02EFA0346FB72FB7A002B11D133
:10133000FB79012B0AD1194813F084FA104B93F86A
:1013400081301749184602F07FF912E0154813F072
:1013500079FA0EE0FB79012B05D1FB7A1946124888
:1013600013F0FCF905E0FB7A1946104813F0F6F982
:1013700000BF1037BD4680BD7C0200207E020020E9
:10138000F80100201C810108388101085C810108F6
:10139000110200207C8A01080400002084810108D9
:1013A00046E00100AC810108D881010808820108EB
:1013B00080B586B000AFFFF71FFC38613B69B3F121
:1013C000FF3F23D0FFF730FCB860FFF721FC7860C7
:1013D0003B69DAB2164B1A703B691B0ADAB2144B3E
:1013E0005A703B691B0CDAB2114B9A707B68DAB207
:1013F0000F4BDA70BB68DAB20D4B1A71BB681B0A6F
:10140000DAB20B4B5A710A4B7B610BE000200DF0F6
:101410000DFEF860FB68002B02D0FB687B6101E0E9
:10142000044B7B617B6918461837BD4680BD00BF01
:101430008C030020548A010880B500AF034B1B6861
:10144000012118460EF0E8FB00BF80BDBCE1022080
:1014500080B582B000AF78604FF0FF3200210120EC
:101460000EF03CFC00F001F8F6E780B500AF02207A
:10147000FFF7F8FE00BF80BD80B582B000AF786096
:101480004FF0FF32002101200EF028FC0CF0FCFE92
:10149000F6E7000080B582B000AF7860044B1B68AF
:1014A000012118460EF0B8FB00BF0837BD4680BDCD
:1014B00074E0022080B582B000AF7860044B1B68F6
:1014C00018460EF019FF00BF0837BD4680BD00BFAB
:1014D00070E0022080B582B000AF7860054B1B68D9
:1014E0004FF0FF3118460EF0A1FE00BF0837BD4691
:1014F00080BD00BF70E0022080B584B000AF78608E
:101500007B68FB60FB685B68083318460BF068FE7D
:101510000346FB72FB7A002B03D0FB6801221A7092
:1015200002E0FB6800221A7000BF1037BD4680BD84
:1015300080B582B000AF0346FB71FB79002B02D06F
:10154000012B08D00DE0094B1B684FF0FF31184606
:101550000EF020FD05E0054B1B6818460EF078FDE7
:1015600000BF00BF0837BD4680BD00BFA0E002201D
:1015700080B582B000AF78607B681B78012B0ED0FD
:10158000032B16D0002B00D01CE0104B01221A7048
:101590000F4813F057F90F4813F0E0F812E00B4B27
:1015A00000221A700C4813F04DF90A4813F0D6F8CF
:1015B00008E00A4B18687B68191D002300220EF012
:1015C00079FF00BF00BF0837BD4680BD88E002201C
:1015D000F88301082C840108308401087CE0022093
:1015E00080B582B000AF78607B681B78002B02D09A
:1015F000012B04D006E0054B01225A7002E000F0F6
:1016000013F800BF00BF0837BD4680BD88E0022048
:1016100080B500AF034B00221A7000F005F800BF40
:1016200080BD00BF88E0022080B400AF034B0022E1
:101630005A7000BFBD465DF8047B704788E0022009
:1016400080B400AF054BDB68044A43F40043D36029
:1016500000BFBD465DF8047B704700BF0004005822
:1016600080B483B000AF7860064BD3F8D42005492E
:101670007B681343C1F8D43000BF0C37BD465DF81A
:10168000047B70470008005880B483B000AF7860D6
:10169000054B1A6A04497B6813430B6200BF0C3781
:1016A000BD465DF8047B70470008005880B485B0E3
:1016B00000AF78604FF0B0431A6D4FF0B0417B68D7
:1016C00013430B654FF0B0431A6D7B681340FB600A
:1016D000FB6800BF1437BD465DF8047B704780B4DB
:1016E00085B000AF78604FF0B043D3F850214FF091
:1016F000B0417B681343C1F850314FF0B043D3F889
:1017000050217B681340FB60FB6800BF1437BD4667
:101710005DF8047B704780B483B000AF78607B686D
:101720001B6843F480327B681A6000BF0C37BD46EB
:101730005DF8047B704780B483B000AF78607B684D
:101740001B6843F001027B681A6000BF0C37BD467E
:101750005DF8047B704780B483B000AF7860396077
:101760007B685A683B681B04DB431A407B685A60FD
:1017700000BF0C37BD465DF8047B704780B483B072
:1017800000AF786039607B685A683B681B041A4375
:101790007B685A6000BF0C37BD465DF8047B70471C
:1017A00080B483B000AF786039607B685A683B686A
:1017B000DB431A407B685A6000BF0C37BD465DF8BA
:1017C000047B704780B483B000AF786039607B6879
:1017D0003A689A6000BF0C37BD465DF8047B7047DD
:1017E00080B483B000AF786039603B681A047B68CE
:1017F0009A6000BF0C37BD465DF8047B704780B42B
:1018000083B000AF786039607B68DA683B6813406A
:101810003A689A4201D1012300E0002318460C37B0
:10182000BD465DF8047B704780B483B000AF78603C
:1018300039607B68DA693B6813403A689A4201D1A3
:10184000012300E0002318460C37BD465DF8047BF9
:101850007047000080B500AF02211948FFF7E4FF90
:101860000346002B09D0164B5B68DB4303F00203F1
:10187000002B02D000F0EAF81FE001211048FFF72A
:10188000D3FF0346002B08D00D4B5B6803F0010328
:10189000002B02D100F09EF80FE008210848FFF766
:1018A000C3FF0346002B09D0054B5B68DB4303F005
:1018B0000803002B02D000F015F900BF00BF80BD67
:1018C000000C005880B500AF02212248FFF797FFB7
:1018D0000346002B09D11F4B5B68DB4303F4003345
:1018E000002B02D000F0A6F831E002211948FFF7E2
:1018F00086FF0346002B09D1164B5B68DB4303F4DC
:101900000033002B02D000F095F820E008211148A8
:10191000FFF775FF0346002B09D10E4B5B68DB43D5
:1019200003F40023002B02D000F0BEF80FE02021CA
:101930000848FFF764FF0346002B09D1054B5B689D
:10194000DB4303F40013002B02D000F04FF800BF7C
:1019500000BF80BD000C005880B500AF4FF4801070
:10196000FFF7BDFE4FF40070FFF77AFE4FF40070F2
:10197000FFF78AFE40BF20BFFFF762FE00BF80BDB9
:1019800080B500AF4FF48010FFF790FE0648FFF7D8
:10199000D2FE0548FFF7BFFE2C2006F07BFA2D2073
:1019A00006F078FA00BF80BD000C005880B500AF8B
:1019B00001210248FFF7F4FE00BF80BD000C005873
:1019C00080B500AF01210248FFF70AFF00BF80BDCC
:1019D000000C005880B500AF0CF094FF01210248C4
:1019E000FFF7F0FE00BF80BD000C005880B500AFCF
:1019F00020210348FFF7C2FE0CF0B4FF00BF80BDFA
:101A0000000C005880B500AF02210248FFF7C8FE65
:101A100000BF80BD000C005880B500AF0221044813
:101A2000FFF7DEFE02210248FFF795FE00BF80BDF2
:101A3000000C005880B500AF02210348FFF79EFE5E
:101A40000CF0E0FF00BF80BD000C005880B500AF77
:101A50000CF0EEFF02210248FFF7B4FE00BF80BD8C
:101A6000000C005880B582B000AF786008210C48A7
:101A7000FFF7C5FE0346002B07D00A4A7B681360B8
:101A800008210748FFF767FE06E07B6898470821B2
:101A90000348FFF7A5FE00BF0837BD4680BD00BF65
:101AA000000C00589403002080B500AF08210648C0
:101AB000FFF764FE054B1B68984708210248FFF7B3
:101AC0008FFE00BF80BD00BF000C005894030020B3
:101AD00080B500AF08210248FFF762FE00BF80BD5D
:101AE000000C005880B500AF0DF04AF808210248FC
:101AF000FFF768FE00BF80BD000C0058D458C450EA
:101B00000433C4188C42F9D3704703600430884210
:101B1000FBD370470C48854605F0B2FF0B480C49D3
:101B20000C4A0023FFF7EDFF0B480C490023FFF799
:101B3000EEFF0B480B490023FFF7E9FF12F07AF99B
:101B400002F038FAFEE70000000003200400002045
:101B5000F8010020889F0108700300200CE4022097
:101B6000E0010320570A0320FEE7000080B483B0A1
:101B700000AF7860064BD3F8902005497B6813438B
:101B8000C1F8903000BF0C37BD465DF8047B70474C
:101B90000008005880B485B000AF78604FF0B043C3
:101BA000DA6C4FF0B0417B681343CB644FF0B04325
:101BB000DA6C7B681340FB60FB6800BF1437BD46DE
:101BC0005DF8047B704780B485B000AF78604FF05B
:101BD000B043D3F84C214FF0B0417B681343C1F8B8
:101BE0004C314FF0B043D3F84C217B681340FB607D
:101BF000FB6800BF1437BD465DF8047B704780B5B5
:101C000000AF06F00BF806F00FF84FF48030FFF746
:101C1000ADFF0DF091F900F021F800F0BFF800BF22
:101C200080BD0000B0B588B000AF0B4B3C1D1D4619
:101C30000FCD0FC495E8070003C422800234130CB3
:101C400023700CF08BFF3B1D18460CF0EAFA00BF26
:101C50002037BD46B0BD00BF2085010880B588B0E3
:101C600000AF3B1D00221A605A609A60DA601A6168
:101C70000023BB8300237B8300233B830023FB776C
:101C800033E0FB7F424ADB0013449B79002B28D0D2
:101C9000FB7F3F4A52F833303E4A93420FD03E4AD0
:101CA000934215D0B3F1904F00D01BE0FB7F384A30
:101CB000DB0013449A88BB8B1343BB8312E0FB7F8A
:101CC000334ADB0013449A887B8B13437B8309E000
:101CD000FB7F2F4ADB0013449A883B8B13433B83E3
:101CE00000E000BFFB7F0133FB77FB7F212BC8D9CE
:101CF0000023FB600123BB6003233B61BB8B002BF4
:101D000014D0BB8B7B600120FFF744FF0120FFF75D
:101D10005AFF3B1D19464FF0904006F0F3F8BB8B7D
:101D2000002219464FF0904006F074FA7B8B002B8E
:101D300012D07B8B7B600220FFF72CFF0220FFF785
:101D400042FF3B1D1946134806F0DCF87B8B00224E
:101D50001946104806F05EFA3B8B002B13D03B8BE4
:101D60007B600420FFF716FF0420FFF72CFF3B1DCC
:101D70001946094806F0C6F83B8B0022194606486A
:101D800006F048FA00BF00BF2037BD4680BD00BF47
:101D9000CC8A0108000400480008004880B400AF65
:101DA00000BFBD465DF8047B704780B400AF00BF44
:101DB000BD465DF8047B704780B584B000AFF86025
:101DC0000B467A607B817A897B68F968002001F094
:101DD000CFFC00BF1037BD4680BD000080B483B08B
:101DE00000AF7860074BD3F8803023F00702054935
:101DF0007B681343C1F8803000BF0C37BD465DF8E7
:101E0000047B70470004005880B483B000AF786052
:101E10004FF0B0439B6823F400424FF0B0417B6821
:101E200013438B6000BF0C37BD465DF8047B7047E1
:101E300080B500AF00F014F80849002001F01EFA48
:101E4000FFF7DDFE0121012011F0C0FF00F0A1F835
:101E500000F0A6F800F012F800BF80BDA4E0022058
:101E600080B500AF4FF40040FFF7CEFF11F09CFFAC
:101E70000420FFF7B3FF00BF80BD000080B588B02D
:101E800000AF0CF0B5FC00200DF0EAFF0246174B46
:101E90001A600022002101200EF02AF90246144B9C
:101EA0001A60144A002114480DF010FE0246134B2C
:101EB0001A60134B3B60134B7B603B46194612483C
:101EC0000CF05CFB114BBB60114BFB60114B3B6199
:101ED00040F23C537B6107F1080318460CF0CAFD41
:101EE0000CF080FC00BF2037BD4680BDD0E1022051
:101EF000D8E10220DC8B0108791F0008D4E1022020
:101F000024070320191F0008591F00083C0903205B
:101F100030080320E801032080B582B000AF0346FB
:101F2000FB71FB79002B02D0012B08D00DE0094B8F
:101F30001B684FF0FF3118460EF02CF805E0054BFA
:101F40001B6818460EF084F800BF00BF0837BD4676
:101F500080BD00BFD0E1022080B582B000AF7860C4
:101F6000FFF760FEFEF76CFE0021012011F02EFF4E
:101F700000BF0837BD4680BD80B582B000AF786035
:101F80004FF0FF32002101200DF0A8FE0CF012FBF3
:101F9000F6E780B400AF00BFBD465DF8047B704734
:101FA00080B400AF00BFBD465DF8047B7047000001
:101FB00080B582B000AF7860044B1B6801211846E1
:101FC0000DF02AFE00BF0837BD4680BDD4E10220D7
:101FD00080B582B000AF7860044B1B6818460EF0E5
:101FE0008BF900BF0837BD4680BD00BFD8E1022095
:101FF00080B582B000AF7860054B1B684FF0FF31B1
:1020000018460EF013F900BF0837BD4680BD00BF6B
:10201000D8E1022080B584B000AF78607B681B688F
:10202000234A13607B689A88214B9A80204B0022B8
:102030009A717B689B7903F00303DAB21C4B1A7325
:102040007B689B799B08DBB203F00303DAB2184B81
:102050005A737B689B791B09DBB203F00303DAB286
:10206000134B9A73124B1A7B114B5B7B9A420CD128
:102070000F4B9A880E4B9B880333002B00DA0333F7
:102080009B109BB213449BB205E0094B9B881A46F8
:10209000520013449BB2FB81FB8918460EF068FD89
:1020A00003461A46024B9A6000BF1037BD4680BDFA
:1020B000DCE1022080B584B000AF4B4B9B68002B65
:1020C00000F08E80484B9B68FB60474B9B883B81B0
:1020D000454B9B79FB8000237B710023FB720AE058
:1020E000414B1868791D4FF0FF33012209F0D9FAEE
:1020F000FB7A0133FB72FB7A032BF1D93A4B9B79C4
:10210000002B2CD0FF237B71374B1868791D4FF0C3
:10211000FF33012209F0C5FA0023FB7215E0FB68CA
:102120005A1CFA601B781A46FB8803FB02F31B1249
:10213000DBB27B712C4B1868791D4FF0FF33012205
:1021400009F0AFFAFB7A0133FB72FB7A022BE6D976
:102150003B89013B3B813B89002BD3D125E0FF2309
:102160007B71214B1868791D4FF0FF33012209F074
:1021700098FA0023FB720FE0FB685A1CFA601B7888
:102180007B71194B1868791D4FF0FF33012209F05C
:1021900088FAFB7A0133FB72FB7A022BECD93B897C
:1021A000013B3B813B89002BD9D1FF237B7100236D
:1021B000FB720AE00C4B1868791D4FF0FF330122C7
:1021C00009F06FFAFB7A0133FB72FA7A064B9B88AF
:1021D0000F33002B00DA0F331B119A42EADB00E0C9
:1021E00000BF1037BD4680BDDCE1022080B500AFE6
:1021F0000F4B98680E4B1A7B0D4B5B7B9A420BD1B1
:102200000B4B9B881A460A4B9B880333002B00DA42
:1022100003339B10134405E0054B9B881A46134675
:102220005B0013441A46002111F033FE00BF80BD4D
:10223000DCE1022080B485B000AF03463960FB804A
:10224000164B9B88FA889A4221D2144B9968FA88D7
:1022500013465B0013440B44FB603B681A0C0F4BA6
:102260001B7B1946FB680B44D2B21A703B681A0AF2
:102270000A4B5B7B1946FB680B44D2B21A70074BC2
:102280009B7B1A46FB6813443A68D2B21A7000BFAF
:102290001437BD465DF8047B704700BFDCE10220C7
:1022A00080B584B000AF78600B467B8013463B80DE
:1022B000154B9B887A889A4222D23B88002B03D107
:1022C000114B9B88BB810BE07A883B881344BB8110
:1022D0000D4B9B88BA899A4202D90B4B9B88BB81D4
:1022E0007B88FB8107E0FB8979681846FFF7A2FF2E
:1022F000FB890133FB81FA89BB899A42F3D300E061
:1023000000BF1037BD4680BDDCE1022080B483B041
:1023100000AF0346FB71FB790133DAB2034B9A71CC
:1023200000BF0C37BD465DF8047B7047DCE102203E
:1023300080B586B002AF03460A46FB711346BB71F7
:102340007823FB81BB793B73FB797B7307F10C022C
:10235000F9894FF0FF3300930223034806F03EF85B
:1023600000BF1037BD4680BDF8E1022080B500AF48
:102370000021AE20FFF7DCFF0021D520FFF7D8FFBA
:1023800000218020FFF7D4FF0021A820FFF7D0FF15
:1023900000212720FFF7CCFF0021D320FFF7C8FF43
:1023A00000210020FFF7C4FF0021AD20FFF7C0FF90
:1023B00000213020FFF7BCFF00218D20FFF7B8FF80
:1023C00000211420FFF7B4FF00214020FFF7B0FFE9
:1023D0000021A620FFF7ACFF0021A420FFF7A8FFF3
:1023E0000021A120FFF7A4FF0021C820FFF7A0FFD4
:1023F0000021DA20FFF79CFF00211220FFF798FF51
:1024000000218120FFF794FF0021AF20FFF790FF0C
:102410000021D920FFF78CFF00212220FFF788FF41
:102420000021DB20FFF784FF00212020FFF780FF41
:102430000021AF20FFF77CFF00BF80BD80B485B0D6
:1024400000AF78600023FB6007E0FB687A68134404
:1024500000221A70FB680133FB60FB68B3F5B47FA0
:10246000F3DB00BF1437BD465DF8047B704780B4D2
:1024700085B000AF7860F123FB6007E0FB687A6805
:10248000134400221A70FB680133FB60FB68B3F54C
:10249000B47FF3DB00BF1437BD465DF8047B7047A3
:1024A00080B485B000AF7860B523FB6007E0FB68BF
:1024B0007A68134400221A70FB680133FB60FB68E2
:1024C000B3F5B47FF3DB00BF1437BD465DF8047B82
:1024D000704780B485B000AFF860B9603B601346C8
:1024E000FB71FB68482B61DCBB68282B5EDCFB7949
:1024F000002B2CD0BB68002B00DA0733DB101A4608
:102500001346DB001344DB001946FB680B441946F5
:102510003B680B441B7859B2BB68584203F0070371
:1025200000F0070058BF4342012000FA03F35BB2FA
:102530000B4359B21346DB001344DB001A46FB6819
:1025400013441A463B681344CAB21A702FE0BB68A2
:10255000002B00DA0733DB101A461346DB00134466
:10256000DB001946FB680B4419463B680B441B789B
:1025700059B2BB68584203F0070300F0070058BF88
:102580004342012000FA03F35BB2DB435BB20B4032
:1025900059B21346DB001344DB001A46FB681344B0
:1025A0001A463B681344CAB21A7000E000BF1437E1
:1025B000BD465DF8047B704790B587B000AF044618
:1025C000084611461A462346FB710346BB710B466B
:1025D0007B7113463B71BB793B7480237B8208235C
:1025E0007B747B79203BFB733B79202B04D14FF428
:1025F00000437B8210237B740023FB75B1E03B79A1
:102600000C2B1DD197F82830002B0BD0FA7BF97DCD
:10261000584813465B0013449B0003440B441B784B
:10262000BB826CE0FA7BF97D524813465B00134491
:102630009B0003440B441B789BB2DB43BB825EE0F0
:102640003B79102B17D197F82830002B08D0FA7B54
:10265000FB7D494912010A4413441B78BB824EE0BA
:10266000FA7BFB7D444912010A4413441B789BB258
:10267000DB43BB8243E097F82830002B1CD0FB7B68
:10268000A3F11002FB7D5B003C4992010A44134414
:102690001B789BB21B02BB82FB7BA3F11002FB7D6C
:1026A0005B000133354992010A4413441B789AB206
:1026B000BB8A1343BB8222E0FB7BA3F11002FB7DAC
:1026C0005B002E4992010A4413441B789BB2DB4302
:1026D0009BB21B02BB82FB7BA3F11002FB7D5B0064
:1026E0000133264992010A4413441B789BB2DB4311
:1026F0009BB21AB2B7F9143013431BB2BB8200234A
:10270000BB7527E0BA8A7B8A13409BB2002B06D0A8
:10271000F879B979FB6A0122FFF7DBFE05E0F87969
:10272000B979FB6A0022FFF7D4FEBB8A5B00BB824B
:10273000BB790133BB71BA793B7CD21A3B799A429F
:1027400005D13B7CBB71FB790133FB7106E0BB7D9E
:102750000133BB75BA7D7B7C9A42D3D3FB7D0133B9
:10276000FB75FA7D3B799A42FFF449AF00BF1C37F5
:10277000BD4690BD008C0108749001086496010864
:1027800090B585B002AF3A601A460346FB710B461E
:10279000BB7113467B712CE0FA797B795B08DBB265
:1027A000C3F148039A420FDD0023FB71BA797B79AC
:1027B0001344BB71BA797B79C3F128039A4203DDD4
:1027C0000023FB71FB79BB713B681A787C79B9797E
:1027D000F879FB6901933B7E00932346FFF7ECFEFB
:1027E0007B795B08DAB2FB791344FB713B680133F8
:1027F0003B603B681B78002BCED100BF0C37BD4639
:1028000090BD80B584B000AF78600023FB7329E0F1
:10281000FB7B503BDBB200211846FFF789FD00210E
:102820000C20FFF785FD00211120FFF781FD00231B
:10283000BB7311E0B97BFA7B1346DB001344DB006A
:102840000B441A467B6813441B7840211846FFF757
:102850006FFDBB7B0133BB73BB7B472BEAD9FB7B93
:102860000133FB73FB7B042BD2D900BF1037BD466D
:1028700080BD80B5DEB002AF3B1D186007F10803D4
:102880001846FFF7DBFD3B1D1B683A1D591C116004
:102890001A7807F1080301930123009320230421F0
:1028A0000020FFF789FE3B1D1B683A1D591C116073
:1028B0001A7807F1080301930123009320230421D0
:1028C0001020FFF779FE3B1D1B683A1D591C116053
:1028D0001A7807F1080301930123009320230421B0
:1028E0002820FFF769FE3B1D1B681A7807F10803D3
:1028F000019301230093202304213820FFF75CFE7D
:1029000007F1080301220C212420FFF7E2FD07F163
:10291000080301220D212420FFF7DBFD07F1080346
:1029200001220E212420FFF7D4FD07F10803012224
:102930001C212420FFF7CDFD07F1080301221B21F4
:102940002420FFF7C6FD07F1080301221A212420E5
:10295000FFF7BFFD07F108031846FFF752FF00BF5E
:1029600007F5B877BD4680BD80B584B002AF78600A
:1029700039603868FFF794FD7B685A1C7A601A78D2
:102980003B68019301230093102314211020FFF7CB
:1029900013FE7B685A1C7A601A783B680193012306
:1029A0000093102314211A20FFF706FE7B685A1C9F
:1029B0007A601A783B680193012300931023142155
:1029C0002820FFF7F9FD7B681A783B680193012303
:1029D0000093102314213220FFF7EEFD3B68012203
:1029E00018212420FFF775FD3B68012219212420BE
:1029F000FFF76FFD3B6801221F212420FFF769FDCF
:102A00003B6801221E212420FFF763FD3868FFF791
:102A1000F8FE00BF0837BD4680BD80B483B000AF6C
:102A2000786000BF0C37BD465DF8047B704700003E
:102A300080B483B000AF7860064BD3F8802005499E
:102A40007B681343C1F8803000BF0C37BD465DF88A
:102A5000047B70470008005880B483B000AF7860F2
:102A6000054B1A6804497B6813430B6000BF0C37A1
:102A7000BD465DF8047B70470008005880B483B001
:102A800000AF0D4B9B6A9BB27B600B4B9B6A9BB26A
:102A90003B6005E03B687B60074B9B6A9BB23B60F9
:102AA0007A683B689A42F5D13B6818460C37BD46B8
:102AB0005DF8047B704700BF0028004080B485B0FB
:102AC00000AF03460A46FB711346BB71BA791D4934
:102AD00013465B001344DB000B4415331B78FB7378
:102AE000FB7B062B09D0FA7B164913465B00134487
:102AF000DB000B441433FA791A70FA791149134642
:102B00005B001344DB000B441533FA7B1A70FA792F
:102B10000C4913465B001344DB000B441433BA79B1
:102B20001A70BA79074913465B001344DB000B4463
:102B30001533FA791A7000BF1437BD465DF8047B6F
:102B4000704700BF8002002080B485B000AF03460C
:102B50000A46FB711346BB71294B1B78DBB2BA796D
:102B60009A4232D0BA79274913465B001344DB00FE
:102B70000B4414331B78FB73FA7B224913465B002A
:102B80001344DB000B441533FA791A70FA791D49A6
:102B900013465B001344DB000B441533BA791A70FB
:102BA000FA79184913465B001344DB000B441433D5
:102BB000FA7B1A70BA79134913465B001344DB00A1
:102BC0000B441433FA791A7014E0FA790D4913465C
:102BD0005B001344DB000B441533BA791A70BA79E1
:102BE000084913465B001344DB000B441433FA79A5
:102BF0001A7000BF1437BD465DF8047B704700BFF4
:102C0000100300208002002080B584B000AF03468E
:102C1000FB714E4B1B78DBB2062B18D14B4B1B784C
:102C2000DAB24B4B1A70494AFB791370FA79494969
:102C300013465B001344DB000B44153306221A7065
:102C4000454B4FF0FF321A600023FB8178E000F023
:102C500009F90346FB81FA793E4913465B001344A8
:102C6000DB000B4408331968FB89FA7919443948A9
:102C700013465B001344DB00034408331960FA7900
:102C8000344913465B001344DB000B4408331B68D4
:102C9000BB602E4B1B78DBB219462E4A0B465B00FD
:102CA0000B44DB00134408331B68BA689A4237D3DD
:102CB000264B1B787B737A7B264913465B001344B3
:102CC000DB000B4415331B783B7313E07A7B2149FF
:102CD00013465B001344DB000B4415331B787B73F6
:102CE0007A7B1C4913465B001344DB000B4415330D
:102CF0001B783B733B7B062B0BD03A7B1549134665
:102D00005B001344DB000B4408331B68BA689A422B
:102D1000DCD27A7BFB7911461846FFF7CFFE0FE035
:102D20000A4B1B78DAB2FB7911461846FFF70CFF05
:102D3000064B1B78DAB2064B1A70044AFB79137003
:102D4000FB8918461037BD4680BD00BF1003002028
:102D500011030020800200201403002080B485B0FD
:102D600000AF03460A46FB711346BB71394B1B7813
:102D7000DBB2FA799A4211D1364B1B78DAB2364B74
:102D80001A70FA79354913465B001344DB000B4493
:102D900015331B78DAB22F4B1A703EE0FA792F49BF
:102DA00013465B001344DB000B4414331B78FB73A6
:102DB000FA792A4913465B001344DB000B441533B0
:102DC0001B78BB73F979FA7B24480B465B000B44F4
:102DD000DB00034415331B78D8B2204913465B004F
:102DE0001344DB000B44153302461A70BB7B062BE1
:102DF00013D0F979BA7B19480B465B000B44DB0012
:102E0000034414331B78D8B2144913465B001344AF
:102E1000DB000B44143302461A70FA790F4913464B
:102E20005B001344DB000B440C3301221A70094B86
:102E30001B78DBB2062B07D1BB79002B04D1084BE2
:102E40004FF0FF321A6000BF00BF1437BD465DF877
:102E5000047B704710030020110300208002002033
:102E60001403002080B582B000AF1A4B1B68B3F189
:102E7000FF3F26D0FFF702FE7860164B1B687A688A
:102E80009A4205D8134B1A687B68D31A7B600AE014
:102E9000114B1B881A467B68D31A3B600D4B1B688D
:102EA0003A6813447B600D4B1B781A467B6802FB23
:102EB00003F37B600A4B1B781A467B68D3407B6028
:102EC00001E000237B607B689BB218460837BD4653
:102ED00080BD00BF140300209E0300209D0300203E
:102EE0009C03002080B582B000AF0346FB80FB88C6
:102EF000002B08D1FFF7C2FD0246244B1A600320C5
:102F000004F0E4FF3EE0FB88012B03D8204B1B7844
:102F1000012B02D0FB88013BFB8000BF1D4B1B68CF
:102F20001B68DB6803F00403002BF7D0194B1B6808
:102F30001B68DB68DAB2174B1B681B6862F490628F
:102F4000DA60154B4FF40022DA60032004F0CCFF66
:102F5000124B5B691B0C1B04FA88104913434B612D
:102F6000FFF78CFD0246094B1A600A4B1B681B6871
:102F70009A68084B1B681B6842F480629A60AFF342
:102F8000008000BF0837BD4680BD00BF140300208D
:102F90009C030020980300200008005800280040EF
:102FA00080B584B000AF474B9B6803F48063B3F5F2
:102FB000806F08D100BF444B1B681B68DB6803F0BF
:102FC0000403002BF7D1404B1B681B689A683E4BEB
:102FD0001B681B6822F480629A603C4B1B78FB7371
:102FE000FA7B3B4913465B001344DB000B44083378
:102FF0001B68BB60FFF736FF0346FB80FB88BA689F
:103000009A4205D20023BB81324B01221A704DE057
:10301000FB88314A128892B213441A46BB68934225
:1030200006D92D4B1B88BB812A4B00221A703DE02C
:10303000BB689AB2FB88D31ABB81264B01221A7057
:1030400034E0FA7B224913465B001344DB000B4457
:1030500008331A68FB889A420AD2FA7B1C49134645
:103060005B001344DB000B44083300221A6013E0BA
:10307000FA7B174913465B001344DB000B4408330B
:103080001968FB88FA7BC91A114813465B00134480
:10309000DB00034408331960FA7B0D4913465B00DB
:1030A0001344DB000B4415331B78FB73FB7B062BAF
:1030B000C7D1BB891846FFF715FF00BF1037BD46C3
:1030C00080BD00BF002800409803002010030020AE
:1030D0008002002018030020A003002080B58AB0E1
:1030E00000AFEFF310837B617B697B6272B65E4B4E
:1030F0001B681B68CA225A625B4B1B681B68532201
:103100005A62594B1B681B689A68574B1B681B68AF
:1031100022F480629A60554B1B7887F8233097F829
:103120002320534913465B001344DB000B440C334C
:103130001B78DBB2022B70D197F823204C49134641
:103140005B001344DB000B441B68FB6197F82320F2
:10315000474913465B001344DB000B4410331B68E4
:10316000BB61444B1B78DBB2002B4ED097F8232079
:103170003F4913465B001344DB000B440D331B78BF
:10318000DBB2012B25D197F8233001211846FFF738
:10319000E5FD7B6A3B613B6983F3108897F8232048
:1031A000334913465B001344DB000B4404331A68B5
:1031B00097F823301146184600F046FA2A4B1B6850
:1031C0001B68CA225A62284B1B681B6853225A622A
:1031D00013E07B6AFB60FB6883F3108897F8233069
:1031E000184600F0A7F9204B1B681B68CA225A62D8
:1031F0001D4B1B681B6853225A6297F82330FA69EB
:103200001946B86900F0A6FA24E0FFF7C9FE7B6A08
:10321000BB60BB6883F310881CE000BF124B1B68C7
:103220001B68DB6803F00403002BF7D00E4B1B6810
:103230001B68DB68DAB20C4B1B681B6862F4906297
:10324000DA600D4B4FF40022DA607B6A7B607B68AA
:1032500083F31088044B1B681B68FF225A6200BF6F
:103260002837BD4680BD00BF980300201003002012
:1032700080020020180300200008005880B588B0A4
:1032800000AF03463960FB71644A3B681360634BCF
:103290001B681B68CA225A62604B1B681B6853225A
:1032A0005A625F4B9B685E4A43F0200393605C4B1D
:1032B0009B68DBB203F00703DBB2C3F10403DAB2AD
:1032C000584B1A70564B1B6903F4FE034FF4FE0271
:1032D0003A613A6992FAA2F2FA60FA687A617A6916
:1032E000002A01D1202203E07A69B2FA82F2D2B236
:1032F000D340DBB20133DAB24B4B1A70484B1B6937
:103300009BB2C3F30E039BB201339AB2474B1A80B0
:10331000464B1B88013B444A127802FB03F3A3F59A
:10332000A073404A1278D340BB61BB694FF6FE726E
:10333000934204D93E4B4FF6FF721A8003E0BB69FB
:103340009AB23B4B1A804FF40020FFF785FB4FF4F5
:103350000020FFF76DFBFB79002B43D1354B012299
:103360001A70354B4FF0FF321A600023FB770CE0E8
:10337000FA7F324913465B001344DB000B440C33E5
:1033800000221A70FB7F0133FB77FB7F052BEFD9FF
:103390002B4B06221A70214B1B681B689A681F4B27
:1033A0001B681B6822F480629A601C4B1B681B68B8
:1033B000DB68DAB2194B1B681B6862F49062DA6052
:1033C000204B4FF40022DA60032004F08DFD134BF4
:1033D0001B681B689A68114B1B681B6842F480428B
:1033E0009A600AE00D4B1B681B68DB6803F480637E
:1033F000002B02D0032004F069FD084B1B681B68FA
:10340000FF225A6200220621032004F029FD032036
:1034100004F040FD00BF2037BD4680BD980300206A
:10342000002800409C0300209D0300209E030020F4
:10343000A0030020180300201403002080020020B5
:10344000100300200008005880B48BB000AFF86073
:10345000B9603B601346FB71002387F82630EFF319
:103460001083FB61FB693B6272B604E097F826307B
:10347000013387F8263097F82630052B0CD897F8BB
:1034800026202B4913465B001344DB000B440C330E
:103490001B78DBB2002BE9D197F82630062B37D00A
:1034A00097F82620224913465B001344DB000B44A7
:1034B0000C3301221A703B6ABB61BB6983F310882D
:1034C00097F826201A4913465B001344DB000B448F
:1034D0001033FA681A6097F82620154913465B00E6
:1034E0001344DB000B440D33FA791A7097F8262049
:1034F0000F4913465B001344DB000B443A681A6023
:10350000BB6897F826201A70002387F8273007E059
:103510003B6A7B617B6983F31088012387F827303E
:1035200097F8273018462C37BD465DF8047B704766
:103530008002002080B586B000AF0346FB71EFF338
:103540001083FB60FB687B6172B6032004F0B0FC63
:10355000374B1B681B68CA225A62354B1B681B68B5
:1035600053225A62FA79334913465B001344DB0055
:103570000B440C331B78DBB2022B48D1FB790021C2
:103580001846FFF7EBFB2C4B1B78FB74FB7C062BE0
:1035900035D12A4B9B6803F48063B3F5806F08D163
:1035A00000BF234B1B681B68DB6803F00403002B80
:1035B000F7D11F4B1B681B689A681D4B1B681B6863
:1035C00022F480629A6000BF194B1B681B68DB689D
:1035D00003F00403002BF7D0154B1B681B68DB6856
:1035E000DAB2134B1B681B6862F49062DA60144B0A
:1035F0004FF40022DA60032004F076FC07E0114B60
:103600001B78DBB2FA7C9A4201D0FFF7C9FC084B69
:103610001B681B68FF225A62032004F03BFC7B6995
:10362000BB60BB6883F3108800BF1837BD4680BD00
:103630009803002080020020100300200028004092
:10364000000800581103002080B586B000AF034683
:103650003960FB71FA793B4913465B001344DB0088
:103660000B440C331B78DBB2022B03D1FB791846D9
:10367000FFF760FFEFF31083FB60FB687B6172B6BE
:10368000032004F015FC304B1B681B68CA225A62E9
:103690002D4B1B681B6853225A62FA79294913463D
:1036A0005B001344DB000B440C3302221A70FA79DE
:1036B000244913465B001344DB000B4408333A688B
:1036C0001A60FA791F4913465B001344DB000B4470
:1036D00004333A681A60FB791846FFF795FA0346F7
:1036E0007B821A4B1B787B74194B1B78DBB27A7C7C
:1036F0009A4202D0FFF754FC13E0FA7911491346BD
:103700005B001344DB000B44083319687B8AFA79A9
:10371000C91A0C4813465B001344DB00034408330A
:103720001960094B1B681B68FF225A62032004F0D2
:10373000B1FB7B69BB60BB6883F3108800BF18379F
:10374000BD4680BD800200209803002010030020A9
:103750001103002080B584B000AFF8600B467A609A
:10376000FB727B68984700BF1037BD4680BD0000E4
:1037700080B487B000AFB9607B600346FB7313462B
:10378000BB810023BB750023FB7500BFBB7D032BF2
:1037900016D801A252F823F0A9370008AF37000865
:1037A000B5370008BB3700080023FB7509E001238B
:1037B000FB7506E00223FB7503E00323FB7500E0C5
:1037C00000BFFB7D18461C37BD465DF8047B704783
:1037D00080B489B000AF78600023FB6102E0FB6930
:1037E0000133FB61FB6901331F4A52F823307A68C9
:1037F0009A42F4DC1C4AFB6952F82330BB61FB6936
:103800000133194A52F823307B61184AFB6952F898
:1038100023303B61FB690133144A52F82330FB60CB
:10382000FA683B69D31A7968BA698A1A02FB03F30A
:1038300007EE903AF8EEE76A7A69BB69D31A07EEA9
:10384000903AB8EEE77AC6EE877AFDEEE77A17EEA1
:10385000903ABB603A69BB68134418462437BD46AA
:103860005DF8047B704700BF48990108249901085E
:1038700090B583B000AF786039607B68002B01D1D0
:1038800078232CE03B68002B01D1002327E03B6824
:1038900007EE903AB8EEE77A7A683B68134407EE91
:1038A000903AF8EEE77AC7EE276A16EE900AFCF730
:1038B00023FE4FF000020C4BFCF776FE03460C464D
:1038C00044EC173BB0EE470AF0EE670A13F092F8AB
:1038D00054EC103B18462146FDF716F903461846EE
:1038E0000C37BD4690BD00BF00005E4080B58AB079
:1038F00000AF786040F261137B627B6804331B6821
:10390000002B0CBF01230023DBB21A467B6808336F
:103910001B68002B0CBF01230023DBB213447A6821
:103920000C321268002A0CBF01220022D2B21344CA
:10393000012B1ADD7B6804331B68002B40F081806B
:103940007B6808331B68002B03D07B6A78337B626B
:1039500077E07B680C331B68002B03D07B6AF03365
:103960007B626EE04FF0FF337EE07B6804331A68C1
:103970007B680C331B689A4220DD7B6808331A6829
:103980007B680C331B689A4218DD7B6804331A6825
:103990007B680C331B68D31A3B627B6808331A6858
:1039A0007B680C331B68D31AFB61F969386AFFF72F
:1039B0005FFF02467B6A13447B6242E07B68083308
:1039C0001A687B6804331B689A4221DD7B680C33DC
:1039D0001A687B6804331B689A4219DD7B680833D8
:1039E0001A687B6804331B68D31ABB617B680C338D
:1039F0001A687B6804331B68D31A7B617969B869DC
:103A0000FFF736FF034678337A6A13447B6218E087
:103A10007B680C331A687B6808331B68D31A3B61D8
:103A20007B6804331A687B6808331B68D31AFB6011
:103A3000F9683869FFF71CFF0346F0337A6A1344CC
:103A40007B627B6A0A4A82FB03121A441112DA175C
:103A50008A1A4FF4B47101FB02F29B1A7B62786AF6
:103A6000FFF7B6FEB860BB6818462837BD4680BD74
:103A7000B7600BB680B584B000AF78607868FFF7A8
:103A800035FFF860FB68B3F1FF3F02D14FF0FF3321
:103A900005E0FB68044A82FB0312DB17D31A1846C1
:103AA0001037BD4680BD00BFABAAAA2A80B582B040
:103AB00000AF78607B681B680A2B03DD7B681B689E
:103AC000FF2B02DD4FF0FF3303E07868FFF7D2FFF2
:103AD000034618460837BD4680BD80B586B000AFA6
:103AE000786007F10C0308221946062000F0C6F89A
:103AF00000237B6119E07B695B00013307F1180249
:103B0000134413F80C3C1A027B695B0007F118019F
:103B10000B4413F80C3C18467B699B0079680B44F6
:103B200002431A607B6901337B617B69032BE2DD11
:103B300000BF1837BD4680BD80B586B004AF0123F5
:103B4000FB713B4600221A601A710EE04FF0FF3302
:103B5000029301230193BB1D0093012300228821BE
:103B6000454804F039FF0346FB71FB79012BEDD08A
:103B7000BB793C2B01D001237AE0642002F0DFFF07
:103B80000E233B700123FB710EE04FF0FF330293D5
:103B9000012301933B46009301230D2288213648DF
:103BA00004F006FE0346FB71FB79012BEDD0642087
:103BB00002F0C5FF11233B7011237B701123BB70F2
:103BC0001123FB7011233B710123FB710EE04FF0B9
:103BD000FF330293052301933B4600930123072201
:103BE0008821254804F0E4FD0346FB71FB79012B95
:103BF000EDD040233B701B237B700023BB7006235A
:103C0000FB7000233B710123FB710EE04FF0FF338B
:103C10000293052301933B46009301230922882147
:103C2000154804F0C5FD0346FB71FB79012BEDD06F
:103C300001233B7001237B700123BB700123FB70C8
:103C400000233B710123FB710EE04FF0FF33029321
:103C5000042301933B46009301230A22882106484E
:103C600004F0A6FD0346FB71FB79012BEDD0002388
:103C700018460837BD4680BDF8E1022080B588B0FF
:103C800004AF03463960FB711346BB714FF4967362
:103C90007B810023FB8101237B7314E0FB7999B2C4
:103CA000BB799BB24FF0FF32029201933B680093C5
:103CB00001230A4688210D4804F08EFE03467B73DB
:103CC000FB890133FB817B7B012B03D1FA897B8943
:103CD0009A42E3D3FA897B899A4201D3012300E017
:103CE000002318461037BD4680BD00BFF8E1022012
:103CF00080B584B000AF3B4600221A605A609A60DB
:103D0000DA603B461846FFF7E8FE3B461846FFF7E9
:103D1000CDFE034618461037BD4680BD80B483B043
:103D200000AF7860074BD3F880207B68DB43054900
:103D30001340C1F8803000BF0C37BD465DF8047BEE
:103D4000704700BF0008005880B483B000AF7860AF
:103D5000074BD3F890207B68DB4305491340C1F83B
:103D6000903000BF0C37BD465DF8047B704700BF44
:103D70000008005880B483B000AF78604FF0B043C3
:103D80000A4AC3F89C204FF0B043D3F89C3023F488
:103D90007C527B681B024FF0B0411343C1F89C304A
:103DA00000BF0C37BD465DF8047B7047FECAFECAF3
:103DB00080B483B000AF78604FF0B043D3F8903058
:103DC00023F018024FF0B0417B681343C1F89030E4
:103DD00000BF0C37BD465DF8047B704780B400AF70
:103DE0004FF0B043D3F890304FF0B04243F48033FB
:103DF000C2F8903000BFBD465DF8047B704780B4C8
:103E000000AF4FF0B043D3F890304FF0B04223F4FE
:103E10008033C2F8903000BFBD465DF8047B704728
:103E200080B400AF4FF0B043D3F8943003F0806318
:103E3000B3F1806F01D1012300E000231846BD4695
:103E40005DF8047B704780B400AF4FF0B043D3F807
:103E5000943003F08053B3F1805F01D1012300E07F
:103E600000231846BD465DF8047B704780B485B0DA
:103E700000AF78604FF0B043DA6C4FF0B0417B6830
:103E80001343CB644FF0B043DA6C7B681340FB60A4
:103E9000FB6800BF1437BD465DF8047B704780B4F3
:103EA00085B000AF78604FF0B0431A6D4FF0B0416D
:103EB0007B6813430B654FF0B0431A6D7B6813406A
:103EC000FB60FB6800BF1437BD465DF8047B70479C
:103ED00080B483B000AF786039607B685A683B6813
:103EE0001B041A437B685A6000BF0C37BD465DF85F
:103EF000047B704780B483B000AF786039607B6822
:103F00005A683B681A437B685A6000BF0C37BD464D
:103F10005DF8047B704780B483B000AF786039608F
:103F20007B685A693B681B041A437B685A6100BF6F
:103F30000C37BD465DF8047B704780B483B000AF9A
:103F4000786039607B685A693B681A437B685A61BC
:103F500000BF0C37BD465DF8047B704780B483B06A
:103F600000AF786039607B683A689A6000BF0C37B0
:103F7000BD465DF8047B704780B483B000AF7860C5
:103F800039607B683A689A6100BF0C37BD465DF8BE
:103F9000047B704780B400AF054B1B69044A23F0D3
:103FA0000403136100BFBD465DF8047B704700BF8A
:103FB00000ED00E080B500AF494B4FF400421A61BC
:103FC00003F0D4FD02F06DFD02F057FD00F0D6F8CD
:103FD00002F04CFD02F0A7FD00F0E4FA00F04EF90B
:103FE00000F0F2F900F08AF900F090F900F02AFAF6
:103FF00000F03AFB3B4810F02DFC0BF0FDFC3A487A
:104000000BF02EFF0246394B1A6039480BF028FF9F
:104010000246384B1A6038480BF022FF0246374BF5
:104020001A6037480BF01CFF0246364B1A603648C0
:104030000BF016FF0246354B1A6035480BF010FFA7
:104040000246344B1A60344A042110200CF0ACF9BB
:104050000246324B1A60324A042110200CF0A4F9B7
:104060000246304B1A60304A002130480BF02EFDDA
:1040700002462F4B1A602F4A00212F480BF026FDD5
:1040800002462E4B1A602E4A00212E480BF01EFDD0
:1040900002462D4B1A602D4A00212D480BF016FDCB
:1040A00002462C4B1A602C4A00212C480BF00EFDC6
:1040B00002462B4B1A602B4A00212B480BF006FDC1
:1040C00002462A4B1A602A4A00212A480BF0FEFCBD
:1040D0000246294B1A60FDF7ABFE0BF0C1FCFEE770
:1040E00000400058A76318FA749B0108C8E002203A
:1040F000849B0108F4E10220949B010820E3022044
:10410000A49B010844E20220B49B010850E2022073
:10411000C49B010848E20220449B0108B0E202204F
:104120005C9B01087CE00220489A01086148000875
:10413000B4E202206C9A010849530008B8E2022058
:10414000909A0108C15C0008ECE10220B49A0108D1
:10415000655E0008F0E10220D89A010819610008A4
:1041600060E20220FC9A0108656200084CE202202D
:10417000209B01085D6700085CE2022080B5AEB0BC
:1041800000AF07F170034822002118460FF081FEAE
:1041900007F1540300221A605A609A60DA601A61CB
:1041A0005A619A613B1D5022002118460FF071FEA2
:1041B00005F04CF80020FFF7FBFD2F4B1B6823F4A4
:1041C000C0632D4A43F4007313602B4B1B6803F448
:1041D000C0633B603B6807233B674FF480337B67DA
:1041E0000123BB674FF48073FB674023C7F880301F
:1041F0000023C7F89C3007F17003184605F0C6FB92
:104200000346002B01D002F0D1FC6F237B65022313
:10421000BB650023FB6500233B6600237B66002310
:10422000BB660023FB6607F154030121184605F025
:1042300039FF0346002B01D002F0B8FC43F603031C
:104240007B600023FB6100233B624FF480737B643F
:104250004FF48043BB640223FB6410233B653B1D8A
:10426000184606F07AFB0346002B01D002F09EFCB4
:1042700000BFB837BD4680BD0004005880B500AF10
:104280001B4B1C4A1A601A4B1B4A5A60184B0022DF
:104290009A60174B0122DA60154B00221A61144B09
:1042A00000225A61124B00229A61114B0022DA61FE
:1042B0000F4B00221A620E4804F000F80346002B50
:1042C00001D002F073FC0021094804F027FF0346E7
:1042D000002B01D002F06AFC0021054804F069FFC0
:1042E0000346002B01D002F061FC00BF80BD00BF7F
:1042F000F8E1022000540040380F300080B400AFD5
:1043000000BFBD465DF8047B7047000080B586B0F5
:1043100000AF2B4B2B4A1A60294B00225A60284BC6
:104320007F229A60264BFF22DA60254B00221A6119
:10433000234B00229A61224B0022DA61204B00229B
:104340005A611F4806F08FFD0346002B01D002F092
:104350002DFC3B1D00221A605A609A60DA601A61D7
:1043600000233B6011233B7159237B712923BB71CF
:104370000023BB6000233B6100237B613B1D0122C6
:1043800019460F4806F00DFE0346002B01D002F03F
:104390000DFC02233B7003237B702923BB70202379
:1043A000FB703B4601221946054806F01AFF0346FA
:1043B000002B01D002F0FAFB00BF1837BD4680BDCC
:1043C000A4E002200028004080B500AF1B4B1C4A2F
:1043D0001A601A4B4FF482725A60184B4FF4004225
:1043E0009A60164B4FF4E062DA60144B00221A61B7
:1043F000124B00225A61114B4FF400729A610F4B1D
:104400000022DA610D4B00221A620C4B00225A6224
:104410000A4B00229A62094B0722DA62074B0022FC
:104420001A63064B08225A63044807F097F80346BC
:10443000002B01D002F0BAFB00BF80BDBCE202201D
:104440000030014080B59CB000AF07F1600300224E
:104450001A605A609A60DA6007F1540300221A6009
:104460005A609A6007F1380300221A605A609A6015
:10447000DA601A615A619A613B1D342200211846A4
:104480000FF007FD454B464A1A60444B00225A6024
:10449000424B00229A60414B6422DA603F4B00227B
:1044A0001A613E4B00225A613C4B00229A613B4804
:1044B00007F0C2FB0346002B01D002F077FB4FF45C
:1044C00080533B6607F160031946344808F04EF804
:1044D0000346002B01D002F069FB304807F052FC84
:1044E0000346002B01D002F061FB00237B65002313
:1044F000BB650023FB6507F154031946274808F004
:10450000BBFC0346002B01D002F050FB6023BB63D1
:104510006423FB6300233B6400237B640423BB64AC
:104520000023FB6400233B6507F138030022194692
:104530001A4807F00BFF0346002B01D002F036FBB0
:1045400000237B600023BB600023FB6000233B61F2
:1045500000237B614FF40053BB610023FB61002308
:104560003B6200237B624FF00073BB620023FB625F
:1045700000233B6300237B633B1D1946074808F07B
:10458000DBFC0346002B01D002F010FB034802F0D5
:1045900089FD00BF7037BD4680BD00BF64E20220C8
:1045A000002C014080B586B000AF3B1D00221A6090
:1045B0005A609A60DA601A610420FFF757FC022003
:1045C000FFF754FC0120FFF751FC00220121244891
:1045D00003F020FE01237B600123BB600023FB600E
:1045E00000233B613B1D19461D4803F08BFC38231B
:1045F0007B601C4BBB600123FB603B1D19461848C8
:1046000003F080FC10237B600123BB600123FB606F
:104610003B1D19464FF0904003F074FC012210211D
:104620004FF0904003F0F6FD00220F21092003F027
:1046300017FC092003F02EFC00220F210A2003F0B2
:104640000FFC0A2003F026FC00220F21172003F0A4
:1046500007FC172003F01EFC00BF1837BD4680BDC5
:104660000004004800003110B0B58AB000AF3D4BE7
:1046700010221A703B4B22225A703A4B2D229A700C
:10468000384B4B22DA7007F11403012219463648E1
:1046900006F04BFD07F1100301221946324806F0DF
:1046A0004EFE304B1C1D07F114050FCD0FC42B68B7
:1046B00023602C4A3B6993612A4B03F11C0407F1E8
:1046C00014050FCD0FC42B682360264A3B69136382
:1046D000244B4FF000025A63224B4FF000029A63C2
:1046E000204B4FF00002DA631E4B4FF000021A64B9
:1046F0001C4B002283F844201A4B002283F84820E8
:104700001A4A3B1D07CA03C31A803B1D1846FBF714
:1047100037FD03465A1C3B1D1946154810F012F987
:104720003B1D1846FBF72CFD0346DAB20D4B83F810
:10473000C9201C2200210F480FF0ABFB094B0022BF
:1047400083F8E820074B002283F8EC20054B002279
:1047500083F8ED20034B002283F8EE2000BF2837BA
:10476000BD46B0BDCCE00220A4E00220D088010804
:1047700015E1022098E1022080B582B000AF10F070
:104780008DF802460C4BDB7819460B4B9B78CB1A05
:1047900092FBF3F103FB01F3D31A7B60064B9A788B
:1047A0007B68DBB21344DAB2034B83F8EC2000BF22
:1047B0000837BD4680BD00BFCCE0022080B586B082
:1047C00002AF0346FB800023FB600C4B1868F9889E
:1047D00007F10C030093002303220EF04DFEFB684B
:1047E000002B07D0064B4FF080521A60BFF34F8F5B
:1047F000BFF36F8F00BF1037BD4680BDECE10220D4
:1048000004ED00E080B582B000AF114B1B684FF0A3
:10481000FF3118460BF0BEFB01220E490E4806F090
:1048200084FC0346FB7101220C490B4806F087FD0E
:104830000346BB71064B1B6818460BF009FCFA795E
:10484000BB791343DBB218460837BD4680BD00BFB5
:1048500020E30220E8E00220A4E00220FCE00220A5
:10486000B0B5F6B002AF3B1D186001220121CE4861
:1048700003F0D0FCFDF77AFD07F154031846FDF76D
:10488000DDFD07F154030193012300930C23C74A74
:104890000A210020FDF774FF07F15403019301235F
:1048A00000930C23C24A1C210020FDF769FF07F189
:1048B00054031846FDF7A5FF40F6B8300BF0A2FAF6
:1048C00007F154031846FDF7B9FD07F154031846E4
:1048D000FDF797FF4FF6FF73A7F8BE314FF6FF7352
:1048E000A7F8CE314FF6FF73A7F8CC3107F12C03B0
:1048F000184628231A4600210FF0CBFA002387F828
:10490000CB31002387F8C231FFF716F90346012B9C
:104910000CD1A84AA84B144607CB20606160A26066
:104920001B782373A54B062283F84420FFF7E0F998
:104930000346A7F8BE31B7F9BE31B3F1FF3F00F02F
:10494000D48197F8C231002B40F0918007F15403D5
:104950001846FDF773FD994B93F84430032B46D866
:1049600001A252F823F000BFB7490008D749000858
:10497000794900089F490008914B186800230222DA
:1049800000210EF0C3FC07F15403019301230093AF
:104990000C238C4A00210020FDF7F2FE27E007F1EE
:1049A00054030193012300930C23874A0021002024
:1049B000FDF7E6FE1BE0854B1B684FF0FF31184604
:1049C0000BF0E8FA7D4B012283F844207F4B1B68F3
:1049D00018460BF03DFB07F15403019301230093AC
:1049E0000C23784A00210020FDF7CAFE00BF734B5C
:1049F00093F84430012B04D0704B93F84430022BD1
:104A000020D1734B1B684FF0FF3118460BF0C2FAF0
:104A100007F11002694B15461C1D0FCC0FC523680A
:104A20002B606B4B1B6818460BF012FB07F1100351
:104A30001B78184606F040FD034687F8C531002371
:104A400087F8BD31002387F8C3310CE097F8C32104
:104A500007F12C03B7F8BE1123F8121097F8C331F1
:104A6000013387F8C33197F8C331132BEED90123F3
:104A700087F8C23197F8CB2107F12C03B7F8BE11A4
:104A800023F8121097F8CB315A1C524B83FB0213B8
:104A9000D910D317C91A0B469B000B449B00D11A9F
:104AA0000B4687F8CB310023A7F8CE313C23A7F87B
:104AB000C8310023A7F8C631002387F8C33135E099
:104AC00097F8C32107F12C0333F912309AB2B7F8E3
:104AD000CE3113449BB2A7F8CE3197F8C32107F12A
:104AE0002C0333F91230B7F9C8219A4207DD97F841
:104AF000C32107F12C0333F81230A7F8C83197F817
:104B0000C32107F12C0333F91230B7F9C6219A42B9
:104B100007DA97F8C32107F12C0333F81230A7F80E
:104B2000C63197F8C331013387F8C33197F8C331E1
:104B3000132BC5D9B7F9C621B7F9C831D31A042B3D
:104B400004DDB7F8BE31A7F8CE3109E0B7F9CE31B0
:104B5000204A82FB0312D210DB17D31AA7F8CE31FA
:104B6000B7F9CC21B7F9CE319A423FF4DFAE134BFF
:104B700093F84430012BC0F2B380022B6BDD032B82
:104B800040F0AE8007F154031846FDF770FC0B4B64
:104B900093F8E83001332D2292FBF3F387F8C43108
:104BA000002387F8C33149E000040048D088010899
:104BB000F8880108C0E1022008890108CCE0022041
:104BC000B8E202201889010815E1022050E2022013
:104BD00020E3022067666666B7F9CE2197F8C331F5
:104BE00097F8C41101FB03F30F339A4221DBB7F9A5
:104BF000CE2197F8C331013397F8C41101FB03F3B9
:104C00000F339A4215DAAC4B93F8E8305A1E97F8F6
:104C1000C331D31AA84A32339B0013445A6807F1B0
:104C200054030193012300930C231C210020FDF762
:104C3000A7FD97F8C331013387F8C3319E4B93F832
:104C4000E83097F8C3219A42C6D307F154031846B7
:104C5000FDF7D7FD44E0B7F9CE310E2B19DCB7F9DB
:104C6000CE31002B15DBB7F9CC312D2B11DD97F8A8
:104C7000C5315A1C914B83FB02139910D317C91AE3
:104C80000B465B000B44DB00D11A0B4687F8C5319D
:104C900014E0B7F9CE312D2B10DDB7F9CC310E2B46
:104CA0000CDC97F8C531002B03D1172387F8C531E9
:104CB00004E097F8C531013B87F8C53197F8C52165
:104CC000B7F9CE3107F124007D490FF01BFE07F143
:104CD000540207F1240311461846FDF745FE00BFB4
:104CE000B7F8CE31A7F8CC3120E697F8C231002BC7
:104CF00000F0C88097F8C231013387F8C23197F8C5
:104D0000C231272B40F2BA80FF2387F8C1316A4BAA
:104D100093F84430022B57D0032B02D0012B73D0D1
:104D20009BE0002387F8C33125E0B7F9CC2197F841
:104D3000C33197F8C41101FB03F30F339A4215DB1B
:104D4000B7F9CC2197F8C331013397F8C41101FBAF
:104D500003F30F339A4209DA574B93F8E82097F898
:104D6000C331D31ADBB2013B87F8C13197F8C331A5
:104D7000013387F8C331504B93F8E83097F8C321DB
:104D80009A42D2D307F1080305221A704A4B93F8CE
:104D900048301B021AB297F8C1311BB213431BB241
:104DA0009AB207F108035A80464B186807F10801C8
:104DB000002300220BF07EFB434B186800230222E5
:104DC00000210EF0A3FA48E007F1080303221A704D
:104DD00097F8C5311B021AB2B7F8CC3113431BB296
:104DE0009AB207F108035A80364B186807F1080198
:104DF000002300220BF05EFB334B186800230222D5
:104E000000210EF083FA28E007F1080303221A704C
:104E100097F8C5311B021AB2B7F8CC3113431BB255
:104E20009AB207F108035A80264B186807F1080167
:104E3000002300220BF03EFB244B1B684FF0FF3198
:104E400018460BF0A7F81C4B052283F844201F4B93
:104E50001B6818460BF0FCF800BF002387F8C2312E
:104E60004FF6FF73A7F8CC3107F154031846FDF74E
:104E7000E5FA07F154031846FDF7C3FC32200AF0A7
:104E8000C1FF53E50C4B93F84430072B00F2198215
:104E900001A252F823F000BF87520008C352000855
:104EA000EB51000855520008D14E0008235000086D
:104EB00075510008A1510008CCE00220ABAAAA2A33
:104EC000DC880108B0E20220B8E2022050E20220B1
:104ED00007F154031846FDF7B1FA07F154030193A3
:104EE000012300930C23CD4A00210020FDF748FC4C
:104EF00007F154030193012300930C23C84A1421A2
:104F00000020FDF73DFC07F154031846FDF779FC3E
:104F10004FF47A700AF076FFC24B1B684FF0FF31F6
:104F200018460BF037F807F1100301221946BE4866
:104F300006F0FBF807F10C0301221946BA4806F007
:104F4000FEF9B84B1B6818460BF082F807F1100306
:104F50001B78184606F0B0FA034687F8C53107F10A
:104F600010035B78184606F0A7FA034687F8BD31B0
:104F700097F8C52197F8BD3107F12400AB490FF030
:104F8000C1FC07F124031846FDF773FCA84B1B680E
:104F90004FF0FF3118460AF0FDFFA64B07F1100253
:104FA0001C1D15460FCD0FC42B682360A14A07F1C5
:104FB0000C031B6893619E4B1B6818460BF048F866
:104FC00007F1080304221A7007F1080300225A802F
:104FD000994B186807F10801002300220BF06AFAC8
:104FE000FFF7CAFB954B1B684FF0FF3118460AF0DC
:104FF000D1FF904B002283F84420904B1B68184649
:105000000BF026F840F6B8300AF0FCFE07F1540326
:105010001846FDF713FA07F154031846FDF7F1FBA4
:1050200054E107F154031846FDF708FA07F1540359
:105030000193012300930C23814A00210020FDF7F6
:105040009FFB07F154030193012300930C23744A3F
:1050500014210020FDF794FB07F154031846FDF7D7
:10506000D0FB4FF47A700AF0CDFE6E4B1B684FF008
:10507000FF3118460AF08EFF07F11003012219468E
:10508000694806F052F807F10C03012219466648F8
:1050900006F055F9634B1B6818460AF0D9FF07F173
:1050A00010031B78184606F007FA034687F8C53147
:1050B00007F110035B78184606F0FEF9034687F8FF
:1050C000BD3197F8C52197F8BD3107F12400574944
:1050D0000FF018FC07F124031846FDF7CAFB544BE8
:1050E0001B684FF0FF3118460AF054FF514B07F18F
:1050F00010021C1D15460FCD0FC42B6823604D4AAE
:1051000007F10C031B689361494B1B6818460AF0B2
:105110009FFF07F1080304221A7007F10803002219
:105120005A80454B186807F10801002300220BF054
:10513000C1F9FFF721FB414B1B684FF0FF311846C7
:105140000AF028FF3B4B002283F844203B4B1B68AE
:1051500018460AF07DFF40F6B8300AF053FE07F11A
:1051600054031846FDF76AF907F154031846FDF792
:1051700048FBABE007F154031846FDF75FF907F170
:1051800054030193012300930C232E4A0C21002089
:10519000FDF7F6FA07F154031846FDF732FBFEE778
:1051A00007F154031846FDF749F907F15403019339
:1051B000012300930C23244A0A210020FDF7E0FA82
:1051C00007F154030193012300930C231F4A1C2170
:1051D0000020FDF7D5FA07F154031846FDF711FB3F
:1051E0004FF4FA700AF00EFE70E007F1540318460F
:1051F000FDF724F907F154030193012300930C23D5
:10520000134A00210020FDF7BBFA07F154031846AA
:10521000FDF7F7FA64200AF0F5FD57E02889010848
:1052200034890108C8E00220A4E00220DC880108DB
:1052300020E30220CCE00220B0E2022050E2022073
:1052400044890108C0E10220508901085C890108F5
:105250001889010807F154031846FDF7EFF807F124
:1052600054030193012300930C23194A00210020C9
:10527000FDF786FA07F154031846FDF7C2FA6420D9
:105280000AF0C0FD22E0FA200AF0BCFD114B93F8B1
:10529000ED30002B19D007F154031846FDF7CEF876
:1052A00007F154030193012300930C230A4A0E21B2
:1052B0000020FDF765FA07F154031846FDF7A1FA3F
:1052C00003E014200AF09EFD00E000BFFFF72EBBB4
:1052D00015E10220CCE002206889010880B584B085
:1052E00000AF0346FB71174B1B78184606F0E4F835
:1052F0000346FB73134B5B78184606F0DDF8034654
:10530000BB73FA7BBB7B9A420CD2FA79FB7B9A4245
:1053100005D3FA79BB7B9A4201D2012300E0002336
:10532000DBB20BE0FA79FB7B9A4203D2FA79BB7BC2
:105330009A4201D2012300E00023DBB21846103765
:10534000BD4680BDCCE00220B0B592B000AF786021
:10535000022387F8283000237B8544F620600AF07A
:1053600051FDA74B1B684FF0FF3118460AF012FEA3
:1053700007F1140301221946A24805F0D6FE07F1F1
:105380001003012219469F4805F0D9FF9C4B1B686A
:1053900018460AF05DFE3B7D184606F08DF8034680
:1053A00087F83D307B7D184606F086F8034687F87F
:1053B0003C30FB7C1A047B7C1B021343BA7C1343F6
:1053C000BB63914B1B7F184606F076F8034687F8BF
:1053D00037308D4B5B7F184606F06EF8034687F832
:1053E0003630894B93F833301A04874B93F83130B9
:1053F0001B021343844A92F8322013433B63012378
:1054000087F8433097F83D309BB21A461201D31A01
:105410009B009AB297F83C309BB21344FB8597F8F7
:1054200037309BB21A461201D31A9B009AB297F8F2
:1054300036309BB213449AB2734B93F8EC309BB264
:105440001344A7F84030B7F84030B3F5B46F0FD32A
:10545000B7F840305A096D49A1FB02124FF4B4610C
:1054600001FB02F29B1AA7F84030002387F8433073
:10547000654B93F84430002B40F0CA83624B93F89D
:10548000ED30002B40F0C48397F83D301846FFF70D
:1054900025FF0346002B00F0BB83FA8DB7F84030A0
:1054A0009A42C0F0B58397F84330B96B3A6B91429A
:1054B0008CBF01220022D2B21343002B00F0A8833C
:1054C000534B186807F12801002300220AF0F2FF6D
:1054D000504B1B684FF0FF3118460AF05BFD4A4BFA
:1054E000022283F844204B4B1B6818460AF0B0FD9B
:1054F00000200EF099F8012387F83F30012387F848
:105500003E3020E0444B18680023022200210DF0B9
:10551000FDFE41F2707101200DF056FE78647B6C47
:10552000002B02D0002387F83E30374B93F84430ED
:10553000022B05D0002387F83E30002387F83F3048
:105540000A200AF05FFC97F83E30002BDAD197F87A
:105550003F30002B0DD04AF6C87101200DF034FE0B
:105560007864294B93F84430022B02D0002387F84B
:105570003F3097F83F30002B6BD07B6C002B55D021
:10558000264B1B684FF0FF3118460AF003FD244AF2
:10559000244B03CB1060516019889B781181937262
:1055A000194B0A2283F8C920174B012283F848209F
:1055B000154B1D4A03F1CC0415460FCD0FC40FCD7A
:1055C0000FC495E8070084E807000F4B052283F815
:1055D000E820124B1B6818460AF03AFD0D4B1B6879
:1055E0004FF0FF3118460AF0D5FC074B032283F831
:1055F0004420084B1B6818460AF02AFD29E000BF2A
:10560000C8E00220A4E00220CCE00220065BB00546
:10561000B0E2022050E20220F0E1022048E2022043
:1056200015E102207489010898990108002387F880
:105630003F30B24B1B684FF0FF3118460AF0AAFC0E
:10564000AF4B072283F84420AC4B1B6818460AF086
:10565000FFFC97F83F30002B0DD04AF6C8710120AF
:105660000DF0B2FD7864A64B93F84430032B02D0C2
:10567000002387F83F3097F83F30002B42D07B6CF7
:10568000002B2CD09F4B1B684FF0FF3118460AF0BF
:1056900081FC9D4A9D4B144607CB20606160A2604F
:1056A000974B0B2283F8C920954B022283F84820A0
:1056B000934B974A03F1CC0415460FCD0FC40FCD81
:1056C0000FC495E8070084E807008D4B052283F896
:1056D000E8208C4B1B6818460AF0BAFC12E0002345
:1056E00087F83F30854B1B684FF0FF3118460AF0B2
:1056F00051FC834B072283F84420804B1B681846DB
:105700000AF0A6FC97F83F30002B0DD04AF6C8717E
:1057100001200DF059FD7864794B93F84430032B48
:1057200002D0002387F83F3097F83F30002B44D059
:105730007B6C002B2ED0734B1B684FF0FF3118464B
:105740000AF028FC704A734B03CB10605160198833
:105750009B78118193726A4B0A2283F8C920684BA7
:10576000032283F84820664B6B4A03F1CC041546AC
:105770000FCD0FC40FCD0FC495E8070084E80700D4
:105780005F4B052283F8E8205E4B1B6818460AF041
:105790005FFC12E0002387F83F30584B1B684FF046
:1057A000FF3118460AF0F6FB554B072283F84420D8
:1057B000524B1B6818460AF04BFC97F83F30002B01
:1057C0000DD04AF6C87101200DF0FEFC78644C4BF8
:1057D00093F84430032B02D0002387F83F3097F82A
:1057E0003F30002B44D07B6C002B2ED0454B1B68E8
:1057F0004FF0FF3118460AF0CDFB434A474B1446A1
:1058000007CB20606160A2601B7823733C4B0C22A5
:1058100083F8C9203A4B042283F84820384B3C4A8D
:1058200003F1CC0415460FCD0FC40FCD0FC495E87E
:10583000070084E80700324B052283F8E820314B4B
:105840001B6818460AF004FC12E0002387F83F307A
:105850002A4B1B684FF0FF3118460AF09BFB284B80
:10586000072283F84420254B1B6818460AF0F0FBFA
:1058700097F83F30002B0DD04AF6C87101200DF08B
:10588000A3FC78641E4B93F84430032B02D0002312
:1058900087F83F3097F83F30002B56D07B6C002BB9
:1058A00040D0184B1B684FF0FF3118460AF072FBCE
:1058B000154A1B4B03CB106051601B881381104BA2
:1058C000092283F8C9200E4B082283F848200C4B8C
:1058D0000F4A03F1CC0415460FCD0FC40FCD0FC4F2
:1058E00095E8070084E80700054B052283F8E820C7
:1058F000044B1B6818460AF0ABFB26E050E202207E
:10590000CCE0022048E2022015E102208089010853
:10591000989901088C8901086C99010898890108F7
:10592000A8890108002387F83F30AF4B1B684FF070
:10593000FF3118460AF02EFBAC4B072283F84420B7
:10594000A94B1B6818460AF083FB97F83F30002BE1
:105950000DD04AF6C87101200DF036FC7864A34BD7
:1059600093F84430032B02D0002387F83F3097F898
:105970003F30002B44D07B6C002B2ED09C4B1B68FF
:105980004FF0FF3118460AF005FB9A4A9A4B03CBB9
:105990001060516019889B7811819372934B0A2291
:1059A00083F8C920914B062283F848208F4B934AF5
:1059B00003F1CC0415460FCD0FC40FCD0FC495E8ED
:1059C000070084E80700894B022283F8E820884B0F
:1059D0001B6818460AF03CFB12E0002387F83F30B2
:1059E000814B1B684FF0FF3118460AF0D3FA7F4B0A
:1059F000072283F844207C4B1B6818460AF028FBDA
:105A000097F83F30002B0DD04AF6C87101200DF0F9
:105A1000DBFB7864754B93F84430032B02D00023F2
:105A200087F83F3097F83F30002B42D07B6C002B3B
:105A30002CD06F4B1B684FF0FF3118460AF0AAFAC2
:105A40006C4A6F4B144607CB20606160A260674BC5
:105A50000B2283F8C920654B0A2283F84820634B48
:105A6000684A03F1CC0415460FCD0FC40FCD0FC407
:105A700095E8070084E807005C4B072283F8E820DC
:105A80005B4B1B6818460AF0E3FA12E0002387F824
:105A90003F30554B1B684FF0FF3118460AF07AFA39
:105AA000524B072283F844204F4B1B6818460AF0DC
:105AB000CFFA97F83F30002B0DD04AF6C87101207D
:105AC0000DF082FB7864494B93F84430032B02D0ED
:105AD000002387F83F3097F83F30002B44D07B6C91
