:020000040800F2
:1000000000000320151B0008C9700008D770000805
:10001000DD700008E3700008E970000800000000CF
:10002000000000000000000000000000B106010810
:10003000EF70000800000000F108010859090108EC
:10004000691B0008691B0008691B00085D71000836
:10005000691B0008691B0008691B0008691B000870
:10006000691B00081D7100082B710008691B00083E
:10007000691B0008691B0008691B0008691B000850
:10008000691B0008691B0008691B0008691B000840
:10009000691B0008691B0008691B0008397100080A
:1000A000691B000849710008FD700008691B000801
:1000B000691B0008691B0008691B0008691B000810
:1000C000691B0008691B0008691B0008691B000800
:1000D000691B0008691B0008691B0008691B0008F0
:1000E000691B0008691B0008691B0008691B0008E0
:1000F000757100086971000811710008691B00081A
:10010000691B0008691B0008691B0008691B0008BF
:10011000691B0008691B0008691B0008691B0008AF
:10012000691B0008691B0008691B0008691B00089F
:0C013000691B0008691B0008691B00081F
:1001400010B5054C237833B9044B13B10448AFF311
:1001500000800123237010BD700300200000000008
:10016000347A010808B5034B1BB103490348AFF3C8
:10017000008008BD0000000074030020347A0108EC
:10018000034613F8012B002AFBD1181A01387047D7
:1001900001F0FF01102A2BDB10F0070F08D010F838
:1001A000013B013A8B422DD010F0070F42B3F6D13C
:1001B000F0B441EA012141EA014122F007047FF055
:1001C00000070023F0E80256083C85EA010586EAAC
:1001D000010685FA47F5A3FA87F586FA47F6A5FAE8
:1001E00087F68EB9EED1F0BC01F0FF0102F00702F4
:1001F00032B110F8013B013A83EA010313B1F8D19F
:100200000020704701387047002D06BF354603387F
:10021000073815F0010F07D1013015F4807F02BFB8
:10022000013015F4C03F0130F0BC0138704700BF09
:1002300081F0004102E000BF83F0004330B54FEA97
:1002400041044FEA430594EA050F08BF90EA020F04
:100250001FBF54EA000C55EA020C7FEA645C7FEA97
:10026000655C00F0E2804FEA5454D4EB5555B8BFBA
:100270006D420CDD2C4480EA020281EA030382EA2B
:10028000000083EA010180EA020281EA0303362DBD
:1002900088BF30BD11F0004F4FEA01314FF4801C90
:1002A0004CEA113102D0404261EB410113F0004FA2
:1002B0004FEA03334CEA133302D0524263EB430359
:1002C00094EA050F00F0A780A4F10104D5F1200EF7
:1002D0000DDB02FA0EFC22FA05F2801841F1000152
:1002E00003FA0EF2801843FA05F359410EE0A5F126
:1002F00020050EF1200E012A03FA0EFC28BF4CF057
:10030000020C43FA05F3C01851EBE37101F000450C
:1003100007D54FF0000EDCF1000C7EEB00006EEB19
:100320000101B1F5801F1BD3B1F5001F0CD34908A3
:100330005FEA30004FEA3C0C04F101044FEA4452FA
:1003400012F5800F80F09A80BCF1004F08BF5FEA81
:10035000500C50F1000041EB045141EA050130BD61
:100360005FEA4C0C404141EB010111F4801FA4F104
:100370000104E9D191F0000F04BF01460020B1FA59
:1003800081F308BF2033A3F10B03B3F120020CDA91
:100390000C3208DD02F1140CC2F10C0201FA0CF06F
:1003A00021FA02F10CE002F11402D8BFC2F1200CD4
:1003B00001FA02F120FA0CFCDCBF41EA0C0190408A
:1003C000E41AA2BF01EB0451294330BD6FEA0404D3
:1003D0001F3C1CDA0C340EDC04F11404C4F12002BE
:1003E00020FA04F001FA02F340EA030021FA04F3D0
:1003F00045EA030130BDC4F10C04C4F1200220FA27
:1004000002F001FA04F340EA0300294630BD21FA64
:1004100004F0294630BD94F0000F83F4801306BF2A
:1004200081F480110134013D4EE77FEA645C18BF1E
:100430007FEA655C29D094EA050F08BF90EA020FB5
:1004400005D054EA000C04BF1946104630BD91EAAD
:10045000030F1EBF0021002030BD5FEA545C05D1B0
:100460004000494128BF41F0004130BD14F58004EF
:100470003CBF01F5801130BD01F0004545F0FE4163
:1004800041F470014FF0000030BD7FEA645C1ABF98
:10049000194610467FEA655C1CBF0B46024650EACF
:1004A000013406BF52EA033591EA030F41F40021FB
:1004B00030BD00BF90F0000F04BF0021704730B581
:1004C0004FF4806404F132044FF000054FF0000156
:1004D00050E700BF90F0000F04BF0021704730B517
:1004E0004FF4806404F1320410F0004548BF4042EC
:1004F0004FF000013EE700BF42004FEAE2014FEA41
:1005000031014FEA02701FBF12F07F4393F07F4F1B
:1005100081F06051704732F07F4208BF704793F01E
:100520007F4F04BF41F40021704730B54FF4607431
:1005300001F0004521F000411CE700BF50EA010234
:1005400008BF704730B54FF000050AE050EA0102DD
:1005500008BF704730B511F0004502D5404261EB4D
:1005600041014FF4806404F132045FEA915C3FF48E
:10057000D8AE4FF003025FEADC0C18BF03325FEA2B
:10058000DC0C18BF033202EBDC02C2F1200300FADC
:1005900003FC20FA02F001FA03FE40EA0E0021FA01
:1005A00002F11444BDE600BF70B54FF0FF0C4CF4EF
:1005B000E06C1CEA11541DBF1CEA135594EA0C0FA1
:1005C00095EA0C0F00F0DEF82C4481EA030621EADC
:1005D0004C5123EA4C5350EA013518BF52EA033517
:1005E00041F4801143F4801338D0A0FB02CE4FF0C9
:1005F0000005E1FB02E506F00042E0FB03E54FF0F9
:100600000006E1FB03569CF0000F18BF4EF0010EF0
:10061000A4F1FF04B6F5007F64F5407404D25FEAEC
:100620004E0E6D4146EB060642EAC62141EA55519F
:100630004FEAC52040EA5E504FEACE2EB4F1FD0CE1
:1006400088BFBCF5E06F1ED8BEF1004F08BF5FEA5F
:10065000500E50F1000041EB045170BD06F0004611
:1006600046EA010140EA020081EA0301B4EB5C04BE
:10067000C2BFD4EB0C0541EA045170BD41F48011B6
:100680004FF0000E013C00F3AB8014F1360FDEBFDB
:10069000002001F0004170BDC4F10004203C35DAB7
:1006A0000C341BDC04F11404C4F1200500FA05F33A
:1006B00020FA04F001FA05F240EA020001F00042DB
:1006C00021F0004110EBD37021FA04F642EB060151
:1006D0005EEA430E08BF20EAD37070BDC4F10C047B
:1006E000C4F1200500FA04F320FA05F001FA04F23F
:1006F00040EA020001F0004110EBD37041F100012B
:100700005EEA430E08BF20EAD37070BDC4F1200535
:1007100000FA05F24EEA020E20FA04F301FA05F29D
:1007200043EA020321FA04F001F0004121FA04F245
:1007300020EA020000EBD3705EEA430E08BF20EA15
:10074000D37070BD94F0000F0FD101F0004640004F
:1007500041EB010111F4801F08BF013CF7D041EAD1
:10076000060195F0000F18BF704703F000465200D5
:1007700043EB030313F4801F08BF013DF7D043EAA6
:100780000603704794EA0C0F0CEA135518BF95EA5C
:100790000C0F0CD050EA410618BF52EA4306D1D1E3
:1007A00081EA030101F000414FF0000070BD50EA02
:1007B000410606BF1046194652EA430619D094EA8C
:1007C0000C0F02D150EA013613D195EA0C0F05D176
:1007D00052EA03361CBF104619460AD181EA0301CA
:1007E00001F0004141F0FE4141F470014FF0000082
:1007F00070BD41F0FE4141F4780170BD70B54FF01D
:10080000FF0C4CF4E06C1CEA11541DBF1CEA13559C
:1008100094EA0C0F95EA0C0F00F0A7F8A4EB05047E
:1008200081EA030E52EA03354FEA013100F0888075
:100830004FEA03334FF0805545EA131343EA12633E
:100840004FEA022245EA111545EA10654FEA0026F3
:100850000EF000419D4208BF964244F1FD0404F5AC
:10086000407402D25B084FEA3202B61A65EB030508
:100870005B084FEA32024FF480104FF4002CB6EBC5
:10088000020E75EB030E22BFB61A754640EA0C0045
:100890005B084FEA3202B6EB020E75EB030E22BF85
:1008A000B61A754640EA5C005B084FEA3202B6EBC6
:1008B000020E75EB030E22BFB61A754640EA9C0085
:1008C0005B084FEA3202B6EB020E75EB030E22BF55
:1008D000B61A754640EADC0055EA060E18D04FEA13
:1008E000051545EA16754FEA06164FEAC30343EAB3
:1008F00052734FEAC2025FEA1C1CC0D111F4801F80
:100900000BD141EA00014FF000004FF0004CB6E778
:1009100011F4801F04BF01430020B4F1FD0C88BF17
:10092000BCF5E06F3FF6AFAEB5EB030C04BFB6EB22
:10093000020C5FEA500C50F1000041EB045170BD15
:100940000EF0004E4EEA113114EB5C04C2BFD4EB42
:100950000C0541EA045170BD41F480114FF0000EC6
:10096000013C90E645EA060E8DE60CEA135594EA42
:100970000C0F08BF95EA0C0F3FF43BAF94EA0C0F45
:100980000AD150EA01347FF434AF95EA0C0F7FF4BA
:1009900025AF104619462CE795EA0C0F06D152EA0E
:1009A00003353FF4FDAE1046194622E750EA4106F2
:1009B00018BF52EA43067FF4C5AE50EA41047FF403
:1009C0000DAF52EA43057FF4EBAE12E74FF0FF3C68
:1009D00006E000BF4FF0010C02E000BF4FF0010C39
:1009E0004DF804CD4FEA410C7FEA6C5C4FEA430CB2
:1009F00018BF7FEA6C5C1BD001B050EA410C0CBF01
:100A000052EA430C91EA030F02BF90EA020F002062
:100A1000704710F1000F91EA030F58BF994208BFC9
:100A200090422CBFD8176FEAE37040F00100704786
:100A30004FEA410C7FEA6C5C02D150EA013C07D1DD
:100A40004FEA430C7FEA6C5CD6D152EA033CD3D028
:100A50005DF8040B704700BF8446104662468C4622
:100A60001946634600E000BF01B5FFF7B7FF002855
:100A700048BF10F1000F01BD4DF808EDFFF7F4FF7E
:100A80000CBF012000205DF808FB00BF4DF808ED09
:100A9000FFF7EAFF34BF012000205DF808FB00BF2C
:100AA0004DF808EDFFF7E0FF94BF012000205DF84E
:100AB00008FB00BF4DF808EDFFF7CEFF94BF012003
:100AC00000205DF808FB00BF4DF808EDFFF7C4FFFC
:100AD00034BF012000205DF808FB00BF4FEA410C45
:100AE0007FEA6C5C02D150EA013C0AD14FEA430C28
:100AF0007FEA6C5C02D152EA033C02D14FF0000065
:100B000070474FF0010070474FEA410212F50012A2
:100B100015D211D56FF47873B3EB625212D94FEA44
:100B2000C12343F0004343EA505311F0004F23FA2E
:100B300002F018BF404270474FF00000704750EA83
:100B4000013005D111F0004008BF6FF00040704740
:100B50004FF00000704700BF4FEA4102B2F1E0439E
:100B600024BFB3F5001CDCF1FE5C0DD901F0004C94
:100B70004FEAC0024CEA5070B2F1004F40EB8300E4
:100B800008BF20F00100704711F0804F21D113F110
:100B90003872BCBF01F00040704741F480114FEA49
:100BA0005252C2F11802C2F1200C10FA0CF320FAD2
:100BB00002F018BF40F001004FEAC1234FEAD323EF
:100BC00003FA0CFC40EA0C0023FA02F34FEA430359
:100BD000CCE77FEA625307D150EA01331EBF4FF0E2
:100BE000FE4040F44000704701F0004040F0FE40FD
:100BF00040F40000704700BF80B400AF034B1B6897
:100C00001846BD465DF8047B704700BF8075FF1F26
:100C100080B400AF034B1B68DBB21846BD465DF8DD
:100C2000047B70478475FF1F80B400AF034B1B68C3
:100C30001B0A1846BD465DF8047B70478475FF1F8C
:100C4000B0B58CB000AF2B4B3C461D460FCD0FC44A
:100C50000FCD0FC495E80F0007C4237000F0FEF914
:100C60000121022013F032F8234A002123480EF01C
:100C7000ADFE0246224B1A603B4618460DF03AFA8A
:100C80000346002B01D005F011FF00F00FFA0CF025
:100C9000DDF91C4B002283F880201A4B4FF6FF72BF
:100CA000DA82194A002119480EF090FE0246184BCC
:100CB0001A60184B00221A70174B01221A7000F0AC
:100CC000A7FC164B00221649002002F0BDFB0D4B7D
:100CD00000225A760B4B00221A76124B80221A8081
:100CE000114BA0221A80012000F0BCFA00BF30375F
:100CF000BD46B0BD487B010844870108791400084F
:100D000074E00220F8010020208701085114000837
:100D1000A4E1022081E0022080E0022039140008D2
:100D2000790200207C0200207E02002080B58CB079
:100D300000AF7860422387F82F307B680133BB62B5
:100D4000BB6A1B783E2B28D0FF2B00F0A580052B1B
:100D500000D045E1BB6A02333B613B69B3F8013027
:100D60009AB2A24BDB8A9A4209D1A04B0022DA82C6
:100D70009E4B002283F880209D4813F0E3FC012065
:100D800000F070FA9B4B01221A70984BDA8A994B4B
:100D90005A80984800F024FC22E1BB6A0233FB61D0
:100DA000FB691B78032B04D00C2B06D0012B42D0FF
:100DB00071E0914813F0C6FC6DE0904813F0C2FC5E
:100DC000FB690133BB61BB691B78002B03D18C48E5
:100DD00013F0B8FC02E08B4813F0B4FC834BDB8AC1
:100DE00007F10E0207F10F0118460DF094F80346C3
:100DF00087F82F3097F82F30002B18D1824813F046
:100E0000A1FCFB7B022B0AD1BB7B022B07D1FB7B16
:100E10001946BB7B1A467D4813F020FC3BE0FB7B68
:100E20001946BB7B1A46794813F018FC33E0784822
:100E300013F088FC2FE0FB6901337B616B4B93F867
:100E40008130184602F076FB7B69B3F801309BB223
:100E50001946704813F002FC644B93F88030042B61
:100E600004D1624B062283F8802003E05F4B052209
:100E700083F880207B69B3F801309AB25B4BDA8249
:100E80005C4B00221A70594BDA8A5A4B5A805948E7
:100E900000F0A6FB00BFA3E0BB6A02337B627B6A63
:100EA0001B889BB240F2054293424AD040F2054271
:100EB000934218DC40F20242934233D040F20242A5
:100EC000934207DCB3F5806F28D040F20142934291
:100ED00069D084E040F2034293422AD040F20442B7
:100EE00093422AD07BE0B3F5816F3AD0B3F5816F9E
:100EF00008DC40F2064293422FD040F20742934270
:100F000069D06CE040F20A4293422ED040F20A428D
:100F100093422EDBB3F5006F5AD060E03E4813F0E9
:100F200011FC5CE03D4813F00DFC3D4813F00AFC59
:100F300055E03C4813F006FC51E03B4813F002FC3E
:100F40004DE03A4813F0FEFB284BDB8A18460CF0C4
:100F500018FC374813F0F6FB41E0364813F0F2FB7B
:100F60003DE0344813F0EEFB39E0334813F0EAFB80
:100F700035E07B6A0233D3F8023019462F4813F06C
:100F80006DFB7B6A0233D3F8023019462C4813F00C
:100F900065FB164BDB8A012118460CF03CFC294806
:100FA00013F0D0FB1BE07B6A02333B623B6A9B7809
:100FB0001946254813F052FB3B6A9B78002B03D15E
:100FC000224813F0BFFB0AE0214813F0BBFB06E008
:100FD000204B01221A70204813F0B4FB00BF00BF61
:100FE000012318463037BD4680BD00BFF801002000
:100FF000787B010878E00220A07B0108CC7B010807
:10100000E87B01080C7C0108347C0108487C01085D
:10101000647C01087C7C0108B07C0108DC7C010850
:10102000047D0108247D0108507D0108807D0108B0
:10103000A07D0108BC7D0108E07D01080C7E01084F
:10104000247E0108387E0108747E0108CC7E0108E8
:10105000E07E010880E00220F47E010880B582B0C5
:1010600000AF00200EF07CFE02460B4B1A600022FF
:10107000002101200EF0BCFF0246084B1A60084B0D
:101080003B60084B7B603B46194607480DF060F813
:1010900000BF0837BD4680BDA0E0022070E00220FE
:1010A0002800032031150008F9140008F0B58FB0AE
:1010B00006AF4FF450733B800CF009FF00F078F955
:1010C000F861FA69062100200CF041FEFB695A79AB
:1010D0005C4B1A72FB691A795A4B5A72FB69DA78BF
:1010E000584B9A72FB699A78564BDA72FB695A78B8
:1010F000544B1A73FB691A78524B5A73524A102197
:1011000018200CF024FE514A102108200CF01FFE7C
:101110004EF66E53BB60FFF76FFD03467B603B1DD1
:101120001A4606212E200CF012FE474A10211820E4
:101130000CF00DFE454A102108200CF008FE182185
:1011400001200CF06DFE0CF0BDFB0023FB76FB7E56
:1011500043F00103FB76FB7E002B24D03C4B7B61EC
:1011600007F11202F87E07F10E03019307F1100355
:1011700000931346072200210CF0F8F97C8A3D8A7F
:101180007869FEF7FDFF0346DAB27B6900931346E8
:101190000022294620460CF053FD0346002B02D0C6
:1011A0002C4813F0CFFA788AF9893B460093022342
:1011B00000220CF045FD0346002B02D0264813F018
:1011C000C1FA0222022100200CF00DFF234B012264
:1011D0001A70224B1B7818460CF0D6F81F4B0122D0
:1011E0005A701E4B08221A711C4B10225A711B4B4D
:1011F0000022DA70194B1A4A9A60184B01229A7031
:10120000164B9D78154B5E78144B1B79134A527917
:101210001249C9781148806800240494039002910F
:101220000192009300230122314628460CF0F6F883
:101230000A4B9B78002B01D00CF07FFA00BF2437BB
:10124000BD46F0BD04000020F886010808870108AB
:101250001C7F0108247F0108547F0108F801002049
:1012600007B2010080B58CB008AF0346FB71422382
:10127000FB72FB79012B06D13F4B1B88FB813F4B57
:101280001B88BB8105E04FF4C863FB814FF47A6390
:10129000BB813B4B93F88130184602F04BF9384B39
:1012A00093F880301946374813F0D8F9FB79022BB0
:1012B00019D1334B93F88030012B04D0304B93F885
:1012C0008030022B0FD10BF05DFF0346FB72FB7ADF
:1012D000002B03D12C4813F035FA04E0FB7A1946B1
:1012E0002A4813F0BBF9264AFB7982F88030244B58
:1012F0001B7EB889F9890022069200220592244AB1
:1013000004920393234B0293082301930023009339
:101310000023024600200BF059FF0346FB721E49D2
:101320000E200CF0AEF90346FB72FB7A002B11D1B4
:10133000FB79012B0AD1194813F004FA104B93F8EA
:1013400081301749184602F07FF912E0154813F072
:10135000F9F90EE0FB79012B05D1FB7A1946124809
:1013600013F07CF905E0FB7A1946104813F076F982
:1013700000BF1037BD4680BD7C0200207E020020E9
:10138000F8010020847F0108A07F0108C47F0108C4
:10139000110200201887010804000020EC7F0108DA
:1013A00046E00100148001084080010870800108B7
:1013B00080B586B000AFFFF71FFC38613B69B3F121
:1013C000FF3F23D0FFF730FCB860FFF721FC7860C7
:1013D0003B69DAB2164B1A703B691B0ADAB2144B3E
:1013E0005A703B691B0CDAB2114B9A707B68DAB207
:1013F0000F4BDA70BB68DAB20D4B1A71BB681B0A6F
:10140000DAB20B4B5A710A4B7B610BE000200DF0F6
:101410008DFDF860FB68002B02D0FB687B6101E06A
:10142000044B7B617B6918461837BD4680BD00BF01
:101430008C030020F086010880B500AF034B1B68C9
:10144000012118460EF068FB00BF80BDA4E1022018
:1014500080B582B000AF78604FF0FF3200210120EC
:101460000EF0BCFB00F001F8F6E780B500AF0220FB
:10147000FFF7F8FE00BF80BD80B582B000AF786096
:101480004FF0FF32002101200EF0A8FB0CF07CFE93
:10149000F6E7000080B582B000AF7860044B1B68AF
:1014A000012118460EF038FB00BF0837BD4680BD4D
:1014B00074E0022080B582B000AF7860044B1B68F6
:1014C00018460EF099FE00BF0837BD4680BD00BF2C
:1014D00070E0022080B582B000AF7860054B1B68D9
:1014E0004FF0FF3118460EF021FE00BF0837BD4611
:1014F00080BD00BF70E0022080B584B000AF78608E
:101500007B68FB60FB685B68083318460BF0E8FDFE
:101510000346FB72FB7A002B03D0FB6801221A7092
:1015200002E0FB6800221A7000BF1037BD4680BD84
:1015300080B582B000AF0346FB71FB79002B02D06F
:10154000012B08D00DE0094B1B684FF0FF31184606
:101550000EF0A0FC05E0054B1B6818460EF0F8FCE9
:1015600000BF00BF0837BD4680BD00BFA0E002201D
:1015700080B582B000AF78607B681B78012B0ED0FD
:10158000032B16D0002B00D01CE0104B01221A7048
:101590000F4813F0D7F80F4813F060F812E00B4B28
:1015A00000221A700C4813F0CDF80A4813F056F8D0
:1015B00008E00A4B18687B68191D002300220EF012
:1015C000F9FE00BF00BF0837BD4680BD88E002209D
:1015D000C8810108FC810108008201087CE002202A
:1015E00080B582B000AF78607B681B78002B02D09A
:1015F000012B04D006E0054B01225A7002E000F0F6
:1016000013F800BF00BF0837BD4680BD88E0022048
:1016100080B500AF034B00221A7000F005F800BF40
:1016200080BD00BF88E0022080B400AF034B0022E1
:101630005A7000BFBD465DF8047B704788E0022009
:1016400080B400AF054BDB68044A43F40043D36029
:1016500000BFBD465DF8047B704700BF0004005822
:1016600080B483B000AF7860064BD3F8D42005492E
:101670007B681343C1F8D43000BF0C37BD465DF81A
:10168000047B70470008005880B483B000AF7860D6
:10169000054B1A6A04497B6813430B6200BF0C3781
:1016A000BD465DF8047B70470008005880B485B0E3
:1016B00000AF78604FF0B0431A6D4FF0B0417B68D7
:1016C00013430B654FF0B0431A6D7B681340FB600A
:1016D000FB6800BF1437BD465DF8047B704780B4DB
:1016E00085B000AF78604FF0B043D3F850214FF091
:1016F000B0417B681343C1F850314FF0B043D3F889
:1017000050217B681340FB60FB6800BF1437BD4667
:101710005DF8047B704780B483B000AF78607B686D
:101720001B6843F480327B681A6000BF0C37BD46EB
:101730005DF8047B704780B483B000AF78607B684D
:101740001B6843F001027B681A6000BF0C37BD467E
:101750005DF8047B704780B483B000AF7860396077
:101760007B685A683B681B04DB431A407B685A60FD
:1017700000BF0C37BD465DF8047B704780B483B072
:1017800000AF786039607B685A683B681B041A4375
:101790007B685A6000BF0C37BD465DF8047B70471C
:1017A00080B483B000AF786039607B685A683B686A
:1017B000DB431A407B685A6000BF0C37BD465DF8BA
:1017C000047B704780B483B000AF786039607B6879
:1017D0003A689A6000BF0C37BD465DF8047B7047DD
:1017E00080B483B000AF786039603B681A047B68CE
:1017F0009A6000BF0C37BD465DF8047B704780B42B
:1018000083B000AF786039607B68DA683B6813406A
:101810003A689A4201D1012300E0002318460C37B0
:10182000BD465DF8047B704780B483B000AF78603C
:1018300039607B68DA693B6813403A689A4201D1A3
:10184000012300E0002318460C37BD465DF8047BF9
:101850007047000080B500AF02211948FFF7E4FF90
:101860000346002B09D0164B5B68DB4303F00203F1
:10187000002B02D000F0EAF81FE001211048FFF72A
:10188000D3FF0346002B08D00D4B5B6803F0010328
:10189000002B02D100F09EF80FE008210848FFF766
:1018A000C3FF0346002B09D0054B5B68DB4303F005
:1018B0000803002B02D000F015F900BF00BF80BD67
:1018C000000C005880B500AF02212248FFF797FFB7
:1018D0000346002B09D11F4B5B68DB4303F4003345
:1018E000002B02D000F0A6F831E002211948FFF7E2
:1018F00086FF0346002B09D1164B5B68DB4303F4DC
:101900000033002B02D000F095F820E008211148A8
:10191000FFF775FF0346002B09D10E4B5B68DB43D5
:1019200003F40023002B02D000F0BEF80FE02021CA
:101930000848FFF764FF0346002B09D1054B5B689D
:10194000DB4303F40013002B02D000F04FF800BF7C
:1019500000BF80BD000C005880B500AF4FF4801070
:10196000FFF7BDFE4FF40070FFF77AFE4FF40070F2
:10197000FFF78AFE40BF20BFFFF762FE00BF80BDB9
:1019800080B500AF4FF48010FFF790FE0648FFF7D8
:10199000D2FE0548FFF7BFFE2C2006F0FBF92D20F4
:1019A00006F0F8F900BF80BD000C005880B500AF0C
:1019B00001210248FFF7F4FE00BF80BD000C005873
:1019C00080B500AF01210248FFF70AFF00BF80BDCC
:1019D000000C005880B500AF0CF014FF0121024844
:1019E000FFF7F0FE00BF80BD000C005880B500AFCF
:1019F00020210348FFF7C2FE0CF034FF00BF80BD7A
:101A0000000C005880B500AF02210248FFF7C8FE65
:101A100000BF80BD000C005880B500AF0221044813
:101A2000FFF7DEFE02210248FFF795FE00BF80BDF2
:101A3000000C005880B500AF02210348FFF79EFE5E
:101A40000CF060FF00BF80BD000C005880B500AFF7
:101A50000CF06EFF02210248FFF7B4FE00BF80BD0C
:101A6000000C005880B582B000AF786008210C48A7
:101A7000FFF7C5FE0346002B07D00A4A7B681360B8
:101A800008210748FFF767FE06E07B6898470821B2
:101A90000348FFF7A5FE00BF0837BD4680BD00BF65
:101AA000000C00589403002080B500AF08210648C0
:101AB000FFF764FE054B1B68984708210248FFF7B3
:101AC0008FFE00BF80BD00BF000C005894030020B3
:101AD00080B500AF08210248FFF762FE00BF80BD5D
:101AE000000C005880B500AF0CF0CAFF0821024876
:101AF000FFF768FE00BF80BD000C0058D458C450EA
:101B00000433C4188C42F9D3704703600430884210
:101B1000FBD370470C48854605F032FF0B480C4953
:101B20000C4A0023FFF7EDFF0B480C490023FFF799
:101B3000EEFF0B480B490023FFF7E9FF12F0FAF81C
:101B400002F0F6F9FEE70000000003200400002088
:101B5000F8010020C89B010870030020F4E3022074
:101B6000E0010320570A0320FEE7000080B483B0A1
:101B700000AF7860064BD3F8902005497B6813438B
:101B8000C1F8903000BF0C37BD465DF8047B70474C
:101B90000008005880B485B000AF78604FF0B043C3
:101BA000DA6C4FF0B0417B681343CB644FF0B04325
:101BB000DA6C7B681340FB60FB6800BF1437BD46DE
:101BC0005DF8047B704780B485B000AF78604FF05B
:101BD000B043D3F84C214FF0B0417B681343C1F8B8
:101BE0004C314FF0B043D3F84C217B681340FB607D
:101BF000FB6800BF1437BD465DF8047B704780B5B5
:101C000000AF05F08BFF05F08FFF4FF48030FFF73A
:101C1000ADFF0DF011F900F021F800F0BFF800BFA2
:101C200080BD0000B0B588B000AF0B4B3C1D1D4619
:101C30000FCD0FC495E8070003C422800234130CB3
:101C400023700CF00BFF3B1D18460CF06AFA00BF26
:101C50002037BD46B0BD00BFF082010880B588B016
:101C600000AF3B1D00221A605A609A60DA601A6168
:101C70000023BB8300237B8300233B830023FB776C
:101C800033E0FB7F424ADB0013449B79002B28D0D2
:101C9000FB7F3F4A52F833303E4A93420FD03E4AD0
:101CA000934215D0B3F1904F00D01BE0FB7F384A30
:101CB000DB0013449A88BB8B1343BB8312E0FB7F8A
:101CC000334ADB0013449A887B8B13437B8309E000
:101CD000FB7F2F4ADB0013449A883B8B13433B83E3
:101CE00000E000BFFB7F0133FB77FB7F212BC8D9CE
:101CF0000023FB600123BB6003233B61BB8B002BF4
:101D000014D0BB8B7B600120FFF744FF0120FFF75D
:101D10005AFF3B1D19464FF0904006F073F8BB8BFD
:101D2000002219464FF0904006F0F4F97B8B002B0F
:101D300012D07B8B7B600220FFF72CFF0220FFF785
:101D400042FF3B1D1946134806F05CF87B8B0022CE
:101D50001946104806F0DEF93B8B002B13D03B8B65
:101D60007B600420FFF716FF0420FFF72CFF3B1DCC
:101D70001946094806F046F83B8B002219460648EA
:101D800006F0C8F900BF00BF2037BD4680BD00BFC8
:101D900068870108000400480008004880B400AFCC
:101DA00000BFBD465DF8047B704780B400AF00BF44
:101DB000BD465DF8047B704780B584B000AFF86025
:101DC0000B467A607B817A897B68F968002001F094
:101DD000CFFC00BF1037BD4680BD000080B483B08B
:101DE00000AF7860074BD3F8803023F00702054935
:101DF0007B681343C1F8803000BF0C37BD465DF8E7
:101E0000047B70470004005880B483B000AF786052
:101E10004FF0B0439B6823F400424FF0B0417B6821
:101E200013438B6000BF0C37BD465DF8047B7047E1
:101E300080B500AF00F014F80849002001F01EFA48
:101E4000FFF7DDFE0121012011F040FF00F0A1F8B5
:101E500000F0A6F800F012F800BF80BDA4E0022058
:101E600080B500AF4FF40040FFF7CEFF11F01CFF2C
:101E70000420FFF7B3FF00BF80BD000080B588B02D
:101E800000AF0CF035FC00200DF06AFF0246174B46
:101E90001A600022002101200EF0AAF80246144B1D
:101EA0001A60144A002114480DF090FD0246134BAD
:101EB0001A60134B3B60134B7B603B46194612483C
:101EC0000CF0DCFA114BBB60114BFB60114B3B611A
:101ED00040F23C537B6107F1080318460CF04AFDC1
:101EE0000CF000FC00BF2037BD4680BDB8E10220E9
:101EF000C0E1022078880108791F0008BCE10220B7
:101F000024070320191F0008591F00083C0903205B
:101F100030080320E801032080B582B000AF0346FB
:101F2000FB71FB79002B02D0012B08D00DE0094B8F
:101F30001B684FF0FF3118460DF0ACFF05E0054B74
:101F40001B6818460EF004F800BF00BF0837BD46F6
:101F500080BD00BFB8E1022080B582B000AF7860DC
:101F6000FFF760FEFEF76CFE0021012011F0AEFECF
:101F700000BF0837BD4680BD80B582B000AF786035
:101F80004FF0FF32002101200DF028FE0CF092FAF4
:101F9000F6E780B400AF00BFBD465DF8047B704734
:101FA00080B400AF00BFBD465DF8047B7047000001
:101FB00080B582B000AF7860044B1B6801211846E1
:101FC0000DF0AAFD00BF0837BD4680BDBCE1022070
:101FD00080B582B000AF7860044B1B6818460EF0E5
:101FE0000BF900BF0837BD4680BD00BFC0E102202D
:101FF00080B582B000AF7860054B1B684FF0FF31B1
:1020000018460EF093F800BF0837BD4680BD00BFEC
:10201000C0E1022080B584B000AF78607B681B68A7
:10202000234A13607B689A88214B9A80204B0022B8
:102030009A717B689B7903F00303DAB21C4B1A7325
:102040007B689B799B08DBB203F00303DAB2184B81
:102050005A737B689B791B09DBB203F00303DAB286
:10206000134B9A73124B1A7B114B5B7B9A420CD128
:102070000F4B9A880E4B9B880333002B00DA0333F7
:102080009B109BB213449BB205E0094B9B881A46F8
:10209000520013449BB2FB81FB8918460EF0E8FC0A
:1020A00003461A46024B9A6000BF1037BD4680BDFA
:1020B000C4E1022080B584B000AF4B4B9B68002B7D
:1020C00000F08E80484B9B68FB60474B9B883B81B0
:1020D000454B9B79FB8000237B710023FB720AE058
:1020E000414B1868791D4FF0FF33012209F059FA6E
:1020F000FB7A0133FB72FB7A032BF1D93A4B9B79C4
:10210000002B2CD0FF237B71374B1868791D4FF0C3
:10211000FF33012209F045FA0023FB7215E0FB684A
:102120005A1CFA601B781A46FB8803FB02F31B1249
:10213000DBB27B712C4B1868791D4FF0FF33012205
:1021400009F02FFAFB7A0133FB72FB7A022BE6D9F6
:102150003B89013B3B813B89002BD3D125E0FF2309
:102160007B71214B1868791D4FF0FF33012209F074
:1021700018FA0023FB720FE0FB685A1CFA601B7808
:102180007B71194B1868791D4FF0FF33012209F05C
:1021900008FAFB7A0133FB72FB7A022BECD93B89FC
:1021A000013B3B813B89002BD9D1FF237B7100236D
:1021B000FB720AE00C4B1868791D4FF0FF330122C7
:1021C00009F0EFF9FB7A0133FB72FA7A064B9B8830
:1021D0000F33002B00DA0F331B119A42EADB00E0C9
:1021E00000BF1037BD4680BDC4E1022080B500AFFE
:1021F0000F4B98680E4B1A7B0D4B5B7B9A420BD1B1
:102200000B4B9B881A460A4B9B880333002B00DA42
:1022100003339B10134405E0054B9B881A46134675
:102220005B0013441A46002111F0B3FD00BF80BDCE
:10223000C4E1022080B485B000AF03463960FB8062
:10224000164B9B88FA889A4221D2144B9968FA88D7
:1022500013465B0013440B44FB603B681A0C0F4BA6
:102260001B7B1946FB680B44D2B21A703B681A0AF2
:102270000A4B5B7B1946FB680B44D2B21A70074BC2
:102280009B7B1A46FB6813443A68D2B21A7000BFAF
:102290001437BD465DF8047B704700BFC4E10220DF
:1022A00080B584B000AF78600B467B8013463B80DE
:1022B000154B9B887A889A4222D23B88002B03D107
:1022C000114B9B88BB810BE07A883B881344BB8110
:1022D0000D4B9B88BA899A4202D90B4B9B88BB81D4
:1022E0007B88FB8107E0FB8979681846FFF7A2FF2E
:1022F000FB890133FB81FA89BB899A42F3D300E061
:1023000000BF1037BD4680BDC4E1022080B483B059
:1023100000AF0346FB71FB790133DAB2034B9A71CC
:1023200000BF0C37BD465DF8047B7047C4E1022056
:1023300080B586B002AF03460A46FB711346BB71F7
:102340007823FB81BB793B73FB797B7307F10C022C
:10235000F9894FF0FF3300930223034805F0BEFFD5
:1023600000BF1037BD4680BDE0E1022080B500AF60
:102370000021AE20FFF7DCFF0021D520FFF7D8FFBA
:1023800000218020FFF7D4FF0021A820FFF7D0FF15
:1023900000212720FFF7CCFF0021D320FFF7C8FF43
:1023A00000210020FFF7C4FF0021AD20FFF7C0FF90
:1023B00000213020FFF7BCFF00218D20FFF7B8FF80
:1023C00000211420FFF7B4FF00214020FFF7B0FFE9
:1023D0000021A620FFF7ACFF0021A420FFF7A8FFF3
:1023E0000021A120FFF7A4FF0021C820FFF7A0FFD4
:1023F0000021DA20FFF79CFF00211220FFF798FF51
:1024000000218120FFF794FF0021AF20FFF790FF0C
:102410000021D920FFF78CFF00212220FFF788FF41
:102420000021DB20FFF784FF00212020FFF780FF41
:102430000021AF20FFF77CFF00BF80BD80B485B0D6
:1024400000AF78600023FB6007E0FB687A68134404
:1024500000221A70FB680133FB60FB68B3F5B47FA0
:10246000F3DB00BF1437BD465DF8047B704780B4D2
:1024700085B000AF7860F123FB6007E0FB687A6805
:10248000134400221A70FB680133FB60FB68B3F54C
:10249000B47FF3DB00BF1437BD465DF8047B7047A3
:1024A00080B485B000AF7860B523FB6007E0FB68BF
:1024B0007A68134400221A70FB680133FB60FB68E2
:1024C000B3F5B47FF3DB00BF1437BD465DF8047B82
:1024D000704780B485B000AFF860B9603B601346C8
:1024E000FB71FB68482B61DCBB68282B5EDCFB7949
:1024F000002B2CD0BB68002B00DA0733DB101A4608
:102500001346DB001344DB001946FB680B441946F5
:102510003B680B441B7859B2BB68584203F0070371
:1025200000F0070058BF4342012000FA03F35BB2FA
:102530000B4359B21346DB001344DB001A46FB6819
:1025400013441A463B681344CAB21A702FE0BB68A2
:10255000002B00DA0733DB101A461346DB00134466
:10256000DB001946FB680B4419463B680B441B789B
:1025700059B2BB68584203F0070300F0070058BF88
:102580004342012000FA03F35BB2DB435BB20B4032
:1025900059B21346DB001344DB001A46FB681344B0
:1025A0001A463B681344CAB21A7000E000BF1437E1
:1025B000BD465DF8047B704790B587B000AF044618
:1025C000084611461A462346FB710346BB710B466B
:1025D0007B7113463B71BB793B7480237B8208235C
:1025E0007B747B79203BFB733B79202B04D14FF428
:1025F00000437B8210237B740023FB75B1E03B79A1
:102600000C2B1DD197F82830002B0BD0FA7BF97DCD
:10261000584813465B0013449B0003440B441B784B
:10262000BB826CE0FA7BF97D524813465B00134491
:102630009B0003440B441B789BB2DB43BB825EE0F0
:102640003B79102B17D197F82830002B08D0FA7B54
:10265000FB7D494912010A4413441B78BB824EE0BA
:10266000FA7BFB7D444912010A4413441B789BB258
:10267000DB43BB8243E097F82830002B1CD0FB7B68
:10268000A3F11002FB7D5B003C4992010A44134414
:102690001B789BB21B02BB82FB7BA3F11002FB7D6C
:1026A0005B000133354992010A4413441B789AB206
:1026B000BB8A1343BB8222E0FB7BA3F11002FB7DAC
:1026C0005B002E4992010A4413441B789BB2DB4302
:1026D0009BB21B02BB82FB7BA3F11002FB7D5B0064
:1026E0000133264992010A4413441B789BB2DB4311
:1026F0009BB21AB2B7F9143013431BB2BB8200234A
:10270000BB7527E0BA8A7B8A13409BB2002B06D0A8
:10271000F879B979FB6A0122FFF7DBFE05E0F87969
:10272000B979FB6A0022FFF7D4FEBB8A5B00BB824B
:10273000BB790133BB71BA793B7CD21A3B799A429F
:1027400005D13B7CBB71FB790133FB7106E0BB7D9E
:102750000133BB75BA7D7B7C9A42D3D3FB7D0133B9
:10276000FB75FA7D3B799A42FFF449AF00BF1C37F5
:10277000BD4690BD9C880108108D0108009301089A
:1027800090B585B002AF3A601A460346FB710B461E
:10279000BB7113467B712CE0FA797B795B08DBB265
:1027A000C3F148039A420FDD0023FB71BA797B79AC
:1027B0001344BB71BA797B79C3F128039A4203DDD4
:1027C0000023FB71FB79BB713B681A787C79B9797E
:1027D000F879FB6901933B7E00932346FFF7ECFEFB
:1027E0007B795B08DAB2FB791344FB713B680133F8
:1027F0003B603B681B78002BCED100BF0C37BD4639
:1028000090BD80B584B000AF78600023FB7329E0F1
:10281000FB7B503BDBB200211846FFF789FD00210E
:102820000C20FFF785FD00211120FFF781FD00231B
:10283000BB7311E0B97BFA7B1346DB001344DB006A
:102840000B441A467B6813441B7840211846FFF757
:102850006FFDBB7B0133BB73BB7B472BEAD9FB7B93
:102860000133FB73FB7B042BD2D900BF1037BD466D
:1028700080BD80B5DEB002AF3B1D186007F10803D4
:102880001846FFF7DBFD3B1D1B683A1D591C116004
:102890001A7807F1080301930123009320230421F0
:1028A0000020FFF789FE3B1D1B683A1D591C116073
:1028B0001A7807F1080301930123009320230421D0
:1028C0001020FFF779FE3B1D1B683A1D591C116053
:1028D0001A7807F1080301930123009320230421B0
:1028E0002820FFF769FE3B1D1B681A7807F10803D3
:1028F000019301230093202304213820FFF75CFE7D
:1029000007F1080301220C212420FFF7E2FD07F163
:10291000080301220D212420FFF7DBFD07F1080346
:1029200001220E212420FFF7D4FD07F10803012224
:102930001C212420FFF7CDFD07F1080301221B21F4
:102940002420FFF7C6FD07F1080301221A212420E5
:10295000FFF7BFFD07F108031846FFF752FF00BF5E
:1029600007F5B877BD4680BD80B584B002AF78600A
:1029700039603868FFF794FD7B685A1C7A601A78D2
:102980003B68019301230093102314211020FFF7CB
:1029900013FE7B685A1C7A601A783B680193012306
:1029A0000093102314211A20FFF706FE7B685A1C9F
:1029B0007A601A783B680193012300931023142155
:1029C0002820FFF7F9FD7B681A783B680193012303
:1029D0000093102314213220FFF7EEFD3B68012203
:1029E00018212420FFF775FD3B68012219212420BE
:1029F000FFF76FFD3B6801221F212420FFF769FDCF
:102A00003B6801221E212420FFF763FD3868FFF791
:102A1000F8FE00BF0837BD4680BD80B483B000AF6C
:102A2000786000BF0C37BD465DF8047B704700003E
:102A300080B483B000AF7860064BD3F8802005499E
:102A40007B681343C1F8803000BF0C37BD465DF88A
:102A5000047B70470008005880B483B000AF7860F2
:102A6000054B1A6804497B6813430B6000BF0C37A1
:102A7000BD465DF8047B70470008005880B483B001
:102A800000AF0D4B9B6A9BB27B600B4B9B6A9BB26A
:102A90003B6005E03B687B60074B9B6A9BB23B60F9
:102AA0007A683B689A42F5D13B6818460C37BD46B8
:102AB0005DF8047B704700BF0028004080B485B0FB
:102AC00000AF03460A46FB711346BB71BA791D4934
:102AD00013465B001344DB000B4415331B78FB7378
:102AE000FB7B062B09D0FA7B164913465B00134487
:102AF000DB000B441433FA791A70FA791149134642
:102B00005B001344DB000B441533FA7B1A70FA792F
:102B10000C4913465B001344DB000B441433BA79B1
:102B20001A70BA79074913465B001344DB000B4463
:102B30001533FA791A7000BF1437BD465DF8047B6F
:102B4000704700BF8002002080B485B000AF03460C
:102B50000A46FB711346BB71294B1B78DBB2BA796D
:102B60009A4232D0BA79274913465B001344DB00FE
:102B70000B4414331B78FB73FA7B224913465B002A
:102B80001344DB000B441533FA791A70FA791D49A6
:102B900013465B001344DB000B441533BA791A70FB
:102BA000FA79184913465B001344DB000B441433D5
:102BB000FA7B1A70BA79134913465B001344DB00A1
:102BC0000B441433FA791A7014E0FA790D4913465C
:102BD0005B001344DB000B441533BA791A70BA79E1
:102BE000084913465B001344DB000B441433FA79A5
:102BF0001A7000BF1437BD465DF8047B704700BFF4
:102C0000100300208002002080B584B000AF03468E
:102C1000FB714E4B1B78DBB2062B18D14B4B1B784C
:102C2000DAB24B4B1A70494AFB791370FA79494969
:102C300013465B001344DB000B44153306221A7065
:102C4000454B4FF0FF321A600023FB8178E000F023
:102C500009F90346FB81FA793E4913465B001344A8
:102C6000DB000B4408331968FB89FA7919443948A9
:102C700013465B001344DB00034408331960FA7900
:102C8000344913465B001344DB000B4408331B68D4
:102C9000BB602E4B1B78DBB219462E4A0B465B00FD
:102CA0000B44DB00134408331B68BA689A4237D3DD
:102CB000264B1B787B737A7B264913465B001344B3
:102CC000DB000B4415331B783B7313E07A7B2149FF
:102CD00013465B001344DB000B4415331B787B73F6
:102CE0007A7B1C4913465B001344DB000B4415330D
:102CF0001B783B733B7B062B0BD03A7B1549134665
:102D00005B001344DB000B4408331B68BA689A422B
:102D1000DCD27A7BFB7911461846FFF7CFFE0FE035
:102D20000A4B1B78DAB2FB7911461846FFF70CFF05
:102D3000064B1B78DAB2064B1A70044AFB79137003
:102D4000FB8918461037BD4680BD00BF1003002028
:102D500011030020800200201403002080B485B0FD
:102D600000AF03460A46FB711346BB71394B1B7813
:102D7000DBB2FA799A4211D1364B1B78DAB2364B74
:102D80001A70FA79354913465B001344DB000B4493
:102D900015331B78DAB22F4B1A703EE0FA792F49BF
:102DA00013465B001344DB000B4414331B78FB73A6
:102DB000FA792A4913465B001344DB000B441533B0
:102DC0001B78BB73F979FA7B24480B465B000B44F4
:102DD000DB00034415331B78D8B2204913465B004F
:102DE0001344DB000B44153302461A70BB7B062BE1
:102DF00013D0F979BA7B19480B465B000B44DB0012
:102E0000034414331B78D8B2144913465B001344AF
:102E1000DB000B44143302461A70FA790F4913464B
:102E20005B001344DB000B440C3301221A70094B86
:102E30001B78DBB2062B07D1BB79002B04D1084BE2
:102E40004FF0FF321A6000BF00BF1437BD465DF877
:102E5000047B704710030020110300208002002033
:102E60001403002080B582B000AF1A4B1B68B3F189
:102E7000FF3F26D0FFF702FE7860164B1B687A688A
:102E80009A4205D8134B1A687B68D31A7B600AE014
:102E9000114B1B881A467B68D31A3B600D4B1B688D
:102EA0003A6813447B600D4B1B781A467B6802FB23
:102EB00003F37B600A4B1B781A467B68D3407B6028
:102EC00001E000237B607B689BB218460837BD4653
:102ED00080BD00BF140300209E0300209D0300203E
:102EE0009C03002080B582B000AF0346FB80FB88C6
:102EF000002B08D1FFF7C2FD0246244B1A600320C5
:102F000004F064FF3EE0FB88012B03D8204B1B78C4
:102F1000012B02D0FB88013BFB8000BF1D4B1B68CF
:102F20001B68DB6803F00403002BF7D0194B1B6808
:102F30001B68DB68DAB2174B1B681B6862F490628F
:102F4000DA60154B4FF40022DA60032004F04CFFE6
:102F5000124B5B691B0C1B04FA88104913434B612D
:102F6000FFF78CFD0246094B1A600A4B1B681B6871
:102F70009A68084B1B681B6842F480629A60AFF342
:102F8000008000BF0837BD4680BD00BF140300208D
:102F90009C030020980300200008005800280040EF
:102FA00080B584B000AF474B9B6803F48063B3F5F2
:102FB000806F08D100BF444B1B681B68DB6803F0BF
:102FC0000403002BF7D1404B1B681B689A683E4BEB
:102FD0001B681B6822F480629A603C4B1B78FB7371
:102FE000FA7B3B4913465B001344DB000B44083378
:102FF0001B68BB60FFF736FF0346FB80FB88BA689F
:103000009A4205D20023BB81324B01221A704DE057
:10301000FB88314A128892B213441A46BB68934225
:1030200006D92D4B1B88BB812A4B00221A703DE02C
:10303000BB689AB2FB88D31ABB81264B01221A7057
:1030400034E0FA7B224913465B001344DB000B4457
:1030500008331A68FB889A420AD2FA7B1C49134645
:103060005B001344DB000B44083300221A6013E0BA
:10307000FA7B174913465B001344DB000B4408330B
:103080001968FB88FA7BC91A114813465B00134480
:10309000DB00034408331960FA7B0D4913465B00DB
:1030A0001344DB000B4415331B78FB73FB7B062BAF
:1030B000C7D1BB891846FFF715FF00BF1037BD46C3
:1030C00080BD00BF002800409803002010030020AE
:1030D0008002002018030020A003002080B58AB0E1
:1030E00000AFEFF310837B617B697B6272B65E4B4E
:1030F0001B681B68CA225A625B4B1B681B68532201
:103100005A62594B1B681B689A68574B1B681B68AF
:1031100022F480629A60554B1B7887F8233097F829
:103120002320534913465B001344DB000B440C334C
:103130001B78DBB2022B70D197F823204C49134641
:103140005B001344DB000B441B68FB6197F82320F2
:10315000474913465B001344DB000B4410331B68E4
:10316000BB61444B1B78DBB2002B4ED097F8232079
:103170003F4913465B001344DB000B440D331B78BF
:10318000DBB2012B25D197F8233001211846FFF738
:10319000E5FD7B6A3B613B6983F3108897F8232048
:1031A000334913465B001344DB000B4404331A68B5
:1031B00097F823301146184600F046FA2A4B1B6850
:1031C0001B68CA225A62284B1B681B6853225A622A
:1031D00013E07B6AFB60FB6883F3108897F8233069
:1031E000184600F0A7F9204B1B681B68CA225A62D8
:1031F0001D4B1B681B6853225A6297F82330FA69EB
:103200001946B86900F0A6FA24E0FFF7C9FE7B6A08
:10321000BB60BB6883F310881CE000BF124B1B68C7
:103220001B68DB6803F00403002BF7D00E4B1B6810
:103230001B68DB68DAB20C4B1B681B6862F4906297
:10324000DA600D4B4FF40022DA607B6A7B607B68AA
:1032500083F31088044B1B681B68FF225A6200BF6F
:103260002837BD4680BD00BF980300201003002012
:1032700080020020180300200008005880B588B0A4
:1032800000AF03463960FB71644A3B681360634BCF
:103290001B681B68CA225A62604B1B681B6853225A
:1032A0005A625F4B9B685E4A43F0200393605C4B1D
:1032B0009B68DBB203F00703DBB2C3F10403DAB2AD
:1032C000584B1A70564B1B6903F4FE034FF4FE0271
:1032D0003A613A6992FAA2F2FA60FA687A617A6916
:1032E000002A01D1202203E07A69B2FA82F2D2B236
:1032F000D340DBB20133DAB24B4B1A70484B1B6937
:103300009BB2C3F30E039BB201339AB2474B1A80B0
:10331000464B1B88013B444A127802FB03F3A3F59A
:10332000A073404A1278D340BB61BB694FF6FE726E
:10333000934204D93E4B4FF6FF721A8003E0BB69FB
:103340009AB23B4B1A804FF40020FFF785FB4FF4F5
:103350000020FFF76DFBFB79002B43D1354B012299
:103360001A70354B4FF0FF321A600023FB770CE0E8
:10337000FA7F324913465B001344DB000B440C33E5
:1033800000221A70FB7F0133FB77FB7F052BEFD9FF
:103390002B4B06221A70214B1B681B689A681F4B27
:1033A0001B681B6822F480629A601C4B1B681B68B8
:1033B000DB68DAB2194B1B681B6862F49062DA6052
:1033C000204B4FF40022DA60032004F00DFD134B74
:1033D0001B681B689A68114B1B681B6842F480428B
:1033E0009A600AE00D4B1B681B68DB6803F480637E
:1033F000002B02D0032004F0E9FC084B1B681B687B
:10340000FF225A6200220621032004F0A9FC0320B7
:1034100004F0C0FC00BF2037BD4680BD98030020EB
:10342000002800409C0300209D0300209E030020F4
:10343000A0030020180300201403002080020020B5
:10344000100300200008005880B48BB000AFF86073
:10345000B9603B601346FB71002387F82630EFF319
:103460001083FB61FB693B6272B604E097F826307B
:10347000013387F8263097F82630052B0CD897F8BB
:1034800026202B4913465B001344DB000B440C330E
:103490001B78DBB2002BE9D197F82630062B37D00A
:1034A00097F82620224913465B001344DB000B44A7
:1034B0000C3301221A703B6ABB61BB6983F310882D
:1034C00097F826201A4913465B001344DB000B448F
:1034D0001033FA681A6097F82620154913465B00E6
:1034E0001344DB000B440D33FA791A7097F8262049
:1034F0000F4913465B001344DB000B443A681A6023
:10350000BB6897F826201A70002387F8273007E059
:103510003B6A7B617B6983F31088012387F827303E
:1035200097F8273018462C37BD465DF8047B704766
:103530008002002080B586B000AF0346FB71EFF338
:103540001083FB60FB687B6172B6032004F030FCE3
:10355000374B1B681B68CA225A62354B1B681B68B5
:1035600053225A62FA79334913465B001344DB0055
:103570000B440C331B78DBB2022B48D1FB790021C2
:103580001846FFF7EBFB2C4B1B78FB74FB7C062BE0
:1035900035D12A4B9B6803F48063B3F5806F08D163
:1035A00000BF234B1B681B68DB6803F00403002B80
:1035B000F7D11F4B1B681B689A681D4B1B681B6863
:1035C00022F480629A6000BF194B1B681B68DB689D
:1035D00003F00403002BF7D0154B1B681B68DB6856
:1035E000DAB2134B1B681B6862F49062DA60144B0A
:1035F0004FF40022DA60032004F0F6FB07E0114BE1
:103600001B78DBB2FA7C9A4201D0FFF7C9FC084B69
:103610001B681B68FF225A62032004F0BBFB7B6916
:10362000BB60BB6883F3108800BF1837BD4680BD00
:103630009803002080020020100300200028004092
:10364000000800581103002080B586B000AF034683
:103650003960FB71FA793B4913465B001344DB0088
:103660000B440C331B78DBB2022B03D1FB791846D9
:10367000FFF760FFEFF31083FB60FB687B6172B6BE
:10368000032004F095FB304B1B681B68CA225A626A
:103690002D4B1B681B6853225A62FA79294913463D
:1036A0005B001344DB000B440C3302221A70FA79DE
:1036B000244913465B001344DB000B4408333A688B
:1036C0001A60FA791F4913465B001344DB000B4470
:1036D00004333A681A60FB791846FFF795FA0346F7
:1036E0007B821A4B1B787B74194B1B78DBB27A7C7C
:1036F0009A4202D0FFF754FC13E0FA7911491346BD
:103700005B001344DB000B44083319687B8AFA79A9
:10371000C91A0C4813465B001344DB00034408330A
:103720001960094B1B681B68FF225A62032004F0D2
:1037300031FB7B69BB60BB6883F3108800BF18371F
:10374000BD4680BD800200209803002010030020A9
:103750001103002080B584B000AFF8600B467A609A
:10376000FB727B68984700BF1037BD4680BD0000E4
:1037700080B487B000AFB9607B600346FB7313462B
:10378000BB810023BB750023FB7500BFBB7D032BF2
:1037900016D801A252F823F0A9370008AF37000865
:1037A000B5370008BB3700080023FB7509E001238B
:1037B000FB7506E00223FB7503E00323FB7500E0C5
:1037C00000BFFB7D18461C37BD465DF8047B704783
:1037D00080B489B000AF78600023FB6102E0FB6930
:1037E0000133FB61FB6901331F4A52F823307A68C9
:1037F0009A42F4DC1C4AFB6952F82330BB61FB6936
:103800000133194A52F823307B61184AFB6952F898
:1038100023303B61FB690133144A52F82330FB60CB
:10382000FA683B69D31A7968BA698A1A02FB03F30A
:1038300007EE903AF8EEE76A7A69BB69D31A07EEA9
:10384000903AB8EEE77AC6EE877AFDEEE77A17EEA1
:10385000903ABB603A69BB68134418462437BD46AA
:103860005DF8047B704700BFE4950108C09501082E
:1038700090B583B000AF786039607B68002B01D1D0
:1038800078232CE03B68002B01D1002327E03B6824
:1038900007EE903AB8EEE77A7A683B68134407EE91
:1038A000903AF8EEE77AC7EE276A16EE900AFCF730
:1038B00023FE4FF000020C4BFCF776FE03460C464D
:1038C00044EC173BB0EE470AF0EE670A13F012F82B
:1038D00054EC103B18462146FDF716F903461846EE
:1038E0000C37BD4690BD00BF00005E4080B58AB079
:1038F00000AF786040F261137B627B6804331B6821
:10390000002B0CBF01230023DBB21A467B6808336F
:103910001B68002B0CBF01230023DBB213447A6821
:103920000C321268002A0CBF01220022D2B21344CA
:10393000012B1ADD7B6804331B68002B40F081806B
:103940007B6808331B68002B03D07B6A78337B626B
:1039500077E07B680C331B68002B03D07B6AF03365
:103960007B626EE04FF0FF337EE07B6804331A68C1
:103970007B680C331B689A4220DD7B6808331A6829
:103980007B680C331B689A4218DD7B6804331A6825
:103990007B680C331B68D31A3B627B6808331A6858
:1039A0007B680C331B68D31AFB61F969386AFFF72F
:1039B0005FFF02467B6A13447B6242E07B68083308
:1039C0001A687B6804331B689A4221DD7B680C33DC
:1039D0001A687B6804331B689A4219DD7B680833D8
:1039E0001A687B6804331B68D31ABB617B680C338D
:1039F0001A687B6804331B68D31A7B617969B869DC
:103A0000FFF736FF034678337A6A13447B6218E087
:103A10007B680C331A687B6808331B68D31A3B61D8
:103A20007B6804331A687B6808331B68D31AFB6011
:103A3000F9683869FFF71CFF0346F0337A6A1344CC
:103A40007B627B6A0A4A82FB03121A441112DA175C
:103A50008A1A4FF4B47101FB02F29B1A7B62786AF6
:103A6000FFF7B6FEB860BB6818462837BD4680BD74
:103A7000B7600BB680B584B000AF78607868FFF7A8
:103A800035FFF860FB68B3F1FF3F02D14FF0FF3321
:103A900005E0FB68044A82FB0312DB17D31A1846C1
:103AA0001037BD4680BD00BFABAAAA2A80B582B040
:103AB00000AF78607B681B680A2B02DC4FF0FF3395
:103AC00003E07868FFF7D6FF034618460837BD467F
:103AD00080BD80B586B000AF786007F10C03082286
:103AE0001946062000F088F800237B6119E07B6905
:103AF0005B00013307F11802134413F80C3C1A025F
:103B00007B695B0007F118010B4413F80C3C184665
:103B10007B699B0079680B4402431A607B6901331F
:103B20007B617B69032BE2DD00BF1837BD4680BD9A
:103B300080B586B004AF0123FB713B4600221A60BA
:103B40001A710EE04FF0FF33029301230193BB1D66
:103B50000093012300228821264804F0BDFE03467D
:103B6000FB71FB79012BEDD0BB793C2B01D00123FC
:103B70003CE0642002F063FF0E233B700123FB71E5
:103B80000EE04FF0FF330293012301933B46009375
:103B900001230D228821174804F08AFD0346FB719A
:103BA000FB79012BEDD0642002F049FF00233B702C
:103BB00009237B700023BB700623FB7000233B713D
:103BC0000123FB710EE04FF0FF33029305230193B5
:103BD0003B460093012309228821064804F068FD32
:103BE0000346FB71FB79012BEDD000231846083703
:103BF000BD4680BDE0E1022080B588B004AF034639
:103C00003960FB711346BB714FF496737B810023BF
:103C1000FB8101237B7314E0FB7999B2BB799BB2E2
:103C20004FF0FF32029201933B68009301230A4652
:103C300088210D4804F050FE03467B73FB89013355
:103C4000FB817B7B012B03D1FA897B899A42E3D3E9
:103C5000FA897B899A4201D3012300E000231846A8
:103C60001037BD4680BD00BFE0E1022080B584B0C2
:103C700000AF3B4600221A605A609A60DA603B4609
:103C80001846FFF726FF3B461846FFF70FFF03468F
:103C900018461037BD4680BD80B483B000AF786051
:103CA000074BD3F880207B68DB4305491340C1F8FC
:103CB000803000BF0C37BD465DF8047B704700BF05
:103CC0000008005880B483B000AF7860074BD3F889
:103CD00090207B68DB4305491340C1F8903000BF5A
:103CE0000C37BD465DF8047B704700BF00080058E4
:103CF00080B483B000AF78604FF0B0430A4AC3F895
:103D00009C204FF0B043D3F89C3023F47C527B6866
:103D10001B024FF0B0411343C1F89C3000BF0C3779
:103D2000BD465DF8047B7047FECAFECA80B483B00E
:103D300000AF78604FF0B043D3F8903023F0180212
:103D40004FF0B0417B681343C1F8903000BF0C378F
:103D5000BD465DF8047B704780B400AF4FF0B043C0
:103D6000D3F890304FF0B04243F48033C2F8903033
:103D700000BFBD465DF8047B704780B400AF4FF0D4
:103D8000B043D3F890304FF0B04223F48033C2F800
:103D9000903000BFBD465DF8047B704780B400AF33
:103DA0004FF0B043D3F8943003F08063B3F1806FE9
:103DB00001D1012300E000231846BD465DF8047BD5
:103DC000704780B400AF4FF0B043D3F8943003F0A5
:103DD0008053B3F1805F01D1012300E00023184636
:103DE000BD465DF8047B704780B485B000AF786055
:103DF0004FF0B043DA6C4FF0B0417B681343CB64B3
:103E00004FF0B043DA6C7B681340FB60FB6800BF87
:103E10001437BD465DF8047B704780B485B000AFB1
:103E200078604FF0B0431A6D4FF0B0417B68134398
:103E30000B654FF0B0431A6D7B681340FB60FB6865
:103E400000BF1437BD465DF8047B704780B483B073
:103E500000AF786039607B685A683B681B041A437E
:103E60007B685A6000BF0C37BD465DF8047B704725
:103E700080B483B000AF786039607B685A683B6873
:103E80001A437B685A6000BF0C37BD465DF8047B5F
:103E9000704780B483B000AF786039607B685A693E
:103EA0003B681B041A437B685A6100BF0C37BD4650
:103EB0005DF8047B704780B483B000AF78603960F0
:103EC0007B685A693B681A437B685A6100BF0C37AC
:103ED000BD465DF8047B704780B483B000AF786066
:103EE00039607B683A689A6000BF0C37BD465DF860
:103EF000047B704780B483B000AF786039607B6822
:103F00003A689A6100BF0C37BD465DF8047B704784
:103F100080B400AF054B1B69044A23F0040313610E
:103F200000BFBD465DF8047B704700BF00ED00E0B8
:103F300080B500AF494B4FF400421A6103F096FD83
:103F400002F02FFD02F019FD00F0D6F802F00EFD90
:103F500002F069FD00F0E4FA00F04EF900F0F2F929
:103F600000F08AF900F090F900F02AFA00F03AFB2C
:103F70003B4810F0EFFB0BF0BFFC3A480BF0F0FEB3
:103F80000246394B1A6039480BF0EAFE0246384BBC
:103F90001A6038480BF0E4FE0246374B1A60374887
:103FA0000BF0DEFE0246364B1A6036480BF0D8FEA8
:103FB0000246354B1A6035480BF0D2FE0246344BB0
:103FC0001A60344A042110200CF06EF90246324B7C
:103FD0001A60324A042110200CF066F90246304B78
:103FE0001A60304A002130480BF0F0FC02462F4B9B
:103FF0001A602F4A00212F480BF0E8FC02462E4B96
:104000001A602E4A00212E480BF0E0FC02462D4B90
:104010001A602D4A00212D480BF0D8FC02462C4B8B
:104020001A602C4A00212C480BF0D0FC02462B4B86
:104030001A602B4A00212B480BF0C8FC02462A4B81
:104040001A602A4A00212A480BF0C0FC0246294B7C
:104050001A60FDF7EDFE0BF083FCFEE70040005810
:10406000A76318FAB8970108C8E00220C8970108AA
:10407000DCE10220D897010808E30220E897010854
:104080002CE20220F897010838E202200898010883
:1040900030E202208897010898E20220A0970108E8
:1040A0007CE002208C960108694700089CE202200F
:1040B000B096010855520008A0E20220D4960108EB
:1040C000C15B0008D4E10220F8960108655D000894
:1040D000D8E102201C9701081960000848E202207C
:1040E000409701086561000834E2022064970108E6
:1040F0005D66000844E2022080B5AEB000AF07F173
:1041000070034822002118460FF043FE07F15403C4
:1041100000221A605A609A60DA601A615A619A61E4
:104120003B1D5022002118460FF033FE05F00EF81B
:104130000020FFF7FBFD2F4B1B6823F4C0632D4AC3
:1041400043F4007313602B4B1B6803F4C0633B60A4
:104150003B6807233B674FF480337B670123BB67D2
:104160004FF48073FB674023C7F880300023C7F803
:104170009C3007F17003184605F088FB0346002BBE
:1041800001D002F093FC6F237B650223BB65002303
:10419000FB6500233B6600237B660023BB66002390
:1041A000FB6607F154030121184605F0FBFE0346A8
:1041B000002B01D002F07AFC43F603037B6000235E
:1041C000FB6100233B624FF480737B644FF48043B8
:1041D000BB640223FB6410233B653B1D184606F0BD
:1041E0003CFB0346002B01D002F060FC00BFB83757
:1041F000BD4680BD0004005880B500AF1B4B1C4A73
:104200001A601A4B1B4A5A60184B00229A60174BCF
:104210000122DA60154B00221A61144B00225A6108
:10422000124B00229A61114B0022DA610F4B0022DF
:104230001A620E4803F0C2FF0346002B01D002F0C1
:1042400035FC0021094804F0E9FE0346002B01D0AB
:1042500002F02CFC0021054804F02BFF0346002B44
:1042600001D002F023FC00BF80BD00BFE0E10220CE
:1042700000540040380F300080B400AF00BFBD468E
:104280005DF8047B7047000080B586B000AF2B4B13
:104290002B4A1A60294B00225A60284B7F229A60D1
:1042A000264BFF22DA60254B00221A61234B0022A5
:1042B0009A61224B0022DA61204B00225A611F488A
:1042C00006F051FD0346002B01D002F0EFFB3B1D31
:1042D00000221A605A609A60DA601A6100233B601B
:1042E00011233B7159237B712923BB710023BB60D0
:1042F00000233B6100237B613B1D012219460F48CF
:1043000006F0CFFD0346002B01D002F0CFFB0223C5
:104310003B7003237B702923BB702023FB703B463B
:1043200001221946054806F0DCFE0346002B01D0A9
:1043300002F0BCFB00BF1837BD4680BDA4E00220E0
:104340000028004080B500AF1B4B1C4A1A601A4B76
:104350004FF482725A60184B4FF400429A60164B29
:104360004FF4E062DA60144B00221A61124B002213
:104370005A61114B4FF400729A610F4B0022DA61BF
:104380000D4B00221A620C4B00225A620A4B00228B
:104390009A62094B0722DA62074B00221A63064B26
:1043A00008225A63044807F059F80346002B01D04D
:1043B00002F07CFB00BF80BDA4E20220003001407F
:1043C00080B59CB000AF07F1600300221A605A600C
:1043D0009A60DA6007F1540300221A605A609A600A
:1043E00007F1380300221A605A609A60DA601A6195
:1043F0005A619A613B1D3422002118460FF0C9FC16
:10440000454B464A1A60444B00225A60424B0022F8
:104410009A60414B6422DA603F4B00221A613E4BA6
:1044200000225A613C4B00229A613B4807F084FB12
:104430000346002B01D002F039FB4FF480533B665A
:1044400007F160031946344808F010F80346002BC2
:1044500001D002F02BFB304807F014FC0346002B80
:1044600001D002F023FB00237B650023BB65002302
:10447000FB6507F154031946274808F07DFC034605
:10448000002B01D002F012FB6023BB636423FB63AB
:1044900000233B6400237B640423BB640023FB6490
:1044A00000233B6507F13803002219461A4807F03C
:1044B000CDFE0346002B01D002F0F8FA00237B600A
:1044C0000023BB600023FB6000233B6100237B6172
:1044D0004FF40053BB610023FB6100233B620023C8
:1044E0007B624FF00073BB620023FB6200233B63DF
:1044F00000237B633B1D1946074808F09DFC0346DB
:10450000002B01D002F0D2FA034802F04BFD00BFAD
:104510007037BD4680BD00BF4CE20220002C014038
:1045200080B586B000AF3B1D00221A605A609A60C9
:10453000DA601A610420FFF757FC0220FFF754FCF1
:104540000120FFF751FC00220121244803F0E2FD85
:1045500001237B600123BB600023FB6000233B61E0
:104560003B1D19461D4803F04DFC38237B601C4B56
:10457000BB600123FB603B1D1946184803F042FC59
:1045800010237B600123BB600123FB603B1D1946A8
:104590004FF0904003F036FC012210214FF0904084
:1045A00003F0B8FD00220F21092003F0D9FB0920F8
:1045B00003F0F0FB00220F210A2003F0D1FB0A20B8
:1045C00003F0E8FB00220F21172003F0C9FB17209E
:1045D00003F0E0FB00BF1837BD4680BD0004004873
:1045E00000003110B0B58AB000AF374B10221A70FE
:1045F000354B22225A70344B05229A70324B0A22D4
:10460000DA7007F1140301221946304806F00DFD57
:1046100007F11003012219462C4806F010FE2A4B20
:104620001C1D07F114050FCD0FC42B682360264A0B
:104630003B699361244B4FF00002DA61224B4FF04B
:1046400000021A62204B4FF000025A621E4B4FF0DC
:1046500000029A621C4B002283F82C201A4B002285
:1046600083F830201A4A3B1D07CA03C31A803B1D3A
:104670001846FBF785FD03465A1C3B1D1946154895
:1046800010F0E0F83B1D1846FBF77AFD0346DAB25E
:104690000D4B83F8B1201C2200210F480FF079FB4D
:1046A000094B002283F8D020074B002283F8D42046
:1046B000054B002283F8D520034B002283F8D62037
:1046C00000BF2837BD46B0BDCCE00220A4E00220E8
:1046D00070850108FDE0022080E1022080B582B0F3
:1046E00000AF10F05BF802460C4BDB7819460B4B21
:1046F0009B78CB1A92FBF3F103FB01F3D31A7B6097
:10470000064B9A787B68DBB21344DAB2034B83F82A
:10471000D42000BF0837BD4680BD00BFCCE00220DA
:1047200080B586B002AF0346FB800023FB600C4BD4
:104730001868F98807F10C030093002303220EF098
:104740001BFEFB68002B07D0064B4FF080521A600F
:10475000BFF34F8FBFF36F8F00BF1037BD4680BDD3
:10476000D4E1022004ED00E0B0B5F2B002AF3B1D91
:10477000186001220121CE4803F0CCFCFDF7F6FDC4
:1047800007F144031846FDF759FE07F1440301936E
:10479000012300930C23C74A0A210020FDF7F0FFF4
:1047A00007F144030193012300930C23C24A1C2107
:1047B0000020FDF7E5FF07F144031846FEF721F856
:1047C00040F6B8300BF09EFA07F144031846FDF7A7
:1047D00035FE07F144031846FEF713F84FF6FF7352
:1047E000A7F8AE314FF6FF73A7F8BE314FF6FF734F
:1047F000A7F8BC3107F130031A4600231360536059
:104800009360D3601361002387F8BB31002387F8DE
:10481000B231FFF78DF90346012B0CD1A74AA84B03
:10482000144607CB20606160A2601B782373A54B00
:10483000062283F82C20FFF719FA0346A7F8AE31B9
:10484000B7F9AE31B3F1FF3F00F0D68197F8B2313E
:10485000002B40F0908007F144031846FDF7EEFD71
:10486000984B93F82C30032B45D801A252F823F033
:10487000BF480008DF48000881480008A748000832
:10488000914B18680023022200210EF0BFFC07F1B3
:1048900044030193012300930C238C4A0021002040
:1048A000FDF76EFF27E007F1440301930123009316
:1048B0000C23874A00210020FDF762FF1BE0854B97
:1048C0001B684FF0FF3118460BF0E4FA7D4B0122D4
:1048D00083F82C207F4B1B6818460BF039FB07F13F
:1048E00044030193012300930C23784A0021002004
:1048F000FDF746FF00BF734B93F82C30012B04D01B
:10490000704B93F82C30022B20D1734B1B684FF067
:10491000FF3118460BF0BEFA07F11402694B154639
:104920001C1D0FCC0FC523682B606B4B1B681846F2
:104930000BF00EFB07F114031B78184606F03CFD44
:10494000034687F8B531002387F8AD31002387F897
:10495000B3310CE097F8B32107F13003B7F8AE118B
:1049600023F8121097F8B331013387F8B33197F871
:10497000B331092BEED9012387F8B23197F8BB2167
:1049800007F13003B7F8AE1123F8121097F8BB31D6
:104990005A1C524B83FB02139910D317C91A0B46AA
:1049A0009B000B445B00D11A0B4687F8BB310023F8
:1049B000A7F8BE313C23A7F8B8310023A7F8B631D9
:1049C000002387F8B33135E097F8B32107F13003BE
:1049D00033F912309AB2B7F8BE3113449BB2A7F83C
:1049E000BE3197F8B32107F1300333F91230B7F92C
:1049F000B8219A4207DD97F8B32107F1300333F865
:104A00001230A7F8B83197F8B32107F1300333F922
:104A10001230B7F9B6219A4207DA97F8B32107F1B5
:104A2000300333F81230A7F8B63197F8B3310133B9
:104A300087F8B33197F8B331092BC5D9B7F9B62147
:104A4000B7F9B831D31A042B04DDB7F8AE31A7F8A3
:104A5000BE3109E0B7F9BE31204A82FB0312921041
:104A6000DB17D31AA7F8BE31B7F9BC21B7F9BE31AD
:104A70009A4200F0BD80134B93F82C30012BC0F20A
:104A8000B380022B6BDD032B40F0AE8007F14403B3
:104A90001846FDF7ECFC0B4B93F8D03001332D2278
:104AA00092FBF3F387F8B431002387F8B33149E080
:104AB000000400487085010898850108A8E10220DB
:104AC000A8850108CCE00220A0E20220B8850108F8
:104AD000FDE0022038E2022008E3022067666666F5
:104AE000B7F9BE2197F8B33197F8B41101FB03F37E
:104AF0000F339A4221DBB7F9BE2197F8B331013366
:104B000097F8B41101FB03F30F339A4215DAAD4B5A
:104B100093F8D0305A1E97F8B331D31AA94A2C33E0
:104B20009B0013445A6807F1440301930123009347
:104B30000C231C210020FDF723FE97F8B33101332D
:104B400087F8B3319F4B93F8D03097F8B3219A424E
:104B5000C6D307F144031846FDF753FE44E0B7F906
:104B6000BE310E2B19DCB7F9BE31002B15DBB7F9BE
:104B7000BC312D2B11DD97F8B5315A1C924B83FBBC
:104B800002139910D317C91A0B465B000B44DB00C4
:104B9000D11A0B4687F8B53114E0B7F9BE312D2B89
:104BA00010DDB7F9BC310E2B0CDC97F8B531002BBA
:104BB00003D1172387F8B53104E097F8B531013BED
:104BC00087F8B53197F8B521B7F9BE3107F128005C
:104BD0007E490FF017FE07F1440207F12803114642
:104BE0001846FDF7C1FE00BFB7F8BE31A7F8BC31CB
:104BF00019200BF087F81EE697F8B231002B00F071
:104C0000C88097F8B231013387F8B23197F8B231E2
:104C10004A2B40F2BA80FF2387F8B131694B93F8F1
:104C20002C30022B57D0032B02D0012B73D09BE0EA
:104C3000002387F8B33125E0B7F9BC2197F8B331E9
:104C400097F8B41101FB03F30F339A4215DBB7F960
:104C5000BC2197F8B331013397F8B41101FB03F38A
:104C60000F339A4209DA574B93F8D02097F8B331B3
:104C7000D31ADBB2013B87F8B13197F8B331013376
:104C800087F8B3314F4B93F8D03097F8B3219A425D
:104C9000D2D307F10C0305221A704A4B93F8303037
:104CA0001B021AB297F8B1311BB213431BB29AB26E
:104CB00007F10C035A80464B186807F10C010023DA
:104CC00000220BF077FB434B1868002302220021DF
:104CD0000EF09CFA48E007F10C0303221A7097F8D3
:104CE000B5311B021AB2B7F8BC3113431BB29AB2EA
:104CF00007F10C035A80364B186807F10C010023AA
:104D000000220BF057FB334B1868002302220021CE
:104D10000EF07CFA28E007F10C0303221A7097F8D2
:104D2000B5311B021AB2B7F8BC3113431BB29AB2A9
:104D300007F10C035A80264B186807F10C01002379
:104D400000220BF037FB244B1B684FF0FF31184655
:104D50000BF0A0F81B4B052283F82C201E4B1B6880
:104D600018460BF0F5F800BF002387F8B2314FF674
:104D7000FF73A7F8BC3107F144031846FDF75EFB4B
:104D800007F144031846FDF73CFD19200AF0BAFF6D
:104D900051E50C4B93F82C30072B00F2188201A23E
:104DA00052F823F093510008CF510008F750000843
:104DB00061510008DD4D00082F4F000881500008A8
:104DC000AD500008CCE00220ABAAAA2A7C850108DD
:104DD00098E20220A0E2022038E2022007F1440318
:104DE0001846FDF72BFB07F14403019301230093C1
:104DF0000C23CD4A00210020FDF7C2FC07F144033B
:104E00000193012300930C23C84A14210020FDF7CD
:104E1000B7FC07F144031846FDF7F3FC4FF47A7032
:104E20000AF070FFC24B1B684FF0FF3118460BF0C1
:104E300031F807F1140301221946BE4806F0F5F8CF
:104E400007F1100301221946BA4806F0F8F9B84BE9
:104E50001B6818460BF07CF807F114031B78184602
:104E600006F0AAFA034687F8B53107F114035B7818
:104E7000184606F0A1FA034687F8AD3197F8B52138
:104E800097F8AD3107F12800AB490FF0BBFC07F1F3
:104E900028031846FDF7EDFCA84B1B684FF0FF31C7
:104EA00018460AF0F7FFA64B07F114021C1D154621
:104EB0000FCD0FC42B682360A14A07F110031B68B4
:104EC00093619E4B1B6818460BF042F807F10C03E8
:104ED00004221A7007F10C0300225A80994B1868BB
:104EE00007F10C01002300220BF064FAFFF7F6FB38
:104EF000954B1B684FF0FF3118460AF0CBFF904BE3
:104F0000002283F82C20904B1B6818460BF020F8E9
:104F100040F6B8300AF0F6FE07F144031846FDF7F4
:104F20008DFA07F144031846FDF76BFC54E107F1D5
:104F300044031846FDF782FA07F144030193012365
:104F400000930C23814A00210020FDF719FC07F192
:104F500044030193012300930C23744A142100207D
:104F6000FDF70EFC07F144031846FDF74AFC4FF429
:104F70007A700AF0C7FE6E4B1B684FF0FF3118467F
:104F80000AF088FF07F1140301221946694806F068
:104F90004CF807F1100301221946664806F04FF954
:104FA000634B1B6818460AF0D3FF07F114031B7804
:104FB000184606F001FA034687F8B53107F11403E5
:104FC0005B78184606F0F8F9034687F8AD3197F894
:104FD000B52197F8AD3107F1280057490FF012FCC1
:104FE00007F128031846FDF744FC544B1B684FF0AB
:104FF000FF3118460AF04EFF514B07F114021C1DF9
:1050000015460FCD0FC42B6823604D4A07F11003DE
:105010001B689361494B1B6818460AF099FF07F11A
:105020000C0304221A7007F10C0300225A80454B2E
:10503000186807F10C01002300220BF0BBF9FFF701
:105040004DFB414B1B684FF0FF3118460AF022FF21
:105050003B4B002283F82C203B4B1B6818460AF080
:1050600077FF40F6B8300AF04DFE07F144031846CA
:10507000FDF7E4F907F144031846FDF7C2FBABE086
:1050800007F144031846FDF7D9F907F144030193EA
:10509000012300930C232E4A0C210020FDF770FB06
:1050A00007F144031846FDF7ACFBFEE707F14403A4
:1050B0001846FDF7C3F907F1440301930123009358
:1050C0000C23244A0A210020FDF75AFB07F1440370
:1050D0000193012300930C231F4A1C210020FDF79C
:1050E0004FFB07F144031846FDF78BFB4FF4FA70B2
:1050F0000AF008FE70E007F144031846FDF79EF938
:1051000007F144030193012300930C23134A002168
:105110000020FDF735FB07F144031846FDF771FB4E
:1051200064200AF0EFFD57E0C8850108D485010826
:10513000C8E00220A4E002207C85010808E30220E8
:10514000CCE0022098E2022038E20220E485010847
:10515000A8E10220F0850108FC850108B885010856
:1051600007F144031846FDF769F907F14403019379
:10517000012300930C23194A00210020FDF700FBB6
:1051800007F144031846FDF73CFB64200AF0BAFD22
:1051900022E0FA200AF0B6FD114B93F8D530002B2F
:1051A00019D007F144031846FDF748F907F1440305
:1051B0000193012300930C230A4A0E210020FDF7DE
:1051C000DFFA07F144031846FDF71BFB03E0142048
:1051D0000AF098FD00E000BFFFF72DBBFDE00220C4
:1051E000CCE002200886010880B584B000AF0346F9
:1051F000FB71174B1B78184606F0DEF80346FB736D
:10520000134B5B78184606F0D7F80346BB73FA7B5E
:10521000BB7B9A420CD2FA79FB7B9A4205D3FA798E
:10522000BB7B9A4201D2012300E00023DBB20BE0FA
:10523000FA79FB7B9A4203D2FA79BB7B9A4201D27C
:10524000012300E00023DBB218461037BD4680BDC5
:10525000CCE00220B0B592B000AF7860022387F8AE
:10526000283000237B8544F620600AF04BFDA44BD8
:105270001B684FF0FF3118460AF00CFE07F11403CB
:10528000012219469F4805F0D0FE07F110030122C4
:1052900019469C4805F0D3FF994B1B6818460AF045
:1052A00057FE3B7D184606F087F8034687F83D30E9
:1052B0007B7D184606F080F8034687F83C30FB7C7F
:1052C0001A047B7C1B021343BA7C1343BB638E4BD3
:1052D0001B79184606F070F8034687F837308A4B7A
:1052E0005B79184606F068F8034687F83630864B37
:1052F000DB7E1A04844B5B7E1B021343824A927E40
:1053000013433B63012387F8433097F83D309BB24A
:105310001A461201D31A9B009AB297F83C309BB2FE
:105320001344FB8597F837309BB21A461201D31A03
:105330009B009AB297F836309BB213449AB2724BE4
:1053400093F8D4309BB21344A7F84030B7F84030FC
:10535000B3F5B46F0FD3B7F840305A096B49A1FBCE
:1053600002124FF4B46101FB02F29B1AA7F840301D
:10537000002387F84330644B93F82C30002B40F027
:10538000C583614B93F8D530002B40F0BF8397F86D
:105390003D301846FFF728FF0346002B00F0B68388
:1053A000FA8DB7F840309A42C0F0B08397F8433096
:1053B000B96B3A6B91428CBF01220022D2B21343E7
:1053C000002B00F0A383524B186807F1280100233B
:1053D00000220AF0EFFF4F4B1B684FF0FF311846D9
:1053E0000AF058FD484B022283F82C20494B1B68D9
:1053F00018460AF0ADFD00200EF096F8012387F85C
:105400003F30012387F83E301DE0434B18680023EE
:10541000022200210DF0FAFE41F2707101200DF020
:1054200053FE78647B6C002B02D0002387F83E305B
:10543000354B93F82C30022B05D0002387F83E30F3
:10544000002387F83F3097F83E30002BDDD197F8E6
:105450003F30002B0DD04AF6C87101200DF034FE0C
:105460007864294B93F82C30022B02D0002387F864
:105470003F3097F83F30002B6BD07B6C002B55D022
:10548000264B1B684FF0FF3118460AF003FD244AF3
:10549000244B03CB1060516019889B781181937263
:1054A000194B0A2283F8B120174B012283F83020D0
:1054B000154B1D4A03F1B40415460FCD0FC40FCD93
:1054C0000FC495E8070084E807000F4B052283F816
:1054D000D020124B1B6818460AF03AFD0D4B1B6892
:1054E0004FF0FF3118460AF0D5FC074B032283F832
:1054F0002C20084B1B6818460AF02AFD29E000BF43
:10550000C8E00220A4E00220CCE00220065BB00547
:1055100098E2022038E20220D8E1022030E20220A4
:10552000FDE002201486010834960108002387F864
:105530003F30B24B1B684FF0FF3118460AF0AAFC0F
:10554000AF4B072283F82C20AC4B1B6818460AF09F
:10555000FFFC97F83F30002B0DD04AF6C8710120B0
:105560000DF0B2FD7864A64B93F82C30032B02D0DB
:10557000002387F83F3097F83F30002B42D07B6CF8
:10558000002B2CD09F4B1B684FF0FF3118460AF0C0
:1055900081FC9D4A9D4B144607CB20606160A26050
:1055A000974B0B2283F8B120954B022283F83020D1
:1055B000934B974A03F1B40415460FCD0FC40FCD9A
:1055C0000FC495E8070084E807008D4B052283F897
:1055D000D0208C4B1B6818460AF0BAFC12E000235E
:1055E00087F83F30854B1B684FF0FF3118460AF0B3
:1055F00051FC834B072283F82C20804B1B681846F4
:105600000AF0A6FC97F83F30002B0DD04AF6C8717F
:1056100001200DF059FD7864794B93F82C30032B61
:1056200002D0002387F83F3097F83F30002B44D05A
:105630007B6C002B2ED0734B1B684FF0FF3118464C
:105640000AF028FC704A734B03CB10605160198834
:105650009B78118193726A4B0A2283F8B120684BC0
:10566000032283F83020664B6B4A03F1B4041546DD
:105670000FCD0FC40FCD0FC495E8070084E80700D5
:105680005F4B052283F8D0205E4B1B6818460AF05A
:105690005FFC12E0002387F83F30584B1B684FF047
:1056A000FF3118460AF0F6FB554B072283F82C20F1
:1056B000524B1B6818460AF04BFC97F83F30002B02
:1056C0000DD04AF6C87101200DF0FEFC78644C4BF9
:1056D00093F82C30032B02D0002387F83F3097F843
:1056E0003F30002B44D07B6C002B2ED0454B1B68E9
:1056F0004FF0FF3118460AF0CDFB434A474B1446A2
:1057000007CB20606160A2601B7823733C4B0C22A6
:1057100083F8B1203A4B042283F83020384B3C4ABE
:1057200003F1B40415460FCD0FC40FCD0FC495E897
:10573000070084E80700324B052283F8D020314B64
:105740001B6818460AF004FC12E0002387F83F307B
:105750002A4B1B684FF0FF3118460AF09BFB284B81
:10576000072283F82C20254B1B6818460AF0F0FB13
:1057700097F83F30002B0DD04AF6C87101200DF08C
:10578000A3FC78641E4B93F82C30032B02D000232B
:1057900087F83F3097F83F30002B56D07B6C002BBA
:1057A00040D0184B1B684FF0FF3118460AF072FBCF
:1057B000154A1B4B03CB106051601B881381104BA3
:1057C000092283F8B1200E4B082283F830200C4BBD
:1057D0000F4A03F1B40415460FCD0FC40FCD0FC40B
:1057E00095E8070084E80700054B052283F8D020E0
:1057F000044B1B6818460AF0ABFB26E038E2022097
:10580000CCE0022030E20220FDE0022020860108E8
:10581000349601082C86010808960108388601088C
:1058200048860108002387F83F30B04B1B684FF0D3
:10583000FF3118460AF02EFBAD4B072283F82C20CF
:10584000AA4B1B6818460AF083FB97F83F30002BE1
:105850000DD04AF6C87101200DF036FC7864A44BD7
:1058600093F82C30032B02D0002387F83F3097F8B1
:105870003F30002B44D07B6C002B2ED09D4B1B68FF
:105880004FF0FF3118460AF005FB9B4A9B4B03CBB8
:105890001060516019889B7811819372944B0A2291
:1058A00083F8B120924B062283F83020904B944A23
:1058B00003F1B40415460FCD0FC40FCD0FC495E806
:1058C000070084E807008A4B022283F8D020894B26
:1058D0001B6818460AF03CFB12E0002387F83F30B3
:1058E000824B1B684FF0FF3118460AF0D3FA804B09
:1058F000072283F82C207D4B1B6818460AF028FBF2
:1059000097F83F30002B0DD04AF6C87101200DF0FA
:10591000DBFB7864764B93F82C30032B02D000230A
:1059200087F83F3097F83F30002B44D07B6C002B3A
:105930002ED0704B1B684FF0FF3118460AF0AAFAC0
:105940006D4A704B03CB1060516019889B781181B0
:105950009372674B0A2283F8B120654B072283F8C4
:105960003020634B664A03F1B40415460FCD0FC4D3
:105970000FCD0FC495E8070084E807005C4B0222B6
:1059800083F8D0205B4B1B6818460AF0E1FA12E05E
:10599000002387F83F30554B1B684FF0FF31184606
:1059A0000AF078FA524B072283F82C204F4B1B68E1
:1059B00018460AF0CDFA97F83F30002B0DD04AF682
:1059C000C87101200DF080FB7864494B93F82C30AE
:1059D000032B02D0002387F83F3097F83F30002B8D
:1059E00044D07B6C002B2ED0424B1B684FF0FF3114
:1059F00018460AF04FFA404A434B03CB10605160FF
:105A000019889B7811819372394B0A2283F8B1204F
:105A1000374B052283F83020354B394A03F1B40463
:105A200015460FCD0FC40FCD0FC495E8070084E8CD
:105A300007002F4B022283F8D0202E4B1B681846FC
:105A40000AF086FA12E0002387F83F30274B1B68E4
:105A50004FF0FF3118460AF01DFA254B072283F854
:105A60002C20224B1B6818460AF072FA97F83F3038
:105A7000002B0DD04AF6C87101200DF025FB78648B
:105A80001B4B93F82C30032B02D0002387F83F30B8
:105A900097F83F30002B00F088807B6C002B10D0F3
:105AA000124B1B684FF0FF3118460AF0F3F9104B08
:105AB000052283F82C200D4B1B6818460AF048FA83
:105AC00073E0002387F83F30084B1B684FF0FF312D
:105AD00018460AF0DFF9064B072283F82C20034B07
