:020000040800F2
:10000000000003201D1C0008B9560008C756000850
:10001000CD560008D3560008D9560008000000004D
:10002000000000000000000000000000A1EC00083B
:10003000DF56000800000000E1EE000849EF00086C
:10004000711C0008711C0008711C00084D57000845
:10005000711C0008711C0008711C0008711C00084C
:10006000711C00080D5700081B570008711C000880
:10007000711C0008711C0008711C0008711C00082C
:10008000711C0008711C0008711C0008711C00081C
:10009000711C0008711C0008711C00082957000819
:1000A000711C000839570008ED560008711C000843
:1000B000711C0008711C0008711C0008711C0008EC
:1000C000711C0008711C0008711C0008711C0008DC
:1000D000711C0008711C0008711C0008711C0008CC
:1000E000711C0008711C0008711C0008711C0008BC
:1000F000655700085957000801570008711C00088F
:10010000711C0008711C0008711C0008711C00089B
:10011000711C0008711C0008711C0008711C00088B
:10012000711C0008711C0008711C0008711C00087B
:0C013000711C0008711C0008711C000804
:1001400010B5054C237833B9044B13B10448AFF311
:1001500000800123237010BDB803002000000000C0
:10016000245F010808B5034B1BB103490348AFF3F3
:10017000008008BD00000000BC030020245F0108CF
:10018000034613F8012B002AFBD1181A01387047D7
:1001900001F0FF01102A2BDB10F0070F08D010F838
:1001A000013B013A8B422DD010F0070F42B3F6D13C
:1001B000F0B441EA012141EA014122F007047FF055
:1001C00000070023F0E80256083C85EA010586EAAC
:1001D000010685FA47F5A3FA87F586FA47F6A5FAE8
:1001E00087F68EB9EED1F0BC01F0FF0102F00702F4
:1001F00032B110F8013B013A83EA010313B1F8D19F
:100200000020704701387047002D06BF354603387F
:10021000073815F0010F07D1013015F4807F02BFB8
:10022000013015F4C03F0130F0BC0138704700BF09
:1002300081F0004102E000BF83F0004330B54FEA97
:1002400041044FEA430594EA050F08BF90EA020F04
:100250001FBF54EA000C55EA020C7FEA645C7FEA97
:10026000655C00F0E2804FEA5454D4EB5555B8BFBA
:100270006D420CDD2C4480EA020281EA030382EA2B
:10028000000083EA010180EA020281EA0303362DBD
:1002900088BF30BD11F0004F4FEA01314FF4801C90
:1002A0004CEA113102D0404261EB410113F0004FA2
:1002B0004FEA03334CEA133302D0524263EB430359
:1002C00094EA050F00F0A780A4F10104D5F1200EF7
:1002D0000DDB02FA0EFC22FA05F2801841F1000152
:1002E00003FA0EF2801843FA05F359410EE0A5F126
:1002F00020050EF1200E012A03FA0EFC28BF4CF057
:10030000020C43FA05F3C01851EBE37101F000450C
:1003100007D54FF0000EDCF1000C7EEB00006EEB19
:100320000101B1F5801F1BD3B1F5001F0CD34908A3
:100330005FEA30004FEA3C0C04F101044FEA4452FA
:1003400012F5800F80F09A80BCF1004F08BF5FEA81
:10035000500C50F1000041EB045141EA050130BD61
:100360005FEA4C0C404141EB010111F4801FA4F104
:100370000104E9D191F0000F04BF01460020B1FA59
:1003800081F308BF2033A3F10B03B3F120020CDA91
:100390000C3208DD02F1140CC2F10C0201FA0CF06F
:1003A00021FA02F10CE002F11402D8BFC2F1200CD4
:1003B00001FA02F120FA0CFCDCBF41EA0C0190408A
:1003C000E41AA2BF01EB0451294330BD6FEA0404D3
:1003D0001F3C1CDA0C340EDC04F11404C4F12002BE
:1003E00020FA04F001FA02F340EA030021FA04F3D0
:1003F00045EA030130BDC4F10C04C4F1200220FA27
:1004000002F001FA04F340EA0300294630BD21FA64
:1004100004F0294630BD94F0000F83F4801306BF2A
:1004200081F480110134013D4EE77FEA645C18BF1E
:100430007FEA655C29D094EA050F08BF90EA020FB5
:1004400005D054EA000C04BF1946104630BD91EAAD
:10045000030F1EBF0021002030BD5FEA545C05D1B0
:100460004000494128BF41F0004130BD14F58004EF
:100470003CBF01F5801130BD01F0004545F0FE4163
:1004800041F470014FF0000030BD7FEA645C1ABF98
:10049000194610467FEA655C1CBF0B46024650EACF
:1004A000013406BF52EA033591EA030F41F40021FB
:1004B00030BD00BF90F0000F04BF0021704730B581
:1004C0004FF4806404F132044FF000054FF0000156
:1004D00050E700BF90F0000F04BF0021704730B517
:1004E0004FF4806404F1320410F0004548BF4042EC
:1004F0004FF000013EE700BF42004FEAE2014FEA41
:1005000031014FEA02701FBF12F07F4393F07F4F1B
:1005100081F06051704732F07F4208BF704793F01E
:100520007F4F04BF41F40021704730B54FF4607431
:1005300001F0004521F000411CE700BF50EA010234
:1005400008BF704730B54FF000050AE050EA0102DD
:1005500008BF704730B511F0004502D5404261EB4D
:1005600041014FF4806404F132045FEA915C3FF48E
:10057000D8AE4FF003025FEADC0C18BF03325FEA2B
:10058000DC0C18BF033202EBDC02C2F1200300FADC
:1005900003FC20FA02F001FA03FE40EA0E0021FA01
:1005A00002F11444BDE600BF70B54FF0FF0C4CF4EF
:1005B000E06C1CEA11541DBF1CEA135594EA0C0FA1
:1005C00095EA0C0F00F0DEF82C4481EA030621EADC
:1005D0004C5123EA4C5350EA013518BF52EA033517
:1005E00041F4801143F4801338D0A0FB02CE4FF0C9
:1005F0000005E1FB02E506F00042E0FB03E54FF0F9
:100600000006E1FB03569CF0000F18BF4EF0010EF0
:10061000A4F1FF04B6F5007F64F5407404D25FEAEC
:100620004E0E6D4146EB060642EAC62141EA55519F
:100630004FEAC52040EA5E504FEACE2EB4F1FD0CE1
:1006400088BFBCF5E06F1ED8BEF1004F08BF5FEA5F
:10065000500E50F1000041EB045170BD06F0004611
:1006600046EA010140EA020081EA0301B4EB5C04BE
:10067000C2BFD4EB0C0541EA045170BD41F48011B6
:100680004FF0000E013C00F3AB8014F1360FDEBFDB
:10069000002001F0004170BDC4F10004203C35DAB7
:1006A0000C341BDC04F11404C4F1200500FA05F33A
:1006B00020FA04F001FA05F240EA020001F00042DB
:1006C00021F0004110EBD37021FA04F642EB060151
:1006D0005EEA430E08BF20EAD37070BDC4F10C047B
:1006E000C4F1200500FA04F320FA05F001FA04F23F
:1006F00040EA020001F0004110EBD37041F100012B
:100700005EEA430E08BF20EAD37070BDC4F1200535
:1007100000FA05F24EEA020E20FA04F301FA05F29D
:1007200043EA020321FA04F001F0004121FA04F245
:1007300020EA020000EBD3705EEA430E08BF20EA15
:10074000D37070BD94F0000F0FD101F0004640004F
:1007500041EB010111F4801F08BF013CF7D041EAD1
:10076000060195F0000F18BF704703F000465200D5
:1007700043EB030313F4801F08BF013DF7D043EAA6
:100780000603704794EA0C0F0CEA135518BF95EA5C
:100790000C0F0CD050EA410618BF52EA4306D1D1E3
:1007A00081EA030101F000414FF0000070BD50EA02
:1007B000410606BF1046194652EA430619D094EA8C
:1007C0000C0F02D150EA013613D195EA0C0F05D176
:1007D00052EA03361CBF104619460AD181EA0301CA
:1007E00001F0004141F0FE4141F470014FF0000082
:1007F00070BD41F0FE4141F4780170BD70B54FF01D
:10080000FF0C4CF4E06C1CEA11541DBF1CEA13559C
:1008100094EA0C0F95EA0C0F00F0A7F8A4EB05047E
:1008200081EA030E52EA03354FEA013100F0888075
:100830004FEA03334FF0805545EA131343EA12633E
:100840004FEA022245EA111545EA10654FEA0026F3
:100850000EF000419D4208BF964244F1FD0404F5AC
:10086000407402D25B084FEA3202B61A65EB030508
:100870005B084FEA32024FF480104FF4002CB6EBC5
:10088000020E75EB030E22BFB61A754640EA0C0045
:100890005B084FEA3202B6EB020E75EB030E22BF85
:1008A000B61A754640EA5C005B084FEA3202B6EBC6
:1008B000020E75EB030E22BFB61A754640EA9C0085
:1008C0005B084FEA3202B6EB020E75EB030E22BF55
:1008D000B61A754640EADC0055EA060E18D04FEA13
:1008E000051545EA16754FEA06164FEAC30343EAB3
:1008F00052734FEAC2025FEA1C1CC0D111F4801F80
:100900000BD141EA00014FF000004FF0004CB6E778
:1009100011F4801F04BF01430020B4F1FD0C88BF17
:10092000BCF5E06F3FF6AFAEB5EB030C04BFB6EB22
:10093000020C5FEA500C50F1000041EB045170BD15
:100940000EF0004E4EEA113114EB5C04C2BFD4EB42
:100950000C0541EA045170BD41F480114FF0000EC6
:10096000013C90E645EA060E8DE60CEA135594EA42
:100970000C0F08BF95EA0C0F3FF43BAF94EA0C0F45
:100980000AD150EA01347FF434AF95EA0C0F7FF4BA
:1009900025AF104619462CE795EA0C0F06D152EA0E
:1009A00003353FF4FDAE1046194622E750EA4106F2
:1009B00018BF52EA43067FF4C5AE50EA41047FF403
:1009C0000DAF52EA43057FF4EBAE12E74FF0FF3C68
:1009D00006E000BF4FF0010C02E000BF4FF0010C39
:1009E0004DF804CD4FEA410C7FEA6C5C4FEA430CB2
:1009F00018BF7FEA6C5C1BD001B050EA410C0CBF01
:100A000052EA430C91EA030F02BF90EA020F002062
:100A1000704710F1000F91EA030F58BF994208BFC9
:100A200090422CBFD8176FEAE37040F00100704786
:100A30004FEA410C7FEA6C5C02D150EA013C07D1DD
:100A40004FEA430C7FEA6C5CD6D152EA033CD3D028
:100A50005DF8040B704700BF8446104662468C4622
:100A60001946634600E000BF01B5FFF7B7FF002855
:100A700048BF10F1000F01BD4DF808EDFFF7F4FF7E
:100A80000CBF012000205DF808FB00BF4DF808ED09
:100A9000FFF7EAFF34BF012000205DF808FB00BF2C
:100AA0004DF808EDFFF7E0FF94BF012000205DF84E
:100AB00008FB00BF4DF808EDFFF7CEFF94BF012003
:100AC00000205DF808FB00BF4DF808EDFFF7C4FFFC
:100AD00034BF012000205DF808FB00BF4FEA410C45
:100AE0007FEA6C5C02D150EA013C0AD14FEA430C28
:100AF0007FEA6C5C02D152EA033C02D14FF0000065
:100B000070474FF0010070474FEA410212F50012A2
:100B100015D211D56FF47873B3EB625212D94FEA44
:100B2000C12343F0004343EA505311F0004F23FA2E
:100B300002F018BF404270474FF00000704750EA83
:100B4000013005D111F0004008BF6FF00040704740
:100B50004FF00000704700BF4FEA4102B2F1E0439E
:100B600024BFB3F5001CDCF1FE5C0DD901F0004C94
:100B70004FEAC0024CEA5070B2F1004F40EB8300E4
:100B800008BF20F00100704711F0804F21D113F110
:100B90003872BCBF01F00040704741F480114FEA49
:100BA0005252C2F11802C2F1200C10FA0CF320FAD2
:100BB00002F018BF40F001004FEAC1234FEAD323EF
:100BC00003FA0CFC40EA0C0023FA02F34FEA430359
:100BD000CCE77FEA625307D150EA01331EBF4FF0E2
:100BE000FE4040F44000704701F0004040F0FE40FD
:100BF00040F40000704700BF80B400AF034B1B6897
:100C00001846BD465DF8047B704700BF8075FF1F26
:100C100080B400AF034B1B68DBB21846BD465DF8DD
:100C2000047B70478475FF1F80B400AF034B1B68C3
:100C30001B0A1846BD465DF8047B70478475FF1F8C
:100C4000B0B58CB000AF2B4B3C461D460FCD0FC44A
:100C50000FCD0FC495E80F0007C4237000F0FEF914
:100C60000121022011F002FB234A002123480DF04C
:100C7000A5F90246224B1A603B4618460BF032FD9E
:100C80000346002B01D004F009FA00F00FFA0AF035
:100C9000D5FC1C4B002283F880201A4B4FF6FF72C4
:100CA000DA82194A002119480DF088F90246184BDA
:100CB0001A60184B00221A70174B01221A7000F0AC
:100CC000A3FC164B00221649002002F005FC0D4B38
:100CD00000225A760B4B00221A76124B80221A8081
:100CE000114BA0221A80012000F0BCFA00BF30375F
:100CF000BD46B0BD945F0108206901087914000861
:100D00008877002010020020FC68010851140008B8
:100D1000B0780020957700209477002039140008DF
:100D200091020020940200209602002080B58CB031
:100D300000AF7860422387F82F307B680133BB62B5
:100D4000BB6A1B783E2B28D0FF2B00F0A580052B1B
:100D500000D045E1BB6A02333B613B69B3F8013027
:100D60009AB2A24BDB8A9A4209D1A04B0022DA82C6
:100D70009E4B002283F880209D4811F0B3FF012094
:100D800000F070FA9B4B01221A70984BDA8A994B4B
:100D90005A80984800F024FC22E1BB6A0233FB61D0
:100DA000FB691B78032B04D00C2B06D0012B42D0FF
:100DB00071E0914811F096FF6DE0904811F092FFBC
:100DC000FB690133BB61BB691B78002B03D18C48E5
:100DD00011F088FF02E08B4811F084FF834BDB8A1F
:100DE00007F10E0207F10F0118460BF08CFB0346CA
:100DF00087F82F3097F82F30002B18D1824811F048
:100E000071FFFB7B022B0AD1BB7B022B07D1FB7B43
:100E10001946BB7B1A467D4811F0F0FE3BE0FB7B98
:100E20001946BB7B1A46794811F0E8FE33E0784852
:100E300011F058FF2FE0FB6901337B616B4B93F896
:100E40008130184602F0BEFB7B69B3F801309BB2DB
:100E50001946704811F0D2FE644B93F88030042B91
:100E600004D1624B062283F8802003E05F4B052209
:100E700083F880207B69B3F801309AB25B4BDA8249
:100E80005C4B00221A70594BDA8A5A4B5A805948E7
:100E900000F0A6FB00BFA3E0BB6A02337B627B6A63
:100EA0001B889BB240F2054293424AD040F2054271
:100EB000934218DC40F20242934233D040F20242A5
:100EC000934207DCB3F5806F28D040F20142934291
:100ED00069D084E040F2034293422AD040F20442B7
:100EE00093422AD07BE0B3F5816F3AD0B3F5816F9E
:100EF00008DC40F2064293422FD040F20742934270
:100F000069D06CE040F20A4293422ED040F20A428D
:100F100093422EDBB3F5006F5AD060E03E4811F0EB
:100F2000E1FE5CE03D4811F0DDFE3D4811F0DAFEE7
:100F300055E03C4811F0D6FE51E03B4811F0D2FE9E
:100F40004DE03A4811F0CEFE284BDB8A18460AF0F5
:100F500010FF374811F0C6FE41E0364811F0C2FEDE
:100F60003DE0344811F0BEFE39E0334811F0BAFEDE
:100F700035E07B6A0233D3F8023019462F4811F06E
:100F80003DFE7B6A0233D3F8023019462C4811F03B
:100F900035FE164BDB8A012118460AF034FF29483A
:100FA00011F0A0FE1BE07B6A02333B623B6A9B7838
:100FB0001946254811F022FE3B6A9B78002B03D18D
:100FC000224811F08FFE0AE0214811F08BFE06E066
:100FD000204B01221A70204811F084FE00BF00BF90
:100FE000012318463037BD4680BD00BF10020020E7
:100FF000C45F01088C770020EC5F010818600108CD
:10100000346001085860010880600108946001089C
:10101000B0600108C8600108FC600108286101088F
:1010200050610108706101089C610108CC610108F0
:10103000EC610108086201082C620108586201088D
:101040007062010884620108C06201081863010827
:101050002C630108947700204063010880B582B0BA
:1010600000AF00200DF074F902460B4B1A6000220D
:10107000002101200DF0B4FA0246084B1A60084B1B
:101080003B60084B7B603B46194607480BF058FB1A
:1010900000BF0837BD4680BD9877002084770020C8
:1010A0002800032031150008F9140008F0B58FB0AE
:1010B00006AF4FF450733B800BF001FA00F078F963
:1010C000F861FA69062100200BF039F9FB695A79B9
:1010D0005C4B1A72FB691A795A4B5A72FB69DA78BF
:1010E000584B9A72FB699A78564BDA72FB695A78B8
:1010F000544B1A73FB691A78524B5A73524A102197
:1011000018200BF01CF9514A102108200BF017F998
:101110004EF66E53BB60FFF76FFD03467B603B1DD1
:101120001A4606212E200BF00AF9474A10211820F2
:101130000BF005F9454A102108200BF000F91821A1
:1011400001200BF065F90AF0B5FE0023FB76FB7E6B
:1011500043F00103FB76FB7E002B24D03C4B7B61EC
:1011600007F11202F87E07F10E03019307F1100355
:1011700000931346072200210AF0F0FC7C8A3D8A86
:101180007869FEF7FDFF0346DAB27B6900931346E8
:101190000022294620460BF04BF80346002B02D0D4
:1011A0002C4811F09FFD788AF9893B460093022371
:1011B00000220BF03DF80346002B02D0264811F028
:1011C00091FD0222022100200BF005FA234B01229F
:1011D0001A70224B1B7818460AF0CEFB1F4B0122D7
:1011E0005A701E4B08221A711C4B10225A711B4B4D
:1011F0000022DA70194B1A4A9A60184B01229A7031
:10120000164B9D78154B5E78144B1B79134A527917
:101210001249C9781148806800240494039002910F
:101220000192009300230122314628460AF0EEFB8A
:101230000A4B9B78002B01D00AF077FD00BF2437C2
:10124000BD46F0BD04000020D4680108E468010830
:101250006863010870630108A063010810020020A0
:1012600007B2010080B58CB008AF0346FB71422382
:10127000FB72FB79012B06D13F4B1B88FB813F4B57
:101280001B88BB8105E04FF4C863FB814FF47A6390
:10129000BB813B4B93F88130184602F093F9384BF1
:1012A00093F880301946374811F0A8FCFB79022BDF
:1012B00019D1334B93F88030012B04D0304B93F885
:1012C0008030022B0FD10AF055FA0346FB72FB7AED
:1012D000002B03D12C4811F005FD04E0FB7A1946E0
:1012E0002A4811F08BFC264AFB7982F88030244B87
:1012F0001B7EB889F9890022069200220592244AB1
:1013000004920393234B0293082301930023009339
:101310000023024600200AF051FA0346FB721E49E0
:101320000E200AF0A6FC0346FB72FB7A002B11D1BB
:10133000FB79012B0AD1194811F0D4FC104B93F81A
:1013400081301749184602F0C7F912E0154811F02C
:10135000C9FC0EE0FB79012B05D1FB7A1946124836
:1013600011F04CFC05E0FB7A1946104811F046FCE0
:1013700000BF1037BD4680BD9402002096020020B9
:1013800010020020D0630108EC630108106401081A
:1013900029020020F46801080400002038640108D4
:1013A00046E00100606401088C640108BC64010827
:1013B00080B586B000AFFFF71FFC38613B69B3F121
:1013C000FF3F23D0FFF730FCB860FFF721FC7860C7
:1013D0003B69DAB2164B1A703B691B0ADAB2144B3E
:1013E0005A703B691B0CDAB2114B9A707B68DAB207
:1013F0000F4BDA70BB68DAB20D4B1A71BB681B0A6F
:10140000DAB20B4B5A710A4B7B610BE000200CF0F7
:1014100085F8F860FB68002B02D0FB687B6101E077
:10142000044B7B617B6918461837BD4680BD00BF01
:10143000D4030020CC68010880B500AF034B1B68C3
:10144000012118460CF060FE00BF80BDB07800207E
:1014500080B582B000AF78604FF0FF3200210120EC
:101460000CF0B4FE00F001F8F6E780B500AF022002
:10147000FFF7F8FE00BF80BD80B582B000AF786096
:101480004FF0FF32002101200CF0A0FE0BF074F9A8
:10149000F6E7000080B582B000AF7860044B1B68AF
:1014A000012118460CF030FE00BF0837BD4680BD54
:1014B0008877002080B582B000AF7860044B1B684D
:1014C00018460DF091F900BF0837BD4680BD00BF3A
:1014D0008477002080B582B000AF7860054B1B6830
:1014E0004FF0FF3118460DF019F900BF0837BD461F
:1014F00080BD00BF8477002080B584B000AF7860E5
:101500007B68FB60FB685B68083318460AF0E0F80C
:101510000346FB72FB7A002B03D0FB6801221A7092
:1015200002E0FB6800221A7000BF1037BD4680BD84
:1015300080B582B000AF0346FB71FB79002B02D06F
:10154000012B08D00DE0094B1B684FF0FF31184606
:101550000CF098FF05E0054B1B6818460CF0F0FFF7
:1015600000BF00BF0837BD4680BD00BF9877002090
:1015700080B582B000AF78607B681B78012B0ED0FD
:10158000032B16D0002B00D01CE0104B01221A7048
:101590000F4811F0A7FB0F4811F030FB12E00B4B86
:1015A00000221A700C4811F09DFB0A4811F026FB2E
:1015B00008E00A4B18687B68191D002300220DF013
:1015C000F1F900BF00BF0837BD4680BD980200207A
:1015D00070650108A4650108A865010890770020DE
:1015E00080B582B000AF78607B681B78002B05D097
:1015F000012B00D003E000F013F800E000BF00BFB3
:101600000837BD4680BD000080B500AF034B002207
:101610001A7000F005F800BF80BD00BF98020020DE
:1016200090B400AF0E4B01225A700D4B00229A70FD
:101630000B4B0122DA700A4B00221A71084A4FF054
:1016400000034FF00004C2E90234054B00221A7473
:10165000034B00225A7400BFBD4690BC704700BFC8
:101660009802002080B58CB000AF0346FB80304B61
:101670001B78002B54D02F4811F0C0FA2E4811F0DF
:10168000BDFA2E4B1B684FF0FF3118460CF0FAFEE6
:1016900007F11C0301221946294807F0BEFF07F194
:1016A000180301221946264808F0C1F8234B1B688D
:1016B00018460CF045FF07F10C0300221A605A602F
:1016C0001A813B7E1B021AB27B7E1BB213431BB2F4
:1016D0009BB2BB82BB7E1B021AB2FB7E1BB21343C2
:1016E0001BB29BB27B823B7F1B021AB27B7F1BB279
:1016F00013431BB29BB23B82BB7F1B021AB2FB7F20
:101700001BB213431BB29BB2FB81FB88BB8107F169
:101710000C030A2219464FF642600BF029FE03E043
:10172000084811F06BFA00BF3037BD4680BD00BFDE
:101730009802002060660108A4650108C0770020B7
:101740009C7700201466010880B400AF054BDB686D
:10175000044A43F40043D36000BFBD465DF8047BF8
:10176000704700BF0004005880B483B000AF7860B9
:10177000064BD3F8D42005497B681343C1F8D43015
:1017800000BF0C37BD465DF8047B70470008005869
:1017900080B483B000AF7860054B1A6A04497B6857
:1017A00013430B6200BF0C37BD465DF8047B7047E6
:1017B0000008005880B485B000AF78604FF0B043A7
:1017C0001A6D4FF0B0417B6813430B654FF0B04387
:1017D0001A6D7B681340FB60FB6800BF1437BD4681
:1017E0005DF8047B704780B485B000AF78604FF03F
:1017F000B043D3F850214FF0B0417B681343C1F898
:1018000050314FF0B043D3F850217B681340FB6058
:10181000FB6800BF1437BD465DF8047B704780B499
:1018200083B000AF78607B681B6843F480327B68CC
:101830001A6000BF0C37BD465DF8047B704780B46A
:1018400083B000AF78607B681B6843F001027B685F
:101850001A6000BF0C37BD465DF8047B704780B44A
:1018600083B000AF786039607B685A683B681B04BE
:10187000DB431A407B685A6000BF0C37BD465DF8F9
:10188000047B704780B483B000AF786039607B68B8
:101890005A683B681B041A437B685A6000BF0C37C8
:1018A000BD465DF8047B704780B483B000AF7860BC
:1018B00039607B685A683B68DB431A407B685A6032
:1018C00000BF0C37BD465DF8047B704780B483B021
:1018D00000AF786039607B683A689A6000BF0C3767
:1018E000BD465DF8047B704780B483B000AF78607C
:1018F00039603B681A047B689A6000BF0C37BD46AC
:101900005DF8047B704780B483B000AF78603960C5
:101910007B68DA683B6813403A689A4201D1012338
:1019200000E0002318460C37BD465DF8047B704785
:1019300080B483B000AF786039607B68DA693B6857
:1019400013403A689A4201D1012300E0002318466F
:101950000C37BD465DF8047B7047000080B500AFD2
:1019600002211948FFF7E4FF0346002B09D0164B6C
:101970005B68DB4303F00203002B02D000F0EAF8BF
:101980001FE001211048FFF7D3FF0346002B08D0CA
:101990000D4B5B6803F00103002B02D100F09EF8B1
:1019A0000FE008210848FFF7C3FF0346002B09D0CA
:1019B000054B5B68DB4303F00803002B02D000F00B
:1019C00015F900BF00BF80BD000C005880B500AF06
:1019D00002212248FFF797FF0346002B09D11F4B36
:1019E0005B68DB4303F40033002B02D000F0A6F861
:1019F00031E002211948FFF786FF0346002B09D189
:101A0000164B5B68DB4303F40033002B02D000F07D
:101A100095F820E008211148FFF775FF0346002BD9
:101A200009D10E4B5B68DB4303F40023002B02D08B
:101A300000F0BEF80FE020210848FFF764FF0346DE
:101A4000002B09D1054B5B68DB4303F40013002B2B
:101A500002D000F04FF800BF00BF80BD000C00585E
:101A600080B500AF4FF48010FFF7BDFE4FF400705B
:101A7000FFF77AFE4FF40070FFF78AFE40BF20BFE9
:101A8000FFF762FE00BF80BD80B500AF4FF480104D
:101A9000FFF790FE0648FFF7D2FE0548FFF7BFFEAE
:101AA0002C2004F06FFC2D2004F06CFC00BF80BDE6
:101AB000000C005880B500AF01210248FFF7F4FE8A
:101AC00000BF80BD000C005880B500AF0121024866
:101AD000FFF70AFF00BF80BD000C005880B500AFC3
:101AE0000BF088F901210248FFF7F0FE00BF80BD2E
:101AF000000C005880B500AF20210348FFF7C2FE5C
:101B00000BF0A8F900BF80BD000C005880B500AFF5
:101B100002210248FFF7C8FE00BF80BD000C00583C
:101B200080B500AF02210448FFF7DEFE0221024823
:101B3000FFF795FE00BF80BD000C005880B500AFD8
:101B400002210348FFF79EFE0BF0D4F900BF80BDD1
:101B5000000C005880B500AF0BF0E2F902210248FA
:101B6000FFF7B4FE00BF80BD000C005880B582B006
:101B700000AF786008210C48FFF7C5FE0346002B34
:101B800007D00A4A7B68136008210748FFF767FE01
:101B900006E07B68984708210348FFF7A5FE00BFD1
:101BA0000837BD4680BD00BF000C0058DC03002094
:101BB00080B500AF08210648FFF764FE054B1B689F
:101BC000984708210248FFF78FFE00BF80BD00BF85
:101BD000000C0058DC03002080B500AF082102484B
:101BE000FFF762FE00BF80BD000C005880B500AF5B
:101BF0000BF03EFA08210248FFF768FE00BF80BDE7
:101C0000000C0058D458C4500433C4188C42F9D383
:101C10007047036004308842FBD370470C48854608
:101C200004F0A6F90B480C490C4A0023FFF7EDFF1E
:101C30000B480C490023FFF7EEFF0B480B4900232C
:101C4000FFF7E9FF10F046FB02F07AF9FEE700002B
:101C50000000032004000020F8010020307D01086E
:101C6000B8030020047B0020E0010320570A032072
:101C7000FEE7000080B483B000AF7860064BD3F875
:101C8000902005497B681343C1F8903000BF0C37A2
:101C9000BD465DF8047B70470008005880B485B0ED
:101CA00000AF78604FF0B043DA6C4FF0B0417B6822
:101CB0001343CB644FF0B043DA6C7B681340FB6096
:101CC000FB6800BF1437BD465DF8047B704780B4E5
:101CD00085B000AF78604FF0B043D3F84C214FF09F
:101CE000B0417B681343C1F84C314FF0B043D3F897
:101CF0004C217B681340FB60FB6800BF1437BD4676
:101D00005DF8047B704780B500AF04F0FFF904F084
:101D100003FA4FF48030FFF7ADFF0BF085FB00F0C6
:101D200021F800F0BFF800BF80BD0000B0B588B05A
:101D300000AF0B4B3C1D1D460FCD0FC495E80700AF
:101D400003C422800234130C23700BF07FF93B1D77
:101D500018460AF0DEFC00BF2037BD46B0BD00BF0C
:101D60009866010880B588B000AF3B1D00221A605C
:101D70005A609A60DA601A610023BB8300237B8378
:101D800000233B830023FB7733E0FB7F424ADB00E9
:101D900013449B79002B28D0FB7F3F4A52F8333005
:101DA0003E4A93420FD03E4A934215D0B3F1904F32
:101DB00000D01BE0FB7F384ADB0013449A88BB8BC2
:101DC0001343BB8312E0FB7F334ADB0013449A8842
:101DD0007B8B13437B8309E0FB7F2F4ADB0013449B
:101DE0009A883B8B13433B8300E000BFFB7F0133AA
:101DF000FB77FB7F212BC8D90023FB600123BB604D
:101E000003233B61BB8B002B14D0BB8B7B60012079
:101E1000FFF744FF0120FFF75AFF3B1D19464FF023
:101E2000904004F0E7FABB8B002219464FF0904037
:101E300004F068FC7B8B002B12D07B8B7B60022034
:101E4000FFF72CFF0220FFF742FF3B1D1946134806
:101E500004F0D0FA7B8B00221946104804F052FCA3
:101E60003B8B002B13D03B8B7B600420FFF716FFCE
:101E70000420FFF72CFF3B1D1946094804F0BAFA6D
:101E80003B8B00221946064804F03CFC00BF00BF13
:101E90002037BD4680BD00BF4469010800040048EA
:101EA0000008004880B400AF00BFBD465DF8047B69
:101EB000704780B400AF00BFBD465DF8047B70473B
:101EC00080B584B000AFF8600B467A607B817A8978
:101ED0007B68F968002001F093FC00BF1037BD4615
:101EE00080BD000080B483B000AF7860074BD3F8AA
:101EF000803023F0070205497B681343C1F8803026
:101F000000BF0C37BD465DF8047B704700040058E5
:101F100080B483B000AF78604FF0B0439B6823F487
:101F200000424FF0B0417B6813438B6000BF0C3719
:101F3000BD465DF8047B704780B500AF00F014F833
:101F40000849002001F0E2F9FFF7DDFE0121012040
:101F500010F08CF900F0A1F800F0A6F800F012F8EB
:101F600000BF80BD9C77002080B500AF4FF40040DB
:101F7000FFF7CEFF10F068F90420FFF7B3FF00BFB2
:101F800080BD000080B588B000AF0AF0A9FE002037
:101F90000CF0DEF90246174B1A60002200210120E6
:101FA0000CF01EFB0246144B1A60144A0021144820
:101FB0000CF004F80246134B1A60134B3B60134BB2
:101FC0007B603B46194612480AF050FD114BBB603E
:101FD000114BFB60114B3B6140F23C537B6107F1BD
:101FE000080318460AF0BEFF0AF074FE00BF20374F
:101FF000BD4680BDC4780020CC780020546A01081A
:1020000081200008C8780020240703202120000830
:10201000612000083C09032030080320E801032068
:1020200080B582B000AF0346FB71FB79002B02D074
:10203000012B08D00DE0094B1B684FF0FF3118460B
:102040000CF020FA05E0054B1B6818460CF078FAF6
:1020500000BF00BF0837BD4680BD00BFC478002068
:1020600080B582B000AF7860FFF760FEFEF7E8FD54
:102070000021012010F0FAF800BF0837BD4680BDEE
:1020800080B582B000AF78604FF0FF3200210120B0
:102090000CF09CF80AF006FDF6E780B400AF00BF34
:1020A000BD465DF8047B704780B400AF00BFBD46FD
:1020B0005DF8047B7047000080B582B000AF7860A7
:1020C000044B1B68012118460CF01EF800BF0837AE
:1020D000BD4680BDC878002080B582B000AF786072
:1020E000044B1B6818460CF07FFB00BF0837BD4649
:1020F00080BD00BFCC78002080B582B000AF786092
:10210000054B1B684FF0FF3118460CF007FB00BF72
:102110000837BD4680BD00BFCC78002080B584B0B4
:1021200000AF78607B681B68234A13607B689A88DD
:10213000214B9A80204B00229A717B689B7903F097
:102140000303DAB21C4B1A737B689B799B08DBB2E2
:1021500003F00303DAB2184B5A737B689B791B09AF
:10216000DBB203F00303DAB2134B9A73124B1A7B00
:10217000114B5B7B9A420CD10F4B9A880E4B9B887C
:102180000333002B00DA03339B109BB213449BB242
:1021900005E0094B9B881A46520013449BB2FB8111
:1021A000FB8918460CF05CFF03461A46024B9A6006
:1021B00000BF1037BD4680BDD078002080B584B008
:1021C00000AF4B4B9B68002B00F08E80484B9B6808
:1021D000FB60474B9B883B81454B9B79FB800023F1
:1021E0007B710023FB720AE0414B1868791D4FF0A8
:1021F000FF33012207F0CDFCFB7A0133FB72FB7A3F
:10220000032BF1D93A4B9B79002B2CD0FF237B7108
:10221000374B1868791D4FF0FF33012207F0B9FCE6
:102220000023FB7215E0FB685A1CFA601B781A4603
:10223000FB8803FB02F31B12DBB27B712C4B18688B
:10224000791D4FF0FF33012207F0A3FCFB7A013325
:10225000FB72FB7A022BE6D93B89013B3B813B8930
:10226000002BD3D125E0FF237B71214B1868791D0A
:102270004FF0FF33012207F08CFC0023FB720FE0CC
:10228000FB685A1CFA601B787B71194B1868791D22
:102290004FF0FF33012207F07CFCFB7A0133FB7225
:1022A000FB7A022BECD93B89013B3B813B89002B1C
:1022B000D9D1FF237B710023FB720AE00C4B186815
:1022C000791D4FF0FF33012207F063FCFB7A0133E5
:1022D000FB72FA7A064B9B880F33002B00DA0F3320
:1022E0001B119A42EADB00E000BF1037BD4680BDFB
:1022F000D078002080B500AF0F4B98680E4B1A7B4A
:102300000D4B5B7B9A420BD10B4B9B881A460A4BB9
:102310009B880333002B00DA03339B10134405E042
:10232000054B9B881A4613465B0013441A4600214E
:102330000FF0FFFF00BF80BDD078002080B485B0D3
:1023400000AF03463960FB80164B9B88FA889A429F
:1023500021D2144B9968FA8813465B0013440B444E
:10236000FB603B681A0C0F4B1B7B1946FB680B4448
:10237000D2B21A703B681A0A0A4B5B7B1946FB689B
:102380000B44D2B21A70074B9B7B1A46FB6813446E
:102390003A68D2B21A7000BF1437BD465DF8047BAC
:1023A000704700BFD078002080B584B000AF78605F
:1023B0000B467B8013463B80154B9B887A889A425C
:1023C00022D23B88002B03D1114B9B88BB810BE0B1
:1023D0007A883B881344BB810D4B9B88BA899A420B
:1023E00002D90B4B9B88BB817B88FB8107E0FB8973
:1023F00079681846FFF7A2FFFB890133FB81FA8950
:10240000BB899A42F3D300E000BF1037BD4680BDC0
:10241000D078002080B483B000AF0346FB71FB7915
:102420000133DAB2034B9A7100BF0C37BD465DF839
:10243000047B7047D078002080B586B002AF034699
:102440000A46FB711346BB717823FB81BB793B7352
:10245000FB797B7307F10C02F9894FF0FF3300938E
:102460000223034804F032FA00BF1037BD4680BD96
:10247000EC78002080B500AF0021AE20FFF7DCFF34
:102480000021D520FFF7D8FF00218020FFF7D4FFDF
:102490000021A820FFF7D0FF00212720FFF7CCFF65
:1024A0000021D320FFF7C8FF00210020FFF7C4FF61
:1024B0000021AD20FFF7C0FF00213020FFF7BCFF57
:1024C00000218D20FFF7B8FF00211420FFF7B4FF93
:1024D00000214020FFF7B0FF0021A620FFF7ACFF4E
:1024E0000021A420FFF7A8FF0021A120FFF7A4FFEF
:1024F0000021C820FFF7A0FF0021DA20FFF79CFF92
:1025000000211220FFF798FF00218120FFF794FFA0
:102510000021AF20FFF790FF0021D920FFF78CFFAB
:1025200000212220FFF788FF0021DB20FFF784FF36
:1025300000212020FFF780FF0021AF20FFF77CFF64
:1025400000BF80BD80B485B000AF78600023FB6021
:1025500007E0FB687A68134400221A70FB680133B5
:10256000FB60FB68B3F5B47FF3DB00BF1437BD46F7
:102570005DF8047B704780B485B000AFF860B96047
:102580003B601346FB71FB68482B61DCBB68282B62
:102590005EDCFB79002B2CD0BB68002B00DA073304
:1025A000DB101A461346DB001344DB001946FB68B8
:1025B0000B4419463B680B441B7859B2BB68584220
:1025C00003F0070300F0070058BF4342012000FA60
:1025D00003F35BB20B4359B21346DB001344DB0039
:1025E0001A46FB6813441A463B681344CAB21A7071
:1025F0002FE0BB68002B00DA0733DB101A461346C6
:10260000DB001344DB001946FB680B4419463B68AA
:102610000B441B7859B2BB68584203F0070300F023
:10262000070058BF4342012000FA03F35BB2DB43CB
:102630005BB20B4059B21346DB001344DB001A4671
:10264000FB6813441A463B681344CAB21A7000E090
:1026500000BF1437BD465DF8047B704790B587B066
:1026600000AF0446084611461A462346FB7103464E
:10267000BB710B467B7113463B71BB793B74802366
:102680007B8208237B747B79203BFB733B79202B77
:1026900004D14FF400437B8210237B740023FB752D
:1026A000B1E03B790C2B1DD197F82830002B0BD0D3
:1026B000FA7BF97D584813465B0013449B000344A2
:1026C0000B441B78BB826CE0FA7BF97D52481346C1
:1026D0005B0013449B0003440B441B789BB2DB4319
:1026E000BB825EE03B79102B17D197F82830002B86
:1026F00008D0FA7BFB7D494912010A4413441B7838
:10270000BB824EE0FA7BFB7D444912010A4413442C
:102710001B789BB2DB43BB8243E097F82830002B49
:102720001CD0FB7BA3F11002FB7D5B003C499201B6
:102730000A4413441B789BB21B02BB82FB7BA3F1B0
:102740001002FB7D5B000133354992010A441344BA
:102750001B789AB2BB8A1343BB8222E0FB7BA3F1B6
:102760001002FB7D5B002E4992010A4413441B7842
:102770009BB2DB439BB21B02BB82FB7BA3F110022B
:10278000FB7D5B000133264992010A4413441B7808
:102790009BB2DB439BB21AB2B7F9143013431BB29E
:1027A000BB820023BB7527E0BA8A7B8A13409BB2A9
:1027B000002B06D0F879B979FB6A0122FFF7DBFE1E
:1027C00005E0F879B979FB6A0022FFF7D4FEBB8AED
:1027D0005B00BB82BB790133BB71BA793B7CD21AF7
:1027E0003B799A4205D13B7CBB71FB790133FB718C
:1027F00006E0BB7D0133BB75BA7D7B7C9A42D3D3A7
:10280000FB7D0133FB75FA7D3B799A42FFF449AFBA
:1028100000BF1C37BD4690BD786A0108EC6E010808
:10282000DC74010890B585B002AF3A601A460346E1
:10283000FB710B46BB7113467B712CE0FA797B79F7
:102840005B08DBB2C3F148039A420FDD0023FB7142
:10285000BA797B791344BB71BA797B79C3F12803C8
:102860009A4203DD0023FB71FB79BB713B681A7848
:102870007C79B979F879FB6901933B7E0093234613
:10288000FFF7ECFE7B795B08DAB2FB791344FB714E
:102890003B6801333B603B681B78002BCED100BF07
:1028A0000C37BD4690BD80B584B000AF7860002382
:1028B000FB7329E0FB7B503BDBB200211846FFF79E
:1028C000BBFD00210C20FFF7B7FD00211120FFF711
:1028D000B3FD0023BB7311E0B97BFA7B1346DB0029
:1028E0001344DB000B441A467B6813441B784021D9
:1028F0001846FFF7A1FDBB7B0133BB73BB7B472BA6
:10290000EAD9FB7B0133FB73FB7B042BD2D900BFDD
:102910001037BD4680BD80B5DEB002AF3B1D1860EC
:1029200007F108031846FFF70DFE3B1D1B683A1D13
:10293000591C11601A7807F10803019301230093D1
:10294000202304210020FFF789FE3B1D1B683A1D50
:10295000591C11601A7807F10803019301230093B1
:10296000202304211020FFF779FE3B1D1B683A1D30
:10297000591C11601A7807F1080301930123009391
:10298000202304212820FFF769FE3B1D1B681A78CD
:1029900007F1080301930123009320230421382029
:1029A000FFF75CFE07F1080301220C212420FFF74A
:1029B000E2FD07F1080301220D212420FFF7DBFDD2
:1029C00007F1080301220E212420FFF7D4FD07F1AF
:1029D000080301221C212420FFF7CDFD07F1080385
:1029E00001221B212420FFF7C6FD07F10803012265
:1029F0001A212420FFF7BFFD07F108031846FFF74F
:102A000052FF00BF07F5B877BD4680BD80B5E0B086
:102A100002AF3B1D186007F10C0318464FF4B47366
:102A20001A4600210FF085FC3B1D1A681E4B83FBE4
:102A300002139910D317C91A0B469B000B445B0075
:102A4000D11ACBB2303387F877313B1D1B68164A59
:102A500082FB03129210DB17D31ADBB2303387F8F4
:102A6000763197F8762107F10C0301930123009347
:102A70000C230E211B20FFF7F1FD97F8772107F1BA
:102A80000C030193012300930C230E212420FFF754
:102A9000E5FD07F10C031846FFF705FF00BF07F53A
:102AA000BC77BD4680BD00BF6766666680B483B0F4
:102AB00000AF786000BF0C37BD465DF8047B7047FF
:102AC00080B483B000AF7860064BD3F8802005490E
:102AD0007B681343C1F8803000BF0C37BD465DF8FA
:102AE000047B70470008005880B483B000AF786062
:102AF000054B1A6804497B6813430B6000BF0C3711
:102B0000BD465DF8047B70470008005880B483B070
:102B100000AF0D4B9B6A9BB27B600B4B9B6A9BB2D9
:102B20003B6005E03B687B60074B9B6A9BB23B6068
:102B30007A683B689A42F5D13B6818460C37BD4627
:102B40005DF8047B704700BF0028004080B485B06A
:102B500000AF03460A46FB711346BB71BA791D49A3
:102B600013465B001344DB000B4415331B78FB73E7
:102B7000FB7B062B09D0FA7B164913465B001344F6
:102B8000DB000B441433FA791A70FA7911491346B1
:102B90005B001344DB000B441533FA7B1A70FA799F
:102BA0000C4913465B001344DB000B441433BA7921
:102BB0001A70BA79074913465B001344DB000B44D3
:102BC0001533FA791A7000BF1437BD465DF8047BDF
:102BD000704700BFC802002080B485B000AF034634
:102BE0000A46FB711346BB71294B1B78DBB2BA79DD
:102BF0009A4232D0BA79274913465B001344DB006E
:102C00000B4414331B78FB73FA7B224913465B0099
:102C10001344DB000B441533FA791A70FA791D4915
:102C200013465B001344DB000B441533BA791A706A
:102C3000FA79184913465B001344DB000B44143344
:102C4000FA7B1A70BA79134913465B001344DB0010
:102C50000B441433FA791A7014E0FA790D491346CB
:102C60005B001344DB000B441533BA791A70BA7950
:102C7000084913465B001344DB000B441433FA7914
:102C80001A7000BF1437BD465DF8047B704700BF63
:102C900058030020C802002080B584B000AF03466E
:102CA000FB714E4B1B78DBB2062B18D14B4B1B78BC
:102CB000DAB24B4B1A70494AFB791370FA794949D9
:102CC00013465B001344DB000B44153306221A70D5
:102CD000454B4FF0FF321A600023FB8178E000F093
:102CE00009F90346FB81FA793E4913465B00134418
:102CF000DB000B4408331968FB89FA791944394819
:102D000013465B001344DB00034408331960FA796F
:102D1000344913465B001344DB000B4408331B6843
:102D2000BB602E4B1B78DBB219462E4A0B465B006C
:102D30000B44DB00134408331B68BA689A4237D34C
:102D4000264B1B787B737A7B264913465B00134422
:102D5000DB000B4415331B783B7313E07A7B21496E
:102D600013465B001344DB000B4415331B787B7365
:102D70007A7B1C4913465B001344DB000B4415337C
:102D80001B783B733B7B062B0BD03A7B15491346D4
:102D90005B001344DB000B4408331B68BA689A429B
:102DA000DCD27A7BFB7911461846FFF7CFFE0FE0A5
:102DB0000A4B1B78DAB2FB7911461846FFF70CFF75
:102DC000064B1B78DAB2064B1A70044AFB79137073
:102DD000FB8918461037BD4680BD00BF5803002050
:102DE00059030020C80200205C03002080B485B095
:102DF00000AF03460A46FB711346BB71394B1B7883
:102E0000DBB2FA799A4211D1364B1B78DAB2364BE3
:102E10001A70FA79354913465B001344DB000B4402
:102E200015331B78DAB22F4B1A703EE0FA792F492E
:102E300013465B001344DB000B4414331B78FB7315
:102E4000FA792A4913465B001344DB000B4415331F
:102E50001B78BB73F979FA7B24480B465B000B4463
:102E6000DB00034415331B78D8B2204913465B00BE
:102E70001344DB000B44153302461A70BB7B062B50
:102E800013D0F979BA7B19480B465B000B44DB0081
:102E9000034414331B78D8B2144913465B0013441F
:102EA000DB000B44143302461A70FA790F491346BB
:102EB0005B001344DB000B440C3301221A70094BF6
:102EC0001B78DBB2062B07D1BB79002B04D1084B52
:102ED0004FF0FF321A6000BF00BF1437BD465DF8E7
:102EE000047B70475803002059030020C8020020CB
:102EF0005C03002080B582B000AF1A4B1B68B3F1B1
:102F0000FF3F26D0FFF702FE7860164B1B687A68F9
:102F10009A4205D8134B1A687B68D31A7B600AE083
:102F2000114B1B881A467B68D31A3B600D4B1B68FC
:102F30003A6813447B600D4B1B781A467B6802FB92
:102F400003F37B600A4B1B781A467B68D3407B6097
:102F500001E000237B607B689BB218460837BD46C2
:102F600080BD00BF5C030020E6030020E5030020D5
:102F7000E403002080B582B000AF0346FB80FB88ED
:102F8000002B08D1FFF7C2FD0246244B1A60032034
:102F900003F014FA3EE0FB88012B03D8204B1B788A
:102FA000012B02D0FB88013BFB8000BF1D4B1B683F
:102FB0001B68DB6803F00403002BF7D0194B1B6878
:102FC0001B68DB68DAB2174B1B681B6862F49062FF
:102FD000DA60154B4FF40022DA60032003F0FCF9AD
:102FE000124B5B691B0C1B04FA88104913434B619D
:102FF000FFF78CFD0246094B1A600A4B1B681B68E1
:103000009A68084B1B681B6842F480629A60AFF3B1
:10301000008000BF0837BD4680BD00BF5C030020B4
:10302000E4030020E00300200008005800280040CE
:1030300080B584B000AF474B9B6803F48063B3F561
:10304000806F08D100BF444B1B681B68DB6803F02E
:103050000403002BF7D1404B1B681B689A683E4B5A
:103060001B681B6822F480629A603C4B1B78FB73E0
:10307000FA7B3B4913465B001344DB000B440833E7
:103080001B68BB60FFF736FF0346FB80FB88BA680E
:103090009A4205D20023BB81324B01221A704DE0C7
:1030A000FB88314A128892B213441A46BB68934295
:1030B00006D92D4B1B88BB812A4B00221A703DE09C
:1030C000BB689AB2FB88D31ABB81264B01221A70C7
:1030D00034E0FA7B224913465B001344DB000B44C7
:1030E00008331A68FB889A420AD2FA7B1C491346B5
:1030F0005B001344DB000B44083300221A6013E02A
:10310000FA7B174913465B001344DB000B4408337A
:103110001968FB88FA7BC91A114813465B001344EF
:10312000DB00034408331960FA7B0D4913465B004A
:103130001344DB000B4415331B78FB73FB7B062B1E
:10314000C7D1BB891846FFF715FF00BF1037BD4632
:1031500080BD00BF00280040E0030020580300208D
:10316000C802002060030020E803002080B58AB078
:1031700000AFEFF310837B617B697B6272B65E4BBD
:103180001B681B68CA225A625B4B1B681B68532270
:103190005A62594B1B681B689A68574B1B681B681F
:1031A00022F480629A60554B1B7887F8233097F899
:1031B0002320534913465B001344DB000B440C33BC
:1031C0001B78DBB2022B70D197F823204C491346B1
:1031D0005B001344DB000B441B68FB6197F8232062
:1031E000474913465B001344DB000B4410331B6854
:1031F000BB61444B1B78DBB2002B4ED097F82320E9
:103200003F4913465B001344DB000B440D331B782E
:10321000DBB2012B25D197F8233001211846FFF7A7
:10322000E5FD7B6A3B613B6983F3108897F82320B7
:10323000334913465B001344DB000B4404331A6824
:1032400097F823301146184600F046FA2A4B1B68BF
:103250001B68CA225A62284B1B681B6853225A6299
:1032600013E07B6AFB60FB6883F3108897F82330D8
:10327000184600F0A7F9204B1B681B68CA225A6247
:103280001D4B1B681B6853225A6297F82330FA695A
:103290001946B86900F0A6FA24E0FFF7C9FE7B6A78
:1032A000BB60BB6883F310881CE000BF124B1B6837
:1032B0001B68DB6803F00403002BF7D00E4B1B6880
:1032C0001B68DB68DAB20C4B1B681B6862F4906207
:1032D000DA600D4B4FF40022DA607B6A7B607B681A
:1032E00083F31088044B1B681B68FF225A6200BFDF
:1032F0002837BD4680BD00BFE003002058030020F2
:10330000C8020020600300200008005880B588B083
:1033100000AF03463960FB71644A3B681360634B3E
:103320001B681B68CA225A62604B1B681B685322C9
:103330005A625F4B9B685E4A43F0200393605C4B8C
:103340009B68DBB203F00703DBB2C3F10403DAB21C
:10335000584B1A70564B1B6903F4FE034FF4FE02E0
:103360003A613A6992FAA2F2FA60FA687A617A6985
:10337000002A01D1202203E07A69B2FA82F2D2B2A5
:10338000D340DBB20133DAB24B4B1A70484B1B69A6
:103390009BB2C3F30E039BB201339AB2474B1A8020
:1033A000464B1B88013B444A127802FB03F3A3F50A
:1033B000A073404A1278D340BB61BB694FF6FE72DE
:1033C000934204D93E4B4FF6FF721A8003E0BB696B
:1033D0009AB23B4B1A804FF40020FFF785FB4FF465
:1033E0000020FFF76DFBFB79002B43D1354B012209
:1033F0001A70354B4FF0FF321A600023FB770CE058
:10340000FA7F324913465B001344DB000B440C3354
:1034100000221A70FB7F0133FB77FB7F052BEFD96E
:103420002B4B06221A70214B1B681B689A681F4B96
:103430001B681B6822F480629A601C4B1B681B6827
:10344000DB68DAB2194B1B681B6862F49062DA60C1
:10345000204B4FF40022DA60032002F0BDFF134B33
:103460001B681B689A68114B1B681B6842F48042FA
:103470009A600AE00D4B1B681B68DB6803F48063ED
:10348000002B02D0032002F099FF084B1B681B6839
:10349000FF225A6200220621032002F059FF032076
:1034A00002F070FF00BF2037BD4680BDE003002062
:1034B00000280040E4030020E5030020E60300208C
:1034C000E8030020600300205C030020C802002005
:1034D000580300200008005880B48BB000AFF8609B
:1034E000B9603B601346FB71002387F82630EFF389
:1034F0001083FB61FB693B6272B604E097F82630EB
:10350000013387F8263097F82630052B0CD897F82A
:1035100026202B4913465B001344DB000B440C337D
:103520001B78DBB2002BE9D197F82630062B37D079
:1035300097F82620224913465B001344DB000B4416
:103540000C3301221A703B6ABB61BB6983F310889C
:1035500097F826201A4913465B001344DB000B44FE
:103560001033FA681A6097F82620154913465B0055
:103570001344DB000B440D33FA791A7097F82620B8
:103580000F4913465B001344DB000B443A681A6092
:10359000BB6897F826201A70002387F8273007E0C9
:1035A0003B6A7B617B6983F31088012387F82730AE
:1035B00097F8273018462C37BD465DF8047B7047D6
:1035C000C802002080B586B000AF0346FB71EFF360
:1035D0001083FB60FB687B6172B6032002F0E0FEA3
:1035E000374B1B681B68CA225A62354B1B681B6825
:1035F00053225A62FA79334913465B001344DB00C5
:103600000B440C331B78DBB2022B48D1FB79002131
:103610001846FFF7EBFB2C4B1B78FB74FB7C062B4F
:1036200035D12A4B9B6803F48063B3F5806F08D1D2
:1036300000BF234B1B681B68DB6803F00403002BEF
:10364000F7D11F4B1B681B689A681D4B1B681B68D2
:1036500022F480629A6000BF194B1B681B68DB680C
:1036600003F00403002BF7D0154B1B681B68DB68C5
:10367000DAB2134B1B681B6862F49062DA60144B79
:103680004FF40022DA60032002F0A6FE07E0114B9F
:103690001B78DBB2FA7C9A4201D0FFF7C9FC084BD9
:1036A0001B681B68FF225A62032002F06BFE7B69D5
:1036B000BB60BB6883F3108800BF1837BD4680BD70
:1036C000E0030020C802002058030020002800402A
:1036D000000800585903002080B586B000AF0346AB
:1036E0003960FB71FA793B4913465B001344DB00F8
:1036F0000B440C331B78DBB2022B03D1FB79184649
:10370000FFF760FFEFF31083FB60FB687B6172B62D
:10371000032002F045FE304B1B681B68CA225A6228
:103720002D4B1B681B6853225A62FA7929491346AC
:103730005B001344DB000B440C3302221A70FA794D
:10374000244913465B001344DB000B4408333A68FA
:103750001A60FA791F4913465B001344DB000B44DF
:1037600004333A681A60FB791846FFF795FA034666
:103770007B821A4B1B787B74194B1B78DBB27A7CEB
:103780009A4202D0FFF754FC13E0FA79114913462C
:103790005B001344DB000B44083319687B8AFA7919
:1037A000C91A0C4813465B001344DB00034408337A
:1037B0001960094B1B681B68FF225A62032002F044
:1037C000E1FD7B69BB60BB6883F3108800BF1837DD
:1037D000BD4680BDC8020020E00300205803002041
:1037E0005903002080B584B000AFF8600B467A60C2
:1037F000FB727B68984700BF1037BD4680BD000054
:1038000080B487B000AFB9607B600346FB7313469A
:10381000BB810023BB750023FB7500BFBB7D032B61
:1038200016D801A252F823F0393800083F380008B2
:10383000453800084B3800080023FB7509E00123D8
:10384000FB7506E00223FB7503E00323FB7500E034
:1038500000BFFB7D18461C37BD465DF8047B7047F2
:1038600080B489B000AF78600023FB6102E0FB699F
:103870000133FB61FB6901331F4A52F823307A6838
:103880009A42F4DC1C4AFB6952F82330BB61FB69A5
:103890000133194A52F823307B61184AFB6952F808
:1038A00023303B61FB690133144A52F82330FB603B
:1038B000FA683B69D31A7968BA698A1A02FB03F37A
:1038C00007EE903AF8EEE76A7A69BB69D31A07EE19
:1038D000903AB8EEE77AC6EE877AFDEEE77A17EE11
:1038E000903ABB603A69BB68134418462437BD461A
:1038F0005DF8047B704700BFC07701089C77010822
:1039000090B583B000AF786039607B68002B01D13F
:1039100078232CE03B68002B01D1002327E03B6893
:1039200007EE903AB8EEE77A7A683B68134407EE00
:10393000903AF8EEE77AC7EE276A16EE900AFCF79F
:10394000DBFD4FF000020C4BFCF72EFE03460C464D
:1039500044EC173BB0EE470AF0EE670A11F042FA6A
:1039600054EC103B18462146FDF7CEF803461846A6
:103970000C37BD4690BD00BF00005E4080B58AB0E8
:1039800000AF786000237B627B6804331A687B6831
:103990000C331B689A4220DD7B6808331A687B6809
:1039A0000C331B689A4218DD7B6804331A687B6805
:1039B0000C331B68D31A3B627B6808331A687B6838
:1039C0000C331B68D31AFB61F969386AFFF798FF5B
:1039D00002467B6A13447B6242E07B6808331A68C4
:1039E0007B6804331B689A4221DD7B680C331A68BC
:1039F0007B6804331B689A4219DD7B6808331A68B8
:103A00007B6804331B68D31ABB617B680C331A686C
:103A10007B6804331B68D31A7B617969B869FFF747
:103A20006FFF034678337A6A13447B6218E07B6841
:103A30000C331A687B6808331B68D31A3B617B68B8
:103A400004331A687B6808331B68D31AFB60F96873
:103A50003869FFF755FF0346F0337A6A13447B62F7
:103A60007B6A0B4A82FB03121A441112DA178A1A74
:103A70004FF4B47101FB02F29B1A7B62786AFFF784
:103A8000EFFEB860BB6818462837BD4680BD00BF52
:103A9000B7600BB680B584B000AF78607868FFF788
:103AA0006DFFF860FB68044A82FB0312DB17D31A30
:103AB00018461037BD4680BDABAAAA2A80B582B091
:103AC00000AF78607B681B680A2B02DC4FF0FF3385
:103AD00003E07868FFF7DEFF034618460837BD4667
:103AE00080BD80B586B000AF786007F10C03082276
:103AF0001946062000F088F800237B6119E07B69F5
:103B00005B00013307F11802134413F80C3C1A024E
:103B10007B695B0007F118010B4413F80C3C184655
:103B20007B699B0079680B4402431A607B6901330F
:103B30007B617B69032BE2DD00BF1837BD4680BD8A
:103B400080B586B004AF0123FB713B4600221A60AA
:103B50001A710EE04FF0FF33029301230193BB1D56
:103B60000093012300228821264803F0ADF9034683
:103B7000FB71FB79012BEDD0BB793C2B01D00123EC
:103B80003CE0642001F053FA0E233B700123FB71EB
:103B90000EE04FF0FF330293012301933B46009365
:103BA00001230D228821174803F07AF80346FB71A0
:103BB000FB79012BEDD0642001F039FA00233B7032
:103BC00009237B700023BB700623FB7000233B712D
:103BD0000123FB710EE04FF0FF33029305230193A5
:103BE0003B460093012309228821064803F058F838
:103BF0000346FB71FB79012BEDD0002318460837F3
:103C0000BD4680BDEC78002080B588B004AF034687
:103C10003960FB711346BB714FF496737B810023AF
:103C2000FB8101237B7314E0FB7999B2BB799BB2D2
:103C30004FF0FF32029201933B68009301230A4642
:103C400088210D4803F040F903467B73FB8901335B
:103C5000FB817B7B012B03D1FA897B899A42E3D3D9
:103C6000FA897B899A4201D3012300E00023184698
:103C70001037BD4680BD00BFEC78002080B584B011
:103C800000AF3B4600221A605A609A60DA603B46F9
:103C90001846FFF726FF3B461846FFF70FFF03467F
:103CA00018461037BD4680BD80B483B000AF786041
:103CB000074BD3F880207B68DB4305491340C1F8EC
:103CC000803000BF0C37BD465DF8047B704700BFF5
:103CD0000008005880B483B000AF7860074BD3F879
:103CE00090207B68DB4305491340C1F8903000BF4A
:103CF0000C37BD465DF8047B704700BF00080058D4
:103D000080B483B000AF78604FF0B0430A4AC3F884
:103D10009C204FF0B043D3F89C3023F47C527B6856
:103D20001B024FF0B0411343C1F89C3000BF0C3769
:103D3000BD465DF8047B7047FECAFECA80B483B0FE
:103D400000AF78604FF0B043D3F8903023F0180202
:103D50004FF0B0417B681343C1F8903000BF0C377F
:103D6000BD465DF8047B704780B400AF4FF0B043B0
:103D7000D3F890304FF0B04243F48033C2F8903023
:103D800000BFBD465DF8047B704780B400AF4FF0C4
:103D9000B043D3F890304FF0B04223F48033C2F8F0
:103DA000903000BFBD465DF8047B704780B400AF23
:103DB0004FF0B043D3F8943003F08063B3F1806FD9
:103DC00001D1012300E000231846BD465DF8047BC5
:103DD000704780B400AF4FF0B043D3F8943003F095
:103DE0008053B3F1805F01D1012300E00023184626
:103DF000BD465DF8047B704780B485B000AF786045
:103E00004FF0B043DA6C4FF0B0417B681343CB64A2
:103E10004FF0B043DA6C7B681340FB60FB6800BF77
:103E20001437BD465DF8047B704780B485B000AFA1
:103E300078604FF0B0431A6D4FF0B0417B68134388
:103E40000B654FF0B0431A6D7B681340FB60FB6855
:103E500000BF1437BD465DF8047B704780B483B063
:103E600000AF786039607B685A683B681B041A436E
:103E70007B685A6000BF0C37BD465DF8047B704715
:103E800080B483B000AF786039607B685A683B6863
:103E90001A437B685A6000BF0C37BD465DF8047B4F
:103EA000704780B483B000AF786039607B685A692E
:103EB0003B681B041A437B685A6100BF0C37BD4640
:103EC0005DF8047B704780B483B000AF78603960E0
:103ED0007B685A693B681A437B685A6100BF0C379C
:103EE000BD465DF8047B704780B483B000AF786056
:103EF00039607B683A689A6000BF0C37BD465DF850
:103F0000047B704780B483B000AF786039607B6811
:103F10003A689A6100BF0C37BD465DF8047B704774
:103F200080B400AF054B1B69044A23F004031361FE
:103F300000BFBD465DF8047B704700BF00ED00E0A8
:103F400080B500AF4B4B4FF400421A6102F086F887
:103F500001F01FF801F009F800F0DCF800F0FEFFB6
:103F600001F059F800F0EAFA00F054F900F0F8F91D
:103F700000F090F900F096F900F030FA00F040FB04
:103F800009F0B2FF3C480AF0E3F902463B4B1A60E5
:103F90003B480AF0DDF902463A4B1A603A480AF00B
:103FA000D7F90246394B1A6039480AF0D1F902466E
:103FB000384B1A6038480AF0CBF90246374B1A6082
:103FC00037480AF0C5F90246364B1A6036480AF0FF
:103FD000BFF90246354B1A60354A042110200AF019
:103FE0005BFC0246334B1A60334A042110200AF06E
:103FF00053FC0246314B1A60314A0021314809F026
:10400000DDFF0246304B1A60304A0021304809F08B
:10401000D5FF02462F4B1A602F4A00212F4809F086
:10402000CDFF02462E4B1A602E4A00212E4809F081
:10403000C5FF02462D4B1A602D4A00212D4809F07C
:10404000BDFF02462C4B1A602C4A00212C4809F077
:10405000B5FF02462B4B1A602B4A00212B4809F072
:10406000ADFF02462A4B1A60FDF766FF09F070FFAC
:10407000FEE700BF0040005810790108C07700201B
:1040800020790108E878002030790108187A0020AA
:1040900040790108447900205079010838790020DE
:1040A0006079010848790020707901083C79002086
:1040B000E0780108A8790020F878010890770020BE
:1040C000E477010839470008AC7900200878010836
:1040D000814A0008B07900202C780108A54A000820
:1040E000E078002050780108F54B0008E4780020C3
:1040F00074780108DD4C0008587900209878010890
:10410000294E000840790020BC780108594E00086B
:104110005479002080B5AEB000AF07F1700348229B
:10412000002118460EF005F907F1540300221A6029
:104130005A609A60DA601A615A619A613B1D502296
:10414000002118460EF0F5F803F0F8FA0020FFF70A
:10415000F5FD2F4B1B6823F4C0632D4A43F4007315
:1041600013602B4B1B6803F4C0633B603B68072361
:104170003B674FF480337B670123BB674FF4807349
:10418000FB674023C7F880300023C7F89C3007F155
:104190007003184603F072FE0346002B01D000F0B6
:1041A0007DFF6F237B650223BB650023FB65002336
:1041B0003B6600237B660023BB660023FB6607F19A
:1041C00054030121184604F0E5F90346002B01D001
:1041D00000F064FF43F603037B600023FB610023D0
:1041E0003B624FF480737B644FF48043BB640223D3
:1041F000FB6410233B653B1D184604F026FE034676
:10420000002B01D000F04AFF00BFB837BD4680BD8B
:104210000004005880B500AF1B4B1C4A1A601A4BB3
:104220001B4A5A60184B00229A60174B0122DA6031
:10423000154B00221A61144B00225A61124B0022C6
:104240009A61114B0022DA610F4B00221A620E486C
:1042500002F0ACFA0346002B01D000F01FFF002152
:10426000094803F0D3F90346002B01D000F016FFF4
:104270000021054803F015FA0346002B01D000F099
:104280000DFF00BF80BD00BFEC780020005400404F
:10429000380F300080B400AF00BFBD465DF8047B2E
:1042A0007047000080B586B000AF2B4B2B4A1A60D8
:1042B000294B00225A60284B7F229A60264BFF220E
:1042C000DA60254B00221A61234B00229A61224BAF
:1042D0000022DA61204B00225A611F4805F03BF8AA
:1042E0000346002B01D000F0D9FE3B1D00221A60CE
:1042F0005A609A60DA601A6100233B6011233B71B7
:1043000059237B712923BB710023BB6000233B61D0
:1043100000237B613B1D012219460F4805F0B9F8C7
:104320000346002B01D000F0B9FE02233B700323AB
:104330007B702923BB702023FB703B46012219466A
:10434000054805F0C6F90346002B01D000F0A6FE93
:1043500000BF1837BD4680BD9C7700200028004074
:1043600080B500AF1B4B1C4A1A601A4B4FF4827287
:104370005A60184B4FF400429A60164B4FF4E062BB
:10438000DA60144B00221A61124B00225A61114B61
:104390004FF400729A610F4B0022DA610D4B00223C
:1043A0001A620C4B00225A620A4B00229A62094B95
:1043B0000722DA62074B00221A63064B08225A636F
:1043C000044805F043FB0346002B01D000F066FED5
:1043D00000BF80BDB47900200030014080B59CB0A2
:1043E00000AF07F1600300221A605A609A60DA6039
:1043F00007F1540300221A605A609A6007F13803EB
:1044000000221A605A609A60DA601A615A619A61F1
:104410003B1D3422002118460DF08BFF454B464AC8
:104420001A60444B00225A60424B00229A60414B72
:104430006422DA603F4B00221A613E4B00225A612F
:104440003C4B00229A613B4805F06EFE0346002B70
:1044500001D000F023FE4FF480533B6607F1600368
:104460001946344806F0FAFA0346002B01D000F052
:1044700015FE304805F0FEFE0346002B01D000F08B
:104480000DFE00237B650023BB650023FB6507F160
:1044900054031946274806F067FF0346002B01D056
:1044A00000F0FCFD6023BB636423FB6300233B64DB
:1044B00000237B640423BB640023FB6400233B656F
:1044C00007F13803002219461A4806F0B7F90346E7
:1044D000002B01D000F0E2FD00237B600023BB60D5
:1044E0000023FB6000233B6100237B614FF40053FA
:1044F000BB610023FB6100233B6200237B624FF022
:104500000073BB620023FB6200233B6300237B63D9
:104510003B1D1946074806F087FF0346002B01D0D4
:1045200000F0BCFD034801F035F800BF7037BD4610
:1045300080BD00BF5C790020002C014080B586B0B2
:1045400000AF3B1D00221A605A609A60DA601A615F
:104550000420FFF751FC0220FFF74EFC0120FFF77B
:104560004BFC00220121244802F0CCF801237B609F
:104570000123BB600023FB6000233B613B1D194608
:104580001D4801F037FF38237B601C4BBB600123C3
:10459000FB603B1D1946184801F02CFF10237B607F
:1045A0000123BB600123FB603B1D19464FF0904087
:1045B00001F020FF012210214FF0904002F0A2F8FC
:1045C00000220F21092001F0C3FE092001F0DAFECC
:1045D00000220F210A2001F0BBFE0A2001F0D2FECA
:1045E00000220F21172001F0B3FE172001F0CAFEB0
:1045F00000BF1837BD4680BD0004004800003110E0
:10460000B0B58AB000AF354B10221A70334B22225E
:104610005A70324B0F229A70304B5A22DA7007F1DF
:104620001403012219462E4804F0F7FF07F1100386
:10463000012219462A4805F0FAF8284B1C1D07F1FB
:1046400014050FCD0FC42B682360244A3B69936186
:10465000224B03F11C0407F114050FCD0FC42B6886
:1046600023601E4A3B6913631C4B4FF000025A63E0
:104670001A4B4FF000029A63184B4FF00002DA63B6
:10468000164B4FF000021A64144B002283F84420AA
:10469000144A3B1D07CA03C31A803B1D1846FBF78B
:1046A0006FFD02463B1D19460F480EF043FB3B1DB4
:1046B0001846FBF765FD0346DAB2084B83F8C820BD
:1046C0001C22002109480DF034FE044B002283F81F
:1046D000E82000BF2837BD46B0BD00BFC47700202A
:1046E0009C770020E46701080C7800209078002077
:1046F00080B586B002AF0346FB800023FB600C4B05
:104700001868F98807F10C030093002303220DF0C9
:1047100029F9FB68002B07D0064B4FF080521A6036
:10472000BFF34F8FBFF36F8F00BF1037BD4680BD03
:10473000E078002004ED00E0B0B5ECB002AF3B1D26
:10474000186001220121BF4801F0DCFFFDF792FE55
:1047500007F138031846FDF7F5FE07F1380301931A
:10476000012300930C23B84A0A210020FEF75AF8CF
:1047700007F138030193012300930C23B34A1C2152
:104780000020FEF74FF807F138031846FEF78BF8C4
:1047900040F6B83009F0AEFD07F138031846FDF7D2
:1047A000D1FE07F138031846FEF77DF84FF6FF7388
:1047B000A7F8A2314FF6FF73A7F8A631002387F8B8
:1047C000A531FFF7BDF90346012B0CD1A04AA14B3F
:1047D000144607CB20606160A2601B7823739E4B58
:1047E000052283F84420FFF749FA0346A7F8A231CF
:1047F000B7F9A231B3F1FF3F26D0012387F8A531E5
:10480000B7F9A621B7F9A2319A4219D0B7F8A23167
:10481000A7F8A631B7F9A2311846FEF7F7F8B7F8AE
:10482000A23143F480431BB29AB207F11A031A80F3
:104830008A4B186807F11A01002300220AF0B2F827
:10484000192009F057FDCEE797F8A531002B2CD0A1
:1048500097F8A531013387F8A53197F8A531052BD5
:104860001FD9002387F8A531B7F9A62107F1100356
:104870007B4918460EF03EFAB7F8A63143F4A04340
:104880001BB29AB207F10E031A80744B186807F135
:104890000E01002300220AF085F84FF6FF73A7F8F7
:1048A000A631192009F026FD9DE76B4B93F84430A3
:1048B000042B40F0A78007F138031846FDF742FEAD
:1048C00007F138030193012300930C23654A00216B
:1048D0000020FDF7A7FF07F13803019301230093A0
:1048E0000C23614A1C210020FDF79CFF07F13803CF
:1048F0001846FDF7D8FF4FF47A7009F0FBFC5B4BCC
:104900001B684FF0FF31184609F0BCFD07F1240386
:1049100001221946564804F080FE07F120030122C7
:104920001946534804F083FF504B1B68184609F0A2
:1049300007FE07F124031B78184605F035F80346F7
:1049400087F8A13107F124035B78184605F02CF8AD
:10495000034687F8A03197F8A12197F8A03107F115
:10496000080044490EF0C6F907F108031846FDF7A0
:10497000D2FF414B1B684FF0FF31184609F082FD12
:10498000354B07F124021C1D15460FCD0FC42B68B3
:104990002360314A07F120031B689361364B1B6883
:1049A000184609F0CDFD07F11C0304221A7007F127
:1049B0001C0300225A80294B186807F11C010023B0
:1049C000002209F0EFFF2D4B1B684FF0FF31184616
:1049D00009F058FD204B002283F84420274B1B6828
:1049E000184609F0ADFD40F6B83009F083FC07F138
:1049F00038031846FDF7A6FD07F138031846FDF702
:104A000052FF1AE0144B93F84430052B15D107F1EF
:104A100038031846FDF796FD07F13803019301238B
:104A200000930C230A4A0C210020FDF7FBFE07F13E
:104A300038031846FDF737FFFEE7FA2009F05AFC65
:104A4000D1E600BF00040048E46701080C680108D3
:104A5000B47800201C680108C4770020A8790020E1
:104A60002C6801083868010844680108C0770020F4
:104A70009C770020F0670108187A00204879002010
:104A800080B582B000AF786041F2883009F032FC26
:104A9000034B18680023022200210CF0ADFEF3E75F
:104AA000E478002080B586B000AF78604C4A07F10A
:104AB00014031268114619800233120C1A70002375
:104AC0003B6106233B730023FB8107F110024FF08B
:104AD000FF33002100200CF035FE3B699BB21946E4
:104AE000404801F0F7FD0346FB75322009F002FC57
:104AF0003B699BB219463B4801F0ECFD03461A4660
:104B0000FB7D9342E1D13B69082B20D13B7DFA7DAF
:104B10009A421CD0FB7D3B75FB7D002B17D1324B9D
:104B2000186807F10C010023002209F03BFF2F4B0E
:104B30001B684FF0FF31184609F0A4FC2C4B0422EF
:104B400083F84420294B1B68184609F0F9FC3B699F
:104B5000102B20D17B7DFA7D9A421CD0FB7D7B758A
:104B6000FB7D002B17D1204B186807F10C010023A7
:104B7000002209F017FF1D4B1B684FF0FF3118464C
:104B800009F080FC1A4B042283F84420174B1B6861
:104B9000184609F0D5FC3B69202B96D1BB7DFA7DE8
:104BA0009A4292D0FB7DBB75FB7D002B8DD10E4BC5
:104BB000186807F10C010023002209F0F3FE0B4BEB
:104BC0001B684FF0FF31184609F05CFC084B0422CB
:104BD00083F84420054B1B68184609F0B1FC74E7C4
:104BE0005468010800040048A87900204879002092
:104BF000C477002080B588B000AF78604F23BB61D8
:104C0000344B1B68BA699A63334BFB600C233B82BD
:104C10000623BB7407F10C031846FDF77FFAFDF776
:104C200069FBFDF7CBFA3323FB750020FDF7F2FBA0
:104C30004FF47A7009F05EFB0023FB8300237B773F
:104C400000233B774FF0FF3101200CF033FD0021B2
:104C5000204805F071FB0C2200216FF07F40FDF72A
:104C6000A3FB1DE03B7F1846FDF7D4FBFDF7A6FA3A
:104C70007B7F002B03D03B7F013B3B7702E03B7FF8
:104C800001333B773A7FFB7D9A4201D101237B7749
:104C90003B7F002B01D100237B77022009F02AFB08
:104CA000FB8B5A1CFA831A46FB7D5B009A42D9DBC8
:104CB0000020FDF7AFFB0C2200210020FDF774FB64
:104CC000FDF77CFA642009F015FB0021014805F08E
:104CD0000DFCB1E75C790020B4790020F0B599B003
:104CE00010AF78604FF4FA7009F004FB464E0023D1
:104CF0000F936D4606F110040FCC0FC50FCC0FC5F6
:104D00000FCC0FC594E8070085E8070096E80F0070
:104D100000F020FE0346012B0CD13C4A3C4B1446CC
:104D200007CB20606160A2601B782373394B05229A
:104D300083F844200A2009F0DDFA002200213248DD
:104D400000F024FA0346012B0CD1304A324B1446B2
:104D500007CB20606160A2601B7823732D4B052276
:104D600083F844200A2009F0C5FA0021264800F003
:104D70002AFA0346012B0CD1244A284B144607CBB0
:104D800020606160A2601B782373224B052283F8A8
:104D9000442001233B730023FB8100F019FF87EDC2
:104DA000070A00F0FDFF87ED060A174800F082FAB7
:104DB00087ED050A144800F01FFA87ED040A184B26
:104DC0001B684FF0FF31184609F05CFB114AFB6984
:104DD0005363104ABB6993630E4A7B69D3630D4AE0
:104DE0003B6913640E4B1B68184609F0A9FB0D4B79
:104DF000186807F10C010023002209F0D3FD42F2EC
:104E0000AC6009F077FAC8E7EC780020B4780020AD
:104E100058680108C47700206868010878680108AC
:104E200038790020A879002080B584B000AF786080
:104E3000084B186807F10C014FF0FF33002209F00E
:104E400025FE0346002BF3D1FB891846FCF70AFC2C
:104E5000EEE700BFA879002080B58EB000AF786083
:104E6000394B186807F12C014FF0FF33002209F08D
:104E70000DFE0346002BF3D1FB6A1B78002BEFD10C
:104E8000FB6A01330822194630480DF047FAFB6AE5
:104E90005A7A2F4B1A74FB6A9A7A2D4B5A7407F17F
:104EA000180300221A605A609A60DA601A610023BF
:104EB0007B61274A07F10C03083292E8030083E87C
:104EC00003003B7B87F837303B7C3B767B7C7B76F3
:104ED000BB7CBB760023FB6100237B621C4B5B7CAD
:104EE000002B02D04FF480337B620023BB623B7BFC
:104EF0003B757B7B7B75BB7BBB75FB7BFB75154B70
:104F00001B684FF0FF31184609F0BCFA07F118038F
:104F100001221946104804F0BCFA0346002B01D0C8
:104F200000F0BCF807F11403012219460A4804F006
:104F3000D0FB0346002B01D000F0B0F8054B1B68F6
:104F4000184609F0FDFA8BE790770020B8020020A0
:104F5000B0020020C07700209C77002080B400AF12
:104F600000BFBD465DF8047B704780B582B000AFDE
:104F7000002008F0D3FA78607B68002B05D07B68AE
:104F80009B791846FEF7BCFE00BF00BF0837BD4640
:104F900080BD80B500AF00F027F800F003F800BF37
:104FA00080BD000080B500AF4FF48010FEF73DFFDC
:104FB0003F210C48FEF798FF3F210A48FEF7A2FF69
:104FC0003F210848FEF74AFF3F210648FEF769FFE8
:104FD0003F210448FEF754FF3F210248FEF773FFCC
:104FE00000BF80BD000C005880B500AFFEF7DEFEAC
:104FF0000346002B0DD0FEF7ECFE0346002B08D134
:1050000002F09CFB02F09AFBFEF7AEFEFEF7BDFE3F
:1050100000BF00BF80BD80B500AF4FF0FF30FEF78E
:1050200043FE6FF05000FEF755FE00BF80BD80B517
:1050300084B000AF786001F045F8B8607B68FB6031
:10504000FB68B3F1FF3F0AD001F054F803461A465B
:10505000FB681344FB6002E0FEF762FF30BF01F023
:1050600031F80246BB68D31AFA689A42F4D800BFF6
:105070001037BD4680BD000080B582B000AF7860BB
:105080007B681B68044A934201D101F007F800BF16
:105090000837BD4680BD00BF0048014080B400AF66
:1050A00000BFBD465DF8047B7047000000000000B3
:1050B00090B589B002AF786007F1080264230093CD
:1050C00002238121786801F0F5FC03467B617B694E
:1050D000002B01D02A4B3FE03B7A1B021AB27B7AAD
:1050E0001BB213437B82B7F912301846FBF7F2F973
:1050F0001DA3D3E90023FBF757FA03460C461846D5
:1051000021461BA3D3E90023FBF778FB03460C469B
:105110001846214618A3D3E90023FBF78DF8034670
:105120000C4618462146FBF717FD0346FB60D7EDFA
:10513000037A9FED147AF4EEC77AF1EE10FA08DCE8
:10514000D7ED037A9FED107AF4EEC77AF1EE10FAFC
:1051500001D50B4B00E0FB6807EE903AB0EE670A12
:105160001C37BD4690BD00BFD7A3703D0AF7654010
:1051700000000000E0FFEF40CDCCCCCCCC6C474031
:1051800000FF7F470000FA42000020C280B586B0D1
:1051900002AF78600B46FB701346BB70E6233B738F
:1051A000FA78BB781343DBB27B7307F10C026423FC
:1051B000009302238021786801F088FB034618469B
:1051C0001037BD4680BD80B586B002AF78600B4613
:1051D000FB7051233B73FB787B7307F10C02642354
:1051E000009302238021786801F070FB0346184683
:1051F0001037BD4680BD000090B587B002AF786023
:10520000F5233B7207F108026423009301238021F8
:10521000786801F05BFB0346FB60FB68002B01D064
:10522000204B37E01E20FFF702FF07F1080264233E
:10523000009302238121786801F03CFC0346FB6067
:10524000FB68002B01D0174B24E03B7A1B027A7AD3
:1052500013431846FBF73EF94FF00002124BFBF7E1
:10526000A3F903460C46184621464FF000020F4BA7
:10527000FBF7C4FA03460C46184621464FF00002DD
:105280000B4BFAF7D9FF03460C4618462146FBF7AD
:1052900063FC034607EE903AB0EE670A1437BD464A
:1052A00090BD00BF00FF7F4700405F400000F0401E
:1052B0000000184080B586B002AF7860F3233B72DF
:1052C00007F108026423009301238021786801F02C
:1052D000FDFA0346FB60FB68002B02D0DFED077A86
:1052E00007E01E20FFF7A3FE7868FFF7E1FEF0EE6F
:1052F000407AB0EE670A1037BD4680BD00FF7F4799
:1053000080B483B000AF78604FF0B043D3F89030F2
:1053100023F440724FF0B0417B681343C1F89030E2
:1053200000BF0C37BD465DF8047B704780B400AF0A
:105330004FF0B043D3F890304FF0B04243F4004305
:10534000C2F8903000BFBD465DF8047B704780B462
:1053500085B000AF78604FF0B043DA6C4FF0B041E9
:105360007B681343CB644FF0B043DA6C7B68134027
:10537000FB60FB6800BF1437BD465DF8047B7047D7
:1053800080B485B000AF78604FF0B0431A6D4FF035
:10539000B0417B6813430B654FF0B0431A6D7B68D7
:1053A0001340FB60FB6800BF1437BD465DF8047B0B
:1053B000704780B485B000AF78604FF0B0439A6D0D
:1053C0004FF0B0417B6813438B654FF0B0439A6D4B
:1053D0007B681340FB60FB6800BF1437BD465DF877
:1053E000047B704780B485B000AF78604FF0B04365
:1053F0001A6E4FF0B0417B6813430B664FF0B04319
:105400001A6E7B681340FB60FB6800BF1437BD4613
:105410005DF8047B704780B500AF4FF40020FFF7C4
:10542000AFFF00220F216FF0010000F091FF00227A
:1054300005212E2000F08CFF2E2000F0A3FF00227B
:1054400006212C2000F084FF002206212D2000F0F0
:105450007FFF00BF80BD000080B582B000AF7860E4
:105460007B681B680B4A934210D102F067F902F087
:1054700065F94FF48070FFF743FFFFF757FF4FF4D4
:105480008060FFF796FF786804F0AAFA00BF08373B
:10549000BD4680BD0028004080B588B000AF786070
:1054A00007F10C0300221A605A609A60DA601A61F0
:1054B0007B681B680F4A934217D10220FFF747FF12
:1054C0004FF44073FB6012233B6101237B61002397
:1054D000BB610423FB6107F10C031946064800F089
:1054E00089FF4FF40010FFF764FF00BF2037BD466F
:1054F00080BD00BF005400400004004880B588B063
:1055000000AF786007F10C0300221A605A609A60BD
:10551000DA601A617B681B680F4A934217D14FF417
:105520008050FFF75FFF0120FFF711FF8223FB6030
:1055300002233B6100237B610023BB610523FB61E8
:1055400007F10C0319464FF0904000F053FF00BFE5
:105550002037BD4680BD00BF0030014080B582B01D
:1055600000AF78607B681B68094A93420BD14FF407
:105570000060FFF737FF00220F21192000F0E8FE3E
:10558000192000F0FFFE00BF0837BD4680BD00BFF8
:10559000002C014080B588B000AF786007F10C03A3
:1055A00000221A605A609A60DA601A617B681B6890
:1055B0000D4A934214D10120FFF7C9FE4FF48073C6
:1055C000FB6002233B6100237B610023BB6101235D
:1055D000FB6107F10C0319464FF0904000F00AFF01
:1055E00000BF2037BD4680BD002C014080B485B08F
:1055F00000AF78604FF0B0431A6E4FF0B0417B6857
:1056000013430B664FF0B0431A6E7B681340FB6088
:10561000FB6800BF1437BD465DF8047B704700008F
:1056200080B58CB000AF78600023FB620023BB62C2
:10563000002279681A2000F08BFE1A2000F0A2FEEA
:105640004FF48020FFF7D2FF07F1080207F10C03A7
:105650001146184603F072F903F05AF9F862FB6A32
:10566000124AA2FB03239B0C013BBB62104B114A65
:105670001A600F4B40F2E732DA600D4ABB6A5360A2
:105680000B4B00221A610A4B00229A60084804F072
:105690004BFD0346002B04D1054804F09DFD034655
:1056A00000E0012318463037BD4680BD83DE1B4332
:1056B0001C7A00200048014080B400AF00BFBD4606
:1056C0005DF8047B704780B400AFFEE780B400AFA4
:1056D000FEE780B400AFFEE780B400AFFEE780B421
:1056E00000AF00BFBD465DF8047B704780B500AFDA
:1056F000024804F083FF00BF80BD00BF1C7A002079
:1057000080B500AF01F02EF800BF80BD80B500AFBE
:10571000082001F00FF800BF80BD80B500AF102059
:1057200001F008F800BF80BD80B500AF202001F077
:1057300001F800BF80BD000080B500AF024804F052
:105740005DFF00BF80BD00BF5C79002080B500AF69
:10575000FDF70CFD00BF80BD80B500AFFCF736F94A
:1057600000BF80BD80B500AFFCF7F8F800BF80BD7A
:1057700080B586B000AFF860B9607A6000237B61C5
:105780000AE0AFF300800146BB685A1CBA60CAB297
:105790001A707B6901337B617A697B689A42F0DB1E
:1057A0007B6818461837BD4680BD80B483B000AF13
:1057B00078604FF0FF3318460C37BD465DF8047B28
:1057C000704780B483B000AF786039603B684FF4B5
:1057D00000525A60002318460C37BD465DF8047B22
:1057E000704780B483B000AF7860012318460C374F
:1057F000BD465DF8047B704780B485B000AFF860AB
:10580000B9607A60002318461437BD465DF8047B02
:105810007047000080B584B000AF7860114B1B6802
:10582000002B02D10F4B104A1A600E4B1B68FB6015
:105830000C4B1A687B6813446A46934207D90CF0F4
:1058400043FD02460C2313604FF0FF3306E0054B87
:105850001A687B681344034A1360FB6818461037C4
:10586000BD4680BDEC030020087B002080B586B0DB
:1058700004AF0123FB7100233B7100237B717B7913
:105880005AB2334B93F84E30DB005BB213435BB23A
:10589000DBB27B717B795AB22D4B93F84F309B1062
:1058A0005BB203F003035BB213435BB2DBB27B7109
:1058B0003B795AB2264B93F84F309B015BB21343AE
:1058C0005BB2DBB23B713B793B710EE04FF0FF33D3
:1058D0000293022301933B1D009301230022202108
:1058E0001B4801F0DDF90346FB71FB79012BEDD07C
:1058F0000123FB7100233B7100237B713B795AB27A
:10590000134B93F84C305B005BB213435BB2DBB2DA
:105910003B713A790E4B93F84D301343DBB23B7138
:105920000EE04FF0FF330293022301933B1D0093DF
:10593000012303222021064801F0B2F90346FB713E
:10594000FB79012BEDD0FB7918460837BD4680BDA9
:10595000687A002084B080B500AF07F1080C8CE8AD
:105960000F00284B184607F108014C231A460CF08B
:10597000D5FC244B002283F8502097F85430012B9B
:1059800014D0022B23D0002B32D11E4B032283F8DC
:105990004C201C4B012283F84D201A4B012283F826
:1059A0004E20184B032283F84F2021E0154B002294
:1059B00083F84C20134B002283F84D20114B012219
:1059C00083F84E200F4B002283F84F2010E00D4B40
:1059D000002283F84C200B4B002283F84D20094B0A
:1059E000012283F84E20074B0C2283F84F2000BF82
:1059F000FFF73CFF03461846BD46BDE8804004B0B3
:105A0000704700BF687A002080B582B000AF0346BF
:105A1000FB80294B93F85030002B49D0264B93F84C
:105A20004E30022B1FD0FB884EF2656293421AD98A
:105A3000214B93F84E30012B04D0032B0CD0002BBC
:105A400005D00EE01C4B002283F84E2009E01A4BD3
:105A5000032283F84E2004E0174B022283F84E20E5
:105A600000BFFFF703FF144B93F84E30012B1FD0FC
:105A7000FB8847F2313293421AD80F4B93F84E30DD
:105A8000022B04D0032B07D0002B0AD00EE00A4BC8
:105A9000032283F84E2009E0074B002283F84E20B2
:105AA00004E0054B012283F84E2000BFFFF7DEFE25
:105AB00000BF0837BD4680BD687A002080B485B03D
:105AC00000AF0346FB80FB8807EE903AF8EE677A5A
:105AD000C7ED037A3D4B93F84E30022B15D0032BC4
