:020000040800F2
:10000000000003207D1E0008855C0008935C00084A
:10001000995C00089F5C0008A55C000800000000D7
:1000200000000000000000000000000081F900084E
:10003000AB5C000800000000C1FB000829FC0008C0
:10004000D11E0008D11E0008D11E0008195D00084D
:10005000D11E0008D11E0008D11E0008D11E0008C4
:10006000D11E0008D95C0008E75C0008D11E00081A
:10007000D11E0008D11E0008D11E0008D11E0008A4
:10008000D11E0008D11E0008D11E0008D11E000894
:10009000D11E0008D11E0008D11E0008F55C000822
:1000A000D11E0008055D0008B95C0008D11E0008DB
:1000B000D11E0008D11E0008D11E0008D11E000864
:1000C000D11E0008D11E0008D11E0008D11E000854
:1000D000D11E0008D11E0008D11E0008D11E000844
:1000E000D11E0008D11E0008D11E0008D11E000834
:1000F000315D0008255D0008CD5C0008D11E0008B8
:10010000D11E0008D11E0008D11E0008D11E000813
:10011000D11E0008D11E0008D11E0008D11E000803
:10012000D11E0008D11E0008D11E0008D11E0008F3
:0C013000D11E0008D11E0008D11E0008DE
:1001400010B5054C237833B9044B13B10448AFF311
:1001500000800123237010BDB803002000000000C0
:10016000585B010808B5034B1BB103490348AFF3C3
:10017000008008BD00000000BC030020585B01089F
:10018000034613F8012B002AFBD1181A01387047D7
:1001900001F0FF01102A2BDB10F0070F08D010F838
:1001A000013B013A8B422DD010F0070F42B3F6D13C
:1001B000F0B441EA012141EA014122F007047FF055
:1001C00000070023F0E80256083C85EA010586EAAC
:1001D000010685FA47F5A3FA87F586FA47F6A5FAE8
:1001E00087F68EB9EED1F0BC01F0FF0102F00702F4
:1001F00032B110F8013B013A83EA010313B1F8D19F
:100200000020704701387047002D06BF354603387F
:10021000073815F0010F07D1013015F4807F02BFB8
:10022000013015F4C03F0130F0BC0138704700BF09
:1002300081F0004102E000BF83F0004330B54FEA97
:1002400041044FEA430594EA050F08BF90EA020F04
:100250001FBF54EA000C55EA020C7FEA645C7FEA97
:10026000655C00F0E2804FEA5454D4EB5555B8BFBA
:100270006D420CDD2C4480EA020281EA030382EA2B
:10028000000083EA010180EA020281EA0303362DBD
:1002900088BF30BD11F0004F4FEA01314FF4801C90
:1002A0004CEA113102D0404261EB410113F0004FA2
:1002B0004FEA03334CEA133302D0524263EB430359
:1002C00094EA050F00F0A780A4F10104D5F1200EF7
:1002D0000DDB02FA0EFC22FA05F2801841F1000152
:1002E00003FA0EF2801843FA05F359410EE0A5F126
:1002F00020050EF1200E012A03FA0EFC28BF4CF057
:10030000020C43FA05F3C01851EBE37101F000450C
:1003100007D54FF0000EDCF1000C7EEB00006EEB19
:100320000101B1F5801F1BD3B1F5001F0CD34908A3
:100330005FEA30004FEA3C0C04F101044FEA4452FA
:1003400012F5800F80F09A80BCF1004F08BF5FEA81
:10035000500C50F1000041EB045141EA050130BD61
:100360005FEA4C0C404141EB010111F4801FA4F104
:100370000104E9D191F0000F04BF01460020B1FA59
:1003800081F308BF2033A3F10B03B3F120020CDA91
:100390000C3208DD02F1140CC2F10C0201FA0CF06F
:1003A00021FA02F10CE002F11402D8BFC2F1200CD4
:1003B00001FA02F120FA0CFCDCBF41EA0C0190408A
:1003C000E41AA2BF01EB0451294330BD6FEA0404D3
:1003D0001F3C1CDA0C340EDC04F11404C4F12002BE
:1003E00020FA04F001FA02F340EA030021FA04F3D0
:1003F00045EA030130BDC4F10C04C4F1200220FA27
:1004000002F001FA04F340EA0300294630BD21FA64
:1004100004F0294630BD94F0000F83F4801306BF2A
:1004200081F480110134013D4EE77FEA645C18BF1E
:100430007FEA655C29D094EA050F08BF90EA020FB5
:1004400005D054EA000C04BF1946104630BD91EAAD
:10045000030F1EBF0021002030BD5FEA545C05D1B0
:100460004000494128BF41F0004130BD14F58004EF
:100470003CBF01F5801130BD01F0004545F0FE4163
:1004800041F470014FF0000030BD7FEA645C1ABF98
:10049000194610467FEA655C1CBF0B46024650EACF
:1004A000013406BF52EA033591EA030F41F40021FB
:1004B00030BD00BF90F0000F04BF0021704730B581
:1004C0004FF4806404F132044FF000054FF0000156
:1004D00050E700BF90F0000F04BF0021704730B517
:1004E0004FF4806404F1320410F0004548BF4042EC
:1004F0004FF000013EE700BF42004FEAE2014FEA41
:1005000031014FEA02701FBF12F07F4393F07F4F1B
:1005100081F06051704732F07F4208BF704793F01E
:100520007F4F04BF41F40021704730B54FF4607431
:1005300001F0004521F000411CE700BF50EA010234
:1005400008BF704730B54FF000050AE050EA0102DD
:1005500008BF704730B511F0004502D5404261EB4D
:1005600041014FF4806404F132045FEA915C3FF48E
:10057000D8AE4FF003025FEADC0C18BF03325FEA2B
:10058000DC0C18BF033202EBDC02C2F1200300FADC
:1005900003FC20FA02F001FA03FE40EA0E0021FA01
:1005A00002F11444BDE600BF70B54FF0FF0C4CF4EF
:1005B000E06C1CEA11541DBF1CEA135594EA0C0FA1
:1005C00095EA0C0F00F0DEF82C4481EA030621EADC
:1005D0004C5123EA4C5350EA013518BF52EA033517
:1005E00041F4801143F4801338D0A0FB02CE4FF0C9
:1005F0000005E1FB02E506F00042E0FB03E54FF0F9
:100600000006E1FB03569CF0000F18BF4EF0010EF0
:10061000A4F1FF04B6F5007F64F5407404D25FEAEC
:100620004E0E6D4146EB060642EAC62141EA55519F
:100630004FEAC52040EA5E504FEACE2EB4F1FD0CE1
:1006400088BFBCF5E06F1ED8BEF1004F08BF5FEA5F
:10065000500E50F1000041EB045170BD06F0004611
:1006600046EA010140EA020081EA0301B4EB5C04BE
:10067000C2BFD4EB0C0541EA045170BD41F48011B6
:100680004FF0000E013C00F3AB8014F1360FDEBFDB
:10069000002001F0004170BDC4F10004203C35DAB7
:1006A0000C341BDC04F11404C4F1200500FA05F33A
:1006B00020FA04F001FA05F240EA020001F00042DB
:1006C00021F0004110EBD37021FA04F642EB060151
:1006D0005EEA430E08BF20EAD37070BDC4F10C047B
:1006E000C4F1200500FA04F320FA05F001FA04F23F
:1006F00040EA020001F0004110EBD37041F100012B
:100700005EEA430E08BF20EAD37070BDC4F1200535
:1007100000FA05F24EEA020E20FA04F301FA05F29D
:1007200043EA020321FA04F001F0004121FA04F245
:1007300020EA020000EBD3705EEA430E08BF20EA15
:10074000D37070BD94F0000F0FD101F0004640004F
:1007500041EB010111F4801F08BF013CF7D041EAD1
:10076000060195F0000F18BF704703F000465200D5
:1007700043EB030313F4801F08BF013DF7D043EAA6
:100780000603704794EA0C0F0CEA135518BF95EA5C
:100790000C0F0CD050EA410618BF52EA4306D1D1E3
:1007A00081EA030101F000414FF0000070BD50EA02
:1007B000410606BF1046194652EA430619D094EA8C
:1007C0000C0F02D150EA013613D195EA0C0F05D176
:1007D00052EA03361CBF104619460AD181EA0301CA
:1007E00001F0004141F0FE4141F470014FF0000082
:1007F00070BD41F0FE4141F4780170BD70B54FF01D
:10080000FF0C4CF4E06C1CEA11541DBF1CEA13559C
:1008100094EA0C0F95EA0C0F00F0A7F8A4EB05047E
:1008200081EA030E52EA03354FEA013100F0888075
:100830004FEA03334FF0805545EA131343EA12633E
:100840004FEA022245EA111545EA10654FEA0026F3
:100850000EF000419D4208BF964244F1FD0404F5AC
:10086000407402D25B084FEA3202B61A65EB030508
:100870005B084FEA32024FF480104FF4002CB6EBC5
:10088000020E75EB030E22BFB61A754640EA0C0045
:100890005B084FEA3202B6EB020E75EB030E22BF85
:1008A000B61A754640EA5C005B084FEA3202B6EBC6
:1008B000020E75EB030E22BFB61A754640EA9C0085
:1008C0005B084FEA3202B6EB020E75EB030E22BF55
:1008D000B61A754640EADC0055EA060E18D04FEA13
:1008E000051545EA16754FEA06164FEAC30343EAB3
:1008F00052734FEAC2025FEA1C1CC0D111F4801F80
:100900000BD141EA00014FF000004FF0004CB6E778
:1009100011F4801F04BF01430020B4F1FD0C88BF17
:10092000BCF5E06F3FF6AFAEB5EB030C04BFB6EB22
:10093000020C5FEA500C50F1000041EB045170BD15
:100940000EF0004E4EEA113114EB5C04C2BFD4EB42
:100950000C0541EA045170BD41F480114FF0000EC6
:10096000013C90E645EA060E8DE60CEA135594EA42
:100970000C0F08BF95EA0C0F3FF43BAF94EA0C0F45
:100980000AD150EA01347FF434AF95EA0C0F7FF4BA
:1009900025AF104619462CE795EA0C0F06D152EA0E
:1009A00003353FF4FDAE1046194622E750EA4106F2
:1009B00018BF52EA43067FF4C5AE50EA41047FF403
:1009C0000DAF52EA43057FF4EBAE12E74FF0FF3C68
:1009D00006E000BF4FF0010C02E000BF4FF0010C39
:1009E0004DF804CD4FEA410C7FEA6C5C4FEA430CB2
:1009F00018BF7FEA6C5C1BD001B050EA410C0CBF01
:100A000052EA430C91EA030F02BF90EA020F002062
:100A1000704710F1000F91EA030F58BF994208BFC9
:100A200090422CBFD8176FEAE37040F00100704786
:100A30004FEA410C7FEA6C5C02D150EA013C07D1DD
:100A40004FEA430C7FEA6C5CD6D152EA033CD3D028
:100A50005DF8040B704700BF8446104662468C4622
:100A60001946634600E000BF01B5FFF7B7FF002855
:100A700048BF10F1000F01BD4DF808EDFFF7F4FF7E
:100A80000CBF012000205DF808FB00BF4DF808ED09
:100A9000FFF7EAFF34BF012000205DF808FB00BF2C
:100AA0004DF808EDFFF7E0FF94BF012000205DF84E
:100AB00008FB00BF4DF808EDFFF7CEFF94BF012003
:100AC00000205DF808FB00BF4DF808EDFFF7C4FFFC
:100AD00034BF012000205DF808FB00BF4FEA410C45
:100AE0007FEA6C5C02D150EA013C0AD14FEA430C28
:100AF0007FEA6C5C02D152EA033C02D14FF0000065
:100B000070474FF0010070474FEA410212F50012A2
:100B100015D211D56FF47873B3EB625212D94FEA44
:100B2000C12343F0004343EA505311F0004F23FA2E
:100B300002F018BF404270474FF00000704750EA83
:100B4000013005D111F0004008BF6FF00040704740
:100B50004FF00000704700BF53B94AB9002908BFE1
:100B600000281CBF4FF0FF314FF0FF3000F072B98A
:100B7000ADF1080C6DE904CE00F006F8DDF804E0F4
:100B8000DDE9022304B070472DE9F047089E0446D2
:100B90008846002B4BD18A42154667D9B2FA82F2B9
:100BA0004AB1C2F1200701FA02F320FA07F7954093
:100BB00047EA030894404FEA154E230CB8FBFEF7B2
:100BC0001FFA85FC0EFB178843EA084307FB0CF16C
:100BD000994209D9EB1807F1FF3080F01B81994247
:100BE00040F21881023F2B445B1AA4B2B3FBFEF023
:100BF0000EFB103344EA034400FB0CFCA44509D966
:100C00002C1900F1FF3380F00781A44540F20481E4
:100C100002382C4440EA0740A4EB0C0400271EB124
:100C2000D4400023C6E900433946BDE8F0878B4233
:100C300009D9002E00F0EB800027C6E900013846F4
:100C40003946BDE8F087B3FA83F7002F47D18B42CE
:100C500002D3824200F2FA80841A61EB030301207E
:100C60009846002EE0D0C6E90048DDE702B9FFDE75
:100C7000B2FA82F2002A40F08F80491B4FEA154EEB
:100C80001FFA85F80127B1FBFEFC230C0EFB1C119B
:100C900043EA014308FB0CF1994207D9EB180CF128
:100CA000FF3002D2994200F2CD808446591AA3B295
:100CB000B1FBFEF00EFB101443EA044408FB00F8FD
:100CC000A04507D92C1900F1FF3302D2A04500F24C
:100CD000B6801846A4EB080440EA0C409FE7C7F131
:100CE000200CBB4022FA0CFE4EEA030E01FA07F478
:100CF00020FA0CF521FA0CF34FEA1E482543B3FB0A
:100D0000F8F92C0C08FB19331FFA8EFA44EA034356
:100D100009FB0AF49C4202FA07F200FA07F10BD928
:100D20001EEB030309F1FF3080F087809C4240F204
:100D30008480A9F1020973441B1BADB2B3FBF8F028
:100D400008FB103345EA034400FB0AFAA24508D920
:100D50001EEB040400F1FF336BD2A24569D90238BF
:100D6000744440EA0940A0FB0289A4EB0A044C4504
:100D7000C2464B4654D351D0002E69D0B1EB0A0580
:100D800064EB030404FA0CFCFD40FC404CEA05054E
:100D9000C6E90054002747E7C2F1200320FA03F711
:100DA000954001FA02F021FA03F34FEA154E384359
:100DB000010CB3FBFEF71FFA85F80EFB173341EA6F
:100DC000034107FB08F38B4204FA02F407D96918C0
:100DD00007F1FF3C2FD28B422DD9023F2944CB1A79
:100DE00081B2B3FBFEF00EFB103341EA034100FB7E
:100DF00008F38B4207D9691800F1FF3C17D28B42E8
:100E000015D902382944C91A40EA07473BE7374653
:100E1000304609E70746E7E61846FBE64145ABD210
:100E2000B8EB020A69EB0E0201381346A4E76046EC
:100E3000E9E7184695E76746D1E781467CE702383F
:100E40002C4447E7ACF1020C2B442FE7384608E767
:100E50003746E9E6704700BF80B400AF034B1B681C
:100E60001846BD465DF8047B704700BF8075FF1FC4
:100E700080B400AF034B1B68DBB21846BD465DF87B
:100E8000047B70478475FF1F80B400AF034B1B6861
:100E90001B0A1846BD465DF8047B70478475FF1F2A
:100EA000B0B58CB000AF2B4B3C461D460FCD0FC4E8
:100EB0000FCD0FC495E80F0007C4237000F0FEF9B2
:100EC0000121022012F042F8234A002123480DF0AC
:100ED000E5FE0246224B1A603B4618460CF072FAB9
:100EE0000346002B01D004F0DBFB00F00FFA0BF0FF
:100EF00015FA1C4B002283F880201A4B4FF6FF7224
:100F0000DA82194A002119480DF0C8FE0246184B32
:100F10001A60184B00221A70174B01221A7000F049
:100F2000A3FC164B00221649002002F04DFC0D4B8D
:100F300000225A760B4B00221A76124B80221A801E
:100F4000114BA0221A80012000F0BCFA00BF3037FC
:100F5000BD46B0BD9C5B01086C640108D916000851
:100F6000305C00201002002048640108B11600081F
:100F7000485C00203D5C00203C5C00209916000885
:100F800091020020940200209602002080B58CB0CF
:100F900000AF7860422387F82F307B680133BB6253
:100FA000BB6A1B783E2B28D0FF2B00F0A580052BB9
:100FB00000D045E1BB6A02333B613B69B3F80130C5
:100FC0009AB2A24BDB8A9A4209D1A04B0022DA8264
:100FD0009E4B002283F880209D4812F0A3FD012043
:100FE00000F070FA9B4B01221A70984BDA8A994BE9
:100FF0005A80984800F024FC22E1BB6A0233FB616E
:10100000FB691B78032B04D00C2B06D0012B42D09C
:1010100071E0914812F086FD6DE0904812F082FD7B
:10102000FB690133BB61BB691B78002B03D18C4882
:1010300012F078FD02E08B4812F074FD834BDB8ADE
:1010400007F10E0207F10F0118460CF0CCF8034629
:1010500087F82F3097F82F30002B18D1824812F0E4
:1010600061FDFB7B022B0AD1BB7B022B07D1FB7BF3
:101070001946BB7B1A467D4812F0E0FC3BE0FB7B47
:101080001946BB7B1A46794812F0D8FC33E0784801
:1010900012F048FD2FE0FB6901337B616B4B93F845
:1010A0008130184602F006FC7B69B3F801309BB230
:1010B0001946704812F0C2FC644B93F88030042B40
:1010C00004D1624B062283F8802003E05F4B0522A7
:1010D00083F880207B69B3F801309AB25B4BDA82E7
:1010E0005C4B00221A70594BDA8A5A4B5A80594885
:1010F00000F0A6FB00BFA3E0BB6A02337B627B6A01
:101100001B889BB240F2054293424AD040F205420E
:10111000934218DC40F20242934233D040F2024242
:10112000934207DCB3F5806F28D040F2014293422E
:1011300069D084E040F2034293422AD040F2044254
:1011400093422AD07BE0B3F5816F3AD0B3F5816F3B
:1011500008DC40F2064293422FD040F2074293420D
:1011600069D06CE040F20A4293422ED040F20A422B
:1011700093422EDBB3F5006F5AD060E03E4812F088
:10118000D1FC5CE03D4812F0CDFC3D4812F0CAFCB9
:1011900055E03C4812F0C6FC51E03B4812F0C2FC5E
:1011A0004DE03A4812F0BEFC284BDB8A18460BF0A3
:1011B00050FC374812F0B6FC41E0364812F0B2FC61
:1011C0003DE0344812F0AEFC39E0334812F0AAFC9E
:1011D00035E07B6A0233D3F8023019462F4812F00B
:1011E0002DFC7B6A0233D3F8023019462C4812F0EA
:1011F00025FC164BDB8A012118460BF074FC2948AC
:1012000012F090FC1BE07B6A02333B623B6A9B78E6
:101210001946254812F012FC3B6A9B78002B03D13B
:10122000224812F07FFC0AE0214812F07BFC06E025
:10123000204B01221A70204812F074FC00BF00BF3E
:10124000012318463037BD4680BD00BF1002002084
:10125000CC5B0108345C0020F45B0108205C0108D1
:101260003C5C0108605C0108885C01089C5C01082A
:10127000B85C0108D05C0108045D0108305D01081C
:10128000585D0108785D0108A45D0108D45D01087E
:10129000F45D0108105E0108345E0108605E01081B
:1012A000785E01088C5E0108C85E0108205F0108B5
:1012B000345F01083C5C0020485F010880B582B0C3
:1012C00000AF00200DF0B4FE02460B4B1A60002266
:1012D000002101200DF0F4FF0246084B1A60084B74
:1012E0003B60084B7B603B46194607480CF098F87A
:1012F00000BF0837BD4680BD405C00202C5C00204C
:10130000280003209117000859170008F0B58FB086
:1013100006AF4FF450733B800BF041FF00F078F9BB
:10132000F861FA69062100200BF079FEFB695A7911
:101330005C4B1A72FB691A795A4B5A72FB69DA785C
:10134000584B9A72FB699A78564BDA72FB695A7855
:10135000544B1A73FB691A78524B5A73524A102134
:1013600018200BF05CFE514A102108200BF057FEAC
:101370004EF66E53BB60FFF76FFD03467B603B1D6F
:101380001A4606212E200BF04AFE474A102118204B
:101390000BF045FE454A102108200BF040FE1821B5
:1013A00001200BF0A5FE0BF0F5FB0023FB76FB7E86
:1013B00043F00103FB76FB7E002B24D03C4B7B618A
:1013C00007F11202F87E07F10E03019307F11003F3
:1013D00000931346072200210BF030FA7C8A3D8AE5
:1013E0007869FEF7CDFE0346DAB27B6900931346B7
:1013F0000022294620460BF08BFD0346002B02D02D
:101400002C4812F08FFB788AF9893B46009302231F
:1014100000220BF07DFD0346002B02D0264812F07F
:1014200081FB0222022100200BF045FF234B012209
:101430001A70224B1B7818460BF00EF91F4B012235
:101440005A701E4B08221A711C4B10225A711B4BEA
:101450000022DA70194B1A4A9A60184B01229A70CE
:10146000164B9D78154B5E78144B1B79134A5279B5
:101470001249C978114880680024049403900291AD
:101480000192009300230122314628460BF02EF9E9
:101490000A4B9B78002B01D00BF0B7FA00BF243722
:1014A000BD46F0BD0400002020640108306401083E
:1014B000705F0108785F0108A85F01081002002032
:1014C00007B2010080B58CB008AF0346FB71422320
:1014D000FB72FB79012B06D13F4B1B88FB813F4BF5
:1014E0001B88BB8105E04FF4C863FB814FF47A632E
:1014F000BB813B4B93F88130184602F0DBF9384B47
:1015000093F880301946374812F098FAFB79022B8D
:1015100019D1334B93F88030012B04D0304B93F822
:101520008030022B0FD10AF095FF0346FB72FB7A45
:10153000002B03D12C4812F0F5FA04E0FB7A19468F
:101540002A4812F07BFA264AFB7982F88030244B35
:101550001B7EB889F9890022069200220592244A4E
:1015600004920393234B02930823019300230093D7
:101570000023024600200AF091FF0346FB721E4939
:101580000E200BF0E6F90346FB72FB7A002B11D11B
:10159000FB79012B0AD1194812F0C4FA104B93F8C9
:1015A00081301749184602F00FFA12E0154812F080
:1015B000B9FA0EE0FB79012B05D1FB7A19461248E6
:1015C00012F03CFA05E0FB7A1946104812F036FAA0
:1015D00000BF1037BD4680BD940200209602002057
:1015E00010020020D85F0108F45F010818600108AC
:1015F0002902002040640108040000204060010826
:1016000046E001006860010894600108C4600108B8
:1016100080B586B000AFFFF71FFC38613B69B3F1BE
:10162000FF3F23D0FFF730FCB860FFF721FC786064
:101630003B69DAB2164B1A703B691B0ADAB2144BDB
:101640005A703B691B0CDAB2114B9A707B68DAB2A4
:101650000F4BDA70BB68DAB20D4B1A71BB681B0A0C
:10166000DAB20B4B5A710A4B7B610BE000200CF095
:10167000C5FDF860FB68002B02D0FB687B6101E0D0
:10168000044B7B617B6918461837BD4680BD00BF9F
:10169000D40300201864010880B500AF034B1B6819
:1016A000012118460DF0A0FB00BF80BD485C002062
:1016B00080B582B000AF78604FF0FF32002101208A
:1016C0000DF0F4FB00F001F8F6E780B500AF022062
:1016D000FFF7F8FE00BF80BD80B582B000AF786034
:1016E0004FF0FF32002101200DF0E0FB0BF0B4FEC3
:1016F000F6E7000080B582B000AF7860044B1B684D
:10170000012118460DF070FB00BF0837BD4680BDB3
:10171000305C002080B582B000AF7860044B1B685D
:1017200018460DF0D1FE00BF0837BD4680BD00BF92
:101730002C5C002080B582B000AF7860054B1B6840
:101740004FF0FF3118460DF059FE00BF0837BD4677
:1017500080BD00BF2C5C002080B584B000AF7860F5
:101760007B68FB60FB685B68083318460AF020FE64
:101770000346FB72FB7A002B03D0FB6801221A7030
:1017800002E0FB6800221A7000BF1037BD4680BD22
:1017900080B582B000AF0346FB71FB79002B02D00D
:1017A000012B08D00DE0094B1B684FF0FF311846A4
:1017B0000DF0D8FC05E0054B1B6818460DF030FD18
:1017C00000BF00BF0837BD4680BD00BF405C0020A1
:1017D00080B582B000AF78607B681B78012B0ED09B
:1017E000032B16D0002B00D01CE0104B01221A70E6
:1017F0000F4812F097F90F4812F020F912E00B4B46
:1018000000221A700C4812F08DF90A4812F016F9ED
:1018100008E00A4B18687B68191D002300220DF0B0
:1018200031FF00BF00BF0837BD4680BD98020020D1
:10183000506101088461010888610108385C00205A
:1018400080B582B000AF78607B681B78002B05D034
:10185000012B00D003E000F013F800E000BF00BF50
:101860000837BD4680BD000080B500AF034B0022A5
:101870001A7000F005F800BF80BD00BF980200207C
:1018800090B400AF0E4B01225A700D4B00229A709B
:101890000B4B0122DA700A4B00221A71084A4FF0F2
:1018A00000034FF00004C2E90234054B00221A7411
:1018B000034B00225A7400BFBD4690BC704700BF66
:1018C0009802002080B58CB000AF0346FB80304BFF
:1018D0001B78002B54D02F4812F0B0F82E4812F08D
:1018E000ADF82E4B1B684FF0FF3118460DF03AFC57
:1018F00007F11C0301221946294807F0ACFE07F145
:10190000180301221946264807F0AFFF234B1B6836
:1019100018460DF085FC07F10C0300221A605A608E
:101920001A813B7E1B021AB27B7E1BB213431BB291
:101930009BB2BB82BB7E1B021AB2FB7E1BB213435F
:101940001BB29BB27B823B7F1B021AB27B7F1BB216
:1019500013431BB29BB23B82BB7F1B021AB2FB7FBD
:101960001BB213431BB29BB2FB81FB88BB8107F107
:101970000C030A2219464FF642600CF069FB03E0A3
:10198000084812F05BF800BF3037BD4680BD00BF8D
:10199000980200204062010884610108445C002034
:1019A000505E0020F461010880B400AF054BDB6895
:1019B000044A43F40043D36000BFBD465DF8047B96
:1019C000704700BF0004005880B483B000AF786057
:1019D000064BD3F8D42005497B681343C1F8D430B3
:1019E00000BF0C37BD465DF8047B70470008005807
:1019F00080B483B000AF7860054B1A6A04497B68F5
:101A000013430B6200BF0C37BD465DF8047B704783
:101A10000008005880B485B000AF78604FF0B04344
:101A20001A6D4FF0B0417B6813430B654FF0B04324
:101A30001A6D7B681340FB60FB6800BF1437BD461E
:101A40005DF8047B704780B485B000AF78604FF0DC
:101A5000B043D3F850214FF0B0417B681343C1F835
:101A600050314FF0B043D3F850217B681340FB60F6
:101A7000FB6800BF1437BD465DF8047B704780B437
:101A800083B000AF78607B681B6843F480327B686A
:101A90001A6000BF0C37BD465DF8047B704780B408
:101AA00083B000AF78607B681B6843F001027B68FD
:101AB0001A6000BF0C37BD465DF8047B704780B4E8
:101AC00083B000AF786039607B685A683B681B045C
:101AD000DB431A407B685A6000BF0C37BD465DF897
:101AE000047B704780B483B000AF786039607B6856
:101AF0005A683B681B041A437B685A6000BF0C3766
:101B0000BD465DF8047B704780B483B000AF786059
:101B100039607B685A683B68DB431A407B685A60CF
:101B200000BF0C37BD465DF8047B704780B483B0BE
:101B300000AF786039607B683A689A6000BF0C3704
:101B4000BD465DF8047B704780B483B000AF786019
:101B500039603B681A047B689A6000BF0C37BD4649
:101B60005DF8047B704780B483B000AF7860396063
:101B70007B68DA683B6813403A689A4201D10123D6
:101B800000E0002318460C37BD465DF8047B704723
:101B900080B483B000AF786039607B68DA693B68F5
:101BA00013403A689A4201D1012300E0002318460D
:101BB0000C37BD465DF8047B7047000080B500AF70
:101BC00002211948FFF7E4FF0346002B09D0164B0A
:101BD0005B68DB4303F00203002B02D000F0EAF85D
:101BE0001FE001211048FFF7D3FF0346002B08D068
:101BF0000D4B5B6803F00103002B02D100F09EF84F
:101C00000FE008210848FFF7C3FF0346002B09D067
:101C1000054B5B68DB4303F00803002B02D000F0A8
:101C200015F900BF00BF80BD000C005880B500AFA3
:101C300002212248FFF797FF0346002B09D11F4BD3
:101C40005B68DB4303F40033002B02D000F0A6F8FE
:101C500031E002211948FFF786FF0346002B09D126
:101C6000164B5B68DB4303F40033002B02D000F01B
:101C700095F820E008211148FFF775FF0346002B77
:101C800009D10E4B5B68DB4303F40023002B02D029
:101C900000F0BEF80FE020210848FFF764FF03467C
:101CA000002B09D1054B5B68DB4303F40013002BC9
:101CB00002D000F04FF800BF00BF80BD000C0058FC
:101CC00080B500AF4FF48010FFF7BDFE4FF40070F9
:101CD000FFF77AFE4FF40070FFF78AFE40BF20BF87
:101CE000FFF762FE00BF80BD80B500AF4FF48010EB
:101CF000FFF790FE0648FFF7D2FE0548FFF7BFFE4C
:101D00002C2004F0A3FA2D2004F0A0FA00BF80BD1F
:101D1000000C005880B500AF01210248FFF7F4FE27
:101D200000BF80BD000C005880B500AF0121024803
:101D3000FFF70AFF00BF80BD000C005880B500AF60
:101D40000BF0C8FE01210248FFF7F0FE00BF80BD86
:101D5000000C005880B500AF20210348FFF7C2FEF9
:101D60000BF0E8FE00BF80BD000C005880B500AF4E
:101D700002210248FFF7C8FE00BF80BD000C0058DA
:101D800080B500AF02210448FFF7DEFE02210248C1
:101D9000FFF795FE00BF80BD000C005880B500AF76
:101DA00002210348FFF79EFE0BF014FF00BF80BD29
:101DB000000C005880B500AF0BF022FF0221024852
:101DC000FFF7B4FE00BF80BD000C005880B582B0A4
:101DD00000AF786008210C48FFF7C5FE0346002BD2
:101DE00007D00A4A7B68136008210748FFF767FE9F
:101DF00006E07B68984708210348FFF7A5FE00BF6F
:101E00000837BD4680BD00BF000C0058DC03002031
:101E100080B500AF08210648FFF764FE054B1B683C
:101E2000984708210248FFF78FFE00BF80BD00BF22
:101E3000000C0058DC03002080B500AF08210248E8
:101E4000FFF762FE00BF80BD000C005880B500AFF8
:101E50000BF07EFF08210248FFF768FE00BF80BD3F
:101E6000000C0058D458C4500433C4188C42F9D321
:101E70007047036004308842FBD370470C488546A6
:101E800003F0DAFF0B480C490C4A0023FFF7EDFF83
:101E90000B480C490023FFF7EEFF0B480B490023CA
:101EA000FFF7E9FF11F086F802F0F4F9FEE7000011
:101EB0000000032004000020F4010020307B010812
:101EC000B8030020B8600020E0010320570A032077
:101ED000FEE7000080B483B000AF7860064BD3F813
:101EE000902005497B681343C1F8903000BF0C3740
:101EF000BD465DF8047B70470008005880B485B08B
:101F000000AF78604FF0B043DA6C4FF0B0417B68BF
:101F10001343CB644FF0B043DA6C7B681340FB6033
:101F2000FB6800BF1437BD465DF8047B704780B482
:101F300085B000AF78604FF0B043D3F84C214FF03C
:101F4000B0417B681343C1F84C314FF0B043D3F834
:101F50004C217B681340FB60FB6800BF1437BD4613
:101F60005DF8047B704780B500AF04F033F804F0EF
:101F700037F84FF48030FFF7ADFF0CF0C5F800F0F4
:101F800021F800F0BFF800BF80BD0000B0B588B0F8
:101F900000AF0B4B3C1D1D460FCD0FC495E807004D
:101FA00003C422800234130C23700BF0BFFE3B1DD0
:101FB00018460BF01EFA00BF2037BD46B0BD00BF6B
:101FC0007862010880B588B000AF3B1D00221A601E
:101FD0005A609A60DA601A610023BB8300237B8316
:101FE00000233B830023FB7733E0FB7F424ADB0087
:101FF00013449B79002B28D0FB7F3F4A52F83330A3
:102000003E4A93420FD03E4A934215D0B3F1904FCF
:1020100000D01BE0FB7F384ADB0013449A88BB8B5F
:102020001343BB8312E0FB7F334ADB0013449A88DF
:102030007B8B13437B8309E0FB7F2F4ADB00134438
:102040009A883B8B13433B8300E000BFFB7F013347
:10205000FB77FB7F212BC8D90023FB600123BB60EA
:1020600003233B61BB8B002B14D0BB8B7B60012017
:10207000FFF744FF0120FFF75AFF3B1D19464FF0C1
:10208000904004F021FBBB8B002219464FF090409A
:1020900004F0A2FC7B8B002B12D07B8B7B60022098
:1020A000FFF72CFF0220FFF742FF3B1D19461348A4
:1020B00004F00AFB7B8B00221946104804F08CFCCC
:1020C0003B8B002B13D03B8B7B600420FFF716FF6C
:1020D0000420FFF72CFF3B1D1946094804F0F4FAD1
:1020E0003B8B00221946064804F076FC00BF00BF77
:1020F0002037BD4680BD00BF906401080004004841
:102100000008004880B400AF00BFBD465DF8047B06
:10211000704780B500AF02F019FA00BF80BD80B5EE
:1021200084B000AFF8600B467A607B817A897B6867
:10213000F968002001F0DCFC00BF1037BD4680BD0F
:1021400080B483B000AF7860074BD3F8803023F0C1
:10215000070205497B681343C1F8803000BF0C3784
:10216000BD465DF8047B70470004005880B483B01E
:1021700000AF78604FF0B0439B6823F400424FF00B
:10218000B0417B6813438B6000BF0C37BD465DF8E0
:10219000047B704780B500AF00F014F808490020B8
:1021A00001F02CFAFFF7DFFE0121012010F0CEFE36
:1021B00000F0A1F800F0A6F800F012F800BF80BD12
:1021C000505E002080B500AF4FF40040FFF7CEFF17
:1021D00010F0AAFE0420FFF7B3FF00BF80BD00008F
:1021E00080B588B000AF0BF0EBFB00200CF020FFB7
:1021F0000246174B1A600022002101200DF060F802
:102200000246144B1A60144A002114480CF046FD93
:102210000246134B1A60134B3B60134B7B603B46EB
:10222000194612480BF092FA114BBB60114BFB6040
:10223000114B3B6140F23C537B6107F108031846A8
:102240000BF000FD0BF0B6FB00BF2037BD4680BD94
:102250004C5C0020545C0020A0650108DD220008D1
:10226000505C0020240703207D220008BD220008C6
:102270003C09032030080320E801032080B582B028
:1022800000AF0346FB71FB79002B02D0012B08D075
:102290000DE0094B1B684FF0FF3118460CF062FF50
:1022A00005E0054B1B6818460CF0BAFF00BF00BFE5
:1022B0000837BD4680BD00BF4C5C002080B582B0B1
:1022C00000AF7860FFF762FEFEF7EAFD0021012013
:1022D00010F03CFE00BF0837BD4680BD80B582B01F
:1022E00000AF78604FF0FF32002101200CF0DEFDDE
:1022F0000BF048FAF6E780B400AF00BFBD465DF8CA
:10230000047B704780B400AF00BFBD465DF8047B1E
:102310007047000080B582B000AF7860044B1B6846
:10232000012118460CF060FD00BF0837BD4680BD96
:10233000505C002080B582B000AF7860044B1B6811
:1023400018460DF0C1F800BF0837BD4680BD00BF7C
:10235000545C002080B582B000AF7860054B1B68EC
:102360004FF0FF3118460DF049F800BF0837BD4661
:1023700080BD00BF545C002080B584B000AF7860A1
:102380007B681B68234A13607B689A88214B9A807C
:10239000204B00229A717B689B7903F00303DAB229
:1023A0001C4B1A737B689B799B08DBB203F0030319
:1023B000DAB2184B5A737B689B791B09DBB203F0C6
:1023C0000303DAB2134B9A73124B1A7B114B5B7BEC
:1023D0009A420CD10F4B9A880E4B9B880333002BEB
:1023E00000DA03339B109BB213449BB205E0094B08
:1023F0009B881A46520013449BB2FB81FB89184606
:1024000010F0FCFD03461A46024B9A6000BF1037DD
:10241000BD4680BD585C002080B584B000AF4B4BFA
:102420009B68002B00F08E80484B9B68FB60474BFD
:102430009B883B81454B9B79FB8000237B7100236C
:10244000FB720AE0414B1868791D4FF0FF330122FF
:1024500007F0BDFBFB7A0133FB72FB7A032BF1D94A
:102460003A4B9B79002B2CD0FF237B71374B18689C
:10247000791D4FF0FF33012207F0A9FB0023FB7207
:1024800015E0FB685A1CFA601B781A46FB8803FBB0
:1024900002F31B12DBB27B712C4B1868791D4FF0D5
:1024A000FF33012207F093FBFB7A0133FB72FB7AC7
:1024B000022BE6D93B89013B3B813B89002BD3D1E1
:1024C00025E0FF237B71214B1868791D4FF0FF3306
:1024D000012207F07CFB0023FB720FE0FB685A1C13
:1024E000FA601B787B71194B1868791D4FF0FF3328
:1024F000012207F06CFBFB7A0133FB72FB7A022BA3
:10250000ECD93B89013B3B813B89002BD9D1FF238F
:102510007B710023FB720AE00C4B1868791D4FF0A9
:10252000FF33012207F053FBFB7A0133FB72FA7A87
:10253000064B9B880F33002B00DA0F331B119A4296
:10254000EADB00E000BF1037BD4680BD585C0020CC
:1025500080B500AF0F4B98680E4B1A7B0D4B5B7B21
:102560009A420BD10B4B9B881A460A4B9B8803332C
:10257000002B00DA03339B10134405E0054B9B88C6
:102580001A4613465B0013441A46002110F049FD19
:1025900000BF80BD585C002080B485B000AF03460A
:1025A0003960FB80164B9B88FA889A4221D2144BE3
:1025B0009968FA8813465B0013440B44FB603B6840
:1025C0001A0C0F4B1B7B1946FB680B44D2B21A70D6
:1025D0003B681A0A0A4B5B7B1946FB680B44D2B274
:1025E0001A70074B9B7B1A46FB6813443A68D2B2B9
:1025F0001A7000BF1437BD465DF8047B704700BFFA
:10260000585C002080B584B000AF78600B467B80BA
:1026100013463B80154B9B887A889A4222D23B888E
:10262000002B03D1114B9B88BB810BE07A883B8840
:102630001344BB810D4B9B88BA899A4202D90B4B3C
:102640009B88BB817B88FB8107E0FB897968184602
:10265000FFF7A2FFFB890133FB81FA89BB899A420C
:10266000F3D300E000BF1037BD4680BD585C0020AA
:1026700080B483B000AF0346FB71FB790133DAB25B
:10268000034B9A7100BF0C37BD465DF8047B704761
:10269000585C002080B586B002AF03460A46FB7145
:1026A0001346BB717823FB81BB793B73FB797B734A
:1026B00007F10C02F9894FF0FF330093022303481E
:1026C00004F06EFA00BF1037BD4680BD7C5C002070
:1026D00080B500AF0021AE20FFF7DCFF0021D52040
:1026E000FFF7D8FF00218020FFF7D4FF0021A820AA
:1026F000FFF7D0FF00212720FFF7CCFF0021D320D8
:10270000FFF7C8FF00210020FFF7C4FF0021AD2024
:10271000FFF7C0FF00213020FFF7BCFF00218D2014
:10272000FFF7B8FF00211420FFF7B4FF002140207D
:10273000FFF7B0FF0021A620FFF7ACFF0021A42087
:10274000FFF7A8FF0021A120FFF7A4FF0021C82068
:10275000FFF7A0FF0021DA20FFF79CFF00211220E5
:10276000FFF798FF00218120FFF794FF0021AF20A1
:10277000FFF790FF0021D920FFF78CFF00212220D6
:10278000FFF788FF0021DB20FFF784FF00212020D6
:10279000FFF780FF0021AF20FFF77CFF00BF80BD67
:1027A00080B485B000AF78600023FB6007E0FB6871
:1027B0007A68134400221A70FB680133FB60FB68DF
:1027C000B3F5B47FF3DB00BF1437BD465DF8047B7F
:1027D000704780B485B000AFF860B9603B601346C5
:1027E000FB71FB68482B61DCBB68282B5EDCFB7946
:1027F000002B2CD0BB68002B00DA0733DB101A4605
:102800001346DB001344DB001946FB680B441946F2
:102810003B680B441B7859B2BB68584203F007036E
:1028200000F0070058BF4342012000FA03F35BB2F7
:102830000B4359B21346DB001344DB001A46FB6816
:1028400013441A463B681344CAB21A702FE0BB689F
:10285000002B00DA0733DB101A461346DB00134463
:10286000DB001946FB680B4419463B680B441B7898
:1028700059B2BB68584203F0070300F0070058BF85
:102880004342012000FA03F35BB2DB435BB20B402F
:1028900059B21346DB001344DB001A46FB681344AD
:1028A0001A463B681344CAB21A7000E000BF1437DE
:1028B000BD465DF8047B704790B587B000AF044615
:1028C000084611461A462346FB710346BB710B4668
:1028D0007B7113463B71BB793B7480237B82082359
:1028E0007B747B79203BFB733B79202B04D14FF425
:1028F00000437B8210237B740023FB75B1E03B799E
:102900000C2B1DD197F82830002B0BD0FA7BF97DCA
:10291000584813465B0013449B0003440B441B7848
:10292000BB826CE0FA7BF97D524813465B0013448E
:102930009B0003440B441B789BB2DB43BB825EE0ED
:102940003B79102B17D197F82830002B08D0FA7B51
:10295000FB7D494912010A4413441B78BB824EE0B7
:10296000FA7BFB7D444912010A4413441B789BB255
:10297000DB43BB8243E097F82830002B1CD0FB7B65
:10298000A3F11002FB7D5B003C4992010A44134411
:102990001B789BB21B02BB82FB7BA3F11002FB7D69
:1029A0005B000133354992010A4413441B789AB203
:1029B000BB8A1343BB8222E0FB7BA3F11002FB7DA9
:1029C0005B002E4992010A4413441B789BB2DB43FF
:1029D0009BB21B02BB82FB7BA3F11002FB7D5B0061
:1029E0000133264992010A4413441B789BB2DB430E
:1029F0009BB21AB2B7F9143013431BB2BB82002347
:102A0000BB7527E0BA8A7B8A13409BB2002B06D0A5
:102A1000F879B979FB6A0122FFF7DBFE05E0F87966
:102A2000B979FB6A0022FFF7D4FEBB8A5B00BB8248
:102A3000BB790133BB71BA793B7CD21A3B799A429C
:102A400005D13B7CBB71FB790133FB7106E0BB7D9B
:102A50000133BB75BA7D7B7C9A42D3D3FB7D0133B6
:102A6000FB75FA7D3B799A42FFF449AF00BF1C37F2
:102A7000BD4690BDC4650108386A01082870010888
:102A800090B585B002AF3A601A460346FB710B461B
:102A9000BB7113467B712CE0FA797B795B08DBB262
:102AA000C3F148039A420FDD0023FB71BA797B79A9
:102AB0001344BB71BA797B79C3F128039A4203DDD1
:102AC0000023FB71FB79BB713B681A787C79B9797B
:102AD000F879FB6901933B7E00932346FFF7ECFEF8
:102AE0007B795B08DAB2FB791344FB713B680133F5
:102AF0003B603B681B78002BCED100BF0C37BD4636
:102B000090BD80B584B000AF3A601A460346FB71B1
:102B10000B46BB7113467B717B790733002B00DAC0
:102B20000733DB107B730023BB732CE00023FB73A4
:102B300022E0BB7B7A7B02FB03F3FA7BD208D2B2A2
:102B400013441A463B6813441B781946FB7B03F079
:102B50000703802242FA03F30B40002B09D0FA79D5
:102B6000FB7BD018BA79BB7BD118FB690122FFF738
:102B700030FEFB7B0133FB73FA7B7B799A42D8D31F
:102B8000BB7B0133BB73BA7B3B7E9A42CED300BF83
:102B90001037BD4680BD80B584B000AF786000239B
:102BA000FB7329E0FB7B503BDBB200211846FFF7AB
:102BB00071FD00210C20FFF76DFD00211120FFF7B2
:102BC00069FD0023BB7311E0B97BFA7B1346DB0080
:102BD0001344DB000B441A467B6813441B784021E6
:102BE0001846FFF757FDBB7B0133BB73BB7B472BFD
:102BF000EAD9FB7B0133FB73FB7B042BD2D900BFEB
:102C00001037BD4680BD80B5DEB002AF3B1D1860F9
:102C100007F108031846FFF7C3FD3B1D1B683A1D6B
:102C2000591C11601A7807F10803019301230093DE
:102C3000202304210020FFF73FFE3B1D1B683A1DA7
:102C4000591C11601A7807F10803019301230093BE
:102C5000202304211020FFF72FFE3B1D1B683A1D87
:102C6000591C11601A7807F108030193012300939E
:102C7000202304212820FFF71FFE3B1D1B681A7824
:102C800007F1080301930123009320230421382036
:102C9000FFF712FE07F1080301220C212420FFF7A1
:102CA00098FD07F1080301220D212420FFF791FD73
:102CB00007F1080301220E212420FFF78AFD07F106
:102CC000080301221C212420FFF783FD07F10803DC
:102CD00001221B212420FFF77CFD07F108030122BC
:102CE0001A212420FFF775FD07F108031846FFF7A6
:102CF00052FF00BF07F5B877BD4680BD80B5E0B094
:102D000002AF3B1D186007F10C0318464FF4B47373
:102D10001A46002110F085F93B1D1A681E4B83FBF3
:102D200002139910D317C91A0B469B000B445B0082
:102D3000D11ACBB2303387F877313B1D1B68164A66
:102D400082FB03129210DB17D31ADBB2303387F801
:102D5000763197F8762107F10C0301930123009354
:102D60000C230E211B20FFF7A7FD97F8772107F111
:102D70000C030193012300930C230E212420FFF761
:102D80009BFD07F10C031846FFF705FF00BF07F591
:102D9000BC77BD4680BD00BF6766666680B483B001
:102DA00000AF786000BF0C37BD465DF8047B70470C
:102DB00080B483B000AF7860064BD3F8802005491B
:102DC0007B681343C1F8803000BF0C37BD465DF807
:102DD000047B70470008005880B483B000AF78606F
:102DE000054B1A6804497B6813430B6000BF0C371E
:102DF000BD465DF8047B70470008005880B483B07E
:102E000000AF0D4B9B6A9BB27B600B4B9B6A9BB2E6
:102E10003B6005E03B687B60074B9B6A9BB23B6075
:102E20007A683B689A42F5D13B6818460C37BD4634
:102E30005DF8047B704700BF0028004080B485B077
:102E400000AF03460A46FB711346BB71BA791D49B0
:102E500013465B001344DB000B4415331B78FB73F4
:102E6000FB7B062B09D0FA7B164913465B00134403
:102E7000DB000B441433FA791A70FA7911491346BE
:102E80005B001344DB000B441533FA7B1A70FA79AC
:102E90000C4913465B001344DB000B441433BA792E
:102EA0001A70BA79074913465B001344DB000B44E0
:102EB0001533FA791A7000BF1437BD465DF8047BEC
:102EC000704700BFC802002080B485B000AF034641
:102ED0000A46FB711346BB71294B1B78DBB2BA79EA
:102EE0009A4232D0BA79274913465B001344DB007B
:102EF0000B4414331B78FB73FA7B224913465B00A7
:102F00001344DB000B441533FA791A70FA791D4922
:102F100013465B001344DB000B441533BA791A7077
:102F2000FA79184913465B001344DB000B44143351
:102F3000FA7B1A70BA79134913465B001344DB001D
:102F40000B441433FA791A7014E0FA790D491346D8
:102F50005B001344DB000B441533BA791A70BA795D
:102F6000084913465B001344DB000B441433FA7921
:102F70001A7000BF1437BD465DF8047B704700BF70
:102F800058030020C802002080B584B000AF03467B
:102F9000FB714E4B1B78DBB2062B18D14B4B1B78C9
:102FA000DAB24B4B1A70494AFB791370FA794949E6
:102FB00013465B001344DB000B44153306221A70E2
:102FC000454B4FF0FF321A600023FB8178E000F0A0
:102FD00009F90346FB81FA793E4913465B00134425
:102FE000DB000B4408331968FB89FA791944394826
:102FF00013465B001344DB00034408331960FA797D
:10300000344913465B001344DB000B4408331B6850
:10301000BB602E4B1B78DBB219462E4A0B465B0079
:103020000B44DB00134408331B68BA689A4237D359
:10303000264B1B787B737A7B264913465B0013442F
:10304000DB000B4415331B783B7313E07A7B21497B
:1030500013465B001344DB000B4415331B787B7372
:103060007A7B1C4913465B001344DB000B44153389
:103070001B783B733B7B062B0BD03A7B15491346E1
:103080005B001344DB000B4408331B68BA689A42A8
:10309000DCD27A7BFB7911461846FFF7CFFE0FE0B2
:1030A0000A4B1B78DAB2FB7911461846FFF70CFF82
:1030B000064B1B78DAB2064B1A70044AFB79137080
:1030C000FB8918461037BD4680BD00BF580300205D
:1030D00059030020C80200205C03002080B485B0A2
:1030E00000AF03460A46FB711346BB71394B1B7890
:1030F000DBB2FA799A4211D1364B1B78DAB2364BF1
:103100001A70FA79354913465B001344DB000B440F
:1031100015331B78DAB22F4B1A703EE0FA792F493B
:1031200013465B001344DB000B4414331B78FB7322
:10313000FA792A4913465B001344DB000B4415332C
:103140001B78BB73F979FA7B24480B465B000B4470
:10315000DB00034415331B78D8B2204913465B00CB
:103160001344DB000B44153302461A70BB7B062B5D
:1031700013D0F979BA7B19480B465B000B44DB008E
:10318000034414331B78D8B2144913465B0013442C
:10319000DB000B44143302461A70FA790F491346C8
:1031A0005B001344DB000B440C3301221A70094B03
:1031B0001B78DBB2062B07D1BB79002B04D1084B5F
:1031C0004FF0FF321A6000BF00BF1437BD465DF8F4
:1031D000047B70475803002059030020C8020020D8
:1031E0005C03002080B582B000AF1A4B1B68B3F1BE
:1031F000FF3F26D0FFF702FE7860164B1B687A6807
:103200009A4205D8134B1A687B68D31A7B600AE090
:10321000114B1B881A467B68D31A3B600D4B1B6809
:103220003A6813447B600D4B1B781A467B6802FB9F
:1032300003F37B600A4B1B781A467B68D3407B60A4
:1032400001E000237B607B689BB218460837BD46CF
:1032500080BD00BF5C030020E6030020E5030020E2
:10326000E403002080B582B000AF0346FB80FB88FA
:10327000002B08D1FFF7C2FD0246244B1A60032041
:1032800003F000F83EE0FB88012B03D8204B1B78AD
:10329000012B02D0FB88013BFB8000BF1D4B1B684C
:1032A0001B68DB6803F00403002BF7D0194B1B6885
:1032B0001B68DB68DAB2174B1B681B6862F490620C
:1032C000DA60154B4FF40022DA60032002F0E8FFC9
:1032D000124B5B691B0C1B04FA88104913434B61AA
:1032E000FFF78CFD0246094B1A600A4B1B681B68EE
:1032F0009A68084B1B681B6842F480629A60AFF3BF
:10330000008000BF0837BD4680BD00BF5C030020C1
:10331000E4030020E00300200008005800280040DB
:1033200080B584B000AF474B9B6803F48063B3F56E
:10333000806F08D100BF444B1B681B68DB6803F03B
:103340000403002BF7D1404B1B681B689A683E4B67
:103350001B681B6822F480629A603C4B1B78FB73ED
:10336000FA7B3B4913465B001344DB000B440833F4
:103370001B68BB60FFF736FF0346FB80FB88BA681B
:103380009A4205D20023BB81324B01221A704DE0D4
:10339000FB88314A128892B213441A46BB689342A2
:1033A00006D92D4B1B88BB812A4B00221A703DE0A9
:1033B000BB689AB2FB88D31ABB81264B01221A70D4
:1033C00034E0FA7B224913465B001344DB000B44D4
:1033D00008331A68FB889A420AD2FA7B1C491346C2
:1033E0005B001344DB000B44083300221A6013E037
:1033F000FA7B174913465B001344DB000B44083388
:103400001968FB88FA7BC91A114813465B001344FC
:10341000DB00034408331960FA7B0D4913465B0057
:103420001344DB000B4415331B78FB73FB7B062B2B
:10343000C7D1BB891846FFF715FF00BF1037BD463F
:1034400080BD00BF00280040E0030020580300209A
:10345000C802002060030020E803002080B58AB085
:1034600000AFEFF310837B617B697B6272B65E4BCA
:103470001B681B68CA225A625B4B1B681B6853227D
:103480005A62594B1B681B689A68574B1B681B682C
:1034900022F480629A60554B1B7887F8233097F8A6
:1034A0002320534913465B001344DB000B440C33C9
:1034B0001B78DBB2022B70D197F823204C491346BE
:1034C0005B001344DB000B441B68FB6197F823206F
:1034D000474913465B001344DB000B4410331B6861
:1034E000BB61444B1B78DBB2002B4ED097F82320F6
:1034F0003F4913465B001344DB000B440D331B783C
:10350000DBB2012B25D197F8233001211846FFF7B4
:10351000E5FD7B6A3B613B6983F3108897F82320C4
:10352000334913465B001344DB000B4404331A6831
:1035300097F823301146184600F046FA2A4B1B68CC
:103540001B68CA225A62284B1B681B6853225A62A6
:1035500013E07B6AFB60FB6883F3108897F82330E5
:10356000184600F0A7F9204B1B681B68CA225A6254
:103570001D4B1B681B6853225A6297F82330FA6967
:103580001946B86900F0A6FA24E0FFF7C9FE7B6A85
:10359000BB60BB6883F310881CE000BF124B1B6844
:1035A0001B68DB6803F00403002BF7D00E4B1B688D
:1035B0001B68DB68DAB20C4B1B681B6862F4906214
:1035C000DA600D4B4FF40022DA607B6A7B607B6827
:1035D00083F31088044B1B681B68FF225A6200BFEC
:1035E0002837BD4680BD00BFE003002058030020FF
:1035F000C8020020600300200008005880B588B091
:1036000000AF03463960FB71644A3B681360634B4B
:103610001B681B68CA225A62604B1B681B685322D6
:103620005A625F4B9B685E4A43F0200393605C4B99
:103630009B68DBB203F00703DBB2C3F10403DAB229
:10364000584B1A70564B1B6903F4FE034FF4FE02ED
:103650003A613A6992FAA2F2FA60FA687A617A6992
:10366000002A01D1202203E07A69B2FA82F2D2B2B2
:10367000D340DBB20133DAB24B4B1A70484B1B69B3
:103680009BB2C3F30E039BB201339AB2474B1A802D
:10369000464B1B88013B444A127802FB03F3A3F517
:1036A000A073404A1278D340BB61BB694FF6FE72EB
:1036B000934204D93E4B4FF6FF721A8003E0BB6978
:1036C0009AB23B4B1A804FF40020FFF785FB4FF472
:1036D0000020FFF76DFBFB79002B43D1354B012216
:1036E0001A70354B4FF0FF321A600023FB770CE065
:1036F000FA7F324913465B001344DB000B440C3362
:1037000000221A70FB7F0133FB77FB7F052BEFD97B
:103710002B4B06221A70214B1B681B689A681F4BA3
:103720001B681B6822F480629A601C4B1B681B6834
:10373000DB68DAB2194B1B681B6862F49062DA60CE
:10374000204B4FF40022DA60032002F0A9FD134B56
:103750001B681B689A68114B1B681B6842F4804207
:103760009A600AE00D4B1B681B68DB6803F48063FA
:10377000002B02D0032002F085FD084B1B681B685C
:10378000FF225A6200220621032002F045FD032099
:1037900002F05CFD00BF2037BD4680BDE003002085
:1037A00000280040E4030020E5030020E603002099
:1037B000E8030020600300205C030020C802002012
:1037C000580300200008005880B48BB000AFF860A8
:1037D000B9603B601346FB71002387F82630EFF396
:1037E0001083FB61FB693B6272B604E097F82630F8
:1037F000013387F8263097F82630052B0CD897F838
:1038000026202B4913465B001344DB000B440C338A
:103810001B78DBB2002BE9D197F82630062B37D086
:1038200097F82620224913465B001344DB000B4423
:103830000C3301221A703B6ABB61BB6983F31088A9
:1038400097F826201A4913465B001344DB000B440B
:103850001033FA681A6097F82620154913465B0062
:103860001344DB000B440D33FA791A7097F82620C5
:103870000F4913465B001344DB000B443A681A609F
:10388000BB6897F826201A70002387F8273007E0D6
:103890003B6A7B617B6983F31088012387F82730BB
:1038A00097F8273018462C37BD465DF8047B7047E3
:1038B000C802002080B586B000AF0346FB71EFF36D
:1038C0001083FB60FB687B6172B6032002F0CCFCC6
:1038D000374B1B681B68CA225A62354B1B681B6832
:1038E00053225A62FA79334913465B001344DB00D2
:1038F0000B440C331B78DBB2022B48D1FB7900213F
:103900001846FFF7EBFB2C4B1B78FB74FB7C062B5C
:1039100035D12A4B9B6803F48063B3F5806F08D1DF
:1039200000BF234B1B681B68DB6803F00403002BFC
:10393000F7D11F4B1B681B689A681D4B1B681B68DF
:1039400022F480629A6000BF194B1B681B68DB6819
:1039500003F00403002BF7D0154B1B681B68DB68D2
:10396000DAB2134B1B681B6862F49062DA60144B86
:103970004FF40022DA60032002F092FC07E0114BC2
:103980001B78DBB2FA7C9A4201D0FFF7C9FC084BE6
:103990001B681B68FF225A62032002F057FC7B69F8
:1039A000BB60BB6883F3108800BF1837BD4680BD7D
:1039B000E0030020C8020020580300200028004037
:1039C000000800585903002080B586B000AF0346B8
:1039D0003960FB71FA793B4913465B001344DB0005
:1039E0000B440C331B78DBB2022B03D1FB79184656
:1039F000FFF760FFEFF31083FB60FB687B6172B63B
:103A0000032002F031FC304B1B681B68CA225A624B
:103A10002D4B1B681B6853225A62FA7929491346B9
:103A20005B001344DB000B440C3302221A70FA795A
:103A3000244913465B001344DB000B4408333A6807
:103A40001A60FA791F4913465B001344DB000B44EC
:103A500004333A681A60FB791846FFF795FA034673
:103A60007B821A4B1B787B74194B1B78DBB27A7CF8
:103A70009A4202D0FFF754FC13E0FA791149134639
:103A80005B001344DB000B44083319687B8AFA7926
:103A9000C91A0C4813465B001344DB000344083387
:103AA0001960094B1B681B68FF225A62032002F051
:103AB000CDFB7B69BB60BB6883F3108800BF183700
:103AC000BD4680BDC8020020E0030020580300204E
:103AD0005903002080B584B000AFF8600B467A60CF
:103AE000FB727B68984700BF1037BD4680BD000061
:103AF00080B586B000AFB9607B600346FB731346A8
:103B0000BB810023FB750023BB75FB7B002B00D022
:103B10000EE0174A7B681360164B174A1A60BB8980
:103B20001A46B968134807F0BBFD0346FB7500BF92
:103B3000FB7D032B16D801A252F823F04D3B000861
:103B4000533B0008593B00085F3B00080023BB754E
:103B500009E00123BB7506E00223BB7503E00323E4
:103B6000BB7500E000BFBB7D18461837BD4680BD61
:103B70006C5C0020BC5D00200038014080B582B044
:103B800000AF78607B681B681A46084B9A4200D0E9
:103B900007E0074B1B68002B02D0054B1B689847BA
:103BA00000BF00BF0837BD4680BD00BF00380140E0
:103BB0006C5C002080B489B000AF78600023FB61AA
:103BC00002E0FB690133FB61FB6901331F4A52F8D4
:103BD00023307A689A42F4DC1C4AFB6952F823309D
:103BE000BB61FB690133194A52F823307B61184AE3
:103BF000FB6952F823303B61FB690133144A52F8E8
:103C00002330FB60FA683B69D31A7968BA698A1A6B
:103C100002FB03F307EE903AF8EEE76A7A69BB69B4
:103C2000D31A07EE903AB8EEE77AC6EE877AFDEE41
:103C3000E77A17EE903ABB603A69BB6813441846BE
:103C40002437BD465DF8047B704700BF0C73010844
:103C5000E872010890B583B000AF786039607B6886
:103C6000002B01D178232CE03B68002B01D10023ED
:103C700027E03B6807EE903AB8EEE77A7A683B684F
:103C8000134407EE903AF8EEE77AC7EE276A16EE8D
:103C9000900AFCF731FC4FF000020C4BFCF784FC5F
:103CA00003460C4644EC173BB0EE470AF0EE670AB9
:103CB00011F008FF54EC103B18462146FCF724FF96
:103CC000034618460C37BD4690BD00BF00005E405D
:103CD00080B58AB000AF786000237B627B680433D4
:103CE0001A687B680C331B689A4220DD7B680833B6
:103CF0001A687B680C331B689A4218DD7B680433B2
:103D00001A687B680C331B68D31A3B627B680833E4
:103D10001A687B680C331B68D31AFB61F969386A2F
:103D2000FFF798FF02467B6A13447B6242E07B68A0
:103D300008331A687B6804331B689A4221DD7B686C
:103D40000C331A687B6804331B689A4219DD7B6860
:103D500008331A687B6804331B68D31ABB617B681D
:103D60000C331A687B6804331B68D31A7B6179694A
:103D7000B869FFF76FFF034678337A6A13447B62B2
:103D800018E07B680C331A687B6808331B68D31A09
:103D90003B617B6804331A687B6808331B68D31A5D
:103DA000FB60F9683869FFF755FF0346F0337A6A1C
:103DB00013447B627B6A0B4A82FB03121A44111282
:103DC000DA178A1A4FF4B47101FB02F29B1A7B6274
:103DD000786AFFF7EFFEB860BB6818462837BD4623
:103DE00080BD00BFB7600BB680B584B000AF78600F
:103DF0007868FFF76DFFF860FB68044A82FB0312E6
:103E0000DB17D31A18461037BD4680BDABAAAA2AC5
:103E100080B582B000AF78607B681B680A2B02DC3B
:103E20004FF0FF3303E07868FFF7DEFF03461846E4
:103E30000837BD4680BD80B586B000AF786007F119
:103E40000C0308221946062000F088F800237B6145
:103E500019E07B695B00013307F11802134413F882
:103E60000C3C1A027B695B0007F118010B4413F844
:103E70000C3C18467B699B0079680B4402431A602E
:103E80007B6901337B617B69032BE2DD00BF18375F
:103E9000BD4680BD80B586B004AF0123FB713B46B3
:103EA00000221A601A710EE04FF0FF3302930123D3
:103EB0000193BB1D0093012300228821264803F0B3
:103EC00077F80346FB71FB79012BEDD0BB793C2BD6
:103ED00001D001233CE0642001F0ABFB0E233B70DA
:103EE0000123FB710EE04FF0FF3302930123019396
:103EF0003B46009301230D228821174802F044FF1E
:103F00000346FB71FB79012BEDD0642001F091FB9E
:103F100000233B7009237B700023BB700623FB70DA
:103F200000233B710123FB710EE04FF0FF3302933E
:103F3000052301933B46009301230922882106486B
:103F400002F022FF0346FB71FB79012BEDD0002329
:103F500018460837BD4680BD7C5C002080B588B01F
:103F600004AF03463960FB711346BB714FF496737F
:103F70007B810023FB8101237B7314E0FB7999B2E1
:103F8000BB799BB24FF0FF32029201933B680093E2
:103F900001230A4688210D4803F00AF803467B7383
:103FA000FB890133FB817B7B012B03D1FA897B8960
:103FB0009A42E3D3FA897B899A4201D3012300E034
:103FC000002318461037BD4680BD00BF7C5C002032
:103FD00080B584B000AF3B4600221A605A609A60F8
:103FE000DA603B461846FFF726FF3B461846FFF7C8
:103FF0000FFF034618461037BD4680BD80B483B01E
:1040000000AF7860074BD3F880207B68DB4305491D
:104010001340C1F8803000BF0C37BD465DF8047B0B
:10402000704700BF0008005880B483B000AF7860CC
:10403000074BD3F890207B68DB4305491340C1F858
:10404000903000BF0C37BD465DF8047B704700BF61
:104050000008005880B483B000AF78604FF0B043E0
:104060000A4AC3F89C204FF0B043D3F89C3023F4A5
:104070007C527B681B024FF0B0411343C1F89C3067
:1040800000BF0C37BD465DF8047B7047FECAFECA10
:1040900080B483B000AF78604FF0B043D3F8903075
:1040A00023F018024FF0B0417B681343C1F8903001
:1040B00000BF0C37BD465DF8047B704780B400AF8D
:1040C0004FF0B043D3F890304FF0B04243F4803318
:1040D000C2F8903000BFBD465DF8047B704780B4E5
:1040E00000AF4FF0B043D3F890304FF0B04223F41C
:1040F0008033C2F8903000BFBD465DF8047B704746
:1041000080B400AF4FF0B043D3F8943003F0806335
:10411000B3F1806F01D1012300E000231846BD46B2
:104120005DF8047B704780B400AF4FF0B043D3F824
:10413000943003F08053B3F1805F01D1012300E09C
:1041400000231846BD465DF8047B704780B485B0F7
:1041500000AF78604FF0B043DA6C4FF0B0417B684D
:104160001343CB644FF0B043DA6C7B681340FB60C1
:10417000FB6800BF1437BD465DF8047B704780B410
:1041800085B000AF78604FF0B0431A6D4FF0B0418A
:104190007B6813430B654FF0B0431A6D7B68134087
:1041A000FB60FB6800BF1437BD465DF8047B7047B9
:1041B00080B483B000AF786039607B685A683B6830
:1041C0001B041A437B685A6000BF0C37BD465DF87C
:1041D000047B704780B483B000AF786039607B683F
:1041E0005A683B681A437B685A6000BF0C37BD466B
:1041F0005DF8047B704780B483B000AF78603960AD
:104200007B685A693B681B041A437B685A6100BF8C
:104210000C37BD465DF8047B704780B483B000AFB7
:10422000786039607B685A693B681A437B685A61D9
:1042300000BF0C37BD465DF8047B704780B483B087
:1042400000AF786039607B683A689A6000BF0C37CD
:10425000BD465DF8047B704780B483B000AF7860E2
:1042600039607B683A689A6100BF0C37BD465DF8DB
:10427000047B704780B400AF054B1B69044A23F0F0
:104280000403136100BFBD465DF8047B704700BFA7
:1042900000ED00E080B500AF464B4FF400421A61DC
:1042A00001F040FE01F077F901F061F900F0CEF87D
:1042B00001F056F901F0B1F900F02AFB00F094F991
:1042C00000F038FA00F0D0F900F0D6F900F070FAFA
:1042D0000AF07AFC38480AF0ABFE0246374B1A6007
:1042E00037480AF0A5FE0246364B1A6036480AF0F7
:1042F0009FFE0246354B1A60354A022110200BF012
:104300003BF90246334B1A60334A082110200BF068
:1043100033F90246314B1A60314A002131480AF024
:10432000BDFC0246304B1A60304A002130480AF08A
:10433000B5FC02462F4B1A602F4A00212F480AF085
:10434000ADFC02462E4B1A602E4A00212E480AF080
:10435000A5FC02462D4B1A602D4A00212D480AF07B
:104360009DFC02462C4B1A602C4A00212C480AF076
:1043700095FC02462B4B1A602B4A00212B480AF071
:104380008DFC02462A4B1A602A4A00212A480AF06C
:1043900085FC0246294B1A60294A002129480AF067
:1043A0007DFC0246284B1A60FDF7F4FE0AF040FC43
:1043B000FEE700BF0040005874770108445C00200D
:1043C00084770108CC5C002094770108845E00208B
:1043D00044770108345F00205C770108385C0020D6
:1043E000007601089D4A0008745E002024760108CA
:1043F0008D4C0008745C002048760108214F0008AD
:10440000705C00206C76010849500008385F00207D
:104410009076010885500008805E0020B47601087F
:104420008D520008C85C0020D8760108BD520008F3
:104430007C5E0020FC760108B9530008785C0020FF
:104440002077010845540008785E002080B5AEB0A2
:1044500000AF07F170034822002118460EF0E1FD7D
:1044600007F1540300221A605A609A60DA601A61F8
:104470005A619A613B1D5022002118460EF0D1FD71
:1044800003F064F90020FFF703FE2F4B1B6823F4B1
:10449000C0632D4A43F4007313602B4B1B6803F475
:1044A000C0633B603B6807233B674FF480337B6707
:1044B0000123BB674FF48073FB674023C7F880304C
:1044C0000023C7F89C3007F17003184603F0DEFCA8
:1044D0000346002B01D001F0E3F86F237B65022334
:1044E000BB650023FB6500233B6600237B6600233E
:1044F000BB660023FB6607F154030121184604F054
:1045000051F80346002B01D001F0CAF843F603032B
:104510007B600023FB6100233B624FF480737B646C
:104520004FF48043BB640223FB6410233B653B1DB7
:10453000184604F0A8FC0346002B01D001F0B0F8A7
:1045400000BFB837BD4680BD0004005880B500AF3D
:10455000234B244A1A60224B4FF4E1325A60204B1D
:1045600000229A601E4B0022DA601D4B00221A6165
:104570001B4B0C225A611A4B00229A61184B4FF4C4
:104580000042DA61164B00221A62154B00225A6271
:10459000134B00229A62124807F032F80346002BB0
:1045A00001D001F07DF800210D4807F077FD0346AA
:1045B000002B01D001F074F80021094807F0ACFD90
:1045C0000346002B01D001F06BF8054807F02DFDE4
:1045D0000346002B01D001F063F800BF80BD00BF8F
:1045E000BC5D00200038014080B500AF1B4B1C4A69
:1045F0001A601A4B1B4A5A60184B00229A60174BDC
:104600000122DA60154B00221A61144B00225A6114
:10461000124B00229A61114B0022DA610F4B0022EB
:104620001A620E4802F02CFA0346002B01D001F06A
:1046300037F80021094802F0F1FF0346002B01D0B2
:1046400001F02EF80021054803F033F80346002B53
:1046500001D001F025F800BF80BD00BF7C5C0020C8
:1046600000540040380F300080B400AF00BFBD469A
:104670005DF8047B7047000080B586B000AF2B4B1F
:104680002B4A1A60294B00225A60284B7F229A60DD
:10469000264BFF22DA60254B00221A61234B0022B1
:1046A0009A61224B0022DA61204B00225A611F4896
:1046B00004F06FFE0346002B01D000F0F1FF3B1D1C
:1046C00000221A605A609A60DA601A6100233B6027
:1046D00000233B7100237B710023BB710023BB606F
:1046E00000233B6100237B613B1D012219460F48DB
:1046F00004F0EDFE0346002B01D000F0D1FF0123B2
:104700003B7001237B700123BB700023FB703B4691
:1047100001221946054804F0FAFF0346002B01D098
:1047200000F0BEFF00BF1837BD4680BD505E0020C0
:104730000028004080B500AF1B4B1C4A1A601A4B82
:104740004FF482725A60184B4FF400429A60164B35
:104750004FF4E062DA60144B00221A61124B00221F
:104760005A61114B4FF400729A610F4B0022DA61CB
:104770000D4B00221A620C4B00225A620A4B002297
:104780009A62094B0722DA62074B00221A63064B32
:1047900008225A63044805F077F90346002B01D03C
:1047A00000F07EFF00BF80BD3C5F00200030014074
:1047B00080B59CB000AF07F1600300221A605A6018
:1047C0009A60DA6007F1540300221A605A609A6016
:1047D00007F1380300221A605A609A60DA601A61A1
:1047E0005A619A613B1D3422002118460EF019FCD3
:1047F000454B464A1A60444B00225A60424B002205
:104800009A60414B6422DA603F4B00221A613E4BB2
:1048100000225A613C4B00229A613B4805F0A2FC01
:104820000346002B01D000F03BFF4FF480533B6662
:1048300007F160031946344806F02EF90346002BB1
:1048400001D000F02DFF304805F032FD0346002B6B
:1048500001D000F025FF00237B650023BB6500230A
:10486000FB6507F154031946274806F09BFD0346F4
:10487000002B01D000F014FF6023BB636423FB63B3
:1048800000233B6400237B640423BB640023FB649C
:1048900000233B6507F13803002219461A4805F04A
:1048A000EBFF0346002B01D000F0FAFE00237B60F3
:1048B0000023BB600023FB6000233B6100237B617E
:1048C0004FF40053BB610023FB6100233B620023D4
:1048D0007B624FF00073BB620023FB6200233B63EB
:1048E00000237B633B1D1946074806F0BBFD0346CA
:1048F000002B01D000F0D4FE034801F031F900BFD5
:104900007037BD4680BD00BF885E0020002C01408E
:1049100080B586B000AF3B1D00221A605A609A60D5
:10492000DA601A610420FFF711FC0220FFF70EFC89
:104930000120FFF70BFC00220121214802F04CF876
:1049400001237B600123BB600023FB6000233B61EC
:104950003B1D19461A4801F0B7FE38237B60194BFE
:10496000BB600123FB603B1D1946154801F0ACFEFE
:1049700010237B600123BB600123FB603B1D1946B4
:104980004FF0904001F0A0FE00220F21092001F01D
:1049900043FC092001F05AFC00220F210A2001F0FB
:1049A0003BFC0A2001F052FC00220F21172001F0ED
:1049B00033FC172001F04AFC00BF1837BD4680BD0C
:1049C000000400480000311080B586B002AF0346F5
:1049D000FB800023FB600C4B1868F98807F10C037F
:1049E0000093002303220DF02DFEFB68002B07D05F
:1049F000064B4FF080521A60BFF34F8FBFF36F8F9B
:104A000000BF1037BD4680BD705C002004ED00E0A3
:104A100080B58CB000AF78601D4B1B684FF0FF3144
:104A200018460AF09FFB07F118030122194619489E
:104A300004F011FE07F1140301221946154804F091
:104A400014FF134B1B6818460AF0EAFB3B7E18461E
:104A500004F0C8FF034687F82F307B7E184604F029
:104A6000C1FF034687F82E3097F82F2097F82E3095
:104A700007F10C0008490FF06DF807F10C0305224F
:104A8000194678680FF086F800BF3037BD4680BD04
:104A9000445C0020505E00206063010880B5ADF5E5
:104AA000047D02AF3B1D186001220121704801F016
:104AB00093FFFDF70DFE07F19C031846FDF770FE0E
:104AC00007F19C030193012300930C23694A0E21F3
:104AD0000620FDF7D5FF07F19C031846FEF75BF8AB
:104AE00040F6B8300AF076FA07F19C031846FDF755
:104AF00057FE07F19C031846FEF74DF807F19B039C
:104B000001221A7007F19B024FF0FF3300210020B1
:104B10000DF088FC07F19B031B78013B032B00F28F
:104B20009A8001A252F823F0394B00086D4C00081E
:104B3000FD4B00084F4B000807F10C031846FFF728
:104B400067FF07F10C031846FEF75DF88FE007F1E9
:104B50009C031846FDF724FE474B1B684FF0FF31BE
:104B600018460AF0FFFA454B93F8803087F8073271
:104B7000414B1B6818460AF053FB97F80732012B8C
:104B80000BD107F19C0301932823009348233C4A4F
:104B900000210020FDF7B5FF1AE097F80732022B3D
:104BA0000BD107F19C030193282300934823354A36
:104BB00000210020FDF7A5FF0AE007F19C03019307
:104BC000012300931823304A0E210020FDF758FFDF
:104BD00007F19C031846FDF7DEFF4FF47A700AF0E8
:104BE000F9F90021A720FDF755FD4FF47A700AF07E
:104BF000F1F90021A620FDF74DFD38E01E4B1B68A2
:104C00004FF0FF3118460AF0ADFA07F11803802281
:104C10001A4918460EF0BEFF174B1B6818460AF0DB
:104C2000FFFA07F19C031846FDF7BAFD07F11802D9
:104C300007F19C030193012300930C230E21002014
:104C4000FDF71EFF07F19C031846FDF7A4FF0520A2
:104C50000AF0C0F90BE007F19C031846FDF7A0FD30
:104C600007F19C031846FDF796FF00E000BF49E7F7
:104C7000000400487C630108CC5C0020A05F002099
:104C800030730108987401088463010880B58AB004
:104C900000AF7860012210214FF0904001F09CFE9F
:104CA000984B1B684FF0FF3118460AF05BFA964BA1
:104CB00005221A70944B01225A70934B41F28832AC
:104CC0005A60904B1B6818460AF0AAFA8F4BFB609B
:104CD0000C233B820623BB7407F10C031846FDF737
:104CE0004BFBFDF735FCFDF797FB1423FB753323D6
:104CF000BB75FB7D1846FDF7BBFC4FF47A700AF0DC
:104D000069F9012387F827300023BB84002387F843
:104D10002330002387F822300023FB61794B1B6886
:104D20004FF0FF3118460AF01DFA774B1B787B7560
:104D3000754B5B68002B06D0754B18680023022268
:104D400000210DF0C9FB6F4B1B6818460AF068FA8A
:104D500097F827207B7D9A4207D00023BB8400234D
:104D600087F82330002387F822307B7D023B032B1A
:104D700000F2B38001A252F823F000BFF54E000804
:104D8000F54E00088D4D0008334E000897F8272097
:104D90007B7D9A4205D00C2200216FF07F40FDF709
:104DA00031FC97F823301846FDF762FCFDF734FB21
:104DB00097F82230002B05D097F82330013B87F875
:104DC000233004E097F82330013387F8233097F835
:104DD0002320BB7D9A4202D1012387F8223097F825
:104DE0002330002B02D1002387F8223002200AF062
:104DF000F1F8BB8C0133BB84BA8CBB7D9B009A421B
:104E00007AD1FDF7A5FBFDF707FBFB7D1846FDF703
:104E10002FFC3C4B1B684FF0FF3118460AF0A2F9FB
:104E2000394B01221A70374B1B6818460AF0F8F903
:104E300062E00023BB6138E0BB8C991C354B83FBDF
:104E400001235A10CB17D21A13465B0013449B0060
:104E5000CA1ABB69934203D16FF07F43FB611BE029
:104E6000BB8C591C2B4B83FB01235A10CB17D21A36
:104E700013465B0013449B00CA1ABB69934202D1DC
:104E8000254BFB6108E0BB8CBA699A4202D1234BE7
:104E9000FB6101E00023FB61BB699BB2F969184625
:104EA000FDF77AFBBB690133BB61BB690B2BC3DD2B
:104EB000FDF7B2FABB8C5A1C164B83FB0213591038
:104EC000D317C91A0B465B000B449B00D11A0B4643
:104ED000BB8432200AF07EF80FE097F827207B7D14
:104EE0009A4203D0FDF734FBFDF796FAFA200AF058
:104EF00071F802E000BF00E000BF7B7D87F827303B
:104F00000CE700BF845E0020485E00203C5F00206C
:104F1000785C0020ABAAAA2AD0D0D000A0A0A00024
:104F200080B586B000AF7860444A07F11403126878
:104F3000114619800233120C1A7000233B6107F1ED
:104F400010024FF0FF33002100200DF06BFA3B6997
:104F50009BB219463A4801F027FD0346FB75322003
:104F60000AF038F83B699BB21946354801F01CFD40
:104F700003461A46FB7D9342E1D13B69082B1BD1C6
:104F80003B7DFA7D9A4217D0FB7D3B75FB7D002B64
:104F900002D164200AF01EF8FB7D002B02D14FF4F1
:104FA000807300E00023FB81264B186807F10E0197
:104FB000002300220AF066FB3B69102B1CD17B7D8D
:104FC000FA7D9A4218D0FB7D7B75FB7D002B02D1C8
:104FD000642009F0FFFFFB7D002B02D14FF48853C2
:104FE00001E04FF48053BB81164B186807F10C01A8
:104FF000002300220AF046FB3B69202B9FD1BB7D9A
:10500000FA7D9A429BD0FB7DBB75FB7D002B02D1C4
:10501000642009F0DFFFFB7D002B02D14FF4045325
:1050200001E04FF400537B81064B186807F10A0139
:10503000002300220AF026FB81E700BF9C630108E1
:1050400000040048345F002080B584B000AF786071
:105050004F23FB600A4B1B68FA689A6300210848DB
:1050600005F088F94FF4FA6009F0B4FF0021044814
:1050700005F05AFA4FF4FA6009F0ACFFEEE700BF12
:10508000885E002080B588B000AF786007F1080323
:1050900000221A605A609A60DA601A6115233B7226
:1050A00041237B725723BB720023FB6000237B618B
:1050B0000023BB616D4B1B684FF0FF3118460AF0AF
:1050C00051F807F1080301221946694804F0FFF975
:1050D0000346002B01D000F0E3FA644B1B6818462E
:1050E0000AF09EF84FF47A7009F074FF614B1B6868
:1050F0004FF0FF3118460AF035F85F4B05221A7061
:105100005C4B1B6818460AF08BF84FF47A7009F074
:1051100061FF0123FB77594B1868F97F00230322B5
:105120000DF0DAF94FF47A7009F054FF514B1B6817
:105130004FF0FF3118460AF015F84F4B04221A7051
:105140004C4B1B6818460AF06BF84FF47A7009F064
:1051500041FF484B1B684FF0FF3118460AF002F838
:10516000454B05221A70434B1B6818460AF058F845
:105170004FF47A7009F02EFF0323FB77404B1B6836
:105180004FF0FF31184609F0EDFF3E4A3E4B03CB8E
:10519000106051601B881381394B1B6818460AF058
:1051A0003FF8364B1868F97F002303220DF094F97D
:1051B0004FF47A7009F00EFF0123FB772F4B18682C
:1051C000F97F002303220DF087F94FF47A7009F07C
:1051D00001FF2A4B1868F97F002303220DF07CF9A8
:1051E0004FF47A7009F0F6FE244B1868F97F00231B
:1051F00003220DF071F94FF47A7009F0EBFE1F4BAA
:105200001868F97F002303220DF066F94FF47A70D5
:1052100009F0E0FE4FF47A7009F0DCFE0423FB771E
:10522000174B1B684FF0FF31184609F09BFF154BD9
:10523000012283F88020124B1B68184609F0F0FF0A
:105240000E4B1868F97F002303220DF045F940F654
:10525000B83009F0BFFE0023FB77084B1868F97FD0
:10526000002303220DF038F93CE700BF445C002026
:10527000505E0020845E0020485E0020745E0020A6
:10528000CC5C0020A05F0020A063010880B584B042
:1052900000AF7860084B186807F10E014FF0FF333C
:1052A00000220AF063FA0346002BF3D1FB8918466B
:1052B000FCF708FBEEE700BF345F002080B58EB03E
:1052C00000AF7860374B186807F12C014FF0FF33BF
:1052D00000220AF04BFA0346002BF3D1FB6A02339B
:1052E0000822194630480DF091FEFB6A9A7A2F4B3E
:1052F0001A74FB6ADA7A2D4B5A7407F118030022EC
:105300001A605A609A60DA601A6100237B61274A4A
:1053100007F10C03083292E8030083E803003B7BAB
:1053200087F83730FB7B3B76BB7B7B767B7BBB7622
:105330000023FB6100237B621C4B5B7C002B02D0B3
:105340004FF480337B620023BB62FB7C3B75BB7CEC
:105350007B757B7CBB753B7CFB75154B1B684FF0ED
:10536000FF31184609F0FEFE07F118030122194625
:10537000104804F0ACF80346002B01D000F090F97F
:1053800007F11403012219460A4804F0C0F9034644
:10539000002B01D000F084F9054B1B68184609F07A
:1053A0003FFF8FE7385C0020B8020020B0020020E9
:1053B000445C0020505E002080B584B000AF78606F
:1053C0004FF0FF3101200CF0E5FF1C4B1B684FF044
:1053D000FF31184609F0C6FE194A07F1080392E8A2
:1053E000030083E80300164B00225A60134B1B682E
:1053F000184609F015FFFB68184609F0EBFD0F4B46
:105400001B684FF0FF31184609F0ACFE3A7A0C4B9E
:105410001B789A420BD17A7A094B5B789A4206D173
:10542000074B5A78064B1A70054B00225A70034BF3
:105430001B68184609F0F4FEC2E700BF845E002036
:10544000485E002080B586B000AF78604FF6FF73ED
:105450007B820023FB754FF6FF73BB8240F6B830AA
:1054600009F0B8FDFEF716FD0346012B1BD1374BA3
:105470001B684FF0FF31184609F074FE344A354B73
:1054800003CB1060516019889B78118193722F4B68
:105490001B68184609F0C4FE2F4B1868002303222E
:1054A00003210DF019F8FEF793FD03467B82B7F94F
:1054B0001230B3F1FF3F11D00123FB75BA8AB7F95F
:1054C00012309A4206D07B8ABB82B7F91230184656
:1054D000FDF714FC192009F07DFDE4E7FB7D002BAE
:1054E0002FD0FB7D0133FB75FB7D052B25D90023D8
:1054F000FB75164B1B684FF0FF31184609F032FE62
:10550000BA8A07F10803154918460EF023FB07F184
:1055100008030A2219460E480EF03CFB0B4B1B6891
:10552000184609F07DFE0C4B186800230322032166
:105530000CF0D2FF4FF6FF73BB82192009F04AFD31
:10554000B1E7FA2009F046FDADE700BFCC5C0020D2
:10555000A05F0020AC630108745E0020B8630108FE
:1055600080B400AF00BFBD465DF8047B704780B5D6
:1055700082B000AF002008F041FE78607B68002B0D
:1055800005D07B689B791846FEF764FD00BF00BF1D
:105590000837BD4680BD80B500AF00F027F800F0A9
:1055A00003F800BF80BD000080B500AF4FF480104D
:1055B000FEF7E5FD3F210C48FEF740FE3F210A487B
:1055C000FEF74AFE3F210848FEF7F2FD3F2106485C
:1055D000FEF711FE3F210448FEF7FCFD3F21024883
:1055E000FEF71BFE00BF80BD000C005880B500AF69
:1055F000FEF786FD0346002B0DD0FEF794FD034613
:10560000002B08D102F0A2F802F0A0F8FEF756FD38
:10561000FEF765FD00BF00BF80BD80B500AF4FF055
:10562000FF30FEF7EBFC6FF05000FEF7FDFC00BF13
:1056300080BD80B584B000AF786000F0A7FCB86092
:105640007B68FB60FB68B3F1FF3F0AD000F0B6FC5B
:1056500003461A46FB681344FB6002E0FEF70AFEAD
:1056600030BF00F093FC0246BB68D31AFA689A4236
:10567000F4D800BF1037BD4680BD000080B582B0B1
:1056800000AF78607B681B68044A934201D100F048
:1056900069FC00BF0837BD4680BD00BF004801401F
:1056A00080B400AF00BFBD465DF8047B704780B496
:1056B00083B000AF78604FF0B043D3F8903023F45C
:1056C00040724FF0B0417B681343C1F8903000BF87
:1056D0000C37BD465DF8047B704780B400AF4FF0D7
:1056E000B043D3F890304FF0B04243F40043C2F8D7
:1056F000903000BFBD465DF8047B704780B485B034
:1057000000AF78604FF0B043DA6C4FF0B0417B6887
:105710001343CB644FF0B043DA6C7B681340FB60FB
:10572000FB6800BF1437BD465DF8047B704780B44A
:1057300085B000AF78604FF0B0431A6D4FF0B041C4
:105740007B6813430B654FF0B0431A6D7B681340C1
:10575000FB60FB6800BF1437BD465DF8047B7047F3
:1057600080B485B000AF78604FF0B0439A6D4FF0D1
:10577000B0417B6813438B654FF0B0439A6D7B68F3
:105780001340FB60FB6800BF1437BD465DF8047B27
:10579000704780B485B000AF78604FF0B043DA6DE9
:1057A0004FF0B0417B681343CB654FF0B043DA6DE7
:1057B0007B681340FB60FB6800BF1437BD465DF893
:1057C000047B704780B485B000AF78604FF0B04381
:1057D0001A6E4FF0B0417B6813430B664FF0B04335
:1057E0001A6E7B681340FB60FB6800BF1437BD4630
:1057F0005DF8047B704780B500AF4FF40020FFF7E1
:1058000096FF00220F216FF0010000F005FD00223D
:1058100005212E2000F000FD2E2000F017FD0022B3
:1058200006212C2000F0F8FC002206212D2000F09B
:10583000F3FC00BF80BD000080B58CB000AF786085
:1058400007F11C0300221A605A609A60DA601A613C
:105850007B681B686C4A93426FD10120FFF799FF68
:105860000120FFF74BFF0C23FB6102233B62002367
:105870007B620323BB620823FB6207F11C0319460A
:105880004FF0904000F020FF4023FB6102233B6279
:1058900000237B620023BB620823FB6207F11C0329
:1058A00019464FF0904000F00FFF584B584A1A60CD
:1058B000564B11225A60554B10229A60534B0022CE
:1058C000DA60524B80221A61504B00225A614F4BD2
:1058D00000229A614D4B0022DA614C4B00221A6281
:1058E0004A4800F0EBFC0346002B01D0FFF7D8FE3E
:1058F0004FF08853FB6000233B6100233B7500237E
:105900007B750123BB6107F10C0319463F4800F08A
:105910009BFE0346002B01D0FFF7C2FE7B683B4A8B
:105920005A673A4A7B68936200220521252000F0DD
:1059300073FC252000F08AFC61E07B681B68354A17
:1059400093425CD14FF48040FFF73CFF0120FFF70A
:10595000D5FE0220FFF7D2FE4FF40063FB61022365
:105960003B6200237B620023BB620723FB6207F1DB
:105970001C0319464FF0904000F0A6FEC023FB61C7
:1059800002233B6201237B620323BB620723FB628A
:1059900007F11C031946204800F096FE1F4B204AD1
:1059A0001A601E4B0F225A601C4B10229A601B4B30
:1059B0000022DA60194B80221A61184B00225A61CA
:1059C000164B00229A61154B0022DA61134B00221C
:1059D0001A62124800F072FC0346002B01D0FFF758
:1059E0005FFE7B680D4A5A670C4A7B68936200220F
:1059F0000521242000F010FC242000F027FC00BF2B
:105A00003037BD4680BD00BF00800040D45E00201E
:105A10004400024000380140000400485C5D002062
:105A20004404024080B582B000AF78607B681B6898
:105A30000B4A934210D101F089FE01F087FE4FF42A
:105A40008070FFF734FEFFF748FE4FF48060FFF7E9
:105A500087FE786803F0E2FF00BF0837BD4680BDCF
:105A60000028004080B588B000AF786007F10C03D3
:105A700000221A605A609A60DA601A617B681B68BB
:105A80000F4A934217D10220FFF738FE4FF44073BC
:105A9000FB6012233B6101237B610023BB61042374
:105AA000FB6107F10C031946064800F00DFE4FF4A8
:105AB0000010FFF755FE00BF2037BD4680BD00BF78
:105AC000005400400004004880B588B000AF786002
:105AD00007F10C0300221A605A609A60DA601A61BA
