:020000040800F2
:1000000000000320611C0008095E0008175E00085C
:100010001D5E0008235E0008295E00080000000045
:10002000000000000000000000000000F1F30008E4
:100030002F5E00080000000031F6000899F6000865
:10004000B51C0008B51C0008B51C00089D5E000822
:10005000B51C0008B51C0008B51C0008B51C00083C
:10006000B51C00085D5E00086B5E0008B51C00084A
:10007000B51C0008B51C0008B51C0008B51C00081C
:10008000B51C0008B51C0008B51C0008B51C00080C
:10009000B51C0008B51C0008B51C0008795E0008F6
:1000A000B51C0008895E00083D5E0008B51C00080C
:1000B000B51C0008B51C0008B51C0008B51C0008DC
:1000C000B51C0008B51C0008B51C0008B51C0008CC
:1000D000B51C0008B51C0008B51C0008B51C0008BC
:1000E000B51C0008B51C0008B51C0008B51C0008AC
:1000F000B55E0008A95E0008515E0008B51C000846
:10010000B51C0008B51C0008B51C0008B51C00088B
:10011000B51C0008B51C0008B51C0008B51C00087B
:10012000B51C0008B51C0008B51C0008B51C00086B
:0C013000B51C0008B51C0008B51C000838
:1001400010B5054C237833B9044B13B10448AFF311
:1001500000800123237010BDB803002000000000C0
:100160007466010808B5034B1BB103490348AFF39C
:10017000008008BD00000000BC0300207466010878
:10018000034613F8012B002AFBD1181A01387047D7
:1001900001F0FF01102A2BDB10F0070F08D010F838
:1001A000013B013A8B422DD010F0070F42B3F6D13C
:1001B000F0B441EA012141EA014122F007047FF055
:1001C00000070023F0E80256083C85EA010586EAAC
:1001D000010685FA47F5A3FA87F586FA47F6A5FAE8
:1001E00087F68EB9EED1F0BC01F0FF0102F00702F4
:1001F00032B110F8013B013A83EA010313B1F8D19F
:100200000020704701387047002D06BF354603387F
:10021000073815F0010F07D1013015F4807F02BFB8
:10022000013015F4C03F0130F0BC0138704700BF09
:1002300081F0004102E000BF83F0004330B54FEA97
:1002400041044FEA430594EA050F08BF90EA020F04
:100250001FBF54EA000C55EA020C7FEA645C7FEA97
:10026000655C00F0E2804FEA5454D4EB5555B8BFBA
:100270006D420CDD2C4480EA020281EA030382EA2B
:10028000000083EA010180EA020281EA0303362DBD
:1002900088BF30BD11F0004F4FEA01314FF4801C90
:1002A0004CEA113102D0404261EB410113F0004FA2
:1002B0004FEA03334CEA133302D0524263EB430359
:1002C00094EA050F00F0A780A4F10104D5F1200EF7
:1002D0000DDB02FA0EFC22FA05F2801841F1000152
:1002E00003FA0EF2801843FA05F359410EE0A5F126
:1002F00020050EF1200E012A03FA0EFC28BF4CF057
:10030000020C43FA05F3C01851EBE37101F000450C
:1003100007D54FF0000EDCF1000C7EEB00006EEB19
:100320000101B1F5801F1BD3B1F5001F0CD34908A3
:100330005FEA30004FEA3C0C04F101044FEA4452FA
:1003400012F5800F80F09A80BCF1004F08BF5FEA81
:10035000500C50F1000041EB045141EA050130BD61
:100360005FEA4C0C404141EB010111F4801FA4F104
:100370000104E9D191F0000F04BF01460020B1FA59
:1003800081F308BF2033A3F10B03B3F120020CDA91
:100390000C3208DD02F1140CC2F10C0201FA0CF06F
:1003A00021FA02F10CE002F11402D8BFC2F1200CD4
:1003B00001FA02F120FA0CFCDCBF41EA0C0190408A
:1003C000E41AA2BF01EB0451294330BD6FEA0404D3
:1003D0001F3C1CDA0C340EDC04F11404C4F12002BE
:1003E00020FA04F001FA02F340EA030021FA04F3D0
:1003F00045EA030130BDC4F10C04C4F1200220FA27
:1004000002F001FA04F340EA0300294630BD21FA64
:1004100004F0294630BD94F0000F83F4801306BF2A
:1004200081F480110134013D4EE77FEA645C18BF1E
:100430007FEA655C29D094EA050F08BF90EA020FB5
:1004400005D054EA000C04BF1946104630BD91EAAD
:10045000030F1EBF0021002030BD5FEA545C05D1B0
:100460004000494128BF41F0004130BD14F58004EF
:100470003CBF01F5801130BD01F0004545F0FE4163
:1004800041F470014FF0000030BD7FEA645C1ABF98
:10049000194610467FEA655C1CBF0B46024650EACF
:1004A000013406BF52EA033591EA030F41F40021FB
:1004B00030BD00BF90F0000F04BF0021704730B581
:1004C0004FF4806404F132044FF000054FF0000156
:1004D00050E700BF90F0000F04BF0021704730B517
:1004E0004FF4806404F1320410F0004548BF4042EC
:1004F0004FF000013EE700BF42004FEAE2014FEA41
:1005000031014FEA02701FBF12F07F4393F07F4F1B
:1005100081F06051704732F07F4208BF704793F01E
:100520007F4F04BF41F40021704730B54FF4607431
:1005300001F0004521F000411CE700BF50EA010234
:1005400008BF704730B54FF000050AE050EA0102DD
:1005500008BF704730B511F0004502D5404261EB4D
:1005600041014FF4806404F132045FEA915C3FF48E
:10057000D8AE4FF003025FEADC0C18BF03325FEA2B
:10058000DC0C18BF033202EBDC02C2F1200300FADC
:1005900003FC20FA02F001FA03FE40EA0E0021FA01
:1005A00002F11444BDE600BF70B54FF0FF0C4CF4EF
:1005B000E06C1CEA11541DBF1CEA135594EA0C0FA1
:1005C00095EA0C0F00F0DEF82C4481EA030621EADC
:1005D0004C5123EA4C5350EA013518BF52EA033517
:1005E00041F4801143F4801338D0A0FB02CE4FF0C9
:1005F0000005E1FB02E506F00042E0FB03E54FF0F9
:100600000006E1FB03569CF0000F18BF4EF0010EF0
:10061000A4F1FF04B6F5007F64F5407404D25FEAEC
:100620004E0E6D4146EB060642EAC62141EA55519F
:100630004FEAC52040EA5E504FEACE2EB4F1FD0CE1
:1006400088BFBCF5E06F1ED8BEF1004F08BF5FEA5F
:10065000500E50F1000041EB045170BD06F0004611
:1006600046EA010140EA020081EA0301B4EB5C04BE
:10067000C2BFD4EB0C0541EA045170BD41F48011B6
:100680004FF0000E013C00F3AB8014F1360FDEBFDB
:10069000002001F0004170BDC4F10004203C35DAB7
:1006A0000C341BDC04F11404C4F1200500FA05F33A
:1006B00020FA04F001FA05F240EA020001F00042DB
:1006C00021F0004110EBD37021FA04F642EB060151
:1006D0005EEA430E08BF20EAD37070BDC4F10C047B
:1006E000C4F1200500FA04F320FA05F001FA04F23F
:1006F00040EA020001F0004110EBD37041F100012B
:100700005EEA430E08BF20EAD37070BDC4F1200535
:1007100000FA05F24EEA020E20FA04F301FA05F29D
:1007200043EA020321FA04F001F0004121FA04F245
:1007300020EA020000EBD3705EEA430E08BF20EA15
:10074000D37070BD94F0000F0FD101F0004640004F
:1007500041EB010111F4801F08BF013CF7D041EAD1
:10076000060195F0000F18BF704703F000465200D5
:1007700043EB030313F4801F08BF013DF7D043EAA6
:100780000603704794EA0C0F0CEA135518BF95EA5C
:100790000C0F0CD050EA410618BF52EA4306D1D1E3
:1007A00081EA030101F000414FF0000070BD50EA02
:1007B000410606BF1046194652EA430619D094EA8C
:1007C0000C0F02D150EA013613D195EA0C0F05D176
:1007D00052EA03361CBF104619460AD181EA0301CA
:1007E00001F0004141F0FE4141F470014FF0000082
:1007F00070BD41F0FE4141F4780170BD70B54FF01D
:10080000FF0C4CF4E06C1CEA11541DBF1CEA13559C
:1008100094EA0C0F95EA0C0F00F0A7F8A4EB05047E
:1008200081EA030E52EA03354FEA013100F0888075
:100830004FEA03334FF0805545EA131343EA12633E
:100840004FEA022245EA111545EA10654FEA0026F3
:100850000EF000419D4208BF964244F1FD0404F5AC
:10086000407402D25B084FEA3202B61A65EB030508
:100870005B084FEA32024FF480104FF4002CB6EBC5
:10088000020E75EB030E22BFB61A754640EA0C0045
:100890005B084FEA3202B6EB020E75EB030E22BF85
:1008A000B61A754640EA5C005B084FEA3202B6EBC6
:1008B000020E75EB030E22BFB61A754640EA9C0085
:1008C0005B084FEA3202B6EB020E75EB030E22BF55
:1008D000B61A754640EADC0055EA060E18D04FEA13
:1008E000051545EA16754FEA06164FEAC30343EAB3
:1008F00052734FEAC2025FEA1C1CC0D111F4801F80
:100900000BD141EA00014FF000004FF0004CB6E778
:1009100011F4801F04BF01430020B4F1FD0C88BF17
:10092000BCF5E06F3FF6AFAEB5EB030C04BFB6EB22
:10093000020C5FEA500C50F1000041EB045170BD15
:100940000EF0004E4EEA113114EB5C04C2BFD4EB42
:100950000C0541EA045170BD41F480114FF0000EC6
:10096000013C90E645EA060E8DE60CEA135594EA42
:100970000C0F08BF95EA0C0F3FF43BAF94EA0C0F45
:100980000AD150EA01347FF434AF95EA0C0F7FF4BA
:1009900025AF104619462CE795EA0C0F06D152EA0E
:1009A00003353FF4FDAE1046194622E750EA4106F2
:1009B00018BF52EA43067FF4C5AE50EA41047FF403
:1009C0000DAF52EA43057FF4EBAE12E74FF0FF3C68
:1009D00006E000BF4FF0010C02E000BF4FF0010C39
:1009E0004DF804CD4FEA410C7FEA6C5C4FEA430CB2
:1009F00018BF7FEA6C5C1BD001B050EA410C0CBF01
:100A000052EA430C91EA030F02BF90EA020F002062
:100A1000704710F1000F91EA030F58BF994208BFC9
:100A200090422CBFD8176FEAE37040F00100704786
:100A30004FEA410C7FEA6C5C02D150EA013C07D1DD
:100A40004FEA430C7FEA6C5CD6D152EA033CD3D028
:100A50005DF8040B704700BF8446104662468C4622
:100A60001946634600E000BF01B5FFF7B7FF002855
:100A700048BF10F1000F01BD4DF808EDFFF7F4FF7E
:100A80000CBF012000205DF808FB00BF4DF808ED09
:100A9000FFF7EAFF34BF012000205DF808FB00BF2C
:100AA0004DF808EDFFF7E0FF94BF012000205DF84E
:100AB00008FB00BF4DF808EDFFF7CEFF94BF012003
:100AC00000205DF808FB00BF4DF808EDFFF7C4FFFC
:100AD00034BF012000205DF808FB00BF4FEA410C45
:100AE0007FEA6C5C02D150EA013C0AD14FEA430C28
:100AF0007FEA6C5C02D152EA033C02D14FF0000065
:100B000070474FF0010070474FEA410212F50012A2
:100B100015D211D56FF47873B3EB625212D94FEA44
:100B2000C12343F0004343EA505311F0004F23FA2E
:100B300002F018BF404270474FF00000704750EA83
:100B4000013005D111F0004008BF6FF00040704740
:100B50004FF00000704700BF4FEA4102B2F1E0439E
:100B600024BFB3F5001CDCF1FE5C0DD901F0004C94
:100B70004FEAC0024CEA5070B2F1004F40EB8300E4
:100B800008BF20F00100704711F0804F21D113F110
:100B90003872BCBF01F00040704741F480114FEA49
:100BA0005252C2F11802C2F1200C10FA0CF320FAD2
:100BB00002F018BF40F001004FEAC1234FEAD323EF
:100BC00003FA0CFC40EA0C0023FA02F34FEA430359
:100BD000CCE77FEA625307D150EA01331EBF4FF0E2
:100BE000FE4040F44000704701F0004040F0FE40FD
:100BF00040F40000704700BF80B400AF034B1B6897
:100C00001846BD465DF8047B704700BF8075FF1F26
:100C100080B400AF034B1B68DBB21846BD465DF8DD
:100C2000047B70478475FF1F80B400AF034B1B68C3
:100C30001B0A1846BD465DF8047B70478475FF1F8C
:100C4000B0B58CB000AF2B4B3C461D460FCD0FC44A
:100C50000FCD0FC495E80F0007C4237000F0FEF914
:100C60000121022011F0AAFE234A002123480DF0A1
:100C70004DFD0246224B1A603B4618460CF0DAF84E
:100C80000346002B01D004F0B1FD00F00FFA0BF089
:100C90007DF81C4B002283F880201A4B4FF6FF7220
:100CA000DA82194A002119480DF030FD0246184B2E
:100CB0001A60184B00221A70174B01221A7000F0AC
:100CC000A3FC164B00221649002002F071FC0D4BCC
:100CD00000225A760B4B00221A76124B80221A8081
:100CE000114BA0221A80012000F0BCFA00BF30375F
:100CF000BD46B0BDBC660108E46F01087914000868
:100D00008877002010020020C06F010851140008ED
:100D10004C7800209977002098770020391400083B
:100D200091020020940200209602002080B58CB031
:100D300000AF7860422387F82F307B680133BB62B5
:100D4000BB6A1B783E2B28D0FF2B00F0A580052B1B
:100D500000D045E1BB6A02333B613B69B3F8013027
:100D60009AB2A24BDB8A9A4209D1A04B0022DA82C6
:100D70009E4B002283F880209D4812F05BFB0120EF
:100D800000F070FA9B4B01221A70984BDA8A994B4B
:100D90005A80984800F024FC22E1BB6A0233FB61D0
:100DA000FB691B78032B04D00C2B06D0012B42D0FF
:100DB00071E0914812F03EFB6DE0904812F03AFB72
:100DC000FB690133BB61BB691B78002B03D18C48E5
:100DD00012F030FB02E08B4812F02CFB834BDB8AD5
:100DE00007F10E0207F10F0118460BF034FF03461E
:100DF00087F82F3097F82F30002B18D1824812F047
:100E000019FBFB7B022B0AD1BB7B022B07D1FB7B9F
:100E10001946BB7B1A467D4812F098FA3BE0FB7BF3
:100E20001946BB7B1A46794812F090FA33E07848AD
:100E300012F000FB2FE0FB6901337B616B4B93F8F1
:100E40008130184602F02AFC7B69B3F801309BB26E
:100E50001946704812F07AFA644B93F88030042BEC
:100E600004D1624B062283F8802003E05F4B052209
:100E700083F880207B69B3F801309AB25B4BDA8249
:100E80005C4B00221A70594BDA8A5A4B5A805948E7
:100E900000F0A6FB00BFA3E0BB6A02337B627B6A63
:100EA0001B889BB240F2054293424AD040F2054271
:100EB000934218DC40F20242934233D040F20242A5
:100EC000934207DCB3F5806F28D040F20142934291
:100ED00069D084E040F2034293422AD040F20442B7
:100EE00093422AD07BE0B3F5816F3AD0B3F5816F9E
:100EF00008DC40F2064293422FD040F20742934270
:100F000069D06CE040F20A4293422ED040F20A428D
:100F100093422EDBB3F5006F5AD060E03E4812F0EA
:100F200089FA5CE03D4812F085FA3D4812F082FAF9
:100F300055E03C4812F07EFA51E03B4812F07AFA54
:100F40004DE03A4812F076FA284BDB8A18460BF04F
:100F5000B8FA374812F06EFA41E0364812F06AFAF1
:100F60003DE0344812F066FA39E0334812F062FA94
:100F700035E07B6A0233D3F8023019462F4812F06D
:100F8000E5F97B6A0233D3F8023019462C4812F097
:100F9000DDF9164BDB8A012118460BF0DCFA2948F3
:100FA00012F048FA1BE07B6A02333B623B6A9B7893
:100FB0001946254812F0CAF93B6A9B78002B03D1E9
:100FC000224812F037FA0AE0214812F033FA06E01C
:100FD000204B01221A70204812F02CFA00BF00BFEB
:100FE000012318463037BD4680BD00BF10020020E7
:100FF000EC6601088C77002014670108406701083F
:101000005C67010880670108A8670108BC670108E0
:10101000D8670108F06701082468010850680108D2
:101020007868010898680108C4680108F468010834
:1010300014690108306901085469010880690108D0
:1010400098690108AC690108E8690108406A01086B
:10105000546A010898770020686A010880B582B058
:1010600000AF00200DF01CFD02460B4B1A60002261
:10107000002101200DF05CFE0246084B1A60084B6F
:101080003B60084B7B603B46194607480BF000FF6E
:1010900000BF0837BD4680BD9C77002084770020C4
:1010A0002800032031150008F9140008F0B58FB0AE
:1010B00006AF4FF450733B800BF0A9FD00F078F9B8
:1010C000F861FA69062100200BF0E1FCFB695A790E
:1010D0005C4B1A72FB691A795A4B5A72FB69DA78BF
:1010E000584B9A72FB699A78564BDA72FB695A78B8
:1010F000544B1A73FB691A78524B5A73524A102197
:1011000018200BF0C4FC514A102108200BF0BFFC42
:101110004EF66E53BB60FFF76FFD03467B603B1DD1
:101120001A4606212E200BF0B2FC474A1021182047
:101130000BF0ADFC454A102108200BF0A8FC18214B
:1011400001200BF00DFD0BF05DFA0023FB76FB7E1A
:1011500043F00103FB76FB7E002B24D03C4B7B61EC
:1011600007F11202F87E07F10E03019307F1100355
:1011700000931346072200210BF098F87C8A3D8AE1
:101180007869FEF7FDFF0346DAB27B6900931346E8
:101190000022294620460BF0F3FB0346002B02D029
:1011A0002C4812F047F9788AF9893B4600930223CC
:1011B00000220BF0E5FB0346002B02D0264812F07C
:1011C00039F90222022100200BF0ADFD234B012250
:1011D0001A70224B1B7818460AF076FF1F4B01222B
:1011E0005A701E4B08221A711C4B10225A711B4B4D
:1011F0000022DA70194B1A4A9A60184B01229A7031
:10120000164B9D78154B5E78144B1B79134A527917
:101210001249C9781148806800240494039002910F
:101220000192009300230122314628460AF096FFDE
:101230000A4B9B78002B01D00BF01FF900BF24371D
:10124000BD46F0BD04000020986F0108A86F01089A
:10125000906A0108986A0108C86A01081002002013
:1012600007B2010080B58CB008AF0346FB71422382
:10127000FB72FB79012B06D13F4B1B88FB813F4B57
:101280001B88BB8105E04FF4C863FB814FF47A6390
:10129000BB813B4B93F88130184602F0FFF9384B85
:1012A00093F880301946374812F050F8FB79022B3A
:1012B00019D1334B93F88030012B04D0304B93F885
:1012C0008030022B0FD10AF0FDFD0346FB72FB7A42
:1012D000002B03D12C4812F0ADF804E0FB7A19463C
:1012E0002A4812F033F8264AFB7982F88030244BE2
:1012F0001B7EB889F9890022069200220592244AB1
:1013000004920393234B0293082301930023009339
:101310000023024600200AF0F9FD0346FB721E4935
:101320000E200BF04EF80346FB72FB7A002B11D116
:10133000FB79012B0AD1194812F07CF8104B93F875
:1013400081301749184602F033FA12E0154812F0BE
:1013500071F80EE0FB79012B05D1FB7A1946124892
:1013600011F0F4FF05E0FB7A1946104811F0EEFF8A
:1013700000BF1037BD4680BD9402002096020020B9
:1013800010020020F86A0108146B0108386B01088C
:1013900029020020B86F010804000020606B0108DA
:1013A00046E00100886B0108B46B0108E46B01089A
:1013B00080B586B000AFFFF71FFC38613B69B3F121
:1013C000FF3F23D0FFF730FCB860FFF721FC7860C7
:1013D0003B69DAB2164B1A703B691B0ADAB2144B3E
:1013E0005A703B691B0CDAB2114B9A707B68DAB207
:1013F0000F4BDA70BB68DAB20D4B1A71BB681B0A6F
:10140000DAB20B4B5A710A4B7B610BE000200CF0F7
:101410002DFCF860FB68002B02D0FB687B6101E0CB
:10142000044B7B617B6918461837BD4680BD00BF01
:10143000D4030020906F010880B500AF034B1B68F8
:10144000012118460DF008FA00BF80BD4C7800203D
:1014500080B582B000AF78604FF0FF3200210120EC
:101460000DF05CFA00F001F8F6E780B500AF02205D
:10147000FFF7F8FE00BF80BD80B582B000AF786096
:101480004FF0FF32002101200DF048FA0BF01CFD57
:10149000F6E7000080B582B000AF7860044B1B68AF
:1014A000012118460DF0D8F900BF0837BD4680BDB0
:1014B0008877002080B582B000AF7860044B1B684D
:1014C00018460DF039FD00BF0837BD4680BD00BF8E
:1014D0008477002080B582B000AF7860054B1B6830
:1014E0004FF0FF3118460DF0C1FC00BF0837BD4674
:1014F00080BD00BF8477002080B584B000AF7860E5
:101500007B68FB60FB685B68083318460AF088FC60
:101510000346FB72FB7A002B03D0FB6801221A7092
:1015200002E0FB6800221A7000BF1037BD4680BD84
:1015300080B582B000AF0346FB71FB79002B02D06F
:10154000012B08D00DE0094B1B684FF0FF31184606
:101550000DF040FB05E0054B1B6818460DF098FBAD
:1015600000BF00BF0837BD4680BD00BF9C7700208C
:1015700080B582B000AF78607B681B78012B0ED0FD
:10158000032B16D0002B00D01CE0104B01221A7048
:101590000F4811F04FFF0F4811F0D8FE12E00B4B2F
:1015A00000221A700C4811F045FF0A4811F0CEFED7
:1015B00008E00A4B18687B68191D002300220DF013
:1015C00099FD00BF00BF0837BD4680BD98020020CE
:1015D000706C0108A46C0108A86C010890770020C9
:1015E00080B582B000AF78607B681B78002B05D097
:1015F000012B00D003E000F013F800E000BF00BFB3
:101600000837BD4680BD000080B500AF034B002207
:101610001A7000F005F800BF80BD00BF98020020DE
:1016200090B400AF0E4B01225A700D4B00229A70FD
:101630000B4B0122DA700A4B00221A71084A4FF054
:1016400000034FF00004C2E90234054B00221A7473
:10165000034B00225A7400BFBD4690BC704700BFC8
:101660009802002080B58CB000AF0346FB80404B51
:101670001B78002B73D03F4811F068FE3E4811F0F4
:1016800065FE3E4B1B684FF0FF3118460DF0A2FA85
:1016900007F1180301221946394808F066FB07F1E3
:1016A000140301221946364808F069FC334B1B68C5
:1016B00018460DF0EDFA07F1080300221A605A608F
:1016C0001A813B7D1B021AB27B7D1BB213431BB2F6
:1016D0009BB23B82BB7D1B021AB2FB7D1BB2134344
:1016E0001BB29BB2FB813B7E1B021AB27B7E1BB2FC
:1016F00013431BB29BB2BB81BB7E1B021AB2FB7EA3
:101700001BB213431BB29BB27B81FB883B8107F169
:1017100008030A2219464FF642600CF0D1F9FB8803
:1017200003F47F43B3F5C64F1DD1802215494FF610
:1017300042600CF0C5F90023FB620CE0FB6ADB00A1
:10174000104A1344102219464FF642600CF0B8F9C3
:10175000FB6A0133FB62FB6A072BEFDD03E00A48FB
:1017600011F0F4FD00BF00BF3037BD4680BD00BFA3
:1017700098020020606D0108A46C0108C477002065
:10178000A0770020C8770020146D010880B400AF56
:10179000054BDB68044A43F40043D36000BFBD46F9
:1017A0005DF8047B704700BF0004005880B483B02C
:1017B00000AF7860064BD3F8D42005497B6813430B
:1017C000C1F8D43000BF0C37BD465DF8047B7047CC
:1017D0000008005880B483B000AF7860054B1A6AE7
:1017E00004497B6813430B6200BF0C37BD465DF8AC
:1017F000047B70470008005880B485B000AF786063
:101800004FF0B0431A6D4FF0B0417B6813430B6546
:101810004FF0B0431A6D7B681340FB60FB6800BF5C
:101820001437BD465DF8047B704780B485B000AFC7
:1018300078604FF0B043D3F850214FF0B0417B684F
:101840001343C1F850314FF0B043D3F850217B68B7
:101850001340FB60FB6800BF1437BD465DF8047B96
:10186000704780B483B000AF78607B681B6843F436
:1018700080327B681A6000BF0C37BD465DF8047B80
:10188000704780B483B000AF78607B681B6843F01A
:1018900001027B681A6000BF0C37BD465DF8047B0F
:1018A000704780B483B000AF786039607B685A6855
:1018B0003B681B04DB431A407B685A6000BF0C374F
:1018C000BD465DF8047B704780B483B000AF78609C
:1018D00039607B685A683B681B041A437B685A600E
:1018E00000BF0C37BD465DF8047B704780B483B001
:1018F00000AF786039607B685A683B68DB431A4008
:101900007B685A6000BF0C37BD465DF8047B7047AA
:1019100080B483B000AF786039607B683A689A60C1
:1019200000BF0C37BD465DF8047B704780B483B0C0
:1019300000AF786039603B681A047B689A6000BF2A
:101940000C37BD465DF8047B704780B483B000AFB0
:10195000786039607B68DA683B6813403A689A427D
:1019600001D1012300E0002318460C37BD465DF885
:10197000047B704780B483B000AF786039607B68C7
:10198000DA693B6813403A689A4201D1012300E0CA
:10199000002318460C37BD465DF8047B70470000F5
:1019A00080B500AF02211948FFF7E4FF0346002B82
:1019B00009D0164B5B68DB4303F00203002B02D017
:1019C00000F0EAF81FE001211048FFF7D3FF0346BB
:1019D000002B08D00D4B5B6803F00103002B02D1F4
:1019E00000F09EF80FE008210848FFF7C3FF034608
:1019F000002B09D0054B5B68DB4303F00803002B89
:101A000002D000F015F900BF00BF80BD000C0058E7
:101A100080B500AF02212248FFF797FF0346002B55
:101A200009D11F4B5B68DB4303F40033002B02D06A
:101A300000F0A6F831E002211948FFF786FF0346BF
:101A4000002B09D1164B5B68DB4303F40033002BFA
:101A500002D000F095F820E008211148FFF775FF4B
:101A60000346002B09D10E4B5B68DB4303F40023D4
:101A7000002B02D000F0BEF80FE020210848FFF74D
:101A800064FF0346002B09D1054B5B68DB4303F47D
:101A90000013002B02D000F04FF800BF00BF80BD44
:101AA000000C005880B500AF4FF48010FFF7BDFE6A
:101AB0004FF40070FFF77AFE4FF40070FFF78AFED4
:101AC00040BF20BFFFF762FE00BF80BD80B500AF02
:101AD0004FF48010FFF790FE0648FFF7D2FE05484E
:101AE000FFF7BFFE2C2004F0F5FF2D2004F0F2FFDD
:101AF00000BF80BD000C005880B500AF0121024836
:101B0000FFF7F4FE00BF80BD000C005880B500AFA9
:101B100001210248FFF70AFF00BF80BD000C0058FA
:101B200080B500AF0BF00EFD01210248FFF7F0FE7B
:101B300000BF80BD000C005880B500AF20210348D5
:101B4000FFF7C2FE0BF02EFD00BF80BD000C005859
:101B500080B500AF02210248FFF7C8FE00BF80BD7C
:101B6000000C005880B500AF02210448FFF7DEFEEC
:101B700002210248FFF795FE00BF80BD000C00580F
:101B800080B500AF02210348FFF79EFE0BF05AFD1F
:101B900000BF80BD000C005880B500AF0BF068FDA1
:101BA00002210248FFF7B4FE00BF80BD000C0058C0
:101BB00080B582B000AF786008210C48FFF7C5FE01
:101BC0000346002B07D00A4A7B68136008210748A8
:101BD000FFF767FE06E07B68984708210348FFF798
:101BE000A5FE00BF0837BD4680BD00BF000C0058F1
:101BF000DC03002080B500AF08210648FFF764FE33
:101C0000054B1B68984708210248FFF78FFE00BF6D
:101C100080BD00BF000C0058DC03002080B500AF81
:101C200008210248FFF762FE00BF80BD000C00588B
:101C300080B500AF0BF0C4FD08210248FFF768FE35
:101C400000BF80BD000C0058D458C4500433C418E1
:101C50008C42F9D37047036004308842FBD370474D
:101C60000C48854604F02CFD0B480C490C4A002317
:101C7000FFF7EDFF0B480C490023FFF7EEFF0B4881
:101C80000B490023FFF7E9FF10F0CCFE02F0C4F986
:101C9000FEE700000000032004000020F8010020FF
:101CA000F0860108B8030020887A0020E0010320B4
:101CB000570A0320FEE7000080B483B000AF7860CD
:101CC000064BD3F8902005497B681343C1F8903048
:101CD00000BF0C37BD465DF8047B70470008005814
:101CE00080B485B000AF78604FF0B043DA6C4FF04D
:101CF000B0417B681343CB644FF0B043DA6C7B6830
:101D00001340FB60FB6800BF1437BD465DF8047BE1
:101D1000704780B485B000AF78604FF0B043D3F81F
:101D20004C214FF0B0417B681343C1F84C314FF068
:101D3000B043D3F84C217B681340FB60FB6800BFC5
:101D40001437BD465DF8047B704780B500AF04F0E2
:101D500085FD04F089FD4FF48030FFF7ADFF0BF0F7
:101D60000BFF00F021F800F0BFF800BF80BD0000BD
:101D7000B0B588B000AF0B4B3C1D1D460FCD0FC456
:101D800095E8070003C422800234130C23700BF083
:101D900005FD3B1D18460BF064F800BF2037BD461B
:101DA000B0BD00BF986D010880B588B000AF3B1D85
:101DB00000221A605A609A60DA601A610023BB83BD
:101DC00000237B8300233B830023FB7733E0FB7FEF
:101DD000424ADB0013449B79002B28D0FB7F3F4A0B
:101DE00052F833303E4A93420FD03E4A934215D0C8
:101DF000B3F1904F00D01BE0FB7F384ADB00134467
:101E00009A88BB8B1343BB8312E0FB7F334ADB0012
:101E100013449A887B8B13437B8309E0FB7F2F4A13
:101E2000DB0013449A883B8B13433B8300E000BFE5
:101E3000FB7F0133FB77FB7F212BC8D90023FB609D
:101E40000123BB6003233B61BB8B002B14D0BB8BF6
:101E50007B600120FFF744FF0120FFF75AFF3B1D85
:101E600019464FF0904004F06DFEBB8B00221946DE
:101E70004FF0904004F0EEFF7B8B002B12D07B8B59
:101E80007B600220FFF72CFF0220FFF742FF3B1D83
:101E90001946134804F056FE7B8B00221946104861
:101EA00004F0D8FF3B8B002B13D03B8B7B600420CE
:101EB000FFF716FF0420FFF72CFF3B1D19460948CA
:101EC00004F040FE3B8B00221946064804F0C2FF96
:101ED00000BF00BF2037BD4680BD00BF08700108AD
:101EE000000400480008004880B400AF00BFBD46B1
:101EF0005DF8047B704780B400AF00BFBD465DF85D
:101F0000047B704780B584B000AFF8600B467A6000
:101F10007B817A897B68F968002001F0DDFC00BFD5
:101F20001037BD4680BD000080B483B000AF78603C
:101F3000074BD3F8803023F0070205497B68134331
:101F4000C1F8803000BF0C37BD465DF8047B704798
:101F50000004005880B483B000AF78604FF0B04305
:101F60009B6823F400424FF0B0417B6813438B60C1
:101F700000BF0C37BD465DF8047B704780B500AFED
:101F800000F014F80849002001F02CFAFFF7DDFEFC
:101F90000121012010F012FD00F0A1F800F0A6F8D8
:101FA00000F012F800BF80BDA077002080B500AF20
:101FB0004FF40040FFF7CEFF10F0EEFC0420FFF7D7
:101FC000B3FF00BF80BD000080B588B000AF0BF04C
:101FD0002FFA00200CF064FD0246174B1A60002215
:101FE000002101200CF0A4FE0246144B1A60144A92
:101FF000002114480CF08AFB0246134B1A60134B65
:102000003B60134B7B603B46194612480BF0D6F8F9
:10201000114BBB60114BFB60114B3B6140F23C53D9
:102020007B6107F1080318460BF044FB0BF0FAF94B
:1020300000BF2037BD4680BD507800205878002072
:1020400018710108C52000085478002024070320D7
:1020500065200008A52000083C0903203008032063
:10206000E801032080B582B000AF0346FB71FB7925
:10207000002B02D0012B08D00DE0094B1B684FF05C
:10208000FF3118460CF0A6FD05E0054B1B6818460D
:102090000CF0FEFD00BF00BF0837BD4680BD00BF8D
:1020A0005078002080B582B000AF7860FFF760FE06
:1020B000FEF7C6FD0021012010F080FC00BF0837AC
:1020C000BD4680BD80B582B000AF78604FF0FF3272
:1020D000002101200CF022FC0BF08CF8F6E780B414
:1020E00000AF00BFBD465DF8047B704780B400AF11
:1020F00000BFBD465DF8047B7047000080B582B02C
:1021000000AF7860044B1B68012118460CF0A4FB5B
:1021100000BF0837BD4680BD5478002080B582B02E
:1021200000AF7860044B1B6818460CF005FF00BF39
:102130000837BD4680BD00BF5878002080B582B00A
:1021400000AF7860054B1B684FF0FF3118460CF06C
:102150008DFE00BF0837BD4680BD00BF5878002007
:1021600080B584B000AF78607B681B68234A136039
:102170007B689A88214B9A80204B00229A717B6859
:102180009B7903F00303DAB21C4B1A737B689B79CB
:102190009B08DBB203F00303DAB2184B5A737B6877
:1021A0009B791B09DBB203F00303DAB2134B9A737A
:1021B000124B1A7B114B5B7B9A420CD10F4B9A88C6
:1021C0000E4B9B880333002B00DA03339B109BB22A
:1021D00013449BB205E0094B9B881A4652001344F6
:1021E0009BB2FB81FB8918460DF0E2FA03461A46C2
:1021F000024B9A6000BF1037BD4680BD5C7800205E
:1022000080B584B000AF4B4B9B68002B00F08E80F4
:10221000484B9B68FB60474B9B883B81454B9B79B8
:10222000FB8000237B710023FB720AE0414B18689E
:10223000791D4FF0FF33012208F053F8FB7A013388
:10224000FB72FB7A032BF1D93A4B9B79002B2CD0F4
:10225000FF237B71374B1868791D4FF0FF33012244
:1022600008F03FF80023FB7215E0FB685A1CFA6087
:102270001B781A46FB8803FB02F31B12DBB27B714F
:102280002C4B1868791D4FF0FF33012208F029F814
:10229000FB7A0133FB72FB7A022BE6D93B89013BC7
:1022A0003B813B89002BD3D125E0FF237B71214B60
:1022B0001868791D4FF0FF33012208F012F800234F
:1022C000FB720FE0FB685A1CFA601B787B71194B9C
:1022D0001868791D4FF0FF33012208F002F8FB7AED
:1022E0000133FB72FB7A022BECD93B89013B3B812A
:1022F0003B89002BD9D1FF237B710023FB720AE0BD
:102300000C4B1868791D4FF0FF33012207F0E9FFED
:10231000FB7A0133FB72FA7A064B9B880F33002B52
:1023200000DA0F331B119A42EADB00E000BF1037DE
:10233000BD4680BD5C78002080B500AF0F4B98682B
:102340000E4B1A7B0D4B5B7B9A420BD10B4B9B8840
:102350001A460A4B9B880333002B00DA03339B1089
:10236000134405E0054B9B881A4613465B00134453
:102370001A46002110F085FB00BF80BD5C7800206C
:1023800080B485B000AF03463960FB80164B9B8854
:10239000FA889A4221D2144B9968FA8813465B0056
:1023A00013440B44FB603B681A0C0F4B1B7B194614
:1023B000FB680B44D2B21A703B681A0A0A4B5B7B6B
:1023C0001946FB680B44D2B21A70074B9B7B1A4626
:1023D000FB6813443A68D2B21A7000BF1437BD4686
:1023E0005DF8047B704700BF5C78002080B584B046
:1023F00000AF78600B467B8013463B80154B9B8873
:102400007A889A4222D23B88002B03D1114B9B88B9
:10241000BB810BE07A883B881344BB810D4B9B88C2
:10242000BA899A4202D90B4B9B88BB817B88FB817E
:1024300007E0FB8979681846FFF7A2FFFB890133A3
:10244000FB81FA89BB899A42F3D300E000BF1037C1
:10245000BD4680BD5C78002080B483B000AF0346E9
:10246000FB71FB790133DAB2034B9A7100BF0C3771
:10247000BD465DF8047B70475C78002080B586B06F
:1024800002AF03460A46FB711346BB717823FB81FA
:10249000BB793B73FB797B7307F10C02F9894FF031
:1024A000FF3300930223034804F0B8FD00BF103748
:1024B000BD4680BD7878002080B500AF0021AE20F9
:1024C000FFF7DCFF0021D520FFF7D8FF0021802097
:1024D000FFF7D4FF0021A820FFF7D0FF002127201D
:1024E000FFF7CCFF0021D320FFF7C8FF0021002019
:1024F000FFF7C4FF0021AD20FFF7C0FF002130200F
:10250000FFF7BCFF00218D20FFF7B8FF002114204A
:10251000FFF7B4FF00214020FFF7B0FF0021A62005
:10252000FFF7ACFF0021A420FFF7A8FF0021A120A6
:10253000FFF7A4FF0021C820FFF7A0FF0021DA2049
:10254000FFF79CFF00211220FFF798FF0021812058
:10255000FFF794FF0021AF20FFF790FF0021D92063
:10256000FFF78CFF00212220FFF788FF0021DB20EE
:10257000FFF784FF00212020FFF780FF0021AF201C
:10258000FFF77CFF00BF80BD80B485B000AF7860EE
:102590000023FB6007E0FB687A68134400221A708E
:1025A000FB680133FB60FB68B3F5B47FF3DB00BF6E
:1025B0001437BD465DF8047B704780B485B000AF2A
:1025C000F860B9603B601346FB71FB68482B61DC27
:1025D000BB68282B5EDCFB79002B2CD0BB68002B62
:1025E00000DA0733DB101A461346DB001344DB0026
:1025F0001946FB680B4419463B680B441B7859B2DB
:10260000BB68584203F0070300F0070058BF43427D
:10261000012000FA03F35BB20B4359B21346DB000F
:102620001344DB001A46FB6813441A463B68134404
:10263000CAB21A702FE0BB68002B00DA0733DB1038
:102640001A461346DB001344DB001946FB680B44B3
:1026500019463B680B441B7859B2BB68584203F0DB
:10266000070300F0070058BF4342012000FA03F3BC
:102670005BB2DB435BB20B4059B21346DB00134441
:10268000DB001A46FB6813441A463B681344CAB27F
:102690001A7000E000BF1437BD465DF8047B704738
:1026A00090B587B000AF0446084611461A46234647
:1026B000FB710346BB710B467B7113463B71BB79C3
:1026C0003B7480237B8208237B747B79203BFB73E4
:1026D0003B79202B04D14FF400437B8210237B7481
:1026E0000023FB75B1E03B790C2B1DD197F8283006
:1026F000002B0BD0FA7BF97D584813465B0013443E
:102700009B0003440B441B78BB826CE0FA7BF97D91
:10271000524813465B0013449B0003440B441B7850
:102720009BB2DB43BB825EE03B79102B17D197F85D
:102730002830002B08D0FA7BFB7D494912010A445E
:1027400013441B78BB824EE0FA7BFB7D44491201A7
:102750000A4413441B789BB2DB43BB8243E097F8E7
:102760002830002B1CD0FB7BA3F11002FB7D5B000B
:102770003C4992010A4413441B789BB21B02BB8262
:10278000FB7BA3F11002FB7D5B0001333549920115
:102790000A4413441B789AB2BB8A1343BB8222E0DB
:1027A000FB7BA3F11002FB7D5B002E4992010A44E2
:1027B00013441B789BB2DB439BB21B02BB82FB7BA7
:1027C000A3F11002FB7D5B000133264992010A440C
:1027D00013441B789BB2DB439BB21AB2B7F9143097
:1027E00013431BB2BB820023BB7527E0BA8A7B8AE6
:1027F00013409BB2002B06D0F879B979FB6A01220D
:10280000FFF7DBFE05E0F879B979FB6A0022FFF7F4
:10281000D4FEBB8A5B00BB82BB790133BB71BA7942
:102820003B7CD21A3B799A4205D13B7CBB71FB7948
:102830000133FB7106E0BB7D0133BB75BA7D7B7C48
:102840009A42D3D3FB7D0133FB75FA7D3B799A42E3
:10285000FFF449AF00BF1C37BD4690BD3C71010875
:10286000B0750108A07B010890B585B002AF3A6051
:102870001A460346FB710B46BB7113467B712CE075
:10288000FA797B795B08DBB2C3F148039A420FDD2A
:102890000023FB71BA797B791344BB71BA797B79D8
:1028A000C3F128039A4203DD0023FB71FB79BB715E
:1028B0003B681A787C79B979F879FB6901933B7E9A
:1028C00000932346FFF7ECFE7B795B08DAB2FB79D5
:1028D0001344FB713B6801333B603B681B78002B62
:1028E000CED100BF0C37BD4690BD80B584B000AFDF
:1028F0003A601A460346FB710B46BB7113467B7167
:102900007B790733002B00DA0733DB107B7300235E
:10291000BB732CE00023FB7322E0BB7B7A7B02FBC2
:1029200003F3FA7BD208D2B213441A463B6813442D
:102930001B781946FB7B03F00703802242FA03F35E
:102940000B40002B09D0FA79FB7BD018BA79BB7BFE
:10295000D118FB690122FFF730FEFB7B0133FB73CB
:10296000FA7B7B799A42D8D3BB7B0133BB73BA7BAA
:102970003B7E9A42CED300BF1037BD4680BD80B5A6
:1029800084B000AF78600023FB7329E0FB7B503BF1
:10299000DBB200211846FFF771FD00210C20FFF784
:1029A0006DFD00211120FFF769FD0023BB7311E0CD
:1029B000B97BFA7B1346DB001344DB000B441A4659
:1029C0007B6813441B7840211846FFF757FDBB7BFB
:1029D0000133BB73BB7B472BEAD9FB7B0133FB7312
:1029E000FB7B042BD2D900BF1037BD4680BD80B51C
:1029F000DEB002AF3B1D186007F108031846FFF771
:102A0000C3FD3B1D1B683A1D591C11601A7807F164
:102A10000803019301230093202304210020FFF7E2
:102A20003FFE3B1D1B683A1D591C11601A7807F1C7
:102A30000803019301230093202304211020FFF7B2
:102A40002FFE3B1D1B683A1D591C11601A7807F1B7
:102A50000803019301230093202304212820FFF77A
:102A60001FFE3B1D1B681A7807F108030193012321
:102A70000093202304213820FFF712FE07F10803FA
:102A800001220C212420FFF798FD07F10803012201
:102A90000D212420FFF791FD07F1080301220E21EB
:102AA0002420FFF78AFD07F1080301221C212420BE
:102AB000FFF783FD07F1080301221B212420FFF704
:102AC0007CFD07F1080301221A212420FFF775FD80
:102AD00007F108031846FFF752FF00BF07F5B87764
:102AE000BD4680BD80B5E0B002AF3B1D186007F168
:102AF0000C0318464FF4B4731A4600210FF0C1FFBF
:102B00003B1D1A681E4B83FB02139910D317C91A79
:102B10000B469B000B445B00D11ACBB2303387F8D5
:102B200077313B1D1B68164A82FB03129210DB179C
:102B3000D31ADBB2303387F8763197F8762107F174
:102B40000C030193012300930C230E211B20FFF79C
:102B5000A7FD97F8772107F10C0301930123009358
:102B60000C230E212420FFF79BFD07F10C031846D0
:102B7000FFF705FF00BF07F5BC77BD4680BD00BF6E
:102B80006766666680B483B000AF786000BF0C37BC
:102B9000BD465DF8047B704780B483B000AF7860B9
:102BA000064BD3F8802005497B681343C1F8803079
:102BB00000BF0C37BD465DF8047B70470008005825
:102BC00080B483B000AF7860054B1A6804497B6815
:102BD00013430B6000BF0C37BD465DF8047B7047A4
:102BE0000008005880B483B000AF0D4B9B6A9BB2C5
:102BF0007B600B4B9B6A9BB23B6005E03B687B6054
:102C0000074B9B6A9BB23B607A683B689A42F5D15E
:102C10003B6818460C37BD465DF8047B704700BF23
:102C20000028004080B485B000AF03460A46FB711F
:102C30001346BB71BA791D4913465B001344DB0090
:102C40000B4415331B78FB73FB7B062B09D0FA7BF7
:102C5000164913465B001344DB000B441433FA7926
:102C60001A70FA79114913465B001344DB000B44D8
:102C70001533FA7B1A70FA790C4913465B0013443A
:102C8000DB000B441433BA791A70BA79074913463A
:102C90005B001344DB000B441533FA791A7000BF54
:102CA0001437BD465DF8047B704700BFC8020020A2
:102CB00080B485B000AF03460A46FB711346BB7172
:102CC000294B1B78DBB2BA799A4232D0BA792749BC
:102CD00013465B001344DB000B4414331B78FB7377
:102CE000FA7B224913465B001344DB000B44153387
:102CF000FA791A70FA791D4913465B001344DB0018
:102D00000B441533BA791A70FA79184913465B00E7
:102D10001344DB000B441433FA7B1A70BA7913495D
:102D200013465B001344DB000B441433FA791A702A
:102D300014E0FA790D4913465B001344DB000B44A1
:102D40001533BA791A70BA79084913465B001344EF
:102D5000DB000B441433FA791A7000BF1437BD46F8
:102D60005DF8047B704700BF58030020C8020020B4
:102D700080B584B000AF0346FB714E4B1B78DBB2CD
:102D8000062B18D14B4B1B78DAB24B4B1A70494AC1
:102D9000FB791370FA79494913465B001344DB0051
:102DA0000B44153306221A70454B4FF0FF321A6060
:102DB0000023FB8178E000F009F90346FB81FA79F2
:102DC0003E4913465B001344DB000B44083319688B
:102DD000FB89FA791944394813465B001344DB0038
:102DE000034408331960FA79344913465B001344ED
:102DF000DB000B4408331B68BB602E4B1B78DBB237
:102E000019462E4A0B465B000B44DB001344083383
:102E10001B68BA689A4237D3264B1B787B737A7B40
:102E2000264913465B001344DB000B4415331B7823
:102E30003B7313E07A7B214913465B001344DB00AC
:102E40000B4415331B787B737A7B1C4913465B005C
:102E50001344DB000B4415331B783B733B7B062B81
:102E60000BD03A7B154913465B001344DB000B443F
:102E700008331B68BA689A42DCD27A7BFB79114628
:102E80001846FFF7CFFE0FE00A4B1B78DAB2FB794A
:102E900011461846FFF70CFF064B1B78DAB2064BBB
:102EA0001A70044AFB791370FB8918461037BD4627
:102EB00080BD00BF5803002059030020C802002035
:102EC0005C03002080B485B000AF03460A46FB7166
:102ED0001346BB71394B1B78DBB2FA799A4211D198
:102EE000364B1B78DAB2364B1A70FA7935491346ED
:102EF0005B001344DB000B4415331B78DAB22F4B15
:102F00001A703EE0FA792F4913465B001344DB0048
:102F10000B4414331B78FB73FA792A4913465B0080
:102F20001344DB000B4415331B78BB73F979FA7B30
:102F300024480B465B000B44DB00034415331B782D
:102F4000D8B2204913465B001344DB000B44153311
:102F500002461A70BB7B062B13D0F979BA7B19484D
:102F60000B465B000B44DB00034414331B78D8B2E0
:102F7000144913465B001344DB000B441433024630
:102F80001A70FA790F4913465B001344DB000B44B7
:102F90000C3301221A70094B1B78DBB2062B07D1C8
:102FA000BB79002B04D1084B4FF0FF321A6000BFF1
:102FB00000BF1437BD465DF8047B704758030020FE
:102FC00059030020C80200205C03002080B582B0B5
:102FD00000AF1A4B1B68B3F1FF3F26D0FFF702FE8C
:102FE0007860164B1B687A689A4205D8134B1A68AA
:102FF0007B68D31A7B600AE0114B1B881A467B68FA
:10300000D31A3B600D4B1B683A6813447B600D4B31
:103010001B781A467B6802FB03F37B600A4B1B7824
:103020001A467B68D3407B6001E000237B607B68AD
:103030009BB218460837BD4680BD00BF5C03002028
:10304000E6030020E5030020E403002080B582B001
:1030500000AF0346FB80FB88002B08D1FFF7C2FDC1
:103060000246244B1A60032003F050FD3EE0FB882B
:10307000012B03D8204B1B78012B02D0FB88013B8E
:10308000FB8000BF1D4B1B681B68DB6803F004035B
:10309000002BF7D0194B1B681B68DB68DAB2174BA3
:1030A0001B681B6862F49062DA60154B4FF40022D3
:1030B000DA60032003F038FD124B5B691B0C1B0424
:1030C000FA88104913434B61FFF78CFD0246094B08
:1030D0001A600A4B1B681B689A68084B1B681B68C0
:1030E00042F480629A60AFF3008000BF0837BD46AB
:1030F00080BD00BF5C030020E4030020E00300204B
:10310000000800580028004080B584B000AF474B4D
:103110009B6803F48063B3F5806F08D100BF444B14
:103120001B681B68DB6803F00403002BF7D1404BDE
:103130001B681B689A683E4B1B681B6822F4806200
:103140009A603C4B1B78FB73FA7B3B4913465B0050
:103150001344DB000B4408331B68BB60FFF736FFEA
:103160000346FB80FB88BA689A4205D20023BB81E4
:10317000324B01221A704DE0FB88314A128892B21C
:1031800013441A46BB68934206D92D4B1B88BB815A
:103190002A4B00221A703DE0BB689AB2FB88D31A12
:1031A000BB81264B01221A7034E0FA7B2249134678
:1031B0005B001344DB000B4408331A68FB889A4217
:1031C0000AD2FA7B1C4913465B001344DB000B4414
:1031D000083300221A6013E0FA7B174913465B009C
:1031E0001344DB000B4408331968FB88FA7BC91AC7
:1031F000114813465B001344DB0003440833196095
:10320000FA7B0D4913465B001344DB000B44153376
:103210001B78FB73FB7B062BC7D1BB891846FFF7D6
:1032200015FF00BF1037BD4680BD00BF002800401D
:10323000E003002058030020C802002060030020A3
:10324000E803002080B58AB000AFEFF310837B6104
:103250007B697B6272B65E4B1B681B68CA225A622E
:103260005B4B1B681B6853225A62594B1B681B68D7
:103270009A68574B1B681B6822F480629A60554B12
:103280001B7887F8233097F82320534913465B00B7
:103290001344DB000B440C331B78DBB2022B70D1E0
:1032A00097F823204C4913465B001344DB000B4482
:1032B0001B68FB6197F82320474913465B001344C2
:1032C000DB000B4410331B68BB61444B1B78DBB243
:1032D000002B4ED097F823203F4913465B00134440
:1032E000DB000B440D331B78DBB2012B25D197F8A3
:1032F000233001211846FFF7E5FD7B6A3B613B69FE
:1033000083F3108897F82320334913465B00134456
:10331000DB000B4404331A6897F823301146184633
:1033200000F046FA2A4B1B681B68CA225A62284BD7
:103330001B681B6853225A6213E07B6AFB60FB68C0
:1033400083F3108897F82330184600F0A7F9204B34
:103350001B681B68CA225A621D4B1B681B685322DC
:103360005A6297F82330FA691946B86900F0A6FA4C
:1033700024E0FFF7C9FE7B6ABB60BB6883F310885B
:103380001CE000BF124B1B681B68DB6803F00403E2
:10339000002BF7D00E4B1B681B68DB68DAB20C4BB6
:1033A0001B681B6862F49062DA600D4B4FF40022D8
:1033B000DA607B6A7B607B6883F31088044B1B6850
:1033C0001B68FF225A6200BF2837BD4680BD00BF80
:1033D000E003002058030020C80200206003002002
:1033E0000008005880B588B000AF03463960FB7113
:1033F000644A3B681360634B1B681B68CA225A62AD
:10340000604B1B681B6853225A625F4B9B685E4A85
:1034100043F0200393605C4B9B68DBB203F007032F
:10342000DBB2C3F10403DAB2584B1A70564B1B6976
:1034300003F4FE034FF4FE023A613A6992FAA2F2F3
:10344000FA60FA687A617A69002A01D1202203E0E1
:103450007A69B2FA82F2D2B2D340DBB20133DAB285
:103460004B4B1A70484B1B699BB2C3F30E039BB2C4
:1034700001339AB2474B1A80464B1B88013B444AA2
:10348000127802FB03F3A3F5A073404A1278D340ED
:10349000BB61BB694FF6FE72934204D93E4B4FF6B7
:1034A000FF721A8003E0BB699AB23B4B1A804FF45B
:1034B0000020FFF785FB4FF40020FFF76DFBFB7941
:1034C000002B43D1354B01221A70354B4FF0FF32A0
:1034D0001A600023FB770CE0FA7F324913465B0049
:1034E0001344DB000B440C3300221A70FB7F0133C2
:1034F000FB77FB7F052BEFD92B4B06221A70214B54
:103500001B681B689A681F4B1B681B6822F480624B
:103510009A601C4B1B681B68DB68DAB2194B1B688E
:103520001B6862F49062DA60204B4FF40022DA608C
:10353000032003F0F9FA134B1B681B689A68114BC0
:103540001B681B6842F480429A600AE00D4B1B68BE
:103550001B68DB6803F48063002B02D0032003F0B8
:10356000D5FA084B1B681B68FF225A62002206210D
:10357000032003F095FA032003F0ACFA00BF2037D4
:10358000BD4680BDE003002000280040E403002089
:10359000E5030020E6030020E8030020600300208C
:1035A0005C030020C80200205803002000080058D7
:1035B00080B48BB000AFF860B9603B601346FB711C
:1035C000002387F82630EFF31083FB61FB693B6231
:1035D00072B604E097F82630013387F8263097F862
:1035E0002630052B0CD897F826202B4913465B0074
:1035F0001344DB000B440C331B78DBB2002BE9D106
:1036000097F82630062B37D097F826202249134604
:103610005B001344DB000B440C3301221A703B6A3D
:10362000BB61BB6983F3108897F826201A491346BB
:103630005B001344DB000B441033FA681A6097F800
:103640002620154913465B001344DB000B440D3361
:10365000FA791A7097F826200F4913465B00134435
:10366000DB000B443A681A60BB6897F826201A7092
:10367000002387F8273007E03B6A7B617B6983F38F
:103680001088012387F8273097F8273018462C3701
:10369000BD465DF8047B7047C802002080B586B047
:1036A00000AF0346FB71EFF31083FB60FB687B61A7
:1036B00072B6032003F01CFA374B1B681B68CA2242
:1036C0005A62354B1B681B6853225A62FA79334998
:1036D00013465B001344DB000B440C331B78DBB256
:1036E000022B48D1FB7900211846FFF7EBFB2C4B4E
:1036F0001B78FB74FB7C062B35D12A4B9B6803F4AB
:103700008063B3F5806F08D100BF234B1B681B6833
:10371000DB6803F00403002BF7D11F4B1B681B6809
:103720009A681D4B1B681B6822F480629A6000BF78
:10373000194B1B681B68DB6803F00403002BF7D0F0
:10374000154B1B681B68DB68DAB2134B1B681B68E0
:1037500062F49062DA60144B4FF40022DA600320C6
:1037600003F0E2F907E0114B1B78DBB2FA7C9A42D6
:1037700001D0FFF7C9FC084B1B681B68FF225A6287
:10378000032003F0A7F97B69BB60BB6883F3108853
:1037900000BF1837BD4680BDE0030020C8020020EE
:1037A000580300200028004000080058590300205A
:1037B00080B586B000AF03463960FB71FA793B49AA
:1037C00013465B001344DB000B440C331B78DBB265
:1037D000022B03D1FB791846FFF760FFEFF310834C
:1037E000FB60FB687B6172B6032003F081F9304B0C
:1037F0001B681B68CA225A622D4B1B681B68532228
:103800005A62FA79294913465B001344DB000B44E2
:103810000C3302221A70FA79244913465B001344D0
:10382000DB000B4408333A681A60FA791F491346E3
:103830005B001344DB000B4404333A681A60FB79E5
:103840001846FFF795FA03467B821A4B1B787B7468
:10385000194B1B78DBB27A7C9A4202D0FFF754FCFA
:1038600013E0FA79114913465B001344DB000B4463
:10387000083319687B8AFA79C91A0C4813465B0029
:103880001344DB00034408331960094B1B681B68B1
:10389000FF225A62032003F01DF97B69BB60BB68FD
:1038A00083F3108800BF1837BD4680BDC8020020D2
:1038B000E0030020580300205903002080B584B0A5
:1038C00000AFF8600B467A60FB727B68984700BFD8
:1038D0001037BD4680BD000080B487B000AFB9602E
:1038E0007B600346FB731346BB810023BB7500233B
:1038F000FB7500BFBB7D032B16D801A252F823F045
:1039000011390008173900081D390008233900084B
:103910000023FB7509E00123FB7506E00223FB751C
:1039200003E00323FB7500E000BFFB7D18461C3756
:10393000BD465DF8047B704780B489B000AF786005
:103940000023FB6102E0FB690133FB61FB6901338A
:103950001F4A52F823307A689A42F4DC1C4AFB6909
:1039600052F82330BB61FB690133194A52F8233006
:103970007B61184AFB6952F823303B61FB690133D4
:10398000144A52F82330FB60FA683B69D31A79680D
:10399000BA698A1A02FB03F307EE903AF8EEE76A77
:1039A0007A69BB69D31A07EE903AB8EEE77AC6EEA9
:1039B000877AFDEEE77A17EE903ABB603A69BB680A
:1039C000134418462437BD465DF8047B704700BF9A
:1039D000847E0108607E010890B583B000AF7860F6
:1039E00039607B68002B01D178232CE03B68002BE9
:1039F00001D1002327E03B6807EE903AB8EEE77A62
:103A00007A683B68134407EE903AF8EEE77AC7EE1F
:103A1000276A16EE900AFCF76FFD4FF000020C4B80
:103A2000FCF7C2FD03460C4644EC173BB0EE470AD8
:103A3000F0EE670A11F07EFD54EC103B184621466B
:103A4000FDF762F8034618460C37BD4690BD00BF2F
:103A500000005E4080B58AB000AF786000237B62D2
:103A60007B6804331A687B680C331B689A4220DD3C
:103A70007B6808331A687B680C331B689A4218DD30
:103A80007B6804331A687B680C331B68D31A3B626B
:103A90007B6808331A687B680C331B68D31AFB6198
:103AA000F969386AFFF798FF02467B6A13447B6224
:103AB00042E07B6808331A687B6804331B689A42CB
:103AC00021DD7B680C331A687B6804331B689A42DB
:103AD00019DD7B6808331A687B6804331B68D31AC6
:103AE000BB617B680C331A687B6804331B68D31A8C
:103AF0007B617969B869FFF76FFF034678337A6AAB
:103B000013447B6218E07B680C331A687B680833C7
:103B10001B68D31A3B617B6804331A687B680833DF
:103B20001B68D31AFB60F9683869FFF755FF034635
:103B3000F0337A6A13447B627B6A0B4A82FB03127E
:103B40001A441112DA178A1A4FF4B47101FB02F207
:103B50009B1A7B62786AFFF7EFFEB860BB68184675
:103B60002837BD4680BD00BFB7600BB680B584B0B6
:103B700000AF78607868FFF76DFFF860FB68044A73
:103B800082FB0312DB17D31A18461037BD4680BDDF
:103B9000ABAAAA2A80B582B000AF78607B681B68A8
:103BA0000A2B02DC4FF0FF3303E07868FFF7DEFFFB
:103BB000034618460837BD4680BD80B586B000AFC5
:103BC000786007F10C0308221946062000F088F8F7
:103BD00000237B6119E07B695B00013307F1180268
:103BE000134413F80C3C1A027B695B0007F11801BF
:103BF0000B4413F80C3C18467B699B0079680B4416
:103C000002431A607B6901337B617B69032BE2DD30
:103C100000BF1837BD4680BD80B586B004AF012314
:103C2000FB713B4600221A601A710EE04FF0FF3321
:103C3000029301230193BB1D0093012300228821DD
:103C4000264803F0E9FC0346FB71FB79012BEDD01C
:103C5000BB793C2B01D001233CE0642001F08FFDB7
:103C60000E233B700123FB710EE04FF0FF330293F4
:103C7000012301933B46009301230D22882117481D
:103C800003F0B6FB0346FB71FB79012BEDD06420FA
:103C900001F075FD00233B7009237B700023BB708E
:103CA0000623FB7000233B710123FB710EE04FF0F4
:103CB000FF330293052301933B460093012309221E
:103CC0008821064803F094FB0346FB71FB79012B26
:103CD000EDD0002318460837BD4680BD7878002017
:103CE00080B588B004AF03463960FB711346BB71E1
:103CF0004FF496737B810023FB8101237B7314E0D7
:103D0000FB7999B2BB799BB24FF0FF3202920193DB
:103D10003B68009301230A4688210D4803F07CFC90
:103D200003467B73FB890133FB817B7B012B03D132
:103D3000FA897B899A42E3D3FA897B899A4201D333
:103D4000012300E0002318461037BD4680BD00BFA8
:103D50007878002080B584B000AF3B4600221A601E
:103D60005A609A60DA603B461846FFF726FF3B46EA
:103D70001846FFF70FFF034618461037BD4680BDB3
:103D800080B483B000AF7860074BD3F880207B68A5
:103D9000DB4305491340C1F8803000BF0C37BD46F6
:103DA0005DF8047B704700BF0008005880B483B002
:103DB00000AF7860074BD3F890207B68DB43054960
:103DC0001340C1F8903000BF0C37BD465DF8047B4E
:103DD000704700BF0008005880B483B000AF78601F
:103DE0004FF0B0430A4AC3F89C204FF0B043D3F8D9
:103DF0009C3023F47C527B681B024FF0B04113438C
:103E0000C1F89C3000BF0C37BD465DF8047B70479D
:103E1000FECAFECA80B483B000AF78604FF0B043F2
:103E2000D3F8903023F018024FF0B0417B68134371
:103E3000C1F8903000BF0C37BD465DF8047B704779
:103E400080B400AF4FF0B043D3F890304FF0B042A1
:103E500043F48033C2F8903000BFBD465DF8047B68
:103E6000704780B400AF4FF0B043D3F890304FF0BC
:103E7000B04223F48033C2F8903000BFBD465DF8F5
:103E8000047B704780B400AF4FF0B043D3F8943058
:103E900003F08063B3F1806F01D1012300E00023C0
:103EA0001846BD465DF8047B704780B400AF4FF004
:103EB000B043D3F8943003F08053B3F1805F01D165
:103EC000012300E000231846BD465DF8047B7047DF
:103ED00080B485B000AF78604FF0B043DA6C4FF03B
:103EE000B0417B681343CB644FF0B043DA6C7B681E
:103EF0001340FB60FB6800BF1437BD465DF8047BD0
:103F0000704780B485B000AF78604FF0B0431A6D51
:103F10004FF0B0417B6813430B654FF0B0431A6D0F
:103F20007B681340FB60FB6800BF1437BD465DF83B
:103F3000047B704780B483B000AF786039607B68E1
:103F40005A683B681B041A437B685A6000BF0C37F1
:103F5000BD465DF8047B704780B483B000AF7860E5
:103F600039607B685A683B681A437B685A6000BFB7
:103F70000C37BD465DF8047B704780B483B000AF5A
:103F8000786039607B685A693B681B041A437B6818
:103F90005A6100BF0C37BD465DF8047B704780B4A2
:103FA00083B000AF786039607B685A693B681A4318
:103FB0007B685A6100BF0C37BD465DF8047B7047D3
:103FC00080B483B000AF786039607B683A689A60EB
:103FD00000BF0C37BD465DF8047B704780B483B0EA
:103FE00000AF786039607B683A689A6100BF0C372F
:103FF000BD465DF8047B704780B400AF054B1B697C
:10400000044A23F00403136100BFBD465DF8047B3E
:10401000704700BF00ED00E080B500AF4A4B4FF4A1
:1040200000421A6102F0C2FB01F05BFB01F045FBAC
:1040300000F0DCF801F03AFB01F095FB00F0EAFA41
:1040400000F054F900F0F8F900F090F900F096F95A
:1040500000F030FA0AF0F0FA3C480AF021FD02467E
:104060003B4B1A603B480AF01BFD02463A4B1A6074
:104070003A480AF015FD0246394B1A60394A0221C6
:1040800010200AF0B1FF0246374B1A60374A082168
:1040900010200AF0A9FF0246354B1A60354A00216C
:1040A00035480AF033FB0246344B1A60344A00218B
:1040B00034480AF02BFB0246334B1A60334A002186
:1040C00033480AF023FB0246324B1A60324A002181
:1040D00032480AF01BFB0246314B1A60314A00217C
:1040E00031480AF013FB0246304B1A60304A002177
:1040F00030480AF00BFB02462F4B1A602F4A002172
:104100002F480AF003FB02462E4B1A602E4A00216C
:104110002E480AF0FBFA02462D4B1A602D4A002168
:104120002D480AF0F3FA02462C4B1A602C4A002163
:104130002C480AF0EBFA02462B4B1A60FDF71EFFE3
:104140000AF0AEFAFEE700BF0040005810830108F5
:10415000C477002020830108947700203083010871
:10416000E4780020E082010834790020F882010818
:104170009077002078810108AD470008D0780020B2
:104180009C810108294A000870780020C08101083C
:10419000B14C00086C780020E4810108D94D00087A
:1041A0003879002008820108514E0008E07800208C
:1041B0002C82010869500008C47800205082010850
:1041C00099500008D878002074820108F152000844
:1041D00074780020988201087D530008D47800206C
:1041E000BC820108D1540008DC78002080B5AEB054
:1041F00000AF07F170034822002118460EF041FC81
:1042000007F1540300221A605A609A60DA601A615A
:104210005A619A613B1D5022002118460EF031FC74
:1042200003F034FE0020FFF7F5FD2F4B1B6823F44D
:10423000C0632D4A43F4007313602B4B1B6803F4D7
:10424000C0633B603B6807233B674FF480337B6769
:104250000123BB674FF48073FB674023C7F88030AE
:104260000023C7F89C3007F17003184604F0AEF93C
:104270000346002B01D001F0B9FA6F237B650223BE
:10428000BB650023FB6500233B6600237B660023A0
:10429000BB660023FB6607F154030121184604F0B6
:1042A00021FD0346002B01D001F0A0FA43F60303E1
:1042B0007B600023FB6100233B624FF480737B64CF
:1042C0004FF48043BB640223FB6410233B653B1D1A
:1042D000184605F062F90346002B01D001F086FA7A
:1042E00000BFB837BD4680BD0004005880B500AFA0
:1042F0001B4B1C4A1A601A4B1B4A5A60184B00226F
:104300009A60174B0122DA60154B00221A61144B98
:1043100000225A61124B00229A61114B0022DA618D
:104320000F4B00221A620E4802F0E8FD0346002BF4
:1043300001D001F05BFA0021094803F00FFD0346AC
:10434000002B01D001F052FA0021054803F051FD85
:104350000346002B01D001F049FA00BF80BD00BF29
:104360007878002000540040380F300080B400AF4F
:1043700000BFBD465DF8047B7047000080B586B085
:1043800000AF2B4B2B4A1A60294B00225A60284B56
:104390007F229A60264BFF22DA60254B00221A61A9
:1043A000234B00229A61224B0022DA61204B00222B
:1043B0005A611F4805F077FB0346002B01D001F03E
:1043C00015FA3B1D00221A605A609A60DA601A6181
:1043D00000233B6000233B7100237B710023BB71F2
:1043E0000023BB6000233B6100237B613B1D012256
:1043F00019460F4805F0F5FB0346002B01D001F0EC
:10440000F5F901233B7001237B700123BB7000236E
:10441000FB703B4601221946054805F002FD0346A4
:10442000002B01D001F0E2F900BF1837BD4680BD76
:10443000A07700200028004080B500AF1B4B1C4A2D
:104440001A601A4B4FF482725A60184B4FF40042B4
:104450009A60164B4FF4E062DA60144B00221A6146
:10446000124B00225A61114B4FF400729A610F4BAC
:104470000022DA610D4B00221A620C4B00225A62B4
:104480000A4B00229A62094B0722DA62074B00228C
:104490001A63064B08225A63044805F07FFE034660
:1044A000002B01D001F0A2F900BF80BD3C790020B3
:1044B0000030014080B59CB000AF07F160030022DE
:1044C0001A605A609A60DA6007F1540300221A6099
:1044D0005A609A6007F1380300221A605A609A60A5
:1044E000DA601A615A619A613B1D34220021184634
:1044F0000EF0C7FA454B464A1A60444B00225A60F8
:10450000424B00229A60414B6422DA603F4B00220A
:104510001A613E4B00225A613C4B00229A613B4893
:1045200006F0AAF90346002B01D001F05FF94FF421
:1045300080533B6607F160031946344806F036FEA7
:104540000346002B01D001F051F9304806F03AFA49
:104550000346002B01D001F049F900237B650023BD
:10456000BB650023FB6507F154031946274807F094
:10457000A3FA0346002B01D001F038F96023BB6396
:104580006423FB6300233B6400237B640423BB643C
:104590000023FB6400233B6507F138030022194622
:1045A0001A4806F0F3FC0346002B01D001F01EF977
:1045B00000237B600023BB600023FB6000233B6182
:1045C00000237B614FF40053BB610023FB61002398
:1045D0003B6200237B624FF00073BB620023FB62EF
:1045E00000233B6300237B633B1D1946074807F00C
:1045F000C3FA0346002B01D001F0F8F8034801F09C
:1046000071FB00BF7037BD4680BD00BFE878002059
:10461000002C014080B586B000AF3B1D00221A601F
:104620005A609A60DA601A610420FFF751FC022098
:10463000FFF74EFC0120FFF74BFC0022012124482C
:1046400002F008FC01237B600123BB600023FB60B8
:1046500000233B613B1D19461D4802F073FA3823C5
:104660007B601C4BBB600123FB603B1D1946184857
:1046700002F068FA10237B600123BB600123FB601A
:104680003B1D19464FF0904002F05CFA01221021C8
:104690004FF0904002F0DEFB00220F21092002F0D3
:1046A000FFF9092002F016FA00220F210A2002F079
:1046B000F7F90A2002F00EFA00220F21172002F06B
:1046C000EFF9172002F006FA00BF1837BD4680BD8B
:1046D000000400480000311080B586B002AF0346E8
:1046E000FB800023FB600C4B1868F98807F10C0372
:1046F0000093002303220DF0DDFCFB68002B07D0A4
:10470000064B4FF080521A60BFF34F8FBFF36F8F8D
:1047100000BF1037BD4680BD6C78002004ED00E07E
:1047200080B58CB000AF78601D4B1B684FF0FF3137
:1047300018460AF04FFA07F11803012219461948E2
:1047400005F013FB07F1140301221946154805F083
:1047500016FC134B1B6818460AF09AFA3B7E184663
:1047600005F0CAFC034687F82F307B7E184605F01B
:10477000C3FC034687F82E3097F82F2097F82E3089
:1047800007F10C0008490EF05DFE07F10C0305224D
:10479000194678680EF076FE00BF3037BD4680BD02
:1047A000C4770020A0770020906E010880B5ADF599
:1047B000047D02AF3B1D186001220121924802F0E6
:1047C00049FBFDF779FE07F19C031846FDF7DCFE77
:1047D00007F19C030193012300930C238B4A0E21C4
:1047E0000620FEF741F807F19C031846FEF7C7F8CC
:1047F00040F6B8300AF026F907F19C031846FDF799
:10480000C3FE07F19C031846FEF7B9F807F19B03B6
:1048100001221A7007F19B024FF0FF3300210020A4
:104820000DF038FB07F19B031B78013B032B00F2D3
:10483000D28001A252F823F04948000879480008C4
:10484000634900089548000807F10C031846FFF774
:1048500067FF07F10C031846FEF7C9F807F10A03D2
:104860004FF4C2421A806A4B186807F10A0100230C
:1048700000220AF03FFCC6E007F10A034FF4C442ED
:104880001A80634B186807F10A01002300220AF01E
:1048900031FCB8E007F19C031846FDF775FE5D4B4F
:1048A0001B684FF0FF3118460AF094F95A4B93F801
:1048B000803087F80732574B1B6818460AF0E8F932
:1048C00097F80732012B0BD107F19C0301932823A2
:1048D00000934823514A00210020FEF706F81AE011
:1048E00097F80732022B0BD107F19C030193282381
:1048F000009348234A4A00210020FDF7F6FF0AE012
:1049000007F19C030193012300931823454A0E21CC
:104910000020FDF7A9FF07F19C031846FEF72FF8CA
:1049200064200AF08FF80021A720FDF7A7FD64207E
:104930000AF088F80021A620FDF7A0FD97F80732BD
:104940001BB243F4C8431BB29AB207F10A031A80A0
:104950002F4B186807F10A01002300220AF0CAFB56
:1049600051E02C4B1B684FF0FF3118460AF032F92A
:1049700007F118038022284918460EF083FD254BC5
:104980001B6818460AF084F907F19C031846FDF7E6
:10499000FBFD07F1180207F19C030193012300932B
:1049A0000C230E210020FDF75FFF07F19C03184642
:1049B000FDF7E5FF05200AF045F807F10A034FF47B
:1049C000C7421A80124B186807F10A01002300221F
:1049D0000AF090FB17E007F19C031846FDF7D4FDA1
:1049E00007F19C031846FDF7CAFF07F10A034FF4CD
:1049F000C0421A80064B186807F10A010023002202
:104A00000AF078FB00BF05E700040048AC6E01081F
:104A10003479002094770020C8770020A87E010810
:104A200010800108B86E010880B58AB000AF7860C8
:104A3000984B1B684FF0FF3118460AF0CBF8964BA5
:104A400005221A70944B01225A70934B41F288321E
:104A50005A60904B1B6818460AF01AF98F4BFB609E
:104A60000C233B820623BB7407F10C031846FDF7A9
:104A700077FBFDF761FCFDF7C3FB1423FB753323C4
:104A8000BB75FB7D1846FDF7E7FC4FF47A7009F023
:104A9000D9FF012387F827300023BB84002387F840
:104AA0002330002387F822300023FB61794B1B68F9
:104AB0004FF0FF3118460AF08DF8774B1B787B7565
:104AC000754B5B68002B06D0754B186800230222DB
:104AD00000210DF039FA6F4B1B6818460AF0D8F820
:104AE00097F827207B7D9A4207D00023BB840023C0
:104AF00087F82330002387F822307B7D023B032B8D
:104B000000F2B38001A252F823F000BF854C0008E8
:104B1000854C00081D4B0008C34B000897F8272060
:104B20007B7D9A4205D00C2200216FF07F40FDF77B
:104B30005DFC97F823301846FDF78EFCFDF760FB0F
:104B400097F82230002B05D097F82330013B87F8E7
:104B5000233004E097F82330013387F8233097F8A7
:104B60002320BB7D9A4202D1012387F8223097F897
:104B70002330002B02D1002387F82230022009F0D5
:104B800061FFBB8C0133BB84BA8CBB7D9B009A4216
:104B90007AD1FDF7D1FBFDF733FBFB7D1846FDF71E
:104BA0005BFC3C4B1B684FF0FF3118460AF012F8D3
:104BB000394B01221A70374B1B6818460AF068F807
:104BC00062E00023BB6138E0BB8C991C354B83FB52
:104BD00001235A10CB17D21A13465B0013449B00D3
:104BE000CA1ABB69934203D16FF07F43FB611BE09C
:104BF000BB8C591C2B4B83FB01235A10CB17D21AA9
:104C000013465B0013449B00CA1ABB69934202D14E
:104C1000254BFB6108E0BB8CBA699A4202D1234B59
:104C2000FB6101E00023FB61BB699BB2F969184697
:104C3000FDF7A6FBBB690133BB61BB690B2BC3DD71
:104C4000FDF7DEFABB8C5A1C164B83FB021359107E
:104C5000D317C91A0B465B000B449B00D11A0B46B5
:104C6000BB84322009F0EEFE0FE097F827207B7D11
:104C70009A4203D0FDF760FBFDF7C2FAFA2009F073
:104C8000E1FE02E000BF00E000BF7B7D87F8273037
:104C90000CE700BFE4780020C87800203C790020B1
:104CA00074780020ABAAAA2AD0D0D000A0A0A0007F
:104CB00080B586B000AF7860444A07F114031268EB
:104CC000114619800233120C1A7000233B6107F160
:104CD00010024FF0FF33002100200DF0DBF83B699C
:104CE0009BB219463A4802F09DF80346FB75322004
:104CF00009F0A8FE3B699BB21946354802F092F8CC
:104D000003461A46FB7D9342E1D13B69082B1BD138
:104D10003B7DFA7D9A4217D0FB7D3B75FB7D002BD6
:104D200002D1642009F08EFEFB7D002B02D14FF4EE
:104D3000807300E00023FB81264B186807F10E0109
:104D4000002300220AF0D6F93B69102B1CD17B7D91
:104D5000FA7D9A4218D0FB7D7B75FB7D002B02D13A
:104D6000642009F06FFEFB7D002B02D14FF48853C5
:104D700001E04FF48053BB81164B186807F10C011A
:104D8000002300220AF0B6F93B69202B9FD1BB7D9E
:104D9000FA7D9A429BD0FB7DBB75FB7D002B02D137
:104DA000642009F04FFEFB7D002B02D14FF4045329
:104DB00001E04FF400537B81064B186807F10A01AC
:104DC000002300220AF096F981E700BFD06E0108A7
:104DD000000400483479002080B586B000AF7860C8
:104DE0004F237B61184B1B687A699A634FF47A737F
:104DF0003B6107F110024FF0FF33002100200DF05E
:104E000049F80021104805F03FFE4FF44453FB8160
:104E10000E4B186807F10E01002300220AF06AF910
:104E20003B69184609F00EFE0021074805F006FF11
:104E30004FF44053FB81054B186807F10E01002326
:104E400000220AF057F9D4E7E878002034790020EE
:104E500080B588B000AF786007F1080300221A60BF
:104E60005A609A60DA601A6115233B7241237B72A3
:104E70005723BB720023FB6000237B610023BB61CF
:104E8000704B1B684FF0FF31184609F0A3FE07F185
:104E90000803012219466C4804F0A3FE0346002BC8
:104EA00001D000F0A3FC674B1B68184609F0F0FE28
:104EB0004FF47A7009F0C6FD644B1B684FF0FF3168
:104EC000184609F087FE624B05221A705F4B1B687B
:104ED000184609F0DDFE4FF47A7009F0B3FD0123A6
:104EE000FB775C4B1868F97F002303220DF02CF848
:104EF000594B18680023032264210DF025F84FF464
:104F00007A7009F09FFD514B1B684FF0FF31184636
:104F100009F060FE4E4B04221A704C4B1B68184679
:104F200009F0B6FE4FF47A7009F08CFD474B1B6810
:104F30004FF0FF31184609F04DFE454B05221A701F
:104F4000424B1B68184609F0A3FE4FF47A7009F033
:104F500079FD0323FB77414B1B684FF0FF31184667
:104F600009F038FE3E4A3F4B03CB106051601B886E
:104F700013813A4B1B68184609F08AFE354B1868B6
:104F8000F97F002303220CF0DFFF4FF47A7009F061
:104F900059FD0123FB772F4B1868F97F002303226B
:104FA0000CF0D2FF4FF47A7009F04CFD294B1868D1
:104FB000F97F002303220CF0C7FF4FF47A7009F049
:104FC00041FD244B1868F97F002303220CF0BCFF3D
:104FD0004FF47A7009F036FD1E4B1868F97F0023F4
:104FE00003220CF0B1FF4FF47A7009F02BFD4FF45F
:104FF0007A7009F027FD0423FB77184B1B684FF0EC
:10500000FF31184609F0E6FD154B012283F8802098
:10501000124B1B68184609F03BFE0E4B1868F97FCF
:10502000002303220CF090FF40F6B83009F00AFD8F
:105030000023FB77074B1868F97F002303220CF04D
:1050400083FF35E7C4770020A0770020E4780020B4
:10505000C8780020D078002038790020947700208C
:10506000C8770020D46E010880B584B000AF7860A6
:10507000084B186807F10E014FF0FF3300220AF0C9
:10508000ADF80346002BF3D1FB891846FCF7EAFA8A
:10509000EEE700BF3479002080B5B0B000AF786093
:1050A000002387F8BF30874B186807F1AC014FF039
:1050B000FF3300220AF092F80346002BF3D1D7F811
:1050C000AC301B78002B66D1D7F8AC300133082206
:1050D00019467D480DF0CAFCD7F8AC305A7A7B4BA4
:1050E0001A74D7F8AC309A7A784B5A7407F11803CF
:1050F00000221A605A609A60DA601A6100237B61AC
:10510000724A07F10C03083292E8030083E80300B7
:105110003B7B87F8B6303B7C3B767B7C7B76BB7CED
:10512000BB760023FB6100237B62684B5B7C002B1A
:1051300002D04FF480337B620023BB623B7B3B7524
:105140007B7B7B75BB7BBB75FB7BFB75604B1B68FF
:105150004FF0FF31184609F03DFD07F11803012219
:1051600019465C4804F03DFD0346002B01D000F0D9
:105170003DFB07F1140301221946564804F051FE85
:105180000346002B01D000F031FB514B1B68184641
:1051900009F07EFD87E7D7F8AC301B78062B3FD1AE
:1051A00097F8BF201346DB0013445B00134407F15C
:1051B0002C02D018D7F8AC30013397F8B020013A60
:1051C00019460EF05FF997F8BF30013387F8BF300A
:1051D000D7F8AC2097F8B030013B13441B78002B74
:1051E0007FF461AF3C4B1B684FF0FF31184609F06C
:1051F000F1FC07F12C038022194638480EF042F9E1
:10520000354B1B68184609F043FD354B18680023E1
:10521000032203210CF098FE002387F8BF3042E7F9
:10522000D7F8AC301B78032B32D10023C7F8B83045
:10523000002387F8B7301BE0D7F8AC3097F8B720D9
:10524000013213441B78194697F8B0309A1E97F82C
:10525000B730D31ADB0001FA03F31A46D7F8B83097
:105260001343C7F8B83097F8B730013387F8B73031
:1052700097F8B72097F8B030013B9A42DCDB194B26
:10528000186800230322D7F8B8100CF05DFE0AE777
:10529000D7F8AC301B78072B7FF405AF124B1B6897
:1052A0004FF0FF31184609F095FCD7F8AC300133C8
:1052B0001A780E4B1A700C4B1B68184609F0E8FC64
:1052C000F1E600BF90770020B8020020B002002075
:1052D000C4770020A077002094770020C8770020B2
:1052E000D078002038790020E4780020C8780020A9
:1052F00080B584B000AF78604FF0FF3101200CF032
:1053000081FD1C4B1B684FF0FF31184609F062FC11
:10531000194A07F1080392E8030083E80300164BDB
:1053200000225A60134B1B68184609F0B1FCFB6859
:10533000184609F087FB0F4B1B684FF0FF311846EA
:1053400009F048FC3A7A0C4B1B789A420BD17A7AD6
:10535000094B5B789A4206D1074B5A78064B1A7074
:10536000054B00225A70034B1B68184609F090FC4D
:10537000C2E700BFE4780020C878002080B588B07C
:1053800000AF78604FF6FF737B830023FB774FF607
:10539000FF73BB8340F6B83009F054FBFEF73CFCCA
:1053A0000346012B1BD1444B1B684FF0FF311846BD
:1053B00009F010FC414A424B03CB10605160198840
:1053C0009B78118193723C4B1B68184609F060FC76
:1053D0003C4B18680023032203210CF0B5FDFEF7B7
:1053E000B9FC03467B83B7F91A30B3F1FF3F1FD0F6
:1053F0000123FB77BA8BB7F91A309A4214D07B8B12
:10540000BB83B7F91A301846FDF76CFB7B8B43F46E
:1054100080431BB29BB23B832B4B186807F11801EA
:105420000023002209F066FE192009F00BFBD6E7E5
:10543000FB7F002B3CD0FB7F0133FB77FB7F052BF1
:1054400032D90023FB77BA8B07F10C031F491846AA
:105450000DF0F8FF184B1B684FF0FF31184609F0AC
:10546000B9FB07F10C030A22194614480EF00AF89A
:10547000114B1B68184609F00BFC124B18680023EF
:10548000032203210CF060FDBB8B43F4A0439BB2CD
:105490007B810D4B186807F10A010023002209F0F7
:1054A00029FE4FF6FF73BB83192009F0CBFA96E76C
:1054B000FA2009F0C7FA92E794770020C877002015
:1054C000E06E0108D078002034790020EC6E0108ED
:1054D000F0B5B7B010AF78606C4E00230F936D46F7
:1054E00006F110040FCC0FC50FCC0FC50FCC0FC5A4
:1054F00094E8070085E8070096E80F0000F0D2FD69
:1055000000220021614800F0E9F90346012B1DD17A
:105510005F4B1B684FF0FF31184609F05BFB5D4A9B
:105520005D4B15461C460FCC28606960AA60EB6095
:1055300023782B74564B1B68184609F0A9FB574B70
:1055400018680023032203210CF0FEFC00214F48C1
:1055500000F0E1F90346012B1DD14D4B1B684FF0C4
:10556000FF31184609F036FB4A4A4D4B15461C469A
:105570000FCC28606960AA60EB6023782B74444BE1
:105580001B68184609F084FB444B1868002303226B
:1055900003210CF0D9FC00F0C3FE87ED250A00F0D2
:1055A000A7FF87ED240A394800F02CFA87ED230A7B
:1055B000364800F0C9F987ED220AD7ED257AFCEECE
:1055C000E77AC7ED007A3B68DBB21A46D7ED247A5A
:1055D000FCEEE77AC7ED007A3B68DBB207F1080022
:1055E00030490DF02FFF2A4B1B684FF0FF31184652
:1055F00009F0F0FA07F108038022194625480DF05A
:1056000041FF234B1B68184609F042FB234B1868E7
:105610000023032203210CF097FC40F6C41009F08C
:1056200011FAD7ED237AFCEEE77AC7ED007A3B68F2
:10563000DBB21A46D7ED227AFCEEE77AC7ED007AA4
:105640003B68DBB207F1080017490DF0FBFE104B79
:105650001B684FF0FF31184609F0BCFA07F1080348
:10566000802219460B480DF00DFF094B1B681846A8
:1056700009F00EFB094B18680023032203210CF0EC
:1056800063FC40F6C41009F0DDF984E77878002067
:1056900094770020C8770020F86E0108D0780020A9
:1056A0000C6F0108206F0108346F010880B400AF4F
:1056B00000BFBD465DF8047B704780B582B000AF87
:1056C000002008F0D3FA78607B68002B05D07B6857
:1056D0009B791846FEF780FB00BF00BF0837BD4628
:1056E00080BD80B500AF00F027F800F003F800BFE0
:1056F00080BD000080B500AF4FF48010FEF701FCC4
:105700003F210C48FEF75CFC3F210A48FEF766FC8F
:105710003F210848FEF70EFC3F210648FEF72DFC0E
:105720003F210448FEF718FC3F210248FEF737FCF2
:1057300000BF80BD000C005880B500AFFEF7A2FB93
:105740000346002B0DD0FEF7B0FB0346002B08D11B
:1057500002F09CFB02F09AFBFEF772FBFEF781FB66
:1057600000BF00BF80BD80B500AF4FF0FF30FEF737
:1057700007FB6FF05000FEF719FB00BF80BD80B53E
:1057800084B000AF786001F045F8B8607B68FB60DA
:10579000FB68B3F1FF3F0AD001F054F803461A4604
:1057A000FB681344FB6002E0FEF726FC30BF01F00B
:1057B00031F80246BB68D31AFA689A42F4D800BF9F
:1057C0001037BD4680BD000080B582B000AF786064
:1057D0007B681B68044A934201D101F007F800BFBF
:1057E0000837BD4680BD00BF0048014080B400AF0F
:1057F00000BFBD465DF8047B70470000000000005C
:1058000090B589B002AF786007F108026423009375
:1058100002238121786801F0F5FC03467B617B69F6
:10582000002B01D02A4B3FE03B7A1B021AB27B7A55
:105830001BB213437B82B7F912301846FAF74AFEBF
:105840001DA3D3E90023FAF7AFFE03460C46184622
:1058500021461BA3D3E90023FAF7D0FF03460C46E9
:105860001846214618A3D3E90023FAF7E5FC0346BE
:105870000C4618462146FBF76FF90346FB60D7ED4F
:10588000037A9FED147AF4EEC77AF1EE10FA08DC91
:10589000D7ED037A9FED107AF4EEC77AF1EE10FAA5
:1058A00001D50B4B00E0FB6807EE903AB0EE670ABB
:1058B0001C37BD4690BD00BFD7A3703D0AF76540B9
:1058C00000000000E0FFEF40CDCCCCCCCC6C4740DA
:1058D00000FF7F470000FA42000020C280B586B07A
:1058E00002AF78600B46FB701346BB70E6233B7338
:1058F000FA78BB781343DBB27B7307F10C026423A5
:10590000009302238021786801F088FB0346184643
:105910001037BD4680BD80B586B002AF78600B46BB
:10592000FB7051233B73FB787B7307F10C026423FC
:10593000009302238021786801F070FB034618462B
:105940001037BD4680BD000090B587B002AF7860CB
:10595000F5233B7207F108026423009301238021A1
:10596000786801F05BFB0346FB60FB68002B01D00D
:10597000204B37E01E20FFF702FF07F108026423E7
:10598000009302238121786801F03CFC0346FB6010
:10599000FB68002B01D0174B24E03B7A1B027A7A7C
:1059A00013431846FAF796FD4FF00002124BFAF730
:1059B000FBFD03460C46184621464FF000020F4BF4
:1059C000FAF71CFF03460C46184621464FF000022A
:1059D0000B4BFAF731FC03460C4618462146FBF701
:1059E000BBF8034607EE903AB0EE670A1437BD469F
:1059F00090BD00BF00FF7F4700405F400000F040C7
:105A00000000184080B586B002AF7860F3233B7287
:105A100007F108026423009301238021786801F0D4
:105A2000FDFA0346FB60FB68002B02D0DFED077A2E
:105A300007E01E20FFF7A3FE7868FFF7E1FEF0EE17
:105A4000407AB0EE670A1037BD4680BD00FF7F4741
:105A500080B483B000AF78604FF0B043D3F890309B
:105A600023F440724FF0B0417B681343C1F890308B
:105A700000BF0C37BD465DF8047B704780B400AFB3
:105A80004FF0B043D3F890304FF0B04243F40043AE
:105A9000C2F8903000BFBD465DF8047B704780B40B
:105AA00085B000AF78604FF0B043DA6C4FF0B04192
:105AB0007B681343CB644FF0B043DA6C7B681340D0
:105AC000FB60FB6800BF1437BD465DF8047B704780
:105AD00080B485B000AF78604FF0B0431A6D4FF0DE
