:020000040800F2
:10000000000003207D1B0008695600087756000891
:100010007D5600088356000889560008000000003D
:1000200000000000000000000000000081E2000865
:100030008F56000800000000C1E4000829E5000810
:10004000D11B0008D11B0008D11B0008FD56000879
:10005000D11B0008D11B0008D11B0008D11B0008D0
:10006000D11B0008BD560008CB560008D11B000864
:10007000D11B0008D11B0008D11B0008D11B0008B0
:10008000D11B0008D11B0008D11B0008D11B0008A0
:10009000D11B0008D11B0008D11B0008D95600084D
:1000A000D11B0008E95600089D560008D11B000826
:1000B000D11B0008D11B0008D11B0008D11B000870
:1000C000D11B0008D11B0008D11B0008D11B000860
:1000D000D11B0008D11B0008D11B0008D11B000850
:1000E000D11B0008D11B0008D11B0008D11B000840
:1000F0001557000809570008B1560008D11B000821
:10010000D11B0008D11B0008D11B0008D11B00081F
:10011000D11B0008D11B0008D11B0008D11B00080F
:10012000D11B0008D11B0008D11B0008D11B0008FF
:0C013000D11B0008D11B0008D11B0008E7
:1001400010B5054C237833B9044B13B10448AFF311
:1001500000800123237010BDB803002000000000C0
:100160005844010808B5034B1BB103490348AFF3DA
:10017000008008BD00000000BC03002058440108B6
:10018000034613F8012B002AFBD1181A01387047D7
:1001900001F0FF01102A2BDB10F0070F08D010F838
:1001A000013B013A8B422DD010F0070F42B3F6D13C
:1001B000F0B441EA012141EA014122F007047FF055
:1001C00000070023F0E80256083C85EA010586EAAC
:1001D000010685FA47F5A3FA87F586FA47F6A5FAE8
:1001E00087F68EB9EED1F0BC01F0FF0102F00702F4
:1001F00032B110F8013B013A83EA010313B1F8D19F
:100200000020704701387047002D06BF354603387F
:10021000073815F0010F07D1013015F4807F02BFB8
:10022000013015F4C03F0130F0BC0138704700BF09
:1002300081F0004102E000BF83F0004330B54FEA97
:1002400041044FEA430594EA050F08BF90EA020F04
:100250001FBF54EA000C55EA020C7FEA645C7FEA97
:10026000655C00F0E2804FEA5454D4EB5555B8BFBA
:100270006D420CDD2C4480EA020281EA030382EA2B
:10028000000083EA010180EA020281EA0303362DBD
:1002900088BF30BD11F0004F4FEA01314FF4801C90
:1002A0004CEA113102D0404261EB410113F0004FA2
:1002B0004FEA03334CEA133302D0524263EB430359
:1002C00094EA050F00F0A780A4F10104D5F1200EF7
:1002D0000DDB02FA0EFC22FA05F2801841F1000152
:1002E00003FA0EF2801843FA05F359410EE0A5F126
:1002F00020050EF1200E012A03FA0EFC28BF4CF057
:10030000020C43FA05F3C01851EBE37101F000450C
:1003100007D54FF0000EDCF1000C7EEB00006EEB19
:100320000101B1F5801F1BD3B1F5001F0CD34908A3
:100330005FEA30004FEA3C0C04F101044FEA4452FA
:1003400012F5800F80F09A80BCF1004F08BF5FEA81
:10035000500C50F1000041EB045141EA050130BD61
:100360005FEA4C0C404141EB010111F4801FA4F104
:100370000104E9D191F0000F04BF01460020B1FA59
:1003800081F308BF2033A3F10B03B3F120020CDA91
:100390000C3208DD02F1140CC2F10C0201FA0CF06F
:1003A00021FA02F10CE002F11402D8BFC2F1200CD4
:1003B00001FA02F120FA0CFCDCBF41EA0C0190408A
:1003C000E41AA2BF01EB0451294330BD6FEA0404D3
:1003D0001F3C1CDA0C340EDC04F11404C4F12002BE
:1003E00020FA04F001FA02F340EA030021FA04F3D0
:1003F00045EA030130BDC4F10C04C4F1200220FA27
:1004000002F001FA04F340EA0300294630BD21FA64
:1004100004F0294630BD94F0000F83F4801306BF2A
:1004200081F480110134013D4EE77FEA645C18BF1E
:100430007FEA655C29D094EA050F08BF90EA020FB5
:1004400005D054EA000C04BF1946104630BD91EAAD
:10045000030F1EBF0021002030BD5FEA545C05D1B0
:100460004000494128BF41F0004130BD14F58004EF
:100470003CBF01F5801130BD01F0004545F0FE4163
:1004800041F470014FF0000030BD7FEA645C1ABF98
:10049000194610467FEA655C1CBF0B46024650EACF
:1004A000013406BF52EA033591EA030F41F40021FB
:1004B00030BD00BF90F0000F04BF0021704730B581
:1004C0004FF4806404F132044FF000054FF0000156
:1004D00050E700BF90F0000F04BF0021704730B517
:1004E0004FF4806404F1320410F0004548BF4042EC
:1004F0004FF000013EE700BF42004FEAE2014FEA41
:1005000031014FEA02701FBF12F07F4393F07F4F1B
:1005100081F06051704732F07F4208BF704793F01E
:100520007F4F04BF41F40021704730B54FF4607431
:1005300001F0004521F000411CE700BF50EA010234
:1005400008BF704730B54FF000050AE050EA0102DD
:1005500008BF704730B511F0004502D5404261EB4D
:1005600041014FF4806404F132045FEA915C3FF48E
:10057000D8AE4FF003025FEADC0C18BF03325FEA2B
:10058000DC0C18BF033202EBDC02C2F1200300FADC
:1005900003FC20FA02F001FA03FE40EA0E0021FA01
:1005A00002F11444BDE600BF70B54FF0FF0C4CF4EF
:1005B000E06C1CEA11541DBF1CEA135594EA0C0FA1
:1005C00095EA0C0F00F0DEF82C4481EA030621EADC
:1005D0004C5123EA4C5350EA013518BF52EA033517
:1005E00041F4801143F4801338D0A0FB02CE4FF0C9
:1005F0000005E1FB02E506F00042E0FB03E54FF0F9
:100600000006E1FB03569CF0000F18BF4EF0010EF0
:10061000A4F1FF04B6F5007F64F5407404D25FEAEC
:100620004E0E6D4146EB060642EAC62141EA55519F
:100630004FEAC52040EA5E504FEACE2EB4F1FD0CE1
:1006400088BFBCF5E06F1ED8BEF1004F08BF5FEA5F
:10065000500E50F1000041EB045170BD06F0004611
:1006600046EA010140EA020081EA0301B4EB5C04BE
:10067000C2BFD4EB0C0541EA045170BD41F48011B6
:100680004FF0000E013C00F3AB8014F1360FDEBFDB
:10069000002001F0004170BDC4F10004203C35DAB7
:1006A0000C341BDC04F11404C4F1200500FA05F33A
:1006B00020FA04F001FA05F240EA020001F00042DB
:1006C00021F0004110EBD37021FA04F642EB060151
:1006D0005EEA430E08BF20EAD37070BDC4F10C047B
:1006E000C4F1200500FA04F320FA05F001FA04F23F
:1006F00040EA020001F0004110EBD37041F100012B
:100700005EEA430E08BF20EAD37070BDC4F1200535
:1007100000FA05F24EEA020E20FA04F301FA05F29D
:1007200043EA020321FA04F001F0004121FA04F245
:1007300020EA020000EBD3705EEA430E08BF20EA15
:10074000D37070BD94F0000F0FD101F0004640004F
:1007500041EB010111F4801F08BF013CF7D041EAD1
:10076000060195F0000F18BF704703F000465200D5
:1007700043EB030313F4801F08BF013DF7D043EAA6
:100780000603704794EA0C0F0CEA135518BF95EA5C
:100790000C0F0CD050EA410618BF52EA4306D1D1E3
:1007A00081EA030101F000414FF0000070BD50EA02
:1007B000410606BF1046194652EA430619D094EA8C
:1007C0000C0F02D150EA013613D195EA0C0F05D176
:1007D00052EA03361CBF104619460AD181EA0301CA
:1007E00001F0004141F0FE4141F470014FF0000082
:1007F00070BD41F0FE4141F4780170BD70B54FF01D
:10080000FF0C4CF4E06C1CEA11541DBF1CEA13559C
:1008100094EA0C0F95EA0C0F00F0A7F8A4EB05047E
:1008200081EA030E52EA03354FEA013100F0888075
:100830004FEA03334FF0805545EA131343EA12633E
:100840004FEA022245EA111545EA10654FEA0026F3
:100850000EF000419D4208BF964244F1FD0404F5AC
:10086000407402D25B084FEA3202B61A65EB030508
:100870005B084FEA32024FF480104FF4002CB6EBC5
:10088000020E75EB030E22BFB61A754640EA0C0045
:100890005B084FEA3202B6EB020E75EB030E22BF85
:1008A000B61A754640EA5C005B084FEA3202B6EBC6
:1008B000020E75EB030E22BFB61A754640EA9C0085
:1008C0005B084FEA3202B6EB020E75EB030E22BF55
:1008D000B61A754640EADC0055EA060E18D04FEA13
:1008E000051545EA16754FEA06164FEAC30343EAB3
:1008F00052734FEAC2025FEA1C1CC0D111F4801F80
:100900000BD141EA00014FF000004FF0004CB6E778
:1009100011F4801F04BF01430020B4F1FD0C88BF17
:10092000BCF5E06F3FF6AFAEB5EB030C04BFB6EB22
:10093000020C5FEA500C50F1000041EB045170BD15
:100940000EF0004E4EEA113114EB5C04C2BFD4EB42
:100950000C0541EA045170BD41F480114FF0000EC6
:10096000013C90E645EA060E8DE60CEA135594EA42
:100970000C0F08BF95EA0C0F3FF43BAF94EA0C0F45
:100980000AD150EA01347FF434AF95EA0C0F7FF4BA
:1009900025AF104619462CE795EA0C0F06D152EA0E
:1009A00003353FF4FDAE1046194622E750EA4106F2
:1009B00018BF52EA43067FF4C5AE50EA41047FF403
:1009C0000DAF52EA43057FF4EBAE12E74FF0FF3C68
:1009D00006E000BF4FF0010C02E000BF4FF0010C39
:1009E0004DF804CD4FEA410C7FEA6C5C4FEA430CB2
:1009F00018BF7FEA6C5C1BD001B050EA410C0CBF01
:100A000052EA430C91EA030F02BF90EA020F002062
:100A1000704710F1000F91EA030F58BF994208BFC9
:100A200090422CBFD8176FEAE37040F00100704786
:100A30004FEA410C7FEA6C5C02D150EA013C07D1DD
:100A40004FEA430C7FEA6C5CD6D152EA033CD3D028
:100A50005DF8040B704700BF8446104662468C4622
:100A60001946634600E000BF01B5FFF7B7FF002855
:100A700048BF10F1000F01BD4DF808EDFFF7F4FF7E
:100A80000CBF012000205DF808FB00BF4DF808ED09
:100A9000FFF7EAFF34BF012000205DF808FB00BF2C
:100AA0004DF808EDFFF7E0FF94BF012000205DF84E
:100AB00008FB00BF4DF808EDFFF7CEFF94BF012003
:100AC00000205DF808FB00BF4DF808EDFFF7C4FFFC
:100AD00034BF012000205DF808FB00BF4FEA410C45
:100AE0007FEA6C5C02D150EA013C0AD14FEA430C28
:100AF0007FEA6C5C02D152EA033C02D14FF0000065
:100B000070474FF0010070474FEA410212F50012A2
:100B100015D211D56FF47873B3EB625212D94FEA44
:100B2000C12343F0004343EA505311F0004F23FA2E
:100B300002F018BF404270474FF00000704750EA83
:100B4000013005D111F0004008BF6FF00040704740
:100B50004FF00000704700BF80B400AF034B1B682C
:100B60001846BD465DF8047B704700BF8075FF1FC7
:100B700080B400AF034B1B68DBB21846BD465DF87E
:100B8000047B70478475FF1F80B400AF034B1B6864
:100B90001B0A1846BD465DF8047B70478475FF1F2D
:100BA000B0B58CB000AF2B4B3C461D460FCD0FC4EB
:100BB0000FCD0FC495E80F0007C4237000F0FEF9B5
:100BC0000121022010F042FE234A002123480CF0AC
:100BD000E9FC0246224B1A603B4618460BF076F8B9
:100BE0000346002B01D004F05DFB00F00FFA0AF081
:100BF00019F81C4B002283F880201A4B4FF6FF7225
:100C0000DA82194A002119480CF0CCFC0246184B34
:100C10001A60184B00221A70174B01221A7000F04C
:100C2000A3FC164B00221649002002F04FFC0D4B8E
:100C300000225A760B4B00221A76124B80221A8021
:100C4000114BA0221A80012000F0BCFA00BF3037FF
:100C5000BD46B0BD9C4401085C4D0108D913000895
:100C6000305C002010020020384D0108B11300084C
:100C7000485C00203D5C00203C5C0020991300088B
:100C800091020020940200209602002080B58CB0D2
:100C900000AF7860422387F82F307B680133BB6256
:100CA000BB6A1B783E2B28D0FF2B00F0A580052BBC
:100CB00000D045E1BB6A02333B613B69B3F80130C8
:100CC0009AB2A24BDB8A9A4209D1A04B0022DA8267
:100CD0009E4B002283F880209D4811F0A3FB012049
:100CE00000F070FA9B4B01221A70984BDA8A994BEC
:100CF0005A80984800F024FC22E1BB6A0233FB6171
:100D0000FB691B78032B04D00C2B06D0012B42D09F
:100D100071E0914811F086FB6DE0904811F082FB84
:100D2000FB690133BB61BB691B78002B03D18C4885
:100D300011F078FB02E08B4811F074FB834BDB8AE7
:100D400007F10E0207F10F0118460AF0D0FE034624
:100D500087F82F3097F82F30002B18D1824811F0E8
:100D600061FBFB7B022B0AD1BB7B022B07D1FB7BF8
:100D70001946BB7B1A467D4811F0E0FA3BE0FB7B4D
:100D80001946BB7B1A46794811F0D8FA33E0784807
:100D900011F048FB2FE0FB6901337B616B4B93F84B
:100DA0008130184602F008FC7B69B3F801309BB231
:100DB0001946704811F0C2FA644B93F88030042B46
:100DC00004D1624B062283F8802003E05F4B0522AA
:100DD00083F880207B69B3F801309AB25B4BDA82EA
:100DE0005C4B00221A70594BDA8A5A4B5A80594888
:100DF00000F0A6FB00BFA3E0BB6A02337B627B6A04
:100E00001B889BB240F2054293424AD040F2054211
:100E1000934218DC40F20242934233D040F2024245
:100E2000934207DCB3F5806F28D040F20142934231
:100E300069D084E040F2034293422AD040F2044257
:100E400093422AD07BE0B3F5816F3AD0B3F5816F3E
:100E500008DC40F2064293422FD040F20742934210
:100E600069D06CE040F20A4293422ED040F20A422E
:100E700093422EDBB3F5006F5AD060E03E4811F08C
:100E8000D1FA5CE03D4811F0CDFA3D4811F0CAFAC4
:100E900055E03C4811F0C6FA51E03B4811F0C2FA67
:100EA0004DE03A4811F0BEFA284BDB8A18460AF0AA
:100EB00054FA374811F0B6FA41E0364811F0B2FA68
:100EC0003DE0344811F0AEFA39E0334811F0AAFAA7
:100ED00035E07B6A0233D3F8023019462F4811F00F
:100EE0002DFA7B6A0233D3F8023019462C4811F0F0
:100EF00025FA164BDB8A012118460AF078FA2948B0
:100F000011F090FA1BE07B6A02333B623B6A9B78EC
:100F10001946254811F012FA3B6A9B78002B03D141
:100F2000224811F07FFA0AE0214811F07BFA06E02E
:100F3000204B01221A70204811F074FA00BF00BF44
:100F4000012318463037BD4680BD00BF1002002087
:100F5000CC440108345C0020F44401082045010819
:100F60003C45010860450108884501089C45010889
:100F7000B8450108D045010804460108304601087B
:100F80005846010878460108A4460108D4460108DD
:100F9000F44601081047010834470108604701087A
:100FA000784701088C470108C84701082048010814
:100FB000344801083C5C00204848010880B582B0F4
:100FC00000AF00200CF0B8FC02460B4B1A60002268
:100FD000002101200CF0F8FD0246084B1A60084B76
:100FE0003B60084B7B603B46194607480AF09CFE75
:100FF00000BF0837BD4680BD405C00202C5C00204F
:10100000280003209114000859140008F0B58FB08F
:1010100006AF4FF450733B800AF045FD00F078F9BD
:10102000F861FA69062100200AF07DFCFB695A7913
:101030005C4B1A72FB691A795A4B5A72FB69DA785F
:10104000584B9A72FB699A78564BDA72FB695A7858
:10105000544B1A73FB691A78524B5A73524A102137
:1010600018200AF060FC514A102108200AF05BFCAD
:101070004EF66E53BB60FFF76FFD03467B603B1D72
:101080001A4606212E200AF04EFC474A102118204D
:101090000AF049FC454A102108200AF044FC1821B6
:1010A00001200AF0A9FC0AF0F9F90023FB76FB7E87
:1010B00043F00103FB76FB7E002B24D03C4B7B618D
:1010C00007F11202F87E07F10E03019307F11003F6
:1010D00000931346072200210AF034F87C8A3D8AE7
:1010E0007869FFF74DF80346DAB27B69009313463F
:1010F0000022294620460AF08FFB0346002B02D02F
:101100002C4811F08FF9788AF9893B460093022325
:1011100000220AF081FB0346002B02D0264811F082
:1011200081F90222022100200AF049FD234B01220D
:101130001A70224B1B78184609F012FF1F4B012230
:101140005A701E4B08221A711C4B10225A711B4BED
:101150000022DA70194B1A4A9A60184B01229A70D1
:10116000164B9D78154B5E78144B1B79134A5279B8
:101170001249C978114880680024049403900291B0
:1011800001920093002301223146284609F032FFE4
:101190000A4B9B78002B01D00AF0BBF800BF243724
:1011A000BD46F0BD04000020104D0108204D01088F
:1011B0007048010878480108A8480108100200207A
:1011C00007B2010080B58CB008AF0346FB71422323
:1011D000FB72FB79012B06D13F4B1B88FB813F4BF8
:1011E0001B88BB8105E04FF4C863FB814FF47A6331
:1011F000BB813B4B93F88130184602F0DDF9384B48
:1012000093F880301946374811F098F8FB79022B93
:1012100019D1334B93F88030012B04D0304B93F825
:101220008030022B0FD109F099FD0346FB72FB7A47
:10123000002B03D12C4811F0F5F804E0FB7A194695
:101240002A4811F07BF8264AFB7982F88030244B3B
:101250001B7EB889F9890022069200220592244A51
:1012600004920393234B02930823019300230093DA
:1012700000230246002009F095FD0346FB721E493B
:101280000E2009F0EAFF0346FB72FB7A002B11D116
:10129000FB79012B0AD1194811F0C4F8104B93F8CF
:1012A00081301749184602F011FA12E0154811F082
:1012B000B9F80EE0FB79012B05D1FB7A19461248EB
:1012C00011F03CF805E0FB7A1946104811F036F8A9
:1012D00000BF1037BD4680BD94020020960200205A
:1012E00010020020D8480108F448010818490108F4
:1012F00029020020304D0108040000204049010867
:1013000046E001006849010894490108C449010800
:1013100080B586B000AFFFF71FFC38613B69B3F1C1
:10132000FF3F23D0FFF730FCB860FFF721FC786067
:101330003B69DAB2164B1A703B691B0ADAB2144BDE
:101340005A703B691B0CDAB2114B9A707B68DAB2A7
:101350000F4BDA70BB68DAB20D4B1A71BB681B0A0F
:10136000DAB20B4B5A710A4B7B610BE000200BF099
:10137000C9FBF860FB68002B02D0FB687B6101E0D1
:10138000044B7B617B6918461837BD4680BD00BFA2
:10139000D4030020084D010880B500AF034B1B6843
:1013A000012118460CF0A4F900BF80BD485C002064
:1013B00080B582B000AF78604FF0FF32002101208D
:1013C0000CF0F8F900F001F8F6E780B500AF022064
:1013D000FFF7F8FE00BF80BD80B582B000AF786037
:1013E0004FF0FF32002101200CF0E4F90AF0B8FCC4
:1013F000F6E7000080B582B000AF7860044B1B6850
:10140000012118460CF074F900BF0837BD4680BDB5
:10141000305C002080B582B000AF7860044B1B6860
:1014200018460CF0D5FC00BF0837BD4680BD00BF94
:101430002C5C002080B582B000AF7860054B1B6843
:101440004FF0FF3118460CF05DFC00BF0837BD4679
:1014500080BD00BF2C5C002080B584B000AF7860F8
:101460007B68FB60FB685B680833184609F024FC66
:101470000346FB72FB7A002B03D0FB6801221A7033
:1014800002E0FB6800221A7000BF1037BD4680BD25
:1014900080B582B000AF0346FB71FB79002B02D010
:1014A000012B08D00DE0094B1B684FF0FF311846A7
:1014B0000CF0DCFA05E0054B1B6818460CF034FB19
:1014C00000BF00BF0837BD4680BD00BF405C0020A4
:1014D00080B582B000AF78607B681B78012B0ED09E
:1014E000032B16D0002B00D01CE0104B01221A70E9
:1014F0000F4810F097FF0F4810F020FF12E00B4B41
:1015000000221A700C4810F08DFF0A4810F016FFE8
:1015100008E00A4B18687B68191D002300220CF0B4
:1015200035FD00BF00BF0837BD4680BD98020020D2
:10153000504A0108844A0108884A0108385C0020A2
:1015400080B582B000AF78607B681B78002B05D037
:10155000012B00D003E000F013F800E000BF00BF53
:101560000837BD4680BD000080B500AF034B0022A8
:101570001A7000F005F800BF80BD00BF980200207F
:1015800090B400AF0E4B01225A700D4B00229A709E
:101590000B4B0122DA700A4B00221A71084A4FF0F5
:1015A00000034FF00004C2E90234054B00221A7414
:1015B000034B00225A7400BFBD4690BC704700BF69
:1015C0009802002080B58CB000AF0346FB80304B02
:1015D0001B78002B54D02F4810F0B0FE2E4810F08E
:1015E000ADFE2E4B1B684FF0FF3118460CF03EFA53
:1015F00007F11C0301221946294807F002FB07F1F5
:10160000180301221946264807F005FC234B1B68E6
:1016100018460CF089FA07F10C0300221A605A6090
:101620001A813B7E1B021AB27B7E1BB213431BB294
:101630009BB2BB82BB7E1B021AB2FB7E1BB2134362
:101640001BB29BB27B823B7F1B021AB27B7F1BB219
:1016500013431BB29BB23B82BB7F1B021AB2FB7FC0
:101660001BB213431BB29BB2FB81FB88BB8107F10A
:101670000C030A2219464FF642600BF06DF903E0A5
:10168000084810F05BFE00BF3037BD4680BD00BF8C
:1016900098020020404B0108844A0108445C002065
:1016A000D05C0020F44A010880B400AF054BDB6831
:1016B000044A43F40043D36000BFBD465DF8047B99
:1016C000704700BF0004005880B483B000AF78605A
:1016D000064BD3F8D42005497B681343C1F8D430B6
:1016E00000BF0C37BD465DF8047B7047000800580A
:1016F00080B483B000AF7860054B1A6A04497B68F8
:1017000013430B6200BF0C37BD465DF8047B704786
:101710000008005880B485B000AF78604FF0B04347
:101720001A6D4FF0B0417B6813430B654FF0B04327
:101730001A6D7B681340FB60FB6800BF1437BD4621
:101740005DF8047B704780B485B000AF78604FF0DF
:10175000B043D3F850214FF0B0417B681343C1F838
:1017600050314FF0B043D3F850217B681340FB60F9
:10177000FB6800BF1437BD465DF8047B704780B43A
:1017800083B000AF78607B681B6843F480327B686D
:101790001A6000BF0C37BD465DF8047B704780B40B
:1017A00083B000AF78607B681B6843F001027B6800
:1017B0001A6000BF0C37BD465DF8047B704780B4EB
:1017C00083B000AF786039607B685A683B681B045F
:1017D000DB431A407B685A6000BF0C37BD465DF89A
:1017E000047B704780B483B000AF786039607B6859
:1017F0005A683B681B041A437B685A6000BF0C3769
:10180000BD465DF8047B704780B483B000AF78605C
:1018100039607B685A683B68DB431A407B685A60D2
:1018200000BF0C37BD465DF8047B704780B483B0C1
:1018300000AF786039607B683A689A6000BF0C3707
:10184000BD465DF8047B704780B483B000AF78601C
:1018500039603B681A047B689A6000BF0C37BD464C
:101860005DF8047B704780B483B000AF7860396066
:101870007B68DA683B6813403A689A4201D10123D9
:1018800000E0002318460C37BD465DF8047B704726
:1018900080B483B000AF786039607B68DA693B68F8
:1018A00013403A689A4201D1012300E00023184610
:1018B0000C37BD465DF8047B7047000080B500AF73
:1018C00002211948FFF7E4FF0346002B09D0164B0D
:1018D0005B68DB4303F00203002B02D000F0EAF860
:1018E0001FE001211048FFF7D3FF0346002B08D06B
:1018F0000D4B5B6803F00103002B02D100F09EF852
:101900000FE008210848FFF7C3FF0346002B09D06A
:10191000054B5B68DB4303F00803002B02D000F0AB
:1019200015F900BF00BF80BD000C005880B500AFA6
:1019300002212248FFF797FF0346002B09D11F4BD6
:101940005B68DB4303F40033002B02D000F0A6F801
:1019500031E002211948FFF786FF0346002B09D129
:10196000164B5B68DB4303F40033002B02D000F01E
:1019700095F820E008211148FFF775FF0346002B7A
:1019800009D10E4B5B68DB4303F40023002B02D02C
:1019900000F0BEF80FE020210848FFF764FF03467F
:1019A000002B09D1054B5B68DB4303F40013002BCC
:1019B00002D000F04FF800BF00BF80BD000C0058FF
:1019C00080B500AF4FF48010FFF7BDFE4FF40070FC
:1019D000FFF77AFE4FF40070FFF78AFE40BF20BF8A
:1019E000FFF762FE00BF80BD80B500AF4FF48010EE
:1019F000FFF790FE0648FFF7D2FE0548FFF7BFFE4F
:101A00002C2004F015F92D2004F012F900BF80BD40
:101A1000000C005880B500AF01210248FFF7F4FE2A
:101A200000BF80BD000C005880B500AF0121024806
:101A3000FFF70AFF00BF80BD000C005880B500AF63
:101A40000AF0CCFC01210248FFF7F0FE00BF80BD88
:101A5000000C005880B500AF20210348FFF7C2FEFC
:101A60000AF0ECFC00BF80BD000C005880B500AF50
:101A700002210248FFF7C8FE00BF80BD000C0058DD
:101A800080B500AF02210448FFF7DEFE02210248C4
:101A9000FFF795FE00BF80BD000C005880B500AF79
:101AA00002210348FFF79EFE0AF018FD00BF80BD2B
:101AB000000C005880B500AF0AF026FD0221024854
:101AC000FFF7B4FE00BF80BD000C005880B582B0A7
:101AD00000AF786008210C48FFF7C5FE0346002BD5
:101AE00007D00A4A7B68136008210748FFF767FEA2
:101AF00006E07B68984708210348FFF7A5FE00BF72
:101B00000837BD4680BD00BF000C0058DC03002034
:101B100080B500AF08210648FFF764FE054B1B683F
:101B2000984708210248FFF78FFE00BF80BD00BF25
:101B3000000C0058DC03002080B500AF08210248EB
:101B4000FFF762FE00BF80BD000C005880B500AFFB
:101B50000AF082FD08210248FFF768FE00BF80BD41
:101B6000000C0058D458C4500433C4188C42F9D324
:101B70007047036004308842FBD370470C488546A9
:101B800003F04CFE0B480C490C4A0023FFF7EDFF15
:101B90000B480C490023FFF7EEFF0B480B490023CD
:101BA000FFF7E9FF0FF086FE02F0C4F9FEE7000040
:101BB0000000032004000020F4010020006401085C
:101BC000B8030020D85E0020E0010320570A03205C
:101BD000FEE7000080B483B000AF7860064BD3F816
:101BE000902005497B681343C1F8903000BF0C3743
:101BF000BD465DF8047B70470008005880B485B08E
:101C000000AF78604FF0B043DA6C4FF0B0417B68C2
:101C10001343CB644FF0B043DA6C7B681340FB6036
:101C2000FB6800BF1437BD465DF8047B704780B485
:101C300085B000AF78604FF0B043D3F84C214FF03F
:101C4000B0417B681343C1F84C314FF0B043D3F837
:101C50004C217B681340FB60FB6800BF1437BD4616
:101C60005DF8047B704780B500AF03F0A5FE03F07C
:101C7000A9FE4FF48030FFF7ADFF0AF0C9FE00F077
:101C800021F800F0BFF800BF80BD0000B0B588B0FB
:101C900000AF0B4B3C1D1D460FCD0FC495E8070050
:101CA00003C422800234130C23700AF0C3FC3B1DD2
:101CB00018460AF022F800BF2037BD46B0BD00BF6D
:101CC000784B010880B588B000AF3B1D00221A6038
:101CD0005A609A60DA601A610023BB8300237B8319
:101CE00000233B830023FB7733E0FB7F424ADB008A
:101CF00013449B79002B28D0FB7F3F4A52F83330A6
:101D00003E4A93420FD03E4A934215D0B3F1904FD2
:101D100000D01BE0FB7F384ADB0013449A88BB8B62
:101D20001343BB8312E0FB7F334ADB0013449A88E2
:101D30007B8B13437B8309E0FB7F2F4ADB0013443B
:101D40009A883B8B13433B8300E000BFFB7F01334A
:101D5000FB77FB7F212BC8D90023FB600123BB60ED
:101D600003233B61BB8B002B14D0BB8B7B6001201A
:101D7000FFF744FF0120FFF75AFF3B1D19464FF0C4
:101D8000904003F08DFFBB8B002219464FF090402E
:101D900004F00EF97B8B002B12D07B8B7B60022032
:101DA000FFF72CFF0220FFF742FF3B1D19461348A7
:101DB00003F076FF7B8B00221946104804F0F8F8F8
:101DC0003B8B002B13D03B8B7B600420FFF716FF6F
:101DD0000420FFF72CFF3B1D1946094803F060FF64
:101DE0003B8B00221946064804F0E2F800BF00BF12
:101DF0002037BD4680BD00BF804D0108000400486B
:101E00000008004880B400AF00BFBD465DF8047B09
:101E1000704780B400AF00BFBD465DF8047B7047DB
:101E200080B584B000AFF8600B467A607B817A8918
:101E30007B68F968002001F0DDFC00BF1037BD466B
:101E400080BD000080B483B000AF7860074BD3F84A
:101E5000803023F0070205497B681343C1F88030C6
:101E600000BF0C37BD465DF8047B70470004005886
:101E700080B483B000AF78604FF0B0439B6823F428
:101E800000424FF0B0417B6813438B6000BF0C37BA
:101E9000BD465DF8047B704780B500AF00F014F8D4
:101EA0000849002001F02CFAFFF7DDFE0121012096
:101EB0000FF0CCFC00F0A1F800F0A6F800F012F84A
:101EC00000BF80BDD05C002080B500AF4FF4004063
:101ED000FFF7CEFF0FF0A8FC0420FFF7B3FF00BF11
:101EE00080BD000080B588B000AF0AF0EDF9002099
:101EF0000BF022FD0246174B1A6000220021012040
:101F00000BF062FE0246144B1A60144A002114487A
:101F10000BF048FB0246134B1A60134B3B60134B0C
:101F20007B603B46194612480AF094F8114BBB609F
:101F3000114BFB60114B3B6140F23C537B6107F15D
:101F4000080318460AF002FB0AF0B8F900BF203770
:101F5000BD4680BD4C5C0020545C0020904E0108C2
:101F6000E11F0008505C002024070320811F0008A7
:101F7000C11F00083C09032030080320E8010320AA
:101F800080B582B000AF0346FB71FB79002B02D015
:101F9000012B08D00DE0094B1B684FF0FF311846AC
:101FA0000BF064FD05E0054B1B6818460BF0BCFD0B
:101FB00000BF00BF0837BD4680BD00BF4C5C00209D
:101FC00080B582B000AF7860FFF760FEFEF7E8FDF5
:101FD000002101200FF03AFC00BF0837BD4680BD4C
:101FE00080B582B000AF78604FF0FF320021012051
:101FF0000BF0E0FB0AF04AF8F6E780B400AF00BF50
:10200000BD465DF8047B704780B400AF00BFBD469D
:102010005DF8047B7047000080B582B000AF786047
:10202000044B1B68012118460BF062FB00BF083708
:10203000BD4680BD505C002080B582B000AF7860A6
:10204000044B1B6818460BF0C3FE00BF0837BD46A3
:1020500080BD00BF545C002080B582B000AF7860C6
:10206000054B1B684FF0FF3118460BF04BFE00BFCD
:102070000837BD4680BD00BF545C002080B584B0E9
:1020800000AF78607B681B68234A13607B689A887E
:10209000214B9A80204B00229A717B689B7903F038
:1020A0000303DAB21C4B1A737B689B799B08DBB283
:1020B00003F00303DAB2184B5A737B689B791B0950
:1020C000DBB203F00303DAB2134B9A73124B1A7BA1
:1020D000114B5B7B9A420CD10F4B9A880E4B9B881D
:1020E0000333002B00DA03339B109BB213449BB2E3
:1020F00005E0094B9B881A46520013449BB2FB81B2
:10210000FB8918460FF0FAFB03461A46024B9A6009
:1021100000BF1037BD4680BD585C002080B584B03C
:1021200000AF4B4B9B68002B00F08E80484B9B68A8
:10213000FB60474B9B883B81454B9B79FB80002391
:102140007B710023FB720AE0414B1868791D4FF048
:10215000FF33012207F011F8FB7A0133FB72FB7A9F
:10216000032BF1D93A4B9B79002B2CD0FF237B71A9
:10217000374B1868791D4FF0FF33012206F0FDFF41
:102180000023FB7215E0FB685A1CFA601B781A46A4
:10219000FB8803FB02F31B12DBB27B712C4B18682C
:1021A000791D4FF0FF33012206F0E7FFFB7A013380
:1021B000FB72FB7A022BE6D93B89013B3B813B89D1
:1021C000002BD3D125E0FF237B71214B1868791DAB
:1021D0004FF0FF33012206F0D0FF0023FB720FE027
:1021E000FB685A1CFA601B787B71194B1868791DC3
:1021F0004FF0FF33012206F0C0FFFB7A0133FB7280
:10220000FB7A022BECD93B89013B3B813B89002BBC
:10221000D9D1FF237B710023FB720AE00C4B1868B5
:10222000791D4FF0FF33012206F0A7FFFB7A01333F
:10223000FB72FA7A064B9B880F33002B00DA0F33C0
:102240001B119A42EADB00E000BF1037BD4680BD9B
:10225000585C002080B500AF0F4B98680E4B1A7B7E
:102260000D4B5B7B9A420BD10B4B9B881A460A4B5A
:102270009B880333002B00DA03339B10134405E0E3
:10228000054B9B881A4613465B0013441A460021EF
:102290000FF047FB00BF80BD585C002080B485B0C4
:1022A00000AF03463960FB80164B9B88FA889A4240
:1022B00021D2144B9968FA8813465B0013440B44EF
:1022C000FB603B681A0C0F4B1B7B1946FB680B44E9
:1022D000D2B21A703B681A0A0A4B5B7B1946FB683C
:1022E0000B44D2B21A70074B9B7B1A46FB6813440F
:1022F0003A68D2B21A7000BF1437BD465DF8047B4D
:10230000704700BF585C002080B584B000AF786093
:102310000B467B8013463B80154B9B887A889A42FC
:1023200022D23B88002B03D1114B9B88BB810BE051
:102330007A883B881344BB810D4B9B88BA899A42AB
:1023400002D90B4B9B88BB817B88FB8107E0FB8913
:1023500079681846FFF7A2FFFB890133FB81FA89F0
:10236000BB899A42F3D300E000BF1037BD4680BD61
:10237000585C002080B483B000AF0346FB71FB794A
:102380000133DAB2034B9A7100BF0C37BD465DF8DA
:10239000047B7047585C002080B586B002AF0346CE
:1023A0000A46FB711346BB717823FB81BB793B73F3
:1023B000FB797B7307F10C02F9894FF0FF3300932F
:1023C0000223034803F0D8FE00BF1037BD4680BD8E
:1023D000745C002080B500AF0021AE20FFF7DCFF69
:1023E0000021D520FFF7D8FF00218020FFF7D4FF80
:1023F0000021A820FFF7D0FF00212720FFF7CCFF06
:102400000021D320FFF7C8FF00210020FFF7C4FF01
:102410000021AD20FFF7C0FF00213020FFF7BCFFF7
:1024200000218D20FFF7B8FF00211420FFF7B4FF33
:1024300000214020FFF7B0FF0021A620FFF7ACFFEE
:102440000021A420FFF7A8FF0021A120FFF7A4FF8F
:102450000021C820FFF7A0FF0021DA20FFF79CFF32
:1024600000211220FFF798FF00218120FFF794FF41
:102470000021AF20FFF790FF0021D920FFF78CFF4C
:1024800000212220FFF788FF0021DB20FFF784FFD7
:1024900000212020FFF780FF0021AF20FFF77CFF05
:1024A00000BF80BD80B485B000AF78600023FB60C2
:1024B00007E0FB687A68134400221A70FB68013356
:1024C000FB60FB68B3F5B47FF3DB00BF1437BD4698
:1024D0005DF8047B704780B485B000AFF860B960E8
:1024E0003B601346FB71FB68482B61DCBB68282B03
:1024F0005EDCFB79002B2CD0BB68002B00DA0733A5
:10250000DB101A461346DB001344DB001946FB6858
:102510000B4419463B680B441B7859B2BB685842C0
:1025200003F0070300F0070058BF4342012000FA00
:1025300003F35BB20B4359B21346DB001344DB00D9
:102540001A46FB6813441A463B681344CAB21A7011
:102550002FE0BB68002B00DA0733DB101A46134666
:10256000DB001344DB001946FB680B4419463B684B
:102570000B441B7859B2BB68584203F0070300F0C4
:10258000070058BF4342012000FA03F35BB2DB436C
:102590005BB20B4059B21346DB001344DB001A4612
:1025A000FB6813441A463B681344CAB21A7000E031
:1025B00000BF1437BD465DF8047B704790B587B007
:1025C00000AF0446084611461A462346FB710346EF
:1025D000BB710B467B7113463B71BB793B74802307
:1025E0007B8208237B747B79203BFB733B79202B18
:1025F00004D14FF400437B8210237B740023FB75CE
:10260000B1E03B790C2B1DD197F82830002B0BD073
:10261000FA7BF97D584813465B0013449B00034442
:102620000B441B78BB826CE0FA7BF97D5248134661
:102630005B0013449B0003440B441B789BB2DB43B9
:10264000BB825EE03B79102B17D197F82830002B26
:1026500008D0FA7BFB7D494912010A4413441B78D8
:10266000BB824EE0FA7BFB7D444912010A441344CD
:102670001B789BB2DB43BB8243E097F82830002BEA
:102680001CD0FB7BA3F11002FB7D5B003C49920157
:102690000A4413441B789BB21B02BB82FB7BA3F151
:1026A0001002FB7D5B000133354992010A4413445B
:1026B0001B789AB2BB8A1343BB8222E0FB7BA3F157
:1026C0001002FB7D5B002E4992010A4413441B78E3
:1026D0009BB2DB439BB21B02BB82FB7BA3F11002CC
:1026E000FB7D5B000133264992010A4413441B78A9
:1026F0009BB2DB439BB21AB2B7F9143013431BB23F
:10270000BB820023BB7527E0BA8A7B8A13409BB249
:10271000002B06D0F879B979FB6A0122FFF7DBFEBE
:1027200005E0F879B979FB6A0022FFF7D4FEBB8A8D
:102730005B00BB82BB790133BB71BA793B7CD21A97
:102740003B799A4205D13B7CBB71FB790133FB712C
:1027500006E0BB7D0133BB75BA7D7B7C9A42D3D347
:10276000FB7D0133FB75FA7D3B799A42FFF449AF5B
:1027700000BF1C37BD4690BDB44E01082853010868
:102780001859010890B585B002AF3A601A46034661
:10279000FB710B46BB7113467B712CE0FA797B7998
:1027A0005B08DBB2C3F148039A420FDD0023FB71E3
:1027B000BA797B791344BB71BA797B79C3F1280369
:1027C0009A4203DD0023FB71FB79BB713B681A78E9
:1027D0007C79B979F879FB6901933B7E00932346B4
:1027E000FFF7ECFE7B795B08DAB2FB791344FB71EF
:1027F0003B6801333B603B681B78002BCED100BFA8
:102800000C37BD4690BD80B584B000AF3A601A4623
:102810000346FB710B46BB7113467B717B79073313
:10282000002B00DA0733DB107B730023BB732CE033
:102830000023FB7322E0BB7B7A7B02FB03F3FA7B72
:10284000D208D2B213441A463B6813441B78194687
:10285000FB7B03F00703802242FA03F30B40002BBB
:1028600009D0FA79FB7BD018BA79BB7BD118FB6908
:102870000122FFF730FEFB7B0133FB73FA7B7B7990
:102880009A42D8D3BB7B0133BB73BA7B3B7E9A425F
:10289000CED300BF1037BD4680BD80B584B000AF39
:1028A00078600023FB7329E0FB7B503BDBB2002107
:1028B0001846FFF771FD00210C20FFF76DFD002188
:1028C0001120FFF769FD0023BB7311E0B97BFA7B90
:1028D0001346DB001344DB000B441A467B681344A9
:1028E0001B7840211846FFF757FDBB7B0133BB73B4
:1028F000BB7B472BEAD9FB7B0133FB73FB7B042BB0
:10290000D2D900BF1037BD4680BD80B5DEB002AF62
:102910003B1D186007F108031846FFF7C3FD3B1D78
:102920001B683A1D591C11601A7807F108030193BE
:1029300001230093202304210020FFF73FFE3B1DCD
:102940001B683A1D591C11601A7807F1080301939E
:1029500001230093202304211020FFF72FFE3B1DAD
:102960001B683A1D591C11601A7807F1080301937E
:1029700001230093202304212820FFF71FFE3B1D85
:102980001B681A7807F108030193012300932023A1
:1029900004213820FFF712FE07F1080301220C2161
:1029A0002420FFF798FD07F1080301220D212420C0
:1029B000FFF791FD07F1080301220E212420FFF704
:1029C0008AFD07F1080301221C212420FFF783FD63
:1029D00007F1080301221B212420FFF77CFD07F1EA
:1029E000080301221A212420FFF775FD07F10803CF
:1029F0001846FFF752FF00BF07F5B877BD4680BD08
:102A000080B5E0B002AF3B1D186007F10C0318461B
:102A10004FF4B4731A4600210EF083FF3B1D1A6871
:102A20001E4B83FB02139910D317C91A0B469B0048
:102A30000B445B00D11ACBB2303387F877313B1DA2
:102A40001B68164A82FB03129210DB17D31ADBB203
:102A5000303387F8763197F8762107F10C0301932C
:102A6000012300930C230E211B20FFF7A7FD97F8ED
:102A7000772107F10C030193012300930C230E210E
:102A80002420FFF79BFD07F10C031846FFF705FF15
:102A900000BF07F5BC77BD4680BD00BF67666666B0
:102AA00080B483B000AF786000BF0C37BD465DF8DE
:102AB000047B704780B483B000AF7860064BD3F8D6
:102AC000802005497B681343C1F8803000BF0C3774
:102AD000BD465DF8047B70470008005880B483B0A1
:102AE00000AF7860054B1A6804497B6813430B609C
:102AF00000BF0C37BD465DF8047B704700080058E6
:102B000080B483B000AF0D4B9B6A9BB27B600B4BD4
:102B10009B6A9BB23B6005E03B687B60074B9B6A0E
:102B20009BB23B607A683B689A42F5D13B68184695
:102B30000C37BD465DF8047B704700BF002800409D
:102B400080B485B000AF03460A46FB711346BB71E3
:102B5000BA791D4913465B001344DB000B4415335F
:102B60001B78FB73FB7B062B09D0FA7B16491346B7
:102B70005B001344DB000B441433FA791A70FA79C2
:102B8000114913465B001344DB000B441533FA7BF9
:102B90001A70FA790C4913465B001344DB000B44AE
:102BA0001433BA791A70BA79074913465B00134493
:102BB000DB000B441533FA791A7000BF1437BD4699
:102BC0005DF8047B704700BFC802002080B485B068
:102BD00000AF03460A46FB711346BB71294B1B78B5
:102BE000DBB2BA799A4232D0BA79274913465B00F0
:102BF0001344DB000B4414331B78FB73FA7B22492C
:102C000013465B001344DB000B441533FA791A704A
:102C1000FA791D4913465B001344DB000B4415335E
:102C2000BA791A70FA79184913465B001344DB002D
:102C30000B441433FA7B1A70BA79134913465B00BC
:102C40001344DB000B441433FA791A7014E0FA7958
:102C50000D4913465B001344DB000B441533BA796E
:102C60001A70BA79084913465B001344DB000B4421
:102C70001433FA791A7000BF1437BD465DF8047B2F
:102C8000704700BF58030020C802002080B584B000
:102C900000AF0346FB714E4B1B78DBB2062B18D1FD
:102CA0004B4B1B78DAB24B4B1A70494AFB791370C5
:102CB000FA79494913465B001344DB000B44153392
:102CC00006221A70454B4FF0FF321A600023FB8139
:102CD00078E000F009F90346FB81FA793E49134692
:102CE0005B001344DB000B4408331968FB89FA7955
:102CF0001944394813465B001344DB00034408338E
:102D00001960FA79344913465B001344DB000B4425
:102D100008331B68BB602E4B1B78DBB219462E4A6A
:102D20000B465B000B44DB00134408331B68BA6896
:102D30009A4237D3264B1B787B737A7B26491346FE
:102D40005B001344DB000B4415331B783B7313E02B
:102D50007A7B214913465B001344DB000B44153397
:102D60001B787B737A7B1C4913465B001344DB00A2
:102D70000B4415331B783B733B7B062B0BD03A7B04
:102D8000154913465B001344DB000B4408331B68F2
:102D9000BA689A42DCD27A7BFB7911461846FFF773
:102DA000CFFE0FE00A4B1B78DAB2FB7911461846CA
:102DB000FFF70CFF064B1B78DAB2064B1A70044A79
:102DC000FB791370FB8918461037BD4680BD00BFE4
:102DD0005803002059030020C80200205C03002093
:102DE00080B485B000AF03460A46FB711346BB7141
:102DF000394B1B78DBB2FA799A4211D1364B1B78EA
:102E0000DAB2364B1A70FA79354913465B0013442F
:102E1000DB000B4415331B78DAB22F4B1A703EE0FF
:102E2000FA792F4913465B001344DB000B4414333B
:102E30001B78FB73FA792A4913465B001344DB00C5
:102E40000B4415331B78BB73F979FA7B24480B4686
:102E50005B000B44DB00034415331B78D8B22049D8
:102E600013465B001344DB000B44153302461A7013
:102E7000BB7B062B13D0F979BA7B19480B465B0054
:102E80000B44DB00034414331B78D8B214491346B7
:102E90005B001344DB000B44143302461A70FA79CA
:102EA0000F4913465B001344DB000B440C33012233
:102EB0001A70094B1B78DBB2062B07D1BB79002BAC
:102EC00004D1084B4FF0FF321A6000BF00BF143727
:102ED000BD465DF8047B704758030020590300206D
:102EE000C80200205C03002080B582B000AF1A4BFE
:102EF0001B68B3F1FF3F26D0FFF702FE7860164B48
:102F00001B687A689A4205D8134B1A687B68D31AF3
:102F10007B600AE0114B1B881A467B68D31A3B6022
:102F20000D4B1B683A6813447B600D4B1B781A46A7
:102F30007B6802FB03F37B600A4B1B781A467B68B5
:102F4000D3407B6001E000237B607B689BB2184626
:102F50000837BD4680BD00BF5C030020E6030020AB
:102F6000E5030020E403002080B582B000AF0346F3
:102F7000FB80FB88002B08D1FFF7C2FD0246244BE3
:102F80001A60032002F070FE3EE0FB88012B03D89C
:102F9000204B1B78012B02D0FB88013BFB8000BF3C
:102FA0001D4B1B681B68DB6803F00403002BF7D084
:102FB000194B1B681B68DB68DAB2174B1B681B6870
:102FC00062F49062DA60154B4FF40022DA6003205D
:102FD00002F058FE124B5B691B0C1B04FA88104967
:102FE00013434B61FFF78CFD0246094B1A600A4BF5
:102FF0001B681B689A68084B1B681B6842F4806258
:103000009A60AFF3008000BF0837BD4680BD00BFA7
:103010005C030020E4030020E003002000080058C7
:103020000028004080B584B000AF474B9B6803F494
:103030008063B3F5806F08D100BF444B1B681B68E9
:10304000DB6803F00403002BF7D1404B1B681B68BF
:103050009A683E4B1B681B6822F480629A603C4B66
:103060001B78FB73FA7B3B4913465B001344DB0080
:103070000B4408331B68BB60FFF736FF0346FB8039
:10308000FB88BA689A4205D20023BB81324B0122E9
:103090001A704DE0FB88314A128892B213441A46E6
:1030A000BB68934206D92D4B1B88BB812A4B00225B
:1030B0001A703DE0BB689AB2FB88D31ABB81264BDD
:1030C00001221A7034E0FA7B224913465B00134454
:1030D000DB000B4408331A68FB889A420AD2FA7B59
:1030E0001C4913465B001344DB000B4408330022E9
:1030F0001A6013E0FA7B174913465B001344DB00A8
:103100000B4408331968FB88FA7BC91A1148134627
:103110005B001344DB00034408331960FA7B0D495C
:1031200013465B001344DB000B4415331B78FB7321
:10313000FB7B062BC7D1BB891846FFF715FF00BFE5
:103140001037BD4680BD00BF00280040E0030020CE
:1031500058030020C802002060030020E80300207C
:1031600080B58AB000AFEFF310837B617B697B622F
:1031700072B65E4B1B681B68CA225A625B4B1B68A7
:103180001B6853225A62594B1B681B689A68574B3D
:103190001B681B6822F480629A60554B1B7887F885
:1031A000233097F82320534913465B001344DB0078
:1031B0000B440C331B78DBB2022B70D197F8232021
:1031C0004C4913465B001344DB000B441B68FB6156
:1031D00097F82320474913465B001344DB000B4458
:1031E00010331B68BB61444B1B78DBB2002B4ED005
:1031F00097F823203F4913465B001344DB000B4440
:103200000D331B78DBB2012B25D197F82330012138
:103210001846FFF7E5FD7B6A3B613B6983F3108845
:1032200097F82320334913465B001344DB000B441B
:1032300004331A6897F823301146184600F046FA0E
:103240002A4B1B681B68CA225A62284B1B681B68E2
:1032500053225A6213E07B6AFB60FB6883F3108899
:1032600097F82330184600F0A7F9204B1B681B681D
:10327000CA225A621D4B1B681B6853225A6297F878
:103280002330FA691946B86900F0A6FA24E0FFF77E
:10329000C9FE7B6ABB60BB6883F310881CE000BF7B
:1032A000124B1B681B68DB6803F00403002BF7D08C
:1032B0000E4B1B681B68DB68DAB20C4B1B681B6883
:1032C00062F49062DA600D4B4FF40022DA607B6AA0
:1032D0007B607B6883F31088044B1B681B68FF22AC
:1032E0005A6200BF2837BD4680BD00BFE003002002
:1032F00058030020C8020020600300200008005886
:1033000080B588B000AF03463960FB71644A3B6802
:103310001360634B1B681B68CA225A62604B1B68B0
:103320001B6853225A625F4B9B685E4A43F020033E
:1033300093605C4B9B68DBB203F00703DBB2C3F125
:103340000403DAB2584B1A70564B1B6903F4FE03A0
:103350004FF4FE023A613A6992FAA2F2FA60FA6810
:103360007A617A69002A01D1202203E07A69B2FAEF
:1033700082F2D2B2D340DBB20133DAB24B4B1A70D5
:10338000484B1B699BB2C3F30E039BB201339AB245
:10339000474B1A80464B1B88013B444A127802FB7C
:1033A00003F3A3F5A073404A1278D340BB61BB6915
:1033B0004FF6FE72934204D93E4B4FF6FF721A80CD
:1033C00003E0BB699AB23B4B1A804FF40020FFF731
:1033D00085FB4FF40020FFF76DFBFB79002B43D1F9
:1033E000354B01221A70354B4FF0FF321A60002323
:1033F000FB770CE0FA7F324913465B001344DB0095
:103400000B440C3300221A70FB7F0133FB77FB7FE8
:10341000052BEFD92B4B06221A70214B1B681B681A
:103420009A681F4B1B681B6822F480629A601C4BD1
:103430001B681B68DB68DAB2194B1B681B6862F4F7
:103440009062DA60204B4FF40022DA60032002F031
:1034500019FC134B1B681B689A68114B1B681B688F
:1034600042F480429A600AE00D4B1B681B68DB68DF
:1034700003F48063002B02D0032002F0F5FB084B1D
:103480001B681B68FF225A6200220621032002F0FB
:10349000B5FB032002F0CCFB00BF2037BD4680BD4A
:1034A000E003002000280040E4030020E5030020A2
:1034B000E6030020E8030020600300205C030020F6
:1034C000C8020020580300200008005880B48BB0C8
:1034D00000AFF860B9603B601346FB71002387F8CA
:1034E0002630EFF31083FB61FB693B6272B604E0A8
:1034F00097F82630013387F8263097F82630052BC9
:103500000CD897F826202B4913465B001344DB00A8
:103510000B440C331B78DBB2002BE9D197F8263033
:10352000062B37D097F82620224913465B00134418
:10353000DB000B440C3301221A703B6ABB61BB6990
:1035400083F3108897F826201A4913465B0013442A
:10355000DB000B441033FA681A6097F826201549EF
:1035600013465B001344DB000B440D33FA791A70E9
:1035700097F826200F4913465B001344DB000B44E9
:103580003A681A60BB6897F826201A70002387F8FB
:10359000273007E03B6A7B617B6983F31088012356
:1035A00087F8273097F8273018462C37BD465DF846
:1035B000047B7047C802002080B586B000AF034688
:1035C000FB71EFF31083FB60FB687B6172B6032035
:1035D00002F03CFB374B1B681B68CA225A62354B12
:1035E0001B681B6853225A62FA79334913465B0001
:1035F0001344DB000B440C331B78DBB2022B48D1A5
:10360000FB7900211846FFF7EBFB2C4B1B78FB7472
:10361000FB7C062B35D12A4B9B6803F48063B3F502
:10362000806F08D100BF234B1B681B68DB6803F069
:103630000403002BF7D11F4B1B681B689A681D4BB6
:103640001B681B6822F480629A6000BF194B1B68DC
:103650001B68DB6803F00403002BF7D0154B1B68D5
:103660001B68DB68DAB2134B1B681B6862F490625C
:10367000DA60144B4FF40022DA60032002F002FB00
:1036800007E0114B1B78DBB2FA7C9A4201D0FFF7BE
:10369000C9FC084B1B681B68FF225A62032002F01A
:1036A000C7FA7B69BB60BB6883F3108800BF18371B
:1036B000BD4680BDE0030020C80200205803002062
:1036C00000280040000800585903002080B586B04B
:1036D00000AF03463960FB71FA793B4913465B0042
:1036E0001344DB000B440C331B78DBB2022B03D1F9
:1036F000FB791846FFF760FFEFF31083FB60FB6870
:103700007B6172B6032002F0A1FA304B1B681B6884
:10371000CA225A622D4B1B681B6853225A62FA79DF
:10372000294913465B001344DB000B440C3302228F
:103730001A70FA79244913465B001344DB000B44EA
:1037400008333A681A60FA791F4913465B0013443C
:10375000DB000B4404333A681A60FB791846FFF724
:1037600095FA03467B821A4B1B787B74194B1B78A6
:10377000DBB27A7C9A4202D0FFF754FC13E0FA796C
:10378000114913465B001344DB000B4408331968EE
:103790007B8AFA79C91A0C4813465B001344DB0094
:1037A000034408331960094B1B681B68FF225A62E7
:1037B000032002F03DFA7B69BB60BB6883F310888D
:1037C00000BF1837BD4680BDC8020020E0030020BE
:1037D000580300205903002080B584B000AFF86082
:1037E0000B467A60FB727B68984700BF1037BD4676
:1037F00080BD000080B487B000AFB9607B60034635
:10380000FB731346BB810023BB750023FB7500BF10
:10381000BB7D032B16D801A252F823F02D380008E7
:1038200033380008393800083F3800080023FB759A
:1038300009E00123FB7506E00223FB7503E0032387
:10384000FB7500E000BFFB7D18461C37BD465DF8E8
:10385000047B704780B489B000AF78600023FB61BF
:1038600002E0FB690133FB61FB6901331F4A52F837
:1038700023307A689A42F4DC1C4AFB6952F8233000
:10388000BB61FB690133194A52F823307B61184A46
:10389000FB6952F823303B61FB690133144A52F84B
:1038A0002330FB60FA683B69D31A7968BA698A1ACF
:1038B00002FB03F307EE903AF8EEE76A7A69BB6918
:1038C000D31A07EE903AB8EEE77AC6EE877AFDEEA5
:1038D000E77A17EE903ABB603A69BB681344184622
:1038E0002437BD465DF8047B704700BFFC5B0108D0
:1038F000D85B010890B583B000AF786039607B6811
:10390000002B01D178232CE03B68002B01D1002350
:1039100027E03B6807EE903AB8EEE77A7A683B68B2
:10392000134407EE903AF8EEE77AC7EE276A16EEF0
:10393000900AFCF7E1FD4FF000020C4BFCF734FE5F
:1039400003460C4644EC173BB0EE470AF0EE670A1C
:1039500010F038FD54EC103B18462146FDF7D4F822
:10396000034618460C37BD4690BD00BF00005E40C0
:1039700080B58AB000AF786000237B627B68043337
:103980001A687B680C331B689A4220DD7B68083319
:103990001A687B680C331B689A4218DD7B68043315
:1039A0001A687B680C331B68D31A3B627B68083348
:1039B0001A687B680C331B68D31AFB61F969386A93
:1039C000FFF798FF02467B6A13447B6242E07B6804
:1039D00008331A687B6804331B689A4221DD7B68D0
:1039E0000C331A687B6804331B689A4219DD7B68C4
:1039F00008331A687B6804331B68D31ABB617B6881
:103A00000C331A687B6804331B68D31A7B617969AD
:103A1000B869FFF76FFF034678337A6A13447B6215
:103A200018E07B680C331A687B6808331B68D31A6C
:103A30003B617B6804331A687B6808331B68D31AC0
:103A4000FB60F9683869FFF755FF0346F0337A6A7F
:103A500013447B627B6A0B4A82FB03121A441112E5
:103A6000DA178A1A4FF4B47101FB02F29B1A7B62D7
:103A7000786AFFF7EFFEB860BB6818462837BD4686
:103A800080BD00BFB7600BB680B584B000AF786072
:103A90007868FFF76DFFF860FB68044A82FB031249
:103AA000DB17D31A18461037BD4680BDABAAAA2A29
:103AB00080B582B000AF78607B681B680A2B02DC9F
:103AC0004FF0FF3303E07868FFF7DEFF0346184648
:103AD0000837BD4680BD80B586B000AF786007F17D
:103AE0000C0308221946062000F088F800237B61A9
:103AF00019E07B695B00013307F11802134413F8E6
:103B00000C3C1A027B695B0007F118010B4413F8A7
:103B10000C3C18467B699B0079680B4402431A6091
:103B20007B6901337B617B69032BE2DD00BF1837C2
:103B3000BD4680BD80B586B004AF0123FB713B4616
:103B400000221A601A710EE04FF0FF330293012336
:103B50000193BB1D0093012300228821264802F017
:103B600013FD0346FB71FB79012BEDD0BB793C2B98
:103B700001D001233CE0642001F05DFB0E233B708B
:103B80000123FB710EE04FF0FF33029301230193F9
:103B90003B46009301230D228821174802F0E0FBE9
:103BA0000346FB71FB79012BEDD0642001F043FB50
:103BB00000233B7009237B700023BB700623FB703E
:103BC00000233B710123FB710EE04FF0FF330293A2
:103BD000052301933B4600930123092288210648CF
:103BE00002F0BEFB0346FB71FB79012BEDD00023F5
:103BF00018460837BD4680BD745C002080B588B08B
:103C000004AF03463960FB711346BB714FF49673E2
:103C10007B810023FB8101237B7314E0FB7999B244
:103C2000BB799BB24FF0FF32029201933B68009345
:103C300001230A4688210D4802F0A6FC03467B7347
:103C4000FB890133FB817B7B012B03D1FA897B89C3
:103C50009A42E3D3FA897B899A4201D3012300E097
:103C6000002318461037BD4680BD00BF745C00209D
:103C700080B584B000AF3B4600221A605A609A605B
:103C8000DA603B461846FFF726FF3B461846FFF72B
:103C90000FFF034618461037BD4680BD80B483B081
:103CA00000AF7860074BD3F880207B68DB43054981
:103CB0001340C1F8803000BF0C37BD465DF8047B6F
:103CC000704700BF0008005880B483B000AF786030
:103CD000074BD3F890207B68DB4305491340C1F8BC
:103CE000903000BF0C37BD465DF8047B704700BFC5
:103CF0000008005880B483B000AF78604FF0B04344
:103D00000A4AC3F89C204FF0B043D3F89C3023F408
:103D10007C527B681B024FF0B0411343C1F89C30CA
:103D200000BF0C37BD465DF8047B7047FECAFECA73
:103D300080B483B000AF78604FF0B043D3F89030D8
:103D400023F018024FF0B0417B681343C1F8903064
:103D500000BF0C37BD465DF8047B704780B400AFF0
:103D60004FF0B043D3F890304FF0B04243F480337B
:103D7000C2F8903000BFBD465DF8047B704780B448
:103D800000AF4FF0B043D3F890304FF0B04223F47F
:103D90008033C2F8903000BFBD465DF8047B7047A9
:103DA00080B400AF4FF0B043D3F8943003F0806399
:103DB000B3F1806F01D1012300E000231846BD4616
:103DC0005DF8047B704780B400AF4FF0B043D3F888
:103DD000943003F08053B3F1805F01D1012300E000
:103DE00000231846BD465DF8047B704780B485B05B
:103DF00000AF78604FF0B043DA6C4FF0B0417B68B1
:103E00001343CB644FF0B043DA6C7B681340FB6024
:103E1000FB6800BF1437BD465DF8047B704780B473
:103E200085B000AF78604FF0B0431A6D4FF0B041ED
:103E30007B6813430B654FF0B0431A6D7B681340EA
:103E4000FB60FB6800BF1437BD465DF8047B70471C
:103E500080B483B000AF786039607B685A683B6893
:103E60001B041A437B685A6000BF0C37BD465DF8DF
:103E7000047B704780B483B000AF786039607B68A2
:103E80005A683B681A437B685A6000BF0C37BD46CE
:103E90005DF8047B704780B483B000AF7860396010
:103EA0007B685A693B681B041A437B685A6100BFF0
:103EB0000C37BD465DF8047B704780B483B000AF1B
:103EC000786039607B685A693B681A437B685A613D
:103ED00000BF0C37BD465DF8047B704780B483B0EB
:103EE00000AF786039607B683A689A6000BF0C3731
:103EF000BD465DF8047B704780B483B000AF786046
:103F000039607B683A689A6100BF0C37BD465DF83E
:103F1000047B704780B400AF054B1B69044A23F053
:103F20000403136100BFBD465DF8047B704700BF0A
:103F300000ED00E080B500AF464B4FF400421A613F
:103F400001F0E2FC01F029F901F013F900F0CEF8DC
:103F500001F008F901F063F900F0DCFA00F046F92D
:103F600000F0EAF900F082F900F088F900F022FA96
:103F700009F0AEFA384809F0DFFC0246374B1A6008
:103F8000374809F0D9FC0246364B1A60364809F02A
:103F9000D3FC0246354B1A60354A0221102009F045
:103FA0006FFF0246334B1A60334A0821102009F094
:103FB00067FF0246314B1A60314A0021314809F04F
:103FC000F1FA0246304B1A60304A0021304809F0BD
:103FD000E9FA02462F4B1A602F4A00212F4809F0B8
:103FE000E1FA02462E4B1A602E4A00212E4809F0B3
:103FF000D9FA02462D4B1A602D4A00212D4809F0AE
:10400000D1FA02462C4B1A602C4A00212C4809F0A8
:10401000C9FA02462B4B1A602B4A00212B4809F0A3
:10402000C1FA02462A4B1A602A4A00212A4809F09E
:10403000B9FA0246294B1A60294A0021294809F099
:10404000B1FA0246284B1A60FDF726FF09F074FA10
:10405000FEE700BF0040005864600108445C002097
:1040600074600108C45C002084600108045D0020C5
:1040700034600108545D00204C600108385C002069
:10408000F05E0108A1460008F45C0020145F0108FE
:10409000914800086C5C0020385F0108254B00083F
:1040A000685C00205C5F01084D4C0008585D0020F2
:1040B000805F0108894C0008005D0020A45F0108B2
:1040C000914E0008C05C0020C85F0108C14E000886
:1040D000FC5C0020EC5F0108BD4F0008705C002014
:1040E0001060010849500008F85C002080B5AEB0AF
:1040F00000AF07F170034822002118460DF011FCB3
:1041000007F1540300221A605A609A60DA601A615B
:104110005A619A613B1D5022002118460DF001FCA6
:1041200002F000FE0020FFF703FE2F4B1B6823F474
:10413000C0632D4A43F4007313602B4B1B6803F4D8
:10414000C0633B603B6807233B674FF480337B676A
:104150000123BB674FF48073FB674023C7F88030AF
:104160000023C7F89C3007F17003184603F07AF972
:104170000346002B01D001F095F86F237B650223E5
:10418000BB650023FB6500233B6600237B660023A1
:10419000BB660023FB6607F154030121184603F0B8
:1041A000EDFC0346002B01D001F07CF843F603033D
:1041B0007B600023FB6100233B624FF480737B64D0
:1041C0004FF48043BB640223FB6410233B653B1D1B
:1041D000184604F02EF90346002B01D001F062F8D6
:1041E00000BFB837BD4680BD0004005880B500AFA1
:1041F0001B4B1C4A1A601A4B1B4A5A60184B002270
:104200009A60174B0122DA60154B00221A61144B99
:1042100000225A61124B00229A61114B0022DA618E
:104220000F4B00221A620E4801F016FF0346002BC6
:1042300001D001F037F80021094802F0DBFC034609
:10424000002B01D001F02EF80021054802F01DFDE1
:104250000346002B01D001F025F800BF80BD00BF50
:10426000745C002000540040380F300080B400AF70
:1042700000BFBD465DF8047B7047000080B586B086
:1042800000AF2B4B2B4A1A60294B00225A60284B57
:104290007F229A60264BFF22DA60254B00221A61AA
:1042A000234B00229A61224B0022DA61204B00222C
:1042B0005A611F4804F043FB0346002B01D000F075
:1042C000F1FF3B1D00221A605A609A60DA601A61A1
:1042D00000233B6000233B7100237B710023BB71F3
:1042E0000023BB6000233B6100237B613B1D012257
:1042F00019460F4804F0C1FB0346002B01D000F023
:10430000D1FF01233B7001237B700123BB7000238D
:10431000FB703B4601221946054804F0CEFC0346DB
:10432000002B01D000F0BEFF00BF1837BD4680BD96
:10433000D05C00200028004080B500AF1B4B1C4A19
:104340001A601A4B4FF482725A60184B4FF40042B5
:104350009A60164B4FF4E062DA60144B00221A6147
:10436000124B00225A61114B4FF400729A610F4BAD
:104370000022DA610D4B00221A620C4B00225A62B5
:104380000A4B00229A62094B0722DA62074B00228D
:104390001A63064B08225A63044804F04BFE034696
:1043A000002B01D000F07EFF00BF80BD5C5D0020CF
:1043B0000030014080B59CB000AF07F160030022DF
:1043C0001A605A609A60DA6007F1540300221A609A
:1043D0005A609A6007F1380300221A605A609A60A6
:1043E000DA601A615A619A613B1D34220021184635
:1043F0000DF097FA454B464A1A60444B00225A602A
:10440000424B00229A60414B6422DA603F4B00220B
:104410001A613E4B00225A613C4B00229A613B4894
:1044200005F076F90346002B01D000F03BFF4FF476
:1044300080533B6607F160031946344805F002FEDD
:104440000346002B01D000F02DFF304805F006FA9E
:104450000346002B01D000F025FF00237B650023DD
:10446000BB650023FB6507F154031946274806F096
:104470006FFA0346002B01D000F014FF6023BB63EA
:104480006423FB6300233B6400237B640423BB643D
:104490000023FB6400233B6507F138030022194623
:1044A0001A4805F0BFFC0346002B01D000F0FAFECD
:1044B00000237B600023BB600023FB6000233B6183
:1044C00000237B614FF40053BB610023FB61002399
:1044D0003B6200237B624FF00073BB620023FB62F0
:1044E00000233B6300237B633B1D1946074806F00E
:1044F0008FFA0346002B01D000F0D4FE034801F0F0
:1045000021F800BF7037BD4680BD00BF085D0020A8
:10451000002C014080B586B000AF3B1D00221A6020
:104520005A609A60DA601A610420FFF75FFC02208B
:10453000FFF75CFC0120FFF759FC00220121214814
:1045400001F036FD01237B600123BB600023FB608B
:1045500000233B613B1D19461A4801F0A1FB38239B
:104560007B60194BBB600123FB603B1D194615485E
:1045700001F096FB10237B600123BB600123FB60ED
:104580003B1D19464FF0904001F08AFB00220F219D
:10459000092001F033FB092001F04AFB00220F2122
:1045A0000A2001F02BFB0A2001F042FB00220F2120
:1045B000172001F023FB172001F03AFB00BF18374A
:1045C000BD4680BD000400480000311080B586B0B3
:1045D00002AF0346FB800023FB600C4B1868F98890
:1045E00007F10C030093002303220CF0ABFCFB68E3
:1045F000002B07D0064B4FF080521A60BFF34F8F4D
:10460000BFF36F8F00BF1037BD4680BD685C0020D0
:1046100004ED00E080B58CB000AF78601D4B1B68E6
:104620004FF0FF31184609F021FA07F11803012273
:104630001946194804F0E5FA07F114030122194656
:10464000154804F0E8FB134B1B68184609F06CFA98
:104650003B7E184604F09CFC034687F82F307B7E97
:10466000184604F095FC034687F82E3097F82F2063
:1046700097F82E3007F10C0008490DF0EBFE07F11A
:104680000C030522194678680DF004FF00BF30378F
:10469000BD4680BD445C0020D05C0020604C010819
:1046A00080B5ADF5047D02AF3B1D186001220121EC
:1046B000704801F07DFCFDF78DFE07F19C03184664
:1046C000FDF7F0FE07F19C030193012300930C23F7
:1046D000694A0E210620FEF755F807F19C0318469B
:1046E000FEF7DBF840F6B83009F0F8F807F19C0364
:1046F0001846FDF7D7FE07F19C031846FEF7CDF8E4
:1047000007F19B0301221A7007F19B024FF0FF3360
:10471000002100200CF006FB07F19B031B78013BF6
:10472000032B00F29A8001A252F823F03D470008C3
:1047300071480008014800085347000807F10C03BE
:104740001846FFF767FF07F10C031846FEF7DDF880
:104750008FE007F19C031846FDF7A4FE474B1B684A
:104760004FF0FF31184609F081F9454B93F880303E
:1047700087F80732414B1B68184609F0D5F997F8BE
:104780000732012B0BD107F19C03019328230093DF
:1047900048233C4A00210020FEF735F81AE097F83C
:1047A0000732022B0BD107F19C03019328230093BE
:1047B0004823354A00210020FEF725F80AE007F1DA
:1047C0009C030193012300931823304A0E210020FB
:1047D000FDF7D8FF07F19C031846FEF75EF84FF48B
:1047E0007A7009F07BF80021A720FDF7D5FD4FF482
:1047F0007A7009F073F80021A620FDF7CDFD38E0AE
:104800001E4B1B684FF0FF31184609F02FF907F1D6
:10481000180380221A4918460DF03CFE174B1B68FE
:10482000184609F081F907F19C031846FDF73AFE96
:1048300007F1180207F19C030193012300930C2355
:104840000E210020FDF79EFF07F19C031846FEF79E
:1048500024F8052009F042F80BE007F19C03184604
:10486000FDF720FE07F19C031846FEF716F800E05E
:1048700000BF49E7000400487C4C0108C45C0020EC
:10488000C05D0020205C0108885D0108844C01089F
:1048900080B58AB000AF7860012210214FF09040BF
:1048A00001F086FB984B1B684FF0FF31184609F06A
:1048B000DDF8964B05221A70944B01225A70934BE7
:1048C00041F288325A60904B1B68184609F02CF967
:1048D0008F4BFB600C233B820623BB7407F10C0358
:1048E0001846FDF7CBFBFDF7B5FCFDF717FC1423CD
:1048F000FB753323BB75FB7D1846FDF73BFD4FF47D
:104900007A7008F0EBFF012387F827300023BB847F
:10491000002387F82330002387F822300023FB612F
:10492000794B1B684FF0FF31184609F09FF8774B21
:104930001B787B75754B5B68002B06D0754B186830
:104940000023022200210CF047FA6F4B1B68184627
:1049500009F0EAF897F827207B7D9A4207D00023D8
:10496000BB84002387F82330002387F822307B7D27
:10497000023B032B00F2B38001A252F823F000BFE8
:10498000F94A0008F94A000891490008374A000826
:1049900097F827207B7D9A4205D00C2200216FF0EA
:1049A0007F40FDF7B1FC97F823301846FDF7E2FC95
:1049B000FDF7B4FB97F82230002B05D097F8233091
:1049C000013B87F8233004E097F82330013387F860
:1049D000233097F82320BB7D9A4202D1012387F828
:1049E000223097F82330002B02D1002387F82230A1
:1049F000022008F073FFBB8C0133BB84BA8CBB7DF3
:104A00009B009A427AD1FDF725FCFDF787FBFB7DE1
:104A10001846FDF7AFFC3C4B1B684FF0FF311846C2
:104A200009F024F8394B01221A70374B1B681846DD
:104A300009F07AF862E00023BB6138E0BB8C991C76
:104A4000354B83FB01235A10CB17D21A13465B0058
:104A500013449B00CA1ABB69934203D16FF07F4392
:104A6000FB611BE0BB8C591C2B4B83FB01235A10B1
:104A7000CB17D21A13465B0013449B00CA1ABB69BA
:104A8000934202D1254BFB6108E0BB8CBA699A4284
:104A900002D1234BFB6101E00023FB61BB699BB2A8
:104AA000F9691846FDF7FAFBBB690133BB61BB69C5
:104AB0000B2BC3DDFDF732FBBB8C5A1C164B83FB63
:104AC00002135910D317C91A0B465B000B449B0005
:104AD000D11A0B46BB84322008F000FF0FE097F894
:104AE00027207B7D9A4203D0FDF7B4FBFDF716FB30
:104AF000FA2008F0F3FE02E000BF00E000BF7B7D7B
:104B000087F827300CE700BF045D0020C85C002058
:104B10005C5D0020705C0020ABAAAA2AD0D0D00037
:104B2000A0A0A00080B586B000AF7860444A07F12D
:104B300014031268114619800233120C1A700023F4
:104B40003B6107F110024FF0FF33002100200CF011
:104B5000E9F83B699BB219463A4801F011FA03465D
:104B6000FB75322008F0BAFE3B699BB21946354806
:104B700001F006FA03461A46FB7D9342E1D13B69F8
:104B8000082B1BD13B7DFA7D9A4217D0FB7D3B75EC
:104B9000FB7D002B02D1642008F0A0FEFB7D002BE2
:104BA00002D14FF4807300E00023FB81264B18688C
:104BB00007F10E010023002209F0E8F93B69102BF0
:104BC0001CD17B7DFA7D9A4218D0FB7D7B75FB7DE5
:104BD000002B02D1642008F081FEFB7D002B02D166
:104BE0004FF4885301E04FF48053BB81164B186893
:104BF00007F10C010023002209F0C8F93B69202BC2
:104C00009FD1BB7DFA7D9A429BD0FB7DBB75FB7D1E
:104C1000002B02D1642008F061FEFB7D002B02D145
:104C20004FF4045301E04FF400537B81064B1868A6
:104C300007F10A010023002209F0A8F981E700BF6B
:104C40009C4C010800040048545D002080B584B0ED
:104C500000AF78604F23FB600A4B1B68FA689A63C9
:104C60000021084804F05CFE4FF4FA6008F036FEBC
:104C70000021044804F02EFF4FF4FA6008F02EFEE5
:104C8000EEE700BF085D002080B588B000AF786017
:104C900007F1080300221A605A609A60DA601A610C
:104CA00015233B7241237B725723BB720023FB60A9
:104CB00000237B610023BB616D4B1B684FF0FF310C
:104CC000184608F0D3FE07F1080301221946694887
:104CD00003F0D3FE0346002B01D000F0E3FA644B4F
:104CE0001B68184608F020FF4FF47A7008F0F6FDB4
:104CF000614B1B684FF0FF31184608F0B7FE5F4B61
:104D000005221A705C4B1B68184608F00DFF4FF423
:104D10007A7008F0E3FD0123FB77594B1868F97F9F
:104D2000002303220CF058F84FF47A7008F0D6FDF7
:104D3000514B1B684FF0FF31184608F097FE4F4B60
:104D400004221A704C4B1B68184608F0EDFE4FF415
:104D50007A7008F0C3FD484B1B684FF0FF311846CE
:104D600008F084FE454B05221A70434B1B68184619
:104D700008F0DAFE4FF47A7008F0B0FD0323FB77F9
:104D8000404B1B684FF0FF31184608F06FFE3E4A5B
:104D90003E4B03CB106051601B881381394B1B685D
:104DA000184608F0C1FE364B1868F97F002303222D
:104DB0000CF012F84FF47A7008F090FD0123FB77A5
:104DC0002F4B1868F97F002303220CF005F84FF4ED
:104DD0007A7008F083FD2A4B1868F97F00230322BC
:104DE0000BF0FAFF4FF47A7008F078FD244B186846
:104DF000F97F002303220BF0EFFF4FF47A7008F0E5
:104E00006DFD1F4B1868F97F002303220BF0E4FFB0
:104E10004FF47A7008F062FD4FF47A7008F05EFD8E
:104E20000423FB77174B1B684FF0FF31184608F03F
:104E30001DFE154B012283F88020124B1B6818467B
:104E400008F072FE0E4B1868F97F002303220BF066
:104E5000C3FF40F6B83008F041FD0023FB77084B54
:104E60001868F97F002303220BF0B6FF3CE700BF70
:104E7000445C0020D05C0020045D0020C85C002061
:104E8000F45C0020C45C0020C05D0020A04C010840
:104E900080B584B000AF7860084B186807F10E0148
:104EA0004FF0FF33002209F0E5F80346002BF3D161
:104EB000FB891846FCF786FBEEE700BF545D002037
:104EC00080B58EB000AF7860374B186807F12C01C1
:104ED0004FF0FF33002209F0CDF80346002BF3D149
:104EE000FB6A02330822194630480CF00FFDFB6ABA
:104EF0009A7A2F4B1A74FB6ADA7A2D4B5A7407F19F
:104F0000180300221A605A609A60DA601A6100235E
:104F10007B61274A07F10C03083292E8030083E81B
:104F200003003B7B87F83730FB7B3B76BB7B7B7694
:104F30007B7BBB760023FB6100237B621C4B5B7C8D
:104F4000002B02D04FF480337B620023BB62FB7CDA
:104F50003B75BB7C7B757B7CBB753B7CFB75154BCC
:104F60001B684FF0FF31184608F080FD07F1180369
:104F700001221946104803F080FD0346002B01D0A2
:104F800000F090F907F11403012219460A4803F0D2
:104F900094FE0346002B01D000F084F9054B1B68FA
:104FA000184608F0C1FD8FE7385C0020B8020020E9
:104FB000B0020020445C0020D05C002080B584B0AA
:104FC00000AF78604FF0FF3101200BF063FE1C4B07
:104FD0001B684FF0FF31184608F048FD194A07F1E9
:104FE000080392E8030083E80300164B00225A608E
:104FF000134B1B68184608F097FDFB68184608F02D
:105000006DFC0F4B1B684FF0FF31184608F02EFD6A
:105010003A7A0C4B1B789A420BD17A7A094B5B781F
:105020009A4206D1074B5A78064B1A70054B00225C
:105030005A70034B1B68184608F076FDC2E700BFA4
:10504000045D0020C85C002080B586B000AF7860A9
:105050004FF6FF737B820023FB754FF6FF73BB8215
:1050600040F6B83008F03AFCFEF764FD0346012B29
:105070001BD1374B1B684FF0FF31184608F0F6FC88
:10508000344A354B03CB1060516019889B781181ED
:1050900093722F4B1B68184608F046FD2F4B18687B
:1050A0000023032203210BF097FEFEF7E1FD0346E8
:1050B0007B82B7F91230B3F1FF3F11D00123FB75AA
:1050C000BA8AB7F912309A4206D07B8ABB82B7F906
:1050D00012301846FDF794FC192008F0FFFBE4E7B6
:1050E000FB7D002B2FD0FB7D0133FB75FB7D052B5A
:1050F00025D90023FB75164B1B684FF0FF3118466E
:1051000008F0B4FCBA8A07F10803154918460DF0F7
:10511000A1F907F108030A2219460E480DF0BAF961
:105120000B4B1B68184608F0FFFC0C4B186800235B
:10513000032203210BF050FE4FF6FF73BB821920B0
:1051400008F0CCFBB1E7FA2008F0C8FBADE700BFE0
:10515000C45C0020C05D0020AC4C0108F45C002061
:10516000B84C010880B400AF00BFBD465DF8047BB9
:10517000704780B582B000AF002007F0C3FC7860B4
:105180007B68002B05D07B689B791846FEF7B2FD43
:1051900000BF00BF0837BD4680BD80B500AF00F03E
:1051A00027F800F003F800BF80BD000080B500AF15
:1051B0004FF48010FEF733FE3F210C48FEF78EFEC1
:1051C0003F210A48FEF798FE3F210848FEF740FEBF
:1051D0003F210648FEF75FFE3F210448FEF74AFEE6
:1051E0003F210248FEF769FE00BF80BD000C005859
:1051F00080B500AFFEF7D4FD0346002B0DD0FEF7BF
:10520000E2FD0346002B08D101F08CFD01F08AFD80
:10521000FEF7A4FDFEF7B3FD00BF00BF80BD80B563
:1052200000AF4FF0FF30FEF739FD6FF05000FEF792
:105230004BFD00BF80BD80B584B000AF786000F04A
:1052400097FBB8607B68FB60FB68B3F1FF3F0AD057
:1052500000F0A6FB03461A46FB681344FB6002E01D
:10526000FEF758FE30BF00F083FB0246BB68D31A3E
:10527000FA689A42F4D800BF1037BD4680BD0000DE
:1052800080B582B000AF78607B681B68044A9342A7
:1052900001D100F059FB00BF0837BD4680BD00BFFB
:1052A0000048014080B400AF00BFBD465DF8047BFC
:1052B000704780B483B000AF78604FF0B043D3F84C
:1052C000903023F440724FF0B0417B681343C1F833
:1052D000903000BF0C37BD465DF8047B704780B44A
:1052E00000AF4FF0B043D3F890304FF0B04243F4EA
:1052F0000043C2F8903000BFBD465DF8047B7047A4
:1053000080B485B000AF78604FF0B043DA6C4FF0F6
:10531000B0417B681343CB644FF0B043DA6C7B68D9
:105320001340FB60FB6800BF1437BD465DF8047B8B
:10533000704780B485B000AF78604FF0B0431A6D0D
:105340004FF0B0417B6813430B654FF0B0431A6DCB
:105350007B681340FB60FB6800BF1437BD465DF8F7
:10536000047B704780B485B000AF78604FF0B043E5
:105370009A6D4FF0B0417B6813438B654FF0B0439B
:105380009A6D7B681340FB60FB6800BF1437BD4615
:105390005DF8047B704780B485B000AF78604FF053
:1053A000B0431A6E4FF0B0417B6813430B664FF069
:1053B000B0431A6E7B681340FB60FB6800BF143774
:1053C000BD465DF8047B704780B500AF4FF4002008
:1053D000FFF7AFFF00220F216FF0010000F00EFC7D
:1053E000002205212E2000F009FC2E2000F020FCD8
:1053F000002206212C2000F001FC002206212D2095
:1054000000F0FCFB00BF80BD80B582B000AF7860CB
:105410007B681B680B4A934210D101F083FC01F0BA
:1054200081FC4FF48070FFF744FFFFF758FF4FF403
:105430008060FFF797FF786803F0C6FD00BF08376C
:10544000BD4680BD0028004080B588B000AF7860C0
:1054500007F10C0300221A605A609A60DA601A6140
:105460007B681B680F4A934217D10220FFF748FF61
:105470004FF44073FB6012233B6101237B610023E7
:10548000BB610423FB6107F10C031946064800F0D9
:1054900007FC4FF40010FFF765FF00BF2037BD4643
:1054A00080BD00BF005400400004004880B588B0B3
:1054B00000AF786007F10C0300221A605A609A600E
:1054C000DA601A617B681B680F4A934217D14FF468
:1054D0008050FFF760FF0120FFF712FF8223FB607F
:1054E00002233B6100237B610023BB610523FB6139
:1054F00007F10C0319464FF0904000F0D1FB00BFBC
:105500002037BD4680BD00BF0030014080B582B06D
:1055100000AF78607B681B68094A93420BD14FF457
:105520000060FFF738FF00220F21192000F066FB12
:10553000192000F07DFB00BF0837BD4680BD00BFCD
:10554000002C014080B588B000AF786007F10C03F3
:1055500000221A605A609A60DA601A617B681B68E0
:105560000D4A934214D10120FFF7CAFE4FF4807315
:10557000FB6002233B6100237B610023BB610123AD
:10558000FB6107F10C0319464FF0904000F088FBD7
:1055900000BF2037BD4680BD002C014080B485B0DF
:1055A00000AF78604FF0B0431A6E4FF0B0417B68A7
:1055B00013430B664FF0B0431A6E7B681340FB60D9
:1055C000FB6800BF1437BD465DF8047B70470000E0
:1055D00080B58CB000AF78600023FB620023BB6213
:1055E000002279681A2000F009FB1A2000F020FB45
:1055F0004FF48020FFF7D2FF07F1080207F10C03F8
:105600001146184602F08EFC02F076FCF862FB6A46
:10561000124AA2FB03239B0C013BBB62104B114AB5
:105620001A600F4B40F2E732DA600D4ABB6A5360F2
:105630000B4B00221A610A4B00229A60084804F0C2
:1056400067F80346002B04D1054804F0B9F8034677
:1056500000E0012318463037BD4680BD83DE1B4382
:10566000445E00200048014080B400AF00BFBD464A
:105670005DF8047B704780B400AFFEE780B400AFF4
:10568000FEE780B400AFFEE780B400AFFEE780B471
:1056900000AF00BFBD465DF8047B704780B500AF2A
:1056A000024804F09FFA00BF80BD00BF445E0020A6
:1056B00080B500AF00F0ACFC00BF80BD80B500AF8E
:1056C000082000F08DFC00BF80BD80B500AF102029
:1056D00000F086FC00BF80BD80B500AF202000F048
:1056E0007FFC00BF80BD000080B500AF024804F021
:1056F00079FA00BF80BD00BF085D002080B500AF13
:10570000FDF72EFD00BF80BD80B500AFFCF70EF9A0
:1057100000BF80BD80B500AFFCF7D0F800BF80BDF2
:1057200080B586B000AFF860B9607A6000237B6115
:105730000AE0AFF300800146BB685A1CBA60CAB2E7
:105740001A707B6901337B617A697B689A42F0DB6E
:105750007B6818461837BD4680BD80B483B000AF63
:1057600078604FF0FF3318460C37BD465DF8047B78
:10577000704780B483B000AF786039603B684FF405
:1057800000525A60002318460C37BD465DF8047B72
:10579000704780B483B000AF7860012318460C379F
:1057A000BD465DF8047B704780B485B000AFF860FB
:1057B000B9607A60002318461437BD465DF8047B53
:1057C0007047000080B584B000AF7860114B1B6853
:1057D000002B02D10F4B104A1A600E4B1B68FB6066
:1057E0000C4B1A687B6813446A46934207D90CF045
:1057F0005BF802460C2313604FF0FF3306E0054BC5
:105800001A687B681344034A1360FB681846103714
:10581000BD4680BDEC030020D85E002080B400AF00
:10582000264B00229A60254BD3F88830234A43F454
:105830007003C2F888304FF0B0431B684FF0B0429D
:1058400043F0010313604FF0B0434FF4E0229A603D
:105850004FF0B0431A684FF0B041194B13400B6042
:105860004FF0B043D3F894304FF0B04223F005032B
:10587000C2F894304FF0B043D3F898304FF0B042B4
:1058800023F00103C2F898304FF0B0430D4ADA60BC
:105890004FF0B0430B4A1A614FF0B0431B684FF012
:1058A000B04223F4802313604FF0B04300229A618A
:1058B00000BFBD465DF8047B704700BF00ED00E00F
:1058C000FBFEF6FA0010042280B400AF054B5B68C3
:1058D000044A43F00103536000BFBD465DF8047BFA
:1058E000704700BF002004E080B400AF054B5B6848
:1058F000044A43F00203536000BFBD465DF8047BD9
:10590000704700BF002004E080B582B000AF0023E4
:10591000FB710C4B1B680B4A43F48073136003202C
:1059200000F061F90020FFF753FE0346002B02D080
:105930000123FB7101E0FFF747FDFB7918460837AB
:10594000BD4680BD0040005880B400AF064B1B78B8
:105950001A46064B1B681344044A136000BFBD4639
:105960005DF8047B704700BF1C000020905E0020A3
:1059700080B400AF034B1B681846BD465DF8047B3E
:10598000704700BF905E002080B400AF034B1B68DF
:105990001846BD465DF8047B704700BF1800002024
:1059A00080B400AF034B1B781846BD465DF8047BFE
:1059B000704700BF1C00002080B500AFFFF784FFD8
:1059C00000BF80BD80B500AFFFF78EFF00BF80BD78
:1059D00080B485B000AF78607B6803F00703FB609C
:1059E0000C4BDB68BB60BA684FF6FF031340BB602B
:1059F000FB681A02BB68134343F0BF6343F40033F0
:105A0000BB60044ABB68D36000BF1437BD465DF875
:105A1000047B704700ED00E080B400AF044BDB680E
:105A20001B0A03F007031846BD465DF8047B704768
:105A300000ED00E080B483B000AF0346FB7197F93E
:105A40000730002B0BDBFB7903F01F02074997F9A6
:105A500007305B09012000FA02F241F8232000BF61
:105A60000C37BD465DF8047B704700BF00E100E0E5
:105A700080B483B000AF0346FB7197F90730002B69
:105A800010DBFB7903F01F02094997F907305B0926
:105A9000012000FA02F2203341F82320BFF34F8F98
:105AA000BFF36F8F00BF0C37BD465DF8047B7047B6
:105AB00000E100E080B483B000AF0346FB7197F9CA
:105AC0000730002B0CDBFB7903F01F02074997F925
:105AD00007305B09012000FA02F2403341F823202D
