:020000040800F2
:10000000000003208D140008094600080B46000874
:100010000D4600080F4600081146000800000000C9
:1000200000000000000000000000000051930008E4
:100030001346000800000000E19300084594000802
:10004000E1140008E1140008E11400084546000826
:10005000E1140008E1140008E1140008E1140008AC
:10006000E1140008254600082B460008E1140008AA
:10007000E1140008E1140008E1140008E11400088C
:10008000E1140008E1140008E1140008E11400087C
:10009000E1140008E1140008E114000831460008EA
:1000A000E11400083946000815460008E11400086C
:1000B000E1140008E1140008E1140008E11400084C
:1000C000E1140008E1140008E1140008E11400083C
:1000D000E1140008E1140008E1140008E11400082C
:1000E000E1140008E1140008E1140008E11400081C
:1000F0004D4600084946000821460008E114000862
:10010000E1140008E1140008E1140008E1140008FB
:10011000E1140008E1140008E1140008E1140008EB
:10012000E1140008E1140008E1140008E1140008DB
:0C013000E1140008E1140008E1140008CC
:1001400010B5054C237833B9044B13B10448AFF311
:1001500000800123237010BD000200200000000079
:100160002CDA000808B5034B1BB103490348AFF371
:10017000008008BD00000000040200202CDA000806
:10018000034613F8012B002AFBD1181A01387047D7
:1001900001F0FF01102A2BDB10F0070F08D010F838
:1001A000013B013A8B422DD010F0070F42B3F6D13C
:1001B000F0B441EA012141EA014122F007047FF055
:1001C00000070023F0E80256083C85EA010586EAAC
:1001D000010685FA47F5A3FA87F586FA47F6A5FAE8
:1001E00087F68EB9EED1F0BC01F0FF0102F00702F4
:1001F00032B110F8013B013A83EA010313B1F8D19F
:100200000020704701387047002D06BF354603387F
:10021000073815F0010F07D1013015F4807F02BFB8
:10022000013015F4C03F0130F0BC0138704700BF09
:1002300081F0004102E000BF83F0004330B54FEA97
:1002400041044FEA430594EA050F08BF90EA020F04
:100250001FBF54EA000C55EA020C7FEA645C7FEA97
:10026000655C00F0E2804FEA5454D4EB5555B8BFBA
:100270006D420CDD2C4480EA020281EA030382EA2B
:10028000000083EA010180EA020281EA0303362DBD
:1002900088BF30BD11F0004F4FEA01314FF4801C90
:1002A0004CEA113102D0404261EB410113F0004FA2
:1002B0004FEA03334CEA133302D0524263EB430359
:1002C00094EA050F00F0A780A4F10104D5F1200EF7
:1002D0000DDB02FA0EFC22FA05F2801841F1000152
:1002E00003FA0EF2801843FA05F359410EE0A5F126
:1002F00020050EF1200E012A03FA0EFC28BF4CF057
:10030000020C43FA05F3C01851EBE37101F000450C
:1003100007D54FF0000EDCF1000C7EEB00006EEB19
:100320000101B1F5801F1BD3B1F5001F0CD34908A3
:100330005FEA30004FEA3C0C04F101044FEA4452FA
:1003400012F5800F80F09A80BCF1004F08BF5FEA81
:10035000500C50F1000041EB045141EA050130BD61
:100360005FEA4C0C404141EB010111F4801FA4F104
:100370000104E9D191F0000F04BF01460020B1FA59
:1003800081F308BF2033A3F10B03B3F120020CDA91
:100390000C3208DD02F1140CC2F10C0201FA0CF06F
:1003A00021FA02F10CE002F11402D8BFC2F1200CD4
:1003B00001FA02F120FA0CFCDCBF41EA0C0190408A
:1003C000E41AA2BF01EB0451294330BD6FEA0404D3
:1003D0001F3C1CDA0C340EDC04F11404C4F12002BE
:1003E00020FA04F001FA02F340EA030021FA04F3D0
:1003F00045EA030130BDC4F10C04C4F1200220FA27
:1004000002F001FA04F340EA0300294630BD21FA64
:1004100004F0294630BD94F0000F83F4801306BF2A
:1004200081F480110134013D4EE77FEA645C18BF1E
:100430007FEA655C29D094EA050F08BF90EA020FB5
:1004400005D054EA000C04BF1946104630BD91EAAD
:10045000030F1EBF0021002030BD5FEA545C05D1B0
:100460004000494128BF41F0004130BD14F58004EF
:100470003CBF01F5801130BD01F0004545F0FE4163
:1004800041F470014FF0000030BD7FEA645C1ABF98
:10049000194610467FEA655C1CBF0B46024650EACF
:1004A000013406BF52EA033591EA030F41F40021FB
:1004B00030BD00BF90F0000F04BF0021704730B581
:1004C0004FF4806404F132044FF000054FF0000156
:1004D00050E700BF90F0000F04BF0021704730B517
:1004E0004FF4806404F1320410F0004548BF4042EC
:1004F0004FF000013EE700BF42004FEAE2014FEA41
:1005000031014FEA02701FBF12F07F4393F07F4F1B
:1005100081F06051704732F07F4208BF704793F01E
:100520007F4F04BF41F40021704730B54FF4607431
:1005300001F0004521F000411CE700BF50EA010234
:1005400008BF704730B54FF000050AE050EA0102DD
:1005500008BF704730B511F0004502D5404261EB4D
:1005600041014FF4806404F132045FEA915C3FF48E
:10057000D8AE4FF003025FEADC0C18BF03325FEA2B
:10058000DC0C18BF033202EBDC02C2F1200300FADC
:1005900003FC20FA02F001FA03FE40EA0E0021FA01
:1005A00002F11444BDE600BF70B54FF0FF0C4CF4EF
:1005B000E06C1CEA11541DBF1CEA135594EA0C0FA1
:1005C00095EA0C0F00F0DEF82C4481EA030621EADC
:1005D0004C5123EA4C5350EA013518BF52EA033517
:1005E00041F4801143F4801338D0A0FB02CE4FF0C9
:1005F0000005E1FB02E506F00042E0FB03E54FF0F9
:100600000006E1FB03569CF0000F18BF4EF0010EF0
:10061000A4F1FF04B6F5007F64F5407404D25FEAEC
:100620004E0E6D4146EB060642EAC62141EA55519F
:100630004FEAC52040EA5E504FEACE2EB4F1FD0CE1
:1006400088BFBCF5E06F1ED8BEF1004F08BF5FEA5F
:10065000500E50F1000041EB045170BD06F0004611
:1006600046EA010140EA020081EA0301B4EB5C04BE
:10067000C2BFD4EB0C0541EA045170BD41F48011B6
:100680004FF0000E013C00F3AB8014F1360FDEBFDB
:10069000002001F0004170BDC4F10004203C35DAB7
:1006A0000C341BDC04F11404C4F1200500FA05F33A
:1006B00020FA04F001FA05F240EA020001F00042DB
:1006C00021F0004110EBD37021FA04F642EB060151
:1006D0005EEA430E08BF20EAD37070BDC4F10C047B
:1006E000C4F1200500FA04F320FA05F001FA04F23F
:1006F00040EA020001F0004110EBD37041F100012B
:100700005EEA430E08BF20EAD37070BDC4F1200535
:1007100000FA05F24EEA020E20FA04F301FA05F29D
:1007200043EA020321FA04F001F0004121FA04F245
:1007300020EA020000EBD3705EEA430E08BF20EA15
:10074000D37070BD94F0000F0FD101F0004640004F
:1007500041EB010111F4801F08BF013CF7D041EAD1
:10076000060195F0000F18BF704703F000465200D5
:1007700043EB030313F4801F08BF013DF7D043EAA6
:100780000603704794EA0C0F0CEA135518BF95EA5C
:100790000C0F0CD050EA410618BF52EA4306D1D1E3
:1007A00081EA030101F000414FF0000070BD50EA02
:1007B000410606BF1046194652EA430619D094EA8C
:1007C0000C0F02D150EA013613D195EA0C0F05D176
:1007D00052EA03361CBF104619460AD181EA0301CA
:1007E00001F0004141F0FE4141F470014FF0000082
:1007F00070BD41F0FE4141F4780170BD70B54FF01D
:10080000FF0C4CF4E06C1CEA11541DBF1CEA13559C
:1008100094EA0C0F95EA0C0F00F0A7F8A4EB05047E
:1008200081EA030E52EA03354FEA013100F0888075
:100830004FEA03334FF0805545EA131343EA12633E
:100840004FEA022245EA111545EA10654FEA0026F3
:100850000EF000419D4208BF964244F1FD0404F5AC
:10086000407402D25B084FEA3202B61A65EB030508
:100870005B084FEA32024FF480104FF4002CB6EBC5
:10088000020E75EB030E22BFB61A754640EA0C0045
:100890005B084FEA3202B6EB020E75EB030E22BF85
:1008A000B61A754640EA5C005B084FEA3202B6EBC6
:1008B000020E75EB030E22BFB61A754640EA9C0085
:1008C0005B084FEA3202B6EB020E75EB030E22BF55
:1008D000B61A754640EADC0055EA060E18D04FEA13
:1008E000051545EA16754FEA06164FEAC30343EAB3
:1008F00052734FEAC2025FEA1C1CC0D111F4801F80
:100900000BD141EA00014FF000004FF0004CB6E778
:1009100011F4801F04BF01430020B4F1FD0C88BF17
:10092000BCF5E06F3FF6AFAEB5EB030C04BFB6EB22
:10093000020C5FEA500C50F1000041EB045170BD15
:100940000EF0004E4EEA113114EB5C04C2BFD4EB42
:100950000C0541EA045170BD41F480114FF0000EC6
:10096000013C90E645EA060E8DE60CEA135594EA42
:100970000C0F08BF95EA0C0F3FF43BAF94EA0C0F45
:100980000AD150EA01347FF434AF95EA0C0F7FF4BA
:1009900025AF104619462CE795EA0C0F06D152EA0E
:1009A00003353FF4FDAE1046194622E750EA4106F2
:1009B00018BF52EA43067FF4C5AE50EA41047FF403
:1009C0000DAF52EA43057FF4EBAE12E74FF0FF3C68
:1009D00006E000BF4FF0010C02E000BF4FF0010C39
:1009E0004DF804CD4FEA410C7FEA6C5C4FEA430CB2
:1009F00018BF7FEA6C5C1BD001B050EA410C0CBF01
:100A000052EA430C91EA030F02BF90EA020F002062
:100A1000704710F1000F91EA030F58BF994208BFC9
:100A200090422CBFD8176FEAE37040F00100704786
:100A30004FEA410C7FEA6C5C02D150EA013C07D1DD
:100A40004FEA430C7FEA6C5CD6D152EA033CD3D028
:100A50005DF8040B704700BF8446104662468C4622
:100A60001946634600E000BF01B5FFF7B7FF002855
:100A700048BF10F1000F01BD4DF808EDFFF7F4FF7E
:100A80000CBF012000205DF808FB00BF4DF808ED09
:100A9000FFF7EAFF34BF012000205DF808FB00BF2C
:100AA0004DF808EDFFF7E0FF94BF012000205DF84E
:100AB00008FB00BF4DF808EDFFF7CEFF94BF012003
:100AC00000205DF808FB00BF4DF808EDFFF7C4FFFC
:100AD00034BF012000205DF808FB00BF4FEA410C45
:100AE0007FEA6C5C02D150EA013C0AD14FEA430C28
:100AF0007FEA6C5C02D152EA033C02D14FF0000065
:100B000070474FF0010070474FEA410212F50012A2
:100B100015D211D56FF47873B3EB625212D94FEA44
:100B2000C12343F0004343EA505311F0004F23FA2E
:100B300002F018BF404270474FF00000704750EA83
:100B4000013005D111F0004008BF6FF00040704740
:100B50004FF00000704700BF4FEA4102B2F1E0439E
:100B600024BFB3F5001CDCF1FE5C0DD901F0004C94
:100B70004FEAC0024CEA5070B2F1004F40EB8300E4
:100B800008BF20F00100704711F0804F21D113F110
:100B90003872BCBF01F00040704741F480114FEA49
:100BA0005252C2F11802C2F1200C10FA0CF320FAD2
:100BB00002F018BF40F001004FEAC1234FEAD323EF
:100BC00003FA0CFC40EA0C0023FA02F34FEA430359
:100BD000CCE77FEA625307D150EA01331EBF4FF0E2
:100BE000FE4040F44000704701F0004040F0FE40FD
:100BF00040F40000704700BF024B0121186808F064
:100C000051B800BF2CE0022008B54FF0FF320021A0
:100C1000012008F091F807F0F9F9F6E710B504465D
:100C20004068083006F01AFE10B10123237010BD91
:100C30002070FCE7F0B52D4C012889B0054694F8EA
:100C4000850007BF268867884FF47A674FF4C86627
:100C500001F014FA94F8841025480AF0CDFC022D16
:100C60000BD194F88430013B012B06D806F01AFE14
:100C7000014640BB1F480AF033FD1F4A0492227F01
:100C800003921E4A029200230822CDE90032CDE9E8
:100C900005333A463146184684F8845006F020FE63
:100CA00017490E2006F018FF0146B0B9012D0ED1EC
:100CB00014480AF015FD144994F8850009B0BDE800
:100CC000F04001F031BA11480AF096FCD5E710481F
:100CD00009B0BDE8F0400AF003BD012D0CBF0D487E
:100CE0000D4809B0BDE8F0400AF086BC9000002035
:100CF0003CDB000856DB0008AD0000200CE00008DB
:100D0000040000209FDB000846E0010078DB0008BB
:100D1000C4DB0008EEDB00081BDC000808B54FF060
:100D2000FF320021012008F007F80220FFF782FFC0
:100D3000F5E7000010B1012806D07047044B4FF0D2
:100D4000FF31186808F0AAB8014B186808F0D6B847
:100D500028DF022070B57F4B96B00AAA03F128065F
:100D6000154618685968144603C40833B34222462E
:100D7000F7D118681B7920602371002008F04CF827
:100D8000754B002211461860012008F0E1F8734B02
:100D90001860734B089308A9724B7348099307F0C6
:100DA0000BF9012102200AF0D3FB704A70480021A0
:100DB00007F022FF6F4B1860284607F0E1F808B1F2
:100DC00003F01EFA6C4D4FF45073ADF8183007F075
:100DD0005DF82B685A1C00F0B480684A684C1268B1
:100DE0002370190A1B0CA370E270130A120C6170B5
:100DF0002371627122460621002006F0F5FF614B47
:100E000062791A7222795A72E2789A72A278DA7248
:100E100062781A7322785A7310215B4A182006F000
:100E2000E3FF5A4A1021082006F0DEFF4EF66E530B
:100E300009932B68089308AA06212E2006F0D4FFF8
:100E4000514A1021182006F0CFFF504A10210820E7
:100E500006F0CAFF1821012006F0F2FF06F0CEFED0
:100E60000DF11E03019307AB009307220DF11A0346
:100E70000021012006F0EEFD454B0093BDF81C104B
:100E8000BDF81A000723002206F07EFF10B141488A
:100E90000AF026FC06AB0093BDF81E10BDF81A0040
:100EA0000223002206F070FF10B13B480AF018FC44
:100EB00002223A4D01261146002007F035F830464F
:100EC0002E7106F069FD3649E960002408231022DE
:100ED0002B726A726E71EC71AE713046CDE90314FB
:100EE000CDE90124009332462346314606F076FDD3
:100EF000AB790BB106F01AFE06F09AFC4FF6FF73C1
:100F0000284A29486B83002185F8844007F074FE45
:100F1000264B1860264B1C70264B01261E7000F0D5
:100F2000AFF900222449254B104601F07DF88023BB
:100F30002B80AC83A02330466B80FFF77BFE16B07E
:100F400070BD002007F014FC1D4C002818BF04469B
:100F500050E700BF48DA000828DF0220F8DE022050
:100F600028000320350D00081D0C000870DC000867
:100F7000090C0008FCDE02208075FF1F8475FF1F2E
:100F80001C020020040000205DDC00084DDC00088D
:100F9000B0DA0008B8DA0008E7DA000890000020AC
:100FA00007B2010018DB00081D0D00082CE002202C
:100FB00009DF022008DF022015010020F90B0008DC
:100FC00094DC000837B543783E2B04461BD0FF2B3A
:100FD00064D0052B5BD1664B81885A8B91421C46AD
:100FE00006D100236348638384F884300AF078FBD9
:100FF0000120FFF71FFE604801230370638B4380CD
:1010000000F030F943E0C378032B1CD00C2B1ED02A
:10101000012B3CD1564D95F8850001F02FF8B4F81E
:10102000051056480AF0E8FA95F884305248042B27
:101030000CBF0623052385F884300022B4F8053060
:101040006B830270DBE74E480AF04AFB1FE04D4815
:101050000AF046FB2379EBB94B480AF041FB444BBD
:101060000DF107020DF10601588B06F02DFF98B91E
:1010700046480AF035FB9DF806109DF80720022926
:1010800002D1022A08BF114641480AF0B5FA0120F0
:1010900003B030BD3F48E0E73F48D5E7B0F8033044
:1010A00040F20542934242D01ED840F2024293429F
:1010B00036D00FD8B3F5806F30D040F20142934262
:1010C000E5D1C17935480AF097FAE379002B4CD184
:1010D0003348B9E740F20342934226D040F204423B
:1010E0009342D4D12F48AFE7B3F5816F28D009D808
:1010F00040F20642934223D040F207429342C6D1C7
:101100002948A1E740F20A4293421BD01CD3B3F511
:10111000006FBCD1254B01221A70F1E7244893E7F8
:1011200024480AF0DDFA24488EE724488CE7244856
:101130000AF0D6FA0E4B588B06F016FD214883E7CD
:10114000214881E721487FE7D0F8071020480AF0BE
:1011500053FAD4F807101F480AF04EFA044B012145
:10116000588B06F025FD1C486EE71C486CE700BF55
:10117000900000209ADC000800DF022094DD0008C7
:10118000C1DC0008ECDC000805DD00084EDD0008CD
:1011900060DD000829DD00087CDD00086BDF000849
:1011A000C1DF00085ADE0008E5DF000808DF022082
:1011B000C5DD0008EEDD000813DE000830DE0008A3
:1011C00087DE0008A5DE0008BEDE0008DFDE0008BE
:1011D00009DF00081EDF00082FDF0008D3DF00084A
:1011E000024B0121186807F05DBD00BFFCDE022044
:1011F000014B186807F03EBFF8DE0220024B4FF0AB
:10120000FF31186807F0FABEF8DE02200378012BE0
:1012100010B50ED002D3032B10D010BD0C4B0D48CF
:1012200001221A700AF05CFA0B48BDE810400AF07F
:10123000E3B9074B094800221A70F3E7011D08487B
:1012400000231A460068BDE8104007F091BF00BFB8
:1012500010DF022027E0000858E000085CE00008EA
:1012600004DF0220037813B1012B04D07047034B35
:1012700001225A707047014B0022FAE710DF02206A
:10128000014B00221A80704710DF02204FF0B0435C
:1012900082B0D3F8502142F48012C3F85021D3F821
:1012A000503103F480130193019B0A4BD3F8D420EF
:1012B00042F40072C3F8D4201A6A42F400721A622F
:1012C00040BF20BF044AD36843F40043D36002B058
:1012D000704700BF00080058000400584FF0B043AA
:1012E00007B51A6D42F480121A651B6D03F4801362
:1012F0000193019B084B1A6842F001021A601A68B8
:1013000042F480321A602C2003F0D8FC2D2003B068
:101310005DF804EB03F0D2BC000C0058024A53689D
:1013200023F0010353607047000C0058024B4FF448
:1013300080329A60704700BF000C0058024A536820
:1013400023F0020353607047000C0058044B4FF425
:1013500000329A605A6822F400325A60704700BF27
:10136000000C00581E4BDA6812F0020F10B51A4636
:1013700009D15968890306D45A6842F400325A6088
:1013800007F072F810BDD3689B0707D453689C031D
:1013900004D4536843F400335360F1E7104CE3681E
:1013A00013F0080F23460DD1626810030AD4636856
:1013B00043F4002363600B4B1B6898474FF40023F2
:1013C000A360DFE7DA689106DCD45A689202D9D4C8
:1013D0005A6842F400125A6007F014F8D2E700BFCE
:1013E000000C00582402002010B5084CE3681B07CD
:1013F00006D5074B1860636823F40023636010BDB3
:1014000080474FF40023A360F9E700BF000C0058A9
:1014100024020020024A536823F0080353607047F7
:10142000000C005838B5124CE36913F0020F254642
:1014300007D063689B0704D407F022F80223A36057
:1014400009E0EB69D80707D56B68D90704D406F023
:10145000C3FF0123AB6038BD054CE3691A07FAD519
:1014600063681B07F7D407F061F80823E7E700BFBC
:10147000000C0058D458C4500433C4188C42F9D31B
:101480007047036004308842FBD370470C488546A0
:1014900003F056FB0B480C490C4A0023FFF7EDFF05
:1014A0000B480C490023FFF7EEFF0B480B490023C4
:1014B000FFF7E9FF0AF068F802F0A4F8FEE7000081
:1014C000000003200400002090000020E8F4000841
:1014D000000200207CE20220E0010320570A0320E2
:1014E000FEE74FF0B04382B0DA6C0243DA64DB6CA3
:1014F00018400190019B02B070474FF0B04382B09A
:10150000D3F84C210243C3F84C21D3F84C31184096
:101510000190019B02B07047F0B587B003F078FBF3
:1015200003F07EFB344A354FD2F8903043F48033D9
:10153000C2F8903007F0D8F81422002101A80AF070
:1015400052F800232E48DFF8BCC01C461D461E463C
:1015500000EBC302917951B150F83310B94244D035
:10156000614545D0B1F1904F01D1928816430133C6
:10157000222BEDD101210323029104938EB1084661
:101580000196FFF7AEFF0846FFF7B7FF01A94FF03E
:10159000904003F0D5FB002231464FF0904003F01D
:1015A0008BFC7DB102200195FFF79BFF0220FFF726
:1015B000A4FF01A9114803F0C3FB002229460F48EC
:1015C00003F07AFC7CB104200194FFF78AFF042029
:1015D000FFF793FF01A90B4803F0B2FB002221465D
:1015E000084803F069FC07B0F0BD92881543BEE7D8
:1015F00092881443BBE700BF00080058000400486D
:101600008EE000080008004870B50C4B88B001AAB5
:1016100003F11806154618685968144603C40833C0
:10162000B3422246F7D119889B782180A37006F037
:101630006BFF284606F0B2FC08B070BD75DA0008F2
:10164000704713460A460146002000F06DBE08B5FB
:10165000FFF7DAFFFFF77EFB00210120BDE808401D
:1016600009F076BF08B54FF0FF320021012007F0E6
:1016700063FB06F0CDFDF6E710B1012806D07047F8
:10168000044B4FF0FF31186807F008BC014B186895
:1016900007F034BC40E0022010B54FF0B04288B0F3
:1016A0009368244C43F40043936009F047FF224AB7
:1016B0002249D2F8803023F0070343F00403C2F834
:1016C0008030002000F01CFCFFF726FF01210846B7
:1016D00009F03EFF06F02AFE002007F09DFB184BA4
:1016E000002218601146012007F032FC154B164A03
:1016F00018600021154807F07FFA154B00946946E1
:101700001860144B1448019306F058FD04F58673D5
:10171000029304F50673039302A840F23C5304F5C8
:1017200049740593049406F0C1FE06F0FDFD08B06F
:1017300010BD00BFE8010320000400582CDF022088
:1017400040E0022048E00220A0E100086516000801
:1017500044E00220791600084F160008024B0121D0
:10176000186807F09FBA00BF44E00220014B1868D8
:1017700007F080BC48E00220024B4FF0FF311868B0
:1017800007F03CBC48E0022010B50F4A0368136024
:1017900000218388917181799380C1F3810001F0E8
:1017A00003048442507306BFD81C03EB900303EB81
:1017B0004303C1F3011198B214739173144607F0F7
:1017C00049FFA06010BD00BF4CE002202DE9F347A7
:1017D000394DAC68002C44D002AF0023AE8895F898
:1017E000069007F8013D4FF004084FF0FF33012247
:1017F0003946286808F1FF3805F01CFA18F0FF0890
:10180000F3D1AB7983B34FF0FF0A4FF0FF330122DE
:10181000394628688DF807A005F00CFA04F1030892
:1018200014F8013B286813FB09F31B128DF80730ED
:1018300001224FF0FF33394605F0FCF9A045EFD106
:10184000013EB6B24446002EDFD1FF238DF80730AB
:101850000024AA88E3B20F32B3EB121F04F1010493
:1018600022DB02B0BDE8F0874FF0FF094FF0FF33F5
:101870000122394628688DF8079005F0DBF904F15C
:10188000030814F8013B8DF8073001224FF0FF33B5
:101890003946286805F0CEF9A045F2D1013EB6B22E
:1018A0004446002EE2D1D0E74FF0FF330122394603
:1018B000286805F0BFF9CCE74CE00220074B9A8876
:1018C000197B98685B7B994206BFD31C02EB93029D
:1018D00002EB4202002109F086BE00BF4CE002206C
:1018E000084B9A88824210B50BD900EB40029868E9
:1018F00010441A7B0C0C84545A7B0C0A84549B7B36
:10190000C15410BD4CE002200B4B70B59D888D4238
:1019100006460C4607D922B10A4492B2954228BF26
:101920001546AC4200D370BD204631460134FFF766
:10193000D7FFA4B2F5E700BF4CE00220014B013015
:10194000987170474CE002201FB54FF0FF338DF8BF
:101950000C108DF80D00009303AA02237821034890
:1019600003F096FC05B05DF804FB00BF68E00220C0
:1019700008B50021AE20FFF7E7FF0021D520FFF7D3
:10198000E3FF00218020FFF7DFFF0021A820FFF701
:10199000DBFF00212720FFF7D7FF0021D320FFF72F
:1019A000D3FF00210846FFF7CFFF0021AD20FFF74E
:1019B000CBFF00213020FFF7C7FF00218D20FFF76C
:1019C000C3FF00211420FFF7BFFF00214020FFF7D5
:1019D000BBFF0021A620FFF7B7FF0021A420FFF7DF
:1019E000B3FF0021A120FFF7AFFF0021C820FFF7C0
:1019F000ABFF0021DA20FFF7A7FF00211220FFF73D
:101A0000A3FF00218120FFF79FFF0021AF20FFF7F8
:101A10009BFF0021D920FFF797FF00212220FFF72D
:101A200093FF0021DB20FFF78FFF00212020FFF72D
:101A30008BFF0021AF20BDE80840FFF785BF431EA4
:101A4000002200F2671003F8012F8342FBD1704798
:101A500000F1F003002200F2671003F8012F834227
:101A6000FBD1704700F1B403002200F2671003F8C5
:101A7000012F8342FBD17047482830B516DC282956
:101A800014DC4825082491FBF4F405FB04004D42C6
:101A900005F0070501F0070158BF6942012505FA65
:101AA00001F11C5649B212B10C431C5430BD24EA5A
:101AB0000104FAE72DE9F04F89B09846B8F1200FFC
:101AC0009DF848300193A2F120020CBF1023082397
:101AD0000693D2B20CBF4FF40043802305939301C9
:101AE0000493314B03EB02130293304B02EB42029F
:101AF00003EB820307468A4603938B46002646453E
:101B000002D109B0BDE8F08FB8F10C0F29D1039BC9
:101B10009C5D019B1BB984F47F4484F0FF040BF1AE
:101B200001034FF000090793059B5FFA89F513EA5B
:101B3000040205EB0B01139B18BF0122C9B2384602
:101B4000FFF79AFF079B1D44EDB2A5EB0A03640063
:101B50004345A4B220D10137FFB255460136AB460A
:101B6000CDE7B8F1100F01D1029BD1E7049B104AD9
:101B700003EB46031344A3F58062A3F2FF3312780C
:101B80001C78019B13B144EA0224C8E7D243E44322
:101B900044EA0224A4B2C2E709F10109069A5FFAF5
:101BA00089F39342C0D3D9E74EE60008DAE1000892
:101BB0003EEC00082DE9F74F4FEA53089DF830A09E
:101BC00004460D461E46C8F14809571EC3F1280BAE
:101BD00017F8012F12B903B0BDE8F08F4C4505DDB1
:101BE0003544EDB25D45C8BF002500240D9B20465D
:101BF000CDE900A3294633464444FFF75BFFE4B236
:101C0000E6E770B50546B02400212046FFF79CFEAC
:101C100000210C20FFF798FE00211120FFF794FE11
:101C200005F1480615F8010B4021FFF78DFEB5427E
:101C3000F8D10134E4B2B52CE6D170BD70B5DCB09A
:101C400002AC064601252046FFF7F9FE32780194E2
:101C50000095202304210020FFF72CFF7278CDE9A6
:101C60000054202304211020FFF724FFB278CDE98F
:101C70000054202304212820FFF71CFFF2780421C0
:101C8000CDE9005420233820FFF714FF94F86C307E
:101C900043F0700384F86C3094F8FC30204643F035
:101CA0001C0384F8FC30FFF7ACFF5CB070BD73B56B
:101CB000064608460C46FFF7D5FE0125102332786C
:101CC0000191184600951421FFF7F4FE7278CDE9D2
:101CD0000054102314211A20FFF7ECFEB278CDE94E
:101CE0000054102314212820FFF7E4FEF278CDE9F8
:101CF0000054102314213220FFF7DCFE94F8FC304E
:101D0000204663F03C0384F8FC3002B0BDE870402C
:101D1000FFF777BF70470000054A906A936A80B268
:101D20009BB2984200D17047916A18468BB2F8E78F
:101D300000280040F0B5174B1A7882424FF0180483
:101D400015D11A78D2B25A7004FB0032527ED2B248
:101D50001A70182202FB0030012202741A78062A37
:101D600004D119B94FF0FF32C3F89420F0BD04FB41
:101D700000352E7E6A7E6F7E04FB0636D2B2FFB23D
:101D8000062A77761FBF2D7E04FB0232EDB2157650
:101D9000DFE700BF1801002010B50F4CD4F89430D5
:101DA000013316D0FFF7B8FFD4F8943083423DBF1B
:101DB0000A4BD4F894201B88D4F8943038BF9B1871
:101DC000181A074B1B785843064B1B78D84080B233
:101DD00010BD0020FBE700BF180100202C020020EE
:101DE000280200202E0200202DE9F0413E4C3F4BFE
:101DF000D4F800809A68D8F8003012F4806F03D0CD
:101E0000DA6812F0040FFAE79A68394E22F4806219
:101E10009A6037781823FFB203FB0763DD68FFF78A
:101E2000BBFFA84207D9012386F898300023182564
:101E30004FF0000C1CE02F4A13880344AB4235BF1F
:101E400013882B1A0022012234BF9BB29BB286F862
:101E50009820ECE705FB076205FB0767D16888421D
:101E600097BFD168C2F80CC0091AD1607F7EFFB25B
:101E7000062FEFD143B9FFF74FFFC6F894000320B8
:101E8000BDE8F04102F03CBF012B03D81A4A12789A
:101E9000012A26D0013B9DB2D8F80030DA685207FB
:101EA000FCD5D968C9B261F49061D960134B4FF485
:101EB0000022DA60032002F033FF0C4B5A69120C47
:101EC00012042A435A61FFF727FF2368C6F89400DB
:101ED0001A68936843F480639360AFF30080BDE8B1
:101EE000F0811546D8E700BF3002002000280040EE
:101EF000180100202A0200202E02002000080058AD
:101F000070B50D68404E414CCA236B6253236B621F
:101F1000B368216043F02003B360B36803F00703A4
:101F2000C3F10403D9B23A4B197032694FF4FE037E
:101F300002F4FE0293FAA3F3B3FA83F3DA40013218
:101F4000344BD2B21A703369334EC3F30E030133EC
:101F50003380013B5343A3F5A073CB404FF6FE7291
:101F600093422E4A8CBF4FF6FF739BB213802C4ACC
:101F7000136843F400231360D2F8803043F4002345
:101F8000C2F88030002837D1264B012183F8981001
:101F90004FF0FF31C3F894100621187483F828001D
:101FA00083F8400083F8580083F8700083F88800B5
:101FB0001970AB6823F48063AB60EB68DBB263F449
:101FC0009063EB604FF40023D360032002F0A8FE7F
:101FD00023681A68936843F48043936023681B68FE
:101FE000FF225A6203200022062102F033FE032062
:101FF000BDE8704002F062BEEB685B05EED50320E1
:1020000002F07EFEEAE700BF002800403002002018
:102010002E020020280200202C0200202A0200208C
:1020200000080058180100202DE9F047EFF3108751
:1020300072B6DFF8449000254FF0180A0AFB0594A9
:102040005FFA85FE94F810C00CF0FF06BCF1000F9B
:102050000BD10125257487F31088606162743046C6
:10206000636081F800E0BDE8F0870135062DE5D119
:1020700087F310880120F6E7180100202DE9F041D0
:102080008046EFF3108572B6234C244E032002F0F5
:1020900023FE27683B68CA225A6253225A621823D9
:1020A00003FB08631B7C022B24D100214046FFF771
:1020B00041FE3378DBB2062B27D1194B9A683B6877
:1020C00012F4806F03D0DA6812F0040FFAE79A680E
:1020D00022F480629A60DA685207FCD5DA68D2B2DC
:1020E00062F49062DA600F4B4FF40022DA60032052
:1020F00002F016FE23681B68FF225A62032002F0DA
:10210000DDFD85F31088BDE8F08172789A42F1D048
:10211000FFF76AFEEEE700BF300200201801002042
:1021200000280040000800582DE9F8434B4C1823C4
:1021300003FB004305461B7C022B0F4601D1FFF732
:102140009DFFEFF3108872B6032002F0C5FD444AEC
:1021500013681B68CA211826596206FB05495321DA
:102160005962022389F81030C9F80C70C9F8087058
:102170002378DBB2062B17461BD12278D2B26270CD
:10218000257089F819304FF0FF33C4F894300020DF
:10219000237862789A425AD0FFF726FE3B681B6884
:1021A000FF225A62032002F089FD88F31088BDE8FF
:1021B000F883FFF7F1FDD9F80C300344C9F80C306F
:1021C000D9F80C10237806FB0343DB68994223D32C
:1021D0002378DBB206FB0342527ED2B2062A04D039
:1021E00006FB0242D268914212D2182101FB03423F
:1021F000527ED2B2062A1CBF01FB02410D76182185
:1022000001FB05467276337601FB03435D76BFE73B
:1022100006FB03435B7EDCE722782378D2B29A4246
:1022200006FB02F30FD02344197EC9B206FB014618
:10223000757689F8192089F818101D762378DBB295
:1022400063702570A4E789F819202344F5E7182363
:1022500003FB0544E368181AE0609FE718010020BB
:1022600030020020104700002DE9F84FEFF31087EF
:1022700072B62A4E33681B684FF0CA0B4FF05308F2
:10228000C3F824B0C3F824809A6822F480629A606C
:10229000234A14781825E4B205FB0425297C022979
:1022A0002FD1D5F804A0D5F8149092F898301BB32C
:1022B000697CC9B2012919D12046FFF73BFD87F39C
:1022C0001088A9682046FFF72FFF33681B68524625
:1022D000C3F824B02146C3F824804846FFF7C2FF64
:1022E00033681B68FF225A62BDE8F88F87F31088B5
:1022F0002046FFF7C3FEE8E7FFF776FD87F3108877
:10230000EEE7DA685207FCD5DA68D2B262F490627E
:10231000DA60044B4FF40022DA60EFE7300200206D
:1023200018010020000800580020704770B5124CBA
:102330000022511C54F8213083421ADB0F4E54F80E
:10234000225056F8224056F82120401B121B5043C1
:102350005B1B07EE900A07EE103AF8EEE77AB8EE4C
:10236000C77AC7EE876AFDEEE67A17EE900A204438
:1023700070BD0A46DDE700BF00EF000800EF00086F
:1023800008B5F0B1D9B107EE901A0144B8EEE77A7A
:1023900007EE901AF8EEE77AC7EE277A17EE900A62
:1023A000FEF7AAF80022084BFEF7FEF841EC100BEE
:1023B0000AF09AFA51EC100BFEF7A6FB014608460C
:1023C00008BD7821FBE700BF00005E4010B5D0E9F2
:1023D0000124B4FA84F1C0684909002A08BF013118
:1023E000002808BF0131012905DD52BB64BB70BB69
:1023F0004FF0FF3010BD824211DD84420FDD211A03
:10240000101AFFF7BDFF00F261104FF4B473BDE87E
:10241000104090FBF3F203FB1200FFF787BFA242CC
:1024200008DA824206DA811AA01AFFF7A9FF00F241
:10243000D910EAE7111B001BFFF7A2FF00F25120A1
:10244000E3E740F26110E0E740F2D910DDE740F247
:102450005120DAE708B5FFF7B9FF431C1CBF06237C
:1024600090FBF3F008BD0368052B01DDFFF7F2BF19
:102470004FF0FF3070470000F0B589B006AC002384
:10248000234D069323714FF0FF3701260DF11703FB
:102490000093CDE90167012300228821284603F03B
:1024A000CFF80128F2D09DF817303C2B2ED16420B4
:1024B00001F082FE164D0E238DF818304FF0FF37D5
:1024C0000126CDE90167009401230D2288212846C9
:1024D00003F002F80128F4D0642001F06DFE0D4BEA
:1024E00006930B4D00238DF81C304FF0FF37052667
:1024F000CDE901670094012309228821284602F0D2
:10250000EBFF0128F4D0002009B0F0BD0120FBE76B
:1025100068E00220000900062DE9F043DFF8409052
:1025200085B00D461646002407464FF0FF38CDE92A
:102530000168009501233A468821484603F080F857
:1025400001340128A4B205D1B4F5967FEFD105B0CE
:10255000BDE8F083A4F5967358425841F7E700BFF1
:1025600068E0022013B50822044669460620FFF7FA
:10257000D3FF00230DEB030251781DF8032042EA3C
:10258000012244F813200233082BF3D102B010BD0E
:102590001FB510220021684609F025F86846FFF7AC
:1025A000E1FF6846FFF75FFF05B05DF804FB4FF001
:1025B000B04382B0DA6C0243DA64DB6C18400190FD
:1025C000019B02B07047000010B509F0B5F806494C
:1025D0008A78CB789B1A90FBF3F404FB1300104429
:1025E00081F8D40010BD00BF54DF02202DE9F04F68
:1025F0000122EDB012AD1146C74802F05DFC012684
:10260000FFF7B6F92846FFF71AFA0C23C34A0195DB
:102610000A2100200096FFF7CDFA0C23C04A1C21A6
:102620000020CDE90065FFF7C5FA2846FFF7E9FA73
:1026300040F6B83006F0D6FB2846FFF700FA2846E9
:10264000FFF7DFFA1422002108A808F0CCFFFFF7FB
:1026500013FFB0420FD1B34BB34A03F10C0153F84F
:10266000040B42F8040B8B42F9D11B781370AF4B6B
:10267000062283F82C204FF00008AC4DC1464FF0E5
:10268000FF36FFF785FF07B27B1C00F0E6800DF1F7
:10269000200AB8F1000F4BD10DF148084046FFF772
:1026A000CEF995F82C30032B1DD8DFE803F08D0B05
:1026B00004129846E5E79E48002302221946006866
:1026C00008F028FC01230093CDF804800C23994ADC
:1026D00005E00123984A0093CDF804800C230021E3
:1026E0000846FFF767FA95F82C30013B012B19D803
:1026F000924C4FF0FF31206806F0D0FBDFF84CE23F
:10270000BEE80F000DF1340CACE80F00DEF800302D
:102710002068CCF8003006F0F1FB9DF8340004F09E
:1027200006F9044600232AF8137001330A2BFAD164
:1027300009F101020A232AF8197092FBF3F903FB4D
:10274000192900225FFA89F911463C2013463AF90B
:1027500012C06045A8BF6046013261456344B8BFFE
:1027600061460A2A1BB2F2D1091A0429DCBF93FB85
:10277000F2F73FB2B74220D095F82C30EBB1022BE4
:102780004BD9032B19D10DF148084046FFF760F9EA
:1027900095F8D060731C2D2696FBF3F6F3B20393E5
:1027A0004FF0000A4FF0010B95F8D0305FFA8AF233
:1027B000934219D84046FFF724FA192006F012FB7D
:1027C0003E464FF001085CE7DFF87CB14FF0FF3187
:1027D000DBF8000006F062FB0123DBF8000085F85F
:1027E0002C3006F08BFB6DE702FB06F101F10E00C9
:1027F000B8420FDA31440E318F420BDC9B1ACDE91F
:1028000000B805EB83021C210C23D2F8B020002075
:10281000FFF7D0F90AF1010AC6E7BBB20E2B13D8B5
:102820002D2E06DD621C182392FBF3F403FB142407
:10283000E4B23B462246424906A808F0B1FF12A97D
:1028400006A8FFF734FAB8E72D2FF2DD0E2EF0DCE4
:102850000CB1013CECE71724EBE7B8F1000F00F0F6
:10286000918008F101085FFA88F8B8F14A0F4ED953
:1028700095F82C80B8F1020F7CD0B8F1030F1CD072
:10288000B8F1010F39D146EA042603232D488DF80B
:102890001430ADF8166000232B4E00681A4605A9C7
:1028A00006F066FC3946306806F0F8FA0523306811
:1028B00085F82C3006F022FB1FE095F8D070781ECA
:1028C0005FFA80FEFF2100239F4241D895F8303007
:1028D000052241EA03238DF81420ADF8163019487B
:1028E00000231A4605A9006806F042FC10480023A0
:1028F00002221946006808F00DFB12A8FFF79FF8A6
:1029000012A8FFF77EF94FF0FF364FF000081920AC
:1029100006F068FAB5E600BF0004004871F100084F
:102920007CF10008E3F1000830E0022054DF0220CF
:1029300028E1022089F1000885DF022090E10220D1
:1029400096F1000820E10220C0E0022058DF0220BA
:10295000039A13FB02F202F10E0CB44507DA039856
:1029600002440E329642DCBFAEEB0301C9B2013322
:10297000DBB2A9E7032346EA04268DF81430ADF84C
:102980001660ACE795F82C30072B00F2FB80DFE8EF
:1029900013F0E300F900C700D90008008F00990088
:1029A000AA0012AF3846FFF74AF80124764A019789
:1029B00000940C2300210846FFF7FCF80C23734A0F
:1029C000DFF8F4A1DFF8F4B11421CDE900470020CD
:1029D000FFF7F0F83846FFF714F94FF47A7006F075
:1029E00001FA4FF0FF31DAF8000006F057FA2246FC
:1029F0000DA9674803F0A4FF224604A9644803F028
:102A0000C6FFDAF80000DFF8B8A106F077FA9DF803
:102A1000340003F08CFF04469DF8350003F087FF77
:102A2000224603465B4906A808F0BAFE06A8FFF74F
:102A300005F94FF0FF31DAF8000006F02FFA0DF13A
:102A4000340CBCE80F00DFF87CE1AEE80F00DCF8E6
:102A50000030CEF80030DAF80000049BAB6106F0DD
:102A60004DFA4D484FF0000A0423524605A98DF84F
:102A700014300068ADF816A0534606F079FBFFF756
:102A8000A3FD4FF0FF31DBF8000006F007FADBF89A
:102A9000000085F82CA006F031FA40F6B83006F0B8
:102AA000A1F93846FEF7CBFF3846FFF7AAF8E8E56C
:102AB00012AF38460124FEF7C2FF019700940C23A1
:102AC000364A77E712AC2046FEF7B9FF01230093A0
:102AD0000C2300200194324A1946FFF76BF8204678
:102AE000FFF78FF8FEE712AF38464FF0010AFEF706
:102AF000A6FF0C232B4A01970A210020CDF800A045
:102B0000FFF758F80C23284A1C210020CDE900A724
:102B1000FFF750F83846FFF774F84FF4FA70F7E60D
:102B200012AF3846FEF78BFF0123204A009301972E
:102B30000C2300210846FFF73DF83846FFF761F8FF
:102B40006420E5E612AF3846FEF779FF01230093D3
:102B500001970C23164AECE7FA2006F043F995F8A2
:102B6000D530002B3FF4A5AD12AF3846FEF767FF16
:102B70000123009301970C230E4A0E210020FFF73A
:102B800019F891E71420C3E69FF10008AAF10008A4
:102B90002CDF022096F1000820E10220B7F10008A6
:102BA00030E00220C2F10008CDF1000889F10008F0
:102BB00085DF0220D9F1000850DF0220C0E00220AA
:102BC00090E1022058DF02202DE9F74F0023012772
:102BD0000622DFF828A1DFF82891454D00938DF8F3
:102BE0000420ADF80630B8463E4600214FF0FF33D2
:102BF0006A46084608F048F9BDF80010504602F051
:102C000055F98346322006F0EDF8BDF80010504625
:102C100002F04CF958450446E7D1009B082B1AD125
:102C2000B04218D0B0B9334E0346024601A9D9F8D4
:102C3000000006F09DFA4FF0FF31306885F8D5406E
:102C400085F8D64006F02AF90423306885F82C3040
:102C500006F054F92646009B102B1DD144451BD08D
:102C6000CCB9DFF89080D9F800002346224601A9AC
:102C700006F07EFA4FF0FF31D8F8000085F8D54015
:102C800085F8D64006F00AF90423D8F8000085F844
:102C90002C3006F033F9A046009B202B25D1BC42F6
:102CA00024D01CBB134FD9F800002346224601A9AB
:102CB00006F05EFA4FF0FF31386885F8D54085F8A8
:102CC000D64006F0EBF80423386885F82C3006F07F
:102CD00015F95EB90848012385F8D630022233463B
:102CE0003146006808F016F900E03C4627467CE7CC
:102CF00054DF0220C0E0022060E00220000400480F
:102D000020E102202DE9F04F654C236889B04F2265
:102D10009A63644B06930C2306A8ADF81C30062377
:102D20008DF81E30FEF730FDFEF7C8FDFEF74EFDB4
:102D30000020FEF703FE4FF47A7006F053F801947A
:102D40004FF0FF31012008F06DF80021019804F0E8
:102D500079FC0C2200216FF07F40FEF7D5FD0025A5
:102D600040F255142E46013CA4B27CBB2046FEF72F
:102D7000E5FD0C2221462046FEF7C6FDFEF726FDA6
:102D8000642006F02FF82146019804F0ABFC464B76
:102D900093F8D630002BD3D0AA20FEF7CFFDFF2525
:102DA0002F462E464FF00C0BAA463F4B93F8D68089
:102DB000B8F1000F1FD14046FEF7C0FD0C2241467E
:102DC0004046FEF7A1FDFEF701FDB9E72846FEF7F4
:102DD000B5FDFEF7FBFC56B1013DEDB2AA2D08D0C2
:102DE000002D08BF0026022005F0FCFFBBE70135DF
:102DF000F3E70126F7E7A31C93FBFBF10BFB113371
:102E00000293B908631C090293FBFBF90BFB193908
:102E1000B30841EA034343EA95037908039309029F
:102E2000730841EA034343EA550304933B0243EA30
:102E300006432B434FF00008029A42452BD0C14570
:102E40002BD0039A444518BF002211461FFA88F080
:102E500008F101080593FEF743FDB8F10C0F059B3F
:102E6000EAD10B360D371135FEF7B0FC96FBFAF3BD
:102E700032201E4497FBFAF31F4495FBFAF31D44DE
:102E800006F0FF0607F0FF0705F0FF051FFA89F4BB
:102E900005F0A8FF89E71946D8E70499D6E700BFEF
:102EA000D4E002202CE1022054DF022070B52DED89
:102EB000048B4A4E92B04FF4FA7005F093FF002352
:102EC0000F9306F110050FCD6C460FC40FCD0FC444
:102ED0000FCD0FC495E8070084E8070096E80F00BF
:102EE00001F02AFC01280FD13D4B3E4A03F10C01B1
:102EF00053F8040B42F8040B8B42F9D11B78137082
:102F0000394B062283F82C200A2005F06BFF0022A3
:102F10001146324801F0CAF901280FD1334B314A2A
:102F200003F10C0153F8040B42F8040B8B42F9D166
:102F30001B7813702C4B062283F82C200A2005F0F6
:102F400051FF0021254801F0C2F901280FD1284B7B
:102F5000244A03F10C0153F8040B42F8040B8B4292
:102F6000F9D11B781370204B062283F82C20012303
:102F70008DF84430194E1F4D1B4C0023ADF84630E0
:102F800001F076FCF0EE409A01F026FD3046B0EEFE
:102F9000409A01F0E9F93046F0EE408A01F0A8F9D4
:102FA0004FF0FF312868B0EE408A05F077FF2868BF
:102FB000C4ED079A84ED089AC4ED098A84ED0A8A63
:102FC00005F09CFF0C4800231A4611A9006806F082
:102FD000CFF847F2CC4005F005FFD1E768E00220CA
:102FE000F0F0000830E0022054DF0220FDF000087D
:102FF0000AF10008B4E0022020E102202DE9F04FA0
:1030000091B00BAE0DF110080024142200213046BF
:10301000DFF85CA308F0E7FA25460494C8F80440FA
:10302000A146CE4F38684FF0FF33002202A906F0C8
:10303000E1F80028F6D1CA4F4FF0FF31386805F0AB
:103040002DFF012206A9504603F07AFC012203A9B4
:10305000504603F09CFC386805F050FF9DF808309E
:10306000082B2DD8DFE813F00001000109007B00D8
:10307000A3007B0009007B0009009DF80C109DF85F
:103080000D20ADF82C3042EA0122ADF834209DF835
:103090000E109DF80F2042EA0122ADF832209DF873
:1030A00018109DF8192042EA0122ADF830209DF851
:1030B0001A109DF81B2042EA0122ADF82E200A24A6
:1030C000A84B93F801B01BF1000B18BF4FF0010B98
:1030D0000027002D00F01A81BBF1000F40F0FA80AC
:1030E000204606F0B7FA22463146834608F070FAC9
:1030F0000C2006F0AFFA0746C0F800B00471C0F823
:10310000089035B12B469A68002A40F022819F60D2
:103110002F469DF80830012B40F01981BDF834305E
:10312000012B40F0148198E80300ADF8349086E854
:103130000300204606F08EFA22463146054608F086
:1031400047FA0C2006F086FA3B4605600471C0F889
:1031500008909A68002A40F0FE809860F7E09DF899
:103160000C109DF80D20ADF82E3042EA0122ADF88A
:1031700036209DF80E109DF80F20BDF80A30ADF8EE
:103180002C3042EA0122ADF834209DF818109DF849
:10319000192042EA0122ADF832209DF81A109DF85C
:1031A0001B2042EA0122ADF830200C2488E79DF86C
:1031B0000C209DF80D30DFF8BCB143EA0223ADF8D6
:1031C0003C309DF80E209DF80F30DBF8000043EAFC
:1031D0000223ADF83A309DF818209DF8193043EAE3
:1031E0000223ADF838309DF81A209DF81B3043EAD1
:1031F0000223ADF836304FF0FF310423ADF8343000
:1032000005F04CFEDFF864C10CF104070FCF06ACEB
:103210000FC43B682360DBF80000DCF81830039330
:1032200005F06CFE9DF80C209DF80D3043EA02235A
:10323000ADF832309DF80E209DF80F3043EA02239E
:10324000ADF830309DF818209DF8193043EA02237C
:10325000ADF82E309DF81A209DF81B3043EA02236A
:10326000ADF82C3012242BE79DF80C209DF80D3082
:103270003D4C43EA0223ADF83C309DF80E209DF80A
:103280000F30206843EA0223ADF83A309DF8182049
:103290009DF8193043EA0223ADF838309DF81A2022
:1032A0009DF81B3043EA0223ADF836304FF0FF3172
:1032B0000123ADF8343005F0F1FD2C4B20685A6A3B
:1032C0000C929A6A0B92DA691B6A0592049305F0D4
:1032D00015FEC7E72A7929684FF6426005F0CCF958
:1032E00048B90190AF68286806F044FA284606F00D
:1032F00041FA3D46ECE60137FFB2312F03D80220F8
:1033000005F070FDE5E64FF0000BE2E6BBF1000FC3
:103310003FF4E6AE224631464FF6426005F0ACF986
:1033200000287FF4DDAE9DF80830012B0ED198E81F
:103330000300ADF83450224686E8030031464FF6CC
:10334000426005F099F900287FF4CAAE00273D4697
:1033500067E61346D7E61346FBE600BF20E10220EE
:1033600050DF022010DF0220B4E0022054DF0220F0
:103370002CDF022090E102202DE9F04F6D4F6E4EC0
:103380006E4D91B04FF0FF33002204A9386805F06C
:1033900031FF04460028F5D1049A1378002B40F041
:1033A00094801146664C51F8010F496803C4517A64
:1033B00004F810190DF11A0092F80A8084F81180AF
:1033C0001946122208F00FF994F80DE094F80EC097
:1033D000207A617AA27AE37A247B8DF818408DF8FE
:1033E00019E08DF81AC0B8F1000F02D04FF4803404
:1033F0000994544C8DF804008DF8051020688DF860
:1034000007304FF0FF318DF8062005F047FD01220F
:103410000BA94D4803F094FA012202A94A4803F08F
:10342000B6FA012206A9484803F0A1F9012201A930
:10343000454803F016FA206805F060FD9DF82C0061
:1034400003F075FA80469DF82D0003F070FA81466E
:103450009DF82E0003F06BFA82469DF8180003F0E9
:1034600066FA04469DF8190003F061FA83469DF858
:103470001A0003F05CFA0FFA8BF3C3EB03130FFA95
:1034800089F24FF461619B00C2EB021201FB04342C
:10349000930001FB08332044534498422B4ACBBF8E
:1034A000C01A1B1A131AD01A9842C8BF58420723D1
:1034B00000B28DF80C300023ADF80E001A4603A9B7
:1034C0002348006805F054FE5CE7012B0ED15178CB
:1034D000927829706A7085F8D53008238DF82C30E1
:1034E000ADF82E40234622460BA9E9E7022B7FF4D4
:1034F00049AF92F801803068B8F1000F0CD0012379
:103500004FF0FF3185F8D53005F0C8FC306885F8FC
:103510002C4005F0F3FCE0E74FF0FF3105F0BEFC76
:103520000523306885F82C3005F0E8FC85F8D58057
:1035300028E700BF04DF0220C0E0022054DF0220A1
:1035400018DF022050DF02202CDF02208051010012
:1035500020E10220F0B5AFB04822002108A808F011
:1035600042F81C22002101A808F03DF80021502259
:103570001AA808F038F802F069F94FF0B0420024B8
:10358000D2F8903023F01803C2F89030D2F800340B
:1035900023F4C06343F40073C2F80034D2F800345B
:1035A000139403F4C06300930722009B4FF480330D
:1035B000CDE9082301274FF48076402308A80C9317
:1035C0000225CDE90A7602F04BFA6F23394601A8AD
:1035D000CDE90135CDE90344CDE90544079402F076
:1035E0000FFD43F603031A934FF48043CDE92B35C7
:1035F0001AA81023CDE920442A962D9302F05BFEF1
:103600002FB0F0BD2DE98048D74B4FF400424FF06A
:10361000B0441A619DB001F0C7FAD4F894305A0151
:1036200013D5D4F89430DB000FD402F00FF902F078
:103630000DF9D4F8903043F48033C4F89030D4F8C6
:10364000903023F48033C4F890304FF0B0443F22E0
:10365000236D43F480132365236D03F480130093DB
:10366000009BC24B9A609A615A6842F47C125A607D
:103670005A6942F47C125A615A6842F03F025A6019
:103680005A6942F03F025A61002005F071F858B1C2
:10369000B74B8279C4F89C30D4F89C3023F47C5327
:1036A00043EA0223C4F89C30FFF754FFB14BB24DFC
:1036B000D3F88020DFF8FCA20024C3F88040D3F8C0
:1036C000902002F05002C3F89020214614220FA847
:1036D00007F089FF0420FEF76AFF0220FEF767FF6C
:1036E0000120FEF764FF22460121A448012701F0D2
:1036F000E3FB0FA9A148CDE90F77CDE9114401F013
:103700001FFB9F4B9D48119738220FA9CDE90F232E
:103710004FF0100901F014FB0FA94FF09040CDE9D4
:103720000F97119701F00CFB3A4649464FF0904035
:1037300001F0C2FB22460F21092001F08BFA09207B
:1037400001F0BCFA22460F210A2001F083FA0A2078
:1037500001F0B4FA22460F21172001F07BFA17205E
:1037600001F0ACFA874B88492C622846C5E9001362
:10377000C5E90247C5E90444C5E9064401F036FD40
:103780002146284602F016F82146284602F038F86D
:103790007E4D7F484FF48273C0E900534FF40046DA
:1037A0004FF4E063C0E902634FF40073C0E90634EC
:1037B0000723C0E90B3408234363C0E90444C0E98C
:1037C0000844846203F0CCF9724ACAF810404FF002
:1037D0007F0CCAE900245046FF22CAE902C2CAE9A6
:1037E0000644CAF8144002F05BFF122221460DF194
:1037F0003E0007F0F8FE45F61112ADF83C202922F4
:103800000DF170088DF83E200FA93A4650460894F5
:1038100002F0ADFF604A48F8502D50463A46414606
:1038200003F01FF84A4621460DEB090007F0DBFEC6
:103830001C2221464046594D0394CDE9014407F02E
:10384000D2FE214634220FA807F0CDFE544AAC60C8
:1038500064262846C5E90024C5E90364C5E9054492
:1038600003F0B8FC4FF480520DEB09012846049296
:1038700003F0D4FD284603F0DDFC01A92846CDE97C
:103880000144039403F030FF60220423CDE90826AD
:10389000414622462846434E0E94CDE90C34CDE9EC
:1038A0000A4403F02FFD4FF400520FA9CDE9142470
:1038B00028464FF00072CDE91824B346CDE90F44F5
:1038C000CDE911441394CDE91644CDE91A4403F02F
:1038D0003BFF284600F03CFE334A4BF8042B0FA96F
:1038E0003A46504603F02CF80FAD3A460DEB09016D
:1038F000504603F04CF80FCDABE80F002B682B4A75
:10390000CBF80030049B51681068B3610023F36169
:1039100033627362B362434603C312891A8040461E
:1039200086F82C4086F83040FCF72AFC4146C21944
:1039300006F1310007F054FF4046FCF721FC1C2241
:10394000214686F8B10006F1B40007F04CFE184895
:10395000A6F8D44086F8D64086F8D04007F0C8FED6
:1039600005F010F928E000BF00400058000C005896
:10397000FECAFECA0008005868E0022000040048A1
:1039800000003110380F300000540040003001407A
:103990002CE102200028004002032920D4E002206C
:1039A000002C014054DF02201022050A71F10008AA
:1039B000A76318FA2CDF0220304805F02DFA304BAF
:1039C0001860304805F028FA2F4B18602F4805F092
:1039D00023FA2F4B18602F4805F01EFA2E4B186063
:1039E0002E4805F019FA2E4B18602E4805F014FAEF
:1039F0002D4B2E4A18600421484605F073FB2C4BD2
:103A00002C4A18600421484605F06CFB2A4B2B4ACF
:103A1000186021462A4805F0EFF82A4B2A4A186018
:103A200021462A4805F0E8F8294B2A4A1860214621
:103A3000294805F0E1F8294B294A18602146294810
:103A400005F0DAF8284B294A18602146284805F085
:103A5000D3F8284B284A18602146284805F0CCF8AE
:103A6000274B284A18602146274805F0C5F8274B00
:103A70001860FDF711FE05F09FF8FEE7E0F0000882
:103A800050DF02201CF3000864E002203CF0000834
:103A900090E10220E4EF0008B4E002204CF00008BE
:103AA000C0E002200CF30008B8E00220A8EF0008F4
:103AB00020E102206CEF000804DF02202CF3000854
:103AC000ED25000824E1022018F00008853B0008DD
:103AD00028E10220C0EF0008C92B00085CE00220AA
:103AE00024EF0008052D000860E00220F4EF000834
:103AF000AD2E0008D0E0022084EF0008FD2F000862
:103B0000BCE0022048EF000879330008CCE0022036
:103B10001FB504AA002342F8043D0146094800925B
:103B20000068032207F06AFA039B3BB1064B4FF093
:103B300080521A60BFF34F8FBFF36F8F05B05DF8EF
:103B400004FB00BF5CE0022004ED00E070B50C4E09
:103B50000446307802F0EBFE0546707802F0E7FE8E
:103B6000854209D2A54204D8A04294BF002001207A
:103B700000E00020C0B270BDA542F5D80120F9E7F1
:103B800054DF02202DE9F04F8FB002238DF818305A
:103B9000C34C0023ADF81A30C24D44F6206005F046
:103BA00021F94FF0FF31286805F078F9012209A9C1
:103BB000BD4802F0C5FE07A90122BB4802F0E7FE9E
:103BC0002868B74D05F09AF99DF8240002F0AFFE81
:103BD00080469DF8250002F0AAFE9DF81F30009354
:103BE00007469DF81E30287901939DF81D6002F06C
:103BF0009EFE8346687902F09AFE95F8D450CBEB8E
:103C00000B12054405EB8205ADB2B5F5B46F22BFCA
:103C10004FF4B461B5FBF1F201FB125594F82C207E
:103C2000034626BFADB24FF0000A4FF0010A002A4A
:103C300040F07B8294F8D590B9F1000F40F0758286
:103C4000E37E05900293A27E637E03934046049236
:103C5000FFF77CFF059B002800F06782C8EB081186
:103C600007EB8107BFB2BD4200F25F82009A3602C5
:103C700046EA0246019A1643039A1102029A41EA61
:103C80000241049A0A43964294BF52464AF0010206
:103C9000002A00F04A828548854F0068DFF82C82B0
:103CA0004A464B4606A905F063FA4FF0FF313868E3
:103CB00005F0F4F80223386884F82C3005F01EF97A
:103CC000484607F025FA0126002319460222D8F8B3
:103CD000000007F01FF941F27071012007F0A2F80F
:103CE0006F4B93F82C30022B0BBFB0FA80F50026F7
:103CF0006D0935460A2005F075F8002DE4D1002E37
:103D00003FF44AAF4AF6C871012007F08BF894F8E7
:103D10002CB0BBF1020F7FF43FAF58B94FF0FF3129
:103D2000386805F0BBF80723386884F82C3005F0B4
:103D3000E5F831E7DFF898815E4ED8F800005E4D77
:103D40004FF0FF3105F0AAF85C4B1A6832605A68F0
:103D500072601A899B7AB3724FF00A03328184F839
:103D6000B1300FCD06F1830CACE80F000FCDACE8FD
:103D70000F0095E807004FF001094FF0050A84F89D
:103D800030908CE8070084F8D0A0D8F8000005F047
:103D9000B5F84FF0FF31386805F080F80323386834
:103DA00084F82C3005F0AAF84AF6C871484607F0A6
:103DB00039F894F82C30032B7FF4EEAE0028ADD008
:103DC0004FF0FF31D8F8000005F068F83C4A84F85D
:103DD00030B013683360536873609368B360A5F1C3
:103DE000200E0B2384F8B130BEE80F0006F1830CDF
:103DF000ACE80F00BEE80F00ACE80F0095E8070044
:103E00008CE80700D8F8000084F8D0A005F076F818
:103E10004AF6C871484607F005F894F82C50032D6F
:103E20007FF4BAAE00283FF479AF4FF0FF31D8F8F5
:103E30000000244F05F032F8234B84F830501A6804
:103E400032605A6872601A899B7AB3724FF00A0323
:103E500084F8B130174B328103F183050FCF0FC5C2
:103E60000FCF0FC597E8070085E8070084F8D0A0BA
:103E7000D8F8000005F042F84AF6C871484606F046
:103E8000D1FF94F82C30032B7FF486AE10BB084D85
:103E900028684FF0FF3105F001F8072341E100BF2A
:103EA00054DF022050DF02202CDF022020E102201C
:103EB000C0E0022085DF02205CF0000817F1000856
:103EC00022F1000888F000082EF1000860E00220CE
:103ED000B8E00220DFF8DC824FF0FF31D8F80000B4
:103EE00004F0DCFFA74BA84A03F10C0153F8040BC4
:103EF00042F8040B8B42F9D11B781370A34FA44DE9
:103F00000C2384F8B130042384F830300FCF0FC570
:103F10000FCF0FC597E8070085E807004FF00509A8
:103F2000D8F8000084F8D09004F0E8FF4AF6C87191
:103F3000012006F077FF94F82C30032B7FF42CAE91
:103F400050B9944D4FF0FF31286804F0A7FF0723C4
:103F500084F82C302868EAE64FF0FF31D8F80000EA
:103F600004F09CFF8C4B1A6832605A681B893381BD
:103F7000092384F8B130A7F1200E0823726084F879
:103F80003030BEE80F00A5F1200CACE80F00BEE811
:103F90000F00ACE80F0097E807008CE80700D8F89E
:103FA000000084F8D09004F0A9FF4AF6C8710120FF
:103FB00006F038FF94F82C30032B7FF4EDAD002889
:103FC000BFD04FF0FF31D8F80000744F04F066FF07
:103FD000734B1A6832605A6872601A899B7AB3729E
:103FE0000623328184F830300FCFA5F1200CACE8E5
:103FF0000F000FCFACE80F0097E807004FF00A0A58
:104000004FF0020B84F8B1A08CE8070084F8D0B020
:10401000D8F8000004F072FF4AF6C871012006F0DB
:1040200001FF94F82C30032B7FF4B6AD002888D024
:104030004FF0FF31D8F8000004F030FF594B84F8FE
:10404000B1A01A6832605A6872601A899B7AB3729A
:10405000A7F1200E4FF00703328184F83030BEE81C
:104060000F00A5F1200CACE80F00BEE80F00ACE893
:104070000F0097E807008CE8070084F8D0B0D8F864
:10408000000004F03BFF4AF6C871012006F0CAFEAA
:1040900094F82C30032B7FF47FAD40B93D4D4FF0A9
:1040A000FF31286804F0FAFE4FF0070350E74FF0A5
:1040B000FF31D8F8000004F0F1FE3B4B84F8B1A0CA
:1040C0001A6832605A6872601A899B7A3281B372B8
:1040D000A7F120060FCE203D0FC50FCE0FC597E8E4
:1040E000070084F8309085E8070084F8D0B0D8F84D
:1040F000000004F003FF4AF6C871012006F092FEAA
:1041000094F82C20032A03467FF446AD214D2868FD
:1041100013B94FF0FF31BEE64FF0FF3104F0BEFEA1
:104120000523224A82F82C3014E794F8D400034483
:104130003C2093FBF0F0182383449BFBF3F003FB3C
:1041400010B0C0B2FFF702FD00287FF425AD207843
:1041500002F0EDFB40457FF41FAD94F8D530002B05
:104160007FF41AAD0122124884F8D52008228DF878
:10417000202008A91A460068ADF8223004F0F8FFA4
:104180000AE500BF39F1000885DF02205CF0000875
:1041900008E00220C0E0022046F10008B4F0000868
:1041A00050F100085BF1000866F1000854DF0220BE
:1041B00020E10220B8E0022070B5044600F016FDB0
:1041C000631C064602D000F01DFD0444064D04E0C9
:1041D0002B6923F004032B6130BF00F007FD801B27
:1041E000A042F5D370BD00BF00ED00E00268034BB4
:1041F0009A4201D100F0EEBC704700BF0048014078
:1042000070470000000000001FB56423009303AA5C
:104210000223812101F0CEF880BB9DF80C309DF87F
:104220000D0040EA032000B2FCF754F919A3D3E9CA
:104230000023FCF7B9F919A3D3E90023FCF7DEFA50
:1042400018A3D3E90023FBF7F7FFFCF785FCDFEDAC
:104250000E7A00EE100AB4EEE70AF1EE10FA0DDC69
:10426000DFED0A7AB4EE670ADFED097AF1EE10FAB3
:1042700048BFB0EE670A05B05DF804FB9FED040A85
:10428000F9E700BFAFF300800000FA42000020C24F
:1042900000FF7F47D7A3703D0AF76540000000008C
:1042A000E0FFEF40CDCCCCCCCC6C47401FB5E62333
:1042B0008DF80C300A4364238DF80D20009303AA77
:1042C0000223802100F0E4FF05B05DF804FB1FB578
:1042D00051238DF80C3064238DF80D10009303AA40
:1042E0000223802100F0D4FF05B05DF804FB00003C
:1042F0007FB504ACF52304F8043D64250095012343
:1043000022468021064600F0C3FF20B1124800EE8D
:10431000100A04B070BD1E20FFF74EFF0095022367
:1043200022468121304601F045F80028EED1BDF843
:104330000C0040BA80B2FCF7CDF80022074BFCF726
:1043400033F90022064BFCF72FF90022054BFBF74F
:1043500073FFFCF701FCDAE700FF7F4700405F4096
:104360000000F03E000018401FB504AAF32302F835
:10437000043D6423009380210123044600F088FF5C
:1043800038B91E20FFF718FF2046FFF73DFF04B0A5
:1043900010BD9FED010AFAE700FF7F474FF0B043E1
:1043A00082B0DA6C0243DA64DB6C18400190019B46
:1043B00002B070474FF0B04382B01A6E02431A66E3
:1043C0001B6E18400190019B02B070474FF0B04344
:1043D00007B51A6D42F400221A651B6D03F4002321
:1043E000019300220F216FF00100019B00F032FCCD
:1043F000002205212E2000F02DFC2E2000F05EFC76
:10440000002206212C2000F025FC002206212D2070
:1044100003B05DF804EB00F01DBC00000268154B12
:104420009A4213B5044622D101F010FA01F00EFAB7
:104430004FF0B0432046D3F8902022F4407242F46B
:104440008072C3F89020D3F8902042F40042C3F861
:1044500090209A6D42F480629A659B6D03F48063AC
:104460000193019B02B0BDE8104002F0AFBA02B068
:1044700010BD00BF0028004010B5044686B01422CD
:10448000002101A807F0AFF82268114B9A421DD114
:104490000220FFF783FF4FF440721223CDE901237E
:1044A00001210023CDE9031304230DEB0301094887
:1044B000059300F045FC4FF0B0439A6D42F40012B2
:1044C0009A659B6D03F400130093009B06B010BD2A
:1044D000005400400004004810B5044686B0142281
:1044E000002101A807F07FF822680D4B9A4214D1F1
:1044F0004FF48050FFF75EFF0120FFF74FFF0223CC
:104500008222CDE901230023CDE9033301A905234C
:104510004FF09040059300F013FC06B010BD00BFB3
:104520000030014008B50268084B9A420DD14FF4A3
:104530000060FFF73FFF192000220F2100F08AFBE7
:104540001920BDE8084000F0B9BB08BD002C0140AF
:1045500010B5044686B01422002101A807F043F8E4
:1045600022680B4B9A4211D10120FFF717FF02235B
:104570004FF48072CDE901230023CDE9033301A973
:1045800001234FF09040059300F0DAFB06B010BD18
:10459000002C014010B501468AB000221A2000F01C
:1045A00059FB1A2000F08AFB4FF0B04301A91A6EA4
:1045B000124C42F480221A661B6E03F4802302938D
:1045C00003A8029B01F026FE01F012FE0C4B2360B3
:1045D00040F2E733E3600B4BB0FBF3F0013800230C
:1045E000606020462361A36002F0F4FD20B92046FC
:1045F00002F0DAFC0AB010BD0120FBE794E10220D2
:104600000048014040420F007047FEE7FEE7FEE72A
:10461000FEE77047014802F0F2BC00BF94E10220BF
:1046200000F05EBC082000F04DBC102000F04ABC39
:10463000202000F047BC0000014802F0E0BC00BFB1
:10464000D4E00220FDF710BEFCF78CBEFCF7EABEFA
:1046500070B50E4615460C46A31B9D4201DC28464C
:1046600070BDAFF3008004F8010BF5E74FF0FF30A9
:1046700070474FF400534B60002070470120704793
:104680000020704708B50A4B1968024609B9094964
:1046900019601868694602448A4206D906F06EFF1E
:1046A0000C2303604FF0FF3008BD1A60FCE700BF29
:1046B0003402002080E202202DE9F0411D4C94F8E4
:1046C0004F3094F84E1086B0C3F3810242EAC10223
:1046D0009B018DF815208DF814304FF0FF3802271C
:1046E000264605ADCDE90178009501230022202161
:1046F000304600F0F1FE0128F3D0002394F84C205E
:104700008DF8153094F84D300A4C43EA42038DF889
:1047100014304FF0FF370226CDE9016700950123E1
:1047200003222021204600F0D7FE0128F4D006B055
:10473000BDE8F081E0E1022084B010B502AC84E86D
:104740000F000F4B9DF854404C22184602A906F06A
:104750003FFF0022012C034680F850200AD006D3E8
:10476000022C0AD0BDE8104004B0FFF7A5BF054AEF
:10477000DA64F7E74FF48032FAE7034AF8E700BF5C
:10478000E0E10220030101030000010C38B51A4CDE
:1047900094F85030054673B394F84E30022B0AD08B
:1047A0004EF26562904206D9012B13D016D3032B2B
:1047B00016D0FFF781FF94F84E30012B1BD047F243
:1047C0003132954217D8022B0CD0032B11D063B98C
:1047D000012308E0002384F84E30EAE70323FAE7D8
:1047E0000223F8E7032384F84E30BDE83840FFF792
:1047F00063BF0023F7E738BDE0E102201A4B93F8CE
:104800004E2007EE900A022AB8EE670A17D0032A54
:1048100012D0012A03D1F6EE007A20EE270A93F88F
:104820004F30013B0B2B11D8DFE803F014171A109F
:10483000101010111010100CF1EE007AEDE7F2EEEE
:10484000007AEAE7F1EE007A20EE270A704730EEB0
:10485000000A7047F6EE007AF6E7F5EE007AF3E725
:10486000F4EE007AF0E700BFE0E102200000000073
:10487000F0B500248BB04FF0FF35022609AB009352
:10488000CDE90165012304222021514800F0D8FE22
:1048900001340128A4B204D1B4F5967FEED14D4B7A
:1048A00074E0B4F5967FFAD09DF825309DF8244049
:1048B00044EA03242046FFF769FF2046FFF79EFFE6
:1048C00010EE100AFBF718FE33A3D3E90023FBF721
:1048D0006BFEFCF741F93E4AB2F84E1040F6024238
:1048E0009142034652D1FBF707FE04460D469FED69
:1048F0002C1B45EC104B08F041F851EC100B9FEDD0
:104900002A1B45EC104BCDE9060108F037F828A327
:10491000D3E90023DDE906018DED040BFBF744FE2E
:104920009DED040B06460F4623A3D3E9002351EC6B
:10493000100BFBF739FE02460B4630463946FBF7B3
:104940007BFC224606460F462B4620462946FBF7AF
:104950002BFE1BA3D3E90023FBF726FE02460B46E2
:1049600030463946FBF76AFC17A3D3E90023064615
:104970000F4620462946FBF717FE0B4602463946EE
:104980003046FBF75BFCFCF7E7F8034600EE103A15
:104990000BB0F0BDAFF3008092CB7F48BF7DAD3F41
:1049A000000000000000104000000000000008406F
:1049B0003B288FB17A28653D6EF41EC9862B443E94
:1049C000B0CA182E915C153F287E8CB96B09F03F58
:1049D000E0E10220000080BFF0B500248BB04FF072
:1049E000FF35022609AB0093CDE9016501230522BD
:1049F0002021514800F024FE01340128A4B204D142
:104A0000B4F5967FEED14D4B74E0B4F5967FFAD0B5
:104A10009DF825309DF8244044EA03242046FFF702
:104A2000B5FE2046FFF7EAFE10EE100AFBF764FD24
:104A300033A3D3E90023FBF7B7FDFCF78DF83E4A1B
:104A4000B2F84E1040F602429142034652D1FBF7B3
:104A500053FD04460D469FED2C1B45EC104B07F013
:104A60008DFF51EC100B9FED2A1B45EC104BCDE94F
:104A7000060107F083FF28A3D3E90023DDE906013F
:104A80008DED040BFBF790FD9DED040B06460F46E4
:104A900023A3D3E9002351EC100BFBF785FD02465D
:104AA0000B4630463946FBF7C7FB224606460F4603
:104AB0002B4620462946FBF777FD1BA3D3E90023AD
:104AC000FBF772FD02460B4630463946FBF7B6FB54
:104AD00017A3D3E9002306460F4620462946FBF7D5
:104AE00063FD0B46024639463046FBF7A7FBFCF751
:104AF00033F8034600EE103A0BB0F0BDAFF3008080
:104B000092CB7F48BF7DAD3F000000000000104009
:104B100000000000000008403B288FB17A28653D66
:104B20006EF41EC9862B443EB0CA182E915C153F08
:104B3000287E8CB96B09F03FE0E10220000080BFC5
:104B4000174B00219960D3F8882042F47002C3F813
:104B500088204FF0B0436FF4827C1A6842F0010263
:104B60001A604FF4E0229A601868A2F1A2626244CF
:104B700002401A60D3F8942022F00502C3F8942072
:104B8000D3F8982022F00102C3F89820054ADA6091
:104B90001A611A6822F480221A609961704700BF76
:104BA00000ED00E000100422094A136843F480730A
:104BB00010B50320136000F03BF80020FFF7EAFC7B
:104BC000044618B9FFF702FC204610BD0124FBE79C
:104BD00000400058034A044B11681B780B441360D3
:104BE000704700BF34E2022018000020014B186813
:104BF000704700BF34E20220014B1868704700BFC5
:104C00001C000020014B1878704700BF18000020DE
:104C1000024A536843F0010353607047002004E0E8
:104C2000024A536843F0020353607047002004E0D7
:104C3000074AD36823F4E0631B041B0C43F0BF63F3
:104C4000000243F4003300F4E0600343D360704794
:104C500000ED00E0174B70B5DC68C4F30224C4F12A
:104C60000705042D04F1040328BF04254FF0FF3687
:104C7000062B06FA05F38CBF033C002421EA03034C
:104C8000A34006FA04F422EA0404002843EA0403D9
:104C9000A8BF00F160404FEA0313BCBF00F00F0053
:104CA000054ADBB2AABF00F56140135480F8003317
:104CB00070BD00BF00ED00E014ED00E0002808DB4F
:104CC0000123420900F01F0003FA00F0014B43F8F2
:104CD0002200704700E100E000280DDB43090122BB
:104CE00000F01F0002FA00F02033044A42F82300CB
:104CF000BFF34F8FBFF36F8F704700BF00E100E03D
:104D0000002809DB4309012200F01F0002FA00F02D
:104D10004033024A42F82300704700BF00E100E040
:104D2000002809DB4309012200F01F0002FA00F00D
:104D30006033024A42F82300704700BF00E100E000
:104D40002DE9F04F574AD1F800E000234FF00F094A
:104D50003EFA03F401D1BDE8F08F012404FA03F810
:104D600018EA0E0500F094804C6824F0100A4FEA0F
:104D7000430C03260AF1FF3706FA0CF6012F6FEAFF
:104D8000060611D8876807EA060BCF6807FA0CF702
:104D900047EA0B078760476827EA0808C4F300174B
:104DA0009F4047EA08074760C76807EA06088F6818
:104DB00007FA0CF747EA0807BAF1020FC76014D1E7
:104DC0004FEAD30800EB880803F0070AD8F82070F0
:104DD0004FEA8A0A09FA0AFB27EA0B0B0F6907FA5E
:104DE0000AF747EA0B07C8F8207007683E4004F04E
:104DF000030707FA0CFC4CEA06060660E60047D5F6
:104E000023F0030707F1804707F5803703F0030C11
:104E1000BE684FEA8C0C09FA0CF8B0F1904F26EA04
:104E2000080837D0204EB04236D006F58066B04232
:104E300034D006F58066B04232D006F58066B042C6
:104E400014BF0726042606FA0CF646EA0806BE60DA
:104E5000D2F88060EF4314F4803F0CBF3E402E43F5
:104E6000C2F88060D2F8846014F4003F0CBF3E406A
:104E70002E43C2F88460166814F4801F0CBF3E40B5
:104E80002E4316605668A40254BF3E402E4356601F
:104E900001335DE70026D6E70126D4E70226D2E7F4
:104EA0000326D0E7000800580004004803691942AF
:104EB00014BF0120002070470AB1816170478162F0
:104EC0007047000008B5044BD968014202D0D86091
:104ED000FEF71EFE08BD00BF000800587047000026
:104EE00008B5054BD8681A6822EA00021A605860B3
:104EF000FFF7F4FF08BD00BF0015005803689A696A
:104F0000910744BF00229A629A69D2075EBF9A69EC
:104F100042F001029A61704730B5039D046845EA8A
:104F200002421343C1F309021A43044B606843EA87
:104F3000555320EA03000243626030BDFF63FF0364
:104F4000036870B50446986910F010000D461646C7
:104F500016D170BD691C14D0FFF748FE801BA84213
:104F600000D86DB9636C43F020036364202384F898
:104F70004130002384F8423084F840300120E8E7D3
:104F8000236899698A06E5D510222025DA61204632
:104F9000DD61FFF7B3FF2268536823F0FF7323F44A
:104FA0008B3323F4FF7323F001035360636C43F0EE
:104FB0000403636484F84150DBE770B504460D4692
:104FC000164623689B695B070ED432462946204665
:104FD000FFF7B6FFF0B923689A6991061CD59A6964
:104FE000520703D5228D0AB1002070BD2021D9615E
:104FF0005A6822F0FF7222F48B3222F4FF7222F000
:1050000001025A600023636484F8411084F842303E
:1050100084F840300120E8E7FFF7E8FD801BA84254
:1050200001D8002DCDD1636C43F0200363642023AD
:1050300084F841300023EBE770B504460D46164670
:1050400023689B699B0601D5002070BD3246294626
:105050002046FFF775FF90B9FFF7C8FD801BA842F7
:1050600001D8002DECD1636C43F02003636420234E
:1050700084F84130002384F8423084F84030012025
:10508000E3E72DE9F041069F0446884616461D4693
:105090002268936938EA03030CBF01230023B3425B
:1050A00001D0002015E06B1CF3D0FFF79FFDC01B63
:1050B000A84201D8002DEBD1636C43F02003636458
:1050C000202384F84130002384F8423084F84030B3
:1050D0000120BDE8F08170B504460D4616462368F0
:1050E0009B699B0701D5002070BD324629462046AA
:1050F000FFF726FFA0B96A1CF1D0FFF777FD801BF0
:10510000A84201D8002DEAD1636C43F02003636408
:10511000202384F84130002384F8423084F8403062
:105120000120E1E7F7B5099E1F46164B009305469F
:1051300014464FF08073FAB2FFF7EEFE324608993C
:105140002846FFF7C8FF10B1012003B0F0BD012FC2
:105150002B680CD1E4B29C62089B0096002280214F
:105160002846FFF78EFF003018BF0120EDE7220A26
:105170009A62089932462846FFF7ADFF0028E3D12E
:105180002B68E7E700200080F7B5099E1F46164B05
:105190000093054614460023FAB2FFF7BDFE3246DF
:1051A00008992846FFF797FF10B1012003B0F0BD22
:1051B000012F2B680CD1E4B29C62089B0096002260
:1051C00040212846FFF75DFF003018BF0120EDE7C2
:1051D000220A9A62089932462846FFF77CFF002887
:1051E000E3D12B68E7E700BF0020008010B504463C
:1051F00000284AD090F8413003F0FF021BB980F834
:105200004020FFF739F9242384F8413023681A68D5
:1052100022F001021A60626822F070621A619A68D4
:1052200022F400429A60D4E90221012924D142F4F7
:1052300000429A605A6842F0007242F400425A609A
:10524000DA6822F40042DA60D4E904210A43A16951
:1052500042EA0122DA60D4E907210A431A601A6897
:1052600042F001021A6000202023606484F841307B
:10527000206384F8420010BD42F4044202299A607F
:1052800004BF4FF400625A60D4E70120F3E7000046
:105290002DE9F743984690F84130202B04460E46FE
:1052A000914640F0828090F84030012B7DD001275C
:1052B00080F84070FFF79AFC1923054600903A46A3
:1052C0004FF400412046FFF7DCFE18B1012003B087
:1052D000BDE8F083212384F84130102384F8423064
:1052E0006064A4F82A80638DC4F82490FF2B606367
:1052F0002F4B26D9FF22228500934FF08073314631
:105300002046FFF709FE638D0A999BB22A46204684
:10531000FBB9FFF791FE0028D8D123682021D9617D
:105320005A6822F0FF7222F48B3222F4FF7222F0CC
:1053300001025A6084F8411084F8400084F8420069
:10534000C5E7628D009392B222854FF00073D2B20E
:10535000D5E7FFF7C0FE0028B8D1636A226813F8CA
:10536000011B91626362638D228D013B9BB2638559
:10537000638D013A92B29BB22285002BC3D0002AE2
:10538000C1D100950A9B80212046FFF77AFE0028B4
:105390009CD1638DFF2B03D9FF2222850090ACE7BF
:1053A000628D009092B22285CFE702208FE700BF86
:1053B000002000802DE9F743984690F84130202BDB
:1053C00004460E46914640F0838090F84030012B11
:1053D0007ED0012780F84070FFF708FC19230546AE
:1053E00000903A464FF400412046FFF74AFE18B1BC
:1053F000012003B0BDE8F083222384F8413010235C
:1054000084F842306064A4F82A80638DC4F8249044
:10541000FF2B60632F4B26D9FF22228500934FF08C
:10542000807331462046FFF777FD638D0A999BB262
:105430002A462046FBB9FFF7FFFD0028D8D1236894
:105440002021D9615A6822F0FF7222F48B3222F4B3
:10545000FF7222F001025A6084F8411084F8400083
:1054600084F84200C5E7628D009392B222854FF026
:105470000073D2B2D5E7FFF7A0FD0028B8D12368AA
:105480005A6A636A1A70636A228D01336362638D9C
:10549000013B9BB26385638D013A92B29BB2228538
:1054A000002BC2D0002AC0D100950A9B8021204643
:1054B000FFF7E7FD00289BD1638DFF2B03D9FF2267
:1054C00022850090ABE7628D009092B22285CEE7F4
:1054D00002208EE7002400802DE9F04F9B4690F8D3
:1054E000413085B0202B04460F460392BDF83CA006
:1054F000DDF8408040F0A2800E9B13B1BAF1000F9E
:1055000006D14FF400736364012005B0BDE8F08F4D
:1055100090F84030012B00F09180012580F8405038
:10552000FFF764FB1923009006462A464FF400411A
:105530002046FFF7A6FD81460028E5D1212384F807
:105540004130402384F842300E9B606463626063A4
:10555000A4F82AA0CDE900865B46039A3946204686
:10556000FFF7E0FD10B184F84090CDE7638DFF2B8D
:1055700054D9FF22228500904FF08073394620468F
:10558000FFF7CAFC324641462046FFF7A4FD00283B
:10559000BAD1636A226813F8011B91626362638D5A
:1055A000228D013B9BB26385638D013A92B29BB21F
:1055B0002285A3B19AB90096434680212046FFF781
:1055C00060FD0028A0D1638DFF2B2FD9FF222285FB
:1055D00000904FF0807339462046FFF79DFC638DA5
:1055E0009BB2002BCED1324641462046FFF724FD28
:1055F000002889D123682021D9615A6822F0FF72DE
:1056000022F48B3222F4FF7222F001025A6084F8F5
:10561000411084F8400084F8420076E7628D0090E3
:1056200092B222854FF00073D2B2A7E7628D00904C
:1056300092B222854FF00073D2B2CCE7022064E729
:105640002DE9F04F9B4690F8413085B0202B044661
:105650000F460392BDF83CA0DDF8408040F0A680E4
:105660000E9B13B1BAF1000F06D14FF400736364BF
:10567000012005B0BDE8F08F90F84030012B00F01C
:105680009580012580F84050FFF7B0FA192300906B
:1056900006462A464FF400412046FFF7F2FC8146B9
:1056A0000028E5D1222384F84130402384F8423099
:1056B0000E9B606463626063A4F82AA0CDE9008653
:1056C0005B46039A39462046FFF75EFD10B184F829
:1056D0004090CDE7638DFF2B354B57D9FF220093C8
:1056E00022854FF0807339462046FFF715FC00965F
:1056F0004346002204212046FFF7C3FC0028B7D10F
:1057000023685A6A636A1A70636A228D013363627E
:10571000638D013B9BB26385638D013A92B29BB26C
:105720002285A3B19AB90096434680212046FFF70F
:10573000A8FC00289CD1638DFF2B2FD9FF22228546
:1057400000904FF0807339462046FFF7E5FB638DEC
:105750009BB2002BCBD1324641462046FFF76CFC72
:10576000002885D123682021D9615A6822F0FF7270
:1057700022F48B3222F4FF7222F001025A6084F884
:10578000411084F8400084F8420072E7628D009373
:1057900092B222854FF00073D2B2A4E7628D0090DE
:1057A00092B222854FF00073D2B2CCE7022060E7BC
:1057B0000024008090F84120D2B2202A10B51DD1DB
:1057C00090F84030012B19D0242380F84130036831
:1057D0001C6824F001041C601C6824F480541C60C4
:1057E0001C6821431960196841F001011960002308
:1057F00080F8412080F84030184610BD0220FCE7B8
:1058000010B590F84140E4B2202C1CD190F8403003
:10581000012B18D0242380F8413003681A6822F045
:1058200001021A601A6822F4706242EA01211960CA
:105830001A6842F001021A60002380F8414080F8A3
:105840004030184610BD0220FCE70000024A1368F1
:1058500043F480731360704700040058024B1868CB
:1058600000F4C060704700BF000400584FF0B04320
:105870001868C0F3404070474FF0B0431868C0F359
:10588000802070474FF0B043D3F89400C0F340003D
:1058900070474FF0B0431868C0F3400070474FF0B6
:1058A000B042136823F0F0031843106070474FF0C4
:1058B000B043186800F0F000B02828BFB02070474F
:1058C0004FF0B042536823F47F4343EA0020506016
:1058D00070470000B0282E4B2E4A98BF0009F0B543
:1058E0008CBFDD6A53F820502B4C4FF0B04389B089
:1058F000D3F8083103F00F036E4652F82330B5FB9E
:10590000F3F5264BB5FBF3F5FFF7A8FF074694E840
:105910000F00103486E80F0094E80F00B7F5007F01
:1059200008AC04E90F0017D0062D24D90C2D24D97A
:10593000102D24D900241A4D2B6823F0070323438C
:105940002B60FFF753F906462B6803F007039C42D0
:1059500017D1002009B0F0BD002356F8232095424E
:1059600005D808AA02EB830353F8104CE3E7013390
:10597000042BF2D1DEE70023F3E70123F1E7022352
:10598000EFE7FFF733F9801B0228DDD90320E1E7B9
:10599000B0F3000850F3000890DA000840420F000E
:1059A000004000584FF0B04208B5936813F00C0364
:1059B00007D1FFF77CFF1F4BC0F3031053F8200003
:1059C00008BD042B33D0082B07D113681A4813F4F1
:1059D000801F1A4B08BF1846F2E7D36803F0030391
:1059E000022B22D0032B18D11368134813F4801F05
:1059F000124B18BF03464FF0B042D068D168D2684E
:105A0000C0F306205843C1F302130133B0FBF3F097
:105A1000530F0133B0FBF3F0D2E7FFF748FF054B1C
:105A2000C0F3031053F82030E5E7034BE3E70248E7
:105A3000C6E700BFB0F300080024F4000048E80106
:105A400008B5FFF7AFFF4FF0B043044A9B68C3F3BC
:105A5000031352F82330B0FBF3F008BD50F30008F5
:105A6000F8B5044608B9012083E003689F062CD5E9
:105A70004FF0B0429368D26813F00C0305D00C2BA2
:105A80005CD102F00303012B58D1FFF702FF10B1E4
:105A9000E369002BE7D0626AFFF709FF8242606A80
:105AA00041D9FFF717FF0028DDD1606AFFF7F7FE45
:105AB000206AFFF705FFFFF7C3FFB54B1860B54B32
:105AC0001868FEF767FD0028CDD12368DE0762D491
:105AD00023689D0700F1A080236813F0180F40F0A1
