:020000040800F2
:1000000000000320F11E0008393E0008473E0008AA
:100010004D3E0008533E0008593E00080000000015
:10002000000000000000000000000000E1B7000830
:100030005F3E00080000000021BA000889BA0008ED
:10004000451F0008451F0008451F0008073F00081E
:10005000451F0008451F0008EB3E0008F93E000858
:10006000451F0008451F0008DD3E0008451F000829
:10007000451F0008451F00086D3E0008451F000889
:10008000451F0008451F0008451F0008451F0008C0
:10009000451F0008451F0008451F0008451F0008B0
:1000A000451F0008451F0008813E0008451F000845
:1000B000451F0008451F0008451F0008451F000890
:1000C000451F0008451F0008451F0008451F000880
:1000D000953E0008A93E0008451F0008451F00087E
:1000E000451F0008451F0008451F0008451F000860
:1000F0001F3F0008133F0008BD3E0008451F0008D1
:10010000451F0008451F0008451F0008451F00083F
:10011000451F0008451F0008451F0008451F00082F
:10012000451F0008451F0008C93E0008451F00087C
:0C013000451F0008451F0008451F00087F
:1001400010B5054C237833B9044B13B10448AFF311
:1001500000800123237010BD8C03002000000000EC
:100160009014010808B5034B1BB103490348AFF3D2
:10017000008008BD000000009003002090140108DA
:10018000034613F8012B002AFBD1181A01387047D7
:1001900001F0FF01102A2BDB10F0070F08D010F838
:1001A000013B013A8B422DD010F0070F42B3F6D13C
:1001B000F0B441EA012141EA014122F007047FF055
:1001C00000070023F0E80256083C85EA010586EAAC
:1001D000010685FA47F5A3FA87F586FA47F6A5FAE8
:1001E00087F68EB9EED1F0BC01F0FF0102F00702F4
:1001F00032B110F8013B013A83EA010313B1F8D19F
:100200000020704701387047002D06BF354603387F
:10021000073815F0010F07D1013015F4807F02BFB8
:10022000013015F4C03F0130F0BC0138704700BF09
:1002300081F0004102E000BF83F0004330B54FEA97
:1002400041044FEA430594EA050F08BF90EA020F04
:100250001FBF54EA000C55EA020C7FEA645C7FEA97
:10026000655C00F0E2804FEA5454D4EB5555B8BFBA
:100270006D420CDD2C4480EA020281EA030382EA2B
:10028000000083EA010180EA020281EA0303362DBD
:1002900088BF30BD11F0004F4FEA01314FF4801C90
:1002A0004CEA113102D0404261EB410113F0004FA2
:1002B0004FEA03334CEA133302D0524263EB430359
:1002C00094EA050F00F0A780A4F10104D5F1200EF7
:1002D0000DDB02FA0EFC22FA05F2801841F1000152
:1002E00003FA0EF2801843FA05F359410EE0A5F126
:1002F00020050EF1200E012A03FA0EFC28BF4CF057
:10030000020C43FA05F3C01851EBE37101F000450C
:1003100007D54FF0000EDCF1000C7EEB00006EEB19
:100320000101B1F5801F1BD3B1F5001F0CD34908A3
:100330005FEA30004FEA3C0C04F101044FEA4452FA
:1003400012F5800F80F09A80BCF1004F08BF5FEA81
:10035000500C50F1000041EB045141EA050130BD61
:100360005FEA4C0C404141EB010111F4801FA4F104
:100370000104E9D191F0000F04BF01460020B1FA59
:1003800081F308BF2033A3F10B03B3F120020CDA91
:100390000C3208DD02F1140CC2F10C0201FA0CF06F
:1003A00021FA02F10CE002F11402D8BFC2F1200CD4
:1003B00001FA02F120FA0CFCDCBF41EA0C0190408A
:1003C000E41AA2BF01EB0451294330BD6FEA0404D3
:1003D0001F3C1CDA0C340EDC04F11404C4F12002BE
:1003E00020FA04F001FA02F340EA030021FA04F3D0
:1003F00045EA030130BDC4F10C04C4F1200220FA27
:1004000002F001FA04F340EA0300294630BD21FA64
:1004100004F0294630BD94F0000F83F4801306BF2A
:1004200081F480110134013D4EE77FEA645C18BF1E
:100430007FEA655C29D094EA050F08BF90EA020FB5
:1004400005D054EA000C04BF1946104630BD91EAAD
:10045000030F1EBF0021002030BD5FEA545C05D1B0
:100460004000494128BF41F0004130BD14F58004EF
:100470003CBF01F5801130BD01F0004545F0FE4163
:1004800041F470014FF0000030BD7FEA645C1ABF98
:10049000194610467FEA655C1CBF0B46024650EACF
:1004A000013406BF52EA033591EA030F41F40021FB
:1004B00030BD00BF90F0000F04BF0021704730B581
:1004C0004FF4806404F132044FF000054FF0000156
:1004D00050E700BF90F0000F04BF0021704730B517
:1004E0004FF4806404F1320410F0004548BF4042EC
:1004F0004FF000013EE700BF42004FEAE2014FEA41
:1005000031014FEA02701FBF12F07F4393F07F4F1B
:1005100081F06051704732F07F4208BF704793F01E
:100520007F4F04BF41F40021704730B54FF4607431
:1005300001F0004521F000411CE700BF50EA010234
:1005400008BF704730B54FF000050AE050EA0102DD
:1005500008BF704730B511F0004502D5404261EB4D
:1005600041014FF4806404F132045FEA915C3FF48E
:10057000D8AE4FF003025FEADC0C18BF03325FEA2B
:10058000DC0C18BF033202EBDC02C2F1200300FADC
:1005900003FC20FA02F001FA03FE40EA0E0021FA01
:1005A00002F11444BDE600BF70B54FF0FF0C4CF4EF
:1005B000E06C1CEA11541DBF1CEA135594EA0C0FA1
:1005C00095EA0C0F00F0DEF82C4481EA030621EADC
:1005D0004C5123EA4C5350EA013518BF52EA033517
:1005E00041F4801143F4801338D0A0FB02CE4FF0C9
:1005F0000005E1FB02E506F00042E0FB03E54FF0F9
:100600000006E1FB03569CF0000F18BF4EF0010EF0
:10061000A4F1FF04B6F5007F64F5407404D25FEAEC
:100620004E0E6D4146EB060642EAC62141EA55519F
:100630004FEAC52040EA5E504FEACE2EB4F1FD0CE1
:1006400088BFBCF5E06F1ED8BEF1004F08BF5FEA5F
:10065000500E50F1000041EB045170BD06F0004611
:1006600046EA010140EA020081EA0301B4EB5C04BE
:10067000C2BFD4EB0C0541EA045170BD41F48011B6
:100680004FF0000E013C00F3AB8014F1360FDEBFDB
:10069000002001F0004170BDC4F10004203C35DAB7
:1006A0000C341BDC04F11404C4F1200500FA05F33A
:1006B00020FA04F001FA05F240EA020001F00042DB
:1006C00021F0004110EBD37021FA04F642EB060151
:1006D0005EEA430E08BF20EAD37070BDC4F10C047B
:1006E000C4F1200500FA04F320FA05F001FA04F23F
:1006F00040EA020001F0004110EBD37041F100012B
:100700005EEA430E08BF20EAD37070BDC4F1200535
:1007100000FA05F24EEA020E20FA04F301FA05F29D
:1007200043EA020321FA04F001F0004121FA04F245
:1007300020EA020000EBD3705EEA430E08BF20EA15
:10074000D37070BD94F0000F0FD101F0004640004F
:1007500041EB010111F4801F08BF013CF7D041EAD1
:10076000060195F0000F18BF704703F000465200D5
:1007700043EB030313F4801F08BF013DF7D043EAA6
:100780000603704794EA0C0F0CEA135518BF95EA5C
:100790000C0F0CD050EA410618BF52EA4306D1D1E3
:1007A00081EA030101F000414FF0000070BD50EA02
:1007B000410606BF1046194652EA430619D094EA8C
:1007C0000C0F02D150EA013613D195EA0C0F05D176
:1007D00052EA03361CBF104619460AD181EA0301CA
:1007E00001F0004141F0FE4141F470014FF0000082
:1007F00070BD41F0FE4141F4780170BD70B54FF01D
:10080000FF0C4CF4E06C1CEA11541DBF1CEA13559C
:1008100094EA0C0F95EA0C0F00F0A7F8A4EB05047E
:1008200081EA030E52EA03354FEA013100F0888075
:100830004FEA03334FF0805545EA131343EA12633E
:100840004FEA022245EA111545EA10654FEA0026F3
:100850000EF000419D4208BF964244F1FD0404F5AC
:10086000407402D25B084FEA3202B61A65EB030508
:100870005B084FEA32024FF480104FF4002CB6EBC5
:10088000020E75EB030E22BFB61A754640EA0C0045
:100890005B084FEA3202B6EB020E75EB030E22BF85
:1008A000B61A754640EA5C005B084FEA3202B6EBC6
:1008B000020E75EB030E22BFB61A754640EA9C0085
:1008C0005B084FEA3202B6EB020E75EB030E22BF55
:1008D000B61A754640EADC0055EA060E18D04FEA13
:1008E000051545EA16754FEA06164FEAC30343EAB3
:1008F00052734FEAC2025FEA1C1CC0D111F4801F80
:100900000BD141EA00014FF000004FF0004CB6E778
:1009100011F4801F04BF01430020B4F1FD0C88BF17
:10092000BCF5E06F3FF6AFAEB5EB030C04BFB6EB22
:10093000020C5FEA500C50F1000041EB045170BD15
:100940000EF0004E4EEA113114EB5C04C2BFD4EB42
:100950000C0541EA045170BD41F480114FF0000EC6
:10096000013C90E645EA060E8DE60CEA135594EA42
:100970000C0F08BF95EA0C0F3FF43BAF94EA0C0F45
:100980000AD150EA01347FF434AF95EA0C0F7FF4BA
:1009900025AF104619462CE795EA0C0F06D152EA0E
:1009A00003353FF4FDAE1046194622E750EA4106F2
:1009B00018BF52EA43067FF4C5AE50EA41047FF403
:1009C0000DAF52EA43057FF4EBAE12E74FF0FF3C68
:1009D00006E000BF4FF0010C02E000BF4FF0010C39
:1009E0004DF804CD4FEA410C7FEA6C5C4FEA430CB2
:1009F00018BF7FEA6C5C1BD001B050EA410C0CBF01
:100A000052EA430C91EA030F02BF90EA020F002062
:100A1000704710F1000F91EA030F58BF994208BFC9
:100A200090422CBFD8176FEAE37040F00100704786
:100A30004FEA410C7FEA6C5C02D150EA013C07D1DD
:100A40004FEA430C7FEA6C5CD6D152EA033CD3D028
:100A50005DF8040B704700BF8446104662468C4622
:100A60001946634600E000BF01B5FFF7B7FF002855
:100A700048BF10F1000F01BD4DF808EDFFF7F4FF7E
:100A80000CBF012000205DF808FB00BF4DF808ED09
:100A9000FFF7EAFF34BF012000205DF808FB00BF2C
:100AA0004DF808EDFFF7E0FF94BF012000205DF84E
:100AB00008FB00BF4DF808EDFFF7CEFF94BF012003
:100AC00000205DF808FB00BF4DF808EDFFF7C4FFFC
:100AD00034BF012000205DF808FB00BF4FEA410C45
:100AE0007FEA6C5C02D150EA013C0AD14FEA430C28
:100AF0007FEA6C5C02D152EA033C02D14FF0000065
:100B000070474FF0010070474FEA410212F50012A2
:100B100015D211D56FF47873B3EB625212D94FEA44
:100B2000C12343F0004343EA505311F0004F23FA2E
:100B300002F018BF404270474FF00000704750EA83
:100B4000013005D111F0004008BF6FF00040704740
:100B50004FF00000704700BF53B94AB9002908BFE1
:100B600000281CBF4FF0FF314FF0FF3000F072B98A
:100B7000ADF1080C6DE904CE00F006F8DDF804E0F4
:100B8000DDE9022304B070472DE9F047089E0446D2
:100B90008846002B4BD18A42154667D9B2FA82F2B9
:100BA0004AB1C2F1200701FA02F320FA07F7954093
:100BB00047EA030894404FEA154E230CB8FBFEF7B2
:100BC0001FFA85FC0EFB178843EA084307FB0CF16C
:100BD000994209D9EB1807F1FF3080F01B81994247
:100BE00040F21881023F2B445B1AA4B2B3FBFEF023
:100BF0000EFB103344EA034400FB0CFCA44509D966
:100C00002C1900F1FF3380F00781A44540F20481E4
:100C100002382C4440EA0740A4EB0C0400271EB124
:100C2000D4400023C6E900433946BDE8F0878B4233
:100C300009D9002E00F0EB800027C6E900013846F4
:100C40003946BDE8F087B3FA83F7002F47D18B42CE
:100C500002D3824200F2FA80841A61EB030301207E
:100C60009846002EE0D0C6E90048DDE702B9FFDE75
:100C7000B2FA82F2002A40F08F80491B4FEA154EEB
:100C80001FFA85F80127B1FBFEFC230C0EFB1C119B
:100C900043EA014308FB0CF1994207D9EB180CF128
:100CA000FF3002D2994200F2CD808446591AA3B295
:100CB000B1FBFEF00EFB101443EA044408FB00F8FD
:100CC000A04507D92C1900F1FF3302D2A04500F24C
:100CD000B6801846A4EB080440EA0C409FE7C7F131
:100CE000200CBB4022FA0CFE4EEA030E01FA07F478
:100CF00020FA0CF521FA0CF34FEA1E482543B3FB0A
:100D0000F8F92C0C08FB19331FFA8EFA44EA034356
:100D100009FB0AF49C4202FA07F200FA07F10BD928
:100D20001EEB030309F1FF3080F087809C4240F204
:100D30008480A9F1020973441B1BADB2B3FBF8F028
:100D400008FB103345EA034400FB0AFAA24508D920
:100D50001EEB040400F1FF336BD2A24569D90238BF
:100D6000744440EA0940A0FB0289A4EB0A044C4504
:100D7000C2464B4654D351D0002E69D0B1EB0A0580
:100D800064EB030404FA0CFCFD40FC404CEA05054E
:100D9000C6E90054002747E7C2F1200320FA03F711
:100DA000954001FA02F021FA03F34FEA154E384359
:100DB000010CB3FBFEF71FFA85F80EFB173341EA6F
:100DC000034107FB08F38B4204FA02F407D96918C0
:100DD00007F1FF3C2FD28B422DD9023F2944CB1A79
:100DE00081B2B3FBFEF00EFB103341EA034100FB7E
:100DF00008F38B4207D9691800F1FF3C17D28B42E8
:100E000015D902382944C91A40EA07473BE7374653
:100E1000304609E70746E7E61846FBE64145ABD210
:100E2000B8EB020A69EB0E0201381346A4E76046EC
:100E3000E9E7184695E76746D1E781467CE702383F
:100E40002C4447E7ACF1020C2B442FE7384608E767
:100E50003746E9E6704700BF80B400AF034B1B681C
:100E60001846BD465DF8047B704700BF8075FF1FC4
:100E700080B400AF034B1B68DBB21846BD465DF87B
:100E8000047B70478475FF1F80B400AF034B1B6861
:100E90001B0A1846BD465DF8047B70478475FF1F2A
:100EA000B0B58CB000AF2B4B3C461D460FCD0FC4E8
:100EB0000FCD0FC495E80F0007C4237000F012FA9D
:100EC000012102200DF0F6FE234A0021234809F0FB
:100ED000B5FF0246224B1A603B46184608F046FB17
:100EE0000346002B01D002F05FFD00F023FA07F06B
:100EF000E9FA1C4B002283F880201A4B4FF6FF7250
:100F0000DA82194A0021194809F098FF0246184B65
:100F10001A60184B00221A70174B01221A7000F049
:100F200007FD164B00221649002001F0A1FF0D4BD2
:100F300000225A760B4B00221A76124B80221A801E
:100F4000114BA0221A80012000F0D0FA00BF3037E8
:100F5000BD46B0BDD4140108141D010801170008D6
:100F6000DC3800200C020020F01C0108D916000813
:100F7000EC380020E5380020E4380020C1160008D5
:100F80008D020020900200209202002080B58CB0DB
:100F900000AF7860422387F82F307B680133BB6253
:100FA000BB6A1B783E2B28D0FF2B00F0A580052BB9
:100FB00000D045E1BB6A02333B613B69B3F80130C5
:100FC0009AB2A24BDB8A9A4209D1A04B0022DA8264
:100FD0009E4B002283F880209D480EF0A7FB012045
:100FE00000F084FA9B4B01221A70984BDA8A994BD5
:100FF0005A80984800F088FC22E1BB6A0233FB610A
:10100000FB691B78032B04D00C2B06D0012B42D09C
:1010100071E091480EF08AFB6DE090480EF086FB7F
:10102000FB690133BB61BB691B78002B03D18C4882
:101030000EF07CFB02E08B480EF078FB834BDB8AE2
:1010400007F10E0207F10F01184608F0A0F9034658
:1010500087F82F3097F82F30002B18D182480EF0E8
:1010600065FBFB7B022B0AD1BB7B022B07D1FB7BF1
:101070001946BB7B1A467D480EF0E4FA3BE0FB7B49
:101080001946BB7B1A4679480EF0DCFA33E0784803
:101090000EF04CFB2FE0FB6901337B616B4B93F847
:1010A0008130184601F05AFF7B69B3F801309BB2DA
:1010B000194670480EF0C6FA644B93F88030042B42
:1010C00004D1624B062283F8802003E05F4B0522A7
:1010D00083F880207B69B3F801309AB25B4BDA82E7
:1010E0005C4B00221A70594BDA8A5A4B5A80594885
:1010F00000F00AFC00BFA3E0BB6A02337B627B6A9C
:101100001B889BB240F2054293424AD040F205420E
:10111000934218DC40F20242934233D040F2024242
:10112000934207DCB3F5806F28D040F2014293422E
:1011300069D084E040F2034293422AD040F2044254
:1011400093422AD07BE0B3F5816F3AD0B3F5816F3B
:1011500008DC40F2064293422FD040F2074293420D
:1011600069D06CE040F20A4293422ED040F20A422B
:1011700093422EDBB3F5006F5AD060E03E480EF08C
:10118000D5FA5CE03D480EF0D1FA3D480EF0CEFABB
:1011900055E03C480EF0CAFA51E03B480EF0C6FA62
:1011A0004DE03A480EF0C2FA284BDB8A184607F0A9
:1011B00024FD37480EF0BAFA41E036480EF0B6FA90
:1011C0003DE034480EF0B2FA39E033480EF0AEFAA2
:1011D00035E07B6A0233D3F8023019462F480EF00F
:1011E00031FA7B6A0233D3F8023019462C480EF0EC
:1011F00029FA164BDB8A0121184607F048FD2948D9
:101200000EF094FA1BE07B6A02333B623B6A9B78E8
:10121000194625480EF016FA3B6A9B78002B03D13D
:1012200022480EF083FA0AE021480EF07FFA06E029
:10123000204B01221A7020480EF078FA00BF00BF40
:10124000012318463037BD4680BD00BF0C02002088
:1012500004150108E03800202C1501085815010874
:101260007415010898150108C0150108D415010866
:10127000F0150108081601083C1601086816010857
:1012800090160108B0160108DC1601080C170108B9
:101290002C170108481701086C1701089817010856
:1012A000B0170108C41701080018010858180108F0
:1012B0006C180108E43800208018010880B500AFE0
:1012C00000F066FB00BF80BD80B400AF00BFBD462C
:1012D0005DF8047B704780B400AF00BFBD465DF889
:1012E000047B704780B582B000AF002009F042FF58
:1012F00002460B4B1A600022002101200AF082F8FE
:101300000246084B1A60084B3B60084B7B603B462B
:101310001946074808F058F900BF0837BD4680BD98
:10132000E8380020D838002028000320B91700082A
:1013300081170008F0B58FB006AF4FF450733B80B3
:1013400008F001F800F078F9F861FA690621002048
:1013500007F039FFFB695A795C4B1A72FB691A79FD
:101360005A4B5A72FB69DA78584B9A72FB699A7831
:10137000564BDA72FB695A78544B1A73FB691A7828
:10138000524B5A73524A1021182007F01CFF514A41
:101390001021082007F017FF4EF66E53BB60FFF7D1
:1013A0005BFD03467B603B1D1A4606212E2007F09D
:1013B0000AFF474A1021182007F005FF454A10216F
:1013C000082007F000FF1821012007F065FF07F053
:1013D000B5FC0023FB76FB7E43F00103FB76FB7E2E
:1013E000002B24D03C4B7B6107F11202F87E07F101
:1013F0000E03019307F11003009313460722002107
:1014000007F0F0FA7C8A3D8A7869FEF7B9FE034658
:10141000DAB27B690093134600222946204607F082
:101420004BFE0346002B02D02C480EF07FF9788A41
:10143000F9893B4600930223002207F03DFE034654
:10144000002B02D026480EF071F902220221002062
:1014500008F005F8234B01221A70224B1B7818461E
:1014600007F0CEF91F4B01225A701E4B08221A7149
:101470001C4B10225A711B4B0022DA70194B1A4A6E
:101480009A60184B01229A70164B9D78154B5E7826
:10149000144B1B79134A52791249C9781148806854
:1014A00000240494039002910192009300230122EE
:1014B0003146284607F0EEF90A4B9B78002B01D005
:1014C00007F077FB00BF2437BD46F0BD04000020C5
:1014D000C81C0108D81C0108A8180108B018010888
:1014E000E01801080C02002007B2010080B58CB0A2
:1014F00008AF0346FB714223FB72FB79012B06D137
:101500003F4B1B88FB813F4B1B88BB8105E04FF4A1
:10151000C863FB814FF47A63BB813B4B93F8813006
:10152000184601F01BFD384B93F8803019463748B8
:101530000EF088F8FB79022B19D1334B93F88030E9
:10154000012B04D0304B93F88030022B0FD107F0E1
:1015500055F80346FB72FB7A002B03D12C480EF0A2
:10156000E5F804E0FB7A19462A480EF06BF8264AA3
:10157000FB7982F88030244B1B7EB889F9890022E0
:10158000069200220592244A04920393234B02936D
:10159000082301930023009300230246002007F054
:1015A00051F80346FB721E490E2007F0A6FA0346C7
:1015B000FB72FB7A002B11D1FB79012B0AD1194860
:1015C0000EF0B4F8104B93F881301749184601F02B
:1015D0004FFD12E015480EF0A9F80EE0FB79012B43
:1015E00005D1FB7A194612480EF02CF805E0FB7A7B
:1015F000194610480EF026F800BF1037BD4680BDD2
:1016000090020020920200200C0200201019010814
:101610002C1901085019010825020020E81C0108B6
:10162000040000207819010846E00100A019010813
:10163000CC190108FC19010880B586B000AFFFF78E
:101640000BFC38613B69B3F1FF3F23D0FFF71CFC73
:10165000B860FFF70DFC78603B69DAB2164B1A7080
:101660003B691B0ADAB2144B5A703B691B0CDAB2A5
:10167000114B9A707B68DAB20F4BDA70BB68DAB242
:101680000D4B1A71BB681B0ADAB20B4B5A710A4B2D
:101690007B610BE0002008F081FEF860FB68002B06
:1016A00002D0FB687B6101E0044B7B617B691846DB
:1016B0001837BD4680BD00BFA8030020C01C01082C
:1016C00080B500AF034B1B680121184609F05CFC94
:1016D00000BF80BDEC38002080B582B000AF7860DC
:1016E0004FF0FF320021012009F0B0FC00F001F8BA
:1016F000F6E780B500AF0220FFF7F8FE00BF80BD1F
:1017000080B582B000AF78604FF0FF320021012039
:1017100009F09CFC07F074FFF6E7000080B582B08A
:1017200000AF7860044B1B680121184609F02CFCBF
:1017300000BF0837BD4680BDDC38002080B582B0D0
:1017400000AF7860044B1B68184609F05FFF00BFCC
:101750000837BD4680BD00BFD838002080B582B0B4
:1017600000AF7860054B1B684FF0FF31184609F059
:10177000E7FE00BF0837BD4680BD00BFD838002057
:1017800080B584B000AF78607B68FB60FB685B6805
:101790000833184606F0E0FE0346FB72FB7A002B86
:1017A00003D0FB6801221A7002E0FB6800221A7065
:1017B00000BF1037BD4680BD80B582B000AF034684
:1017C000FB71FB79002B02D0012B08D00DE0094BF7
:1017D0001B684FF0FF31184609F066FD05E0054B28
:1017E0001B68184609F0BEFD00BF00BF0837BD46A4
:1017F00080BD00BFE838002080B582B000AF7860BF
:101800007B681B78012B0ED0032B16D0002B00D049
:1018100066E0354B01221A7034480DF087FF3448DA
:101820000DF010FF5CE0304B00221A7031480DF0D3
:101830007DFF2F480DF006FF52E07B685B681B7848
:10184000002B23D17B685B6801331B78012B0BD104
:10185000002002F03BFC28480DF068FF24480DF002
:10186000F1FE214B01229A707B685B6801331B7883
:10187000002B0BD1002002F043FC20480DF056FF56
:101880001B480DF0DFFE184B00229A707B685B68E6
:101890001B78012B23D17B685B6801331B78012BFC
:1018A0000BD1002002F012FC15480DF03FFF10484C
:1018B0000DF0C8FE0C4B01229A707B685B68013307
:1018C0001B78002B0BD1002002F01AFC0D480DF004
:1018D0002DFF07480DF0B6FE034B00229A7000BFA3
:1018E00000BF0837BD4680BD94020020941A01084D
:1018F000C81A0108CC1A0108001B0108281B01089E
:10190000501B0108781B010880B582B000AF7860D9
:101910007B681B78002B05D0012B00D003E000F082
:1019200021F800E000BF00BF0837BD4680BD0000C1
:1019300080B500AF074A0021074809F07FFA024648
:10194000064B1A60064B00221A7000F00BF800BF1D
:1019500080BD00BF381D0108011A0008F0380020C2
:101960009402002080B500AF002002F0C9FB074BB5
:1019700001225A70054B00229A70044B0122DA7042
:10198000024B00221A7100BF80BD00BF94020020EC
:1019900080B500AF034B1B680121184609F0F4FA2B
:1019A00000BF80BDF038002080B500AF0F4B1B7921
:1019B000002B03D10D4B01221A7102E00B4B0022C8
:1019C0001A710A4B1B78002B0BD009480DF03AFE18
:1019D00008480DF037FE08494FF6426008F00CFC4D
:1019E00003E006480DF02EFE00BF80BD94020020EB
:1019F000A01B0108C81A010897020020E01B01087B
:101A000080B582B000AF78604FF0FF320021012036
:101A100009F01CFBFFF7C8FFF6E7000080B400AF39
:101A2000054BDB68044A43F40043D36000BFBD4666
:101A30005DF8047B704700BF0004005880B483B099
:101A400000AF7860064BD3F8D42005497B68134378
:101A5000C1F8D43000BF0C37BD465DF8047B704739
:101A60000008005880B483B000AF7860054B1A6A54
:101A700004497B6813430B6200BF0C37BD465DF819
:101A8000047B70470008005880B485B000AF7860D0
:101A90004FF0B0431A6D4FF0B0417B6813430B65B4
:101AA0004FF0B0431A6D7B681340FB60FB6800BFCA
:101AB0001437BD465DF8047B704780B485B000AF35
:101AC00078604FF0B043D3F850214FF0B0417B68BD
:101AD0001343C1F850314FF0B043D3F850217B6825
:101AE0001340FB60FB6800BF1437BD465DF8047B04
:101AF000704780B483B000AF78607B681B6843F4A4
:101B000080327B681A6000BF0C37BD465DF8047BED
:101B1000704780B483B000AF78607B681B6843F087
:101B200001027B681A6000BF0C37BD465DF8047B7C
:101B3000704780B483B000AF786039607B685A68C2
:101B40003B681B04DB431A407B685A6000BF0C37BC
:101B5000BD465DF8047B704780B483B000AF786009
:101B600039607B685A683B681B041A437B685A607B
:101B700000BF0C37BD465DF8047B704780B483B06E
:101B800000AF786039607B685A683B68DB431A4075
:101B90007B685A6000BF0C37BD465DF8047B704718
:101BA00080B483B000AF786039607B683A689A602F
:101BB00000BF0C37BD465DF8047B704780B483B02E
:101BC00000AF786039603B681A047B689A6000BF98
:101BD0000C37BD465DF8047B704780B483B000AF1E
:101BE000786039607B68DA683B6813403A689A42EB
:101BF00001D1012300E0002318460C37BD465DF8F3
:101C0000047B704780B483B000AF786039607B6834
:101C1000DA693B6813403A689A4201D1012300E037
:101C2000002318460C37BD465DF8047B7047000062
:101C300080B500AF02211948FFF7E4FF0346002BEF
:101C400009D0164B5B68DB4303F00203002B02D084
:101C500000F0EAF81FE001211048FFF7D3FF034628
:101C6000002B08D00D4B5B6803F00103002B02D161
:101C700000F09EF80FE008210848FFF7C3FF034675
:101C8000002B09D0054B5B68DB4303F00803002BF6
:101C900002D000F015F900BF00BF80BD000C005855
:101CA00080B500AF02212248FFF797FF0346002BC3
:101CB00009D11F4B5B68DB4303F40033002B02D0D8
:101CC00000F0A6F831E002211948FFF786FF03462D
:101CD000002B09D1164B5B68DB4303F40033002B68
:101CE00002D000F095F820E008211148FFF775FFB9
:101CF0000346002B09D10E4B5B68DB4303F4002342
:101D0000002B02D000F0BEF80FE020210848FFF7BA
:101D100064FF0346002B09D1054B5B68DB4303F4EA
:101D20000013002B02D000F04FF800BF00BF80BDB1
:101D3000000C005880B500AF4FF48010FFF7BDFED7
:101D40004FF40070FFF77AFE4FF40070FFF78AFE41
:101D500040BF20BFFFF762FE00BF80BD80B500AF6F
:101D60004FF48010FFF790FE0648FFF7D2FE0548BB
:101D7000FFF7BFFE2C2002F059FC2D2002F056FC8C
:101D800000BF80BD000C005880B500AF01210248A3
:101D9000FFF7F4FE00BF80BD000C005880B500AF17
:101DA00001210248FFF70AFF00BF80BD000C005868
:101DB00080B500AF07F062FF01210248FFF7F0FE97
:101DC00000BF80BD000C005880B500AF2021034843
:101DD000FFF7C2FE07F082FF00BF80BD000C005875
:101DE00080B500AF02210248FFF7C8FE00BF80BDEA
:101DF000000C005880B500AF02210448FFF7DEFE5A
:101E000002210248FFF795FE00BF80BD000C00587C
:101E100080B500AF02210348FFF79EFE07F0AEFF3A
:101E200000BF80BD000C005880B500AF07F0BCFFBC
:101E300002210248FFF7B4FE00BF80BD000C00582D
:101E400080B582B000AF786008210C48FFF7C5FE6E
:101E50000346002B07D00A4A7B6813600821074815
:101E6000FFF767FE06E07B68984708210348FFF705
:101E7000A5FE00BF0837BD4680BD00BF000C00585E
:101E8000B003002080B500AF08210648FFF764FECC
:101E9000054B1B68984708210248FFF78FFE00BFDB
:101EA00080BD00BF000C0058B003002080B500AF1B
:101EB00008210248FFF762FE00BF80BD000C0058F9
:101EC00080B500AF08F018F808210248FFF768FE57
:101ED00000BF80BD000C0058D458C4500433C4184F
:101EE0008C42F9D37047036004308842FBD37047BB
:101EF0000C48854602F090F90B480C490C4A002327
:101F0000FFF7EDFF0B480C490023FFF7EEFF0B48EE
:101F10000B490023FFF7E9FF0CF000FF01F034FB51
:101F2000FEE7000000000320040000200C02002057
:101F3000502201088C0300209C3B0020E00103207C
:101F4000570A0320FEE7000080B483B000AF78603A
:101F5000064BD3F8902005497B681343C1F89030B5
:101F600000BF0C37BD465DF8047B70470008005881
:101F700080B485B000AF78604FF0B043DA6C4FF0BA
:101F8000B0417B681343CB644FF0B043DA6C7B689D
:101F90001340FB60FB6800BF1437BD465DF8047B4F
:101FA000704780B485B000AF78604FF0B043D3F88D
:101FB0004C214FF0B0417B681343C1F84C314FF0D6
:101FC000B043D3F84C217B681340FB60FB6800BF33
:101FD0001437BD465DF8047B704780B500AF02F052
:101FE000E9F902F0EDF94FF48030FFF7ADFF08F0AA
:101FF0005BF900F021F800F0BFF800BF80BD0000E1
:10200000B0B588B000AF0B4B3C1D1D460FCD0FC4C3
:1020100095E8070003C422800234130C237007F0F4
:1020200059FF3B1D184607F0B8FA00BF2037BD46E0
:10203000B0BD00BF2C1C010880B588B000AF3B1DAF
:1020400000221A605A609A60DA601A610023BB832A
:1020500000237B8300233B830023FB7733E0FB7F5C
:10206000424ADB0013449B79002B28D0FB7F3F4A78
:1020700052F833303E4A93420FD03E4A934215D035
:10208000B3F1904F00D01BE0FB7F384ADB001344D4
:102090009A88BB8B1343BB8312E0FB7F334ADB0080
:1020A00013449A887B8B13437B8309E0FB7F2F4A81
:1020B000DB0013449A883B8B13433B8300E000BF53
:1020C000FB7F0133FB77FB7F212BC8D90023FB600B
:1020D0000123BB6003233B61BB8B002B14D0BB8B64
:1020E0007B600120FFF744FF0120FFF75AFF3B1DF3
:1020F00019464FF0904002F0E5FDBB8B00221946D7
:102100004FF0904002F04EFF7B8B002B12D07B8B68
:102110007B600220FFF72CFF0220FFF742FF3B1DF0
:102120001946134802F0CEFD7B8B00221946104859
:1021300002F038FF3B8B002B13D03B8B7B600420DD
:10214000FFF716FF0420FFF72CFF3B1D1946094837
:1021500002F0B8FD3B8B00221946064802F022FF30
:1021600000BF00BF2037BD4680BD00BF5C1D010819
:10217000000400480008004880B400AF00BFBD461E
:102180005DF8047B704780B500AF01F0AFFA00BF87
:1021900080BD80B584B000AFF8600B467A607B816B
:1021A0007A897B68F968002000F0F6FF00BF1037DD
:1021B000BD4680BD80B483B000AF7860074BD3F8D4
:1021C000803023F0070205497B681343C1F8803053
:1021D00000BF0C37BD465DF8047B70470004005813
:1021E00080B483B000AF78604FF0B0439B6823F4B5
:1021F00000424FF0B0417B6813438B6000BF0C3747
:10220000BD465DF8047B704780B500AF00F014F860
:102210000849002000F046FDFFF7DFFE0121012004
:102220000CF048FD00F0A1F800F0AFF800F012F853
:1022300000BF80BD843A002080B500AF4FF400405D
:10224000FFF7CEFF0CF024FD0420FFF7B3FF00BF23
:1022500080BD000080B588B000AF07F085FC00208D
:1022600008F088FF0246174B1A6000220021012067
:1022700009F0C8F80246144B1A60144A00211448A9
:1022800008F0DCFD0246134B1A60134B3B60134B06
:102290007B603B461946124807F02CFB114BBB6094
:1022A000114BFB60114B3B6140F23C537B6107F1EA
:1022B0000803184607F09AFD07F050FC00BF2037CE
:1022C000BD4680BDF4380020FC3800206C1E01089B
:1022D00051230008F838002024070320F1220008C9
:1022E000312300083C09032030080320E8010320C3
:1022F00080B582B000AF0346FB71FB79002B02D0A2
:10230000012B08D00DE0094B1B684FF0FF31184638
:1023100008F0CAFF05E0054B1B68184609F022F8D3
:1023200000BF00BF0837BD4680BD00BFF4380020A5
:1023300080B582B000AF7860FFF762FEFEF7B0FDB7
:10234000002101200CF0B6FC00BF0837BD4680BD5F
:1023500080B582B000AF78604FF0FF3200210120DD
:1023600008F074FE07F0E2FAF6E780B500AF00204F
:1023700001F072FE012001F06FFE022001F06CFE00
:10238000012001F0A3FE00BF80BD80B500AF012198
:10239000002001F0CFFE0121012001F0CBFE012140
:1023A000022001F0C7FE00BF80BD000080B582B0F2
:1023B00000AF7860044B1B680121184608F0E4FD6B
:1023C00000BF0837BD4680BDF838002080B582B018
:1023D00000AF7860044B1B68184609F017F900BF7E
:1023E0000837BD4680BD00BFFC38002080B582B0F4
:1023F00000AF7860054B1B684FF0FF31184609F0BD
:102400009FF800BF0837BD4680BD00BFFC380020E4
:1024100080B582B000AF0346FB80FB88022B0AD058
:10242000102B02D0012B03D008E0FEF747FF05E098
:10243000FEF74AFF02E0FEF74EFF00BF00BF08377D
:10244000BD4680BD80B483B000AF786000BF0C375C
:10245000BD465DF8047B704780B483B000AF786000
:10246000064BD3F8802005497B681343C1F88030C0
:1024700000BF0C37BD465DF8047B7047000800586C
:1024800080B483B000AF7860054B1A6804497B685C
:1024900013430B6000BF0C37BD465DF8047B7047EB
:1024A0000008005880B483B000AF0D4B9B6A9BB20C
:1024B0007B600B4B9B6A9BB23B6005E03B687B609B
:1024C000074B9B6A9BB23B607A683B689A42F5D1A6
:1024D0003B6818460C37BD465DF8047B704700BF6B
:1024E0000028004080B485B000AF03460A46FB7167
:1024F0001346BB71BA791D4913465B001344DB00D8
:102500000B4415331B78FB73FB7B062B09D0FA7B3E
:10251000164913465B001344DB000B441433FA796D
:102520001A70FA79114913465B001344DB000B441F
:102530001533FA7B1A70FA790C4913465B00134481
:10254000DB000B441433BA791A70BA790749134681
:102550005B001344DB000B441533FA791A7000BF9B
:102560001437BD465DF8047B704700BF9C02002015
:1025700080B485B000AF03460A46FB711346BB71B9
:10258000294B1B78DBB2BA799A4232D0BA79274903
:1025900013465B001344DB000B4414331B78FB73BE
:1025A000FA7B224913465B001344DB000B441533CE
:1025B000FA791A70FA791D4913465B001344DB005F
:1025C0000B441533BA791A70FA79184913465B002F
:1025D0001344DB000B441433FA7B1A70BA791349A5
:1025E00013465B001344DB000B441433FA791A7072
:1025F00014E0FA790D4913465B001344DB000B44E9
:102600001533BA791A70BA79084913465B00134436
:10261000DB000B441433FA791A7000BF1437BD463F
:102620005DF8047B704700BF2C0300209C02002053
:1026300080B584B000AF0346FB714E4B1B78DBB214
:10264000062B18D14B4B1B78DAB24B4B1A70494A08
:10265000FB791370FA79494913465B001344DB0098
:102660000B44153306221A70454B4FF0FF321A60A7
:102670000023FB8178E000F009F90346FB81FA7939
:102680003E4913465B001344DB000B4408331968D2
:10269000FB89FA791944394813465B001344DB007F
:1026A000034408331960FA79344913465B00134434
:1026B000DB000B4408331B68BB602E4B1B78DBB27E
:1026C00019462E4A0B465B000B44DB0013440833CB
:1026D0001B68BA689A4237D3264B1B787B737A7B88
:1026E000264913465B001344DB000B4415331B786B
:1026F0003B7313E07A7B214913465B001344DB00F4
:102700000B4415331B787B737A7B1C4913465B00A3
:102710001344DB000B4415331B783B733B7B062BC8
:102720000BD03A7B154913465B001344DB000B4486
:1027300008331B68BA689A42DCD27A7BFB7911466F
:102740001846FFF7CFFE0FE00A4B1B78DAB2FB7991
:1027500011461846FFF70CFF064B1B78DAB2064B02
:102760001A70044AFB791370FB8918461037BD466E
:1027700080BD00BF2C0300202D0300209C02002000
:102780003003002080B485B000AF03460A46FB71D9
:102790001346BB71394B1B78DBB2FA799A4211D1DF
:1027A000364B1B78DAB2364B1A70FA793549134634
:1027B0005B001344DB000B4415331B78DAB22F4B5C
:1027C0001A703EE0FA792F4913465B001344DB0090
:1027D0000B4414331B78FB73FA792A4913465B00C8
:1027E0001344DB000B4415331B78BB73F979FA7B78
:1027F00024480B465B000B44DB00034415331B7875
:10280000D8B2204913465B001344DB000B44153358
:1028100002461A70BB7B062B13D0F979BA7B194894
:102820000B465B000B44DB00034414331B78D8B227
:10283000144913465B001344DB000B441433024677
:102840001A70FA790F4913465B001344DB000B44FE
:102850000C3301221A70094B1B78DBB2062B07D10F
:10286000BB79002B04D1084B4FF0FF321A6000BF38
:1028700000BF1437BD465DF8047B70472C03002071
:102880002D0300209C0200203003002080B582B080
:1028900000AF1A4B1B68B3F1FF3F26D0FFF702FED3
:1028A0007860164B1B687A689A4205D8134B1A68F1
:1028B0007B68D31A7B600AE0114B1B881A467B6841
:1028C000D31A3B600D4B1B683A6813447B600D4B79
:1028D0001B781A467B6802FB03F37B600A4B1B786C
:1028E0001A467B68D3407B6001E000237B607B68F5
:1028F0009BB218460837BD4680BD00BF300300209C
:10290000BA030020B9030020B803002080B582B0CC
:1029100000AF0346FB80FB88002B08D1FFF7C2FD08
:102920000246244B1A60032001F09CFE3EE0FB8827
:10293000012B03D8204B1B78012B02D0FB88013BD5
:10294000FB8000BF1D4B1B681B68DB6803F00403A2
:10295000002BF7D0194B1B681B68DB68DAB2174BEA
:102960001B681B6862F49062DA60154B4FF400221A
:10297000DA60032001F084FE124B5B691B0C1B0420
:10298000FA88104913434B61FFF78CFD0246094B4F
:102990001A600A4B1B681B689A68084B1B681B6807
:1029A00042F480629A60AFF3008000BF0837BD46F2
:1029B00080BD00BF30030020B8030020B403002016
:1029C000000800580028004080B584B000AF474B95
:1029D0009B6803F48063B3F5806F08D100BF444B5C
:1029E0001B681B68DB6803F00403002BF7D1404B26
:1029F0001B681B689A683E4B1B681B6822F4806248
:102A00009A603C4B1B78FB73FA7B3B4913465B0097
:102A10001344DB000B4408331B68BB60FFF736FF31
:102A20000346FB80FB88BA689A4205D20023BB812B
:102A3000324B01221A704DE0FB88314A128892B263
:102A400013441A46BB68934206D92D4B1B88BB81A1
:102A50002A4B00221A703DE0BB689AB2FB88D31A59
:102A6000BB81264B01221A7034E0FA7B22491346BF
:102A70005B001344DB000B4408331A68FB889A425E
:102A80000AD2FA7B1C4913465B001344DB000B445B
:102A9000083300221A6013E0FA7B174913465B00E3
:102AA0001344DB000B4408331968FB88FA7BC91A0E
:102AB000114813465B001344DB00034408331960DC
:102AC000FA7B0D4913465B001344DB000B441533BE
:102AD0001B78FB73FB7B062BC7D1BB891846FFF71E
:102AE00015FF00BF1037BD4680BD00BF0028004065
:102AF000B40300202C0300209C020020340300209B
:102B0000BC03002080B58AB000AFEFF310837B6177
:102B10007B697B6272B65E4B1B681B68CA225A6275
:102B20005B4B1B681B6853225A62594B1B681B681E
:102B30009A68574B1B681B6822F480629A60554B59
:102B40001B7887F8233097F82320534913465B00FE
:102B50001344DB000B440C331B78DBB2022B70D127
:102B600097F823204C4913465B001344DB000B44C9
:102B70001B68FB6197F82320474913465B00134409
:102B8000DB000B4410331B68BB61444B1B78DBB28A
:102B9000002B4ED097F823203F4913465B00134487
:102BA000DB000B440D331B78DBB2012B25D197F8EA
:102BB000233001211846FFF7E5FD7B6A3B613B6945
:102BC00083F3108897F82320334913465B0013449E
:102BD000DB000B4404331A6897F82330114618467B
:102BE00000F046FA2A4B1B681B68CA225A62284B1F
:102BF0001B681B6853225A6213E07B6AFB60FB6808
:102C000083F3108897F82330184600F0A7F9204B7B
:102C10001B681B68CA225A621D4B1B681B68532223
:102C20005A6297F82330FA691946B86900F0A6FA93
:102C300024E0FFF7C9FE7B6ABB60BB6883F31088A2
:102C40001CE000BF124B1B681B68DB6803F0040329
:102C5000002BF7D00E4B1B681B68DB68DAB20C4BFD
:102C60001B681B6862F49062DA600D4B4FF400221F
:102C7000DA607B6A7B607B6883F31088044B1B6897
:102C80001B68FF225A6200BF2837BD4680BD00BFC7
:102C9000B40300202C0300209C02002034030020F9
:102CA0000008005880B588B000AF03463960FB715A
:102CB000644A3B681360634B1B681B68CA225A62F4
:102CC000604B1B681B6853225A625F4B9B685E4ACD
:102CD00043F0200393605C4B9B68DBB203F0070377
:102CE000DBB2C3F10403DAB2584B1A70564B1B69BE
:102CF00003F4FE034FF4FE023A613A6992FAA2F23B
:102D0000FA60FA687A617A69002A01D1202203E028
:102D10007A69B2FA82F2D2B2D340DBB20133DAB2CC
:102D20004B4B1A70484B1B699BB2C3F30E039BB20B
:102D300001339AB2474B1A80464B1B88013B444AE9
:102D4000127802FB03F3A3F5A073404A1278D34034
:102D5000BB61BB694FF6FE72934204D93E4B4FF6FE
:102D6000FF721A8003E0BB699AB23B4B1A804FF4A2
:102D70000020FFF785FB4FF40020FFF76DFBFB7988
:102D8000002B43D1354B01221A70354B4FF0FF32E7
:102D90001A600023FB770CE0FA7F324913465B0090
:102DA0001344DB000B440C3300221A70FB7F013309
:102DB000FB77FB7F052BEFD92B4B06221A70214B9B
:102DC0001B681B689A681F4B1B681B6822F4806293
:102DD0009A601C4B1B681B68DB68DAB2194B1B68D6
:102DE0001B6862F49062DA60204B4FF40022DA60D4
:102DF000032001F045FC134B1B681B689A68114BBC
:102E00001B681B6842F480429A600AE00D4B1B6805
:102E10001B68DB6803F48063002B02D0032001F001
:102E200021FC084B1B681B68FF225A620022062106
:102E3000032001F0E1FB032001F0F8FB00BF203785
:102E4000BD4680BDB403002000280040B803002028
:102E5000B9030020BA030020BC0300203403002083
:102E6000300300209C0200202C03002000080058A2
:102E700080B48BB000AFF860B9603B601346FB7163
:102E8000002387F82630EFF31083FB61FB693B6278
:102E900072B604E097F82630013387F8263097F8A9
:102EA0002630052B0CD897F826202B4913465B00BB
:102EB0001344DB000B440C331B78DBB2002BE9D14D
:102EC00097F82630062B37D097F82620224913464C
:102ED0005B001344DB000B440C3301221A703B6A85
:102EE000BB61BB6983F3108897F826201A49134603
:102EF0005B001344DB000B441033FA681A6097F848
:102F00002620154913465B001344DB000B440D33A8
:102F1000FA791A7097F826200F4913465B0013447C
:102F2000DB000B443A681A60BB6897F826201A70D9
:102F3000002387F8273007E03B6A7B617B6983F3D6
:102F40001088012387F8273097F8273018462C3748
:102F5000BD465DF8047B70479C02002080B586B0BA
:102F600000AF0346FB71EFF31083FB60FB687B61EE
:102F700072B6032001F068FB374B1B681B68CA223E
:102F80005A62354B1B681B6853225A62FA793349DF
:102F900013465B001344DB000B440C331B78DBB29D
:102FA000022B48D1FB7900211846FFF7EBFB2C4B95
:102FB0001B78FB74FB7C062B35D12A4B9B6803F4F2
:102FC0008063B3F5806F08D100BF234B1B681B687B
:102FD000DB6803F00403002BF7D11F4B1B681B6851
:102FE0009A681D4B1B681B6822F480629A6000BFC0
:102FF000194B1B681B68DB6803F00403002BF7D038
:10300000154B1B681B68DB68DAB2134B1B681B6827
:1030100062F49062DA60144B4FF40022DA6003200D
:1030200001F02EFB07E0114B1B78DBB2FA7C9A42D1
:1030300001D0FFF7C9FC084B1B681B68FF225A62CE
:10304000032001F0F3FA7B69BB60BB6883F310884F
:1030500000BF1837BD4680BDB40300209C0200208D
:103060002C03002000280040000800582D030020F9
:1030700080B586B000AF03463960FB71FA793B49F1
:1030800013465B001344DB000B440C331B78DBB2AC
:10309000022B03D1FB791846FFF760FFEFF3108393
:1030A000FB60FB687B6172B6032001F0CDFA304B08
:1030B0001B681B68CA225A622D4B1B681B6853226F
:1030C0005A62FA79294913465B001344DB000B442A
:1030D0000C3302221A70FA79244913465B00134418
:1030E000DB000B4408333A681A60FA791F4913462B
:1030F0005B001344DB000B4404333A681A60FB792D
:103100001846FFF795FA03467B821A4B1B787B74AF
:10311000194B1B78DBB27A7C9A4202D0FFF754FC41
:1031200013E0FA79114913465B001344DB000B44AA
:10313000083319687B8AFA79C91A0C4813465B0070
:103140001344DB00034408331960094B1B681B68F8
:10315000FF225A62032001F069FA7B69BB60BB68F9
:1031600083F3108800BF1837BD4680BD9C02002045
:10317000B40300202C0300202D03002080B584B070
:1031800000AFF8600B467A60FB727B68984700BF1F
:103190001037BD4680BD000080B586B000AFB96075
:1031A0007B600346FB731346BB810023FB75002342
:1031B000BB75FB7B002B00D00EE0174A7B681360C9
:1031C000164B174A1A60BB891A46B968134804F0AF
:1031D0006DF90346FB7500BFFB7D032B16D801A2DA
:1031E00052F823F0F5310008FB31000801320008E5
:1031F000073200080023BB7509E00123BB7506E018
:103200000223BB7503E00323BB7500E000BFBB7D59
:1032100018461837BD4680BD04390020F839002013
:103220000038014080B582B000AF78607B681B68D1
:103230001A46084B9A4200D007E0074B1B68002B48
:1032400002D0054B1B68984700BF00BF0837BD463A
:1032500080BD00BF003801400439002080B483B035
:1032600000AF7860074BD3F880207B68DB430549CB
:103270001340C1F8803000BF0C37BD465DF8047BB9
:10328000704700BF0008005880B483B000AF78607A
:10329000074BD3F890207B68DB4305491340C1F806
:1032A000903000BF0C37BD465DF8047B704700BF0F
:1032B0000008005880B483B000AF78604FF0B0438E
:1032C0000A4AC3F89C204FF0B043D3F89C3023F453
:1032D0007C527B681B024FF0B0411343C1F89C3015
:1032E00000BF0C37BD465DF8047B7047FECAFECABE
:1032F00080B483B000AF78604FF0B043D3F8903023
:1033000023F018024FF0B0417B681343C1F89030AE
:1033100000BF0C37BD465DF8047B704780B400AF3A
:103320004FF0B043D3F890304FF0B04243F48033C5
:10333000C2F8903000BFBD465DF8047B704780B492
:1033400000AF4FF0B043D3F890304FF0B04223F4C9
:103350008033C2F8903000BFBD465DF8047B7047F3
:1033600080B400AF4FF0B043D3F8943003F08063E3
:10337000B3F1806F01D1012300E000231846BD4660
:103380005DF8047B704780B400AF4FF0B043D3F8D2
:10339000943003F08053B3F1805F01D1012300E04A
:1033A00000231846BD465DF8047B704780B485B0A5
:1033B00000AF78604FF0B0439A6C4FF0B0417B683B
:1033C00013438B644FF0B0439A6C7B681340FB60EF
:1033D000FB6800BF1437BD465DF8047B704780B4BE
:1033E00085B000AF78604FF0B043DA6C4FF0B04179
:1033F0007B681343CB644FF0B043DA6C7B681340B7
:10340000FB60FB6800BF1437BD465DF8047B704766
:1034100080B485B000AF78604FF0B0431A6D4FF0C4
:10342000B0417B6813430B654FF0B0431A6D7B6866
:103430001340FB60FB6800BF1437BD465DF8047B9A
:10344000704780B483B000AF786039607B685A6899
:103450003B681B041A437B685A6000BF0C37BD46AB
:103460005DF8047B704780B483B000AF786039604A
:103470007B685A683B681A437B685A6000BF0C3708
:10348000BD465DF8047B704780B483B000AF7860C0
:1034900039607B685A693B681B041A437B685A6130
:1034A00000BF0C37BD465DF8047B704780B483B025
:1034B00000AF786039607B685A693B681A437B6863
:1034C0005A6100BF0C37BD465DF8047B704780B47D
:1034D00083B000AF786039607B683A689A6000BF5B
:1034E0000C37BD465DF8047B704780B483B000AFF5
:1034F000786039607B683A689A6100BF0C37BD46D6
:103500005DF8047B7047000080B400AF054B1B6979
:10351000044A23F00403136100BFBD465DF8047B39
:10352000704700BF00ED00E080B483B000AF78606A
:103530007B68FF225A6200BF0C37BD465DF8047BF2
:10354000704780B483B000AF78607B68CA225A624B
:103550007B6853225A6200BF0C37BD465DF8047B7E
:10356000704780B483B000AF786039607B689B6837
:1035700023F007023B681A437B689A6000BF0C3750
:10358000BD465DF8047B704780B500AF134B4FF428
:1035900000421A6100F0B6FE00F077F900F061F920
:1035A00000F024F800F056F900F0B1F900F045F908
:1035B00000F026F900F0E8F800F0EEF807F0D4FB90
:1035C000074A0021074807F039FC0246064B1A60FB
:1035D000FEF71AFE07F0FCFBFEE700BF00400058B4
:1035E000901E01086F3900080839002080B5AEB080
:1035F00000AF07F170034822002118460BF0BDFB15
:1036000007F1540300221A605A609A60DA601A6166
:103610005A619A613B1D5022002118460BF0ADFB08
:1036200001F014FD0020FFF763FE2F4B1B6823F40D
:10363000C0632D4A43F4007313602B4B1B6803F4E3
:10364000C0633B603B6807233B674FF480337B6775
:103650000123BB674FF48073FB674023C7F88030BA
:103660000023C7F89C3007F17003184602F08EF86B
:103670000346002B01D000F097F96F237B650223EE
:10368000BB650023FB6500233B6600237B660023AC
:10369000BB660023FB6607F154030121184602F0C4
:1036A00001FC0346002B01D000F07EF943F6030332
:1036B0007B600023FB6100233B624FF480737B64DB
:1036C0004FF48043BB640223FB6410233B653B1D26
:1036D000184603F058F80346002B01D000F064F9B7
:1036E00000BFB837BD4680BD0004005880B500AFAC
:1036F000234B244A1A60224B4FF4E1325A60204B8C
:1037000000229A601E4B0022DA601D4B00221A61D3
:103710001B4B0C225A611A4B00229A61184B4FF432
:103720000042DA61164B00221A62154B00225A62DF
:10373000134B00229A62124803F068FE0346002BE6
:1037400001D000F031F900210D4804F07BFD034663
:10375000002B01D000F028F90021094804F0B0FD49
:103760000346002B01D000F01FF9054804F031FD9D
:103770000346002B01D000F017F900BF80BD00BF49
:10378000F83900200038014080B400AF00BFBD46CA
:103790005DF8047B7047000080B500AF164B174AF8
:1037A0001A60154B00225A60134B0F229A60124B7D
:1037B00047F6FF72DA60104B00221A610E4B0022AE
:1037C0009A610D4B0022DA610B4B00225A610A48C4
:1037D00003F05FFA0346002B01D000F0E5F807483C
:1037E000FFF7AFFE00210548FFF7BBFE0348FFF7D8
:1037F0009BFE00BF80BD00BF843A0020002800402F
:1038000080B500AF0420FFF7D1FD0120FFF7CEFD0A
:103810000220FFF7CBFD00220F210E2000F0ECFE6E
:103820000E2000F003FF00220F213A2000F0E4FEFA
:103830003A2000F0FBFE00BF80BD80B500AF042041
:10384000FFF7CDFD0120FFF7CAFD0220FFF7C7FDFE
:1038500000BF80BD80B400AF00BFBD465DF8047BF3
:10386000704780B582B000AF002006F097FD786009
:103870007B68002B05D07B689B791846FFF71AFD03
:1038800000BF00BF0837BD4680BD80B500AF00F067
:1038900027F800F003F800BF80BD000080B500AF3E
:1038A0004FF48010FFF7B4FD3F210C48FFF70FFEE7
:1038B0003F210A48FFF719FE3F210848FFF7C1FDE5
:1038C0003F210648FFF7E0FD3F210448FFF7CBFD0D
:1038D0003F210248FFF7EAFD00BF80BD000C005801
:1038E00080B500AFFFF73CFD0346002B0DD0FFF77E
:1038F0004AFD0346002B08D101F0A8FB01F0A6FB0E
:10390000FFF70CFDFFF71BFD00BF00BF80BD80B5BA
:1039100000AF4FF0FF30FFF7A1FC6FF05000FFF752
:10392000B3FC00BF80BD80B584B000AF786000F00C
:103930001DFDB8607B68FB60FB68B3F1FF3F0AD0F8
:1039400000F02CFD03461A46FB681344FB6002E0BE
:10395000FFF7DAFD30BF00F009FD0246BB68D31A5D
:10396000FA689A42F4D800BF1037BD4680BD80B5D2
:1039700082B000AF78604FF0FF320121012007F0E4
:1039800065FBF8E780B582B000AF78607B681B68A4
:10399000044A934201D100F0D5FC00BF0837BD4670
:1039A00080BD00BF0048014080B400AF00BFBD46ED
:1039B0005DF8047B704780B483B000AF78604FF04F
:1039C000B043D3F8903023F440724FF0B0417B689D
:1039D0001343C1F8903000BF0C37BD465DF8047B3F
:1039E000704780B400AF4FF0B043D3F890304FF041
:1039F000B04243F40043C2F8903000BFBD465DF8CA
:103A0000047B704780B485B000AF78604FF0B0435E
:103A1000DA6C4FF0B0417B681343CB644FF0B04396
:103A2000DA6C7B681340FB60FB6800BF1437BD464F
:103A30005DF8047B704780B485B000AF78604FF0CC
:103A4000B0431A6D4FF0B0417B6813430B654FF0E4
:103A5000B0431A6D7B681340FB60FB6800BF1437EE
:103A6000BD465DF8047B704780B485B000AF7860D8
:103A70004FF0B0439A6D4FF0B0417B6813438B65B4
:103A80004FF0B0439A6D7B681340FB60FB6800BF4A
:103A90001437BD465DF8047B704780B485B000AF35
:103AA00078604FF0B043DA6D4FF0B0417B6813435C
:103AB000CB654FF0B043DA6D7B681340FB60FB6869
:103AC00000BF1437BD465DF8047B704780B485B0F5
:103AD00000AF78604FF0B0431A6E4FF0B0417B6892
:103AE00013430B664FF0B0431A6E7B681340FB60C4
:103AF000FB6800BF1437BD465DF8047B704780B596
:103B000000AF4FF40020FFF796FF00220F216FF067
:103B1000010000F071FD002205212E2000F06CFD57
:103B20002E2000F083FD002206212C2000F064FDF1
:103B3000002206212D2000F05FFD00BF80BD0000A7
:103B400080B58CB000AF786007F11C0300221A60CA
:103B50005A609A60DA601A617B681B686C4A93420B
:103B60006FD10120FFF799FF0120FFF74BFF0C23D6
:103B7000FB6102233B6200237B620323BB620823B9
:103B8000FB6207F11C0319464FF0904001F09AF8D0
:103B90004023FB6102233B6200237B620023BB6264
:103BA0000823FB6207F11C0319464FF0904001F017
:103BB00089F8584B584A1A60564B11225A60554B97
:103BC00010229A60534B0022DA60524B80221A6115
:103BD000504B00225A614F4B00229A614D4B0022FC
:103BE000DA614C4B00221A624A4800F057FD034646
:103BF000002B01D0FFF7D8FE4FF08853FB60002365
:103C00003B6100233B7500237B750123BB6107F1FA
:103C10000C0319463F4801F015F80346002B01D06C
:103C2000FFF7C2FE7B683B4A5A673A4A7B68936259
:103C300000220521252000F0DFFC252000F0F6FC05
:103C400061E07B681B68354A93425CD14FF4804049
:103C5000FFF73CFF0120FFF7D5FE0220FFF7D2FE61
:103C60004FF40063FB6102233B6200237B6200236D
:103C7000BB620723FB6207F11C0319464FF090401B
:103C800001F020F8C023FB6102233B6201237B6229
:103C90000323BB620723FB6207F11C03194620487C
:103CA00001F010F81F4B204A1A601E4B0F225A6079
:103CB0001C4B10229A601B4B0022DA60194B8022A9
:103CC0001A61184B00225A61164B00229A61154B5B
:103CD0000022DA61134B00221A62124800F0DEFC67
:103CE0000346002B01D0FFF75FFE7B680D4A5A6741
:103CF0000C4A7B68936200220521242000F07CFCA2
:103D0000242000F093FC00BF3037BD4680BD00BFCB
:103D100000800040A83A00204400024000380140E2
:103D200000040048983900204404024080B582B065
:103D300000AF78607B681B680B4A934210D101F09A
:103D400085F901F083F94FF48070FFF734FEFFF737
:103D500048FE4FF48060FFF787FE786803F087F82D
:103D600000BF0837BD4680BD0028004080B485B044
:103D700000AF78604FF0B0431A6E4FF0B0417B68EF
:103D800013430B664FF0B0431A6E7B681340FB6021
:103D9000FB6800BF1437BD465DF8047B7047000028
:103DA00080B58CB000AF78600023FB620023BB625B
:103DB000002279681A2000F01FFC1A2000F036FC5F
:103DC0004FF48020FFF7D2FF07F1080207F10C0340
:103DD0001146184602F050FA02F038FAF862FB6A0F
:103DE000124AA2FB03239B0C013BBB62104B114AFE
:103DF0001A600F4B40F2E732DA600D4ABB6A53603B
:103E00000B4B00221A610A4B00229A60084803F00B
:103E100064F80346002B04D1054803F0BFF80346BD
:103E200000E0012318463037BD4680BD83DE1B43CA
:103E3000083B00200048014080B400AF00BFBD46F1
:103E40005DF8047B704780B400AFFEE780B400AF3C
:103E5000FEE780B400AFFEE780B400AFFEE780B4B9
:103E600000AF00BFBD465DF8047B704780B500AF72
:103E7000024800F095FD00BF80BD00BFA83A0020B9
:103E800080B500AF024803F0D7F800BF80BD00BF87
:103E9000083B002080B500AF024803F087FB00BF5D
:103EA00080BD00BFF839002080B500AF024803F0A4
:103EB0007DFB00BF80BD00BF0C39002080B500AF86
:103EC00001F0A0F800BF80BD80B500AF024800F04F
:103ED00067FD00BF80BD00BF9839002080B500AFEE
:103EE000102001F077F800BF80BD80B500AF012041
:103EF00001F070F800BF80BD80B500AF022001F076
:103F000069F800BF80BD80B500AFFEF7FBFD00BFC4
:103F100080BD80B500AFFDF7C3FE00BF80BD80B59A
:103F200000AFFDF785FE00BF80BD80B586B000AF55
:103F3000F860B9607A6000237B610AE0AFF300802B
:103F40000146BB685A1CBA60CAB21A707B69013359
:103F50007B617A697B689A42F0DB7B681846183788
:103F6000BD4680BD80B483B000AF78604FF0FF33B2
:103F700018460C37BD465DF8047B704780B483B0AB
:103F800000AF786039603B684FF400525A600023FC
:103F900018460C37BD465DF8047B704780B483B08B
:103FA00000AF7860012318460C37BD465DF8047BEE
:103FB000704780B485B000AFF860B9607A600023C4
:103FC00018461437BD465DF8047B704780B584B051
:103FD00000AF7860114B1B68002B02D10F4B104AC9
:103FE0001A600E4B1B68FB600C4B1A687B6813440D
:103FF0006A46934207D90AF08BFE02460C231360EF
:104000004FF0FF3306E0054B1A687B681344034A00
:104010001360FB6818461037BD4680BDC003002002
:10402000A03B002080B485B000AF78604FF0B04373
:10403000DA6C4FF0B0417B681343CB644FF0B04370
:10404000DA6C7B681340FB60FB6800BF1437BD4629
:104050005DF8047B7047000080B588B000AF034670
:10406000FB7107F10C0300221A605A609A60DA6053
:104070001A610220FFF7D6FFFB79124A32F813309B
:10408000FB6001233B6100237B610223BB61FB7961
:104090000D4A52F8233007F10C021146184600F081
:1040A00011FEFB79084A52F82300FB79054A32F8E1
:1040B00013300022194600F075FF00BF2037BD46BF
:1040C00080BD00BFB41E01081400002080B582B07E
:1040D00000AF0346FB71FB79074A52F82300FB79D6
:1040E000064A32F813300122194600F05BFF00BF88
:1040F0000837BD4680BD00BF14000020B41E010873
:1041000080B582B000AF0346FB71FB79074A52F8D5
:104110002300FB79064A32F813300022194600F0DA
:1041200041FF00BF0837BD4680BD00BF140000201E
:10413000B41E010880B588B000AF03460A46FB7183
:104140001346BB7107F10C0300221A605A609A6093
:10415000DA601A61FB79002B03D10420FFF762FFBC
:104160000CE0FB79012B03D10820FFF75BFF05E092
:10417000FB79022B02D10820FFF754FFBB79002BFB
:1041800017D1FB79204A32F81330FB6000233B61E2
:1041900001237B610223BB61FB791C4A52F8233067
:1041A00007F10C021146184600F08CFD0120FFF7C4
:1041B000BAFBBB79012B22D1FB79134A32F81330B9
:1041C000FB6001237B61124B3B61FB790F4A52F884
:1041D000233007F10C021146184600F073FDFB79FD
:1041E0000C4AD35C5BB200220F21184600F004FA9F
:1041F000FB79084AD35C5BB2184600F017FA00BF9F
:104200002037BD4680BD00BFBC1E01082000002035
:1042100000002110C41E010880B400AF264B00220C
:104220009A60254BD3F88830234A43F47003C2F8D0
:1042300088304FF0B0431B684FF0B04243F00103A9
:1042400013604FF0B0434FF4E0229A604FF0B04358
:104250001A684FF0B041194B13400B604FF0B04358
:10426000D3F894304FF0B04223F00503C2F89430F5
:104270004FF0B043D3F898304FF0B04223F0010331
:10428000C2F898304FF0B0430D4ADA604FF0B043B7
:104290000B4A1A614FF0B0431B684FF0B04223F451
:1042A000802313604FF0B04300229A6100BFBD46E7
:1042B0005DF8047B704700BF00ED00E0FBFEF6FAFE
:1042C0000010042280B400AF054B5B68044A43F041
:1042D0000103536000BFBD465DF8047B704700BF1B
:1042E000002004E080B400AF054B5B68044A43F053
:1042F0000203536000BFBD465DF8047B704700BFFA
:10430000002004E080B582B000AF0023FB710C4BAD
:104310001B680B4A43F480731360032000F061F9BB
:104320000020FFF73DFD0346002B02D00123FB7167
:1043300001E0FFF7E4FBFB7918460837BD4680BD76
:104340000040005880B400AF064B1B781A46064B5D
:104350001B681344044A136000BFBD465DF8047B2C
:10436000704700BF34000020543B002080B400AFF1
:10437000034B1B681846BD465DF8047B704700BFC1
:10438000543B002080B400AF034B1B681846BD4669
:104390005DF8047B704700BF3000002080B400AFA0
:1043A000034B1B781846BD465DF8047B704700BF81
:1043B0003400002080B500AFFFF784FF00BF80BD50
:1043C00080B500AFFFF78EFF00BF80BD80B485B021
:1043D00000AF78607B6803F00703FB600C4BDB6881
:1043E000BB60BA684FF6FF031340BB60FB681A025C
:1043F000BB68134343F0BF6343F40033BB60044A1C
:10440000BB68D36000BF1437BD465DF8047B7047BE
:1044100000ED00E080B400AF044BDB681B0A03F042
:1044200007031846BD465DF8047B704700ED00E0C9
:1044300080B483B000AF0346FB7197F90730002BBF
:104440000BDBFB7903F01F02074997F907305B0983
:10445000012000FA02F241F8232000BF0C37BD46CC
:104460005DF8047B704700BF00E100E080B483B0DA
:1044700000AF0346FB7197F90730002B10DBFB7987
:1044800003F01F02094997F907305B09012000FA80
:1044900002F2203341F82320BFF34F8FBFF36F8F19
:1044A00000BF0C37BD465DF8047B704700E100E0BB
:1044B00080B483B000AF0346FB7197F90730002B3F
:1044C0000CDBFB7903F01F02074997F907305B0902
:1044D000012000FA02F2403341F8232000BF0C37DC
:1044E000BD465DF8047B704700E100E080B483B016
:1044F00000AF0346FB7197F90730002B0CDBFB790B
:1045000003F01F02074997F907305B09012000FA01
:1045100002F2603341F8232000BF0C37BD465DF83E
:10452000047B704700E100E080B483B000AF034635
:104530003960FB7197F90730002B0ADB3B68DAB270
:104540000C4997F907301201D2B20B4483F80023CB
:104550000AE03B68DAB20849FB7903F00F03043B39
:104560001201D2B20B441A7600BF0C37BD465DF87B
:10457000047B704700E100E000ED00E080B489B00A
:1045800000AFF860B9607A60FB6803F00703FB6175
:10459000FB69C3F10703042B28BF0423BB61FB693C
:1045A0000433062B02D9FB69033B00E000237B6147
:1045B0004FF0FF32BB6902FA03F3DA43BB681A40DB
:1045C0007B699A404FF0FF317B6901FA03F3D943CD
:1045D0007B680B40134318462437BD465DF8047BC7
:1045E000704780B582B000AF78607868FFF7EEFE64
:1045F00000BF0837BD4680BD80B586B000AF03461A
:10460000B9607A60FB73FFF705FF78617A68B96873
:104610007869FFF7B3FF024697F90F301146184645
:10462000FFF782FF00BF1837BD4680BD80B582B05E
:1046300000AF0346FB7197F907301846FFF7F8FE05
:1046400000BF0837BD4680BD80B582B000AF0346CD
:10465000FB7197F907301846FFF708FF00BF0837CE
:10466000BD4680BD80B582B000AF0346FB7197F9AF
:1046700007301846FFF71CFF00BF0837BD4680BD56
:1046800080B582B000AF0346FB7197F9073018463A
:10469000FFF72CFF00BF0837BD4680BD80B584B052
:1046A00000AF78607B68002B01D101238EE07B682E
:1046B0001B681A46474B9A420FD87B681B681A46FC
:1046C000454B1344454AA2FB03231B099A007B6810
:1046D0005A647B68424A1A640EE07B681B681A467B
:1046E000404B13443D4AA2FB03231B099A007B68FD
:1046F0005A647B683C4A1A647B68022283F825204E
:104700007B681B681B68FB60FB6823F4FF4323F096
:104710007003FB607B689A687B68DB681A437B6880
:104720001B691A437B685B691A437B689B691A4360
:104730007B68DB691A437B681B6A1343FA6813437F
:10474000FB607B681B68FA681A60786800F016FAEC
:104750007B689B68B3F5804F02D17B6800225A606A
:104760007B685A687B689B6C02F03F021A607B682A
:10477000DB6C7A68126D5A607B685B68002B10D026
:104780007B685B68042B0CD8786800F035FA7B688E
:104790005B6D00221A607B689B6D7A68D26D5A60EF
:1047A00008E07B6800225A657B6800229A657B6876
:1047B0000022DA657B680022DA637B68012283F8D5
:1047C00025207B68002283F8242000231846103718
:1047D000BD4680BD07040240F8FFFDBFCDCCCCCC68
:1047E00000000240F8FBFDBF0004024080B586B027
:1047F00000AFF860B9607A603B600023FB75FB682E
:1048000093F82430012B01D1022366E0FB680122DA
:1048100083F82420FB6893F82530DBB2012B55D1B7
:10482000FB68022283F82520FB680022DA63FB681C
:104830001B681A68FB681B6822F001021A603B685B
:104840007A68B968F86800F05AF9FB681B6B002BAE
:1048500008D0FB681B681A68FB681B6842F00E02F0
:104860001A600FE0FB681B681A68FB681B6822F07F
:1048700004021A60FB681B681A68FB681B6842F038
:104880000A021A60FB689B6C1B6803F48033002BE0
:1048900007D0FB689B6C1A68FB689B6C42F48072C3
:1048A0001A60FB685B6D002B07D0FB685B6D1A68B4
:1048B000FB685B6D42F480721A60FB681B681A68C3
:1048C000FB681B6842F001021A6005E0FB680022E9
:1048D00083F824200223FB75FB7D18461837BD465C
:1048E00080BD80B584B000AF78600023FB737B6827
:1048F00093F82530DBB2022B05D07B680422DA6303
:104900000123FB7347E07B681B681A687B681B68A0
:1049100022F00E021A607B681B681A687B681B68AD
:1049200022F001021A607B689B6C1A687B689B6CA2
:1049300022F480721A607B685B6C03F01C027B6857
:104940001B6C012101FA02F25A607B68DB6C7A6809
:10495000126D5A607B685B6D002B0CD07B685B6DC1
:104960001A687B685B6D22F480721A607B689B6DAD
:104970007A68D26D5A607B68012283F825207B68B3
:10498000002283F824207B689B6B002B03D07B687C
:104990009B6B78689847FB7B18461037BD4680BDF7
:1049A00080B584B000AF78607B681B6C1B68FB60CF
:1049B0007B681B681B68BB607B685B6C03F01C0337
:1049C00004229A40FB681340002B26D0BB6803F0FA
:1049D0000403002B21D07B681B681B6803F02003B5
:1049E000002B07D17B681B681A687B681B6822F064
:1049F00004021A607B685B6C03F01C027B681B6C12
:104A0000042101FA02F25A607B681B6B002B71D003
:104A10007B681B6B786898476CE07B685B6C03F085
:104A20001C0302229A40FB681340002B2ED0BB6867
:104A300003F00203002B29D07B681B681B6803F07E
:104A40002003002B0BD17B681B681A687B681B68EE
:104A500022F00A021A607B68012283F825207B6815
:104A60005B6C03F01C027B681B6C022101FA02F2F2
:104A70005A607B68002283F824207B68DB6A002B65
:104A800038D07B68DB6A7868984733E07B685B6C7A
:104A900003F01C0308229A40FB681340002B2AD025
:104AA000BB6803F00803002B25D07B681B681A68DD
:104AB0007B681B6822F00E021A607B685B6C03F057
:104AC0001C027B681B6C012101FA02F25A607B68B0
:104AD0000122DA637B68012283F825207B680022AB
:104AE00083F824207B685B6B002B04D07B685B6BB6
:104AF0007868984700BF00BF1037BD4680BD80B4BE
:104B000085B000AFF860B9607A603B60FB68DB6C31
:104B1000FA68126D5A60FB685B6D002B04D0FB686D
:104B20009B6DFA68D26D5A60FB685B6C03F01C02E7
:104B3000FB681B6C012101FA02F25A60FB681B68DA
:104B40003A685A60FB689B68102B08D1FB681B68A9
:104B50007A689A60FB681B68BA68DA6007E0FB68ED
:104B60001B68BA689A60FB681B687A68DA6000BFE5
:104B70001437BD465DF8047B7047000080B485B0F3
:104B800000AF78607B681B681A46174B9A420AD8B8
:104B90007B685B6C9B089B0003F1804303F5023349
:104BA0007A68936407E07B685B6C9B089A000F4B04
:104BB00013447A6893647B681B68DBB2083B0C4A39
:104BC000A2FB03231B09FB607B680A4ADA64FB68CB
:104BD00003F01F0301229A407B681A6500BF143757
:104BE000BD465DF8047B7047070402401C08024084
:104BF000CDCCCCCC8008024080B485B000AF7860CA
:104C00007B685B6803F03F03FB60FA680B4B13445F
:104C10009B001A467B685A657B68094A9A65FB685F
:104C2000013B03F0030301229A407B68DA6500BF71
:104C30001437BD465DF8047B704700BF3F8200100B
:104C40004009024080B483B000AF786039607B686F
:104C500093F82530DBB2012B2BD17B6893F82430FD
:104C6000012B01D1022325E07B68012283F8242057
:104C70007B689B6C1A68124B13403A6811683A685B
:104C8000D268013AD20411433A68526811433A6833
:104C9000127A120411433A68527A520211437A6826
:104CA000926C0B4313607B68002283F8242000235E
:104CB00000E0012318460C37BD465DF8047B7047C1
:104CC000FFFD00E080B487B000AF7860396000235A
:104CD0007B614CE13B681A6801217B6901FA03F3AF
:104CE0001340FB60FB68002B00F03E813B685B6873
:104CF000012B0BD03B685B68022B07D03B685B68DD
:104D0000112B03D03B685B68122B30D17B689B680A
:104D10003B617B695B00032202FA03F3DB433A69E0
:104D200013403B613B68DA687B695B0002FA03F37E
:104D30003A6913433B617B683A699A607B685B68B8
:104D40003B6101227B6902FA03F3DB433A691340BA
:104D50003B613B685B681B0903F001027B6902FA57
:104D600003F33A6913433B617B683A695A607B6895
:104D7000DB683B617B695B00032202FA03F3DB43E0
:104D80003A6913403B613B689A687B695B0002FAB1
:104D900003F33A6913433B617B683A69DA603B6825
:104DA0005B68022B03D03B685B68122B23D17B69C5
:104DB000DA087B68083253F822303B617B6903F0E4
:104DC00007039B000F2202FA03F3DB433A69134007
:104DD0003B613B681A697B6903F007039B0002FA99
:104DE00003F33A6913433B617B69DA087B68083255
:104DF000396943F822107B681B683B617B695B0063
:104E0000032202FA03F3DB433A6913403B613B6838
:104E10005B6803F003027B695B0002FA03F33A6903
:104E200013433B617B683A691A603B685B6803F037
:104E30008053002B00F09880544A7B699B08023312
:104E400052F823303B617B6903F003039B000F2280
:104E500002FA03F3DB433A6913403B617B68B3F129
:104E6000904F19D07B684A4A934213D07B68494AD5
:104E700093420DD07B68484A934207D07B68474AEB
:104E8000934201D1042308E0072306E0032304E052
:104E9000022302E0012300E000237A6902F003020A
:104EA000920093403A6913433B6138497B699B0800
:104EB00002333A6941F82320394BD3F880303B6103
:104EC000FB68DB433A6913403B613B685B6803F472
:104ED0008033002B03D03A69FB6813433B61304AAF
:104EE0003B69C2F880302E4BD3F884303B61FB68BD
:104EF000DB433A6913403B613B685B6803F4003372
:104F0000002B03D03A69FB6813433B61244A3B6999
:104F1000C2F88430224B1B683B61FB68DB433A6973
:104F200013403B613B685B6803F48013002B03D0A4
:104F30003A69FB6813433B61194A3B691360184B9C
:104F40005B683B61FB68DB433A6913403B613B684C
:104F50005B6803F40013002B03D03A69FB6813432A
:104F60003B610F4A3B6953607B6901337B613B685E
:104F70001A687B6922FA03F3002B7FF4ABAE00BF03
:104F80001C37BD465DF8047B704700BF0000014040
:104F90000004004800080048000C004800100048C9
:104FA0000008005880B483B000AF78600B467B8067
:104FB00013467B707B78002B03D07A887B689A61DC
:104FC00002E07A887B689A6200BF0C37BD465DF8C4
:104FD000047B704780B582B000AF0346FB80084B6E
:104FE000DA68FB881340002B06D0054AFB88D360A3
:104FF000FB881846FDF70CFA00BF0837BD4680BD98
:105000000008005880B582B000AF0A4BDB687B60B7
:10501000084B1A687B68DB43064913400B60054A5E
:105020007B685360786800F007F800BF0837BD461A
:1050300080BD00BF0015005880B483B000AF786019
:1050400000BF0C37BD465DF8047B704780B400AFED
:10505000054B1B68044A43F48073136000BFBD46D0
:105060005DF8047B704700BF0004005880B400AFB7
:10507000044B1B6803F4C0631846BD465DF8047B0F
:10508000704700BF0004005880B400AF4FF0B04339
:105090001B6803F48013B3F5801F01D1012300E0E6
:1050A00000231846BD465DF8047B704780B400AF0E
:1050B0004FF0B0431B684FF0B04243F480331360AD
:1050C00000BFBD465DF8047B704780B400AF4FF071
:1050D000B0431B684FF0B04223F48033136000BF2D
:1050E000BD465DF8047B704780B400AF4FF0B0431D
:1050F0001B6803F40033B3F5003F01D1012300E046
:1051000000231846BD465DF8047B704780B400AFAD
:105110004FF0B0431B684FF0B04243F4807313600C
:1051200000BFBD465DF8047B704780B400AF4FF010
:10513000B0431B684FF0B04223F48073136000BF8C
:10514000BD465DF8047B704780B400AF4FF0B043BC
:105150001B6803F48063B3F5806F01D1012300E085
:1051600000231846BD465DF8047B704780B483B0C9
:1051700000AF78604FF0B0435B6823F0FE427B687D
:105180001B064FF0B04113434B6000BF0C37BD46C8
:105190005DF8047B704780B400AF4FF0B043D3F8A4
:1051A00098304FF0B04243F00103C2F8983000BF8E
:1051B000BD465DF8047B704780B400AF4FF0B0434C
:1051C000D3F898304FF0B04223F00103C2F8983082
:1051D00000BFBD465DF8047B704780B400AF4FF060
:1051E000B043D3F8983003F00203022B01D101231E
:1051F00000E000231846BD465DF8047B704780B48C
:1052000000AF4FF0B043D3F890304FF0B04243F0CE
:105210000103C2F8903000BFBD465DF8047B7047C3
:1052200080B400AF4FF0B043D3F890304FF0B042AD
:1052300023F00103C2F8903000BFBD465DF8047B47
:10524000704780B400AF4FF0B043D3F890304FF0C8
:10525000B04243F00403C2F8903000BFBD465DF891
:10526000047B704780B400AF4FF0B043D3F8903068
:105270004FF0B04223F00403C2F8903000BFBD46A7
:105280005DF8047B704780B400AF4FF0B043D3F8B3
:10529000903003F00203022B01D1012300E0002330
:1052A0001846BD465DF8047B704780B400AF4FF0F0
:1052B000B043D3F894304FF0B04243F00103C2F84A
:1052C000943000BFBD465DF8047B704780B400AFEA
:1052D0004FF0B043D3F894304FF0B04223F00103C5
:1052E000C2F8943000BFBD465DF8047B704780B4BF
:1052F00000AF4FF0B043D3F8943003F00203022B19
:1053000001D1012300E000231846BD465DF8047B6F
:10531000704780B400AF4FF0B043D3F894304FF0F3
:10532000B04243F00403C2F8943000BFBD465DF8BC
:10533000047B704780B400AF4FF0B043D3F8943093
:105340004FF0B04223F00403C2F8943000BFBD46D2
:105350005DF8047B704780B400AF4FF0B043D3F8E2
:10536000943003F00803082B01D1012300E000234F
:105370001846BD465DF8047B704780B483B000AF2B
:1053800078604FF0B043D3F8943023F470627B68B8
:105390001B024FF0B0411343C1F8943000BF0C37EB
:1053A000BD465DF8047B704780B400AF4FF0B0435A
:1053B0001B684FF0B04243F00103136000BFBD46CD
:1053C0005DF8047B704780B400AF4FF0B0431B68BA
:1053D0004FF0B04223F00103136000BFBD465DF8FB
:1053E000047B704780B400AF4FF0B0431B6803F0FC
:1053F0000203022B01D1012300E000231846BD4621
:105400005DF8047B704780B483B000AF78604FF0E4
:10541000B0431B6823F0F0024FF0B0417B681343A8
:105420000B6000BF0C37BD465DF8047B704780B44D
:1054300083B000AF4FF0B0431B6803F0F0037B6014
:105440007B68B02B01D9B0237B607B6818460C3792
:10545000BD465DF8047B704780B483B000AF7860D0
:105460004FF0B0435B6823F47F427B681B024FF030
:10547000B04113434B6000BF0C37BD465DF8047B61
:10548000704780B483B000AF78604FF0B0439B6842
:1054900023F003024FF0B0417B6813438B6000BFE1
:1054A0000C37BD465DF8047B704780B400AF4FF009
:1054B000B0439B6803F00C031846BD465DF8047BBF
:1054C000704780B483B000AF78604FF0B0439B6802
:1054D00023F0F0024FF0B0417B6813438B6000BFB4
:1054E0000C37BD465DF8047B704780B483B000AFD5
:1054F00078604FF0B043D3F8083123F0F0024FF05A
:10550000B0417B681343C1F8083100BF0C37BD467A
:105510005DF8047B704780B483B000AF78604FF0D3
:10552000B043D3F8083123F00F027B681B094FF01A
:10553000B0411343C1F8083100BF0C37BD465DF8D8
:10554000047B704780B483B000AF78604FF0B04305
:105550009B6823F4E0624FF0B0417B6813438B609B
:1055600000BF0C37BD465DF8047B704780B483B044
:1055700000AF78604FF0B0439B6823F460524FF067
:10558000B0417B6813438B6000BF0C37BD465DF8AC
:10559000047B704780B400AF4FF0B0439B6803F0CA
:1055A000F0031846BD465DF8047B704780B400AF39
:1055B0004FF0B043D3F8083103F0F0031846BD466E
:1055C0005DF8047B704780B400AF4FF0B043D3F870
:1055D00008311B0103F0F0031846BD465DF8047B5B
:1055E000704780B400AF4FF0B0439B6803F4E063B2
:1055F0001846BD465DF8047B704780B400AF4FF09D
:10560000B0439B6803F460531846BD465DF8047BC5
:10561000704780B400AF4FF0B0431B684FF0B0420A
:1056200043F08073136000BFBD465DF8047B704794
:1056300080B400AF4FF0B0431B684FF0B04223F08E
:105640008073136000BFBD465DF8047B704780B473
:1056500000AF4FF0B0431B6803F00073B3F1007F5D
:1056600001D1012300E000231846BD465DF8047B0C
:10567000704780B400AF4FF0B043DB681B0A03F003
:105680007F031846BD465DF8047B704780B400AFC9
:105690004FF0B043DB6803F060431846BD465DF849
:1056A000047B704780B400AF4FF0B043DB6803F079
:1056B00070031846BD465DF8047B704780B400AFA8
:1056C0004FF0B043DB6803F003031846BD465DF8B6
:1056D000047B704780B400AF4FF0B0439B6803F485
:1056E0008033B3F5803F01D1012300E00023184649
:1056F000BD465DF8047B704780B400AF4FF0B04307
:10570000D3F8083103F40033B3F5003F01D101238E
:1057100000E000231846BD465DF8047B704780B466
:1057200000AF4FF0B043D3F8083103F48033B3F542
:10573000803F01D1012300E000231846BD465DF8FB
:10574000047B704780B400AF4FF0B0439B6803F414
:105750000033B3F5003F01D1012300E000231846D8
:10576000BD465DF8047B704780B400AF4FF0B04396
:105770009B6803F48023B3F5802F01D1012300E05F
:1057800000231846BD465DF8047B704790B58DB088
:1057900000AF78607B68002B01D101237EE37B683A
:1057A0001B6803F02003002B00F09280FFF77DFEC2
:1057B000F862FFF783FFB862FB6A002B05D0FB6A33
:1057C0000C2B4CD1BB6A012B49D1FFF70BFE0346D2
:1057D000002B05D07B68DB69002B01D101235DE341
:1057E0007B685C6AFFF723FE03469C4214D97B6802
:1057F0005B6A184600F072FD0346002B01D00123BE
:105800004CE37B685B6A1846FFF7FDFD7B681B6A0B
:105810001846FFF721FE13E07B685B6A1846FFF726
:10582000F2FD7B681B6A1846FFF716FE7B685B6A11
:10583000184600F053FD0346002B01D001232DE351
:1058400000F0DAFC0246B34B1A60B34B1B681846F3
:10585000FEF7A6FA0346002B39D001231EE37B682E
:10586000DB69002B1ED0FFF79FFDFEF77FFD7862FE
:1058700008E0FEF77BFD02467B6AD31A022B01D9B2
:1058800003230BE3FFF7AEFD0346002BF1D07B684B
:105890005B6A1846FFF7B7FD7B681B6A1846FFF77F
:1058A000DBFD15E0FFF78FFDFEF760FD786208E095
:1058B000FEF75CFD02467B6AD31A022B01D9032353
:1058C000ECE2FFF78FFD0346002BF1D100E000BFB3
:1058D0007B681B6803F00103002B4ED0FFF7E5FD4A
:1058E0003862FFF7EBFEF8613B6A082B05D03B6A94
:1058F0000C2B0DD1FB69032B0AD1FFF7F5FB0346F7
:10590000002B39D07B685B68002B35D10123C5E2C1
:105910007B685B68B3F5803F02D1FFF7C7FB01E00E
:10592000FFF7D3FB7B685B68002B12D0FEF71EFDF0
:10593000786208E0FEF71AFD02467B6AD31A642BF0
:1059400001D90323AAE2FFF7CFFB0346002BF1D0D6
:1059500013E0FEF70BFD786208E0FEF707FD024654
:105960007B6AD31A642B01D9032397E2FFF7BCFBB0
:105970000346002BF1D100E000BF7B681B6803F0F9
:105980000203002B51D0FFF790FDB861FFF796FEA0
:105990007861BB69042B05D0BB690C2B13D17B69E3
:1059A000022B10D1FFF7D0FB0346002B05D07B68FC
:1059B000DB68002B01D1012370E27B681B6918466C
:1059C000FFF7D4FB31E07B68DB68002B19D0FFF7D1
:1059D0009DFBFEF7CBFC786208E0FEF7C7FC0246B1
:1059E0007B6AD31A022B01D9032357E2FFF7ACFBE2
:1059F0000346002BF1D07B681B691846FFF7B6FB06
:105A000013E0FFF792FBFEF7B1FC786208E0FEF7C7
:105A1000ADFC02467B6AD31A022B01D903233DE277
:105A2000FFF792FB0346002BF1D17B681B6803F064
:105A30000803002B06D17B681B6803F01003002BC2
:105A400000F0A3807B685B69002B76D07B681B68C5
:105A500003F01003002B46D0FFF749FC0346002B50
:105A600013D1FFF722FCFEF781FC786208E0FEF715
:105A70007DFC02467B6AD31A022B01D903230DE277
:105A8000FFF735FC0346002BF1D0FFF742FCFEF791
:105A90006DFC786208E0FEF769FC02467B6AD31A67
:105AA000032B01D90323F9E1FFF755FC0346002B33
:105AB000F1D07B689B691846FFF75FFCFFF706FC97
:105AC000FEF754FC786208E0FEF750FC02467B6A61
:105AD000D31A022B01D90323E0E1FFF708FC0346A8
