:020000040800F2
:1000000000000320E1350008A5220008B322000803
:10001000B9220008BF220008C52200080000000025
:10002000000000000000000000000000CB220008DB
:10003000D922000800000000E7220008F52200088D
:1000400035360008353600083536000879230008B3
:1000500035360008353600086B23000835360008B1
:1000600035360008353600085D23000835360008AF
:1000700035360008353600080123000835360008FB
:1000800035360008353600083536000835360008A4
:100090003536000835360008353600083536000894
:1000A0003536000835360008353600083536000884
:1000B0003536000835360008353600083536000874
:1000C0003536000835360008353600083536000864
:1000D00015230008292300083536000835360008A6
:1000E0003536000835360008353600083536000844
:1000F00091230008852300083D23000835360008B9
:100100003536000835360008353600083536000823
:100110003536000835360008353600083536000813
:100120003536000835360008492300083536000802
:0C0130003536000835360008353600086A
:1001400010B5054C237833B9044B13B10448AFF311
:1001500000800123237010BD140200200000000065
:1001600044B4000808B5034B1BB103490348AFF37F
:10017000008008BD000000001802002044B4000800
:10018000034613F8012B002AFBD1181A01387047D7
:1001900001F0FF01102A2BDB10F0070F08D010F838
:1001A000013B013A8B422DD010F0070F42B3F6D13C
:1001B000F0B441EA012141EA014122F007047FF055
:1001C00000070023F0E80256083C85EA010586EAAC
:1001D000010685FA47F5A3FA87F586FA47F6A5FAE8
:1001E00087F68EB9EED1F0BC01F0FF0102F00702F4
:1001F00032B110F8013B013A83EA010313B1F8D19F
:100200000020704701387047002D06BF354603387F
:10021000073815F0010F07D1013015F4807F02BFB8
:10022000013015F4C03F0130F0BC0138704700BF09
:1002300053B94AB9002908BF00281CBF4FF0FF314D
:100240004FF0FF3000F072B9ADF1080C6DE904CE4B
:1002500000F006F8DDF804E0DDE9022304B07047A1
:100260002DE9F047089E04468846002B4BD18A4270
:10027000154667D9B2FA82F24AB1C2F1200701FAF3
:1002800002F320FA07F7954047EA030894404FEA43
:10029000154E230CB8FBFEF71FFA85FC0EFB1788E2
:1002A00043EA084307FB0CF1994209D9EB1807F11F
:1002B000FF3080F01B81994240F21881023F2B44AD
:1002C0005B1AA4B2B3FBFEF00EFB103344EA034406
:1002D00000FB0CFCA44509D92C1900F1FF3380F078
:1002E0000781A44540F2048102382C4440EA0740CB
:1002F000A4EB0C0400271EB1D4400023C6E9004340
:100300003946BDE8F0878B4209D9002E00F0EB801A
:100310000027C6E9000138463946BDE8F087B3FA40
:1003200083F7002F47D18B4202D3824200F2FA803A
:10033000841A61EB030301209846002EE0D0C6E941
:100340000048DDE702B9FFDEB2FA82F2002A40F08F
:100350008F80491B4FEA154E1FFA85F80127B1FB24
:10036000FEFC230C0EFB1C1143EA014308FB0CF1BD
:10037000994207D9EB180CF1FF3002D2994200F2F2
:10038000CD808446591AA3B2B1FBFEF00EFB1014C7
:1003900043EA044408FB00F8A04507D92C1900F1F2
:1003A000FF3302D2A04500F2B6801846A4EB080441
:1003B00040EA0C409FE7C7F1200CBB4022FA0CFE3C
:1003C0004EEA030E01FA07F420FA0CF521FA0CF3B9
:1003D0004FEA1E482543B3FBF8F92C0C08FB1933F0
:1003E0001FFA8EFA44EA034309FB0AF49C4202FA1C
:1003F00007F200FA07F10BD91EEB030309F1FF30F6
:1004000080F087809C4240F28480A9F10209734405
:100410001B1BADB2B3FBF8F008FB103345EA0344F5
:1004200000FB0AFAA24508D91EEB040400F1FF33D1
:100430006BD2A24569D90238744440EA0940A0FB56
:100440000289A4EB0A044C45C2464B4654D351D012
:10045000002E69D0B1EB0A0564EB030404FA0CFC2E
:10046000FD40FC404CEA0505C6E90054002747E77B
:10047000C2F1200320FA03F7954001FA02F021FAB5
:1004800003F34FEA154E3843010CB3FBFEF71FFA96
:1004900085F80EFB173341EA034107FB08F38B4253
:1004A00004FA02F407D9691807F1FF3C2FD28B42F6
:1004B0002DD9023F2944CB1A81B2B3FBFEF00EFBCB
:1004C000103341EA034100FB08F38B4207D9691856
:1004D00000F1FF3C17D28B4215D902382944C91AC2
:1004E00040EA07473BE73746304609E70746E7E675
:1004F0001846FBE64145ABD2B8EB020A69EB0E02A7
:1005000001381346A4E76046E9E7184695E76746D1
:10051000D1E781467CE702382C4447E7ACF1020C76
:100520002B442FE7384608E73746E9E6704700BF17
:1005300080B483B000AF7860064BD3F890200549B3
:100540007B681343C1F8903000BF0C37BD465DF89F
:10055000047B70470008005880B485B000AF786015
:100560004FF0B043DA6C4FF0B0417B681343CB647B
:100570004FF0B043DA6C7B681340FB60FB6800BF50
:100580001437BD465DF8047B704780B485B000AF7A
:1005900078604FF0B043D3F84C214FF0B0417B6806
:1005A0001343C1F84C314FF0B043D3F84C217B6872
:1005B0001340FB60FB6800BF1437BD465DF8047B49
:1005C000704780B500AF03F037FA03F03BFA4FF401
:1005D0008030FFF7ADFF08F071F800F021F800F06F
:1005E000BFF800BF80BD0000B0B588B000AF0B4BB6
:1005F0003C1D1D460FCD0FC495E8070003C42280A3
:100600000234130C237009F0B9FC3B1D184608F0A6
:10061000EEFB00BF2037BD46B0BD00BF5CB4000894
:1006200080B588B000AF3B1D00221A605A609A6006
:10063000DA601A610023BB8300237B8300233B83A2
:100640000023FB7733E0FB7F424ADB0013449B79B6
:10065000002B28D0FB7F3F4A52F833303E4A93426A
:100660000FD03E4A934215D0B3F1904F00D01BE01B
:10067000FB7F384ADB0013449A88BB8B1343BB8350
:1006800012E0FB7F334ADB0013449A887B8B1343D1
:100690007B8309E0FB7F2F4ADB0013449A883B8B66
:1006A00013433B8300E000BFFB7F0133FB77FB7FFD
:1006B000212BC8D90023FB600123BB6003233B61CE
:1006C000BB8B002B14D0BB8B7B600120FFF744FF5A
:1006D0000120FFF75AFF3B1D19464FF0904003F0F1
:1006E00063FEBB8B002219464FF0904003F0CCFF15
:1006F0007B8B002B12D07B8B7B600220FFF72CFFC3
:100700000220FFF742FF3B1D1946134803F04CFE41
:100710007B8B00221946104803F0B6FF3B8B002B61
:1007200013D03B8B7B600420FFF716FF0420FFF7FC
:100730002CFF3B1D1946094803F036FE3B8B002277
:100740001946064803F0A0FF00BF00BF2037BD4692
:1007500080BD00BF10BC000800040048000800482D
:1007600080B400AF00BFBD465DF8047B704780B524
:1007700000AF01F085FA00BF80BD80B584B000AF46
:10078000F8600B467A607B817A897B68F968002083
:1007900000F0B2FF00BF1037BD4680BD80B483B00B
:1007A00000AF7860074BD3F8803023F0070205498B
:1007B0007B681343C1F8803000BF0C37BD465DF83D
:1007C000047B70470004005880B483B000AF7860A9
:1007D0004FF0B0439B6823F400424FF0B0417B6878
:1007E00013438B6000BF0C37BD465DF8047B704738
:1007F00080B500AF00F014F80849002000F002FDB9
:10080000FFF7DFFE0121012009F05AFC00F067F834
:1008100000F075F800F012F800BF80BD1015002040
:1008200080B500AF4FF40040FFF7CEFF09F036FC73
:100830000420FFF7B3FF00BF80BD000080B588B083
:1008400000AF09F0E5F9114A0021102009F046FD3A
:100850000F4B3B600F4B7B603B4619460E4808F040
:10086000DDFA0E4BBB600E4BFB600E4B3B6140F262
:100870003C537B6107F10803184609F00BFB09F0B4
:10088000C1F900BF2037BD4680BD00BF558E0008AE
:1008900024070320A9080008BF0800083C0903201A
:1008A00030080320E801032080B483B000AF034682
:1008B000FB7100BF0C37BD465DF8047B704780B507
:1008C00082B000AF7860FFF78FFE01F013FE0021C9
:1008D000012009F0F5FB00BF0837BD4680BD80B59B
:1008E00000AF002002F0C0FE012002F0BDFE022099
:1008F00002F0BAFE012002F0F1FE00BF80BD80B51B
:1009000000AF0121002002F01DFF0121012002F0B3
:1009100019FF00BF80BD80B400AF00BFBD465DF8C9
:10092000047B704780B582B000AF786039604FF0CB
:10093000FF3009F0F3FB00BF0837BD4680BD80B52E
:1009400082B000AF78600021102009F0E7FC00BF02
:100950000837BD4680BD80B582B000AF7860022008
:1009600009F042FD00BF0837BD4680BD80B582B0AA
:1009700000AF7860022009F055FD00BF0837BD4682
:1009800080BD80B582B000AF0346FB80FB88022BA0
:100990000AD0102B02D0012B03D008E001F0D2FFC7
:1009A00005E001F0D5FF02E001F0DAFF00BF00BF73
:1009B0000837BD4680BD000080B483B000AF7860CA
:1009C000064BD3F8802005497B681343C1F880307B
:1009D00000BF0C37BD465DF8047B70470008005827
:1009E00080B483B000AF7860054B1A6804497B6817
:1009F00013430B6000BF0C37BD465DF8047B7047A6
:100A00000008005880B483B000AF0D4B9B6A9BB2C6
:100A10007B600B4B9B6A9BB23B6005E03B687B6055
:100A2000074B9B6A9BB23B607A683B689A42F5D160
:100A30003B6818460C37BD465DF8047B704700BF25
:100A40000028004080B485B000AF03460A46FB7121
:100A50001346BB71BA791D4913465B001344DB0092
:100A60000B4415331B78FB73FB7B062B09D0FA7BF9
:100A7000164913465B001344DB000B441433FA7928
:100A80001A70FA79114913465B001344DB000B44DA
:100A90001533FA7B1A70FA790C4913465B0013443C
:100AA000DB000B441433BA791A70BA79074913463C
:100AB0005B001344DB000B441533FA791A7000BF56
:100AC0001437BD465DF8047B704700BFAC000020C2
:100AD00080B485B000AF03460A46FB711346BB7174
:100AE000294B1B78DBB2BA799A4232D0BA792749BE
:100AF00013465B001344DB000B4414331B78FB7379
:100B0000FA7B224913465B001344DB000B44153388
:100B1000FA791A70FA791D4913465B001344DB0019
:100B20000B441533BA791A70FA79184913465B00E9
:100B30001344DB000B441433FA7B1A70BA7913495F
:100B400013465B001344DB000B441433FA791A702C
:100B500014E0FA790D4913465B001344DB000B44A3
:100B60001533BA791A70BA79084913465B001344F1
:100B7000DB000B441433FA791A7000BF1437BD46FA
:100B80005DF8047B704700BF3C010020AC000020F2
:100B900080B584B000AF0346FB714E4B1B78DBB2CF
:100BA000062B18D14B4B1B78DAB24B4B1A70494AC3
:100BB000FB791370FA79494913465B001344DB0053
:100BC0000B44153306221A70454B4FF0FF321A6062
:100BD0000023FB8178E000F009F90346FB81FA79F4
:100BE0003E4913465B001344DB000B44083319688D
:100BF000FB89FA791944394813465B001344DB003A
:100C0000034408331960FA79344913465B001344EE
:100C1000DB000B4408331B68BB602E4B1B78DBB238
:100C200019462E4A0B465B000B44DB001344083385
:100C30001B68BA689A4237D3264B1B787B737A7B42
:100C4000264913465B001344DB000B4415331B7825
:100C50003B7313E07A7B214913465B001344DB00AE
:100C60000B4415331B787B737A7B1C4913465B005E
:100C70001344DB000B4415331B783B733B7B062B83
:100C80000BD03A7B154913465B001344DB000B4441
:100C900008331B68BA689A42DCD27A7BFB7911462A
:100CA0001846FFF7CFFE0FE00A4B1B78DAB2FB794C
:100CB00011461846FFF70CFF064B1B78DAB2064BBD
:100CC0001A70044AFB791370FB8918461037BD4629
:100CD00080BD00BF3C0100203D010020AC00002091
:100CE0004001002080B485B000AF03460A46FB7186
:100CF0001346BB71394B1B78DBB2FA799A4211D19A
:100D0000364B1B78DAB2364B1A70FA7935491346EE
:100D10005B001344DB000B4415331B78DAB22F4B16
:100D20001A703EE0FA792F4913465B001344DB004A
:100D30000B4414331B78FB73FA792A4913465B0082
:100D40001344DB000B4415331B78BB73F979FA7B32
:100D500024480B465B000B44DB00034415331B782F
:100D6000D8B2204913465B001344DB000B44153313
:100D700002461A70BB7B062B13D0F979BA7B19484F
:100D80000B465B000B44DB00034414331B78D8B2E2
:100D9000144913465B001344DB000B441433024632
:100DA0001A70FA790F4913465B001344DB000B44B9
:100DB0000C3301221A70094B1B78DBB2062B07D1CA
:100DC000BB79002B04D1084B4FF0FF321A6000BFF3
:100DD00000BF1437BD465DF8047B70473C0100201E
:100DE0003D010020AC0000204001002080B582B011
:100DF00000AF1A4B1B68B3F1FF3F26D0FFF702FE8E
:100E00007860164B1B687A689A4205D8134B1A68AB
:100E10007B68D31A7B600AE0114B1B881A467B68FB
:100E2000D31A3B600D4B1B683A6813447B600D4B33
:100E30001B781A467B6802FB03F37B600A4B1B7826
:100E40001A467B68D3407B6001E000237B607B68AF
:100E50009BB218460837BD4680BD00BF4001002048
:100E600036020020350200203402002080B582B016
:100E700000AF0346FB80FB88002B08D1FFF7C2FDC3
:100E80000246244B1A60032002F05DFF3EE0FB881F
:100E9000012B03D8204B1B78012B02D0FB88013B90
:100EA000FB8000BF1D4B1B681B68DB6803F004035D
:100EB000002BF7D0194B1B681B68DB68DAB2174BA5
:100EC0001B681B6862F49062DA60154B4FF40022D5
:100ED000DA60032002F045FF124B5B691B0C1B0418
:100EE000FA88104913434B61FFF78CFD0246094B0A
:100EF0001A600A4B1B681B689A68084B1B681B68C2
:100F000042F480629A60AFF3008000BF0837BD46AC
:100F100080BD00BF400100203402002030020020CC
:100F2000000800580028004080B584B000AF474B4F
:100F30009B6803F48063B3F5806F08D100BF444B16
:100F40001B681B68DB6803F00403002BF7D1404BE0
:100F50001B681B689A683E4B1B681B6822F4806202
:100F60009A603C4B1B78FB73FA7B3B4913465B0052
:100F70001344DB000B4408331B68BB60FFF736FFEC
:100F80000346FB80FB88BA689A4205D20023BB81E6
:100F9000324B01221A704DE0FB88314A128892B21E
:100FA00013441A46BB68934206D92D4B1B88BB815C
:100FB0002A4B00221A703DE0BB689AB2FB88D31A14
:100FC000BB81264B01221A7034E0FA7B224913467A
:100FD0005B001344DB000B4408331A68FB889A4219
:100FE0000AD2FA7B1C4913465B001344DB000B4416
:100FF000083300221A6013E0FA7B174913465B009E
:101000001344DB000B4408331968FB88FA7BC91AC8
:10101000114813465B001344DB0003440833196096
:10102000FA7B0D4913465B001344DB000B44153378
:101030001B78FB73FB7B062BC7D1BB891846FFF7D8
:1010400015FF00BF1037BD4680BD00BF002800401F
:10105000300200203C010020AC00002044010020B0
:101060003802002080B58AB000AFEFF310837B61B7
:101070007B697B6272B65E4B1B681B68CA225A6230
:101080005B4B1B681B6853225A62594B1B681B68D9
:101090009A68574B1B681B6822F480629A60554B14
:1010A0001B7887F8233097F82320534913465B00B9
:1010B0001344DB000B440C331B78DBB2022B70D1E2
:1010C00097F823204C4913465B001344DB000B4484
:1010D0001B68FB6197F82320474913465B001344C4
:1010E000DB000B4410331B68BB61444B1B78DBB245
:1010F000002B4ED097F823203F4913465B00134442
:10110000DB000B440D331B78DBB2012B25D197F8A4
:10111000233001211846FFF7E5FD7B6A3B613B69FF
:1011200083F3108897F82320334913465B00134458
:10113000DB000B4404331A6897F823301146184635
:1011400000F046FA2A4B1B681B68CA225A62284BD9
:101150001B681B6853225A6213E07B6AFB60FB68C2
:1011600083F3108897F82330184600F0A7F9204B36
:101170001B681B68CA225A621D4B1B681B685322DE
:101180005A6297F82330FA691946B86900F0A6FA4E
:1011900024E0FFF7C9FE7B6ABB60BB6883F310885D
:1011A0001CE000BF124B1B681B68DB6803F00403E4
:1011B000002BF7D00E4B1B681B68DB68DAB20C4BB8
:1011C0001B681B6862F49062DA600D4B4FF40022DA
:1011D000DA607B6A7B607B6883F31088044B1B6852
:1011E0001B68FF225A6200BF2837BD4680BD00BF82
:1011F000300200203C010020AC000020440100200F
:101200000008005880B588B000AF03463960FB7114
:10121000644A3B681360634B1B681B68CA225A62AE
:10122000604B1B681B6853225A625F4B9B685E4A87
:1012300043F0200393605C4B9B68DBB203F0070331
:10124000DBB2C3F10403DAB2584B1A70564B1B6978
:1012500003F4FE034FF4FE023A613A6992FAA2F2F5
:10126000FA60FA687A617A69002A01D1202203E0E3
:101270007A69B2FA82F2D2B2D340DBB20133DAB287
:101280004B4B1A70484B1B699BB2C3F30E039BB2C6
:1012900001339AB2474B1A80464B1B88013B444AA4
:1012A000127802FB03F3A3F5A073404A1278D340EF
:1012B000BB61BB694FF6FE72934204D93E4B4FF6B9
:1012C000FF721A8003E0BB699AB23B4B1A804FF45D
:1012D0000020FFF785FB4FF40020FFF76DFBFB7943
:1012E000002B43D1354B01221A70354B4FF0FF32A2
:1012F0001A600023FB770CE0FA7F324913465B004B
:101300001344DB000B440C3300221A70FB7F0133C3
:10131000FB77FB7F052BEFD92B4B06221A70214B55
:101320001B681B689A681F4B1B681B6822F480624D
:101330009A601C4B1B681B68DB68DAB2194B1B6890
:101340001B6862F49062DA60204B4FF40022DA608E
:10135000032002F006FD134B1B681B689A68114BB3
:101360001B681B6842F480429A600AE00D4B1B68C0
:101370001B68DB6803F48063002B02D0032002F0BB
:10138000E2FC084B1B681B68FF225A620022032103
:10139000032002F096FC032002F0ADFC00BF2037D2
:1013A000BD4680BD300200200028004034020020ED
:1013B00035020020360200203802002044010020BF
:1013C00040010020AC0000203C0100200008005833
:1013D00080B48BB000AFF860B9603B601346FB711E
:1013E000002387F82630EFF31083FB61FB693B6233
:1013F00072B604E097F82630013387F8263097F864
:101400002630052B0CD897F826202B4913465B0075
:101410001344DB000B440C331B78DBB2002BE9D107
:1014200097F82630062B37D097F826202249134606
:101430005B001344DB000B440C3301221A703B6A3F
:10144000BB61BB6983F3108897F826201A491346BD
:101450005B001344DB000B441033FA681A6097F802
:101460002620154913465B001344DB000B440D3363
:10147000FA791A7097F826200F4913465B00134437
:10148000DB000B443A681A60BB6897F826201A7094
:10149000002387F8273007E03B6A7B617B6983F391
:1014A0001088012387F8273097F8273018462C3703
:1014B000BD465DF8047B7047AC00002080B586B067
:1014C00000AF0346FB71EFF31083FB60FB687B61A9
:1014D00072B6032002F01DFC374B1B681B68CA2242
:1014E0005A62354B1B681B6853225A62FA7933499A
:1014F00013465B001344DB000B440C331B78DBB258
:10150000022B48D1FB7900211846FFF7EBFB2C4B4F
:101510001B78FB74FB7C062B35D12A4B9B6803F4AC
:101520008063B3F5806F08D100BF234B1B681B6835
:10153000DB6803F00403002BF7D11F4B1B681B680B
:101540009A681D4B1B681B6822F480629A6000BF7A
:10155000194B1B681B68DB6803F00403002BF7D0F2
:10156000154B1B681B68DB68DAB2134B1B681B68E2
:1015700062F49062DA60144B4FF40022DA600320C8
:1015800002F0EFFB07E0114B1B78DBB2FA7C9A42CA
:1015900001D0FFF7C9FC084B1B681B68FF225A6289
:1015A000032002F0A8FB7B69BB60BB6883F3108853
:1015B00000BF1837BD4680BD30020020AC000020BF
:1015C0003C01002000280040000800583D01002098
:1015D00080B586B000AF03463960FB71FA793B49AC
:1015E00013465B001344DB000B440C331B78DBB267
:1015F000022B03D1FB791846FFF760FFEFF310834E
:10160000FB60FB687B6172B6032002F082FB304B0B
:101610001B681B68CA225A622D4B1B681B68532229
:101620005A62FA79294913465B001344DB000B44E4
:101630000C3302221A70FA79244913465B001344D2
:10164000DB000B4408333A681A60FA791F491346E5
:101650005B001344DB000B4404333A681A60FB79E7
:101660001846FFF795FA03467B821A4B1B787B746A
:10167000194B1B78DBB27A7C9A4202D0FFF754FCFC
:1016800013E0FA79114913465B001344DB000B4465
:10169000083319687B8AFA79C91A0C4813465B002B
:1016A0001344DB00034408331960094B1B681B68B3
:1016B000FF225A62032002F01EFB7B69BB60BB68FD
:1016C00083F3108800BF1837BD4680BDAC000020F2
:1016D000300200203C0100203D01002080B584B094
:1016E00000AFF8600B467A60FB727B68984700BFDA
:1016F0001037BD4680BD000080B586B000AFB96030
:101700007B600346FB731346BB810023FB750023FC
:10171000BB75FB7B002B02D0022B0FD01DE01F4AB4
:101720007B6813601E4B1F4A1A60BB891A46B96852
:101730001B4804F077FF0346FB750EE01A4A7B68EE
:1017400013601A4B1A4A1A60BB891A46B9681748BF
:1017500004F068FF0346FB7500BFFB7D032B17D821
:1017600001A252F823F000BF791700087F17000884
:10177000851700088B1700080023BB7509E00123BB
:10178000BB7506E00223BB7503E00323BB7500E0D5
:1017900000BFBB7D18461837BD4680BD941300209E
:1017A0008414002000380140881300209813002082
:1017B0000080004080B582B000AF78607B681B6815
:1017C0000E4A93420BD00E4A934200D012E00D4BCA
:1017D0001B68002B0BD00B4B1B68984707E00A4B8C
:1017E0001B68002B05D0084B1B68984701E000BF21
:1017F00000E000BF00BF0837BD4680BD008000404C
:1018000000380140941300208813002080B483B076
:1018100000AF7860074BD3F880207B68DB43054935
:101820001340C1F8803000BF0C37BD465DF8047B23
:10183000704700BF0008005880B483B000AF7860E4
:10184000074BD3F890207B68DB4305491340C1F870
:10185000903000BF0C37BD465DF8047B704700BF79
:101860000008005880B483B000AF78604FF0B043F8
:101870000A4AC3F89C204FF0B043D3F89C3023F4BD
:101880007C527B681B024FF0B0411343C1F89C307F
:1018900000BF0C37BD465DF8047B7047FECAFECA28
:1018A00080B483B000AF78604FF0B043D3F890308D
:1018B00023F018024FF0B0417B681343C1F8903019
:1018C00000BF0C37BD465DF8047B704780B400AFA5
:1018D0004FF0B043D3F890304FF0B04243F4803330
:1018E000C2F8903000BFBD465DF8047B704780B4FD
:1018F00000AF4FF0B043D3F890304FF0B04223F434
:101900008033C2F8903000BFBD465DF8047B70475D
:1019100080B400AF4FF0B043D3F8943003F080634D
:10192000B3F1806F01D1012300E000231846BD46CA
:101930005DF8047B704780B400AF4FF0B043D3F83C
:10194000943003F08053B3F1805F01D1012300E0B4
:1019500000231846BD465DF8047B704780B485B00F
:1019600000AF78604FF0B0439A6C4FF0B0417B68A5
:1019700013438B644FF0B0439A6C7B681340FB6059
:10198000FB6800BF1437BD465DF8047B704780B428
:1019900085B000AF78604FF0B043DA6C4FF0B041E3
:1019A0007B681343CB644FF0B043DA6C7B68134021
:1019B000FB60FB6800BF1437BD465DF8047B7047D1
:1019C00080B485B000AF78604FF0B0431A6D4FF02F
:1019D000B0417B6813430B654FF0B0431A6D7B68D1
:1019E0001340FB60FB6800BF1437BD465DF8047B05
:1019F000704780B483B000AF786039607B685A6804
:101A00003B681B041A437B685A6000BF0C37BD4615
:101A10005DF8047B704780B483B000AF78603960B4
:101A20007B685A683B681A437B685A6000BF0C3772
:101A3000BD465DF8047B704780B483B000AF78602A
:101A400039607B685A693B681B041A437B685A619A
:101A500000BF0C37BD465DF8047B704780B483B08F
:101A600000AF786039607B685A693B681A437B68CD
:101A70005A6100BF0C37BD465DF8047B704780B4E7
:101A800083B000AF786039607B683A689A6000BFC5
:101A90000C37BD465DF8047B704780B483B000AF5F
:101AA000786039607B683A689A6100BF0C37BD4640
:101AB0005DF8047B7047000080B400AF054B1B69E4
:101AC000044A23F00403136100BFBD465DF8047BA4
:101AD000704700BF00ED00E080B483B000AF7860D5
:101AE0007B68FF225A6200BF0C37BD465DF8047B5D
:101AF000704780B483B000AF78607B68CA225A62B6
:101B00007B6853225A6200BF0C37BD465DF8047BE8
:101B1000704780B483B000AF786039607B689B68A1
:101B200023F007023B681A437B689A6000BF0C37BA
:101B3000BD465DF8047B704780B500AF0F4B4FF496
:101B400000421A6101F0E6FE00F069F900F053F975
:101B500000F016F800F048F900F0A3F900F037F9AA
:101B600000F018F900F0DAF800F0E0F8FEF740FEB7
:101B70004FF0FF3008F0D2FAFAE700BF00400058FB
:101B800080B5AEB000AF07F17003482200211846BF
:101B900008F007FD07F1540300221A605A609A60AA
:101BA000DA601A615A619A613B1D50220021184681
:101BB00008F0F7FC02F0BCFD0020FFF771FE2F4B90
:101BC0001B6823F4C0632D4A43F4007313602B4B4E
:101BD0001B6803F4C0633B603B6807233B674FF41B
:101BE00080337B670123BB674FF48073FB6740231F
:101BF000C7F880300023C7F89C3007F170031846FF
:101C000003F02AF90346002B01D000F07AF96F2384
:101C10007B650223BB650023FB6500233B66002335
:101C20007B660023BB660023FB6607F1540301219A
:101C3000184603F09DFC0346002B01D000F061F92B
:101C400043F603037B600023FB6100233B624FF4F8
:101C500080737B644FF48043BB640223FB641023D6
:101C60003B653B1D184604F0C2F80346002B01D02B
:101C700000F047F900BFB837BD4680BD00040058EA
:101C800080B500AF234B244A1A60224B4FF4E13257
:101C90005A60204B00229A601E4B0022DA601D4BD6
:101CA00000221A611B4B0C225A611A4B00229A61C6
:101CB000184B4FF40042DA61164B00221A62154BA2
:101CC00000225A62134B00229A62124804F059FC17
:101CD0000346002B01D000F014F900210D4805F057
:101CE0006DFB0346002B01D000F00BF900210948E1
:101CF00005F0A2FB0346002B01D000F002F90548D5
:101D000005F023FB0346002B01D000F0FAF800BFDA
:101D100080BD00BF841400200038014080B400AFB3
:101D200000BFBD465DF8047B7047000080B500AF82
:101D3000164B174A1A60154B00225A60134B0F229C
:101D40009A60124B47F6FF72DA60104B00221A615C
:101D50000E4B00229A610D4B0022DA610B4B0022E0
:101D60005A610A4804F0C9FA0346002B01D000F07A
:101D7000C8F80748FFF7BDFE00210548FFF7C9FE78
:101D80000348FFF7A9FE00BF80BD00BF101500206B
:101D90000028004080B500AF0420FFF7DFFD0120E0
:101DA000FFF7DCFD0220FFF7D9FD00220F210E20F6
:101DB00001F087FF0E2001F09EFF00220F213A2044
:101DC00001F07FFF3A2001F096FF00BF80BD80B593
:101DD00000AF0420FFF7DBFD0120FFF7D8FD022054
:101DE000FFF7D5FD00BF80BD80B400AF00BFBD468A
:101DF0005DF8047B704780B582B000AF002006F02C
:101E00008DFE78607B68002B05D07B689B79184637
:101E1000FFF728FD00BF00BF0837BD4680BD80B575
:101E200000AF00F027F800F003F800BF80BD00000D
:101E300080B500AF4FF48010FFF7C2FD3F210C4882
:101E4000FFF71DFE3F210A48FFF727FE3F21084804
:101E5000FFF7CFFD3F210648FFF7EEFD3F21044885
:101E6000FFF7D9FD3F210248FFF7F8FD00BF80BD15
:101E7000000C005880B500AFFFF74AFD0346002B69
:101E80000DD0FFF758FD0346002B08D102F050FC9F
:101E900002F04EFCFFF71AFDFFF729FD00BF00BF5F
:101EA00080BD80B500AF4FF0FF30FFF7AFFC6FF0A3
:101EB0005000FFF7C1FC00BF80BD80B584B000AF0B
:101EC000786001F095FDB8607B68FB60FB68B3F15A
:101ED000FF3F0AD001F0A4FD03461A46FB681344F5
:101EE000FB6002E0FFF7E8FD30BF01F081FD024634
:101EF000BB68D31AFA689A42F4D800BF1037BD46BF
:101F000080BD80B400AF00BFBD465DF8047B704764
:101F100080B483B000AF78604FF0B043D3F8903016
:101F200023F440724FF0B0417B681343C1F8903006
:101F300000BF0C37BD465DF8047B704780B400AF2E
:101F40004FF0B043D3F890304FF0B04243F4004329
:101F5000C2F8903000BFBD465DF8047B704780B486
:101F600085B000AF78604FF0B043DA6C4FF0B0410D
:101F70007B681343CB644FF0B043DA6C7B6813404B
:101F8000FB60FB6800BF1437BD465DF8047B7047FB
:101F900080B485B000AF78604FF0B0431A6D4FF059
:101FA000B0417B6813430B654FF0B0431A6D7B68FB
:101FB0001340FB60FB6800BF1437BD465DF8047B2F
:101FC000704780B485B000AF78604FF0B0439A6D31
:101FD0004FF0B0417B6813438B654FF0B0439A6D6F
:101FE0007B681340FB60FB6800BF1437BD465DF89B
:101FF000047B704780B485B000AF78604FF0B04389
:10200000DA6D4FF0B0417B681343CB654FF0B043BE
:10201000DA6D7B681340FB60FB6800BF1437BD4678
:102020005DF8047B704780B485B000AF78604FF0F6
:10203000B0431A6E4FF0B0417B6813430B664FF00C
:10204000B0431A6E7B681340FB60FB6800BF143717
:10205000BD465DF8047B704780B500AF4FF40020AB
:10206000FFF796FF002200212E2001F02AFE2E20ED
:1020700001F041FE00BF80BD80B58CB000AF78603C
:1020800007F11C0300221A605A609A60DA601A6134
:102090007B681B686C4A93426FD10120FFF7AAFF4F
:1020A0000120FFF75CFF0C23FB6102233B6200234E
:1020B0007B620323BB620823FB6207F11C03194602
:1020C0004FF0904002F070F94023FB6102233B6225
:1020D00000237B620023BB620823FB6207F11C0321
:1020E00019464FF0904002F05FF9584B584A1A6079
:1020F000564B11225A60554B10229A60534B0022C6
:10210000DA60524B80221A61504B00225A614F4BC9
:1021100000229A614D4B0022DA614C4B00221A6278
:102120004A4801F02DFE0346002B01D0FFF7E9FEDF
:102130004FF08853FB6000233B6100233B75002375
:102140007B750123BB6107F10C0319463F4802F080
:10215000EBF80346002B01D0FFF7D3FE7B683B4A28
:102160005A673A4A7B68936200220021252001F0D9
:10217000A8FD252001F0BFFD61E07B681B68354AA2
:1021800093425CD14FF48040FFF74DFF0120FFF7F1
:10219000E6FE0220FFF7E3FE4FF40063FB6102233B
:1021A0003B6200237B620023BB620723FB6207F1D3
:1021B0001C0319464FF0904002F0F6F8C023FB6173
:1021C00002233B6201237B620323BB620723FB6282
:1021D00007F11C031946204802F0E6F81F4B204A7D
:1021E0001A601E4B0F225A601C4B10229A601B4B28
:1021F0000022DA60194B80221A61184B00225A61C2
:10220000164B00229A61154B0022DA61134B002213
:102210001A62124801F0B4FD0346002B01D0FFF70B
:1022200070FE7B680D4A5A670C4A7B6893620022F5
:102230000021242001F045FD242001F05CFD00BFB9
:102240003037BD4680BD00BF0080004034150020FF
:1022500044000240003801400004004824140020DB
:102260004404024080B582B000AF78607B681B6890
:102270000B4A934210D102F05BFA02F059FA4FF484
:102280008070FFF745FEFFF759FE4FF48060FFF7BF
:1022900098FE786804F01FF900BF0837BD4680BD7E
:1022A0000028004080B400AF00BFBD465DF8047B4D
:1022B000704780B400AFFEE780B400AFFEE780B4A3
:1022C00000AFFEE780B400AFFEE780B400AF00BF10
:1022D000BD465DF8047B704780B400AF00BFBD46CB
:1022E0005DF8047B704780B400AF00BFBD465DF869
:1022F000047B704780B500AF01F066FB00BF80BD76
:1023000080B500AF024801F0BDFE00BF80BD00BF38
:102310003415002080B500AF024804F003FA00BF76
:1023200080BD00BF8414002080B500AF024804F0D7
:10233000F9F900BF80BD00BF9813002080B500AF41
:1023400002F0D2F900BF80BD80B500AF024801F0B5
:1023500099FE00BF80BD00BF2414002080B500AFEF
:10236000102002F0A9F900BF80BD80B500AF0120A8
:1023700002F0A2F900BF80BD80B500AFFEF772FE8B
:1023800000BF80BD80B500AF01F002F800BF80BD86
:1023900080B500AF00F0C4FF00BF80BD80B586B03F
:1023A00000AFF860B9607A6000237B610AE0AFF3A8
:1023B00000800146BB685A1CBA60CAB21A707B69B9
:1023C00001337B617A697B689A42F0DB7B6818464F
:1023D0001837BD4680BD80B483B000AF78604FF041
:1023E000FF3318460C37BD465DF8047B704780B458
:1023F00083B000AF786039603B684FF400525A6098
:10240000002318460C37BD465DF8047B704780B446
:1024100083B000AF7860012318460C37BD465DF8E5
:10242000047B704780B485B000AFF860B9607A6013
:10243000002318461437BD465DF8047B7047000042
:1024400080B586B000AF7860144A154BD31A7B6113
:102450007B693B61134B1B68002B02D1114B124A65
:102460001A60104B1A687B6813443A699A4207D283
:1024700008F062F802460C2313604FF0FF3309E0C6
:10248000084B1B68FB60074B1A687B681344054ABE
:102490001360FB6818461837BD4680BD0000032056
:1024A000001000003C020020A815002080B400AFFE
:1024B000034B1B681846BD465DF8047B704700BFA0
:1024C0008075FF1F80B400AF034B1B68DBB218465A
:1024D000BD465DF8047B70478475FF1F80B400AF74
:1024E000034B1B681B0A1846BD465DF8047B70470A
:1024F0008475FF1FB0B58CB000AF2F4B3C461D4616
:102500000FCD0FC40FCD0FC495E80F0007C4237083
:1025100000F02EFA0121022007F0D2FD274A002107
:10252000082007F0DBFE3B46184606F049FC034650
:10253000002B01D0FFF7E5FC00F030FA07F0C2FAFB
:102540001F4B002283F880201D4B4FF6FF72DA826A
:102550001C4A0021012007F0C1FE1B4A0021042073
:1025600007F0BCFE062005F0B2FE184B00221A70E0
:10257000174B01221A7000F06DFD164B0022164910
:102580000020FEF725FF154B002215490020FEF71D
:102590001FFF0B4B00225A76094B00221A76114B73
:1025A00080221A80104BA0221A80012000F0B8FA75
:1025B00000BF3037BD46B0BD78B40008E9870008D9
:1025C00048010020F52C00083D2E00089915002038
:1025D00098150020552D0008C9010020652D000820
:1025E000CA010020CC010020CE01002080B58CB0B3
:1025F00000AF7860422387F82F307B680133BB62DD
:10260000BB6A1B783E2B28D0FF2B00F0AF80052B38
:1026100000D05AE1BB6A02333B613B69B3F8013039
:102620009AB2AC4BDB8A9A4209D1AA4B0022DA82D9
:10263000A84B002283F88020A74808F02FF801203B
:1026400000F06EFAA54B01221A70A24BDA8AA34B56
:102650005A80A24800F0EAFC37E1BB6A0233FB6112
:10266000FB691B78032B04D00C2B06D0012B42D026
:102670007BE09B4808F012F877E09A4808F00EF8E3
:10268000FB690133BB61BB691B78002B03D1964802
:1026900008F004F802E0954808F000F88D4BDB8A5A
:1026A00007F10E0207F10F01184605F07EFE034602
:1026B00087F82F3097F82F30002B18D18C4807F06F
:1026C000EDFFFB7B022B0AD1BB7B022B07D1FB7BEF
:1026D0001946BB7B1A46874807F06CFF45E0FB7B39
:1026E0001946BB7B1A46834807F064FF3DE08248E9
:1026F00007F0D4FF39E0FB6901337B61754B93F838
:1027000081301846FEF7DAFE7B69B3F801309BB2E0
:1027100019467A4807F04EFF6E4B93F88030042B31
:1027200004D16C4B062283F8802003E0694B05221C
:1027300083F880207B69B3F801309AB2654BDA8266
:10274000664B00221A70634BDA8A644B5A806348E6
:1027500000F06CFC614B00221A705E4BDA8A5F4B12
:102760005A805E4800F062FC00BFAEE0BB6A0233F4
:102770007B627B6A1B889BB240F20542934249D040
:1027800040F20542934217DC40F20142934273D07B
:1027900040F20142934206DC042B00F08A80B3F53C
:1027A000806F24D090E040F2034293422AD040F25E
:1027B000034293422ADC1EE0B3F5816F3AD0B3F5B1
:1027C000816F08DC40F2064293422FD040F207426C
:1027D00093426AD078E040F20A4293422ED040F20F
:1027E0000A4293422EDBB3F5006F5AD06CE04448A6
:1027F00007F054FF68E0434807F050FF424807F0F5
:102800004DFF61E0414807F049FF5DE0404807F0B7
:1028100045FF59E03F4807F041FF2E4BDB8A184641
:1028200005F0AFF93C4807F039FF4DE03B4807F0B1
:1028300035FF49E0394807F031FF45E0384807F0F7
:102840002DFF41E07B6A0233D3F802301946354848
:1028500007F0B0FE7B6A0233D3F8023019463248E3
:1028600007F0A8FE1B4BDB8A0121184605F0D3F9BF
:102870002E4807F013FF27E07B6A02333B623B6A76
:102880009B7819462A4807F095FE3B6A9B78002BF7
:1028900003D1284807F002FF16E0274807F0FEFEA4
:1028A00012E0264B01221A700EE0254807F0F6FED2
:1028B0000AE0012000F012FF064B93F882300A2153
:1028C0001846FEF785FE00BF00BF012318463037CB
:1028D000BD4680BD48010020A8B400089415002022
:1028E000D0B40008FCB4000818B500083CB50008D6
:1028F00064B5000878B5000894B50008ACB50008C8
:10290000E0B500080CB6000834B6000854B600085C
:1029100080B60008B0B60008D0B60008ECB60008D3
:1029200010B700083CB7000854B7000868B70008A3
:10293000A4B70008FCB7000810B8000898150020DC
:1029400024B8000880B500AF00F0ACFB00BF80BD2C
:1029500080B500AF0021042007F0E0FC00BF80BD7F
:1029600080B400AF00BFBD465DF8047B7047000037
:1029700080B582B000AF064B3B60064B7B603B46A8
:102980001946054805F014FF00BF0837BD4680BD55
:1029900028000320E52E0008AD2E0008F0B58FB00A
:1029A00006AF00233B8005F0DCFC00F05FF9F86126
:1029B000FA690621002005F0CAFBFB695A79524BDF
:1029C0001A72FB691A79504B5A72FB69DA784E4BCE
:1029D0009A72FB699A784C4BDA72FB695A784A4BC7
:1029E0001A73FB691A78484B5A734EF66E53BB60E4
:1029F000FFF75CFD03467B603B1D1A4606212E2037
:102A000005F0A5FB414A1021182005F0A0FB404A23
:102A10001021082005F09BFB1821012005F000FC87
:102A200005F050F90023FB76FB7E43F00103FB76B3
:102A3000FB7E002B1ED0374B7B6107F11202F87E24
:102A400007F10E03019307F11003009313460722C9
:102A5000002104F08BFF7C8A3D8A7869FDF790FBAA
:102A60000346DAB27B6900931346002229462046CA
:102A700005F0E6FA788AF9893B46009302230022A2
:102A800005F0DEFA02220221002005F0F6FC224BBE
:102A900001221A70204B1B78184604F075FE1E4B5D
:102AA00001225A701C4B08221A711B4B10225A71BA
:102AB000194B0022DA70184B184A9A60164B012203
:102AC0009A70154B9D78144B5E78134B1B79124A04
:102AD00052791149C9781048806800240494039001
:102AE000029101920093002301223146284604F00E
:102AF00095FE094B9B78002B01D005F01EF800BF16
:102B00002437BD46F0BD00BF0C00002028BD0008E2
:102B100038BD00084CB800084801002007B2010089
:102B200080B58CB008AF0346FB714223FB72FB7982
:102B3000012B06D13F4B1B88FB813F4B1B88BB8180
:102B400005E04FF4C863FB814FF47A63BB813B4BD4
:102B500093F881301846FEF7B1FC384B93F880307B
:102B60001946374807F026FDFB79022B19D1334B64
:102B700093F88030012B04D0304B93F88030022B37
:102B80000FD104F0FFFC0346FB72FB7A002B03D14C
:102B90002C4807F083FD04E0FB7A19462A4807F029
:102BA00009FD264AFB7982F88030244B1B7EB889C8
:102BB000F9890022069200220592244A0492039386
:102BC000234B029308230193002300930023024622
:102BD000002004F0FBFC0346FB721E490E2004F0AB
:102BE00050FF0346FB72FB7A002B11D1FB79012BBE
:102BF0000AD1194807F052FD104B93F8813017495C
:102C00001846FEF7E5FC12E0154807F047FD0EE018
:102C1000FB79012B05D1FB7A1946124807F0CAFC53
:102C200005E0FB7A1946104807F0C4FC00BF1037D6
:102C3000BD4680BDCC010020CE010020480100200F
:102C400054B8000870B8000894B80008610100206A
:102C500048BD00080C000020BCB8000846E0010098
:102C6000E4B8000810B9000840B9000880B586B083
:102C700000AFFFF71BFC38613B69B3F1FF3F23D086
:102C8000FFF72CFCB860FFF71DFC78603B69DAB2F7
:102C9000164B1A703B691B0ADAB2144B5A703B6927
:102CA0001B0CDAB2114B9A707B68DAB20F4BDA70F8
:102CB000BB68DAB20D4B1A71BB681B0ADAB20B4B58
:102CC0005A710A4B7B610BE0002005F027FFF8608A
:102CD000FB68002B02D0FB687B6101E0044B7B6149
:102CE0007B6918461837BD4680BD00BF40020020F2
:102CF00020BD000880B582B000AF012000F008FDC3
:102D0000104B93F88030052B17D00023FB7104F093
:102D100039FC0346FB710B4B002283F88020FB79C2
:102D2000002B06D1084807F045FC084807F042FC94
:102D300003E0074807F03EFC00BF00BF0837BD4670
:102D400080BD00BF4801002074B900087CB90008AC
:102D500098B9000880B500AF0021012007F0DEFA25
:102D600000BF80BD80B500AF012000F0D1FC00BFE6
:102D700080BD000090B589B002AF0346FB80294BAF
:102D80001B78012B49D1274B00221A70264B1B7848
:102D90000133002B03F00103B8BF5B42DAB2224BD0
:102DA0001A70214B1B78214A9B00134493ED007A43
:102DB000F7EE046AC7EE267AFDEEE77A17EE903A50
:102DC000FB82194B1B78194A9B00134493ED007A40
:102DD000F7EE046AC7EE267AFDEEE77A17EE903A30
:102DE000BB8200237B824FF4FA733B82104BD88A5C
:102DF0007C8ABA8AF98A3B8A0093234605F0A4FBB1
:102E00000346FB73FB7B002B03D10A4807F0D2FB80
:102E100003E0094807F0CEFB00BF00BF1C37BD46EA
:102E200090BD00BF981500209915002004000020D7
:102E300048010020BCB90008ECB9000880B500AF1B
:102E4000084B93F88030012B0AD0064B93F8803062
:102E5000002B05D0034BDB8A1846FFF78BFF00BF22
:102E600000BF80BD4801002080B582B000AF78600F
:102E70000021082007F052FA00BF0837BD4680BD88
:102E800080B582B000AF7860012007F0ADFA00BFD6
:102E90000837BD4680BD80B582B000AF78600120A4
:102EA00007F0C0FA00BF0837BD4680BD80B584B0CA
:102EB00000AF78607B68FB60FB685B68083318468E
:102EC00006F04EFE0346FB72FB7A002B03D0FB6834
:102ED00001221A7002E0FB6800221A7000BF10374E
:102EE000BD4680BD80B584B000AF0346FB71FB7961
:102EF000002B02D0012B06D00BE00F23FB60F868FB
:102F000007F036FA05E00F23FB60F86807F04EFA89
:102F100000BF00BF1037BD4680BD000080B582B045
:102F200000AF78607B681B78012B0ED0032B16D086
:102F3000002B00D066E0354B01221A70344807F0B0
:102F4000ADFB344807F036FB5CE0304B00221A70D2
:102F5000314807F0A3FB2F4807F02CFB52E07B68B9
:102F60005B681B78002B23D17B685B6801331B787F
:102F7000012B0BD1002000F0B1FB284807F08EFB9D
:102F8000244807F017FB214B01229A707B685B688D
:102F900001331B78002B0BD1002000F0B9FB204837
:102FA00007F07CFB1B4807F005FB184B00229A70CA
:102FB0007B685B681B78012B23D17B685B680133DE
:102FC0001B78012B0BD1002000F088FB154807F07F
:102FD00065FB104807F0EEFA0C4B01229A707B68F3
:102FE0005B6801331B78002B0BD1002000F090FBB5
:102FF0000D4807F053FB074807F0DCFA034B0022AB
:103000009A7000BF00BF0837BD4680BDD0010020C8
:1030100014BA000848BA00084CBA000880BA000880
:10302000A8BA0008D0BA0008F8BA000880B582B083
:1030300000AF78607B681B78002B05D0012B00D097
:1030400003E000F019F800E000BF00BF0837BD46FC
:1030500080BD000080B500AF054A0021022007F0C6
:103060003DF9044B00221A7000F006F800BF80BD45
:10307000B5300008D001002080B500AF002000F07E
:1030800047FB074B01225A70054B00229A70044BF4
:103090000122DA70024B00221A7100BF80BD00BF0E
:1030A000D001002080B500AF0021022007F036F9E2
:1030B00000BF80BD80B500AF0F4B1B79002B03D143
:1030C0000D4B01221A7102E00B4B00221A710A4BC0
:1030D0001B78002B0BD0094807F06CFA084807F062
:1030E00069FA08494FF6426005F048FE03E00648D9
:1030F00007F060FA00BF80BDD001002020BB0008AF
:1031000048BA0008D301002060BB000880B400AFBB
:10311000054BDB68044A43F40043D36000BFBD465F
:103120005DF8047B704700BF0004005880B483B092
:1031300000AF7860064BD3F8D42005497B68134371
:10314000C1F8D43000BF0C37BD465DF8047B704732
:103150000008005880B483B000AF7860054B1A6A4D
:1031600004497B6813430B6200BF0C37BD465DF812
:10317000047B70470008005880B485B000AF7860C9
:103180004FF0B0431A6D4FF0B0417B6813430B65AD
:103190004FF0B0431A6D7B681340FB60FB6800BFC3
:1031A0001437BD465DF8047B704780B485B000AF2E
:1031B00078604FF0B043D3F850214FF0B0417B68B6
:1031C0001343C1F850314FF0B043D3F850217B681E
:1031D0001340FB60FB6800BF1437BD465DF8047BFD
:1031E000704780B483B000AF78607B681B6843F49D
:1031F00080327B681A6000BF0C37BD465DF8047BE7
:10320000704780B483B000AF78607B681B6843F080
:1032100001027B681A6000BF0C37BD465DF8047B75
:10322000704780B483B000AF786039607B685A68BB
:103230003B681B04DB431A407B685A6000BF0C37B5
:10324000BD465DF8047B704780B483B000AF786002
:1032500039607B685A683B681B041A437B685A6074
:1032600000BF0C37BD465DF8047B704780B483B067
:1032700000AF786039607B685A683B68DB431A406E
:103280007B685A6000BF0C37BD465DF8047B704711
:1032900080B483B000AF786039607B683A689A6028
:1032A00000BF0C37BD465DF8047B704780B483B027
:1032B00000AF786039603B681A047B689A6000BF91
:1032C0000C37BD465DF8047B704780B483B000AF17
:1032D000786039607B68DA683B6813403A689A42E4
:1032E00001D1012300E0002318460C37BD465DF8EC
:1032F000047B704780B483B000AF786039607B682E
:10330000DA693B6813403A689A4201D1012300E030
:10331000002318460C37BD465DF8047B704700005B
:1033200080B500AF02211948FFF7E4FF0346002BE8
:1033300009D0164B5B68DB4303F00203002B02D07D
:1033400000F0EAF81FE001211048FFF7D3FF034621
:10335000002B08D00D4B5B6803F00103002B02D15A
:1033600000F09EF80FE008210848FFF7C3FF03466E
:10337000002B09D0054B5B68DB4303F00803002BEF
:1033800002D000F015F900BF00BF80BD000C00584E
:1033900080B500AF02212248FFF797FF0346002BBC
:1033A00009D11F4B5B68DB4303F40033002B02D0D1
:1033B00000F0A6F831E002211948FFF786FF034626
:1033C000002B09D1164B5B68DB4303F40033002B61
:1033D00002D000F095F820E008211148FFF775FFB2
:1033E0000346002B09D10E4B5B68DB4303F400233B
:1033F000002B02D000F0BEF80FE020210848FFF7B4
:1034000064FF0346002B09D1054B5B68DB4303F4E3
:103410000013002B02D000F04FF800BF00BF80BDAA
:10342000000C005880B500AF4FF48010FFF7BDFED0
:103430004FF40070FFF77AFE4FF40070FFF78AFE3A
:1034400040BF20BFFFF762FE00BF80BD80B500AF68
:103450004FF48010FFF790FE0648FFF7D2FE0548B4
:10346000FFF7BFFE2C2000F046FC2D2000F043FCAF
:1034700000BF80BD000C005880B500AF012102489C
:10348000FFF7F4FE00BF80BD000C005880B500AF10
:1034900001210248FFF70AFF00BF80BD000C005861
:1034A00080B500AF06F03EFC01210248FFF7F0FEB8
:1034B00000BF80BD000C005880B500AF202103483C
:1034C000FFF7C2FE06F05EFC00BF80BD000C005896
:1034D00080B500AF02210248FFF7C8FE00BF80BDE3
:1034E000000C005880B500AF02210448FFF7DEFE53
:1034F00002210248FFF795FE00BF80BD000C005876
:1035000080B500AF02210348FFF79EFE06F08AFC5B
:1035100000BF80BD000C005880B500AF06F098FCDD
:1035200002210248FFF7B4FE00BF80BD000C005826
:1035300080B582B000AF786008210C48FFF7C5FE67
:103540000346002B07D00A4A7B681360082107480E
:10355000FFF767FE06E07B68984708210348FFF7FE
:10356000A5FE00BF0837BD4680BD00BF000C005857
:103570004802002080B500AF08210648FFF764FE2E
:10358000054B1B68984708210248FFF78FFE00BFD4
:1035900080BD00BF000C00584802002080B500AF7D
:1035A00008210248FFF762FE00BF80BD000C0058F2
:1035B00080B500AF06F0F4FC08210248FFF768FE72
:1035C00000BF80BD000C0058D458C4500433C41848
:1035D0008C42F9D37047036004308842FBD37047B4
:1035E0000C4885460C480D490D4A0023FFF7EFFFB4
:1035F0000C480D490023FFF7F0FF0C480C4900234D
:10360000FFF7EBFF00F010F906F09CFFFEF794FACD
:10361000FEE700000000032004000020AC000020B2
:10362000D4BE000814020020A4150020E0010320ED
:10363000570A0320FEE780B485B000AF78604FF0F2
:10364000B043DA6C4FF0B0417B681343CB644FF06A
:10365000B043DA6C7B681340FB60FB6800BF143733
:10366000BD465DF8047B704780B588B000AF034667
:10367000FB7107F10C0300221A605A609A60DA604D
:103680001A610220FFF7D7FFFB79124A32F8133094
:10369000FB6001233B6100237B610223BB61FB795B
:1036A0000D4A52F8233007F10C021146184600F07B
:1036B0007BFEFB79084A52F82300FB79054A32F871
:1036C00013300022194600F0DFFF00BF2037BD464F
:1036D00080BD00BF50BD00081C00002080B582B036
:1036E00000AF0346FB71FB79074A52F82300FB79D0
:1036F000064A32F813300122194600F0C5FF00BF18
:103700000837BD4680BD00BF1C00002050BD00082A
:1037100080B582B000AF0346FB71FB79074A52F8CF
:103720002300FB79064A32F813300022194600F0D4
:10373000ABFF00BF0837BD4680BD00BF1C000020A6
:1037400050BD000880B588B000AF03460A46FB7143
:103750001346BB7107F10C0300221A605A609A608D
:10376000DA601A61FB79002B03D10420FFF763FFB5
:103770000CE0FB79012B03D10820FFF75CFF05E08B
:10378000FB79022B02D10820FFF755FFBB79002BF4
:1037900017D1FB79204A32F81330FB6000233B61DC
:1037A00001237B610223BB61FB791C4A52F8233061
:1037B00007F10C021146184600F0F6FD0120FEF755
:1037C0007CFBBB79012B22D1FB79134A32F81330F1
:1037D000FB6001237B61124B3B61FB790F4A52F87E
:1037E000233007F10C021146184600F0DDFDFB798D
:1037F0000C4AD35C5BB200220F21184600F061FA3C
:10380000FB79084AD35C5BB2184600F074FA00BF3B
:103810002037BD4680BD00BF58BD000828000020ED
:103820000000211060BD000880B400AF264B0022CC
:103830009A60254BD3F88830234A43F47003C2F8CA
:1038400088304FF0B0431B684FF0B04243F00103A3
:1038500013604FF0B0434FF4E0229A604FF0B04352
:103860001A684FF0B041194B13400B604FF0B04352
:10387000D3F894304FF0B04223F00503C2F89430EF
:103880004FF0B043D3F898304FF0B04223F001032B
:10389000C2F898304FF0B0430D4ADA604FF0B043B1
:1038A0000B4A1A614FF0B0431B684FF0B04223F44B
:1038B000802313604FF0B04300229A6100BFBD46E1
:1038C0005DF8047B704700BF00ED00E0FBFEF6FAF8
:1038D0000010042280B400AF054B5B68044A43F03B
:1038E0000103536000BFBD465DF8047B704700BF15
:1038F000002004E080B400AF054B5B68044A43F04D
:103900000203536000BFBD465DF8047B704700BFF3
:10391000002004E080B582B000AF0023FB710C4BA7
:103920001B680B4A43F480731360032000F0BEF958
:10393000002000F00FF80346002B02D00123FB719A
:1039400001E0FEF789FBFB7918460837BD4680BDCC
:103950000040005880B584B000AF78600023FB734E
:10396000174B1B78002B24D001F0ACFF0246144B00
:103970001B7819464FF47A73B3FBF1F3B2FBF3F300
:10398000184600F0D4F90346002B0FD17B680F2BAB
:1039900009D8002279684FF0FF3000F092F9094A07
:1039A0007B68136007E00123FB7304E00123FB73D2
:1039B00001E00123FB73FB7B18461037BD4680BD39
:1039C0003C0000203800002080B400AF064B1B787C
:1039D0001A46064B1B681344044A136000BFBD46D9
:1039E0005DF8047B704700BF3C0000209C15002060
:1039F00080B400AF034B1B681846BD465DF8047BDE
:103A0000704700BF9C15002080B400AF034B1B68BB
:103A10001846BD465DF8047B704700BF38000020A3
:103A200080B400AF034B1B781846BD465DF8047B9D
:103A3000704700BF3C00002080B500AFFFF74AFF91
:103A400000BF80BD80B500AFFFF754FF00BF80BD51
:103A500080B485B000AF78607B6803F00703FB603B
:103A60000C4BDB68BB60BA684FF6FF031340BB60CA
:103A7000FB681A02BB68134343F0BF6343F400338F
:103A8000BB60044ABB68D36000BF1437BD465DF815
:103A9000047B704700ED00E080B400AF044BDB68AE
:103AA0001B0A03F007031846BD465DF8047B704708
:103AB00000ED00E080B483B000AF0346FB7197F9DE
:103AC0000730002B0BDBFB7903F01F02074997F946
:103AD00007305B09012000FA02F241F8232000BF01
:103AE0000C37BD465DF8047B704700BF00E100E085
:103AF00080B483B000AF0346FB7197F90730002B09
:103B000010DBFB7903F01F02094997F907305B09C5
:103B1000012000FA02F2203341F82320BFF34F8F37
:103B2000BFF36F8F00BF0C37BD465DF8047B704755
:103B300000E100E080B483B000AF0346FB7197F969
:103B40000730002B0CDBFB7903F01F02074997F9C4
:103B500007305B09012000FA02F2403341F82320CC
:103B600000BF0C37BD465DF8047B704700E100E004
:103B700080B483B000AF0346FB7197F90730002B88
:103B80000CDBFB7903F01F02074997F907305B094B
:103B9000012000FA02F2603341F8232000BF0C3705
:103BA000BD465DF8047B704700E100E080B483B05F
:103BB00000AF03463960FB7197F90730002B0ADB31
:103BC0003B68DAB20C4997F907301201D2B20B44C4
:103BD00083F800230AE03B68DAB20849FB7903F076
:103BE0000F03043B1201D2B20B441A7600BF0C370C
:103BF000BD465DF8047B704700E100E000ED00E0A9
:103C000080B489B000AFF860B9607A60FB6803F0F7
:103C10000703FB61FB69C3F10703042B28BF0423DF
:103C2000BB61FB690433062B02D9FB69033B00E04F
:103C300000237B614FF0FF32BB6902FA03F3DA43E2
:103C4000BB681A407B699A404FF0FF317B6901FAEB
:103C500003F3D9437B680B40134318462437BD4612
:103C60005DF8047B7047000080B582B000AF7860DB
:103C70007B68013BB3F1807F01D301230FE00A4A47
:103C80007B68013B53600F214FF0FF30FFF78EFF41
:103C9000054B00229A60044B07221A600023184645
:103CA0000837BD4680BD00BF10E000E080B582B09F
:103CB00000AF78607868FFF7CBFE00BF0837BD46DD
:103CC00080BD80B586B000AF0346B9607A60FB73F3
:103CD000FFF7E2FE78617A68B9687869FFF790FFCC
:103CE000024697F90F3011461846FFF75FFF00BFF5
:103CF0001837BD4680BD80B582B000AF0346FB716A
:103D000097F907301846FFF7D5FE00BF0837BD46C4
:103D100080BD80B582B000AF0346FB7197F90730D4
:103D20001846FFF7E5FE00BF0837BD4680BD80B5E9
:103D300082B000AF78607868FFF796FF03461846B8
:103D40000837BD4680BD80B582B000AF0346FB7129
:103D500097F907301846FFF7EDFE00BF0837BD465C
:103D600080BD80B582B000AF0346FB7197F9073084
:103D70001846FFF7FDFE00BF0837BD4680BD0000B6
:103D800080B584B000AF78607B68002B01D101233F
:103D90008EE07B681B681A46474B9A420FD87B68B7
:103DA0001B681A46454B1344454AA2FB03231B09D3
:103DB0009A007B685A647B68424A1A640EE07B680A
:103DC0001B681A46404B13443D4AA2FB03231B09C0
:103DD0009A007B685A647B683C4A1A647B680222BA
:103DE00083F825207B681B681B68FB60FB6823F455
:103DF000FF4323F07003FB607B689A687B68DB6895
:103E00001A437B681B691A437B685B691A437B68AA
:103E10009B691A437B68DB691A437B681B6A1343FF
:103E2000FA681343FB607B681B68FA681A6078685D
:103E300000F016FA7B689B68B3F5804F02D17B686F
:103E400000225A607B685A687B689B6C02F03F02D4
:103E50001A607B68DB6C7A68126D5A607B685B68FD
:103E6000002B10D07B685B68042B0CD8786800F0BE
:103E700035FA7B685B6D00221A607B689B6D7A68FF
:103E8000D26D5A6008E07B6800225A657B68002288
:103E90009A657B680022DA657B680022DA637B68BA
:103EA000012283F825207B68002283F82420002348
:103EB00018461037BD4680BD07040240F8FFFDBF1D
:103EC000CDCCCCCC00000240F8FBFDBF000402408A
:103ED00080B586B000AFF860B9607A603B600023BF
:103EE000FB75FB6893F82430012B01D1022366E0B7
:103EF000FB68012283F82420FB6893F82530DBB2AD
:103F0000012B55D1FB68022283F82520FB68002293
:103F1000DA63FB681B681A68FB681B6822F0010201
:103F20001A603B687A68B968F86800F05AF9FB686B
:103F30001B6B002B08D0FB681B681A68FB681B68AA
:103F400042F00E021A600FE0FB681B681A68FB68FB
:103F50001B6822F004021A60FB681B681A68FB6881
:103F60001B6842F00A021A60FB689B6C1B6803F432
:103F70008033002B07D0FB689B6C1A68FB689B6C36
:103F800042F480721A60FB685B6D002B07D0FB68FF
:103F90005B6D1A68FB685B6D42F480721A60FB68A7
:103FA0001B681A68FB681B6842F001021A6005E092
:103FB000FB68002283F824200223FB75FB7D184652
:103FC0001837BD4680BD80B584B000AF786000234F
:103FD000FB737B6893F82530DBB2022B05D07B683E
:103FE0000422DA630123FB7347E07B681B681A68CD
:103FF0007B681B6822F00E021A607B681B681A68D7
:104000007B681B6822F001021A607B689B6C1A684F
:104010007B689B6C22F480721A607B685B6C03F097
:104020001C027B681B6C012101FA02F25A607B685A
:10403000DB6C7A68126D5A607B685B6D002B0CD06C
:104040007B685B6D1A687B685B6D22F480721A6016
:104050007B689B6D7A68D26D5A607B68012283F819
:1040600025207B68002283F824207B689B6B002B33
:1040700003D07B689B6B78689847FB7B18461037AA
:10408000BD4680BD80B584B000AF78607B681B6C96
:104090001B68FB607B681B681B68BB607B685B6C94
:1040A00003F01C0304229A40FB681340002B26D027
:1040B000BB6803F00403002B21D07B681B681B68DE
:1040C00003F02003002B07D17B681B681A687B680C
:1040D0001B6822F004021A607B685B6C03F01C0210
:1040E0007B681B6C042101FA02F25A607B681B6B2F
:1040F000002B71D07B681B6B786898476CE07B68FD
:104100005B6C03F01C0302229A40FB681340002BF7
:104110002ED0BB6803F00203002B29D07B681B68FC
:104120001B6803F02003002B0BD17B681B681A6807
:104130007B681B6822F00A021A607B68012283F800
:1041400025207B685B6C03F01C027B681B6C0221E2
:1041500001FA02F25A607B68002283F824207B680F
:10416000DB6A002B38D07B68DB6A7868984733E0DD
:104170007B685B6C03F01C0308229A40FB681340C9
:10418000002B2AD0BB6803F00803002B25D07B68E6
:104190001B681A687B681B6822F00E021A607B6835
:1041A0005B6C03F01C027B681B6C012101FA02F2BC
:1041B0005A607B680122DA637B68012283F825203C
:1041C0007B68002283F824207B685B6B002B04D083
:1041D0007B685B6B7868984700BF00BF1037BD46AF
:1041E00080BD80B485B000AFF860B9607A603B6094
:1041F000FB68DB6CFA68126D5A60FB685B6D002B24
:1042000004D0FB689B6DFA68D26D5A60FB685B6CEA
:1042100003F01C02FB681B6C012101FA02F25A60D8
:10422000FB681B683A685A60FB689B68102B08D1D2
:10423000FB681B687A689A60FB681B68BA68DA607A
:1042400007E0FB681B68BA689A60FB681B687A68BD
:10425000DA6000BF1437BD465DF8047B704700008C
:1042600080B485B000AF78607B681B681A46174B36
:104270009A420AD87B685B6C9B089B0003F18043E1
:1042800003F502337A68936407E07B685B6C9B08F4
:104290009A000F4B13447A6893647B681B68DBB207
:1042A000083B0C4AA2FB03231B09FB607B680A4AFC
:1042B000DA64FB6803F01F0301229A407B681A65E9
:1042C00000BF1437BD465DF8047B70470704024009
:1042D0001C080240CDCCCCCC8008024080B485B014
:1042E00000AF78607B685B6803F03F03FB60FA68AF
:1042F0000B4B13449B001A467B685A657B68094A3E
:104300009A65FB68013B03F0030301229A407B6836
:10431000DA6500BF1437BD465DF8047B704700BF07
:104320003F8200104009024080B483B000AF786043
:1043300039607B6893F82530DBB2012B2BD17B6889
:1043400093F82430012B01D1022325E07B68012260
:1043500083F824207B689B6C1A68124B13403A68E0
:1043600011683A68D268013AD20411433A68526837
:1043700011433A68127A120411433A68527A52028F
:1043800011437A68926C0B4313607B68002283F8B8
:104390002420002300E0012318460C37BD465DF8B9
:1043A000047B7047FFFD00E080B487B000AF786009
:1043B000396000237B614CE13B681A6801217B690D
:1043C00001FA03F31340FB60FB68002B00F03E8111
:1043D0003B685B68012B0BD03B685B68022B07D006
:1043E0003B685B68112B03D03B685B68122B30D1B4
:1043F0007B689B683B617B695B00032202FA03F3E5
:10440000DB433A6913403B613B68DA687B695B00D8
:1044100002FA03F33A6913433B617B683A699A6095
:104420007B685B683B6101227B6902FA03F3DB4333
:104430003A6913403B613B685B681B0903F001026A
:104440007B6902FA03F33A6913433B617B683A697B
:104450005A607B68DB683B617B695B00032202FA80
:1044600003F3DB433A6913403B613B689A687B691D
:104470005B0002FA03F33A6913433B617B683A69D4
:10448000DA603B685B68022B03D03B685B68122BE9
:1044900023D17B69DA087B68083253F822303B610C
:1044A0007B6903F007039B000F2202FA03F3DB434F
:1044B0003A6913403B613B681A697B6903F0070363
:1044C0009B0002FA03F33A6913433B617B69DA0804
:1044D0007B680832396943F822107B681B683B61AE
:1044E0007B695B00032202FA03F3DB433A69134062
:1044F0003B613B685B6803F003027B695B0002FA87
:1045000003F33A6913433B617B683A691A603B687D
:104510005B6803F08053002B00F09880544A7B695D
:104520009B08023352F823303B617B6903F003039D
:104530009B000F2202FA03F3DB433A6913403B610D
:104540007B68B3F1904F19D07B684A4A934213D0ED
:104550007B68494A93420DD07B68484A934207D012
:104560007B68474A934201D1042308E0072306E011
:10457000032304E0022302E0012300E000237A6920
:1045800002F00302920093403A6913433B613849B9
:104590007B699B0802333A6941F82320394BD3F8F1
:1045A00080303B61FB68DB433A6913403B613B6809
:1045B0005B6803F48033002B03D03A69FB68134334
:1045C0003B61304A3B69C2F880302E4BD3F88430CF
:1045D0003B61FB68DB433A6913403B613B685B68C6
:1045E00003F40033002B03D03A69FB6813433B61AB
:1045F000244A3B69C2F88430224B1B683B61FB684C
:10460000DB433A6913403B613B685B6803F480130A
:10461000002B03D03A69FB6813433B61194A3B699D
:104620001360184B5B683B61FB68DB433A691340DE
:104630003B613B685B6803F40013002B03D03A69CD
:10464000FB6813433B610F4A3B6953607B6901334D
:104650007B613B681A687B6922FA03F3002B7FF4C5
:10466000ABAE00BF1C37BD465DF8047B704700BF92
:10467000000001400004004800080048000C004809
:10468000001000480008005880B483B000AF786084
:104690000B467B8013467B707B78002B03D07A8897
:1046A0007B689A6102E07A887B689A6200BF0C3767
:1046B000BD465DF8047B704780B582B000AF03460D
:1046C000FB80084BDA68FB881340002B06D0054AB4
:1046D000FB88D360FB881846FCF753F900BF083706
:1046E000BD4680BD0008005880B582B000AF0A4BBF
:1046F000DB687B60084B1A687B68DB430649134024
:104700000B60054A7B685360786800F007F800BFCB
:104710000837BD4680BD00BF0015005880B483B087
:1047200000AF786000BF0C37BD465DF8047B704772
:1047300080B400AF054B1B68044A43F480731360D8
:1047400000BFBD465DF8047B704700BF0004005801
:1047500080B400AF044B1B6803F4C0631846BD4629
:104760005DF8047B704700BF0004005880B400AFC0
:104770004FF0B0431B6803F48013B3F5801F01D1E1
:10478000012300E000231846BD465DF8047B704716
:1047900080B400AF4FF0B0431B684FF0B04243F419
:1047A0008033136000BFBD465DF8047B704780B462
:1047B00000AF4FF0B0431B684FF0B04223F480339A
:1047C000136000BFBD465DF8047B704780B400AF46
:1047D0004FF0B0431B6803F40033B3F5003F01D141
:1047E000012300E000231846BD465DF8047B7047B6
:1047F00080B400AF4FF0B0431B684FF0B04243F4B9
:104800008073136000BFBD465DF8047B704780B4C1
:1048100000AF4FF0B0431B684FF0B04223F48073F9
:10482000136000BFBD465DF8047B704780B400AFE5
:104830004FF0B0431B6803F48063B3F5806F01D180
:10484000012300E000231846BD465DF8047B704755
:1048500080B483B000AF78604FF0B0435B6823F062
:10486000FE427B681B064FF0B04113434B6000BF14
:104870000C37BD465DF8047B704780B400AF4FF045
:10488000B043D3F898304FF0B04243F00103C2F880
:10489000983000BFBD465DF8047B704780B400AF20
:1048A0004FF0B043D3F898304FF0B04223F00103FB
:1048B000C2F8983000BFBD465DF8047B704780B4F5
:1048C00000AF4FF0B043D3F8983003F00203022B4F
:1048D00001D1012300E000231846BD465DF8047BAA
:1048E000704780B400AF4FF0B043D3F890304FF032
:1048F000B04243F00103C2F8903000BFBD465DF8FE
:10490000047B704780B400AF4FF0B043D3F89030D1
:104910004FF0B04223F00103C2F8903000BFBD4613
:104920005DF8047B704780B400AF4FF0B043D3F81C
:1049300090304FF0B04243F00403C2F8903000BF13
:10494000BD465DF8047B704780B400AF4FF0B043C4
:10495000D3F890304FF0B04223F00403C2F8903007
:1049600000BFBD465DF8047B704780B400AF4FF0D8
:10497000B043D3F8903003F00203022B01D101239E
:1049800000E000231846BD465DF8047B704780B404
:1049900000AF4FF0B043D3F894304FF0B04243F043
:1049A0000103C2F8943000BFBD465DF8047B704738
:1049B00080B400AF4FF0B043D3F894304FF0B04222
:1049C00023F00103C2F8943000BFBD465DF8047BBC
:1049D000704780B400AF4FF0B043D3F8943003F089
:1049E0000203022B01D1012300E000231846BD463B
:1049F0005DF8047B704780B400AF4FF0B043D3F84C
:104A000094304FF0B04243F00403C2F8943000BF3A
:104A1000BD465DF8047B704780B400AF4FF0B043F3
:104A2000D3F894304FF0B04223F00403C2F894302E
:104A300000BFBD465DF8047B704780B400AF4FF007
:104A4000B043D3F8943003F00803082B01D10123BD
:104A500000E000231846BD465DF8047B704780B433
:104A600083B000AF78604FF0B043D3F8943023F4B4
:104A700070627B681B024FF0B0411343C1F8943061
:104A800000BF0C37BD465DF8047B704780B400AFB3
:104A90004FF0B0431B684FF0B04243F00103136086
:104AA00000BFBD465DF8047B704780B400AF4FF097
:104AB000B0431B684FF0B04223F00103136000BF06
:104AC000BD465DF8047B704780B400AF4FF0B04343
:104AD0001B6803F00203022B01D1012300E0002335
:104AE0001846BD465DF8047B704780B483B000AFC4
:104AF00078604FF0B0431B6823F0F0024FF0B041F4
:104B00007B6813430B6000BF0C37BD465DF8047B28
:104B1000704780B483B000AF4FF0B0431B6803F020
:104B2000F0037B607B68B02B01D9B0237B607B688E
:104B300018460C37BD465DF8047B704780B483B0DF
:104B400000AF78604FF0B0435B6823F47F427B682E
:104B50001B024FF0B04113434B6000BF0C37BD4602
:104B60005DF8047B704780B483B000AF78604FF08D
:104B7000B0439B6823F003024FF0B0417B681343BE
:104B80008B6000BF0C37BD465DF8047B704780B476
:104B900000AF4FF0B0439B6803F00C031846BD46CE
:104BA0005DF8047B704780B483B000AF78604FF04D
:104BB000B0439B6823F0F0024FF0B0417B68134391
:104BC0008B6000BF0C37BD465DF8047B704780B436
:104BD00083B000AF78604FF0B043D3F8083123F0D2
:104BE000F0024FF0B0417B681343C1F8083100BFB9
:104BF0000C37BD465DF8047B704780B483B000AFCE
:104C000078604FF0B043D3F8083123F00F027B688F
:104C10001B094FF0B0411343C1F8083100BF0C37F6
:104C2000BD465DF8047B704780B483B000AF786008
:104C30004FF0B0439B6823F4E0624FF0B0417B68D3
:104C400013438B6000BF0C37BD465DF8047B704793
:104C500080B483B000AF78604FF0B0439B6823F41A
:104C600060524FF0B0417B6813438B6000BF0C373C
:104C7000BD465DF8047B704780B400AF4FF0B04391
:104C80009B6803F0F0031846BD465DF8047B70474F
:104C900080B400AF4FF0B043D3F808311B0103F0EC
:104CA000F0031846BD465DF8047B704780B400AF42
:104CB0004FF0B0439B6803F4E0631846BD465DF8CF
:104CC000047B704780B400AF4FF0B0439B6803F49F
:104CD00060531846BD465DF8047B704780B400AF52
:104CE0004FF0B0431B684FF0B04243F08073136045
:104CF00000BFBD465DF8047B704780B400AF4FF045
:104D0000B0431B684FF0B04223F08073136000BFC4
:104D1000BD465DF8047B704780B400AF4FF0B043F0
:104D20001B6803F00073B3F1007F01D1012300E0A1
:104D300000231846BD465DF8047B704780B400AF81
:104D40004FF0B043DB681B0A03F07F031846BD46F3
:104D50005DF8047B704780B400AF4FF0B043DB6870
:104D600003F060431846BD465DF8047B704780B48D
:104D700000AF4FF0B043DB6803F070031846BD4648
:104D80005DF8047B704780B400AF4FF0B043DB6840
:104D900003F003031846BD465DF8047B704780B4FA
:104DA00000AF4FF0B0439B6803F48033B3F5803F0E
:104DB00001D1012300E000231846BD465DF8047BC5
:104DC000704780B400AF4FF0B043D3F8083103F41C
:104DD0000033B3F5003F01D1012300E00023184662
:104DE000BD465DF8047B704780B400AF4FF0B04320
:104DF000D3F8083103F48033B3F5803F01D10123A8
:104E000000E000231846BD465DF8047B704780B47F
:104E100000AF4FF0B0439B6803F40033B3F5003F9D
:104E200001D1012300E000231846BD465DF8047B54
:104E3000704780B400AF4FF0B0439B6803F4802309
:104E4000B3F5802F01D1012300E000231846BD46B1
:104E50005DF8047B7047000090B58DB000AF7860BE
:104E60007B68002B01D101237EE37B681B6803F084
:104E70002003002B00F09280FFF789FEF862FFF715
:104E800082FFB862FB6A002B05D0FB6A0C2B4CD169
:104E9000BB6A012B49D1FFF717FE0346002B05D053
:104EA0007B68DB69002B01D101235DE37B685C6AD1
:104EB000FFF72FFE03469C4214D97B685B6A1846B5
:104EC00000F040FD0346002B01D001234CE37B683A
:104ED0005B6A1846FFF709FE7B681B6A1846FFF7F6
:104EE0002DFE13E07B685B6A1846FFF7FEFD7B68CA
:104EF0001B6A1846FFF722FE7B685B6A184600F0C3
:104F000021FD0346002B01D001232DE300F0DAFC44
:104F10000246B34B1A60B34B1B681846FEF71AFDE6
:104F20000346002B39D001231EE37B68DB69002B8D
:104F30001ED0FFF7ABFDFEF75BFD786208E0FEF7E1
:104F400057FD02467B6AD31A022B01D903230BE3D8
:104F5000FFF7BAFD0346002BF1D07B685B6A184669
:104F6000FFF7C3FD7B681B6A1846FFF7E7FD15E0F6
:104F7000FFF79BFDFEF73CFD786208E0FEF738FD89
:104F800002467B6AD31A022B01D90323ECE2FFF716
:104F90009BFD0346002BF1D100E000BF7B681B683E
:104FA00003F00103002B4ED0FFF7F1FD3862FFF74D
:104FB000EAFEF8613B6A082B05D03B6A0C2B0DD149
:104FC000FB69032B0AD1FFF701FC0346002B39D004
:104FD0007B685B68002B35D10123C5E27B685B6889
:104FE000B3F5803F02D1FFF7D3FB01E0FFF7DFFB12
:104FF0007B685B68002B12D0FEF7FAFC786208E051
:10500000FEF7F6FC02467B6AD31A642B01D9032310
:10501000AAE2FFF7DBFB0346002BF1D013E0FEF71B
:10502000E7FC786208E0FEF7E3FC02467B6AD31AED
:10503000642B01D9032397E2FFF7C8FB0346002B3B
:10504000F1D100E000BF7B681B6803F00203002B76
:1050500051D0FFF79CFDB861FFF795FE7861BB6901
:10506000042B05D0BB690C2B13D17B69022B10D10B
:10507000FFF7DCFB0346002B05D07B68DB68002BC9
:1050800001D1012370E27B681B691846FFF7E0FB42
:1050900031E07B68DB68002B19D0FFF7A9FBFEF736
:1050A000A7FC786208E0FEF7A3FC02467B6AD31AED
:1050B000022B01D9032357E2FFF7B8FB0346002B6D
:1050C000F1D07B681B691846FFF7C2FB13E0FFF7BE
:1050D0009EFBFEF78DFC786208E0FEF789FC024635
:1050E0007B6AD31A022B01D903233DE2FFF79EFB13
:1050F0000346002BF1D17B681B6803F00803002BEB
:1051000006D17B681B6803F01003002B00F0A3801E
:105110007B685B69002B76D07B681B6803F010030B
:10512000002B46D0FFF755FC0346002B13D1FFF7A9
:105130002EFCFEF75DFC786208E0FEF759FC0246A3
:105140007B6AD31A022B01D903230DE2FFF741FC3E
:105150000346002BF1D0FFF74EFCFEF749FC7862C6
:1051600008E0FEF745FC02467B6AD31A032B01D9FF
:105170000323F9E1FFF761FC0346002BF1D07B68C4
:105180009B691846FFF76BFCFFF712FCFEF730FC3B
:10519000786208E0FEF72CFC02467B6AD31A022BE9
:1051A00001D90323E0E1FFF714FC0346002BF1D102
:1051B00051E0FFF7ECFBFEF71BFC786208E0FEF71E
:1051C00017FC02467B6AD31A022B01D90323CBE1D9
:1051D000FFF7FFFB0346002BF1D0FFF71DFC0CE0AF
:1051E0003400002038000020FEF702FC02467B6AF3
:1051F000D31A032B01D90323B6E1FFF71EFC0346A4
:10520000002BF1D127E0FFF707FCFEF7F1FB7862F6
:1052100008E0FEF7EDFB02467B6AD31A032B01D9A7
:105220000323A1E1FFF709FC0346002BF1D1FFF7AF
:10523000BFFBFEF7DDFB786208E0FEF7D9FB024614
:105240007B6AD31A022B01D903238DE1FFF7C1FB3F
:105250000346002BF1D17B681B6803F00403002B8D
:105260005BD0B54B1B6803F48073002B14D1FFF7A0
:105270005FFAFEF7BDFB786208E0FEF7B9FB024675
:105280007B6AD31A022B01D903236DE1AA4B1B6859
:1052900003F48073002BF0D07B689B68012B02D154
:1052A000FFF71FFB0CE07B689B68052B04D1FFF721
:1052B0003AFBFFF716FB03E0FFF724FBFFF744FB85
:1052C0007B689B68002B14D0FEF792FB78620AE0A3
:1052D000FEF78EFB02467B6AD31A41F28832934274
:1052E00001D9032340E1FFF740FB0346002BEFD039
:1052F00013E0FEF77DFB78620AE0FEF779FB0246D9
:105300007B6AD31A41F28832934201D903232BE1FD
:10531000FFF72BFB0346002BEFD17B681B6803F0E4
:105320004003002B2CD07B689B6A002B14D0FFF726
:10533000A4FAFEF75DFB786208E0FEF759FB02462F
:105340007B6AD31A022B01D903230DE1FFF7B7FAC9
:105350000346002BF1D013E0FFF7A0FAFEF748FB5D
:10536000786208E0FEF744FB02467B6AD31A022B00
:1053700001D90323F8E0FFF7A2FA0346002BF1D18D
:105380007B68DB6A002B00F0EE80FFF700FC3861E1
:105390004FF0B043DB68FB607B68DB6A022B40F0B8
:1053A000AF80FB6803F003027B681B6B9A4223D13A
:1053B000FB6803F070027B685B6B9A421CD1FB6850
:1053C0001B0A03F07F027B689B6B9A4214D1FB6837
:1053D00003F478127B68DB6B9A420DD1FB6803F013
:1053E00060627B681B6C9A4206D1FB6803F06042E6
:1053F0007B685B6C9A425DD03B690C2B58D04FF0B8
:10540000B0431B6803F08063002B01D00123ABE0A5
:10541000FFF773FCFEF7ECFA786208E0FEF7E8FAB3
:1054200002467B6AD31A022B01D903239CE04FF07A
:10543000B0431B6803F00073002BEFD14FF0B04373
:10544000DA683E4B13407A68116B7A68526B1143ED
:105450007A68926B120211437A68D26B11437A68B0
:10546000126C11437A68526C0A434FF0B0411343F7
:10547000CB60FFF733FC4FF0B043DB684FF0B04236
:1054800043F08053D360FEF7B3FA786208E0FEF78A
:10549000AFFA02467B6AD31A022B01D9032363E0D9
:1054A0004FF0B0431B6803F00073002BEFD05AE0BD
:1054B000012359E04FF0B0431B6803F00073002B49
:1054C00051D1FFF70BFC4FF0B043DB684FF0B04217
:1054D00043F08053D360FEF78BFA786208E0FEF762
:1054E00087FA02467B6AD31A022B01D903233BE0D9
:1054F0004FF0B0431B6803F00073002BEFD032E095
:105500003B690C2B2DD0FFF7F8FB4FF0B043DB6865
:105510004FF0B04223F00303D3604FF0B043DB6899
:105520004FF0B04223F0885323F48033D360FEF76A
:105530005FFA78620DE000BF000400588C80C11152
:10554000FEF756FA02467B6AD31A022B01D90323CF
:105550000AE04FF0B0431B6803F00073002BEFD15B
:1055600001E0012300E0002318463437BD4690BD1A
:1055700080B584B000AF786039607B68002B01D1C2
:1055800001232DE1984B1B6803F007033A689A4208
:105590001BD9954B1B6823F0070293493B681343C3
:1055A0000B60FEF725FAF86008E0FEF721FA0246E4
:1055B000FB68D31A022B01D9032311E18A4B1B6824
:1055C00003F007033A689A42EFD17B681B6803F047
:1055D0000203002B16D07B689B681846FFF7E3FA9E
:1055E000FEF706FAF86008E0FEF702FA0246FB68EA
:1055F000D31A022B01D90323F2E0FFF7D0FB0346B5
:10560000002BF1D07B681B6803F02003002B16D021
:105610007B685B691846FFF7DAFAFEF7E9F9F8608C
:1056200008E0FEF7E5F90246FB68D31A022B01D920
:105630000323D5E0FFF7C5FB0346002BF1D07B68C1
:105640001B6803F04003002B16D07B689B6918464B
:10565000FFF7D3FAFEF7CCF9F86008E0FEF7C8F9D7
:105660000246FB68D31A022B01D90323B8E0FFF7E7
:10567000BBFB0346002BF1D07B681B6803F00403DF
:10568000002B16D07B68DB681846FFF7CDFAFEF7D3
:10569000AFF9F86008E0FEF7ABF90246FB68D31AF1
:1056A000022B01D903239BE0FFF7B1FB0346002B3C
:1056B000F1D07B681B6803F00803002B17D07B68D0
:1056C0001B69DB001846FFF7C3FAFEF791F9F86093
:1056D00008E0FEF78DF90246FB68D31A022B01D9C8
:1056E00003237DE0FFF7A5FB0346002BF1D07B6889
:1056F0001B6803F00103002B43D07B685B68022B1F
:1057000006D1FFF763F80346002B1ED1012367E0A3
:105710007B685B68032B06D1FFF7FEFA0346002B7C
:1057200013D101235CE07B685B68002B06D1FFF797
:10573000CBF90346002B08D1012351E0FFF776F89F
:105740000346002B01D101234AE07B685B681846C1
:10575000FFF709FAFEF74CF9F8600AE0FEF748F99E
:105760000246FB68D31A41F28832934201D90323DF
:1057700036E0FFF70CFA02467B685B689B009A42B2
:10578000ECD1194B1B6803F007033A689A421BD20D
:10579000154B1B6823F0070213493B6813430B604A
:1057A000FEF726F9F86008E0FEF722F90246FB68EA
:1057B000D31A022B01D9032312E00B4B1B6803F011
:1057C00007033A689A42EFD100F07CF80246074B93
:1057D0001A60FEF719F903461846FEF7BBF80346B0
:1057E00018461037BD4680BD0040005834000020E8
:1057F00090B585B000AFFFF7CAF978607B68002BE1
:105800000AD1FFF786F903461B0903F00F032A4A62
:1058100052F82330FB604AE07B68042B02D1274B0F
:10582000FB6044E07B68082B0AD1FEF79FFF03462C
:10583000012B02D1214BFB6039E0214BFB6036E0AC
:10584000FFF7A1FA38603B68022B02D0032B03D08C
:105850000DE01A4BBB6015E0FEF788FF0346012BF5
:1058600002D1164BBB600DE0154BBB600AE0FFF7A1
:1058700050F903461B0903F00F030F4A52F8233077
:10588000BB6000BFFFF75AFA0246BB6803FB02F495
:10589000FFF76DFA03461B090133B4FBF3F4FFF77E
:1058A0005AFA03465B0F0133B4FBF3F3FB60FB686A
:1058B00018461437BD4690BDC4BD00080024F4004E
:1058C0000048E80198B500AFFFF792FF0446FFF7E4
:1058D000D3F903461B0903F00F03034A52F82330A0
:1058E000B4FBF3F3184698BD64BD000898B500AF4B
:1058F000FFF7E8FF0446FFF7D9F903461B0A03F058
:105900000703044A52F8233003F01F0324FA03F379
:10591000184698BDA4BD000898B500AFFFF7D2FFA8
:105920000446FFF7CFF90346DB0A03F00703044AF6
:1059300052F8233003F01F0324FA03F3184698BDEE
:10594000A4BD000890B585B000AF78607B68B02B2F
:1059500003D9154BDB6AFB6007E07B681B0903F08A
:105960000F03114A52F82330FB60FFF791F9034609
:105970001B0903F00F030D4A52F82330FA68B2FBFB
:10598000F3F3BB60BB680A4AA2FB03239C0CFEF73F
:10599000DFFE03461946204600F00CF80346184681
:1059A0001437BD4690BD00BFC4BD000864BD0008EB
:1059B00083DE1B4390B593B000AF78603960394BFC
:1059C00007F128040FCB84E80F00374A07F11C03C6
:1059D00007CA83E80700354B07F10C040FCB84E8B6
:1059E0000F0000237B643B68B3F5007F1CD10023CC
:1059F0003B6415E03B6C9B0007F14802134453F8ED
:105A0000203C7A689A4208D83B6C9B0007F1480218
:105A1000134453F83C3C7B6422E03B6C01333B6411
:105A20003B6C032BE6D91BE00023FB6315E0FB6B0B
:105A30009B0007F14802134453F82C3C7A689A42C1
:105A400008D8FB6B9B0007F14802134453F83C3C19
:105A50007B6405E0FB6B0133FB63FB6B022BE6D938
:105A6000134B1B6823F0070211497B6C13430B6037
:105A7000FDF7BEFFB86308E0FDF7BAFF0246BB6B57
:105A8000D31A022B01D9032307E0094B1B6803F04B
:105A900007037A6C9A42EFD1002318464C37BD4673
:105AA00090BD00BFACBB0008BCBB0008C8BB000871
:105AB0000040005880B400AF4FF0B043D3F89030AE
:105AC00003F00103012B01D1012300E0002318465C
:105AD000BD465DF8047B704780B400AF4FF0B04323
